{
  "contractName": "FloatToken",
  "abi": [
    {
      "anonymous": false,
      "inputs": [
        {
          "indexed": true,
          "internalType": "address",
          "name": "owner",
          "type": "address"
        },
        {
          "indexed": true,
          "internalType": "address",
          "name": "spender",
          "type": "address"
        },
        {
          "indexed": false,
          "internalType": "uint256",
          "name": "value",
          "type": "uint256"
        }
      ],
      "name": "Approval",
      "type": "event"
    },
    {
      "anonymous": false,
      "inputs": [
        {
          "indexed": false,
          "internalType": "address",
          "name": "account",
          "type": "address"
        }
      ],
      "name": "Paused",
      "type": "event"
    },
    {
      "anonymous": false,
      "inputs": [
        {
          "indexed": true,
          "internalType": "bytes32",
          "name": "role",
          "type": "bytes32"
        },
        {
          "indexed": true,
          "internalType": "bytes32",
          "name": "previousAdminRole",
          "type": "bytes32"
        },
        {
          "indexed": true,
          "internalType": "bytes32",
          "name": "newAdminRole",
          "type": "bytes32"
        }
      ],
      "name": "RoleAdminChanged",
      "type": "event"
    },
    {
      "anonymous": false,
      "inputs": [
        {
          "indexed": true,
          "internalType": "bytes32",
          "name": "role",
          "type": "bytes32"
        },
        {
          "indexed": true,
          "internalType": "address",
          "name": "account",
          "type": "address"
        },
        {
          "indexed": true,
          "internalType": "address",
          "name": "sender",
          "type": "address"
        }
      ],
      "name": "RoleGranted",
      "type": "event"
    },
    {
      "anonymous": false,
      "inputs": [
        {
          "indexed": true,
          "internalType": "bytes32",
          "name": "role",
          "type": "bytes32"
        },
        {
          "indexed": true,
          "internalType": "address",
          "name": "account",
          "type": "address"
        },
        {
          "indexed": true,
          "internalType": "address",
          "name": "sender",
          "type": "address"
        }
      ],
      "name": "RoleRevoked",
      "type": "event"
    },
    {
      "anonymous": false,
      "inputs": [
        {
          "indexed": true,
          "internalType": "address",
          "name": "from",
          "type": "address"
        },
        {
          "indexed": true,
          "internalType": "address",
          "name": "to",
          "type": "address"
        },
        {
          "indexed": false,
          "internalType": "uint256",
          "name": "value",
          "type": "uint256"
        }
      ],
      "name": "Transfer",
      "type": "event"
    },
    {
      "anonymous": false,
      "inputs": [
        {
          "indexed": false,
          "internalType": "address",
          "name": "account",
          "type": "address"
        }
      ],
      "name": "Unpaused",
      "type": "event"
    },
    {
      "inputs": [],
      "name": "DEFAULT_ADMIN_ROLE",
      "outputs": [
        {
          "internalType": "bytes32",
          "name": "",
          "type": "bytes32"
        }
      ],
      "stateMutability": "view",
      "type": "function",
      "constant": true
    },
    {
      "inputs": [],
      "name": "MINTER_ROLE",
      "outputs": [
        {
          "internalType": "bytes32",
          "name": "",
          "type": "bytes32"
        }
      ],
      "stateMutability": "view",
      "type": "function",
      "constant": true
    },
    {
      "inputs": [],
      "name": "PAUSER_ROLE",
      "outputs": [
        {
          "internalType": "bytes32",
          "name": "",
          "type": "bytes32"
        }
      ],
      "stateMutability": "view",
      "type": "function",
      "constant": true
    },
    {
      "inputs": [
        {
          "internalType": "address",
          "name": "owner",
          "type": "address"
        },
        {
          "internalType": "address",
          "name": "spender",
          "type": "address"
        }
      ],
      "name": "allowance",
      "outputs": [
        {
          "internalType": "uint256",
          "name": "",
          "type": "uint256"
        }
      ],
      "stateMutability": "view",
      "type": "function",
      "constant": true
    },
    {
      "inputs": [
        {
          "internalType": "address",
          "name": "spender",
          "type": "address"
        },
        {
          "internalType": "uint256",
          "name": "amount",
          "type": "uint256"
        }
      ],
      "name": "approve",
      "outputs": [
        {
          "internalType": "bool",
          "name": "",
          "type": "bool"
        }
      ],
      "stateMutability": "nonpayable",
      "type": "function"
    },
    {
      "inputs": [
        {
          "internalType": "address",
          "name": "account",
          "type": "address"
        }
      ],
      "name": "balanceOf",
      "outputs": [
        {
          "internalType": "uint256",
          "name": "",
          "type": "uint256"
        }
      ],
      "stateMutability": "view",
      "type": "function",
      "constant": true
    },
    {
      "inputs": [
        {
          "internalType": "uint256",
          "name": "amount",
          "type": "uint256"
        }
      ],
      "name": "burn",
      "outputs": [],
      "stateMutability": "nonpayable",
      "type": "function"
    },
    {
      "inputs": [
        {
          "internalType": "address",
          "name": "account",
          "type": "address"
        },
        {
          "internalType": "uint256",
          "name": "amount",
          "type": "uint256"
        }
      ],
      "name": "burnFrom",
      "outputs": [],
      "stateMutability": "nonpayable",
      "type": "function"
    },
    {
      "inputs": [],
      "name": "decimals",
      "outputs": [
        {
          "internalType": "uint8",
          "name": "",
          "type": "uint8"
        }
      ],
      "stateMutability": "view",
      "type": "function",
      "constant": true
    },
    {
      "inputs": [
        {
          "internalType": "address",
          "name": "spender",
          "type": "address"
        },
        {
          "internalType": "uint256",
          "name": "subtractedValue",
          "type": "uint256"
        }
      ],
      "name": "decreaseAllowance",
      "outputs": [
        {
          "internalType": "bool",
          "name": "",
          "type": "bool"
        }
      ],
      "stateMutability": "nonpayable",
      "type": "function"
    },
    {
      "inputs": [
        {
          "internalType": "bytes32",
          "name": "role",
          "type": "bytes32"
        }
      ],
      "name": "getRoleAdmin",
      "outputs": [
        {
          "internalType": "bytes32",
          "name": "",
          "type": "bytes32"
        }
      ],
      "stateMutability": "view",
      "type": "function",
      "constant": true
    },
    {
      "inputs": [
        {
          "internalType": "bytes32",
          "name": "role",
          "type": "bytes32"
        },
        {
          "internalType": "uint256",
          "name": "index",
          "type": "uint256"
        }
      ],
      "name": "getRoleMember",
      "outputs": [
        {
          "internalType": "address",
          "name": "",
          "type": "address"
        }
      ],
      "stateMutability": "view",
      "type": "function",
      "constant": true
    },
    {
      "inputs": [
        {
          "internalType": "bytes32",
          "name": "role",
          "type": "bytes32"
        }
      ],
      "name": "getRoleMemberCount",
      "outputs": [
        {
          "internalType": "uint256",
          "name": "",
          "type": "uint256"
        }
      ],
      "stateMutability": "view",
      "type": "function",
      "constant": true
    },
    {
      "inputs": [
        {
          "internalType": "bytes32",
          "name": "role",
          "type": "bytes32"
        },
        {
          "internalType": "address",
          "name": "account",
          "type": "address"
        }
      ],
      "name": "grantRole",
      "outputs": [],
      "stateMutability": "nonpayable",
      "type": "function"
    },
    {
      "inputs": [
        {
          "internalType": "bytes32",
          "name": "role",
          "type": "bytes32"
        },
        {
          "internalType": "address",
          "name": "account",
          "type": "address"
        }
      ],
      "name": "hasRole",
      "outputs": [
        {
          "internalType": "bool",
          "name": "",
          "type": "bool"
        }
      ],
      "stateMutability": "view",
      "type": "function",
      "constant": true
    },
    {
      "inputs": [
        {
          "internalType": "address",
          "name": "spender",
          "type": "address"
        },
        {
          "internalType": "uint256",
          "name": "addedValue",
          "type": "uint256"
        }
      ],
      "name": "increaseAllowance",
      "outputs": [
        {
          "internalType": "bool",
          "name": "",
          "type": "bool"
        }
      ],
      "stateMutability": "nonpayable",
      "type": "function"
    },
    {
      "inputs": [
        {
          "internalType": "string",
          "name": "name",
          "type": "string"
        },
        {
          "internalType": "string",
          "name": "symbol",
          "type": "string"
        }
      ],
      "name": "initialize",
      "outputs": [],
      "stateMutability": "nonpayable",
      "type": "function"
    },
    {
      "inputs": [],
      "name": "name",
      "outputs": [
        {
          "internalType": "string",
          "name": "",
          "type": "string"
        }
      ],
      "stateMutability": "view",
      "type": "function",
      "constant": true
    },
    {
      "inputs": [],
      "name": "pause",
      "outputs": [],
      "stateMutability": "nonpayable",
      "type": "function"
    },
    {
      "inputs": [],
      "name": "paused",
      "outputs": [
        {
          "internalType": "bool",
          "name": "",
          "type": "bool"
        }
      ],
      "stateMutability": "view",
      "type": "function",
      "constant": true
    },
    {
      "inputs": [
        {
          "internalType": "bytes32",
          "name": "role",
          "type": "bytes32"
        },
        {
          "internalType": "address",
          "name": "account",
          "type": "address"
        }
      ],
      "name": "renounceRole",
      "outputs": [],
      "stateMutability": "nonpayable",
      "type": "function"
    },
    {
      "inputs": [
        {
          "internalType": "bytes32",
          "name": "role",
          "type": "bytes32"
        },
        {
          "internalType": "address",
          "name": "account",
          "type": "address"
        }
      ],
      "name": "revokeRole",
      "outputs": [],
      "stateMutability": "nonpayable",
      "type": "function"
    },
    {
      "inputs": [
        {
          "internalType": "bytes4",
          "name": "interfaceId",
          "type": "bytes4"
        }
      ],
      "name": "supportsInterface",
      "outputs": [
        {
          "internalType": "bool",
          "name": "",
          "type": "bool"
        }
      ],
      "stateMutability": "view",
      "type": "function",
      "constant": true
    },
    {
      "inputs": [],
      "name": "symbol",
      "outputs": [
        {
          "internalType": "string",
          "name": "",
          "type": "string"
        }
      ],
      "stateMutability": "view",
      "type": "function",
      "constant": true
    },
    {
      "inputs": [],
      "name": "totalSupply",
      "outputs": [
        {
          "internalType": "uint256",
          "name": "",
          "type": "uint256"
        }
      ],
      "stateMutability": "view",
      "type": "function",
      "constant": true
    },
    {
      "inputs": [
        {
          "internalType": "address",
          "name": "recipient",
          "type": "address"
        },
        {
          "internalType": "uint256",
          "name": "amount",
          "type": "uint256"
        }
      ],
      "name": "transfer",
      "outputs": [
        {
          "internalType": "bool",
          "name": "",
          "type": "bool"
        }
      ],
      "stateMutability": "nonpayable",
      "type": "function"
    },
    {
      "inputs": [
        {
          "internalType": "address",
          "name": "sender",
          "type": "address"
        },
        {
          "internalType": "address",
          "name": "recipient",
          "type": "address"
        },
        {
          "internalType": "uint256",
          "name": "amount",
          "type": "uint256"
        }
      ],
      "name": "transferFrom",
      "outputs": [
        {
          "internalType": "bool",
          "name": "",
          "type": "bool"
        }
      ],
      "stateMutability": "nonpayable",
      "type": "function"
    },
    {
      "inputs": [],
      "name": "unpause",
      "outputs": [],
      "stateMutability": "nonpayable",
      "type": "function"
    },
    {
      "inputs": [
        {
          "internalType": "string",
          "name": "name",
          "type": "string"
        },
        {
          "internalType": "string",
          "name": "symbol",
          "type": "string"
        },
        {
          "internalType": "address",
          "name": "stakerAddress",
          "type": "address"
        }
      ],
      "name": "initialize3",
      "outputs": [],
      "stateMutability": "nonpayable",
      "type": "function"
    },
    {
      "inputs": [
        {
          "internalType": "address",
          "name": "to",
          "type": "address"
        },
        {
          "internalType": "uint256",
          "name": "amount",
          "type": "uint256"
        }
      ],
      "name": "mint",
      "outputs": [],
      "stateMutability": "nonpayable",
      "type": "function"
    }
  ],
  "bytecode": "0x608060405234801561001057600080fd5b506121a5806100206000396000f3fe608060405234801561001057600080fd5b50600436106101da5760003560e01c806370a0823111610104578063a457c2d7116100a2578063d539139311610071578063d5391393146103ec578063d547741f14610401578063dd62ed3e14610414578063e63ab1e91461044d576101da565b8063a457c2d7146103a0578063a9059cbb146103b3578063c44f242e146103c6578063ca15c873146103d9576101da565b80639010d07c116100de5780639010d07c1461035257806391d148541461037d57806395d89b4114610390578063a217fddf14610398576101da565b806370a082311461030e57806379cc6790146103375780638456cb591461034a576101da565b8063313ce5671161017c57806340c10f191161014b57806340c10f19146102c957806342966c68146102dc5780634cd88b76146102ef5780635c975abb14610302576101da565b8063313ce5671461028c57806336568abe1461029b57806339509351146102ae5780633f4ba83a146102c1576101da565b806318160ddd116101b857806318160ddd1461022f57806323b872dd14610241578063248a9ca3146102545780632f2ff15d14610277576101da565b806301ffc9a7146101df57806306fdde0314610207578063095ea7b31461021c575b600080fd5b6101f26101ed366004611e36565b610462565b60405190151581526020015b60405180910390f35b61020f61048f565b6040516101fe9190611fb2565b6101f261022a366004611db2565b610521565b60cb545b6040519081526020016101fe565b6101f261024f366004611d77565b610538565b610233610262366004611ddb565b60009081526065602052604090206001015490565b61028a610285366004611df3565b6105ee565b005b604051601281526020016101fe565b61028a6102a9366004611df3565b610615565b6101f26102bc366004611db2565b610637565b61028a61066e565b61028a6102d7366004611db2565b610702565b61028a6102ea366004611ddb565b610710565b61028a6102fd366004611edc565b61071d565b61012d5460ff166101f2565b61023361031c366004611d2b565b6001600160a01b0316600090815260c9602052604090205490565b61028a610345366004611db2565b610794565b61028a610817565b610365610360366004611e15565b6108a9565b6040516001600160a01b0390911681526020016101fe565b6101f261038b366004611df3565b6108c8565b61020f6108f3565b610233600081565b6101f26103ae366004611db2565b610902565b6101f26103c1366004611db2565b61099d565b61028a6103d4366004611e5e565b6109aa565b6102336103e7366004611ddb565b610b04565b61023360008051602061215083398151915281565b61028a61040f366004611df3565b610b1b565b610233610422366004611d45565b6001600160a01b03918216600090815260ca6020908152604080832093909416825291909152205490565b61023360008051602061213083398151915281565b60006001600160e01b03198216635a05180f60e01b1480610487575061048782610b25565b90505b919050565b606060cc805461049e906120c8565b80601f01602080910402602001604051908101604052809291908181526020018280546104ca906120c8565b80156105175780601f106104ec57610100808354040283529160200191610517565b820191906000526020600020905b8154815290600101906020018083116104fa57829003601f168201915b5050505050905090565b600061052e338484610b5a565b5060015b92915050565b6000610545848484610c7f565b6001600160a01b038416600090815260ca60209081526040808320338452909152902054828110156105cf5760405162461bcd60e51b815260206004820152602860248201527f45524332303a207472616e7366657220616d6f756e74206578636565647320616044820152676c6c6f77616e636560c01b60648201526084015b60405180910390fd5b6105e385336105de868561206a565b610b5a565b506001949350505050565b6105f88282610e62565b60008281526097602052604090206106109082610e89565b505050565b61061f8282610e9e565b60008281526097602052604090206106109082610f18565b33600081815260ca602090815260408083206001600160a01b0387168452909152812054909161052e9185906105de908690612033565b6106866000805160206121308339815191523361038b565b6106f85760405162461bcd60e51b815260206004820152603960248201527f45524332305072657365744d696e7465725061757365723a206d75737420686160448201527f76652070617573657220726f6c6520746f20756e70617573650000000000000060648201526084016105c6565b610700610f2d565b565b61070c8282610fc2565b5050565b61071a338261104f565b50565b600054610100900460ff1680610736575060005460ff16155b6107525760405162461bcd60e51b81526004016105c690611fe5565b600054610100900460ff16158015610774576000805461ffff19166101011790555b61077e83836111aa565b8015610610576000805461ff0019169055505050565b60006107a08333610422565b9050818110156107fe5760405162461bcd60e51b8152602060048201526024808201527f45524332303a206275726e20616d6f756e74206578636565647320616c6c6f77604482015263616e636560e01b60648201526084016105c6565b61080d83336105de858561206a565b610610838361104f565b61082f6000805160206121308339815191523361038b565b6108a15760405162461bcd60e51b815260206004820152603760248201527f45524332305072657365744d696e7465725061757365723a206d75737420686160448201527f76652070617573657220726f6c6520746f20706175736500000000000000000060648201526084016105c6565b61070061124d565b60008281526097602052604081206108c190836112ca565b9392505050565b60009182526065602090815260408084206001600160a01b0393909316845291905290205460ff1690565b606060cd805461049e906120c8565b33600090815260ca602090815260408083206001600160a01b0386168452909152812054828110156109845760405162461bcd60e51b815260206004820152602560248201527f45524332303a2064656372656173656420616c6c6f77616e63652062656c6f77604482015264207a65726f60d81b60648201526084016105c6565b61099333856105de868561206a565b5060019392505050565b600061052e338484610c7f565b600054610100900460ff16806109c3575060005460ff16155b6109df5760405162461bcd60e51b81526004016105c690611fe5565b600054610100900460ff16158015610a01576000805461ffff19166101011790555b610a7486868080601f01602080910402602001604051908101604052809392919081815260200183838082843760009201919091525050604080516020601f8a01819004810282018101909252888152925088915087908190840183828082843760009201919091525061071d92505050565b610a7f6000836112d6565b610a97600080516020612150833981519152836112d6565b610aaf600080516020612130833981519152836112d6565b610aba600033610615565b610ad260008051602061215083398151915233610615565b610aea60008051602061213083398151915233610615565b8015610afc576000805461ff00191690555b505050505050565b6000818152609760205260408120610487906112e0565b61061f82826112ea565b60006001600160e01b03198216637965db0b60e01b148061048757506301ffc9a760e01b6001600160e01b0319831614610487565b6001600160a01b038316610bbc5760405162461bcd60e51b8152602060048201526024808201527f45524332303a20617070726f76652066726f6d20746865207a65726f206164646044820152637265737360e01b60648201526084016105c6565b6001600160a01b038216610c1d5760405162461bcd60e51b815260206004820152602260248201527f45524332303a20617070726f766520746f20746865207a65726f206164647265604482015261737360f01b60648201526084016105c6565b6001600160a01b03838116600081815260ca602090815260408083209487168084529482529182902085905590518481527f8c5be1e5ebec7d5bd14f71427d1e84f3dd0314c0f7b2291e5b200ac8c7c3b92591015b60405180910390a3505050565b6001600160a01b038316610ce35760405162461bcd60e51b815260206004820152602560248201527f45524332303a207472616e736665722066726f6d20746865207a65726f206164604482015264647265737360d81b60648201526084016105c6565b6001600160a01b038216610d455760405162461bcd60e51b815260206004820152602360248201527f45524332303a207472616e7366657220746f20746865207a65726f206164647260448201526265737360e81b60648201526084016105c6565b610d50838383611310565b6001600160a01b038316600090815260c9602052604090205481811015610dc85760405162461bcd60e51b815260206004820152602660248201527f45524332303a207472616e7366657220616d6f756e7420657863656564732062604482015265616c616e636560d01b60648201526084016105c6565b610dd2828261206a565b6001600160a01b03808616600090815260c960205260408082209390935590851681529081208054849290610e08908490612033565b92505081905550826001600160a01b0316846001600160a01b03167fddf252ad1be2c89b69c2b068fc378daa952ba7f163c4a11628f55a4df523b3ef84604051610e5491815260200190565b60405180910390a350505050565b600082815260656020526040902060010154610e7f81335b61131b565b610610838361137f565b60006108c1836001600160a01b038416611405565b6001600160a01b0381163314610f0e5760405162461bcd60e51b815260206004820152602f60248201527f416363657373436f6e74726f6c3a2063616e206f6e6c792072656e6f756e636560448201526e103937b632b9903337b91039b2b63360891b60648201526084016105c6565b61070c8282611454565b60006108c1836001600160a01b0384166114bb565b61012d5460ff16610f775760405162461bcd60e51b815260206004820152601460248201527314185d5cd8589b194e881b9bdd081c185d5cd95960621b60448201526064016105c6565b61012d805460ff191690557f5db9ee0a495bf2e6ff9c91a7834c1ba4fdd244a5e8aa4e537bd38aeae4b073aa335b6040516001600160a01b03909116815260200160405180910390a1565b610fda6000805160206121508339815191523361038b565b6110455760405162461bcd60e51b815260206004820152603660248201527f45524332305072657365744d696e7465725061757365723a206d7573742068616044820152751d99481b5a5b9d195c881c9bdb19481d1bc81b5a5b9d60521b60648201526084016105c6565b61070c82826115d2565b6001600160a01b0382166110af5760405162461bcd60e51b815260206004820152602160248201527f45524332303a206275726e2066726f6d20746865207a65726f206164647265736044820152607360f81b60648201526084016105c6565b6110bb82600083611310565b6001600160a01b038216600090815260c960205260409020548181101561112f5760405162461bcd60e51b815260206004820152602260248201527f45524332303a206275726e20616d6f756e7420657863656564732062616c616e604482015261636560f01b60648201526084016105c6565b611139828261206a565b6001600160a01b038416600090815260c9602052604081209190915560cb805484929061116790849061206a565b90915550506040518281526000906001600160a01b038516907fddf252ad1be2c89b69c2b068fc378daa952ba7f163c4a11628f55a4df523b3ef90602001610c72565b600054610100900460ff16806111c3575060005460ff16155b6111df5760405162461bcd60e51b81526004016105c690611fe5565b600054610100900460ff16158015611201576000805461ffff19166101011790555b6112096116bd565b6112116116bd565b6112196116bd565b6112216116bd565b61122b8383611728565b6112336116bd565b61123b6117bd565b6112436116bd565b61077e8383611833565b61012d5460ff16156112945760405162461bcd60e51b815260206004820152601060248201526f14185d5cd8589b194e881c185d5cd95960821b60448201526064016105c6565b61012d805460ff191660011790557f62e78cea01bee320cd4e420270b5ea74000d11b0c9f74754ebdbfc544b05a258610fa53390565b60006108c183836118c6565b6105f8828261195a565b6000610487825490565b6000828152606560205260409020600101546113068133610e7a565b6106108383611454565b610610838383611964565b61132582826108c8565b61070c5761133d816001600160a01b031660146119cb565b6113488360206119cb565b604051602001611359929190611f3d565b60408051601f198184030181529082905262461bcd60e51b82526105c691600401611fb2565b61138982826108c8565b61070c5760008281526065602090815260408083206001600160a01b03851684529091529020805460ff191660011790556113c13390565b6001600160a01b0316816001600160a01b0316837f2f8788117e7eff1d82e926ec794901d17c78024a50270940304540a733656f0d60405160405180910390a45050565b600081815260018301602052604081205461144c57508154600181810184556000848152602080822090930184905584548482528286019093526040902091909155610532565b506000610532565b61145e82826108c8565b1561070c5760008281526065602090815260408083206001600160a01b0385168085529252808320805460ff1916905551339285917ff6391f5c32d9c69d2a47ea670b442974b53935d1edc7fd64eb21e047a839171b9190a45050565b600081815260018301602052604081205480156115c85760006114df60018361206a565b85549091506000906114f39060019061206a565b9050600086600001828154811061151a57634e487b7160e01b600052603260045260246000fd5b906000526020600020015490508087600001848154811061154b57634e487b7160e01b600052603260045260246000fd5b60009182526020808320909101929092558281526001890190915260409020849055865487908061158c57634e487b7160e01b600052603160045260246000fd5b60019003818190600052602060002001600090559055866001016000878152602001908152602001600020600090556001945050505050610532565b6000915050610532565b6001600160a01b0382166116285760405162461bcd60e51b815260206004820152601f60248201527f45524332303a206d696e7420746f20746865207a65726f20616464726573730060448201526064016105c6565b61163460008383611310565b8060cb60008282546116469190612033565b90915550506001600160a01b038216600090815260c9602052604081208054839290611673908490612033565b90915550506040518181526001600160a01b038316906000907fddf252ad1be2c89b69c2b068fc378daa952ba7f163c4a11628f55a4df523b3ef9060200160405180910390a35050565b600054610100900460ff16806116d6575060005460ff16155b6116f25760405162461bcd60e51b81526004016105c690611fe5565b600054610100900460ff16158015611714576000805461ffff19166101011790555b801561071a576000805461ff001916905550565b600054610100900460ff1680611741575060005460ff16155b61175d5760405162461bcd60e51b81526004016105c690611fe5565b600054610100900460ff1615801561177f576000805461ffff19166101011790555b82516117929060cc906020860190611bad565b5081516117a69060cd906020850190611bad565b508015610610576000805461ff0019169055505050565b600054610100900460ff16806117d6575060005460ff16155b6117f25760405162461bcd60e51b81526004016105c690611fe5565b600054610100900460ff16158015611814576000805461ffff19166101011790555b61012d805460ff19169055801561071a576000805461ff001916905550565b600054610100900460ff168061184c575060005460ff16155b6118685760405162461bcd60e51b81526004016105c690611fe5565b600054610100900460ff1615801561188a576000805461ffff19166101011790555b6118966000335b6112d6565b6118ae60008051602061215083398151915233611891565b61077e60008051602061213083398151915233611891565b815460009082106119245760405162461bcd60e51b815260206004820152602260248201527f456e756d657261626c655365743a20696e646578206f7574206f6620626f756e604482015261647360f01b60648201526084016105c6565b82600001828154811061194757634e487b7160e01b600052603260045260246000fd5b9060005260206000200154905092915050565b61070c828261137f565b61012d5460ff16156106105760405162461bcd60e51b815260206004820152602a60248201527f45524332305061757361626c653a20746f6b656e207472616e736665722077686044820152691a5b19481c185d5cd95960b21b60648201526084016105c6565b606060006119da83600261204b565b6119e5906002612033565b67ffffffffffffffff811115611a0b57634e487b7160e01b600052604160045260246000fd5b6040519080825280601f01601f191660200182016040528015611a35576020820181803683370190505b509050600360fc1b81600081518110611a5e57634e487b7160e01b600052603260045260246000fd5b60200101906001600160f81b031916908160001a905350600f60fb1b81600181518110611a9b57634e487b7160e01b600052603260045260246000fd5b60200101906001600160f81b031916908160001a9053506000611abf84600261204b565b611aca906001612033565b90505b6001811115611b5e576f181899199a1a9b1b9c1cb0b131b232b360811b85600f1660108110611b0c57634e487b7160e01b600052603260045260246000fd5b1a60f81b828281518110611b3057634e487b7160e01b600052603260045260246000fd5b60200101906001600160f81b031916908160001a90535060049490941c93611b57816120b1565b9050611acd565b5083156108c15760405162461bcd60e51b815260206004820181905260248201527f537472696e67733a20686578206c656e67746820696e73756666696369656e7460448201526064016105c6565b828054611bb9906120c8565b90600052602060002090601f016020900481019282611bdb5760008555611c21565b82601f10611bf457805160ff1916838001178555611c21565b82800160010185558215611c21579182015b82811115611c21578251825591602001919060010190611c06565b50611c2d929150611c31565b5090565b5b80821115611c2d5760008155600101611c32565b80356001600160a01b038116811461048a57600080fd5b60008083601f840112611c6e578182fd5b50813567ffffffffffffffff811115611c85578182fd5b602083019150836020828501011115611c9d57600080fd5b9250929050565b600082601f830112611cb4578081fd5b813567ffffffffffffffff80821115611ccf57611ccf612119565b604051601f8301601f19908116603f01168101908282118183101715611cf757611cf7612119565b81604052838152866020858801011115611d0f578485fd5b8360208701602083013792830160200193909352509392505050565b600060208284031215611d3c578081fd5b6108c182611c46565b60008060408385031215611d57578081fd5b611d6083611c46565b9150611d6e60208401611c46565b90509250929050565b600080600060608486031215611d8b578081fd5b611d9484611c46565b9250611da260208501611c46565b9150604084013590509250925092565b60008060408385031215611dc4578182fd5b611dcd83611c46565b946020939093013593505050565b600060208284031215611dec578081fd5b5035919050565b60008060408385031215611e05578182fd5b82359150611d6e60208401611c46565b60008060408385031215611e27578182fd5b50508035926020909101359150565b600060208284031215611e47578081fd5b81356001600160e01b0319811681146108c1578182fd5b600080600080600060608688031215611e75578081fd5b853567ffffffffffffffff80821115611e8c578283fd5b611e9889838a01611c5d565b90975095506020880135915080821115611eb0578283fd5b50611ebd88828901611c5d565b9094509250611ed0905060408701611c46565b90509295509295909350565b60008060408385031215611eee578182fd5b823567ffffffffffffffff80821115611f05578384fd5b611f1186838701611ca4565b93506020850135915080821115611f26578283fd5b50611f3385828601611ca4565b9150509250929050565b60007f416363657373436f6e74726f6c3a206163636f756e742000000000000000000082528351611f75816017850160208801612081565b7001034b99036b4b9b9b4b733903937b6329607d1b6017918401918201528351611fa6816028840160208801612081565b01602801949350505050565b6000602082528251806020840152611fd1816040850160208701612081565b601f01601f19169190910160400192915050565b6020808252602e908201527f496e697469616c697a61626c653a20636f6e747261637420697320616c72656160408201526d191e481a5b9a5d1a585b1a5e995960921b606082015260800190565b6000821982111561204657612046612103565b500190565b600081600019048311821515161561206557612065612103565b500290565b60008282101561207c5761207c612103565b500390565b60005b8381101561209c578181015183820152602001612084565b838111156120ab576000848401525b50505050565b6000816120c0576120c0612103565b506000190190565b600181811c908216806120dc57607f821691505b602082108114156120fd57634e487b7160e01b600052602260045260246000fd5b50919050565b634e487b7160e01b600052601160045260246000fd5b634e487b7160e01b600052604160045260246000fdfe65d7a28e3265b37a6474929f336521b332c1681b933f6cb9f3376673440d862a9f2df0fed2c77648de5860a4cc508cd0818c85b8b8a1ab4ceeef8d981c8956a6a2646970667358221220189ef9f71f4ea0566cdea40a572ba237bf3444ee6522994eaa8efa1e20f3783764736f6c63430008030033",
  "immutableReferences": {},
  "source": "// SPDX-License-Identifier: BUSL-1.1\n\npragma solidity 0.8.3;\n/* The bellow code can make this token non-upgradable. This can be decided closer to launch6\nimport \"@openzeppelin/contracts/token/ERC20/presets/ERC20PresetMinterPauser.sol\";\n\ncontract FloatToken is ERC20PresetMinterPauser {\n    constructor(\n        string memory name,\n        string memory symbol,\n        address stakerAddress\n    ) ERC20PresetMinterPauser(name, symbol) {\n*/\nimport \"@openzeppelin/contracts-upgradeable/token/ERC20/presets/ERC20PresetMinterPauserUpgradeable.sol\";\n\nimport \"./interfaces/IFloatToken.sol\";\n\ncontract FloatToken is IFloatToken, ERC20PresetMinterPauserUpgradeable {\n  function initialize3(\n    string calldata name,\n    string calldata symbol,\n    address stakerAddress\n  ) public initializer {\n    initialize(name, symbol);\n\n    _setupRole(DEFAULT_ADMIN_ROLE, stakerAddress);\n    _setupRole(MINTER_ROLE, stakerAddress);\n    _setupRole(PAUSER_ROLE, stakerAddress);\n\n    renounceRole(DEFAULT_ADMIN_ROLE, msg.sender);\n    renounceRole(MINTER_ROLE, msg.sender);\n    renounceRole(PAUSER_ROLE, msg.sender);\n  }\n\n  ///////////////////////////////////////////////////////////////////////////////\n  ///////// FUNCTIONS INHERITED BY ERC20PresetMinterPauserUpgradeable ///////////\n  ///////////////////////////////////////////////////////////////////////////////\n  function mint(address to, uint256 amount)\n    public\n    override(IFloatToken, ERC20PresetMinterPauserUpgradeable)\n  {\n    ERC20PresetMinterPauserUpgradeable.mint(to, amount);\n  }\n}\n",
  "sourcePath": "/home/jasoons/Documents/code/monorepo/contracts/contracts/FloatToken.sol",
  "compiler": {
    "name": "solc",
    "version": "0.8.3+commit.8d00100c.Emscripten.clang"
  },
  "schemaVersion": "3.3.4",
  "updatedAt": "2021-07-12T15:23:44.657Z",
  "networkType": "ethereum",
  "devdoc": {
    "kind": "dev",
    "methods": {
      "allowance(address,address)": {
        "details": "See {IERC20-allowance}."
      },
      "approve(address,uint256)": {
        "details": "See {IERC20-approve}. Requirements: - `spender` cannot be the zero address."
      },
      "balanceOf(address)": {
        "details": "See {IERC20-balanceOf}."
      },
      "burn(uint256)": {
        "details": "Destroys `amount` tokens from the caller. See {ERC20-_burn}."
      },
      "burnFrom(address,uint256)": {
        "details": "Destroys `amount` tokens from `account`, deducting from the caller's allowance. See {ERC20-_burn} and {ERC20-allowance}. Requirements: - the caller must have allowance for ``accounts``'s tokens of at least `amount`."
      },
      "decimals()": {
        "details": "Returns the number of decimals used to get its user representation. For example, if `decimals` equals `2`, a balance of `505` tokens should be displayed to a user as `5,05` (`505 / 10 ** 2`). Tokens usually opt for a value of 18, imitating the relationship between Ether and Wei. This is the value {ERC20} uses, unless this function is overridden; NOTE: This information is only used for _display_ purposes: it in no way affects any of the arithmetic of the contract, including {IERC20-balanceOf} and {IERC20-transfer}."
      },
      "decreaseAllowance(address,uint256)": {
        "details": "Atomically decreases the allowance granted to `spender` by the caller. This is an alternative to {approve} that can be used as a mitigation for problems described in {IERC20-approve}. Emits an {Approval} event indicating the updated allowance. Requirements: - `spender` cannot be the zero address. - `spender` must have allowance for the caller of at least `subtractedValue`."
      },
      "getRoleAdmin(bytes32)": {
        "details": "Returns the admin role that controls `role`. See {grantRole} and {revokeRole}. To change a role's admin, use {_setRoleAdmin}."
      },
      "getRoleMember(bytes32,uint256)": {
        "details": "Returns one of the accounts that have `role`. `index` must be a value between 0 and {getRoleMemberCount}, non-inclusive. Role bearers are not sorted in any particular way, and their ordering may change at any point. WARNING: When using {getRoleMember} and {getRoleMemberCount}, make sure you perform all queries on the same block. See the following https://forum.openzeppelin.com/t/iterating-over-elements-on-enumerableset-in-openzeppelin-contracts/2296[forum post] for more information."
      },
      "getRoleMemberCount(bytes32)": {
        "details": "Returns the number of accounts that have `role`. Can be used together with {getRoleMember} to enumerate all bearers of a role."
      },
      "grantRole(bytes32,address)": {
        "details": "Overload {grantRole} to track enumerable memberships"
      },
      "hasRole(bytes32,address)": {
        "details": "Returns `true` if `account` has been granted `role`."
      },
      "increaseAllowance(address,uint256)": {
        "details": "Atomically increases the allowance granted to `spender` by the caller. This is an alternative to {approve} that can be used as a mitigation for problems described in {IERC20-approve}. Emits an {Approval} event indicating the updated allowance. Requirements: - `spender` cannot be the zero address."
      },
      "name()": {
        "details": "Returns the name of the token."
      },
      "pause()": {
        "details": "Pauses all token transfers. See {ERC20Pausable} and {Pausable-_pause}. Requirements: - the caller must have the `PAUSER_ROLE`."
      },
      "paused()": {
        "details": "Returns true if the contract is paused, and false otherwise."
      },
      "renounceRole(bytes32,address)": {
        "details": "Overload {renounceRole} to track enumerable memberships"
      },
      "revokeRole(bytes32,address)": {
        "details": "Overload {revokeRole} to track enumerable memberships"
      },
      "supportsInterface(bytes4)": {
        "details": "See {IERC165-supportsInterface}."
      },
      "symbol()": {
        "details": "Returns the symbol of the token, usually a shorter version of the name."
      },
      "totalSupply()": {
        "details": "See {IERC20-totalSupply}."
      },
      "transfer(address,uint256)": {
        "details": "See {IERC20-transfer}. Requirements: - `recipient` cannot be the zero address. - the caller must have a balance of at least `amount`."
      },
      "transferFrom(address,address,uint256)": {
        "details": "See {IERC20-transferFrom}. Emits an {Approval} event indicating the updated allowance. This is not required by the EIP. See the note at the beginning of {ERC20}. Requirements: - `sender` and `recipient` cannot be the zero address. - `sender` must have a balance of at least `amount`. - the caller must have allowance for ``sender``'s tokens of at least `amount`."
      },
      "unpause()": {
        "details": "Unpauses all token transfers. See {ERC20Pausable} and {Pausable-_unpause}. Requirements: - the caller must have the `PAUSER_ROLE`."
      }
    },
    "version": 1
  },
  "userdoc": {
    "kind": "user",
    "methods": {},
    "version": 1
  }
}