{
  "contractName": "FloatToken",
  "abi": [
    {
      "anonymous": false,
      "inputs": [
        {
          "indexed": true,
          "internalType": "address",
          "name": "owner",
          "type": "address"
        },
        {
          "indexed": true,
          "internalType": "address",
          "name": "spender",
          "type": "address"
        },
        {
          "indexed": false,
          "internalType": "uint256",
          "name": "value",
          "type": "uint256"
        }
      ],
      "name": "Approval",
      "type": "event"
    },
    {
      "anonymous": false,
      "inputs": [
        {
          "indexed": false,
          "internalType": "address",
          "name": "account",
          "type": "address"
        }
      ],
      "name": "Paused",
      "type": "event"
    },
    {
      "anonymous": false,
      "inputs": [
        {
          "indexed": true,
          "internalType": "bytes32",
          "name": "role",
          "type": "bytes32"
        },
        {
          "indexed": true,
          "internalType": "bytes32",
          "name": "previousAdminRole",
          "type": "bytes32"
        },
        {
          "indexed": true,
          "internalType": "bytes32",
          "name": "newAdminRole",
          "type": "bytes32"
        }
      ],
      "name": "RoleAdminChanged",
      "type": "event"
    },
    {
      "anonymous": false,
      "inputs": [
        {
          "indexed": true,
          "internalType": "bytes32",
          "name": "role",
          "type": "bytes32"
        },
        {
          "indexed": true,
          "internalType": "address",
          "name": "account",
          "type": "address"
        },
        {
          "indexed": true,
          "internalType": "address",
          "name": "sender",
          "type": "address"
        }
      ],
      "name": "RoleGranted",
      "type": "event"
    },
    {
      "anonymous": false,
      "inputs": [
        {
          "indexed": true,
          "internalType": "bytes32",
          "name": "role",
          "type": "bytes32"
        },
        {
          "indexed": true,
          "internalType": "address",
          "name": "account",
          "type": "address"
        },
        {
          "indexed": true,
          "internalType": "address",
          "name": "sender",
          "type": "address"
        }
      ],
      "name": "RoleRevoked",
      "type": "event"
    },
    {
      "anonymous": false,
      "inputs": [
        {
          "indexed": true,
          "internalType": "address",
          "name": "from",
          "type": "address"
        },
        {
          "indexed": true,
          "internalType": "address",
          "name": "to",
          "type": "address"
        },
        {
          "indexed": false,
          "internalType": "uint256",
          "name": "value",
          "type": "uint256"
        }
      ],
      "name": "Transfer",
      "type": "event"
    },
    {
      "anonymous": false,
      "inputs": [
        {
          "indexed": false,
          "internalType": "address",
          "name": "account",
          "type": "address"
        }
      ],
      "name": "Unpaused",
      "type": "event"
    },
    {
      "inputs": [],
      "name": "DEFAULT_ADMIN_ROLE",
      "outputs": [
        {
          "internalType": "bytes32",
          "name": "",
          "type": "bytes32"
        }
      ],
      "stateMutability": "view",
      "type": "function",
      "constant": true
    },
    {
      "inputs": [],
      "name": "MINTER_ROLE",
      "outputs": [
        {
          "internalType": "bytes32",
          "name": "",
          "type": "bytes32"
        }
      ],
      "stateMutability": "view",
      "type": "function",
      "constant": true
    },
    {
      "inputs": [],
      "name": "PAUSER_ROLE",
      "outputs": [
        {
          "internalType": "bytes32",
          "name": "",
          "type": "bytes32"
        }
      ],
      "stateMutability": "view",
      "type": "function",
      "constant": true
    },
    {
      "inputs": [
        {
          "internalType": "address",
          "name": "owner",
          "type": "address"
        },
        {
          "internalType": "address",
          "name": "spender",
          "type": "address"
        }
      ],
      "name": "allowance",
      "outputs": [
        {
          "internalType": "uint256",
          "name": "",
          "type": "uint256"
        }
      ],
      "stateMutability": "view",
      "type": "function",
      "constant": true
    },
    {
      "inputs": [
        {
          "internalType": "address",
          "name": "spender",
          "type": "address"
        },
        {
          "internalType": "uint256",
          "name": "amount",
          "type": "uint256"
        }
      ],
      "name": "approve",
      "outputs": [
        {
          "internalType": "bool",
          "name": "",
          "type": "bool"
        }
      ],
      "stateMutability": "nonpayable",
      "type": "function"
    },
    {
      "inputs": [
        {
          "internalType": "address",
          "name": "account",
          "type": "address"
        }
      ],
      "name": "balanceOf",
      "outputs": [
        {
          "internalType": "uint256",
          "name": "",
          "type": "uint256"
        }
      ],
      "stateMutability": "view",
      "type": "function",
      "constant": true
    },
    {
      "inputs": [
        {
          "internalType": "uint256",
          "name": "amount",
          "type": "uint256"
        }
      ],
      "name": "burn",
      "outputs": [],
      "stateMutability": "nonpayable",
      "type": "function"
    },
    {
      "inputs": [
        {
          "internalType": "address",
          "name": "account",
          "type": "address"
        },
        {
          "internalType": "uint256",
          "name": "amount",
          "type": "uint256"
        }
      ],
      "name": "burnFrom",
      "outputs": [],
      "stateMutability": "nonpayable",
      "type": "function"
    },
    {
      "inputs": [],
      "name": "decimals",
      "outputs": [
        {
          "internalType": "uint8",
          "name": "",
          "type": "uint8"
        }
      ],
      "stateMutability": "view",
      "type": "function",
      "constant": true
    },
    {
      "inputs": [
        {
          "internalType": "address",
          "name": "spender",
          "type": "address"
        },
        {
          "internalType": "uint256",
          "name": "subtractedValue",
          "type": "uint256"
        }
      ],
      "name": "decreaseAllowance",
      "outputs": [
        {
          "internalType": "bool",
          "name": "",
          "type": "bool"
        }
      ],
      "stateMutability": "nonpayable",
      "type": "function"
    },
    {
      "inputs": [
        {
          "internalType": "bytes32",
          "name": "role",
          "type": "bytes32"
        }
      ],
      "name": "getRoleAdmin",
      "outputs": [
        {
          "internalType": "bytes32",
          "name": "",
          "type": "bytes32"
        }
      ],
      "stateMutability": "view",
      "type": "function",
      "constant": true
    },
    {
      "inputs": [
        {
          "internalType": "bytes32",
          "name": "role",
          "type": "bytes32"
        },
        {
          "internalType": "uint256",
          "name": "index",
          "type": "uint256"
        }
      ],
      "name": "getRoleMember",
      "outputs": [
        {
          "internalType": "address",
          "name": "",
          "type": "address"
        }
      ],
      "stateMutability": "view",
      "type": "function",
      "constant": true
    },
    {
      "inputs": [
        {
          "internalType": "bytes32",
          "name": "role",
          "type": "bytes32"
        }
      ],
      "name": "getRoleMemberCount",
      "outputs": [
        {
          "internalType": "uint256",
          "name": "",
          "type": "uint256"
        }
      ],
      "stateMutability": "view",
      "type": "function",
      "constant": true
    },
    {
      "inputs": [
        {
          "internalType": "bytes32",
          "name": "role",
          "type": "bytes32"
        },
        {
          "internalType": "address",
          "name": "account",
          "type": "address"
        }
      ],
      "name": "grantRole",
      "outputs": [],
      "stateMutability": "nonpayable",
      "type": "function"
    },
    {
      "inputs": [
        {
          "internalType": "bytes32",
          "name": "role",
          "type": "bytes32"
        },
        {
          "internalType": "address",
          "name": "account",
          "type": "address"
        }
      ],
      "name": "hasRole",
      "outputs": [
        {
          "internalType": "bool",
          "name": "",
          "type": "bool"
        }
      ],
      "stateMutability": "view",
      "type": "function",
      "constant": true
    },
    {
      "inputs": [
        {
          "internalType": "address",
          "name": "spender",
          "type": "address"
        },
        {
          "internalType": "uint256",
          "name": "addedValue",
          "type": "uint256"
        }
      ],
      "name": "increaseAllowance",
      "outputs": [
        {
          "internalType": "bool",
          "name": "",
          "type": "bool"
        }
      ],
      "stateMutability": "nonpayable",
      "type": "function"
    },
    {
      "inputs": [],
      "name": "name",
      "outputs": [
        {
          "internalType": "string",
          "name": "",
          "type": "string"
        }
      ],
      "stateMutability": "view",
      "type": "function",
      "constant": true
    },
    {
      "inputs": [],
      "name": "pause",
      "outputs": [],
      "stateMutability": "nonpayable",
      "type": "function"
    },
    {
      "inputs": [],
      "name": "paused",
      "outputs": [
        {
          "internalType": "bool",
          "name": "",
          "type": "bool"
        }
      ],
      "stateMutability": "view",
      "type": "function",
      "constant": true
    },
    {
      "inputs": [
        {
          "internalType": "bytes32",
          "name": "role",
          "type": "bytes32"
        },
        {
          "internalType": "address",
          "name": "account",
          "type": "address"
        }
      ],
      "name": "renounceRole",
      "outputs": [],
      "stateMutability": "nonpayable",
      "type": "function"
    },
    {
      "inputs": [
        {
          "internalType": "bytes32",
          "name": "role",
          "type": "bytes32"
        },
        {
          "internalType": "address",
          "name": "account",
          "type": "address"
        }
      ],
      "name": "revokeRole",
      "outputs": [],
      "stateMutability": "nonpayable",
      "type": "function"
    },
    {
      "inputs": [
        {
          "internalType": "bytes4",
          "name": "interfaceId",
          "type": "bytes4"
        }
      ],
      "name": "supportsInterface",
      "outputs": [
        {
          "internalType": "bool",
          "name": "",
          "type": "bool"
        }
      ],
      "stateMutability": "view",
      "type": "function",
      "constant": true
    },
    {
      "inputs": [],
      "name": "symbol",
      "outputs": [
        {
          "internalType": "string",
          "name": "",
          "type": "string"
        }
      ],
      "stateMutability": "view",
      "type": "function",
      "constant": true
    },
    {
      "inputs": [],
      "name": "totalSupply",
      "outputs": [
        {
          "internalType": "uint256",
          "name": "",
          "type": "uint256"
        }
      ],
      "stateMutability": "view",
      "type": "function",
      "constant": true
    },
    {
      "inputs": [
        {
          "internalType": "address",
          "name": "recipient",
          "type": "address"
        },
        {
          "internalType": "uint256",
          "name": "amount",
          "type": "uint256"
        }
      ],
      "name": "transfer",
      "outputs": [
        {
          "internalType": "bool",
          "name": "",
          "type": "bool"
        }
      ],
      "stateMutability": "nonpayable",
      "type": "function"
    },
    {
      "inputs": [
        {
          "internalType": "address",
          "name": "sender",
          "type": "address"
        },
        {
          "internalType": "address",
          "name": "recipient",
          "type": "address"
        },
        {
          "internalType": "uint256",
          "name": "amount",
          "type": "uint256"
        }
      ],
      "name": "transferFrom",
      "outputs": [
        {
          "internalType": "bool",
          "name": "",
          "type": "bool"
        }
      ],
      "stateMutability": "nonpayable",
      "type": "function"
    },
    {
      "inputs": [],
      "name": "unpause",
      "outputs": [],
      "stateMutability": "nonpayable",
      "type": "function"
    },
    {
      "inputs": [
        {
          "internalType": "string",
          "name": "name",
          "type": "string"
        },
        {
          "internalType": "string",
          "name": "symbol",
          "type": "string"
        },
        {
          "internalType": "address",
          "name": "stakerAddress",
          "type": "address"
        }
      ],
      "name": "initialize",
      "outputs": [],
      "stateMutability": "nonpayable",
      "type": "function"
    },
    {
      "inputs": [
        {
          "internalType": "string",
          "name": "name",
          "type": "string"
        },
        {
          "internalType": "string",
          "name": "symbol",
          "type": "string"
        }
      ],
      "name": "initialize",
      "outputs": [],
      "stateMutability": "nonpayable",
      "type": "function"
    },
    {
      "inputs": [
        {
          "internalType": "address",
          "name": "to",
          "type": "address"
        },
        {
          "internalType": "uint256",
          "name": "amount",
          "type": "uint256"
        }
      ],
      "name": "mint",
      "outputs": [],
      "stateMutability": "nonpayable",
      "type": "function"
    }
  ],
  "bytecode": "0x608060405234801561001057600080fd5b50611f62806100206000396000f3fe608060405234801561001057600080fd5b50600436106101da5760003560e01c80635c975abb11610104578063a217fddf116100a2578063d539139311610071578063d5391393146103ec578063d547741f14610401578063dd62ed3e14610414578063e63ab1e91461044d576101da565b8063a217fddf146103ab578063a457c2d7146103b3578063a9059cbb146103c6578063ca15c873146103d9576101da565b80638456cb59116100de5780638456cb591461035d5780639010d07c1461036557806391d148541461039057806395d89b41146103a3576101da565b80635c975abb1461031557806370a082311461032157806379cc67901461034a576101da565b80632f2ff15d1161017c5780633f4ba83a1161014b5780633f4ba83a146102d457806340c10f19146102dc57806342966c68146102ef5780634cd88b7614610302576101da565b80632f2ff15d1461028c578063313ce5671461029f57806336568abe146102ae57806339509351146102c1576101da565b8063095ea7b3116101b8578063095ea7b31461023157806318160ddd1461024457806323b872dd14610256578063248a9ca314610269576101da565b806301ffc9a7146101df57806306fdde0314610207578063077f224a1461021c575b600080fd5b6101f26101ed366004611cae565b610462565b60405190151581526020015b60405180910390f35b61020f61048f565b6040516101fe9190611db5565b61022f61022a366004611cd6565b610521565b005b6101f261023f366004611c2a565b610684565b60cb545b6040519081526020016101fe565b6101f2610264366004611bef565b61069b565b610248610277366004611c53565b60009081526065602052604090206001015490565b61022f61029a366004611c6b565b61074c565b604051601281526020016101fe565b61022f6102bc366004611c6b565b610773565b6101f26102cf366004611c2a565b610795565b61022f6107cc565b61022f6102ea366004611c2a565b610860565b61022f6102fd366004611c53565b61086e565b61022f610310366004611d54565b61087b565b61012d5460ff166101f2565b61024861032f366004611ba3565b6001600160a01b0316600090815260c9602052604090205490565b61022f610358366004611c2a565b6108f2565b61022f610975565b610378610373366004611c8d565b610a07565b6040516001600160a01b0390911681526020016101fe565b6101f261039e366004611c6b565b610a26565b61020f610a51565b610248600081565b6101f26103c1366004611c2a565b610a60565b6101f26103d4366004611c2a565b610afb565b6102486103e7366004611c53565b610b08565b610248600080516020611f0d83398151915281565b61022f61040f366004611c6b565b610b1f565b610248610422366004611bbd565b6001600160a01b03918216600090815260ca6020908152604080832093909416825291909152205490565b610248600080516020611eed83398151915281565b60006001600160e01b03198216635a05180f60e01b1480610487575061048782610b29565b90505b919050565b606060cc805461049e90611e85565b80601f01602080910402602001604051908101604052809291908181526020018280546104ca90611e85565b80156105175780601f106104ec57610100808354040283529160200191610517565b820191906000526020600020905b8154815290600101906020018083116104fa57829003601f168201915b5050505050905090565b600054610100900460ff168061053a575060005460ff16155b61055f5760405162461bcd60e51b815260040161055690611e08565b60405180910390fd5b600054610100900460ff16158015610581576000805461ffff19166101011790555b6105f486868080601f01602080910402602001604051908101604052809392919081815260200183838082843760009201919091525050604080516020601f8a01819004810282018101909252888152925088915087908190840183828082843760009201919091525061087b92505050565b6105ff600083610b5e565b610617600080516020611f0d83398151915283610b5e565b61062f600080516020611eed83398151915283610b5e565b61063a600033610773565b610652600080516020611f0d83398151915233610773565b61066a600080516020611eed83398151915233610773565b801561067c576000805461ff00191690555b505050505050565b6000610691338484610b68565b5060015b92915050565b60006106a8848484610c8d565b6001600160a01b038416600090815260ca602090815260408083203384529091529020548281101561072d5760405162461bcd60e51b815260206004820152602860248201527f45524332303a207472616e7366657220616d6f756e74206578636565647320616044820152676c6c6f77616e636560c01b6064820152608401610556565b610741853361073c8685611e6e565b610b68565b506001949350505050565b6107568282610e70565b600082815260976020526040902061076e9082610efb565b505050565b61077d8282610f10565b600082815260976020526040902061076e9082610f8a565b33600081815260ca602090815260408083206001600160a01b0387168452909152812054909161069191859061073c908690611e56565b6107e4600080516020611eed8339815191523361039e565b6108565760405162461bcd60e51b815260206004820152603960248201527f45524332305072657365744d696e7465725061757365723a206d75737420686160448201527f76652070617573657220726f6c6520746f20756e7061757365000000000000006064820152608401610556565b61085e610f9f565b565b61086a8282611034565b5050565b61087833826110c1565b50565b600054610100900460ff1680610894575060005460ff16155b6108b05760405162461bcd60e51b815260040161055690611e08565b600054610100900460ff161580156108d2576000805461ffff19166101011790555b6108dc838361121c565b801561076e576000805461ff0019169055505050565b60006108fe8333610422565b90508181101561095c5760405162461bcd60e51b8152602060048201526024808201527f45524332303a206275726e20616d6f756e74206578636565647320616c6c6f77604482015263616e636560e01b6064820152608401610556565b61096b833361073c8585611e6e565b61076e83836110c1565b61098d600080516020611eed8339815191523361039e565b6109ff5760405162461bcd60e51b815260206004820152603760248201527f45524332305072657365744d696e7465725061757365723a206d75737420686160448201527f76652070617573657220726f6c6520746f2070617573650000000000000000006064820152608401610556565b61085e6112bf565b6000828152609760205260408120610a1f908361133c565b9392505050565b60009182526065602090815260408084206001600160a01b0393909316845291905290205460ff1690565b606060cd805461049e90611e85565b33600090815260ca602090815260408083206001600160a01b038616845290915281205482811015610ae25760405162461bcd60e51b815260206004820152602560248201527f45524332303a2064656372656173656420616c6c6f77616e63652062656c6f77604482015264207a65726f60d81b6064820152608401610556565b610af1338561073c8685611e6e565b5060019392505050565b6000610691338484610c8d565b600081815260976020526040812061048790611348565b61077d8282611352565b60006001600160e01b03198216637965db0b60e01b148061048757506301ffc9a760e01b6001600160e01b0319831614610487565b6107568282610ef1565b6001600160a01b038316610bca5760405162461bcd60e51b8152602060048201526024808201527f45524332303a20617070726f76652066726f6d20746865207a65726f206164646044820152637265737360e01b6064820152608401610556565b6001600160a01b038216610c2b5760405162461bcd60e51b815260206004820152602260248201527f45524332303a20617070726f766520746f20746865207a65726f206164647265604482015261737360f01b6064820152608401610556565b6001600160a01b03838116600081815260ca602090815260408083209487168084529482529182902085905590518481527f8c5be1e5ebec7d5bd14f71427d1e84f3dd0314c0f7b2291e5b200ac8c7c3b92591015b60405180910390a3505050565b6001600160a01b038316610cf15760405162461bcd60e51b815260206004820152602560248201527f45524332303a207472616e736665722066726f6d20746865207a65726f206164604482015264647265737360d81b6064820152608401610556565b6001600160a01b038216610d535760405162461bcd60e51b815260206004820152602360248201527f45524332303a207472616e7366657220746f20746865207a65726f206164647260448201526265737360e81b6064820152608401610556565b610d5e8383836113d2565b6001600160a01b038316600090815260c9602052604090205481811015610dd65760405162461bcd60e51b815260206004820152602660248201527f45524332303a207472616e7366657220616d6f756e7420657863656564732062604482015265616c616e636560d01b6064820152608401610556565b610de08282611e6e565b6001600160a01b03808616600090815260c960205260408082209390935590851681529081208054849290610e16908490611e56565b92505081905550826001600160a01b0316846001600160a01b03167fddf252ad1be2c89b69c2b068fc378daa952ba7f163c4a11628f55a4df523b3ef84604051610e6291815260200190565b60405180910390a350505050565b600082815260656020526040902060010154610e8d905b3361039e565b610ef15760405162461bcd60e51b815260206004820152602f60248201527f416363657373436f6e74726f6c3a2073656e646572206d75737420626520616e60448201526e0818591b5a5b881d1bc819dc985b9d608a1b6064820152608401610556565b61086a82826113dd565b6000610a1f836001600160a01b038416611463565b6001600160a01b0381163314610f805760405162461bcd60e51b815260206004820152602f60248201527f416363657373436f6e74726f6c3a2063616e206f6e6c792072656e6f756e636560448201526e103937b632b9903337b91039b2b63360891b6064820152608401610556565b61086a82826114b2565b6000610a1f836001600160a01b038416611519565b61012d5460ff16610fe95760405162461bcd60e51b815260206004820152601460248201527314185d5cd8589b194e881b9bdd081c185d5cd95960621b6044820152606401610556565b61012d805460ff191690557f5db9ee0a495bf2e6ff9c91a7834c1ba4fdd244a5e8aa4e537bd38aeae4b073aa335b6040516001600160a01b03909116815260200160405180910390a1565b61104c600080516020611f0d8339815191523361039e565b6110b75760405162461bcd60e51b815260206004820152603660248201527f45524332305072657365744d696e7465725061757365723a206d7573742068616044820152751d99481b5a5b9d195c881c9bdb19481d1bc81b5a5b9d60521b6064820152608401610556565b61086a8282611636565b6001600160a01b0382166111215760405162461bcd60e51b815260206004820152602160248201527f45524332303a206275726e2066726f6d20746865207a65726f206164647265736044820152607360f81b6064820152608401610556565b61112d826000836113d2565b6001600160a01b038216600090815260c96020526040902054818110156111a15760405162461bcd60e51b815260206004820152602260248201527f45524332303a206275726e20616d6f756e7420657863656564732062616c616e604482015261636560f01b6064820152608401610556565b6111ab8282611e6e565b6001600160a01b038416600090815260c9602052604081209190915560cb80548492906111d9908490611e6e565b90915550506040518281526000906001600160a01b038516907fddf252ad1be2c89b69c2b068fc378daa952ba7f163c4a11628f55a4df523b3ef90602001610c80565b600054610100900460ff1680611235575060005460ff16155b6112515760405162461bcd60e51b815260040161055690611e08565b600054610100900460ff16158015611273576000805461ffff19166101011790555b61127b611721565b611283611721565b61128b611721565b611293611721565b61129d838361178c565b6112a5611721565b6112ad611821565b6112b5611721565b6108dc8383611897565b61012d5460ff16156113065760405162461bcd60e51b815260206004820152601060248201526f14185d5cd8589b194e881c185d5cd95960821b6044820152606401610556565b61012d805460ff191660011790557f62e78cea01bee320cd4e420270b5ea74000d11b0c9f74754ebdbfc544b05a2586110173390565b6000610a1f838361192a565b6000610487825490565b60008281526065602052604090206001015461136d90610e87565b610f805760405162461bcd60e51b815260206004820152603060248201527f416363657373436f6e74726f6c3a2073656e646572206d75737420626520616e60448201526f2061646d696e20746f207265766f6b6560801b6064820152608401610556565b61076e8383836119be565b6113e78282610a26565b61086a5760008281526065602090815260408083206001600160a01b03851684529091529020805460ff1916600117905561141f3390565b6001600160a01b0316816001600160a01b0316837f2f8788117e7eff1d82e926ec794901d17c78024a50270940304540a733656f0d60405160405180910390a45050565b60008181526001830160205260408120546114aa57508154600181810184556000848152602080822090930184905584548482528286019093526040902091909155610695565b506000610695565b6114bc8282610a26565b1561086a5760008281526065602090815260408083206001600160a01b0385168085529252808320805460ff1916905551339285917ff6391f5c32d9c69d2a47ea670b442974b53935d1edc7fd64eb21e047a839171b9190a45050565b6000818152600183016020526040812054801561162c57600061153d600183611e6e565b855490915060009061155190600190611e6e565b9050600086600001828154811061157857634e487b7160e01b600052603260045260246000fd5b90600052602060002001549050808760000184815481106115a957634e487b7160e01b600052603260045260246000fd5b6000918252602090912001556115c0836001611e56565b600082815260018901602052604090205586548790806115f057634e487b7160e01b600052603160045260246000fd5b60019003818190600052602060002001600090559055866001016000878152602001908152602001600020600090556001945050505050610695565b6000915050610695565b6001600160a01b03821661168c5760405162461bcd60e51b815260206004820152601f60248201527f45524332303a206d696e7420746f20746865207a65726f2061646472657373006044820152606401610556565b611698600083836113d2565b8060cb60008282546116aa9190611e56565b90915550506001600160a01b038216600090815260c96020526040812080548392906116d7908490611e56565b90915550506040518181526001600160a01b038316906000907fddf252ad1be2c89b69c2b068fc378daa952ba7f163c4a11628f55a4df523b3ef9060200160405180910390a35050565b600054610100900460ff168061173a575060005460ff16155b6117565760405162461bcd60e51b815260040161055690611e08565b600054610100900460ff16158015611778576000805461ffff19166101011790555b8015610878576000805461ff001916905550565b600054610100900460ff16806117a5575060005460ff16155b6117c15760405162461bcd60e51b815260040161055690611e08565b600054610100900460ff161580156117e3576000805461ffff19166101011790555b82516117f69060cc906020860190611a25565b50815161180a9060cd906020850190611a25565b50801561076e576000805461ff0019169055505050565b600054610100900460ff168061183a575060005460ff16155b6118565760405162461bcd60e51b815260040161055690611e08565b600054610100900460ff16158015611878576000805461ffff19166101011790555b61012d805460ff191690558015610878576000805461ff001916905550565b600054610100900460ff16806118b0575060005460ff16155b6118cc5760405162461bcd60e51b815260040161055690611e08565b600054610100900460ff161580156118ee576000805461ffff19166101011790555b6118fa6000335b610b5e565b611912600080516020611f0d833981519152336118f5565b6108dc600080516020611eed833981519152336118f5565b815460009082106119885760405162461bcd60e51b815260206004820152602260248201527f456e756d657261626c655365743a20696e646578206f7574206f6620626f756e604482015261647360f01b6064820152608401610556565b8260000182815481106119ab57634e487b7160e01b600052603260045260246000fd5b9060005260206000200154905092915050565b61012d5460ff161561076e5760405162461bcd60e51b815260206004820152602a60248201527f45524332305061757361626c653a20746f6b656e207472616e736665722077686044820152691a5b19481c185d5cd95960b21b6064820152608401610556565b828054611a3190611e85565b90600052602060002090601f016020900481019282611a535760008555611a99565b82601f10611a6c57805160ff1916838001178555611a99565b82800160010185558215611a99579182015b82811115611a99578251825591602001919060010190611a7e565b50611aa5929150611aa9565b5090565b5b80821115611aa55760008155600101611aaa565b80356001600160a01b038116811461048a57600080fd5b60008083601f840112611ae6578182fd5b50813567ffffffffffffffff811115611afd578182fd5b602083019150836020828501011115611b1557600080fd5b9250929050565b600082601f830112611b2c578081fd5b813567ffffffffffffffff80821115611b4757611b47611ed6565b604051601f8301601f19908116603f01168101908282118183101715611b6f57611b6f611ed6565b81604052838152866020858801011115611b87578485fd5b8360208701602083013792830160200193909352509392505050565b600060208284031215611bb4578081fd5b610a1f82611abe565b60008060408385031215611bcf578081fd5b611bd883611abe565b9150611be660208401611abe565b90509250929050565b600080600060608486031215611c03578081fd5b611c0c84611abe565b9250611c1a60208501611abe565b9150604084013590509250925092565b60008060408385031215611c3c578182fd5b611c4583611abe565b946020939093013593505050565b600060208284031215611c64578081fd5b5035919050565b60008060408385031215611c7d578182fd5b82359150611be660208401611abe565b60008060408385031215611c9f578182fd5b50508035926020909101359150565b600060208284031215611cbf578081fd5b81356001600160e01b031981168114610a1f578182fd5b600080600080600060608688031215611ced578081fd5b853567ffffffffffffffff80821115611d04578283fd5b611d1089838a01611ad5565b90975095506020880135915080821115611d28578283fd5b50611d3588828901611ad5565b9094509250611d48905060408701611abe565b90509295509295909350565b60008060408385031215611d66578182fd5b823567ffffffffffffffff80821115611d7d578384fd5b611d8986838701611b1c565b93506020850135915080821115611d9e578283fd5b50611dab85828601611b1c565b9150509250929050565b6000602080835283518082850152825b81811015611de157858101830151858201604001528201611dc5565b81811115611df25783604083870101525b50601f01601f1916929092016040019392505050565b6020808252602e908201527f496e697469616c697a61626c653a20636f6e747261637420697320616c72656160408201526d191e481a5b9a5d1a585b1a5e995960921b606082015260800190565b60008219821115611e6957611e69611ec0565b500190565b600082821015611e8057611e80611ec0565b500390565b600181811c90821680611e9957607f821691505b60208210811415611eba57634e487b7160e01b600052602260045260246000fd5b50919050565b634e487b7160e01b600052601160045260246000fd5b634e487b7160e01b600052604160045260246000fdfe65d7a28e3265b37a6474929f336521b332c1681b933f6cb9f3376673440d862a9f2df0fed2c77648de5860a4cc508cd0818c85b8b8a1ab4ceeef8d981c8956a6a264697066735822122030b060866068fe144270a313a1f93b8d98f7c9aaaada7a5fcd7a2648ae42a5a864736f6c63430008030033",
  "immutableReferences": {},
  "source": "// SPDX-License-Identifier: BUSL-1.1\n\npragma solidity 0.8.3;\n/* The bellow code can make this token non-upgradable. This can be decided closer to launch6\nimport \"@openzeppelin/contracts/token/ERC20/presets/ERC20PresetMinterPauser.sol\";\n\ncontract FloatToken is ERC20PresetMinterPauser {\n    constructor(\n        string memory name,\n        string memory symbol,\n        address stakerAddress\n    ) ERC20PresetMinterPauser(name, symbol) {\n*/\nimport \"@openzeppelin/contracts-upgradeable/token/ERC20/presets/ERC20PresetMinterPauserUpgradeable.sol\";\n\nimport \"./interfaces/IFloatToken.sol\";\n\ncontract FloatToken is IFloatToken, ERC20PresetMinterPauserUpgradeable {\n    function initialize(\n        string calldata name,\n        string calldata symbol,\n        address stakerAddress\n    ) public initializer {\n        initialize(name, symbol);\n\n        _setupRole(DEFAULT_ADMIN_ROLE, stakerAddress);\n        _setupRole(MINTER_ROLE, stakerAddress);\n        _setupRole(PAUSER_ROLE, stakerAddress);\n\n        renounceRole(DEFAULT_ADMIN_ROLE, msg.sender);\n        renounceRole(MINTER_ROLE, msg.sender);\n        renounceRole(PAUSER_ROLE, msg.sender);\n    }\n\n    ///////////////////////////////////////////////////////////////////////////////\n    ///////// FUNCTIONS INHERITED BY ERC20PresetMinterPauserUpgradeable ///////////\n    ///////////////////////////////////////////////////////////////////////////////\n    function mint(address to, uint256 amount)\n        public\n        override(IFloatToken, ERC20PresetMinterPauserUpgradeable)\n    {\n        ERC20PresetMinterPauserUpgradeable.mint(to, amount);\n    }\n}\n",
  "sourcePath": "/Users/denham/Documents/projects/float-capital/code/float-capital/contracts/contracts/FloatToken.sol",
  "compiler": {
    "name": "solc",
    "version": "0.8.3+commit.8d00100c.Emscripten.clang"
  },
  "schemaVersion": "3.3.4",
  "updatedAt": "2021-05-24T09:21:10.492Z",
  "networkType": "ethereum",
  "devdoc": {
    "kind": "dev",
    "methods": {
      "allowance(address,address)": {
        "details": "See {IERC20-allowance}."
      },
      "approve(address,uint256)": {
        "details": "See {IERC20-approve}. Requirements: - `spender` cannot be the zero address."
      },
      "balanceOf(address)": {
        "details": "See {IERC20-balanceOf}."
      },
      "burn(uint256)": {
        "details": "Destroys `amount` tokens from the caller. See {ERC20-_burn}."
      },
      "burnFrom(address,uint256)": {
        "details": "Destroys `amount` tokens from `account`, deducting from the caller's allowance. See {ERC20-_burn} and {ERC20-allowance}. Requirements: - the caller must have allowance for ``accounts``'s tokens of at least `amount`."
      },
      "decimals()": {
        "details": "Returns the number of decimals used to get its user representation. For example, if `decimals` equals `2`, a balance of `505` tokens should be displayed to a user as `5,05` (`505 / 10 ** 2`). Tokens usually opt for a value of 18, imitating the relationship between Ether and Wei. This is the value {ERC20} uses, unless this function is overloaded; NOTE: This information is only used for _display_ purposes: it in no way affects any of the arithmetic of the contract, including {IERC20-balanceOf} and {IERC20-transfer}."
      },
      "decreaseAllowance(address,uint256)": {
        "details": "Atomically decreases the allowance granted to `spender` by the caller. This is an alternative to {approve} that can be used as a mitigation for problems described in {IERC20-approve}. Emits an {Approval} event indicating the updated allowance. Requirements: - `spender` cannot be the zero address. - `spender` must have allowance for the caller of at least `subtractedValue`."
      },
      "getRoleAdmin(bytes32)": {
        "details": "Returns the admin role that controls `role`. See {grantRole} and {revokeRole}. To change a role's admin, use {_setRoleAdmin}."
      },
      "getRoleMember(bytes32,uint256)": {
        "details": "Returns one of the accounts that have `role`. `index` must be a value between 0 and {getRoleMemberCount}, non-inclusive. Role bearers are not sorted in any particular way, and their ordering may change at any point. WARNING: When using {getRoleMember} and {getRoleMemberCount}, make sure you perform all queries on the same block. See the following https://forum.openzeppelin.com/t/iterating-over-elements-on-enumerableset-in-openzeppelin-contracts/2296[forum post] for more information."
      },
      "getRoleMemberCount(bytes32)": {
        "details": "Returns the number of accounts that have `role`. Can be used together with {getRoleMember} to enumerate all bearers of a role."
      },
      "grantRole(bytes32,address)": {
        "details": "Overload {grantRole} to track enumerable memberships"
      },
      "hasRole(bytes32,address)": {
        "details": "Returns `true` if `account` has been granted `role`."
      },
      "increaseAllowance(address,uint256)": {
        "details": "Atomically increases the allowance granted to `spender` by the caller. This is an alternative to {approve} that can be used as a mitigation for problems described in {IERC20-approve}. Emits an {Approval} event indicating the updated allowance. Requirements: - `spender` cannot be the zero address."
      },
      "name()": {
        "details": "Returns the name of the token."
      },
      "pause()": {
        "details": "Pauses all token transfers. See {ERC20Pausable} and {Pausable-_pause}. Requirements: - the caller must have the `PAUSER_ROLE`."
      },
      "paused()": {
        "details": "Returns true if the contract is paused, and false otherwise."
      },
      "renounceRole(bytes32,address)": {
        "details": "Overload {renounceRole} to track enumerable memberships"
      },
      "revokeRole(bytes32,address)": {
        "details": "Overload {revokeRole} to track enumerable memberships"
      },
      "supportsInterface(bytes4)": {
        "details": "See {IERC165-supportsInterface}."
      },
      "symbol()": {
        "details": "Returns the symbol of the token, usually a shorter version of the name."
      },
      "totalSupply()": {
        "details": "See {IERC20-totalSupply}."
      },
      "transfer(address,uint256)": {
        "details": "See {IERC20-transfer}. Requirements: - `recipient` cannot be the zero address. - the caller must have a balance of at least `amount`."
      },
      "transferFrom(address,address,uint256)": {
        "details": "See {IERC20-transferFrom}. Emits an {Approval} event indicating the updated allowance. This is not required by the EIP. See the note at the beginning of {ERC20}. Requirements: - `sender` and `recipient` cannot be the zero address. - `sender` must have a balance of at least `amount`. - the caller must have allowance for ``sender``'s tokens of at least `amount`."
      },
      "unpause()": {
        "details": "Unpauses all token transfers. See {ERC20Pausable} and {Pausable-_unpause}. Requirements: - the caller must have the `PAUSER_ROLE`."
      }
    },
    "version": 1
  },
  "userdoc": {
    "kind": "user",
    "methods": {},
    "version": 1
  }
}