{
  "contractName": "FloatToken",
  "abi": [
    {
      "anonymous": false,
      "inputs": [
        {
          "indexed": true,
          "internalType": "address",
          "name": "owner",
          "type": "address"
        },
        {
          "indexed": true,
          "internalType": "address",
          "name": "spender",
          "type": "address"
        },
        {
          "indexed": false,
          "internalType": "uint256",
          "name": "value",
          "type": "uint256"
        }
      ],
      "name": "Approval",
      "type": "event"
    },
    {
      "anonymous": false,
      "inputs": [
        {
          "indexed": false,
          "internalType": "address",
          "name": "account",
          "type": "address"
        }
      ],
      "name": "Paused",
      "type": "event"
    },
    {
      "anonymous": false,
      "inputs": [
        {
          "indexed": true,
          "internalType": "bytes32",
          "name": "role",
          "type": "bytes32"
        },
        {
          "indexed": true,
          "internalType": "bytes32",
          "name": "previousAdminRole",
          "type": "bytes32"
        },
        {
          "indexed": true,
          "internalType": "bytes32",
          "name": "newAdminRole",
          "type": "bytes32"
        }
      ],
      "name": "RoleAdminChanged",
      "type": "event"
    },
    {
      "anonymous": false,
      "inputs": [
        {
          "indexed": true,
          "internalType": "bytes32",
          "name": "role",
          "type": "bytes32"
        },
        {
          "indexed": true,
          "internalType": "address",
          "name": "account",
          "type": "address"
        },
        {
          "indexed": true,
          "internalType": "address",
          "name": "sender",
          "type": "address"
        }
      ],
      "name": "RoleGranted",
      "type": "event"
    },
    {
      "anonymous": false,
      "inputs": [
        {
          "indexed": true,
          "internalType": "bytes32",
          "name": "role",
          "type": "bytes32"
        },
        {
          "indexed": true,
          "internalType": "address",
          "name": "account",
          "type": "address"
        },
        {
          "indexed": true,
          "internalType": "address",
          "name": "sender",
          "type": "address"
        }
      ],
      "name": "RoleRevoked",
      "type": "event"
    },
    {
      "anonymous": false,
      "inputs": [
        {
          "indexed": true,
          "internalType": "address",
          "name": "from",
          "type": "address"
        },
        {
          "indexed": true,
          "internalType": "address",
          "name": "to",
          "type": "address"
        },
        {
          "indexed": false,
          "internalType": "uint256",
          "name": "value",
          "type": "uint256"
        }
      ],
      "name": "Transfer",
      "type": "event"
    },
    {
      "anonymous": false,
      "inputs": [
        {
          "indexed": false,
          "internalType": "address",
          "name": "account",
          "type": "address"
        }
      ],
      "name": "Unpaused",
      "type": "event"
    },
    {
      "inputs": [],
      "name": "DEFAULT_ADMIN_ROLE",
      "outputs": [
        {
          "internalType": "bytes32",
          "name": "",
          "type": "bytes32"
        }
      ],
      "stateMutability": "view",
      "type": "function",
      "constant": true
    },
    {
      "inputs": [],
      "name": "MINTER_ROLE",
      "outputs": [
        {
          "internalType": "bytes32",
          "name": "",
          "type": "bytes32"
        }
      ],
      "stateMutability": "view",
      "type": "function",
      "constant": true
    },
    {
      "inputs": [],
      "name": "PAUSER_ROLE",
      "outputs": [
        {
          "internalType": "bytes32",
          "name": "",
          "type": "bytes32"
        }
      ],
      "stateMutability": "view",
      "type": "function",
      "constant": true
    },
    {
      "inputs": [
        {
          "internalType": "address",
          "name": "owner",
          "type": "address"
        },
        {
          "internalType": "address",
          "name": "spender",
          "type": "address"
        }
      ],
      "name": "allowance",
      "outputs": [
        {
          "internalType": "uint256",
          "name": "",
          "type": "uint256"
        }
      ],
      "stateMutability": "view",
      "type": "function",
      "constant": true
    },
    {
      "inputs": [
        {
          "internalType": "address",
          "name": "spender",
          "type": "address"
        },
        {
          "internalType": "uint256",
          "name": "amount",
          "type": "uint256"
        }
      ],
      "name": "approve",
      "outputs": [
        {
          "internalType": "bool",
          "name": "",
          "type": "bool"
        }
      ],
      "stateMutability": "nonpayable",
      "type": "function"
    },
    {
      "inputs": [
        {
          "internalType": "address",
          "name": "account",
          "type": "address"
        }
      ],
      "name": "balanceOf",
      "outputs": [
        {
          "internalType": "uint256",
          "name": "",
          "type": "uint256"
        }
      ],
      "stateMutability": "view",
      "type": "function",
      "constant": true
    },
    {
      "inputs": [
        {
          "internalType": "uint256",
          "name": "amount",
          "type": "uint256"
        }
      ],
      "name": "burn",
      "outputs": [],
      "stateMutability": "nonpayable",
      "type": "function"
    },
    {
      "inputs": [
        {
          "internalType": "address",
          "name": "account",
          "type": "address"
        },
        {
          "internalType": "uint256",
          "name": "amount",
          "type": "uint256"
        }
      ],
      "name": "burnFrom",
      "outputs": [],
      "stateMutability": "nonpayable",
      "type": "function"
    },
    {
      "inputs": [],
      "name": "decimals",
      "outputs": [
        {
          "internalType": "uint8",
          "name": "",
          "type": "uint8"
        }
      ],
      "stateMutability": "view",
      "type": "function",
      "constant": true
    },
    {
      "inputs": [
        {
          "internalType": "address",
          "name": "spender",
          "type": "address"
        },
        {
          "internalType": "uint256",
          "name": "subtractedValue",
          "type": "uint256"
        }
      ],
      "name": "decreaseAllowance",
      "outputs": [
        {
          "internalType": "bool",
          "name": "",
          "type": "bool"
        }
      ],
      "stateMutability": "nonpayable",
      "type": "function"
    },
    {
      "inputs": [
        {
          "internalType": "bytes32",
          "name": "role",
          "type": "bytes32"
        }
      ],
      "name": "getRoleAdmin",
      "outputs": [
        {
          "internalType": "bytes32",
          "name": "",
          "type": "bytes32"
        }
      ],
      "stateMutability": "view",
      "type": "function",
      "constant": true
    },
    {
      "inputs": [
        {
          "internalType": "bytes32",
          "name": "role",
          "type": "bytes32"
        },
        {
          "internalType": "uint256",
          "name": "index",
          "type": "uint256"
        }
      ],
      "name": "getRoleMember",
      "outputs": [
        {
          "internalType": "address",
          "name": "",
          "type": "address"
        }
      ],
      "stateMutability": "view",
      "type": "function",
      "constant": true
    },
    {
      "inputs": [
        {
          "internalType": "bytes32",
          "name": "role",
          "type": "bytes32"
        }
      ],
      "name": "getRoleMemberCount",
      "outputs": [
        {
          "internalType": "uint256",
          "name": "",
          "type": "uint256"
        }
      ],
      "stateMutability": "view",
      "type": "function",
      "constant": true
    },
    {
      "inputs": [
        {
          "internalType": "bytes32",
          "name": "role",
          "type": "bytes32"
        },
        {
          "internalType": "address",
          "name": "account",
          "type": "address"
        }
      ],
      "name": "grantRole",
      "outputs": [],
      "stateMutability": "nonpayable",
      "type": "function"
    },
    {
      "inputs": [
        {
          "internalType": "bytes32",
          "name": "role",
          "type": "bytes32"
        },
        {
          "internalType": "address",
          "name": "account",
          "type": "address"
        }
      ],
      "name": "hasRole",
      "outputs": [
        {
          "internalType": "bool",
          "name": "",
          "type": "bool"
        }
      ],
      "stateMutability": "view",
      "type": "function",
      "constant": true
    },
    {
      "inputs": [
        {
          "internalType": "address",
          "name": "spender",
          "type": "address"
        },
        {
          "internalType": "uint256",
          "name": "addedValue",
          "type": "uint256"
        }
      ],
      "name": "increaseAllowance",
      "outputs": [
        {
          "internalType": "bool",
          "name": "",
          "type": "bool"
        }
      ],
      "stateMutability": "nonpayable",
      "type": "function"
    },
    {
      "inputs": [
        {
          "internalType": "string",
          "name": "name",
          "type": "string"
        },
        {
          "internalType": "string",
          "name": "symbol",
          "type": "string"
        }
      ],
      "name": "initialize",
      "outputs": [],
      "stateMutability": "nonpayable",
      "type": "function"
    },
    {
      "inputs": [],
      "name": "name",
      "outputs": [
        {
          "internalType": "string",
          "name": "",
          "type": "string"
        }
      ],
      "stateMutability": "view",
      "type": "function",
      "constant": true
    },
    {
      "inputs": [],
      "name": "pause",
      "outputs": [],
      "stateMutability": "nonpayable",
      "type": "function"
    },
    {
      "inputs": [],
      "name": "paused",
      "outputs": [
        {
          "internalType": "bool",
          "name": "",
          "type": "bool"
        }
      ],
      "stateMutability": "view",
      "type": "function",
      "constant": true
    },
    {
      "inputs": [
        {
          "internalType": "bytes32",
          "name": "role",
          "type": "bytes32"
        },
        {
          "internalType": "address",
          "name": "account",
          "type": "address"
        }
      ],
      "name": "renounceRole",
      "outputs": [],
      "stateMutability": "nonpayable",
      "type": "function"
    },
    {
      "inputs": [
        {
          "internalType": "bytes32",
          "name": "role",
          "type": "bytes32"
        },
        {
          "internalType": "address",
          "name": "account",
          "type": "address"
        }
      ],
      "name": "revokeRole",
      "outputs": [],
      "stateMutability": "nonpayable",
      "type": "function"
    },
    {
      "inputs": [
        {
          "internalType": "bytes4",
          "name": "interfaceId",
          "type": "bytes4"
        }
      ],
      "name": "supportsInterface",
      "outputs": [
        {
          "internalType": "bool",
          "name": "",
          "type": "bool"
        }
      ],
      "stateMutability": "view",
      "type": "function",
      "constant": true
    },
    {
      "inputs": [],
      "name": "symbol",
      "outputs": [
        {
          "internalType": "string",
          "name": "",
          "type": "string"
        }
      ],
      "stateMutability": "view",
      "type": "function",
      "constant": true
    },
    {
      "inputs": [],
      "name": "totalSupply",
      "outputs": [
        {
          "internalType": "uint256",
          "name": "",
          "type": "uint256"
        }
      ],
      "stateMutability": "view",
      "type": "function",
      "constant": true
    },
    {
      "inputs": [
        {
          "internalType": "address",
          "name": "recipient",
          "type": "address"
        },
        {
          "internalType": "uint256",
          "name": "amount",
          "type": "uint256"
        }
      ],
      "name": "transfer",
      "outputs": [
        {
          "internalType": "bool",
          "name": "",
          "type": "bool"
        }
      ],
      "stateMutability": "nonpayable",
      "type": "function"
    },
    {
      "inputs": [
        {
          "internalType": "address",
          "name": "sender",
          "type": "address"
        },
        {
          "internalType": "address",
          "name": "recipient",
          "type": "address"
        },
        {
          "internalType": "uint256",
          "name": "amount",
          "type": "uint256"
        }
      ],
      "name": "transferFrom",
      "outputs": [
        {
          "internalType": "bool",
          "name": "",
          "type": "bool"
        }
      ],
      "stateMutability": "nonpayable",
      "type": "function"
    },
    {
      "inputs": [],
      "name": "unpause",
      "outputs": [],
      "stateMutability": "nonpayable",
      "type": "function"
    },
    {
      "inputs": [
        {
          "internalType": "string",
          "name": "name",
          "type": "string"
        },
        {
          "internalType": "string",
          "name": "symbol",
          "type": "string"
        },
        {
          "internalType": "address",
          "name": "stakerAddress",
          "type": "address"
        }
      ],
      "name": "initialize3",
      "outputs": [],
      "stateMutability": "nonpayable",
      "type": "function"
    },
    {
      "inputs": [
        {
          "internalType": "address",
          "name": "to",
          "type": "address"
        },
        {
          "internalType": "uint256",
          "name": "amount",
          "type": "uint256"
        }
      ],
      "name": "mint",
      "outputs": [],
      "stateMutability": "nonpayable",
      "type": "function"
    }
  ],
  "bytecode": "0x608060405234801561001057600080fd5b50611f5e806100206000396000f3fe608060405234801561001057600080fd5b50600436106101da5760003560e01c806370a0823111610104578063a457c2d7116100a2578063d539139311610071578063d5391393146103ec578063d547741f14610401578063dd62ed3e14610414578063e63ab1e91461044d576101da565b8063a457c2d7146103a0578063a9059cbb146103b3578063c44f242e146103c6578063ca15c873146103d9576101da565b80639010d07c116100de5780639010d07c1461035257806391d148541461037d57806395d89b4114610390578063a217fddf14610398576101da565b806370a082311461030e57806379cc6790146103375780638456cb591461034a576101da565b8063313ce5671161017c57806340c10f191161014b57806340c10f19146102c957806342966c68146102dc5780634cd88b76146102ef5780635c975abb14610302576101da565b8063313ce5671461028c57806336568abe1461029b57806339509351146102ae5780633f4ba83a146102c1576101da565b806318160ddd116101b857806318160ddd1461022f57806323b872dd14610241578063248a9ca3146102545780632f2ff15d14610277576101da565b806301ffc9a7146101df57806306fdde0314610207578063095ea7b31461021c575b600080fd5b6101f26101ed366004611caa565b610462565b60405190151581526020015b60405180910390f35b61020f61048f565b6040516101fe9190611db1565b6101f261022a366004611c26565b610521565b60cb545b6040519081526020016101fe565b6101f261024f366004611beb565b610538565b610233610262366004611c4f565b60009081526065602052604090206001015490565b61028a610285366004611c67565b6105ee565b005b604051601281526020016101fe565b61028a6102a9366004611c67565b610615565b6101f26102bc366004611c26565b610637565b61028a61066e565b61028a6102d7366004611c26565b610702565b61028a6102ea366004611c4f565b610710565b61028a6102fd366004611d50565b61071d565b61012d5460ff166101f2565b61023361031c366004611b9f565b6001600160a01b0316600090815260c9602052604090205490565b61028a610345366004611c26565b610794565b61028a610817565b610365610360366004611c89565b6108a9565b6040516001600160a01b0390911681526020016101fe565b6101f261038b366004611c67565b6108c8565b61020f6108f3565b610233600081565b6101f26103ae366004611c26565b610902565b6101f26103c1366004611c26565b61099d565b61028a6103d4366004611cd2565b6109aa565b6102336103e7366004611c4f565b610b04565b610233600080516020611f0983398151915281565b61028a61040f366004611c67565b610b1b565b610233610422366004611bb9565b6001600160a01b03918216600090815260ca6020908152604080832093909416825291909152205490565b610233600080516020611ee983398151915281565b60006001600160e01b03198216635a05180f60e01b1480610487575061048782610b25565b90505b919050565b606060cc805461049e90611e81565b80601f01602080910402602001604051908101604052809291908181526020018280546104ca90611e81565b80156105175780601f106104ec57610100808354040283529160200191610517565b820191906000526020600020905b8154815290600101906020018083116104fa57829003601f168201915b5050505050905090565b600061052e338484610b5a565b5060015b92915050565b6000610545848484610c7f565b6001600160a01b038416600090815260ca60209081526040808320338452909152902054828110156105cf5760405162461bcd60e51b815260206004820152602860248201527f45524332303a207472616e7366657220616d6f756e74206578636565647320616044820152676c6c6f77616e636560c01b60648201526084015b60405180910390fd5b6105e385336105de8685611e6a565b610b5a565b506001949350505050565b6105f88282610e62565b60008281526097602052604090206106109082610eed565b505050565b61061f8282610f02565b60008281526097602052604090206106109082610f7c565b33600081815260ca602090815260408083206001600160a01b0387168452909152812054909161052e9185906105de908690611e52565b610686600080516020611ee98339815191523361038b565b6106f85760405162461bcd60e51b815260206004820152603960248201527f45524332305072657365744d696e7465725061757365723a206d75737420686160448201527f76652070617573657220726f6c6520746f20756e70617573650000000000000060648201526084016105c6565b610700610f91565b565b61070c8282611026565b5050565b61071a33826110b3565b50565b600054610100900460ff1680610736575060005460ff16155b6107525760405162461bcd60e51b81526004016105c690611e04565b600054610100900460ff16158015610774576000805461ffff19166101011790555b61077e838361120e565b8015610610576000805461ff0019169055505050565b60006107a08333610422565b9050818110156107fe5760405162461bcd60e51b8152602060048201526024808201527f45524332303a206275726e20616d6f756e74206578636565647320616c6c6f77604482015263616e636560e01b60648201526084016105c6565b61080d83336105de8585611e6a565b61061083836110b3565b61082f600080516020611ee98339815191523361038b565b6108a15760405162461bcd60e51b815260206004820152603760248201527f45524332305072657365744d696e7465725061757365723a206d75737420686160448201527f76652070617573657220726f6c6520746f20706175736500000000000000000060648201526084016105c6565b6107006112b1565b60008281526097602052604081206108c1908361132e565b9392505050565b60009182526065602090815260408084206001600160a01b0393909316845291905290205460ff1690565b606060cd805461049e90611e81565b33600090815260ca602090815260408083206001600160a01b0386168452909152812054828110156109845760405162461bcd60e51b815260206004820152602560248201527f45524332303a2064656372656173656420616c6c6f77616e63652062656c6f77604482015264207a65726f60d81b60648201526084016105c6565b61099333856105de8685611e6a565b5060019392505050565b600061052e338484610c7f565b600054610100900460ff16806109c3575060005460ff16155b6109df5760405162461bcd60e51b81526004016105c690611e04565b600054610100900460ff16158015610a01576000805461ffff19166101011790555b610a7486868080601f01602080910402602001604051908101604052809392919081815260200183838082843760009201919091525050604080516020601f8a01819004810282018101909252888152925088915087908190840183828082843760009201919091525061071d92505050565b610a7f60008361133a565b610a97600080516020611f098339815191528361133a565b610aaf600080516020611ee98339815191528361133a565b610aba600033610615565b610ad2600080516020611f0983398151915233610615565b610aea600080516020611ee983398151915233610615565b8015610afc576000805461ff00191690555b505050505050565b600081815260976020526040812061048790611344565b61061f828261134e565b60006001600160e01b03198216637965db0b60e01b148061048757506301ffc9a760e01b6001600160e01b0319831614610487565b6001600160a01b038316610bbc5760405162461bcd60e51b8152602060048201526024808201527f45524332303a20617070726f76652066726f6d20746865207a65726f206164646044820152637265737360e01b60648201526084016105c6565b6001600160a01b038216610c1d5760405162461bcd60e51b815260206004820152602260248201527f45524332303a20617070726f766520746f20746865207a65726f206164647265604482015261737360f01b60648201526084016105c6565b6001600160a01b03838116600081815260ca602090815260408083209487168084529482529182902085905590518481527f8c5be1e5ebec7d5bd14f71427d1e84f3dd0314c0f7b2291e5b200ac8c7c3b92591015b60405180910390a3505050565b6001600160a01b038316610ce35760405162461bcd60e51b815260206004820152602560248201527f45524332303a207472616e736665722066726f6d20746865207a65726f206164604482015264647265737360d81b60648201526084016105c6565b6001600160a01b038216610d455760405162461bcd60e51b815260206004820152602360248201527f45524332303a207472616e7366657220746f20746865207a65726f206164647260448201526265737360e81b60648201526084016105c6565b610d508383836113ce565b6001600160a01b038316600090815260c9602052604090205481811015610dc85760405162461bcd60e51b815260206004820152602660248201527f45524332303a207472616e7366657220616d6f756e7420657863656564732062604482015265616c616e636560d01b60648201526084016105c6565b610dd28282611e6a565b6001600160a01b03808616600090815260c960205260408082209390935590851681529081208054849290610e08908490611e52565b92505081905550826001600160a01b0316846001600160a01b03167fddf252ad1be2c89b69c2b068fc378daa952ba7f163c4a11628f55a4df523b3ef84604051610e5491815260200190565b60405180910390a350505050565b600082815260656020526040902060010154610e7f905b3361038b565b610ee35760405162461bcd60e51b815260206004820152602f60248201527f416363657373436f6e74726f6c3a2073656e646572206d75737420626520616e60448201526e0818591b5a5b881d1bc819dc985b9d608a1b60648201526084016105c6565b61070c82826113d9565b60006108c1836001600160a01b03841661145f565b6001600160a01b0381163314610f725760405162461bcd60e51b815260206004820152602f60248201527f416363657373436f6e74726f6c3a2063616e206f6e6c792072656e6f756e636560448201526e103937b632b9903337b91039b2b63360891b60648201526084016105c6565b61070c82826114ae565b60006108c1836001600160a01b038416611515565b61012d5460ff16610fdb5760405162461bcd60e51b815260206004820152601460248201527314185d5cd8589b194e881b9bdd081c185d5cd95960621b60448201526064016105c6565b61012d805460ff191690557f5db9ee0a495bf2e6ff9c91a7834c1ba4fdd244a5e8aa4e537bd38aeae4b073aa335b6040516001600160a01b03909116815260200160405180910390a1565b61103e600080516020611f098339815191523361038b565b6110a95760405162461bcd60e51b815260206004820152603660248201527f45524332305072657365744d696e7465725061757365723a206d7573742068616044820152751d99481b5a5b9d195c881c9bdb19481d1bc81b5a5b9d60521b60648201526084016105c6565b61070c8282611632565b6001600160a01b0382166111135760405162461bcd60e51b815260206004820152602160248201527f45524332303a206275726e2066726f6d20746865207a65726f206164647265736044820152607360f81b60648201526084016105c6565b61111f826000836113ce565b6001600160a01b038216600090815260c96020526040902054818110156111935760405162461bcd60e51b815260206004820152602260248201527f45524332303a206275726e20616d6f756e7420657863656564732062616c616e604482015261636560f01b60648201526084016105c6565b61119d8282611e6a565b6001600160a01b038416600090815260c9602052604081209190915560cb80548492906111cb908490611e6a565b90915550506040518281526000906001600160a01b038516907fddf252ad1be2c89b69c2b068fc378daa952ba7f163c4a11628f55a4df523b3ef90602001610c72565b600054610100900460ff1680611227575060005460ff16155b6112435760405162461bcd60e51b81526004016105c690611e04565b600054610100900460ff16158015611265576000805461ffff19166101011790555b61126d61171d565b61127561171d565b61127d61171d565b61128561171d565b61128f8383611788565b61129761171d565b61129f61181d565b6112a761171d565b61077e8383611893565b61012d5460ff16156112f85760405162461bcd60e51b815260206004820152601060248201526f14185d5cd8589b194e881c185d5cd95960821b60448201526064016105c6565b61012d805460ff191660011790557f62e78cea01bee320cd4e420270b5ea74000d11b0c9f74754ebdbfc544b05a2586110093390565b60006108c18383611926565b6105f88282610ee3565b6000610487825490565b60008281526065602052604090206001015461136990610e79565b610f725760405162461bcd60e51b815260206004820152603060248201527f416363657373436f6e74726f6c3a2073656e646572206d75737420626520616e60448201526f2061646d696e20746f207265766f6b6560801b60648201526084016105c6565b6106108383836119ba565b6113e382826108c8565b61070c5760008281526065602090815260408083206001600160a01b03851684529091529020805460ff1916600117905561141b3390565b6001600160a01b0316816001600160a01b0316837f2f8788117e7eff1d82e926ec794901d17c78024a50270940304540a733656f0d60405160405180910390a45050565b60008181526001830160205260408120546114a657508154600181810184556000848152602080822090930184905584548482528286019093526040902091909155610532565b506000610532565b6114b882826108c8565b1561070c5760008281526065602090815260408083206001600160a01b0385168085529252808320805460ff1916905551339285917ff6391f5c32d9c69d2a47ea670b442974b53935d1edc7fd64eb21e047a839171b9190a45050565b60008181526001830160205260408120548015611628576000611539600183611e6a565b855490915060009061154d90600190611e6a565b9050600086600001828154811061157457634e487b7160e01b600052603260045260246000fd5b90600052602060002001549050808760000184815481106115a557634e487b7160e01b600052603260045260246000fd5b6000918252602090912001556115bc836001611e52565b600082815260018901602052604090205586548790806115ec57634e487b7160e01b600052603160045260246000fd5b60019003818190600052602060002001600090559055866001016000878152602001908152602001600020600090556001945050505050610532565b6000915050610532565b6001600160a01b0382166116885760405162461bcd60e51b815260206004820152601f60248201527f45524332303a206d696e7420746f20746865207a65726f20616464726573730060448201526064016105c6565b611694600083836113ce565b8060cb60008282546116a69190611e52565b90915550506001600160a01b038216600090815260c96020526040812080548392906116d3908490611e52565b90915550506040518181526001600160a01b038316906000907fddf252ad1be2c89b69c2b068fc378daa952ba7f163c4a11628f55a4df523b3ef9060200160405180910390a35050565b600054610100900460ff1680611736575060005460ff16155b6117525760405162461bcd60e51b81526004016105c690611e04565b600054610100900460ff16158015611774576000805461ffff19166101011790555b801561071a576000805461ff001916905550565b600054610100900460ff16806117a1575060005460ff16155b6117bd5760405162461bcd60e51b81526004016105c690611e04565b600054610100900460ff161580156117df576000805461ffff19166101011790555b82516117f29060cc906020860190611a21565b5081516118069060cd906020850190611a21565b508015610610576000805461ff0019169055505050565b600054610100900460ff1680611836575060005460ff16155b6118525760405162461bcd60e51b81526004016105c690611e04565b600054610100900460ff16158015611874576000805461ffff19166101011790555b61012d805460ff19169055801561071a576000805461ff001916905550565b600054610100900460ff16806118ac575060005460ff16155b6118c85760405162461bcd60e51b81526004016105c690611e04565b600054610100900460ff161580156118ea576000805461ffff19166101011790555b6118f66000335b61133a565b61190e600080516020611f09833981519152336118f1565b61077e600080516020611ee9833981519152336118f1565b815460009082106119845760405162461bcd60e51b815260206004820152602260248201527f456e756d657261626c655365743a20696e646578206f7574206f6620626f756e604482015261647360f01b60648201526084016105c6565b8260000182815481106119a757634e487b7160e01b600052603260045260246000fd5b9060005260206000200154905092915050565b61012d5460ff16156106105760405162461bcd60e51b815260206004820152602a60248201527f45524332305061757361626c653a20746f6b656e207472616e736665722077686044820152691a5b19481c185d5cd95960b21b60648201526084016105c6565b828054611a2d90611e81565b90600052602060002090601f016020900481019282611a4f5760008555611a95565b82601f10611a6857805160ff1916838001178555611a95565b82800160010185558215611a95579182015b82811115611a95578251825591602001919060010190611a7a565b50611aa1929150611aa5565b5090565b5b80821115611aa15760008155600101611aa6565b80356001600160a01b038116811461048a57600080fd5b60008083601f840112611ae2578182fd5b50813567ffffffffffffffff811115611af9578182fd5b602083019150836020828501011115611b1157600080fd5b9250929050565b600082601f830112611b28578081fd5b813567ffffffffffffffff80821115611b4357611b43611ed2565b604051601f8301601f19908116603f01168101908282118183101715611b6b57611b6b611ed2565b81604052838152866020858801011115611b83578485fd5b8360208701602083013792830160200193909352509392505050565b600060208284031215611bb0578081fd5b6108c182611aba565b60008060408385031215611bcb578081fd5b611bd483611aba565b9150611be260208401611aba565b90509250929050565b600080600060608486031215611bff578081fd5b611c0884611aba565b9250611c1660208501611aba565b9150604084013590509250925092565b60008060408385031215611c38578182fd5b611c4183611aba565b946020939093013593505050565b600060208284031215611c60578081fd5b5035919050565b60008060408385031215611c79578182fd5b82359150611be260208401611aba565b60008060408385031215611c9b578182fd5b50508035926020909101359150565b600060208284031215611cbb578081fd5b81356001600160e01b0319811681146108c1578182fd5b600080600080600060608688031215611ce9578081fd5b853567ffffffffffffffff80821115611d00578283fd5b611d0c89838a01611ad1565b90975095506020880135915080821115611d24578283fd5b50611d3188828901611ad1565b9094509250611d44905060408701611aba565b90509295509295909350565b60008060408385031215611d62578182fd5b823567ffffffffffffffff80821115611d79578384fd5b611d8586838701611b18565b93506020850135915080821115611d9a578283fd5b50611da785828601611b18565b9150509250929050565b6000602080835283518082850152825b81811015611ddd57858101830151858201604001528201611dc1565b81811115611dee5783604083870101525b50601f01601f1916929092016040019392505050565b6020808252602e908201527f496e697469616c697a61626c653a20636f6e747261637420697320616c72656160408201526d191e481a5b9a5d1a585b1a5e995960921b606082015260800190565b60008219821115611e6557611e65611ebc565b500190565b600082821015611e7c57611e7c611ebc565b500390565b600181811c90821680611e9557607f821691505b60208210811415611eb657634e487b7160e01b600052602260045260246000fd5b50919050565b634e487b7160e01b600052601160045260246000fd5b634e487b7160e01b600052604160045260246000fdfe65d7a28e3265b37a6474929f336521b332c1681b933f6cb9f3376673440d862a9f2df0fed2c77648de5860a4cc508cd0818c85b8b8a1ab4ceeef8d981c8956a6a2646970667358221220b13fb6605ac42120a7479fb641671ad18fc5d3944e64181d48cdcc197667886764736f6c63430008030033",
  "immutableReferences": {},
  "source": "// SPDX-License-Identifier: BUSL-1.1\n\npragma solidity 0.8.3;\n/* The bellow code can make this token non-upgradable. This can be decided closer to launch6\nimport \"@openzeppelin/contracts/token/ERC20/presets/ERC20PresetMinterPauser.sol\";\n\ncontract FloatToken is ERC20PresetMinterPauser {\n    constructor(\n        string memory name,\n        string memory symbol,\n        address stakerAddress\n    ) ERC20PresetMinterPauser(name, symbol) {\n*/\nimport \"@openzeppelin/contracts-upgradeable/token/ERC20/presets/ERC20PresetMinterPauserUpgradeable.sol\";\n\nimport \"./interfaces/IFloatToken.sol\";\n\ncontract FloatToken is IFloatToken, ERC20PresetMinterPauserUpgradeable {\n    function initialize3(\n        string calldata name,\n        string calldata symbol,\n        address stakerAddress\n    ) public initializer {\n        initialize(name, symbol);\n\n        _setupRole(DEFAULT_ADMIN_ROLE, stakerAddress);\n        _setupRole(MINTER_ROLE, stakerAddress);\n        _setupRole(PAUSER_ROLE, stakerAddress);\n\n        renounceRole(DEFAULT_ADMIN_ROLE, msg.sender);\n        renounceRole(MINTER_ROLE, msg.sender);\n        renounceRole(PAUSER_ROLE, msg.sender);\n    }\n\n    ///////////////////////////////////////////////////////////////////////////////\n    ///////// FUNCTIONS INHERITED BY ERC20PresetMinterPauserUpgradeable ///////////\n    ///////////////////////////////////////////////////////////////////////////////\n    function mint(address to, uint256 amount)\n        public\n        override(IFloatToken, ERC20PresetMinterPauserUpgradeable)\n    {\n        ERC20PresetMinterPauserUpgradeable.mint(to, amount);\n    }\n}\n",
  "sourcePath": "/home/jasoons/Documents/code/monorepo/contracts/contracts/FloatToken.sol",
  "compiler": {
    "name": "solc",
    "version": "0.8.3+commit.8d00100c.Emscripten.clang"
  },
  "schemaVersion": "3.3.4",
  "updatedAt": "2021-06-16T14:22:52.575Z",
  "networkType": "ethereum",
  "devdoc": {
    "kind": "dev",
    "methods": {
      "allowance(address,address)": {
        "details": "See {IERC20-allowance}."
      },
      "approve(address,uint256)": {
        "details": "See {IERC20-approve}. Requirements: - `spender` cannot be the zero address."
      },
      "balanceOf(address)": {
        "details": "See {IERC20-balanceOf}."
      },
      "burn(uint256)": {
        "details": "Destroys `amount` tokens from the caller. See {ERC20-_burn}."
      },
      "burnFrom(address,uint256)": {
        "details": "Destroys `amount` tokens from `account`, deducting from the caller's allowance. See {ERC20-_burn} and {ERC20-allowance}. Requirements: - the caller must have allowance for ``accounts``'s tokens of at least `amount`."
      },
      "decimals()": {
        "details": "Returns the number of decimals used to get its user representation. For example, if `decimals` equals `2`, a balance of `505` tokens should be displayed to a user as `5,05` (`505 / 10 ** 2`). Tokens usually opt for a value of 18, imitating the relationship between Ether and Wei. This is the value {ERC20} uses, unless this function is overloaded; NOTE: This information is only used for _display_ purposes: it in no way affects any of the arithmetic of the contract, including {IERC20-balanceOf} and {IERC20-transfer}."
      },
      "decreaseAllowance(address,uint256)": {
        "details": "Atomically decreases the allowance granted to `spender` by the caller. This is an alternative to {approve} that can be used as a mitigation for problems described in {IERC20-approve}. Emits an {Approval} event indicating the updated allowance. Requirements: - `spender` cannot be the zero address. - `spender` must have allowance for the caller of at least `subtractedValue`."
      },
      "getRoleAdmin(bytes32)": {
        "details": "Returns the admin role that controls `role`. See {grantRole} and {revokeRole}. To change a role's admin, use {_setRoleAdmin}."
      },
      "getRoleMember(bytes32,uint256)": {
        "details": "Returns one of the accounts that have `role`. `index` must be a value between 0 and {getRoleMemberCount}, non-inclusive. Role bearers are not sorted in any particular way, and their ordering may change at any point. WARNING: When using {getRoleMember} and {getRoleMemberCount}, make sure you perform all queries on the same block. See the following https://forum.openzeppelin.com/t/iterating-over-elements-on-enumerableset-in-openzeppelin-contracts/2296[forum post] for more information."
      },
      "getRoleMemberCount(bytes32)": {
        "details": "Returns the number of accounts that have `role`. Can be used together with {getRoleMember} to enumerate all bearers of a role."
      },
      "grantRole(bytes32,address)": {
        "details": "Overload {grantRole} to track enumerable memberships"
      },
      "hasRole(bytes32,address)": {
        "details": "Returns `true` if `account` has been granted `role`."
      },
      "increaseAllowance(address,uint256)": {
        "details": "Atomically increases the allowance granted to `spender` by the caller. This is an alternative to {approve} that can be used as a mitigation for problems described in {IERC20-approve}. Emits an {Approval} event indicating the updated allowance. Requirements: - `spender` cannot be the zero address."
      },
      "name()": {
        "details": "Returns the name of the token."
      },
      "pause()": {
        "details": "Pauses all token transfers. See {ERC20Pausable} and {Pausable-_pause}. Requirements: - the caller must have the `PAUSER_ROLE`."
      },
      "paused()": {
        "details": "Returns true if the contract is paused, and false otherwise."
      },
      "renounceRole(bytes32,address)": {
        "details": "Overload {renounceRole} to track enumerable memberships"
      },
      "revokeRole(bytes32,address)": {
        "details": "Overload {revokeRole} to track enumerable memberships"
      },
      "supportsInterface(bytes4)": {
        "details": "See {IERC165-supportsInterface}."
      },
      "symbol()": {
        "details": "Returns the symbol of the token, usually a shorter version of the name."
      },
      "totalSupply()": {
        "details": "See {IERC20-totalSupply}."
      },
      "transfer(address,uint256)": {
        "details": "See {IERC20-transfer}. Requirements: - `recipient` cannot be the zero address. - the caller must have a balance of at least `amount`."
      },
      "transferFrom(address,address,uint256)": {
        "details": "See {IERC20-transferFrom}. Emits an {Approval} event indicating the updated allowance. This is not required by the EIP. See the note at the beginning of {ERC20}. Requirements: - `sender` and `recipient` cannot be the zero address. - `sender` must have a balance of at least `amount`. - the caller must have allowance for ``sender``'s tokens of at least `amount`."
      },
      "unpause()": {
        "details": "Unpauses all token transfers. See {ERC20Pausable} and {Pausable-_unpause}. Requirements: - the caller must have the `PAUSER_ROLE`."
      }
    },
    "version": 1
  },
  "userdoc": {
    "kind": "user",
    "methods": {},
    "version": 1
  }
}