{
  "contractName": "FloatCapital_v0",
  "abi": [
    {
      "inputs": [],
      "name": "admin",
      "outputs": [
        {
          "internalType": "address",
          "name": "",
          "type": "address"
        }
      ],
      "stateMutability": "view",
      "type": "function",
      "constant": true
    },
    {
      "inputs": [
        {
          "internalType": "address",
          "name": "_admin",
          "type": "address"
        }
      ],
      "name": "initialize",
      "outputs": [],
      "stateMutability": "nonpayable",
      "type": "function"
    },
    {
      "inputs": [
        {
          "internalType": "address",
          "name": "_admin",
          "type": "address"
        }
      ],
      "name": "changeAdmin",
      "outputs": [],
      "stateMutability": "nonpayable",
      "type": "function"
    }
  ],
  "bytecode": "0x608060405234801561001057600080fd5b50610258806100206000396000f3fe608060405234801561001057600080fd5b50600436106100415760003560e01c80638f28397014610046578063c4d66de81461005b578063f851a4401461006e575b600080fd5b6100596100543660046101f4565b6100a3565b005b6100596100693660046101f4565b61011e565b600054610087906201000090046001600160a01b031681565b6040516001600160a01b03909116815260200160405180910390f35b6000546201000090046001600160a01b031633146100f45760405162461bcd60e51b81526020600482015260096024820152682737ba1030b236b4b760b91b60448201526064015b60405180910390fd5b600080546001600160a01b03909216620100000262010000600160b01b0319909216919091179055565b600054610100900460ff1680610137575060005460ff16155b61019a5760405162461bcd60e51b815260206004820152602e60248201527f496e697469616c697a61626c653a20636f6e747261637420697320616c72656160448201526d191e481a5b9a5d1a585b1a5e995960921b60648201526084016100eb565b600054610100900460ff161580156101bc576000805461ffff19166101011790555b6000805462010000600160b01b031916620100006001600160a01b0385160217905580156101f0576000805461ff00191690555b5050565b600060208284031215610205578081fd5b81356001600160a01b038116811461021b578182fd5b939250505056fea264697066735822122064503d8109cc98da228aea6e8eaae17754bcf45e7fd15dbce287a9d1ff21a8cd64736f6c63430008030033",
  "immutableReferences": {},
  "source": "// SPDX-License-Identifier: MIT\n\npragma solidity 0.8.3;\n\nimport \"@openzeppelin/contracts-upgradeable/proxy/utils/Initializable.sol\";\n\n/** @title Float Capital Contract */\ncontract FloatCapital_v0 is Initializable {\n    address public admin;\n\n    ////////////////////////////////////\n    /////////// MODIFIERS //////////////\n    ////////////////////////////////////\n\n    modifier onlyAdmin() {\n        require(msg.sender == admin, \"Not admin\");\n        _;\n    }\n\n    ////////////////////////////////////\n    ///// CONTRACT SET-UP //////////////\n    ////////////////////////////////////\n\n    function initialize(address _admin) public initializer {\n        admin = _admin;\n    }\n\n    ////////////////////////////////////\n    /// MULTISIG ADMIN FUNCTIONS ///////\n    ////////////////////////////////////\n\n    function changeAdmin(address _admin) external onlyAdmin {\n        admin = _admin;\n    }\n\n    /** Small percentage of float token to accrue here for project\n     development */\n}\n",
  "sourcePath": "/home/jasoons/Documents/code/monorepo/contracts/contracts/FloatCapital_v0.sol",
  "compiler": {
    "name": "solc",
    "version": "0.8.3+commit.8d00100c.Emscripten.clang"
  },
  "schemaVersion": "3.3.4",
  "updatedAt": "2021-04-13T11:56:40.889Z",
  "networkType": "ethereum",
  "devdoc": {
    "kind": "dev",
    "methods": {},
    "title": "Float Capital Contract ",
    "version": 1
  },
  "userdoc": {
    "kind": "user",
    "methods": {
      "changeAdmin(address)": {
        "notice": "MULTISIG ADMIN FUNCTIONS ///////"
      }
    },
    "version": 1
  }
}