{
  "contractName": "FloatToken",
  "abi": [
    {
      "anonymous": false,
      "inputs": [
        {
          "indexed": true,
          "internalType": "address",
          "name": "owner",
          "type": "address"
        },
        {
          "indexed": true,
          "internalType": "address",
          "name": "spender",
          "type": "address"
        },
        {
          "indexed": false,
          "internalType": "uint256",
          "name": "value",
          "type": "uint256"
        }
      ],
      "name": "Approval",
      "type": "event"
    },
    {
      "anonymous": false,
      "inputs": [
        {
          "indexed": false,
          "internalType": "address",
          "name": "account",
          "type": "address"
        }
      ],
      "name": "Paused",
      "type": "event"
    },
    {
      "anonymous": false,
      "inputs": [
        {
          "indexed": true,
          "internalType": "bytes32",
          "name": "role",
          "type": "bytes32"
        },
        {
          "indexed": true,
          "internalType": "bytes32",
          "name": "previousAdminRole",
          "type": "bytes32"
        },
        {
          "indexed": true,
          "internalType": "bytes32",
          "name": "newAdminRole",
          "type": "bytes32"
        }
      ],
      "name": "RoleAdminChanged",
      "type": "event"
    },
    {
      "anonymous": false,
      "inputs": [
        {
          "indexed": true,
          "internalType": "bytes32",
          "name": "role",
          "type": "bytes32"
        },
        {
          "indexed": true,
          "internalType": "address",
          "name": "account",
          "type": "address"
        },
        {
          "indexed": true,
          "internalType": "address",
          "name": "sender",
          "type": "address"
        }
      ],
      "name": "RoleGranted",
      "type": "event"
    },
    {
      "anonymous": false,
      "inputs": [
        {
          "indexed": true,
          "internalType": "bytes32",
          "name": "role",
          "type": "bytes32"
        },
        {
          "indexed": true,
          "internalType": "address",
          "name": "account",
          "type": "address"
        },
        {
          "indexed": true,
          "internalType": "address",
          "name": "sender",
          "type": "address"
        }
      ],
      "name": "RoleRevoked",
      "type": "event"
    },
    {
      "anonymous": false,
      "inputs": [
        {
          "indexed": true,
          "internalType": "address",
          "name": "from",
          "type": "address"
        },
        {
          "indexed": true,
          "internalType": "address",
          "name": "to",
          "type": "address"
        },
        {
          "indexed": false,
          "internalType": "uint256",
          "name": "value",
          "type": "uint256"
        }
      ],
      "name": "Transfer",
      "type": "event"
    },
    {
      "anonymous": false,
      "inputs": [
        {
          "indexed": false,
          "internalType": "address",
          "name": "account",
          "type": "address"
        }
      ],
      "name": "Unpaused",
      "type": "event"
    },
    {
      "inputs": [],
      "name": "DEFAULT_ADMIN_ROLE",
      "outputs": [
        {
          "internalType": "bytes32",
          "name": "",
          "type": "bytes32"
        }
      ],
      "stateMutability": "view",
      "type": "function",
      "constant": true
    },
    {
      "inputs": [],
      "name": "MINTER_ROLE",
      "outputs": [
        {
          "internalType": "bytes32",
          "name": "",
          "type": "bytes32"
        }
      ],
      "stateMutability": "view",
      "type": "function",
      "constant": true
    },
    {
      "inputs": [],
      "name": "PAUSER_ROLE",
      "outputs": [
        {
          "internalType": "bytes32",
          "name": "",
          "type": "bytes32"
        }
      ],
      "stateMutability": "view",
      "type": "function",
      "constant": true
    },
    {
      "inputs": [
        {
          "internalType": "address",
          "name": "owner",
          "type": "address"
        },
        {
          "internalType": "address",
          "name": "spender",
          "type": "address"
        }
      ],
      "name": "allowance",
      "outputs": [
        {
          "internalType": "uint256",
          "name": "",
          "type": "uint256"
        }
      ],
      "stateMutability": "view",
      "type": "function",
      "constant": true
    },
    {
      "inputs": [
        {
          "internalType": "address",
          "name": "spender",
          "type": "address"
        },
        {
          "internalType": "uint256",
          "name": "amount",
          "type": "uint256"
        }
      ],
      "name": "approve",
      "outputs": [
        {
          "internalType": "bool",
          "name": "",
          "type": "bool"
        }
      ],
      "stateMutability": "nonpayable",
      "type": "function"
    },
    {
      "inputs": [
        {
          "internalType": "address",
          "name": "account",
          "type": "address"
        }
      ],
      "name": "balanceOf",
      "outputs": [
        {
          "internalType": "uint256",
          "name": "",
          "type": "uint256"
        }
      ],
      "stateMutability": "view",
      "type": "function",
      "constant": true
    },
    {
      "inputs": [
        {
          "internalType": "uint256",
          "name": "amount",
          "type": "uint256"
        }
      ],
      "name": "burn",
      "outputs": [],
      "stateMutability": "nonpayable",
      "type": "function"
    },
    {
      "inputs": [
        {
          "internalType": "address",
          "name": "account",
          "type": "address"
        },
        {
          "internalType": "uint256",
          "name": "amount",
          "type": "uint256"
        }
      ],
      "name": "burnFrom",
      "outputs": [],
      "stateMutability": "nonpayable",
      "type": "function"
    },
    {
      "inputs": [],
      "name": "decimals",
      "outputs": [
        {
          "internalType": "uint8",
          "name": "",
          "type": "uint8"
        }
      ],
      "stateMutability": "view",
      "type": "function",
      "constant": true
    },
    {
      "inputs": [
        {
          "internalType": "address",
          "name": "spender",
          "type": "address"
        },
        {
          "internalType": "uint256",
          "name": "subtractedValue",
          "type": "uint256"
        }
      ],
      "name": "decreaseAllowance",
      "outputs": [
        {
          "internalType": "bool",
          "name": "",
          "type": "bool"
        }
      ],
      "stateMutability": "nonpayable",
      "type": "function"
    },
    {
      "inputs": [
        {
          "internalType": "bytes32",
          "name": "role",
          "type": "bytes32"
        }
      ],
      "name": "getRoleAdmin",
      "outputs": [
        {
          "internalType": "bytes32",
          "name": "",
          "type": "bytes32"
        }
      ],
      "stateMutability": "view",
      "type": "function",
      "constant": true
    },
    {
      "inputs": [
        {
          "internalType": "bytes32",
          "name": "role",
          "type": "bytes32"
        },
        {
          "internalType": "uint256",
          "name": "index",
          "type": "uint256"
        }
      ],
      "name": "getRoleMember",
      "outputs": [
        {
          "internalType": "address",
          "name": "",
          "type": "address"
        }
      ],
      "stateMutability": "view",
      "type": "function",
      "constant": true
    },
    {
      "inputs": [
        {
          "internalType": "bytes32",
          "name": "role",
          "type": "bytes32"
        }
      ],
      "name": "getRoleMemberCount",
      "outputs": [
        {
          "internalType": "uint256",
          "name": "",
          "type": "uint256"
        }
      ],
      "stateMutability": "view",
      "type": "function",
      "constant": true
    },
    {
      "inputs": [
        {
          "internalType": "bytes32",
          "name": "role",
          "type": "bytes32"
        },
        {
          "internalType": "address",
          "name": "account",
          "type": "address"
        }
      ],
      "name": "grantRole",
      "outputs": [],
      "stateMutability": "nonpayable",
      "type": "function"
    },
    {
      "inputs": [
        {
          "internalType": "bytes32",
          "name": "role",
          "type": "bytes32"
        },
        {
          "internalType": "address",
          "name": "account",
          "type": "address"
        }
      ],
      "name": "hasRole",
      "outputs": [
        {
          "internalType": "bool",
          "name": "",
          "type": "bool"
        }
      ],
      "stateMutability": "view",
      "type": "function",
      "constant": true
    },
    {
      "inputs": [
        {
          "internalType": "address",
          "name": "spender",
          "type": "address"
        },
        {
          "internalType": "uint256",
          "name": "addedValue",
          "type": "uint256"
        }
      ],
      "name": "increaseAllowance",
      "outputs": [
        {
          "internalType": "bool",
          "name": "",
          "type": "bool"
        }
      ],
      "stateMutability": "nonpayable",
      "type": "function"
    },
    {
      "inputs": [
        {
          "internalType": "string",
          "name": "name",
          "type": "string"
        },
        {
          "internalType": "string",
          "name": "symbol",
          "type": "string"
        }
      ],
      "name": "initialize",
      "outputs": [],
      "stateMutability": "nonpayable",
      "type": "function"
    },
    {
      "inputs": [
        {
          "internalType": "address",
          "name": "to",
          "type": "address"
        },
        {
          "internalType": "uint256",
          "name": "amount",
          "type": "uint256"
        }
      ],
      "name": "mint",
      "outputs": [],
      "stateMutability": "nonpayable",
      "type": "function"
    },
    {
      "inputs": [],
      "name": "name",
      "outputs": [
        {
          "internalType": "string",
          "name": "",
          "type": "string"
        }
      ],
      "stateMutability": "view",
      "type": "function",
      "constant": true
    },
    {
      "inputs": [],
      "name": "pause",
      "outputs": [],
      "stateMutability": "nonpayable",
      "type": "function"
    },
    {
      "inputs": [],
      "name": "paused",
      "outputs": [
        {
          "internalType": "bool",
          "name": "",
          "type": "bool"
        }
      ],
      "stateMutability": "view",
      "type": "function",
      "constant": true
    },
    {
      "inputs": [
        {
          "internalType": "bytes32",
          "name": "role",
          "type": "bytes32"
        },
        {
          "internalType": "address",
          "name": "account",
          "type": "address"
        }
      ],
      "name": "renounceRole",
      "outputs": [],
      "stateMutability": "nonpayable",
      "type": "function"
    },
    {
      "inputs": [
        {
          "internalType": "bytes32",
          "name": "role",
          "type": "bytes32"
        },
        {
          "internalType": "address",
          "name": "account",
          "type": "address"
        }
      ],
      "name": "revokeRole",
      "outputs": [],
      "stateMutability": "nonpayable",
      "type": "function"
    },
    {
      "inputs": [],
      "name": "symbol",
      "outputs": [
        {
          "internalType": "string",
          "name": "",
          "type": "string"
        }
      ],
      "stateMutability": "view",
      "type": "function",
      "constant": true
    },
    {
      "inputs": [],
      "name": "totalSupply",
      "outputs": [
        {
          "internalType": "uint256",
          "name": "",
          "type": "uint256"
        }
      ],
      "stateMutability": "view",
      "type": "function",
      "constant": true
    },
    {
      "inputs": [
        {
          "internalType": "address",
          "name": "recipient",
          "type": "address"
        },
        {
          "internalType": "uint256",
          "name": "amount",
          "type": "uint256"
        }
      ],
      "name": "transfer",
      "outputs": [
        {
          "internalType": "bool",
          "name": "",
          "type": "bool"
        }
      ],
      "stateMutability": "nonpayable",
      "type": "function"
    },
    {
      "inputs": [
        {
          "internalType": "address",
          "name": "sender",
          "type": "address"
        },
        {
          "internalType": "address",
          "name": "recipient",
          "type": "address"
        },
        {
          "internalType": "uint256",
          "name": "amount",
          "type": "uint256"
        }
      ],
      "name": "transferFrom",
      "outputs": [
        {
          "internalType": "bool",
          "name": "",
          "type": "bool"
        }
      ],
      "stateMutability": "nonpayable",
      "type": "function"
    },
    {
      "inputs": [],
      "name": "unpause",
      "outputs": [],
      "stateMutability": "nonpayable",
      "type": "function"
    },
    {
      "inputs": [
        {
          "internalType": "string",
          "name": "name",
          "type": "string"
        },
        {
          "internalType": "string",
          "name": "symbol",
          "type": "string"
        },
        {
          "internalType": "address",
          "name": "stakerAddress",
          "type": "address"
        }
      ],
      "name": "setup",
      "outputs": [],
      "stateMutability": "nonpayable",
      "type": "function"
    }
  ],
  "bytecode": "0x608060405234801561001057600080fd5b50611ec4806100206000396000f3fe608060405234801561001057600080fd5b50600436106101cf5760003560e01c806370a0823111610104578063a457c2d7116100a2578063d547741f11610071578063d547741f146103c3578063dcc43d16146103d6578063dd62ed3e146103e9578063e63ab1e914610422576101cf565b8063a457c2d714610375578063a9059cbb14610388578063ca15c8731461039b578063d5391393146103ae576101cf565b80639010d07c116100de5780639010d07c1461032757806391d148541461035257806395d89b4114610365578063a217fddf1461036d576101cf565b806370a08231146102e357806379cc67901461030c5780638456cb591461031f576101cf565b806336568abe1161017157806340c10f191161014b57806340c10f191461029f57806342966c68146102b25780634cd88b76146102c55780635c975abb146102d8576101cf565b806336568abe1461027157806339509351146102845780633f4ba83a14610297576101cf565b806323b872dd116101ad57806323b872dd14610227578063248a9ca31461023a5780632f2ff15d1461024d578063313ce56714610262576101cf565b806306fdde03146101d4578063095ea7b3146101f257806318160ddd14610215575b600080fd5b6101dc610437565b6040516101e99190611d17565b60405180910390f35b610205610200366004611bb4565b6104c9565b60405190151581526020016101e9565b6099545b6040519081526020016101e9565b610205610235366004611b79565b6104e0565b610219610248366004611bdd565b610596565b61026061025b366004611bf5565b6105ae565b005b604051601281526020016101e9565b61026061027f366004611bf5565b6105d5565b610205610292366004611bb4565b610653565b61026061068a565b6102606102ad366004611bb4565b61071e565b6102606102c0366004611bdd565b6107ab565b6102606102d3366004611cb6565b6107b8565b60fb5460ff16610205565b6102196102f1366004611b2d565b6001600160a01b031660009081526097602052604090205490565b61026061031a366004611bb4565b610838565b6102606108bb565b61033a610335366004611c17565b61094d565b6040516001600160a01b0390911681526020016101e9565b610205610360366004611bf5565b61096c565b6101dc610997565b610219600081565b610205610383366004611bb4565b6109a6565b610205610396366004611bb4565b610a41565b6102196103a9366004611bdd565b610a4e565b610219600080516020611e6f83398151915281565b6102606103d1366004611bf5565b610a65565b6102606103e4366004611c38565b610a87565b6102196103f7366004611b47565b6001600160a01b03918216600090815260986020908152604080832093909416825291909152205490565b610219600080516020611e4f83398151915281565b6060609a805461044690611de7565b80601f016020809104026020016040519081016040528092919081815260200182805461047290611de7565b80156104bf5780601f10610494576101008083540402835291602001916104bf565b820191906000526020600020905b8154815290600101906020018083116104a257829003601f168201915b5050505050905090565b60006104d6338484610bea565b5060015b92915050565b60006104ed848484610d0f565b6001600160a01b0384166000908152609860209081526040808320338452909152902054828110156105775760405162461bcd60e51b815260206004820152602860248201527f45524332303a207472616e7366657220616d6f756e74206578636565647320616044820152676c6c6f77616e636560c01b60648201526084015b60405180910390fd5b61058b85336105868685611dd0565b610bea565b506001949350505050565b6000818152603360205260409020600101545b919050565b6105b88282610ef2565b60008281526065602052604090206105d09082610f72565b505050565b6001600160a01b03811633146106455760405162461bcd60e51b815260206004820152602f60248201527f416363657373436f6e74726f6c3a2063616e206f6e6c792072656e6f756e636560448201526e103937b632b9903337b91039b2b63360891b606482015260840161056e565b61064f8282610f87565b5050565b3360008181526098602090815260408083206001600160a01b038716845290915281205490916104d6918590610586908690611db8565b6106a2600080516020611e4f83398151915233610360565b6107145760405162461bcd60e51b815260206004820152603960248201527f45524332305072657365744d696e7465725061757365723a206d75737420686160448201527f76652070617573657220726f6c6520746f20756e706175736500000000000000606482015260840161056e565b61071c610fee565b565b610736600080516020611e6f83398151915233610360565b6107a15760405162461bcd60e51b815260206004820152603660248201527f45524332305072657365744d696e7465725061757365723a206d7573742068616044820152751d99481b5a5b9d195c881c9bdb19481d1bc81b5a5b9d60521b606482015260840161056e565b61064f8282611081565b6107b5338261116c565b50565b600054610100900460ff16806107d1575060005460ff16155b6107ed5760405162461bcd60e51b815260040161056e90611d6a565b600054610100900460ff16158015610818576000805460ff1961ff0019909116610100171660011790555b61082283836112c7565b80156105d0576000805461ff0019169055505050565b600061084483336103f7565b9050818110156108a25760405162461bcd60e51b8152602060048201526024808201527f45524332303a206275726e20616d6f756e74206578636565647320616c6c6f77604482015263616e636560e01b606482015260840161056e565b6108b183336105868585611dd0565b6105d0838361116c565b6108d3600080516020611e4f83398151915233610360565b6109455760405162461bcd60e51b815260206004820152603760248201527f45524332305072657365744d696e7465725061757365723a206d75737420686160448201527f76652070617573657220726f6c6520746f207061757365000000000000000000606482015260840161056e565b61071c61136b565b600082815260656020526040812061096590836113e6565b9392505050565b60009182526033602090815260408084206001600160a01b0393909316845291905290205460ff1690565b6060609b805461044690611de7565b3360009081526098602090815260408083206001600160a01b038616845290915281205482811015610a285760405162461bcd60e51b815260206004820152602560248201527f45524332303a2064656372656173656420616c6c6f77616e63652062656c6f77604482015264207a65726f60d81b606482015260840161056e565b610a3733856105868685611dd0565b5060019392505050565b60006104d6338484610d0f565b60008181526065602052604081206104da906113f2565b610a6f82826113fc565b60008281526065602052604090206105d0908261146d565b600054610100900460ff1680610aa0575060005460ff16155b610abc5760405162461bcd60e51b815260040161056e90611d6a565b600054610100900460ff16158015610ae7576000805460ff1961ff0019909116610100171660011790555b610b5a86868080601f01602080910402602001604051908101604052809392919081815260200183838082843760009201919091525050604080516020601f8a0181900481028201810190925288815292508891508790819084018382808284376000920191909152506107b892505050565b610b65600083611482565b610b7d600080516020611e6f83398151915283611482565b610b95600080516020611e4f83398151915283611482565b610ba06000336105d5565b610bb8600080516020611e6f833981519152336105d5565b610bd0600080516020611e4f833981519152336105d5565b8015610be2576000805461ff00191690555b505050505050565b6001600160a01b038316610c4c5760405162461bcd60e51b8152602060048201526024808201527f45524332303a20617070726f76652066726f6d20746865207a65726f206164646044820152637265737360e01b606482015260840161056e565b6001600160a01b038216610cad5760405162461bcd60e51b815260206004820152602260248201527f45524332303a20617070726f766520746f20746865207a65726f206164647265604482015261737360f01b606482015260840161056e565b6001600160a01b0383811660008181526098602090815260408083209487168084529482529182902085905590518481527f8c5be1e5ebec7d5bd14f71427d1e84f3dd0314c0f7b2291e5b200ac8c7c3b92591015b60405180910390a3505050565b6001600160a01b038316610d735760405162461bcd60e51b815260206004820152602560248201527f45524332303a207472616e736665722066726f6d20746865207a65726f206164604482015264647265737360d81b606482015260840161056e565b6001600160a01b038216610dd55760405162461bcd60e51b815260206004820152602360248201527f45524332303a207472616e7366657220746f20746865207a65726f206164647260448201526265737360e81b606482015260840161056e565b610de083838361148c565b6001600160a01b03831660009081526097602052604090205481811015610e585760405162461bcd60e51b815260206004820152602660248201527f45524332303a207472616e7366657220616d6f756e7420657863656564732062604482015265616c616e636560d01b606482015260840161056e565b610e628282611dd0565b6001600160a01b038086166000908152609760205260408082209390935590851681529081208054849290610e98908490611db8565b92505081905550826001600160a01b0316846001600160a01b03167fddf252ad1be2c89b69c2b068fc378daa952ba7f163c4a11628f55a4df523b3ef84604051610ee491815260200190565b60405180910390a350505050565b610f04610efe83610596565b33610360565b610f685760405162461bcd60e51b815260206004820152602f60248201527f416363657373436f6e74726f6c3a2073656e646572206d75737420626520616e60448201526e0818591b5a5b881d1bc819dc985b9d608a1b606482015260840161056e565b61064f8282611497565b6000610965836001600160a01b03841661151d565b610f91828261096c565b1561064f5760008281526033602090815260408083206001600160a01b0385168085529252808320805460ff1916905551339285917ff6391f5c32d9c69d2a47ea670b442974b53935d1edc7fd64eb21e047a839171b9190a45050565b60fb5460ff166110375760405162461bcd60e51b815260206004820152601460248201527314185d5cd8589b194e881b9bdd081c185d5cd95960621b604482015260640161056e565b60fb805460ff191690557f5db9ee0a495bf2e6ff9c91a7834c1ba4fdd244a5e8aa4e537bd38aeae4b073aa335b6040516001600160a01b03909116815260200160405180910390a1565b6001600160a01b0382166110d75760405162461bcd60e51b815260206004820152601f60248201527f45524332303a206d696e7420746f20746865207a65726f206164647265737300604482015260640161056e565b6110e36000838361148c565b80609960008282546110f59190611db8565b90915550506001600160a01b03821660009081526097602052604081208054839290611122908490611db8565b90915550506040518181526001600160a01b038316906000907fddf252ad1be2c89b69c2b068fc378daa952ba7f163c4a11628f55a4df523b3ef9060200160405180910390a35050565b6001600160a01b0382166111cc5760405162461bcd60e51b815260206004820152602160248201527f45524332303a206275726e2066726f6d20746865207a65726f206164647265736044820152607360f81b606482015260840161056e565b6111d88260008361148c565b6001600160a01b0382166000908152609760205260409020548181101561124c5760405162461bcd60e51b815260206004820152602260248201527f45524332303a206275726e20616d6f756e7420657863656564732062616c616e604482015261636560f01b606482015260840161056e565b6112568282611dd0565b6001600160a01b03841660009081526097602052604081209190915560998054849290611284908490611dd0565b90915550506040518281526000906001600160a01b038516907fddf252ad1be2c89b69c2b068fc378daa952ba7f163c4a11628f55a4df523b3ef90602001610d02565b600054610100900460ff16806112e0575060005460ff16155b6112fc5760405162461bcd60e51b815260040161056e90611d6a565b600054610100900460ff16158015611327576000805460ff1961ff0019909116610100171660011790555b61132f61156c565b61133761156c565b61133f61156c565b61134983836115e0565b61135161156c565b61135961167e565b61136161156c565b61082283836116fc565b60fb5460ff16156113b15760405162461bcd60e51b815260206004820152601060248201526f14185d5cd8589b194e881c185d5cd95960821b604482015260640161056e565b60fb805460ff191660011790557f62e78cea01bee320cd4e420270b5ea74000d11b0c9f74754ebdbfc544b05a2586110643390565b60006109658383611798565b60006104da825490565b611408610efe83610596565b6106455760405162461bcd60e51b815260206004820152603060248201527f416363657373436f6e74726f6c3a2073656e646572206d75737420626520616e60448201526f2061646d696e20746f207265766f6b6560801b606482015260840161056e565b6000610965836001600160a01b03841661182c565b6105b88282610f68565b6105d0838383611949565b6114a1828261096c565b61064f5760008281526033602090815260408083206001600160a01b03851684529091529020805460ff191660011790556114d93390565b6001600160a01b0316816001600160a01b0316837f2f8788117e7eff1d82e926ec794901d17c78024a50270940304540a733656f0d60405160405180910390a45050565b6000818152600183016020526040812054611564575081546001818101845560008481526020808220909301849055845484825282860190935260409020919091556104da565b5060006104da565b600054610100900460ff1680611585575060005460ff16155b6115a15760405162461bcd60e51b815260040161056e90611d6a565b600054610100900460ff161580156115cc576000805460ff1961ff0019909116610100171660011790555b80156107b5576000805461ff001916905550565b600054610100900460ff16806115f9575060005460ff16155b6116155760405162461bcd60e51b815260040161056e90611d6a565b600054610100900460ff16158015611640576000805460ff1961ff0019909116610100171660011790555b825161165390609a9060208601906119af565b50815161166790609b9060208501906119af565b5080156105d0576000805461ff0019169055505050565b600054610100900460ff1680611697575060005460ff16155b6116b35760405162461bcd60e51b815260040161056e90611d6a565b600054610100900460ff161580156116de576000805460ff1961ff0019909116610100171660011790555b60fb805460ff1916905580156107b5576000805461ff001916905550565b600054610100900460ff1680611715575060005460ff16155b6117315760405162461bcd60e51b815260040161056e90611d6a565b600054610100900460ff1615801561175c576000805460ff1961ff0019909116610100171660011790555b6117686000335b611482565b611780600080516020611e6f83398151915233611763565b610822600080516020611e4f83398151915233611763565b815460009082106117f65760405162461bcd60e51b815260206004820152602260248201527f456e756d657261626c655365743a20696e646578206f7574206f6620626f756e604482015261647360f01b606482015260840161056e565b82600001828154811061181957634e487b7160e01b600052603260045260246000fd5b9060005260206000200154905092915050565b6000818152600183016020526040812054801561193f576000611850600183611dd0565b855490915060009061186490600190611dd0565b9050600086600001828154811061188b57634e487b7160e01b600052603260045260246000fd5b90600052602060002001549050808760000184815481106118bc57634e487b7160e01b600052603260045260246000fd5b6000918252602090912001556118d3836001611db8565b6000828152600189016020526040902055865487908061190357634e487b7160e01b600052603160045260246000fd5b600190038181906000526020600020016000905590558660010160008781526020019081526020016000206000905560019450505050506104da565b60009150506104da565b60fb5460ff16156105d05760405162461bcd60e51b815260206004820152602a60248201527f45524332305061757361626c653a20746f6b656e207472616e736665722077686044820152691a5b19481c185d5cd95960b21b606482015260840161056e565b8280546119bb90611de7565b90600052602060002090601f0160209004810192826119dd5760008555611a23565b82601f106119f657805160ff1916838001178555611a23565b82800160010185558215611a23579182015b82811115611a23578251825591602001919060010190611a08565b50611a2f929150611a33565b5090565b5b80821115611a2f5760008155600101611a34565b80356001600160a01b03811681146105a957600080fd5b60008083601f840112611a70578081fd5b50813567ffffffffffffffff811115611a87578182fd5b602083019150836020828501011115611a9f57600080fd5b9250929050565b600082601f830112611ab6578081fd5b813567ffffffffffffffff80821115611ad157611ad1611e38565b604051601f8301601f19908116603f01168101908282118183101715611af957611af9611e38565b81604052838152866020858801011115611b11578485fd5b8360208701602083013792830160200193909352509392505050565b600060208284031215611b3e578081fd5b61096582611a48565b60008060408385031215611b59578081fd5b611b6283611a48565b9150611b7060208401611a48565b90509250929050565b600080600060608486031215611b8d578081fd5b611b9684611a48565b9250611ba460208501611a48565b9150604084013590509250925092565b60008060408385031215611bc6578182fd5b611bcf83611a48565b946020939093013593505050565b600060208284031215611bee578081fd5b5035919050565b60008060408385031215611c07578182fd5b82359150611b7060208401611a48565b60008060408385031215611c29578182fd5b50508035926020909101359150565b600080600080600060608688031215611c4f578081fd5b853567ffffffffffffffff80821115611c66578283fd5b611c7289838a01611a5f565b90975095506020880135915080821115611c8a578283fd5b50611c9788828901611a5f565b9094509250611caa905060408701611a48565b90509295509295909350565b60008060408385031215611cc8578182fd5b823567ffffffffffffffff80821115611cdf578384fd5b611ceb86838701611aa6565b93506020850135915080821115611d00578283fd5b50611d0d85828601611aa6565b9150509250929050565b6000602080835283518082850152825b81811015611d4357858101830151858201604001528201611d27565b81811115611d545783604083870101525b50601f01601f1916929092016040019392505050565b6020808252602e908201527f496e697469616c697a61626c653a20636f6e747261637420697320616c72656160408201526d191e481a5b9a5d1a585b1a5e995960921b606082015260800190565b60008219821115611dcb57611dcb611e22565b500190565b600082821015611de257611de2611e22565b500390565b600281046001821680611dfb57607f821691505b60208210811415611e1c57634e487b7160e01b600052602260045260246000fd5b50919050565b634e487b7160e01b600052601160045260246000fd5b634e487b7160e01b600052604160045260246000fdfe65d7a28e3265b37a6474929f336521b332c1681b933f6cb9f3376673440d862a9f2df0fed2c77648de5860a4cc508cd0818c85b8b8a1ab4ceeef8d981c8956a6a264697066735822122000ae0ce18c7db649e31634b514e71a9cc4c441b26df3ddfe0de5e02295d9de9364736f6c63430008020033",
  "immutableReferences": {},
  "source": "// SPDX-License-Identifier: MIT\n\npragma solidity 0.8.2;\n\nimport \"@openzeppelin/contracts-upgradeable/token/ERC20/presets/ERC20PresetMinterPauserUpgradeable.sol\";\n\ncontract FloatToken is ERC20PresetMinterPauserUpgradeable {\n    function setup(\n        string calldata name,\n        string calldata symbol,\n        address stakerAddress\n    ) public initializer {\n        initialize(name, symbol);\n\n        _setupRole(DEFAULT_ADMIN_ROLE, stakerAddress);\n        _setupRole(MINTER_ROLE, stakerAddress);\n        _setupRole(PAUSER_ROLE, stakerAddress);\n\n        renounceRole(DEFAULT_ADMIN_ROLE, msg.sender);\n        renounceRole(MINTER_ROLE, msg.sender);\n        renounceRole(PAUSER_ROLE, msg.sender);\n    }\n}\n",
  "sourcePath": "/Users/johanthan/Code/avolabs/longshort/contracts/contracts/FloatToken.sol",
  "compiler": {
    "name": "solc",
    "version": "0.8.2+commit.661d1103.Emscripten.clang"
  },
  "schemaVersion": "3.3.4",
  "updatedAt": "2021-03-11T12:33:46.861Z",
  "networkType": "ethereum",
  "devdoc": {
    "kind": "dev",
    "methods": {
      "allowance(address,address)": {
        "details": "See {IERC20-allowance}."
      },
      "approve(address,uint256)": {
        "details": "See {IERC20-approve}. Requirements: - `spender` cannot be the zero address."
      },
      "balanceOf(address)": {
        "details": "See {IERC20-balanceOf}."
      },
      "burn(uint256)": {
        "details": "Destroys `amount` tokens from the caller. See {ERC20-_burn}."
      },
      "burnFrom(address,uint256)": {
        "details": "Destroys `amount` tokens from `account`, deducting from the caller's allowance. See {ERC20-_burn} and {ERC20-allowance}. Requirements: - the caller must have allowance for ``accounts``'s tokens of at least `amount`."
      },
      "decimals()": {
        "details": "Returns the number of decimals used to get its user representation. For example, if `decimals` equals `2`, a balance of `505` tokens should be displayed to a user as `5,05` (`505 / 10 ** 2`). Tokens usually opt for a value of 18, imitating the relationship between Ether and Wei. This is the value {ERC20} uses, unless this function is overloaded; NOTE: This information is only used for _display_ purposes: it in no way affects any of the arithmetic of the contract, including {IERC20-balanceOf} and {IERC20-transfer}."
      },
      "decreaseAllowance(address,uint256)": {
        "details": "Atomically decreases the allowance granted to `spender` by the caller. This is an alternative to {approve} that can be used as a mitigation for problems described in {IERC20-approve}. Emits an {Approval} event indicating the updated allowance. Requirements: - `spender` cannot be the zero address. - `spender` must have allowance for the caller of at least `subtractedValue`."
      },
      "getRoleAdmin(bytes32)": {
        "details": "Returns the admin role that controls `role`. See {grantRole} and {revokeRole}. To change a role's admin, use {_setRoleAdmin}."
      },
      "getRoleMember(bytes32,uint256)": {
        "details": "Returns one of the accounts that have `role`. `index` must be a value between 0 and {getRoleMemberCount}, non-inclusive. Role bearers are not sorted in any particular way, and their ordering may change at any point. WARNING: When using {getRoleMember} and {getRoleMemberCount}, make sure you perform all queries on the same block. See the following https://forum.openzeppelin.com/t/iterating-over-elements-on-enumerableset-in-openzeppelin-contracts/2296[forum post] for more information."
      },
      "getRoleMemberCount(bytes32)": {
        "details": "Returns the number of accounts that have `role`. Can be used together with {getRoleMember} to enumerate all bearers of a role."
      },
      "grantRole(bytes32,address)": {
        "details": "Overload {grantRole} to track enumerable memberships"
      },
      "hasRole(bytes32,address)": {
        "details": "Returns `true` if `account` has been granted `role`."
      },
      "increaseAllowance(address,uint256)": {
        "details": "Atomically increases the allowance granted to `spender` by the caller. This is an alternative to {approve} that can be used as a mitigation for problems described in {IERC20-approve}. Emits an {Approval} event indicating the updated allowance. Requirements: - `spender` cannot be the zero address."
      },
      "mint(address,uint256)": {
        "details": "Creates `amount` new tokens for `to`. See {ERC20-_mint}. Requirements: - the caller must have the `MINTER_ROLE`."
      },
      "name()": {
        "details": "Returns the name of the token."
      },
      "pause()": {
        "details": "Pauses all token transfers. See {ERC20Pausable} and {Pausable-_pause}. Requirements: - the caller must have the `PAUSER_ROLE`."
      },
      "paused()": {
        "details": "Returns true if the contract is paused, and false otherwise."
      },
      "renounceRole(bytes32,address)": {
        "details": "Revokes `role` from the calling account. Roles are often managed via {grantRole} and {revokeRole}: this function's purpose is to provide a mechanism for accounts to lose their privileges if they are compromised (such as when a trusted device is misplaced). If the calling account had been granted `role`, emits a {RoleRevoked} event. Requirements: - the caller must be `account`."
      },
      "revokeRole(bytes32,address)": {
        "details": "Overload {revokeRole} to track enumerable memberships"
      },
      "symbol()": {
        "details": "Returns the symbol of the token, usually a shorter version of the name."
      },
      "totalSupply()": {
        "details": "See {IERC20-totalSupply}."
      },
      "transfer(address,uint256)": {
        "details": "See {IERC20-transfer}. Requirements: - `recipient` cannot be the zero address. - the caller must have a balance of at least `amount`."
      },
      "transferFrom(address,address,uint256)": {
        "details": "See {IERC20-transferFrom}. Emits an {Approval} event indicating the updated allowance. This is not required by the EIP. See the note at the beginning of {ERC20}. Requirements: - `sender` and `recipient` cannot be the zero address. - `sender` must have a balance of at least `amount`. - the caller must have allowance for ``sender``'s tokens of at least `amount`."
      },
      "unpause()": {
        "details": "Unpauses all token transfers. See {ERC20Pausable} and {Pausable-_unpause}. Requirements: - the caller must have the `PAUSER_ROLE`."
      }
    },
    "version": 1
  },
  "userdoc": {
    "kind": "user",
    "methods": {},
    "version": 1
  }
}