{
  "contractName": "LongShort",
  "abi": [
    {
      "anonymous": false,
      "inputs": [
        {
          "indexed": false,
          "internalType": "address",
          "name": "user",
          "type": "address"
        },
        {
          "indexed": false,
          "internalType": "uint32",
          "name": "marketIndex",
          "type": "uint32"
        },
        {
          "indexed": false,
          "internalType": "bool",
          "name": "isLong",
          "type": "bool"
        },
        {
          "indexed": false,
          "internalType": "uint256",
          "name": "amount",
          "type": "uint256"
        }
      ],
      "name": "ExecuteNextPriceMintSettlementUser",
      "type": "event"
    },
    {
      "anonymous": false,
      "inputs": [
        {
          "indexed": false,
          "internalType": "address",
          "name": "user",
          "type": "address"
        },
        {
          "indexed": false,
          "internalType": "uint32",
          "name": "marketIndex",
          "type": "uint32"
        },
        {
          "indexed": false,
          "internalType": "bool",
          "name": "isLong",
          "type": "bool"
        },
        {
          "indexed": false,
          "internalType": "uint256",
          "name": "amount",
          "type": "uint256"
        }
      ],
      "name": "ExecuteNextPriceRedeemSettlementUser",
      "type": "event"
    },
    {
      "anonymous": false,
      "inputs": [
        {
          "indexed": false,
          "internalType": "address",
          "name": "user",
          "type": "address"
        },
        {
          "indexed": false,
          "internalType": "uint32",
          "name": "marketIndex",
          "type": "uint32"
        }
      ],
      "name": "ExecuteNextPriceSettlementsUser",
      "type": "event"
    },
    {
      "anonymous": false,
      "inputs": [
        {
          "indexed": false,
          "internalType": "address",
          "name": "admin",
          "type": "address"
        },
        {
          "indexed": false,
          "internalType": "address",
          "name": "treasury",
          "type": "address"
        },
        {
          "indexed": false,
          "internalType": "address",
          "name": "tokenFactory",
          "type": "address"
        },
        {
          "indexed": false,
          "internalType": "address",
          "name": "staker",
          "type": "address"
        }
      ],
      "name": "LongShortV1",
      "type": "event"
    },
    {
      "anonymous": false,
      "inputs": [
        {
          "indexed": false,
          "internalType": "uint32",
          "name": "marketIndex",
          "type": "uint32"
        },
        {
          "indexed": false,
          "internalType": "uint256",
          "name": "initialSeed",
          "type": "uint256"
        }
      ],
      "name": "NewMarketLaunchedAndSeeded",
      "type": "event"
    },
    {
      "anonymous": false,
      "inputs": [
        {
          "indexed": false,
          "internalType": "uint32",
          "name": "marketIndex",
          "type": "uint32"
        },
        {
          "indexed": false,
          "internalType": "bool",
          "name": "isLong",
          "type": "bool"
        },
        {
          "indexed": false,
          "internalType": "uint256",
          "name": "depositAdded",
          "type": "uint256"
        },
        {
          "indexed": false,
          "internalType": "address",
          "name": "user",
          "type": "address"
        },
        {
          "indexed": false,
          "internalType": "uint256",
          "name": "oracleUpdateIndex",
          "type": "uint256"
        }
      ],
      "name": "NextPriceDeposit",
      "type": "event"
    },
    {
      "anonymous": false,
      "inputs": [
        {
          "indexed": false,
          "internalType": "uint32",
          "name": "marketIndex",
          "type": "uint32"
        },
        {
          "indexed": false,
          "internalType": "bool",
          "name": "isLong",
          "type": "bool"
        },
        {
          "indexed": false,
          "internalType": "uint256",
          "name": "synthRedeemed",
          "type": "uint256"
        },
        {
          "indexed": false,
          "internalType": "address",
          "name": "user",
          "type": "address"
        },
        {
          "indexed": false,
          "internalType": "uint256",
          "name": "oracleUpdateIndex",
          "type": "uint256"
        }
      ],
      "name": "NextPriceRedeem",
      "type": "event"
    },
    {
      "anonymous": false,
      "inputs": [
        {
          "indexed": false,
          "internalType": "uint32",
          "name": "marketIndex",
          "type": "uint32"
        },
        {
          "indexed": false,
          "internalType": "address",
          "name": "oldOracleAddress",
          "type": "address"
        },
        {
          "indexed": false,
          "internalType": "address",
          "name": "newOracleAddress",
          "type": "address"
        }
      ],
      "name": "OracleUpdated",
      "type": "event"
    },
    {
      "anonymous": false,
      "inputs": [
        {
          "indexed": false,
          "internalType": "uint32",
          "name": "marketIndex",
          "type": "uint32"
        },
        {
          "indexed": false,
          "internalType": "uint256",
          "name": "oldPrice",
          "type": "uint256"
        },
        {
          "indexed": false,
          "internalType": "uint256",
          "name": "newPrice",
          "type": "uint256"
        },
        {
          "indexed": false,
          "internalType": "address",
          "name": "user",
          "type": "address"
        }
      ],
      "name": "PriceUpdate",
      "type": "event"
    },
    {
      "anonymous": false,
      "inputs": [
        {
          "indexed": false,
          "internalType": "uint32",
          "name": "marketIndex",
          "type": "uint32"
        },
        {
          "indexed": false,
          "internalType": "address",
          "name": "longTokenAddress",
          "type": "address"
        },
        {
          "indexed": false,
          "internalType": "address",
          "name": "shortTokenAddress",
          "type": "address"
        },
        {
          "indexed": false,
          "internalType": "address",
          "name": "paymentToken",
          "type": "address"
        },
        {
          "indexed": false,
          "internalType": "uint256",
          "name": "initialAssetPrice",
          "type": "uint256"
        },
        {
          "indexed": false,
          "internalType": "string",
          "name": "name",
          "type": "string"
        },
        {
          "indexed": false,
          "internalType": "string",
          "name": "symbol",
          "type": "string"
        },
        {
          "indexed": false,
          "internalType": "address",
          "name": "oracleAddress",
          "type": "address"
        },
        {
          "indexed": false,
          "internalType": "address",
          "name": "yieldManagerAddress",
          "type": "address"
        }
      ],
      "name": "SyntheticMarketCreated",
      "type": "event"
    },
    {
      "anonymous": false,
      "inputs": [
        {
          "indexed": false,
          "internalType": "uint32",
          "name": "marketIndex",
          "type": "uint32"
        },
        {
          "indexed": false,
          "internalType": "uint256",
          "name": "updateIndex",
          "type": "uint256"
        },
        {
          "indexed": false,
          "internalType": "int256",
          "name": "underlyingAssetPrice",
          "type": "int256"
        },
        {
          "indexed": false,
          "internalType": "uint256",
          "name": "longValue",
          "type": "uint256"
        },
        {
          "indexed": false,
          "internalType": "uint256",
          "name": "shortValue",
          "type": "uint256"
        },
        {
          "indexed": false,
          "internalType": "uint256",
          "name": "longPrice",
          "type": "uint256"
        },
        {
          "indexed": false,
          "internalType": "uint256",
          "name": "shortPrice",
          "type": "uint256"
        }
      ],
      "name": "SystemStateUpdated",
      "type": "event"
    },
    {
      "inputs": [],
      "name": "DEAD_ADDRESS",
      "outputs": [
        {
          "internalType": "address",
          "name": "",
          "type": "address"
        }
      ],
      "stateMutability": "view",
      "type": "function",
      "constant": true
    },
    {
      "inputs": [],
      "name": "admin",
      "outputs": [
        {
          "internalType": "address",
          "name": "",
          "type": "address"
        }
      ],
      "stateMutability": "view",
      "type": "function",
      "constant": true
    },
    {
      "inputs": [
        {
          "internalType": "uint32",
          "name": "",
          "type": "uint32"
        }
      ],
      "name": "assetPrice",
      "outputs": [
        {
          "internalType": "uint256",
          "name": "",
          "type": "uint256"
        }
      ],
      "stateMutability": "view",
      "type": "function",
      "constant": true
    },
    {
      "inputs": [
        {
          "internalType": "uint32",
          "name": "",
          "type": "uint32"
        },
        {
          "internalType": "bool",
          "name": "",
          "type": "bool"
        }
      ],
      "name": "batchedAmountOfSynthTokensToRedeem",
      "outputs": [
        {
          "internalType": "uint256",
          "name": "",
          "type": "uint256"
        }
      ],
      "stateMutability": "view",
      "type": "function",
      "constant": true
    },
    {
      "inputs": [
        {
          "internalType": "uint32",
          "name": "",
          "type": "uint32"
        },
        {
          "internalType": "bool",
          "name": "",
          "type": "bool"
        }
      ],
      "name": "batchedAmountOfTokensToDeposit",
      "outputs": [
        {
          "internalType": "uint256",
          "name": "",
          "type": "uint256"
        }
      ],
      "stateMutability": "view",
      "type": "function",
      "constant": true
    },
    {
      "inputs": [],
      "name": "latestMarket",
      "outputs": [
        {
          "internalType": "uint32",
          "name": "",
          "type": "uint32"
        }
      ],
      "stateMutability": "view",
      "type": "function",
      "constant": true
    },
    {
      "inputs": [
        {
          "internalType": "uint32",
          "name": "",
          "type": "uint32"
        }
      ],
      "name": "marketExists",
      "outputs": [
        {
          "internalType": "bool",
          "name": "",
          "type": "bool"
        }
      ],
      "stateMutability": "view",
      "type": "function",
      "constant": true
    },
    {
      "inputs": [
        {
          "internalType": "uint32",
          "name": "",
          "type": "uint32"
        }
      ],
      "name": "marketUpdateIndex",
      "outputs": [
        {
          "internalType": "uint256",
          "name": "",
          "type": "uint256"
        }
      ],
      "stateMutability": "view",
      "type": "function",
      "constant": true
    },
    {
      "inputs": [
        {
          "internalType": "uint32",
          "name": "",
          "type": "uint32"
        }
      ],
      "name": "oracleManagers",
      "outputs": [
        {
          "internalType": "contract IOracleManager",
          "name": "",
          "type": "address"
        }
      ],
      "stateMutability": "view",
      "type": "function",
      "constant": true
    },
    {
      "inputs": [
        {
          "internalType": "uint32",
          "name": "",
          "type": "uint32"
        }
      ],
      "name": "paymentTokens",
      "outputs": [
        {
          "internalType": "contract IERC20",
          "name": "",
          "type": "address"
        }
      ],
      "stateMutability": "view",
      "type": "function",
      "constant": true
    },
    {
      "inputs": [],
      "name": "staker",
      "outputs": [
        {
          "internalType": "contract IStaker",
          "name": "",
          "type": "address"
        }
      ],
      "stateMutability": "view",
      "type": "function",
      "constant": true
    },
    {
      "inputs": [
        {
          "internalType": "uint32",
          "name": "",
          "type": "uint32"
        },
        {
          "internalType": "bool",
          "name": "",
          "type": "bool"
        }
      ],
      "name": "syntheticTokenPoolValue",
      "outputs": [
        {
          "internalType": "uint256",
          "name": "",
          "type": "uint256"
        }
      ],
      "stateMutability": "view",
      "type": "function",
      "constant": true
    },
    {
      "inputs": [
        {
          "internalType": "uint32",
          "name": "",
          "type": "uint32"
        },
        {
          "internalType": "bool",
          "name": "",
          "type": "bool"
        },
        {
          "internalType": "uint256",
          "name": "",
          "type": "uint256"
        }
      ],
      "name": "syntheticTokenPriceSnapshot",
      "outputs": [
        {
          "internalType": "uint256",
          "name": "",
          "type": "uint256"
        }
      ],
      "stateMutability": "view",
      "type": "function",
      "constant": true
    },
    {
      "inputs": [
        {
          "internalType": "uint32",
          "name": "",
          "type": "uint32"
        },
        {
          "internalType": "bool",
          "name": "",
          "type": "bool"
        }
      ],
      "name": "syntheticTokens",
      "outputs": [
        {
          "internalType": "contract ISyntheticToken",
          "name": "",
          "type": "address"
        }
      ],
      "stateMutability": "view",
      "type": "function",
      "constant": true
    },
    {
      "inputs": [],
      "name": "tokenFactory",
      "outputs": [
        {
          "internalType": "contract ITokenFactory",
          "name": "",
          "type": "address"
        }
      ],
      "stateMutability": "view",
      "type": "function",
      "constant": true
    },
    {
      "inputs": [],
      "name": "treasury",
      "outputs": [
        {
          "internalType": "address",
          "name": "",
          "type": "address"
        }
      ],
      "stateMutability": "view",
      "type": "function",
      "constant": true
    },
    {
      "inputs": [
        {
          "internalType": "uint32",
          "name": "",
          "type": "uint32"
        },
        {
          "internalType": "address",
          "name": "",
          "type": "address"
        }
      ],
      "name": "userCurrentNextPriceUpdateIndex",
      "outputs": [
        {
          "internalType": "uint256",
          "name": "",
          "type": "uint256"
        }
      ],
      "stateMutability": "view",
      "type": "function",
      "constant": true
    },
    {
      "inputs": [
        {
          "internalType": "uint32",
          "name": "",
          "type": "uint32"
        },
        {
          "internalType": "bool",
          "name": "",
          "type": "bool"
        },
        {
          "internalType": "address",
          "name": "",
          "type": "address"
        }
      ],
      "name": "userNextPriceDepositAmount",
      "outputs": [
        {
          "internalType": "uint256",
          "name": "",
          "type": "uint256"
        }
      ],
      "stateMutability": "view",
      "type": "function",
      "constant": true
    },
    {
      "inputs": [
        {
          "internalType": "uint32",
          "name": "",
          "type": "uint32"
        },
        {
          "internalType": "bool",
          "name": "",
          "type": "bool"
        },
        {
          "internalType": "address",
          "name": "",
          "type": "address"
        }
      ],
      "name": "userNextPriceRedemptionAmount",
      "outputs": [
        {
          "internalType": "uint256",
          "name": "",
          "type": "uint256"
        }
      ],
      "stateMutability": "view",
      "type": "function",
      "constant": true
    },
    {
      "inputs": [
        {
          "internalType": "uint32",
          "name": "",
          "type": "uint32"
        }
      ],
      "name": "yieldManagers",
      "outputs": [
        {
          "internalType": "contract IYieldManager",
          "name": "",
          "type": "address"
        }
      ],
      "stateMutability": "view",
      "type": "function",
      "constant": true
    },
    {
      "inputs": [
        {
          "internalType": "address",
          "name": "_admin",
          "type": "address"
        },
        {
          "internalType": "address",
          "name": "_treasury",
          "type": "address"
        },
        {
          "internalType": "contract ITokenFactory",
          "name": "_tokenFactory",
          "type": "address"
        },
        {
          "internalType": "contract IStaker",
          "name": "_staker",
          "type": "address"
        }
      ],
      "name": "initialize",
      "outputs": [],
      "stateMutability": "nonpayable",
      "type": "function"
    },
    {
      "inputs": [
        {
          "internalType": "address",
          "name": "_admin",
          "type": "address"
        }
      ],
      "name": "changeAdmin",
      "outputs": [],
      "stateMutability": "nonpayable",
      "type": "function"
    },
    {
      "inputs": [
        {
          "internalType": "address",
          "name": "_treasury",
          "type": "address"
        }
      ],
      "name": "changeTreasury",
      "outputs": [],
      "stateMutability": "nonpayable",
      "type": "function"
    },
    {
      "inputs": [
        {
          "internalType": "uint32",
          "name": "marketIndex",
          "type": "uint32"
        },
        {
          "internalType": "address",
          "name": "_newOracleManager",
          "type": "address"
        }
      ],
      "name": "updateMarketOracle",
      "outputs": [],
      "stateMutability": "nonpayable",
      "type": "function"
    },
    {
      "inputs": [
        {
          "internalType": "string",
          "name": "syntheticName",
          "type": "string"
        },
        {
          "internalType": "string",
          "name": "syntheticSymbol",
          "type": "string"
        },
        {
          "internalType": "address",
          "name": "_paymentToken",
          "type": "address"
        },
        {
          "internalType": "address",
          "name": "_oracleManager",
          "type": "address"
        },
        {
          "internalType": "address",
          "name": "_yieldManager",
          "type": "address"
        }
      ],
      "name": "newSyntheticMarket",
      "outputs": [],
      "stateMutability": "nonpayable",
      "type": "function"
    },
    {
      "inputs": [
        {
          "internalType": "uint32",
          "name": "marketIndex",
          "type": "uint32"
        },
        {
          "internalType": "uint256",
          "name": "kInitialMultiplier",
          "type": "uint256"
        },
        {
          "internalType": "uint256",
          "name": "kPeriod",
          "type": "uint256"
        },
        {
          "internalType": "uint256",
          "name": "unstakeFeeBasisPoints",
          "type": "uint256"
        },
        {
          "internalType": "uint256",
          "name": "initialMarketSeed",
          "type": "uint256"
        },
        {
          "internalType": "uint256",
          "name": "balanceIncentiveCurveExponent",
          "type": "uint256"
        },
        {
          "internalType": "int256",
          "name": "balanceIncentiveCurveEquilibriumOffset",
          "type": "int256"
        }
      ],
      "name": "initializeMarket",
      "outputs": [],
      "stateMutability": "nonpayable",
      "type": "function"
    },
    {
      "inputs": [
        {
          "internalType": "address",
          "name": "user",
          "type": "address"
        },
        {
          "internalType": "uint32",
          "name": "marketIndex",
          "type": "uint32"
        },
        {
          "internalType": "bool",
          "name": "isLong",
          "type": "bool"
        }
      ],
      "name": "getUsersConfirmedButNotSettledBalance",
      "outputs": [
        {
          "internalType": "uint256",
          "name": "pendingBalance",
          "type": "uint256"
        }
      ],
      "stateMutability": "view",
      "type": "function",
      "constant": true
    },
    {
      "inputs": [
        {
          "internalType": "uint32",
          "name": "marketIndex",
          "type": "uint32"
        }
      ],
      "name": "updateSystemState",
      "outputs": [],
      "stateMutability": "nonpayable",
      "type": "function"
    },
    {
      "inputs": [
        {
          "internalType": "uint32[]",
          "name": "marketIndexes",
          "type": "uint32[]"
        }
      ],
      "name": "updateSystemStateMulti",
      "outputs": [],
      "stateMutability": "nonpayable",
      "type": "function"
    },
    {
      "inputs": [
        {
          "internalType": "uint32",
          "name": "marketIndex",
          "type": "uint32"
        },
        {
          "internalType": "uint256",
          "name": "amount",
          "type": "uint256"
        }
      ],
      "name": "mintLongNextPrice",
      "outputs": [],
      "stateMutability": "nonpayable",
      "type": "function"
    },
    {
      "inputs": [
        {
          "internalType": "uint32",
          "name": "marketIndex",
          "type": "uint32"
        },
        {
          "internalType": "uint256",
          "name": "amount",
          "type": "uint256"
        }
      ],
      "name": "mintShortNextPrice",
      "outputs": [],
      "stateMutability": "nonpayable",
      "type": "function"
    },
    {
      "inputs": [
        {
          "internalType": "uint32",
          "name": "marketIndex",
          "type": "uint32"
        },
        {
          "internalType": "uint256",
          "name": "tokensToRedeem",
          "type": "uint256"
        }
      ],
      "name": "redeemLongNextPrice",
      "outputs": [],
      "stateMutability": "nonpayable",
      "type": "function"
    },
    {
      "inputs": [
        {
          "internalType": "uint32",
          "name": "marketIndex",
          "type": "uint32"
        },
        {
          "internalType": "uint256",
          "name": "tokensToRedeem",
          "type": "uint256"
        }
      ],
      "name": "redeemShortNextPrice",
      "outputs": [],
      "stateMutability": "nonpayable",
      "type": "function"
    },
    {
      "inputs": [
        {
          "internalType": "address",
          "name": "user",
          "type": "address"
        },
        {
          "internalType": "uint32",
          "name": "marketIndex",
          "type": "uint32"
        }
      ],
      "name": "executeOutstandingNextPriceSettlementsUser",
      "outputs": [],
      "stateMutability": "nonpayable",
      "type": "function"
    }
  ],
  "bytecode": "0x608060405234801561001057600080fd5b50613028806100206000396000f3fe608060405234801561001057600080fd5b50600436106102065760003560e01c8063a04c85a81161011a578063d47540bc116100ad578063f29610a11161007c578063f29610a11461058b578063f41cb195146105b6578063f851a440146105df578063f8c8765e146105f2578063fd5ac1501461060557610206565b8063d47540bc14610521578063e6b604e014610534578063e77772fe14610547578063eea756fa1461055a57610206565b8063b36f5374116100e9578063b36f53741461049d578063ba67e463146104d0578063c2e12471146104e3578063ce9e45ac146104f657610206565b8063a04c85a8146103fa578063ae369fc61461042b578063b054c4a114610456578063b14f2a391461048a57610206565b8063636190c81161019d5780638900bdfa1161016c5780638900bdfa14610378578063897a0786146103985780638f283970146103ab57806391a9fa61146103be5780639c5b0ee3146103d157610206565b8063636190c81461031357806364d16f531461033f5780636c8d2b9714610352578063867dfc6d1461036557610206565b80634e6fd6c4116101d95780634e6fd6c4146102a7578063511431f1146102c25780635ebaf1db146102ed57806361d027b31461030057610206565b806305c8146f1461020b57806314c88ffa146102205780631badf5c0146102535780632592fb8514610294575b600080fd5b61021e610219366004612b7e565b610636565b005b61024061022e366004612b7e565b60616020526000908152604090205481565b6040519081526020015b60405180910390f35b61027c610261366004612b7e565b6064602052600090815260409020546001600160a01b031681565b6040516001600160a01b03909116815260200161024a565b6102406102a23660046129d0565b610642565b61027c73f10a7f10a7f10a7f10a7f10a7f10a7f10a7f10a781565b6102406102d0366004612bce565b606960209081526000928352604080842090915290825290205481565b60305461027c906001600160a01b031681565b602f5461027c906001600160a01b031681565b602f5461032a90600160a01b900463ffffffff1681565b60405163ffffffff909116815260200161024a565b61021e61034d366004612b98565b610793565b61021e610360366004612a18565b61083a565b61021e610373366004612c74565b610899565b610240610386366004612b7e565b60606020526000908152604090205481565b61021e6103a636600461299c565b6108a9565b61021e6103b936600461291e565b6108b3565b61021e6103cc366004612c74565b6108ff565b61027c6103df366004612b7e565b6063602052600090815260409020546001600160a01b031681565b610240610408366004612c36565b606760209081526000938452604080852082529284528284209052825290205481565b610240610439366004612b98565b606a60209081526000928352604080842090915290825290205481565b61027c610464366004612bce565b60656020908152600092835260408084209091529082529020546001600160a01b031681565b61021e61049836600461291e565b61090b565b6104c06104ab366004612b7e565b605f6020526000908152604090205460ff1681565b604051901515815260200161024a565b61021e6104de366004612c9d565b610957565b61021e6104f1366004612c74565b610b24565b610240610504366004612bce565b606860209081526000928352604080842090915290825290205481565b61021e61052f366004612ad8565b610b30565b61021e610542366004612c74565b610f7d565b60315461027c906001600160a01b031681565b610240610568366004612bf9565b606b60209081526000938452604080852082529284528284209052825290205481565b610240610599366004612bce565b606660209081526000928352604080842090915290825290205481565b61027c6105c4366004612b7e565b6062602052600090815260409020546001600160a01b031681565b602e5461027c906001600160a01b031681565b61021e610600366004612941565b610f89565b610240610613366004612bf9565b606c60209081526000938452604080852082529284528284209052825290205481565b61063f816110d5565b50565b63ffffffff82166000908152605f6020526040812054839060ff166106a55760405162461bcd60e51b81526020600482015260146024820152731b585c9ad95d08191bd95cdb89dd08195e1a5cdd60621b60448201526064015b60405180910390fd5b63ffffffff84166000908152606a602090815260408083206001600160a01b03891684529091529020541580159061070e575063ffffffff8416600090815260616020908152604080832054606a83528184206001600160a01b038a1685529092529091205411155b156107865763ffffffff84166000818152606b602090815260408083208715158085529083528184206001600160a01b038b1685528352818420548585526067845282852091855290835281842094845260618352818420548452939091528120549061077b8383611435565b945061078b92505050565b600091505b509392505050565b602e546001600160a01b031633146107bd5760405162461bcd60e51b815260040161069c90612d6a565b63ffffffff821660008181526064602090815260409182902080546001600160a01b038681166001600160a01b03198316811790935584519586521691840182905291830191909152907ffc4d69f373858d480cfc3f12e7cc7f9b12201291753ffc3babef0e7a8041979f906060015b60405180910390a1505050565b60005b818110156108945761088283838381811061086857634e487b7160e01b600052603260045260246000fd5b905060200201602081019061087d9190612b7e565b6110d5565b8061088c81612f64565b91505061083d565b505050565b6108a58282600161145d565b5050565b6108a582826115ba565b602e546001600160a01b031633146108dd5760405162461bcd60e51b815260040161069c90612d6a565b602e80546001600160a01b0319166001600160a01b0392909216919091179055565b6108a58282600061145d565b602e546001600160a01b031633146109355760405162461bcd60e51b815260040161069c90612d6a565b602f80546001600160a01b0319166001600160a01b0392909216919091179055565b602e546001600160a01b031633146109815760405162461bcd60e51b815260040161069c90612d6a565b63ffffffff87166000908152605f602052604090205460ff16156109dd5760405162461bcd60e51b8152602060048201526013602482015272185b1c9958591e481a5b9a5d1a585b1a5e9959606a1b604482015260640161069c565b602f5463ffffffff600160a01b90910481169088161115610a325760405162461bcd60e51b815260206004820152600f60248201526e0d2dcc8caf040e8dede40d0d2ced0d608b1b604482015260640161069c565b63ffffffff8781166000908152605f60209081526040808320805460ff19166001908117909155603054602f54600160a01b9004909516808552606584528285209185529252808320548380529281902054905163b0956b5f60e01b815260048101929092526001600160a01b03928316602483015282166044820152606481018990526084810188905260a4810187905260c4810185905260e4810184905291169063b0956b5f9061010401600060405180830381600087803b158015610af957600080fd5b505af1158015610b0d573d6000803e3d6000fd5b50505050610b1b83886116a0565b50505050505050565b6108a5828260016118b3565b602e546001600160a01b03163314610b5a5760405162461bcd60e51b815260040161069c90612d6a565b602f8054600160a01b900463ffffffff16906014610b7783612f7f565b82546101009290920a63ffffffff818102199093169183160217909155603154603054602f546040516308ad7e0560e31b81526001600160a01b03938416955063456bf02894610be0948e948e948e948e949390921692600160a01b9091041690600401612d19565b602060405180830381600087803b158015610bfa57600080fd5b505af1158015610c0e573d6000803e3d6000fd5b505050506040513d601f19601f82011682018060405250810190610c329190612aa4565b602f8054600160a01b9081900463ffffffff9081166000908152606560209081526040808320600184529091529081902080546001600160a01b0319166001600160a01b039687161790556031546030549454915163c0b77cf760e01b81529086169563c0b77cf795610cb9958f958f958f958f9594909416939290041690600401612d19565b602060405180830381600087803b158015610cd357600080fd5b505af1158015610ce7573d6000803e3d6000fd5b505050506040513d601f19601f82011682018060405250810190610d0b9190612aa4565b602f8054600160a01b9081900463ffffffff9081166000908152606560209081526040808320838052825280832080546001600160a01b03199081166001600160a01b03998a161790915586548690048516845260628352818420805482168c8a1617905586548690048516845260638352818420805482168a8a161790558654869004851684526064835281842080549091168a89161790559454939093049091168152828120548351630ce74fc560e31b8152935194169363673a7e289360048082019493918390030190829087803b158015610de957600080fd5b505af1158015610dfd573d6000803e3d6000fd5b505050506040513d601f19601f82011682018060405250810190610e219190612ac0565b602f805463ffffffff600160a01b918290048116600090815260606020908152604080832096909655935492909204168152606290915281902054905163095ea7b360e01b81526001600160a01b03838116600483015260001960248301529091169063095ea7b390604401602060405180830381600087803b158015610ea757600080fd5b505af1158015610ebb573d6000803e3d6000fd5b505050506040513d601f19601f82011682018060405250810190610edf9190612a88565b50602f54600160a01b900463ffffffff16600081815260656020908152604080832060018452825280832054838052818420548585526060909352928190205490517fc05e423f36dce8b23b9c3b8d92aa33cc5acdc85530372c8f509224bb3f337f8994610f6c9490936001600160a01b03918216939116918991908e908e908e908e908d908d90612d8e565b60405180910390a150505050505050565b6108a5828260006118b3565b600054610100900460ff1680610fa2575060005460ff16155b6110055760405162461bcd60e51b815260206004820152602e60248201527f496e697469616c697a61626c653a20636f6e747261637420697320616c72656160448201526d191e481a5b9a5d1a585b1a5e995960921b606482015260840161069c565b600054610100900460ff16158015611027576000805461ffff19166101011790555b602e80546001600160a01b038781166001600160a01b03199283168117909355602f805488831690841681179091556031805488841690851681179091556030805493881693909416831790935560408051948552602085019190915283019190915260608201527fd3469a6e81bfb8eb50829f6f9a8531a9b6a7c1e7765bb91fbe57a91e173ccbbe9060800160405180910390a180156110ce576000805461ff00191690555b5050505050565b63ffffffff81166000908152605f6020526040902054819060ff166111335760405162461bcd60e51b81526020600482015260146024820152731b585c9ad95d08191bd95cdb89dd08195e1a5cdd60621b604482015260640161069c565b63ffffffff82166000908152606460209081526040808320548151630ce74fc560e31b815291516001600160a01b039091169263673a7e28926004808201939182900301818787803b15801561118857600080fd5b505af115801561119c573d6000803e3d6000fd5b505050506040513d601f19601f820116820180604052508101906111c09190612ac0565b63ffffffff84166000908152606060205260409020549091508082141580806111f357506030546001600160a01b031633145b156110ce5763ffffffff8516600081815260676020908152604080832060018085528184528285208686526061855283862054808752908552838620548680529285528386209086528452828520546030548787526066865284872092875291909452828520548580529483902054925163368e71f760e11b815260048101969096526024860182905260448601849052606486019490945260848501919091529290916001600160a01b031690636d1ce3ee9060a401600060405180830381600087803b1580156112c457600080fd5b505af11580156112d8573d6000803e3d6000fd5b50505050826112eb5750505050506108a5565b6112f487611a6e565b6112fe8786611b9b565b611309876001611dc4565b9150611316876000611dc4565b63ffffffff8816600090815260606020908152604080832089905560619091528120805492935060019290919061134e908490612e12565b909155505063ffffffff871660008181526061602081815260408084208054606784528286206001875280855283872082885285528387208a905586805284528286209086528352908420869055939092529052546113b09088908484611e8f565b63ffffffff87166000818152606160209081526040808320546066835281842060018552835281842054848052938290205482519586529285015283018890526060830191909152608082015260a0810183905260c081018290527f69e662f95898affac086a5bc1177755bdaf7f4a40a3880364c48012170ee57fe9060e001610f6c565b60008161144a84670de0b6b3a7640000612eef565b6114549190612e58565b90505b92915050565b82611467816110d5565b338461147382826115ba565b61147d8686611eb8565b63ffffffff861660009081526068602090815260408083208715158452909152812080548792906114af908490612e12565b909155505063ffffffff86166000908152606b6020908152604080832087151584528252808320338452909152812080548792906114ee908490612e12565b909155505063ffffffff8616600090815260616020526040902054611514906001612e12565b63ffffffff87166000818152606a6020908152604080832033808552908352818420959095559282526061905220547f50b8727b538cf16daeb79894e8bde5c1e975985071be8a8d7620675a5dddfc6b91889187918991611576906001612e12565b6040805163ffffffff90961686529315156020860152928401919091526001600160a01b03166060830152608082015260a0015b60405180910390a1505050505050565b63ffffffff81166000908152606a602090815260408083206001600160a01b03861684529091529020548015801590611608575063ffffffff82166000908152606160205260409020548111155b156108945761161982846001611f56565b61162582846000611f56565b61163182846001612110565b61163d82846000612110565b63ffffffff82166000818152606a602090815260408083206001600160a01b038816808552908352818420939093558051928352908201929092527fe03aa867e2345cc967d98e4c81f6b0707b5ef082d9d20bac3dcf95540acdeae4910161082d565b67016345785d8a000082116116f75760405162461bcd60e51b815260206004820152601860248201527f496e73756666696369656e74206d61726b657420736565640000000000000000604482015260640161069c565b61170b81611706846002612eef565b6122b2565b602f54600160a01b900463ffffffff16600090815260656020908152604080832060018452909152908190205490516340c10f1960e01b815273f10a7f10a7f10a7f10a7f10a7f10a7f10a7f10a76004820152602481018490526001600160a01b03909116906340c10f1990604401600060405180830381600087803b15801561179457600080fd5b505af11580156117a8573d6000803e3d6000fd5b5050602f54600160a01b900463ffffffff166000908152606560209081526040808320838052909152908190205490516340c10f1960e01b815273f10a7f10a7f10a7f10a7f10a7f10a7f10a7f10a76004820152602481018690526001600160a01b0390911692506340c10f199150604401600060405180830381600087803b15801561183457600080fd5b505af1158015611848573d6000803e3d6000fd5b5050505063ffffffff8116600081815260666020908152604080832060018452825280832086905582805291829020859055815192835282018490527f6b73d8f672e796176444c21cb5429d8ea426e6f0f8a3b34e7057a808be5d19c6910160405180910390a15050565b826118bd816110d5565b33846118c982826115ba565b63ffffffff861660009081526065602090815260408083208715158452909152908190205490516323b872dd60e01b8152336004820152306024820152604481018790526001600160a01b03909116906323b872dd90606401602060405180830381600087803b15801561193c57600080fd5b505af1158015611950573d6000803e3d6000fd5b505050506040513d601f19601f820116820180604052508101906119749190612a88565b5063ffffffff86166000908152606c6020908152604080832087151584528252808320338452909152812080548792906119af908490612e12565b909155505063ffffffff86166000908152606160205260409020546119d5906001612e12565b63ffffffff87166000818152606a602090815260408083203384528252808320949094559181526069825282812087151582529091529081208054879290611a1e908490612e12565b909155505063ffffffff86166000908152606160205260409020547f191d5f0d51691cdc223884e5321013c9663c6b337a07d550c538d9dcbbd66203908790869088903390611576906001612e12565b63ffffffff811660009081526066602090815260408083206001845290915280822054828052908220549091611aa48284612e12565b9050600080611ab48585856122c6565b63ffffffff8816600090815260636020526040808220549051630a0be6b760e21b81526004810188905260248101849052939550919350916001600160a01b039091169063282f9adc90604401602060405180830381600087803b158015611b1b57600080fd5b505af1158015611b2f573d6000803e3d6000fd5b505050506040513d601f19601f82011682018060405250810190611b539190612ac0565b90508015610b1b5763ffffffff87166000908152606660209081526040808320861515845290915281208054839290611b8d908490612e12565b909155505050505050505050565b63ffffffff8216600090815260606020908152604080832054606683528184208480529092528083205460018452908320549192911015611bfe575063ffffffff8316600090815260666020908152604080832060018452909152902054611c21565b5063ffffffff831660009081526066602090815260408083208380529091529020545b600082611c2e8186612f0e565b611c4090670de0b6b3a7640000612e6c565b611c4a9190612e2a565b90506000670de0b6b3a7640000611c618484612e6c565b611c6b9190612e2a565b90506000811315611ce75763ffffffff861660009081526066602090815260408083206001845290915281208054839290611ca7908490612e12565b909155505063ffffffff8616600090815260666020908152604080832083805290915281208054839290611cdc908490612f4d565b90915550611d6c9050565b611cf381600019612e6c565b63ffffffff871660009081526066602090815260408083206001845290915281208054909190611d24908490612f4d565b90915550611d36905081600019612e6c565b63ffffffff8716600090815260666020908152604080832083805290915281208054909190611d66908490612e12565b90915550505b63ffffffff86166000818152606060208181526040928390205483519485529084015290820187905233908201527fd71bf4c0282ba3f822633c7855d997e3e0dd859f876d8e5cd9b65317c86dda84906080016115aa565b63ffffffff82166000908152606560209081526040808320841515845282528083205481516318160ddd60e01b815291516001600160a01b03909116926318160ddd9260048082019391829003018186803b158015611e2257600080fd5b505afa158015611e36573d6000803e3d6000fd5b505050506040513d601f19601f82011682018060405250810190611e5a9190612ac0565b63ffffffff84166000908152606660209081526040808320861515845290915290205461144a90670de0b6b3a7640000612eef565b611e9b84600184612348565b611ea784600083612348565b611eb284838361246e565b50505050565b63ffffffff8216600090815260626020526040908190205490516323b872dd60e01b8152336004820152306024820152604481018390526001600160a01b03909116906323b872dd90606401602060405180830381600087803b158015611f1e57600080fd5b505af1158015611f32573d6000803e3d6000fd5b505050506040513d601f19601f820116820180604052508101906108949190612a88565b63ffffffff83166000908152606b60209081526040808320841515845282528083206001600160a01b03861684529091529020548015611eb25763ffffffff84166000818152606b602090815260408083208615158085529083528184206001600160a01b03891680865290845282852085905585855260678452828520918552908352818420948452606a8352818420908452825280832054835292905290812054612004908390611435565b63ffffffff8616600090815260656020908152604080832087151584529091529081902054905163a9059cbb60e01b81526001600160a01b0387811660048301526024820184905292935091169063a9059cbb90604401602060405180830381600087803b15801561207557600080fd5b505af1158015612089573d6000803e3d6000fd5b505050506040513d601f19601f820116820180604052508101906120ad9190612a88565b50604080516001600160a01b038616815263ffffffff8716602082015284151591810191909152606081018290527f2b896bbe6fd98e6571cdb9adb035742b407675559adeedf5f06159e3e56f6dda906080015b60405180910390a15050505050565b63ffffffff83166000908152606c60209081526040808320841515845282528083206001600160a01b03861684529091529020548015611eb25763ffffffff84166000818152606c602090815260408083208615158085529083528184206001600160a01b03891680865290845282852085905585855260678452828520918552908352818420948452606a83528184209084528252808320548352929052908120546121be908390612536565b63ffffffff86166000908152606260205260409081902054905163a9059cbb60e01b81526001600160a01b0387811660048301526024820184905292935091169063a9059cbb90604401602060405180830381600087803b15801561222257600080fd5b505af1158015612236573d6000803e3d6000fd5b505050506040513d601f19601f8201168201806040525081019061225a9190612a88565b50604080516001600160a01b038616815263ffffffff8716602082015284151591810191909152606081018290527f8937f7ec13112bd5042a48b763f209c758b38657c498e81470568e88b0d1970790608001612101565b6122bc8282611eb8565b6108a5828261254b565b81831060008082156122e3576122dc8686612f4d565b90506122f0565b6122ed8587612f4d565b90505b670de0b6b3a76400006000856123068385612eef565b6123109190612e58565b9050600061232682670de0b6b3a76400006125c2565b905061233a81670de0b6b3a7640000612f4d565b945050505050935093915050565b63ffffffff8316600090815260686020908152604080832085151584529091529020548015611eb25763ffffffff84166000908152606860209081526040808320861515845290915281205561239e848261254b565b60006123aa8284611435565b63ffffffff861660009081526065602090815260408083208815158452909152908190205490516340c10f1960e01b8152306004820152602481018390529192506001600160a01b0316906340c10f1990604401600060405180830381600087803b15801561241857600080fd5b505af115801561242c573d6000803e3d6000fd5b5050505063ffffffff85166000908152606660209081526040808320871515845290915281208054849290612462908490612e12565b90915550505050505050565b63ffffffff8316600090815260696020908152604080832060018452909152808220548280529120546124a29185916125da565b63ffffffff83166000908152606960209081526040808320600184529091528120546124ce9084612536565b63ffffffff85166000908152606960209081526040808320838052909152812054919250906124fd9084612536565b63ffffffff861660009081526069602090815260408083206001845290915280822082905581805281205590506110ce858383306126ea565b6000670de0b6b3a764000061144a8385612eef565b63ffffffff8216600090815260636020526040908190205490516304831f7160e51b8152600481018390526001600160a01b0390911690639063ee20906024015b600060405180830381600087803b1580156125a657600080fd5b505af11580156125ba573d6000803e3d6000fd5b505050505050565b6000818311156125d3575080611457565b5081611457565b81156126655763ffffffff83166000908152606560209081526040808320600184529091529081902054905163319920a160e11b8152306004820152602481018490526001600160a01b0390911690636332414290604401600060405180830381600087803b15801561264c57600080fd5b505af1158015612660573d6000803e3d6000fd5b505050505b80156108945763ffffffff831660009081526065602090815260408083208380529091529081902054905163319920a160e11b8152306004820152602481018390526001600160a01b0390911690636332414290604401600060405180830381600087803b1580156126d657600080fd5b505af1158015610b1b573d6000803e3d6000fd5b60006126f68385612e12565b9050806127035750611eb2565b63ffffffff85166000908152606660209081526040808320600184529091529020548411801590612754575063ffffffff851660009081526066602090815260408083208380529091529020548311155b61276e57634e487b7160e01b600052600160045260246000fd5b6127788582612879565b63ffffffff85166000908152606260205260409081902054905163a9059cbb60e01b81526001600160a01b038481166004830152602482018490529091169063a9059cbb90604401602060405180830381600087803b1580156127da57600080fd5b505af11580156127ee573d6000803e3d6000fd5b505050506040513d601f19601f820116820180604052508101906128129190612a88565b5063ffffffff851660009081526066602090815260408083206001845290915281208054869290612844908490612f4d565b909155505063ffffffff8516600090815260666020908152604080832083805290915281208054859290612462908490612f4d565b63ffffffff8216600090815260636020526040908190205490516303f33afd60e11b8152600481018390526001600160a01b03909116906307e675fa9060240161258c565b60008083601f8401126128cf578182fd5b50813567ffffffffffffffff8111156128e6578182fd5b6020830191508360208285010111156128fe57600080fd5b9250929050565b803563ffffffff8116811461291957600080fd5b919050565b60006020828403121561292f578081fd5b813561293a81612fcf565b9392505050565b60008060008060808587031215612956578283fd5b843561296181612fcf565b9350602085013561297181612fcf565b9250604085013561298181612fcf565b9150606085013561299181612fcf565b939692955090935050565b600080604083850312156129ae578182fd5b82356129b981612fcf565b91506129c760208401612905565b90509250929050565b6000806000606084860312156129e4578283fd5b83356129ef81612fcf565b92506129fd60208501612905565b91506040840135612a0d81612fe4565b809150509250925092565b60008060208385031215612a2a578182fd5b823567ffffffffffffffff80821115612a41578384fd5b818501915085601f830112612a54578384fd5b813581811115612a62578485fd5b8660208260051b8501011115612a76578485fd5b60209290920196919550909350505050565b600060208284031215612a99578081fd5b815161293a81612fe4565b600060208284031215612ab5578081fd5b815161293a81612fcf565b600060208284031215612ad1578081fd5b5051919050565b600080600080600080600060a0888a031215612af2578283fd5b873567ffffffffffffffff80821115612b09578485fd5b612b158b838c016128be565b909950975060208a0135915080821115612b2d578485fd5b50612b3a8a828b016128be565b9096509450506040880135612b4e81612fcf565b92506060880135612b5e81612fcf565b91506080880135612b6e81612fcf565b8091505092959891949750929550565b600060208284031215612b8f578081fd5b61145482612905565b60008060408385031215612baa578182fd5b612bb383612905565b91506020830135612bc381612fcf565b809150509250929050565b60008060408385031215612be0578182fd5b612be983612905565b91506020830135612bc381612fe4565b600080600060608486031215612c0d578081fd5b612c1684612905565b92506020840135612c2681612fe4565b91506040840135612a0d81612fcf565b600080600060608486031215612c4a578081fd5b612c5384612905565b92506020840135612c6381612fe4565b929592945050506040919091013590565b60008060408385031215612c86578182fd5b612c8f83612905565b946020939093013593505050565b600080600080600080600060e0888a031215612cb7578081fd5b612cc088612905565b9960208901359950604089013598606081013598506080810135975060a0810135965060c00135945092505050565b60008284528282602086013780602084860101526020601f19601f85011685010190509392505050565b600060808252612d2d60808301888a612cef565b8281036020840152612d40818789612cef565b6001600160a01b03959095166040840152505063ffffffff91909116606090910152949350505050565b6020808252600a908201526937b7363c9030b236b4b760b11b604082015260600190565b63ffffffff8c1681526001600160a01b038b811660208301528a8116604083015289811660608301526080820189905261012060a08301819052600091612dd88483018a8c612cef565b915083820360c0850152612ded82888a612cef565b925080861660e085015280851661010085015250509c9b505050505050505050505050565b60008219821115612e2557612e25612fa3565b500190565b600082612e3957612e39612fb9565b600160ff1b821460001984141615612e5357612e53612fa3565b500590565b600082612e6757612e67612fb9565b500490565b60006001600160ff1b0381841382841380821686840486111615612e9257612e92612fa3565b600160ff1b84871282811687830589121615612eb057612eb0612fa3565b858712925087820587128484161615612ecb57612ecb612fa3565b87850587128184161615612ee157612ee1612fa3565b505050929093029392505050565b6000816000190483118215151615612f0957612f09612fa3565b500290565b60008083128015600160ff1b850184121615612f2c57612f2c612fa3565b6001600160ff1b0384018313811615612f4757612f47612fa3565b50500390565b600082821015612f5f57612f5f612fa3565b500390565b6000600019821415612f7857612f78612fa3565b5060010190565b600063ffffffff80831681811415612f9957612f99612fa3565b6001019392505050565b634e487b7160e01b600052601160045260246000fd5b634e487b7160e01b600052601260045260246000fd5b6001600160a01b038116811461063f57600080fd5b801515811461063f57600080fdfea2646970667358221220899640683cd3a9acc051de8599b81824633a3fa06ff2f2943e28c3135e65611164736f6c63430008030033",
  "immutableReferences": {},
  "source": "// SPDX-License-Identifier: BUSL-1.1\n\npragma solidity 0.8.3;\n\nimport \"hardhat/console.sol\";\nimport \"@openzeppelin/contracts-upgradeable/proxy/utils/Initializable.sol\";\nimport \"@openzeppelin/contracts/token/ERC20/IERC20.sol\";\n\nimport \"./interfaces/ITokenFactory.sol\";\nimport \"./interfaces/ISyntheticToken.sol\";\nimport \"./interfaces/IStaker.sol\";\nimport \"./interfaces/ILongShort.sol\";\nimport \"./interfaces/IYieldManager.sol\";\nimport \"./interfaces/IOracleManager.sol\";\n\n/**\n **** visit https://float.capital *****\n */\n\ncontract LongShort is ILongShort, Initializable {\n  /*\n                VARIABLES          \n      */\n\n  // Fixed-precision constants\n  address public constant DEAD_ADDRESS = 0xf10A7_F10A7_f10A7_F10a7_F10A7_f10a7_F10A7_f10a7;\n  uint256[45] private __constantsGap;\n\n  // Global state\n  address public admin;\n  address public treasury;\n  uint32 public latestMarket;\n\n  IStaker public staker;\n  ITokenFactory public tokenFactory;\n  uint256[45] private __globalStateGap;\n\n  // Market specific\n  mapping(uint32 => bool) public marketExists;\n  mapping(uint32 => uint256) public assetPrice;\n  mapping(uint32 => uint256) public marketUpdateIndex;\n  mapping(uint32 => IERC20) public paymentTokens;\n  mapping(uint32 => IYieldManager) public yieldManagers;\n  mapping(uint32 => IOracleManager) public oracleManagers;\n\n  // Market + position (long/short) specific\n  mapping(uint32 => mapping(bool => ISyntheticToken)) public syntheticTokens;\n  mapping(uint32 => mapping(bool => uint256)) public syntheticTokenPoolValue;\n\n  mapping(uint32 => mapping(bool => mapping(uint256 => uint256)))\n    public syntheticTokenPriceSnapshot;\n\n  mapping(uint32 => mapping(bool => uint256)) public batchedAmountOfTokensToDeposit;\n  mapping(uint32 => mapping(bool => uint256)) public batchedAmountOfSynthTokensToRedeem;\n\n  // User specific\n  mapping(uint32 => mapping(address => uint256)) public userCurrentNextPriceUpdateIndex;\n\n  mapping(uint32 => mapping(bool => mapping(address => uint256))) public userNextPriceDepositAmount;\n  mapping(uint32 => mapping(bool => mapping(address => uint256)))\n    public userNextPriceRedemptionAmount;\n\n  /*\n                 EVENTS           \n      */\n\n  event LongShortV1(address admin, address treasury, address tokenFactory, address staker);\n\n  event SystemStateUpdated(\n    uint32 marketIndex,\n    uint256 updateIndex,\n    int256 underlyingAssetPrice,\n    uint256 longValue,\n    uint256 shortValue,\n    uint256 longPrice,\n    uint256 shortPrice\n  );\n\n  event SyntheticMarketCreated(\n    uint32 marketIndex,\n    address longTokenAddress,\n    address shortTokenAddress,\n    address paymentToken,\n    uint256 initialAssetPrice,\n    string name,\n    string symbol,\n    address oracleAddress,\n    address yieldManagerAddress\n  );\n\n  event PriceUpdate(uint32 marketIndex, uint256 oldPrice, uint256 newPrice, address user);\n\n  event NextPriceRedeem(\n    uint32 marketIndex,\n    bool isLong,\n    uint256 synthRedeemed,\n    address user,\n    uint256 oracleUpdateIndex\n  );\n\n  event NextPriceDeposit(\n    uint32 marketIndex,\n    bool isLong,\n    uint256 depositAdded,\n    address user,\n    uint256 oracleUpdateIndex\n  );\n\n  event OracleUpdated(uint32 marketIndex, address oldOracleAddress, address newOracleAddress);\n\n  event NewMarketLaunchedAndSeeded(uint32 marketIndex, uint256 initialSeed);\n\n  event ExecuteNextPriceMintSettlementUser(\n    address user,\n    uint32 marketIndex,\n    bool isLong,\n    uint256 amount\n  );\n\n  event ExecuteNextPriceRedeemSettlementUser(\n    address user,\n    uint32 marketIndex,\n    bool isLong,\n    uint256 amount\n  );\n\n  event ExecuteNextPriceSettlementsUser(address user, uint32 marketIndex);\n\n  /*\n                MODIFIERS          \n      */\n\n  /**\n   * Necessary to update system state before any contract actions (deposits / withdraws)\n   */\n\n  modifier adminOnly() {\n    require(msg.sender == admin, \"only admin\");\n    _;\n  }\n\n  modifier assertMarketExists(uint32 marketIndex) {\n    require(marketExists[marketIndex], \"market doesn't exist\");\n    _;\n  }\n\n  modifier executeOutstandingNextPriceSettlements(address user, uint32 marketIndex) virtual {\n    _executeOutstandingNextPriceSettlements(user, marketIndex);\n    _;\n  }\n\n  modifier updateSystemStateMarket(uint32 marketIndex) {\n    _updateSystemStateInternal(marketIndex);\n\n    _;\n  }\n\n  /*\n             CONTRACT SET-UP       \n      */\n\n  function initialize(\n    address _admin,\n    address _treasury,\n    ITokenFactory _tokenFactory,\n    IStaker _staker\n  ) public initializer {\n    admin = _admin;\n    treasury = _treasury;\n    tokenFactory = _tokenFactory;\n    staker = _staker;\n\n    emit LongShortV1(_admin, address(treasury), address(_tokenFactory), address(_staker));\n  }\n\n  /*\n             MULTI-SIG ADMIN       \n      */\n\n  function changeAdmin(address _admin) external adminOnly {\n    admin = _admin;\n  }\n\n  function changeTreasury(address _treasury) external adminOnly {\n    treasury = _treasury;\n  }\n\n  /**\n   * Update oracle for a market\n   */\n  function updateMarketOracle(uint32 marketIndex, address _newOracleManager) external adminOnly {\n    // If not a oracle contract this would break things.. Test's arn't validating this\n    // Ie require isOracle interface - ERC165\n    address previousOracleManager = address(oracleManagers[marketIndex]);\n    oracleManagers[marketIndex] = IOracleManager(_newOracleManager);\n    emit OracleUpdated(marketIndex, previousOracleManager, _newOracleManager);\n  }\n\n  /*\n             MARKET CREATION       \n      */\n\n  /**\n   * Creates an entirely new long/short market tracking an underlying\n   * oracle price. Make sure the synthetic names/symbols are unique.\n   */\n  function newSyntheticMarket(\n    string calldata syntheticName,\n    string calldata syntheticSymbol,\n    address _paymentToken,\n    address _oracleManager,\n    address _yieldManager\n  ) external adminOnly {\n    latestMarket++;\n\n    // Create new synthetic long token.\n    syntheticTokens[latestMarket][true] = ISyntheticToken(\n      tokenFactory.createTokenLong(syntheticName, syntheticSymbol, staker, latestMarket)\n    );\n\n    // Create new synthetic short token.\n    syntheticTokens[latestMarket][false] = ISyntheticToken(\n      tokenFactory.createTokenShort(syntheticName, syntheticSymbol, staker, latestMarket)\n    );\n\n    // Initial market state.\n    paymentTokens[latestMarket] = IERC20(_paymentToken);\n    yieldManagers[latestMarket] = IYieldManager(_yieldManager);\n    oracleManagers[latestMarket] = IOracleManager(_oracleManager);\n    assetPrice[latestMarket] = uint256(oracleManagers[latestMarket].updatePrice());\n\n    // Approve tokens for aave lending pool maximally.\n    paymentTokens[latestMarket].approve(_yieldManager, type(uint256).max);\n\n    emit SyntheticMarketCreated(\n      latestMarket,\n      address(syntheticTokens[latestMarket][true]),\n      address(syntheticTokens[latestMarket][false]),\n      _paymentToken,\n      assetPrice[latestMarket],\n      syntheticName,\n      syntheticSymbol,\n      _oracleManager,\n      _yieldManager\n    );\n  }\n\n  function _seedMarketInitially(uint256 initialMarketSeed, uint32 marketIndex) internal {\n    require(\n      // You require at least 10^17 of the underlying payment token to seed the market.\n      initialMarketSeed > 0.1 ether,\n      \"Insufficient market seed\"\n    );\n\n    _lockFundsInMarket(marketIndex, initialMarketSeed * 2);\n\n    syntheticTokens[latestMarket][true].mint(DEAD_ADDRESS, initialMarketSeed);\n    syntheticTokens[latestMarket][false].mint(DEAD_ADDRESS, initialMarketSeed);\n\n    syntheticTokenPoolValue[marketIndex][true] = initialMarketSeed;\n    syntheticTokenPoolValue[marketIndex][false] = initialMarketSeed;\n\n    emit NewMarketLaunchedAndSeeded(marketIndex, initialMarketSeed);\n  }\n\n  function initializeMarket(\n    uint32 marketIndex,\n    uint256 kInitialMultiplier,\n    uint256 kPeriod,\n    uint256 unstakeFeeBasisPoints,\n    uint256 initialMarketSeed,\n    uint256 balanceIncentiveCurveExponent,\n    int256 balanceIncentiveCurveEquilibriumOffset\n  ) external adminOnly {\n    require(!marketExists[marketIndex], \"already initialized\");\n    require(marketIndex <= latestMarket, \"index too highh\");\n\n    marketExists[marketIndex] = true;\n\n    // Add new staker funds with fresh synthetic tokens.\n    staker.addNewStakingFund(\n      latestMarket,\n      syntheticTokens[latestMarket][true],\n      syntheticTokens[latestMarket][false],\n      kInitialMultiplier,\n      kPeriod,\n      unstakeFeeBasisPoints,\n      balanceIncentiveCurveExponent,\n      balanceIncentiveCurveEquilibriumOffset\n    );\n\n    _seedMarketInitially(initialMarketSeed, marketIndex);\n  }\n\n  /*\n             GETTER FUNCTIONS       \n      */\n\n  function _recalculateSyntheticTokenPrice(uint32 marketIndex, bool isLong)\n    internal\n    view\n    returns (uint256 syntheticTokenPrice)\n  {\n    syntheticTokenPrice =\n      (syntheticTokenPoolValue[marketIndex][isLong] * 1e18) /\n      syntheticTokens[marketIndex][isLong].totalSupply();\n  }\n\n  function _getAmountPaymentToken(uint256 amountSynth, uint256 price)\n    internal\n    pure\n    returns (uint256)\n  {\n    return (amountSynth * price) / 1e18;\n  }\n\n  function _getAmountSynthToken(uint256 amountPaymentToken, uint256 price)\n    internal\n    pure\n    returns (uint256)\n  {\n    return (amountPaymentToken * 1e18) / price;\n  }\n\n  /*\n    4 possible states for next price actions:\n        - \"Pending\" - means the next price update hasn't happened or been enacted on by the updateSystemState function.\n        - \"Confirmed\" - means the next price has been updated by the updateSystemState function. There is still outstanding (lazy) computation that needs to be executed per user in the batch.\n        - \"Settled\" - there is no more computation left for the user.\n        - \"Non-existant\" - user has no next price actions.\n    This function returns a calculated value only in the case of 'confirmed' next price actions. It should return zero for all other types of next price actions.\n    */\n  function getUsersConfirmedButNotSettledBalance(\n    address user,\n    uint32 marketIndex,\n    bool isLong\n  ) external view override assertMarketExists(marketIndex) returns (uint256 pendingBalance) {\n    if (\n      userCurrentNextPriceUpdateIndex[marketIndex][user] != 0 &&\n      userCurrentNextPriceUpdateIndex[marketIndex][user] <= marketUpdateIndex[marketIndex]\n    ) {\n      // Update is still nextPrice but not past the next oracle update - display the amount the user would get if they executed immediately\n      uint256 amountPaymentTokenDeposited = userNextPriceDepositAmount[marketIndex][isLong][user];\n\n      uint256 syntheticTokenPrice = syntheticTokenPriceSnapshot[marketIndex][isLong][\n        marketUpdateIndex[marketIndex]\n      ];\n\n      uint256 tokens = _getAmountSynthToken(amountPaymentTokenDeposited, syntheticTokenPrice);\n\n      return tokens;\n    } else {\n      return 0;\n    }\n  }\n\n  function floor(uint256 a, uint256 b) internal pure returns (uint256) {\n    if (a > b) {\n      return b;\n    } else {\n      return a;\n    }\n  }\n\n  /**\n   * Returns the amount of accrued value that should go to each side of the\n   * market. To incentivise balance, more value goes to the weaker side in\n   * proportion to how imbalanced the market is.\n   */\n  function _getYieldSplit(\n    uint256 longValue,\n    uint256 shortValue,\n    uint256 totalValueLockedInMarket\n  ) internal view returns (bool isLongSideUnderbalanced, uint256 treasuryPercentE18) {\n    isLongSideUnderbalanced = longValue < shortValue;\n    uint256 imbalance;\n    if (isLongSideUnderbalanced) {\n      imbalance = shortValue - longValue;\n    } else {\n      imbalance = longValue - shortValue;\n    }\n\n    // This gradient/slope can be adjusted, it is in base 10^18\n    uint256 marketTreasurySplitSlopE18 = 1e18;\n\n    uint256 marketPercentCalculatedE18 = (imbalance * marketTreasurySplitSlopE18) /\n      totalValueLockedInMarket;\n\n    uint256 marketPercentE18 = floor(marketPercentCalculatedE18, 1e18);\n\n    treasuryPercentE18 = 1e18 - marketPercentE18;\n  }\n\n  /*\n             HELPER FUNCTIONS       \n      */\n\n  /**\n   * Controls what happens with accrued yield manager interest.\n   */\n  function _claimAndDistributeYield(uint32 marketIndex) internal {\n    uint256 longValue = syntheticTokenPoolValue[marketIndex][true];\n    uint256 shortValue = syntheticTokenPoolValue[marketIndex][false];\n    uint256 totalValueLockedInMarket = longValue + shortValue;\n\n    (bool isLongSideUnderbalanced, uint256 treasuryYieldPercentE18) = _getYieldSplit(\n      longValue,\n      shortValue,\n      totalValueLockedInMarket\n    );\n\n    uint256 marketAmount = yieldManagers[marketIndex].distributeYieldForTreasuryAndReturnMarketAllocation(\n      totalValueLockedInMarket,\n      treasuryYieldPercentE18\n    );\n\n    if (marketAmount > 0) {\n      syntheticTokenPoolValue[marketIndex][isLongSideUnderbalanced] += marketAmount;\n    }\n  }\n\n  function _adjustMarketBasedOnNewAssetPrice(uint32 marketIndex, int256 newAssetPrice) internal {\n    int256 oldAssetPrice = int256(assetPrice[marketIndex]);\n\n    uint256 min;\n    if (syntheticTokenPoolValue[marketIndex][true] < syntheticTokenPoolValue[marketIndex][false]) {\n      min = syntheticTokenPoolValue[marketIndex][true];\n    } else {\n      min = syntheticTokenPoolValue[marketIndex][false];\n    }\n\n    int256 percentageChangeE18 = ((newAssetPrice - oldAssetPrice) * 1e18) / oldAssetPrice;\n\n    int256 valueChange = (percentageChangeE18 * int256(min)) / 1e18;\n\n    if (valueChange > 0) {\n      syntheticTokenPoolValue[marketIndex][true] += uint256(valueChange);\n      syntheticTokenPoolValue[marketIndex][false] -= uint256(valueChange);\n    } else {\n      syntheticTokenPoolValue[marketIndex][true] -= uint256(valueChange * -1);\n      syntheticTokenPoolValue[marketIndex][false] += uint256(valueChange * -1);\n    }\n\n    emit PriceUpdate(marketIndex, assetPrice[marketIndex], uint256(newAssetPrice), msg.sender);\n  }\n\n  function _saveSyntheticTokenPriceSnapshots(\n    uint32 marketIndex,\n    uint256 newLatestPriceStateIndex,\n    uint256 syntheticTokenPriceLong,\n    uint256 syntheticTokenPriceShort\n  ) internal {\n    syntheticTokenPriceSnapshot[marketIndex][true][\n      newLatestPriceStateIndex\n    ] = syntheticTokenPriceLong;\n\n    syntheticTokenPriceSnapshot[marketIndex][false][\n      newLatestPriceStateIndex\n    ] = syntheticTokenPriceShort;\n  }\n\n  /*\n           UPDATING SYSTEM STATE     \n      */\n\n  /**\n   * Updates the value of the long and short sides within the system.\n   */\n  function _updateSystemStateInternal(uint32 marketIndex) internal assertMarketExists(marketIndex) {\n    // If a negative int is return this should fail.\n    int256 newAssetPrice = oracleManagers[marketIndex].updatePrice();\n    int256 oldAssetPrice = int256(assetPrice[marketIndex]);\n\n    bool assetPriceChanged = oldAssetPrice != newAssetPrice;\n\n    if (assetPriceChanged || msg.sender == address(staker)) {\n      uint256 syntheticTokenPriceLong = syntheticTokenPriceSnapshot[marketIndex][true][\n        marketUpdateIndex[marketIndex]\n      ];\n      uint256 syntheticTokenPriceShort = syntheticTokenPriceSnapshot[marketIndex][false][\n        marketUpdateIndex[marketIndex]\n      ];\n      staker.addNewStateForFloatRewards(\n        marketIndex,\n        syntheticTokenPriceLong,\n        syntheticTokenPriceShort,\n        syntheticTokenPoolValue[marketIndex][true],\n        syntheticTokenPoolValue[marketIndex][false]\n      );\n\n      if (!assetPriceChanged) {\n        return;\n      }\n\n      _claimAndDistributeYield(marketIndex);\n      _adjustMarketBasedOnNewAssetPrice(marketIndex, newAssetPrice);\n\n      syntheticTokenPriceLong = _recalculateSyntheticTokenPrice(marketIndex, true);\n      syntheticTokenPriceShort = _recalculateSyntheticTokenPrice(marketIndex, false);\n\n      assetPrice[marketIndex] = uint256(newAssetPrice);\n      marketUpdateIndex[marketIndex] += 1;\n\n      _saveSyntheticTokenPriceSnapshots(\n        marketIndex,\n        marketUpdateIndex[marketIndex],\n        syntheticTokenPriceLong,\n        syntheticTokenPriceShort\n      );\n      _performOustandingSettlements(\n        marketIndex,\n        marketUpdateIndex[marketIndex],\n        syntheticTokenPriceLong,\n        syntheticTokenPriceShort\n      );\n\n      emit SystemStateUpdated(\n        marketIndex,\n        marketUpdateIndex[marketIndex],\n        newAssetPrice,\n        syntheticTokenPoolValue[marketIndex][true],\n        syntheticTokenPoolValue[marketIndex][false],\n        syntheticTokenPriceLong,\n        syntheticTokenPriceShort\n      );\n    }\n  }\n\n  function updateSystemState(uint32 marketIndex) external override {\n    _updateSystemStateInternal(marketIndex);\n  }\n\n  function updateSystemStateMulti(uint32[] calldata marketIndexes) external override {\n    for (uint256 i = 0; i < marketIndexes.length; i++) {\n      _updateSystemStateInternal(marketIndexes[i]);\n    }\n  }\n\n  /*\n            DEPOSIT + WITHDRAWAL      \n      */\n\n  function _depositFunds(uint32 marketIndex, uint256 amount) internal {\n    paymentTokens[marketIndex].transferFrom(msg.sender, address(this), amount);\n  }\n\n  // NOTE: Only used in seeding the market.\n  function _lockFundsInMarket(uint32 marketIndex, uint256 amount) internal {\n    _depositFunds(marketIndex, amount);\n    _transferFundsToYieldManager(marketIndex, amount);\n  }\n\n  /*\n   * Returns locked funds from the market to the sender.\n   */\n  // TODO STENT only called in 1 place: _handleBatchedRedeemSettlement\n  function _withdrawFunds(\n    uint32 marketIndex,\n    uint256 amountLong,\n    uint256 amountShort,\n    address user\n  ) internal {\n    uint256 totalAmount = amountLong + amountShort;\n\n    if (totalAmount == 0) {\n      return;\n    }\n\n    assert(\n      syntheticTokenPoolValue[marketIndex][true] >= amountLong &&\n        syntheticTokenPoolValue[marketIndex][false] >= amountShort\n    );\n\n    _transferFromYieldManager(marketIndex, totalAmount);\n\n    // Transfer funds to the sender.\n    paymentTokens[marketIndex].transfer(user, totalAmount);\n\n    syntheticTokenPoolValue[marketIndex][true] -= amountLong;\n    syntheticTokenPoolValue[marketIndex][false] -= amountShort;\n  }\n\n  function _burnSynthTokensForRedemption(\n    uint32 marketIndex,\n    uint256 amountSynthToRedeemLong,\n    uint256 amountSynthToRedeemShort\n  ) internal {\n    if (amountSynthToRedeemLong > 0) {\n      syntheticTokens[marketIndex][true].synthRedeemBurn(address(this), amountSynthToRedeemLong);\n    }\n\n    if (amountSynthToRedeemShort > 0) {\n      syntheticTokens[marketIndex][false].synthRedeemBurn(address(this), amountSynthToRedeemShort);\n    }\n  }\n\n  /*\n           TREASURY + YIELD MANAGER     \n      */\n\n  /*\n   * Transfers locked funds from LongShort into the yield manager.\n   */\n  function _transferFundsToYieldManager(uint32 marketIndex, uint256 amount) internal {\n    yieldManagers[marketIndex].depositPaymentToken(amount);\n  }\n\n  /*\n   * Transfers locked funds from the yield manager into LongShort.\n   */\n  function _transferFromYieldManager(uint32 marketIndex, uint256 amount) internal {\n    // NB there will be issues here if not enough liquidity exists to withdraw\n    // Boolean should be returned from yield manager and think how to appropriately handle this\n    yieldManagers[marketIndex].withdrawPaymentToken(amount);\n  }\n\n  /*\n             MINT POSITION       \n      */\n\n  function _mintNextPrice(\n    uint32 marketIndex,\n    uint256 amount,\n    bool isLong\n  )\n    internal\n    updateSystemStateMarket(marketIndex)\n    executeOutstandingNextPriceSettlements(msg.sender, marketIndex)\n  {\n    _depositFunds(marketIndex, amount);\n\n    batchedAmountOfTokensToDeposit[marketIndex][isLong] += amount;\n    userNextPriceDepositAmount[marketIndex][isLong][msg.sender] += amount;\n    userCurrentNextPriceUpdateIndex[marketIndex][msg.sender] = marketUpdateIndex[marketIndex] + 1;\n\n    emit NextPriceDeposit(\n      marketIndex,\n      isLong,\n      amount,\n      msg.sender,\n      marketUpdateIndex[marketIndex] + 1\n    );\n  }\n\n  function mintLongNextPrice(uint32 marketIndex, uint256 amount) external {\n    _mintNextPrice(marketIndex, amount, true);\n  }\n\n  function mintShortNextPrice(uint32 marketIndex, uint256 amount) external {\n    _mintNextPrice(marketIndex, amount, false);\n  }\n\n  /*\n            REDEEM POSITION      \n      */\n\n  function _redeemNextPrice(\n    uint32 marketIndex,\n    uint256 tokensToRedeem,\n    bool isLong\n  )\n    internal\n    updateSystemStateMarket(marketIndex)\n    executeOutstandingNextPriceSettlements(msg.sender, marketIndex)\n  {\n    syntheticTokens[marketIndex][isLong].transferFrom(msg.sender, address(this), tokensToRedeem);\n\n    userNextPriceRedemptionAmount[marketIndex][isLong][msg.sender] += tokensToRedeem;\n    userCurrentNextPriceUpdateIndex[marketIndex][msg.sender] = marketUpdateIndex[marketIndex] + 1;\n\n    batchedAmountOfSynthTokensToRedeem[marketIndex][isLong] += tokensToRedeem;\n\n    emit NextPriceRedeem(\n      marketIndex,\n      isLong,\n      tokensToRedeem,\n      msg.sender,\n      marketUpdateIndex[marketIndex] + 1\n    );\n  }\n\n  function redeemLongNextPrice(uint32 marketIndex, uint256 tokensToRedeem) external {\n    _redeemNextPrice(marketIndex, tokensToRedeem, true);\n  }\n\n  function redeemShortNextPrice(uint32 marketIndex, uint256 tokensToRedeem) external {\n    _redeemNextPrice(marketIndex, tokensToRedeem, false);\n  }\n\n  /*\n           NEXT PRICE SETTLEMENTS     \n      */\n\n  function _executeNextPriceMintsIfTheyExist(\n    uint32 marketIndex,\n    address user,\n    bool isLong\n  ) internal {\n    uint256 currentDepositAmount = userNextPriceDepositAmount[marketIndex][isLong][user];\n    if (currentDepositAmount > 0) {\n      userNextPriceDepositAmount[marketIndex][isLong][user] = 0;\n      uint256 tokensToTransferToUser = _getAmountSynthToken(\n        currentDepositAmount,\n        syntheticTokenPriceSnapshot[marketIndex][isLong][\n          userCurrentNextPriceUpdateIndex[marketIndex][user]\n        ]\n      );\n      syntheticTokens[marketIndex][isLong].transfer(user, tokensToTransferToUser);\n\n      emit ExecuteNextPriceMintSettlementUser(user, marketIndex, isLong, tokensToTransferToUser);\n    }\n  }\n\n  function _executeOutstandingNextPriceRedeems(\n    uint32 marketIndex,\n    address user,\n    bool isLong\n  ) internal {\n    uint256 currentRedemptions = userNextPriceRedemptionAmount[marketIndex][isLong][user];\n    if (currentRedemptions > 0) {\n      userNextPriceRedemptionAmount[marketIndex][isLong][user] = 0;\n      uint256 amountToRedeem = _getAmountPaymentToken(\n        currentRedemptions,\n        syntheticTokenPriceSnapshot[marketIndex][isLong][\n          userCurrentNextPriceUpdateIndex[marketIndex][user]\n        ]\n      );\n      paymentTokens[marketIndex].transfer(user, amountToRedeem);\n      emit ExecuteNextPriceRedeemSettlementUser(user, marketIndex, isLong, amountToRedeem);\n    }\n  }\n\n  function _executeOutstandingNextPriceSettlements(address user, uint32 marketIndex) internal {\n    uint256 currentUpdateIndex = userCurrentNextPriceUpdateIndex[marketIndex][user];\n    if (currentUpdateIndex != 0 && currentUpdateIndex <= marketUpdateIndex[marketIndex]) {\n      _executeNextPriceMintsIfTheyExist(marketIndex, user, true);\n      _executeNextPriceMintsIfTheyExist(marketIndex, user, false);\n      _executeOutstandingNextPriceRedeems(marketIndex, user, true);\n      _executeOutstandingNextPriceRedeems(marketIndex, user, false);\n\n      userCurrentNextPriceUpdateIndex[marketIndex][user] = 0;\n\n      emit ExecuteNextPriceSettlementsUser(user, marketIndex);\n    }\n  }\n\n  function executeOutstandingNextPriceSettlementsUser(address user, uint32 marketIndex)\n    external\n    override\n  {\n    _executeOutstandingNextPriceSettlements(user, marketIndex);\n  }\n\n  /*\n         BATCHED NEXT PRICE SETTLEMENT ACTIONS   \n      */\n\n  function _performOustandingSettlements(\n    uint32 marketIndex,\n    uint256 newLatestPriceStateIndex,\n    uint256 syntheticTokenPriceLong,\n    uint256 syntheticTokenPriceShort\n  ) internal {\n    _handleBatchedDepositSettlement(marketIndex, true, syntheticTokenPriceLong);\n    _handleBatchedDepositSettlement(marketIndex, false, syntheticTokenPriceShort);\n    _handleBatchedRedeemSettlement(marketIndex, syntheticTokenPriceLong, syntheticTokenPriceShort);\n  }\n\n  function _handleBatchedDepositSettlement(\n    uint32 marketIndex,\n    bool isLong,\n    uint256 syntheticTokenPrice\n  ) internal {\n    uint256 amountToBatchDeposit = batchedAmountOfTokensToDeposit[marketIndex][isLong];\n\n    if (amountToBatchDeposit > 0) {\n      batchedAmountOfTokensToDeposit[marketIndex][isLong] = 0;\n      _transferFundsToYieldManager(marketIndex, amountToBatchDeposit);\n\n      uint256 numberOfTokens = _getAmountSynthToken(amountToBatchDeposit, syntheticTokenPrice);\n\n      syntheticTokens[marketIndex][isLong].mint(address(this), numberOfTokens);\n\n      syntheticTokenPoolValue[marketIndex][isLong] += amountToBatchDeposit;\n    }\n  }\n\n  function _handleBatchedRedeemSettlement(\n    uint32 marketIndex,\n    uint256 syntheticTokenPriceLong,\n    uint256 syntheticTokenPriceShort\n  ) internal {\n    _burnSynthTokensForRedemption(\n      marketIndex,\n      batchedAmountOfSynthTokensToRedeem[marketIndex][true],\n      batchedAmountOfSynthTokensToRedeem[marketIndex][false]\n    );\n\n    uint256 longAmountOfPaymentTokenToRedeem = _getAmountPaymentToken(\n      batchedAmountOfSynthTokensToRedeem[marketIndex][true],\n      syntheticTokenPriceLong\n    );\n    uint256 shortAmountOfPaymentTokenToRedeem = _getAmountPaymentToken(\n      batchedAmountOfSynthTokensToRedeem[marketIndex][false],\n      syntheticTokenPriceShort\n    );\n\n    batchedAmountOfSynthTokensToRedeem[marketIndex][true] = 0;\n    batchedAmountOfSynthTokensToRedeem[marketIndex][false] = 0;\n\n    _withdrawFunds(\n      marketIndex,\n      longAmountOfPaymentTokenToRedeem,\n      shortAmountOfPaymentTokenToRedeem,\n      address(this)\n    );\n  }\n}\n",
  "sourcePath": "/home/jasoons/Documents/code/monorepo/contracts/contracts/LongShort.sol",
  "compiler": {
    "name": "solc",
    "version": "0.8.3+commit.8d00100c.Emscripten.clang"
  },
  "schemaVersion": "3.3.4",
  "updatedAt": "2021-07-12T15:23:44.613Z",
  "networkType": "ethereum",
  "devdoc": {
    "kind": "dev",
    "methods": {},
    "version": 1
  },
  "userdoc": {
    "kind": "user",
    "methods": {
      "newSyntheticMarket(string,string,address,address,address)": {
        "notice": "Creates an entirely new long/short market tracking an underlying oracle price. Make sure the synthetic names/symbols are unique."
      },
      "updateMarketOracle(uint32,address)": {
        "notice": "Update oracle for a market"
      }
    },
    "notice": "**** visit https://float.capital *****",
    "version": 1
  }
}