{
  "contractName": "LongShort",
  "abi": [
    {
      "anonymous": false,
      "inputs": [
        {
          "indexed": false,
          "internalType": "address",
          "name": "user",
          "type": "address"
        },
        {
          "indexed": false,
          "internalType": "uint32",
          "name": "marketIndex",
          "type": "uint32"
        }
      ],
      "name": "ExecuteNextPriceSettlementsUser",
      "type": "event"
    },
    {
      "anonymous": false,
      "inputs": [
        {
          "indexed": false,
          "internalType": "uint32",
          "name": "marketIndex",
          "type": "uint32"
        },
        {
          "indexed": false,
          "internalType": "uint256",
          "name": "baseEntryFee",
          "type": "uint256"
        },
        {
          "indexed": false,
          "internalType": "uint256",
          "name": "badLiquidityEntryFee",
          "type": "uint256"
        },
        {
          "indexed": false,
          "internalType": "uint256",
          "name": "baseExitFee",
          "type": "uint256"
        },
        {
          "indexed": false,
          "internalType": "uint256",
          "name": "badLiquidityExitFee",
          "type": "uint256"
        }
      ],
      "name": "FeesChanges",
      "type": "event"
    },
    {
      "anonymous": false,
      "inputs": [
        {
          "indexed": false,
          "internalType": "uint32",
          "name": "marketIndex",
          "type": "uint32"
        },
        {
          "indexed": false,
          "internalType": "uint256",
          "name": "totalFees",
          "type": "uint256"
        }
      ],
      "name": "FeesLevied",
      "type": "event"
    },
    {
      "anonymous": false,
      "inputs": [
        {
          "indexed": false,
          "internalType": "uint32",
          "name": "marketIndex",
          "type": "uint32"
        },
        {
          "indexed": false,
          "internalType": "uint256",
          "name": "initialSeed",
          "type": "uint256"
        }
      ],
      "name": "NewMarketLaunchedAndSeeded",
      "type": "event"
    },
    {
      "anonymous": false,
      "inputs": [
        {
          "indexed": false,
          "internalType": "uint32",
          "name": "marketIndex",
          "type": "uint32"
        },
        {
          "indexed": false,
          "internalType": "bool",
          "name": "isLong",
          "type": "bool"
        },
        {
          "indexed": false,
          "internalType": "uint256",
          "name": "depositAdded",
          "type": "uint256"
        },
        {
          "indexed": false,
          "internalType": "address",
          "name": "user",
          "type": "address"
        },
        {
          "indexed": false,
          "internalType": "uint256",
          "name": "oracleUpdateIndex",
          "type": "uint256"
        }
      ],
      "name": "NextPriceDeposit",
      "type": "event"
    },
    {
      "anonymous": false,
      "inputs": [
        {
          "indexed": false,
          "internalType": "uint32",
          "name": "marketIndex",
          "type": "uint32"
        },
        {
          "indexed": false,
          "internalType": "bool",
          "name": "isLong",
          "type": "bool"
        },
        {
          "indexed": false,
          "internalType": "uint256",
          "name": "synthRedeemed",
          "type": "uint256"
        },
        {
          "indexed": false,
          "internalType": "address",
          "name": "user",
          "type": "address"
        },
        {
          "indexed": false,
          "internalType": "uint256",
          "name": "oracleUpdateIndex",
          "type": "uint256"
        }
      ],
      "name": "NextPriceRedeem",
      "type": "event"
    },
    {
      "anonymous": false,
      "inputs": [
        {
          "indexed": false,
          "internalType": "uint32",
          "name": "marketIndex",
          "type": "uint32"
        },
        {
          "indexed": false,
          "internalType": "address",
          "name": "oldOracleAddress",
          "type": "address"
        },
        {
          "indexed": false,
          "internalType": "address",
          "name": "newOracleAddress",
          "type": "address"
        }
      ],
      "name": "OracleUpdated",
      "type": "event"
    },
    {
      "anonymous": false,
      "inputs": [
        {
          "indexed": false,
          "internalType": "uint32",
          "name": "marketIndex",
          "type": "uint32"
        },
        {
          "indexed": false,
          "internalType": "uint256",
          "name": "oldPrice",
          "type": "uint256"
        },
        {
          "indexed": false,
          "internalType": "uint256",
          "name": "newPrice",
          "type": "uint256"
        },
        {
          "indexed": false,
          "internalType": "address",
          "name": "user",
          "type": "address"
        }
      ],
      "name": "PriceUpdate",
      "type": "event"
    },
    {
      "anonymous": false,
      "inputs": [
        {
          "indexed": false,
          "internalType": "uint32",
          "name": "marketIndex",
          "type": "uint32"
        },
        {
          "indexed": false,
          "internalType": "address",
          "name": "longTokenAddress",
          "type": "address"
        },
        {
          "indexed": false,
          "internalType": "address",
          "name": "shortTokenAddress",
          "type": "address"
        },
        {
          "indexed": false,
          "internalType": "address",
          "name": "fundToken",
          "type": "address"
        },
        {
          "indexed": false,
          "internalType": "uint256",
          "name": "assetPrice",
          "type": "uint256"
        },
        {
          "indexed": false,
          "internalType": "string",
          "name": "name",
          "type": "string"
        },
        {
          "indexed": false,
          "internalType": "string",
          "name": "symbol",
          "type": "string"
        },
        {
          "indexed": false,
          "internalType": "address",
          "name": "oracleAddress",
          "type": "address"
        }
      ],
      "name": "SyntheticTokenCreated",
      "type": "event"
    },
    {
      "anonymous": false,
      "inputs": [
        {
          "indexed": false,
          "internalType": "uint32",
          "name": "marketIndex",
          "type": "uint32"
        },
        {
          "indexed": false,
          "internalType": "uint256",
          "name": "updateIndex",
          "type": "uint256"
        },
        {
          "indexed": false,
          "internalType": "uint256",
          "name": "longValue",
          "type": "uint256"
        },
        {
          "indexed": false,
          "internalType": "uint256",
          "name": "shortValue",
          "type": "uint256"
        },
        {
          "indexed": false,
          "internalType": "uint256",
          "name": "longPrice",
          "type": "uint256"
        },
        {
          "indexed": false,
          "internalType": "uint256",
          "name": "shortPrice",
          "type": "uint256"
        }
      ],
      "name": "SystemStateUpdated",
      "type": "event"
    },
    {
      "anonymous": false,
      "inputs": [
        {
          "indexed": false,
          "internalType": "address",
          "name": "admin",
          "type": "address"
        },
        {
          "indexed": false,
          "internalType": "address",
          "name": "treasury",
          "type": "address"
        },
        {
          "indexed": false,
          "internalType": "address",
          "name": "tokenFactory",
          "type": "address"
        },
        {
          "indexed": false,
          "internalType": "address",
          "name": "staker",
          "type": "address"
        }
      ],
      "name": "V1",
      "type": "event"
    },
    {
      "inputs": [],
      "name": "DEAD_ADDRESS",
      "outputs": [
        {
          "internalType": "address",
          "name": "",
          "type": "address"
        }
      ],
      "stateMutability": "view",
      "type": "function",
      "constant": true
    },
    {
      "inputs": [],
      "name": "TEN_TO_THE_18",
      "outputs": [
        {
          "internalType": "uint256",
          "name": "",
          "type": "uint256"
        }
      ],
      "stateMutability": "view",
      "type": "function",
      "constant": true
    },
    {
      "inputs": [],
      "name": "TEN_TO_THE_18_SIGNED",
      "outputs": [
        {
          "internalType": "int256",
          "name": "",
          "type": "int256"
        }
      ],
      "stateMutability": "view",
      "type": "function",
      "constant": true
    },
    {
      "inputs": [],
      "name": "TEN_TO_THE_5",
      "outputs": [
        {
          "internalType": "uint256",
          "name": "",
          "type": "uint256"
        }
      ],
      "stateMutability": "view",
      "type": "function",
      "constant": true
    },
    {
      "inputs": [],
      "name": "admin",
      "outputs": [
        {
          "internalType": "address",
          "name": "",
          "type": "address"
        }
      ],
      "stateMutability": "view",
      "type": "function",
      "constant": true
    },
    {
      "inputs": [
        {
          "internalType": "uint32",
          "name": "",
          "type": "uint32"
        }
      ],
      "name": "assetPrice",
      "outputs": [
        {
          "internalType": "uint256",
          "name": "",
          "type": "uint256"
        }
      ],
      "stateMutability": "view",
      "type": "function",
      "constant": true
    },
    {
      "inputs": [
        {
          "internalType": "uint32",
          "name": "",
          "type": "uint32"
        }
      ],
      "name": "badLiquidityEntryFee",
      "outputs": [
        {
          "internalType": "uint256",
          "name": "",
          "type": "uint256"
        }
      ],
      "stateMutability": "view",
      "type": "function",
      "constant": true
    },
    {
      "inputs": [
        {
          "internalType": "uint32",
          "name": "",
          "type": "uint32"
        }
      ],
      "name": "badLiquidityExitFee",
      "outputs": [
        {
          "internalType": "uint256",
          "name": "",
          "type": "uint256"
        }
      ],
      "stateMutability": "view",
      "type": "function",
      "constant": true
    },
    {
      "inputs": [
        {
          "internalType": "uint32",
          "name": "",
          "type": "uint32"
        }
      ],
      "name": "baseEntryFee",
      "outputs": [
        {
          "internalType": "uint256",
          "name": "",
          "type": "uint256"
        }
      ],
      "stateMutability": "view",
      "type": "function",
      "constant": true
    },
    {
      "inputs": [
        {
          "internalType": "uint32",
          "name": "",
          "type": "uint32"
        }
      ],
      "name": "baseExitFee",
      "outputs": [
        {
          "internalType": "uint256",
          "name": "",
          "type": "uint256"
        }
      ],
      "stateMutability": "view",
      "type": "function",
      "constant": true
    },
    {
      "inputs": [
        {
          "internalType": "uint32",
          "name": "",
          "type": "uint32"
        },
        {
          "internalType": "bool",
          "name": "",
          "type": "bool"
        }
      ],
      "name": "batchedAmountOfSynthTokensToRedeem",
      "outputs": [
        {
          "internalType": "uint256",
          "name": "",
          "type": "uint256"
        }
      ],
      "stateMutability": "view",
      "type": "function",
      "constant": true
    },
    {
      "inputs": [
        {
          "internalType": "uint32",
          "name": "",
          "type": "uint32"
        },
        {
          "internalType": "bool",
          "name": "",
          "type": "bool"
        }
      ],
      "name": "batchedAmountOfTokensToDeposit",
      "outputs": [
        {
          "internalType": "uint256",
          "name": "",
          "type": "uint256"
        }
      ],
      "stateMutability": "view",
      "type": "function",
      "constant": true
    },
    {
      "inputs": [
        {
          "internalType": "uint32",
          "name": "",
          "type": "uint32"
        }
      ],
      "name": "fundTokens",
      "outputs": [
        {
          "internalType": "contract IERC20",
          "name": "",
          "type": "address"
        }
      ],
      "stateMutability": "view",
      "type": "function",
      "constant": true
    },
    {
      "inputs": [],
      "name": "latestMarket",
      "outputs": [
        {
          "internalType": "uint32",
          "name": "",
          "type": "uint32"
        }
      ],
      "stateMutability": "view",
      "type": "function",
      "constant": true
    },
    {
      "inputs": [
        {
          "internalType": "uint32",
          "name": "",
          "type": "uint32"
        }
      ],
      "name": "marketExists",
      "outputs": [
        {
          "internalType": "bool",
          "name": "",
          "type": "bool"
        }
      ],
      "stateMutability": "view",
      "type": "function",
      "constant": true
    },
    {
      "inputs": [
        {
          "internalType": "uint32",
          "name": "",
          "type": "uint32"
        }
      ],
      "name": "marketUpdateIndex",
      "outputs": [
        {
          "internalType": "uint256",
          "name": "",
          "type": "uint256"
        }
      ],
      "stateMutability": "view",
      "type": "function",
      "constant": true
    },
    {
      "inputs": [
        {
          "internalType": "uint32",
          "name": "",
          "type": "uint32"
        }
      ],
      "name": "oracleManagers",
      "outputs": [
        {
          "internalType": "contract IOracleManager",
          "name": "",
          "type": "address"
        }
      ],
      "stateMutability": "view",
      "type": "function",
      "constant": true
    },
    {
      "inputs": [],
      "name": "staker",
      "outputs": [
        {
          "internalType": "contract IStaker",
          "name": "",
          "type": "address"
        }
      ],
      "stateMutability": "view",
      "type": "function",
      "constant": true
    },
    {
      "inputs": [
        {
          "internalType": "uint32",
          "name": "",
          "type": "uint32"
        },
        {
          "internalType": "bool",
          "name": "",
          "type": "bool"
        }
      ],
      "name": "syntheticTokenPoolValue",
      "outputs": [
        {
          "internalType": "uint256",
          "name": "",
          "type": "uint256"
        }
      ],
      "stateMutability": "view",
      "type": "function",
      "constant": true
    },
    {
      "inputs": [
        {
          "internalType": "uint32",
          "name": "",
          "type": "uint32"
        },
        {
          "internalType": "bool",
          "name": "",
          "type": "bool"
        },
        {
          "internalType": "uint256",
          "name": "",
          "type": "uint256"
        }
      ],
      "name": "syntheticTokenPriceSnapshot",
      "outputs": [
        {
          "internalType": "uint256",
          "name": "",
          "type": "uint256"
        }
      ],
      "stateMutability": "view",
      "type": "function",
      "constant": true
    },
    {
      "inputs": [
        {
          "internalType": "uint32",
          "name": "",
          "type": "uint32"
        },
        {
          "internalType": "bool",
          "name": "",
          "type": "bool"
        }
      ],
      "name": "syntheticTokens",
      "outputs": [
        {
          "internalType": "contract ISyntheticToken",
          "name": "",
          "type": "address"
        }
      ],
      "stateMutability": "view",
      "type": "function",
      "constant": true
    },
    {
      "inputs": [],
      "name": "tokenFactory",
      "outputs": [
        {
          "internalType": "contract ITokenFactory",
          "name": "",
          "type": "address"
        }
      ],
      "stateMutability": "view",
      "type": "function",
      "constant": true
    },
    {
      "inputs": [],
      "name": "treasury",
      "outputs": [
        {
          "internalType": "address",
          "name": "",
          "type": "address"
        }
      ],
      "stateMutability": "view",
      "type": "function",
      "constant": true
    },
    {
      "inputs": [
        {
          "internalType": "uint32",
          "name": "",
          "type": "uint32"
        },
        {
          "internalType": "address",
          "name": "",
          "type": "address"
        }
      ],
      "name": "userCurrentNextPriceUpdateIndex",
      "outputs": [
        {
          "internalType": "uint256",
          "name": "",
          "type": "uint256"
        }
      ],
      "stateMutability": "view",
      "type": "function",
      "constant": true
    },
    {
      "inputs": [
        {
          "internalType": "uint32",
          "name": "",
          "type": "uint32"
        },
        {
          "internalType": "bool",
          "name": "",
          "type": "bool"
        },
        {
          "internalType": "address",
          "name": "",
          "type": "address"
        }
      ],
      "name": "userNextPriceDepositAmount",
      "outputs": [
        {
          "internalType": "uint256",
          "name": "",
          "type": "uint256"
        }
      ],
      "stateMutability": "view",
      "type": "function",
      "constant": true
    },
    {
      "inputs": [
        {
          "internalType": "uint32",
          "name": "",
          "type": "uint32"
        },
        {
          "internalType": "bool",
          "name": "",
          "type": "bool"
        },
        {
          "internalType": "address",
          "name": "",
          "type": "address"
        }
      ],
      "name": "userNextPriceRedemptionAmount",
      "outputs": [
        {
          "internalType": "uint256",
          "name": "",
          "type": "uint256"
        }
      ],
      "stateMutability": "view",
      "type": "function",
      "constant": true
    },
    {
      "inputs": [
        {
          "internalType": "uint32",
          "name": "",
          "type": "uint32"
        }
      ],
      "name": "yieldManagers",
      "outputs": [
        {
          "internalType": "contract IYieldManager",
          "name": "",
          "type": "address"
        }
      ],
      "stateMutability": "view",
      "type": "function",
      "constant": true
    },
    {
      "inputs": [
        {
          "internalType": "address",
          "name": "_admin",
          "type": "address"
        },
        {
          "internalType": "address",
          "name": "_treasury",
          "type": "address"
        },
        {
          "internalType": "contract ITokenFactory",
          "name": "_tokenFactory",
          "type": "address"
        },
        {
          "internalType": "contract IStaker",
          "name": "_staker",
          "type": "address"
        }
      ],
      "name": "initialize",
      "outputs": [],
      "stateMutability": "nonpayable",
      "type": "function"
    },
    {
      "inputs": [
        {
          "internalType": "address",
          "name": "_admin",
          "type": "address"
        }
      ],
      "name": "changeAdmin",
      "outputs": [],
      "stateMutability": "nonpayable",
      "type": "function"
    },
    {
      "inputs": [
        {
          "internalType": "address",
          "name": "_treasury",
          "type": "address"
        }
      ],
      "name": "changeTreasury",
      "outputs": [],
      "stateMutability": "nonpayable",
      "type": "function"
    },
    {
      "inputs": [
        {
          "internalType": "uint32",
          "name": "marketIndex",
          "type": "uint32"
        },
        {
          "internalType": "uint256",
          "name": "_baseEntryFee",
          "type": "uint256"
        },
        {
          "internalType": "uint256",
          "name": "_badLiquidityEntryFee",
          "type": "uint256"
        },
        {
          "internalType": "uint256",
          "name": "_baseExitFee",
          "type": "uint256"
        },
        {
          "internalType": "uint256",
          "name": "_badLiquidityExitFee",
          "type": "uint256"
        }
      ],
      "name": "changeFees",
      "outputs": [],
      "stateMutability": "nonpayable",
      "type": "function"
    },
    {
      "inputs": [
        {
          "internalType": "uint32",
          "name": "marketIndex",
          "type": "uint32"
        },
        {
          "internalType": "address",
          "name": "_newOracleManager",
          "type": "address"
        }
      ],
      "name": "updateMarketOracle",
      "outputs": [],
      "stateMutability": "nonpayable",
      "type": "function"
    },
    {
      "inputs": [
        {
          "internalType": "string",
          "name": "syntheticName",
          "type": "string"
        },
        {
          "internalType": "string",
          "name": "syntheticSymbol",
          "type": "string"
        },
        {
          "internalType": "address",
          "name": "_fundToken",
          "type": "address"
        },
        {
          "internalType": "address",
          "name": "_oracleManager",
          "type": "address"
        },
        {
          "internalType": "address",
          "name": "_yieldManager",
          "type": "address"
        }
      ],
      "name": "newSyntheticMarket",
      "outputs": [],
      "stateMutability": "nonpayable",
      "type": "function"
    },
    {
      "inputs": [
        {
          "internalType": "uint32",
          "name": "marketIndex",
          "type": "uint32"
        },
        {
          "internalType": "uint256",
          "name": "_baseEntryFee",
          "type": "uint256"
        },
        {
          "internalType": "uint256",
          "name": "_badLiquidityEntryFee",
          "type": "uint256"
        },
        {
          "internalType": "uint256",
          "name": "_baseExitFee",
          "type": "uint256"
        },
        {
          "internalType": "uint256",
          "name": "_badLiquidityExitFee",
          "type": "uint256"
        },
        {
          "internalType": "uint256",
          "name": "kInitialMultiplier",
          "type": "uint256"
        },
        {
          "internalType": "uint256",
          "name": "kPeriod",
          "type": "uint256"
        },
        {
          "internalType": "uint256",
          "name": "initialMarketSeed",
          "type": "uint256"
        }
      ],
      "name": "initializeMarket",
      "outputs": [],
      "stateMutability": "nonpayable",
      "type": "function"
    },
    {
      "inputs": [
        {
          "internalType": "address",
          "name": "user",
          "type": "address"
        },
        {
          "internalType": "uint32",
          "name": "marketIndex",
          "type": "uint32"
        },
        {
          "internalType": "bool",
          "name": "isLong",
          "type": "bool"
        }
      ],
      "name": "getUsersPendingBalance",
      "outputs": [
        {
          "internalType": "uint256",
          "name": "pendingBalance",
          "type": "uint256"
        }
      ],
      "stateMutability": "view",
      "type": "function",
      "constant": true
    },
    {
      "inputs": [
        {
          "internalType": "uint32",
          "name": "marketIndex",
          "type": "uint32"
        }
      ],
      "name": "getMarketPcntForTreasuryVsMarketSplit",
      "outputs": [
        {
          "internalType": "uint256",
          "name": "marketPcntE5",
          "type": "uint256"
        }
      ],
      "stateMutability": "view",
      "type": "function",
      "constant": true
    },
    {
      "inputs": [
        {
          "internalType": "uint32",
          "name": "marketIndex",
          "type": "uint32"
        },
        {
          "internalType": "uint256",
          "name": "amount",
          "type": "uint256"
        }
      ],
      "name": "getTreasurySplit",
      "outputs": [
        {
          "internalType": "uint256",
          "name": "marketAmount",
          "type": "uint256"
        },
        {
          "internalType": "uint256",
          "name": "treasuryAmount",
          "type": "uint256"
        }
      ],
      "stateMutability": "view",
      "type": "function",
      "constant": true
    },
    {
      "inputs": [
        {
          "internalType": "uint32",
          "name": "marketIndex",
          "type": "uint32"
        }
      ],
      "name": "getLongPcntForLongVsShortSplit",
      "outputs": [
        {
          "internalType": "uint256",
          "name": "longPcntE5",
          "type": "uint256"
        }
      ],
      "stateMutability": "view",
      "type": "function",
      "constant": true
    },
    {
      "inputs": [
        {
          "internalType": "uint32",
          "name": "marketIndex",
          "type": "uint32"
        },
        {
          "internalType": "uint256",
          "name": "amount",
          "type": "uint256"
        }
      ],
      "name": "getMarketSplit",
      "outputs": [
        {
          "internalType": "uint256",
          "name": "longAmount",
          "type": "uint256"
        },
        {
          "internalType": "uint256",
          "name": "shortAmount",
          "type": "uint256"
        }
      ],
      "stateMutability": "view",
      "type": "function",
      "constant": true
    },
    {
      "inputs": [
        {
          "internalType": "uint32",
          "name": "marketIndex",
          "type": "uint32"
        }
      ],
      "name": "_updateSystemState",
      "outputs": [],
      "stateMutability": "nonpayable",
      "type": "function"
    },
    {
      "inputs": [
        {
          "internalType": "uint32[]",
          "name": "marketIndexes",
          "type": "uint32[]"
        }
      ],
      "name": "_updateSystemStateMulti",
      "outputs": [],
      "stateMutability": "nonpayable",
      "type": "function"
    },
    {
      "inputs": [
        {
          "internalType": "uint32",
          "name": "marketIndex",
          "type": "uint32"
        },
        {
          "internalType": "uint256",
          "name": "amount",
          "type": "uint256"
        }
      ],
      "name": "mintLongNextPrice",
      "outputs": [],
      "stateMutability": "nonpayable",
      "type": "function"
    },
    {
      "inputs": [
        {
          "internalType": "uint32",
          "name": "marketIndex",
          "type": "uint32"
        },
        {
          "internalType": "uint256",
          "name": "amount",
          "type": "uint256"
        }
      ],
      "name": "mintShortNextPrice",
      "outputs": [],
      "stateMutability": "nonpayable",
      "type": "function"
    },
    {
      "inputs": [
        {
          "internalType": "uint32",
          "name": "marketIndex",
          "type": "uint32"
        },
        {
          "internalType": "uint256",
          "name": "tokensToRedeem",
          "type": "uint256"
        }
      ],
      "name": "redeemLongNextPrice",
      "outputs": [],
      "stateMutability": "nonpayable",
      "type": "function"
    },
    {
      "inputs": [
        {
          "internalType": "uint32",
          "name": "marketIndex",
          "type": "uint32"
        },
        {
          "internalType": "uint256",
          "name": "tokensToRedeem",
          "type": "uint256"
        }
      ],
      "name": "redeemShortNextPrice",
      "outputs": [],
      "stateMutability": "nonpayable",
      "type": "function"
    },
    {
      "inputs": [
        {
          "internalType": "address",
          "name": "user",
          "type": "address"
        },
        {
          "internalType": "uint32",
          "name": "marketIndex",
          "type": "uint32"
        }
      ],
      "name": "executeOutstandingNextPriceSettlementsUser",
      "outputs": [],
      "stateMutability": "nonpayable",
      "type": "function"
    }
  ],
  "bytecode": "0x608060405234801561001057600080fd5b50613245806100206000396000f3fe608060405234801561001057600080fd5b506004361061028a5760003560e01c8063ae369fc61161015c578063d47540bc116100ce578063eb10854011610087578063eb10854014610700578063eea756fa14610713578063f29610a114610744578063f851a4401461076f578063f8c8765e14610782578063fd5ac150146107955761028a565b8063d47540bc14610674578063d4898f1f14610687578063d8d3ded1146106a7578063de89c0cd146106ba578063e6b604e0146106da578063e77772fe146106ed5761028a565b8063b36f537411610120578063b36f5374146105e7578063b7f46d5d1461061a578063c2e1247114610623578063ce9e45ac14610636578063d1e2ef5914610661578063d2d2ef761461035e5761028a565b8063ae369fc614610542578063b03b21421461056d578063b054c4a114610580578063b14f2a39146105b4578063b2bdc968146105c75761028a565b806361d027b311610200578063897a0786116101b9578063897a07861461049c5780638f283970146104af57806391a9fa61146104c257806393967c6b146104d55780639c5b0ee3146104e8578063a04c85a8146105115761028a565b806361d027b314610404578063636190c81461041757806364d16f53146104435780636e0402ab14610456578063867dfc6d146104695780638900bdfa1461047c5761028a565b80633697cece116102525780633697cece1461035e5780634e6fd6c41461036d578063511431f1146103885780635520dc36146103b35780635c5b1fbb146103c85780635ebaf1db146103f15761028a565b8063026747fc1461028f5780631249eb11146102c257806314c88ffa146102d55780631badf5c0146102f557806326a584aa14610336575b600080fd5b6102af61029d366004612d5b565b60656020526000908152604090205481565b6040519081526020015b60405180910390f35b6102af6102d0366004612d5b565b6107c6565b6102af6102e3366004612d5b565b60616020526000908152604090205481565b61031e610303366004612d5b565b6064602052600090815260409020546001600160a01b031681565b6040516001600160a01b0390911681526020016102b9565b610349610344366004612e51565b61083a565b604080519283526020830191909152016102b9565b6102af670de0b6b3a764000081565b61031e73f10a7f10a7f10a7f10a7f10a7f10a7f10a7f10a781565b6102af610396366004612dab565b606d60209081526000928352604080842090915290825290205481565b6103c66103c1366004612e7a565b610878565b005b61031e6103d6366004612d5b565b6062602052600090815260409020546001600160a01b031681565b60305461031e906001600160a01b031681565b602f5461031e906001600160a01b031681565b602f5461042e90600160a01b900463ffffffff1681565b60405163ffffffff90911681526020016102b9565b6103c6610451366004612d75565b6108bf565b6102af610464366004612d5b565b610966565b6103c6610477366004612e51565b610a77565b6102af61048a366004612d5b565b60606020526000908152604090205481565b6103c66104aa366004612b79565b610a87565b6103c66104bd366004612b02565b610a91565b6103c66104d0366004612e51565b610add565b6103c66104e3366004612ebb565b610ae9565b61031e6104f6366004612d5b565b6063602052600090815260409020546001600160a01b031681565b6102af61051f366004612e13565b606b60209081526000938452604080852082529284528284209052825290205481565b6102af610550366004612d75565b606e60209081526000928352604080842090915290825290205481565b6103c661057b366004612d5b565b610c45565b61031e61058e366004612dab565b60696020908152600092835260408084209091529082529020546001600160a01b031681565b6103c66105c2366004612b02565b610c51565b6102af6105d5366004612d5b565b60676020526000908152604090205481565b61060a6105f5366004612d5b565b605f6020526000908152604090205460ff1681565b60405190151581526020016102b9565b6102af61271081565b6103c6610631366004612e51565b610c9d565b6102af610644366004612dab565b606c60209081526000928352604080842090915290825290205481565b6102af61066f366004612bad565b610ca9565b6103c6610682366004612cb5565b610dda565b6102af610695366004612d5b565b60666020526000908152604090205481565b6103c66106b5366004612bf5565b61117f565b6102af6106c8366004612d5b565b60686020526000908152604090205481565b6103c66106e8366004612e51565b6111de565b60315461031e906001600160a01b031681565b61034961070e366004612e51565b6111ea565b6102af610721366004612dd6565b606f60209081526000938452604080852082529284528284209052825290205481565b6102af610752366004612dab565b606a60209081526000928352604080842090915290825290205481565b602e5461031e906001600160a01b031681565b6103c6610790366004612b1e565b611207565b6102af6107a3366004612dd6565b607060209081526000938452604080852082529284528284209052825290205481565b63ffffffff81166000908152606a602090815260408083208380529091528082205460018352908220546107fa919061302f565b63ffffffff83166000908152606a60209081526040808320838052909152902054610828906127109061310c565b6108329190613075565b90505b919050565b600080600061084885610966565b9050612710610857858361310c565b6108619190613075565b925061086d838561316a565b9150505b9250929050565b602e546001600160a01b031633146108ab5760405162461bcd60e51b81526004016108a290612f91565b60405180910390fd5b6108b88585848685611352565b5050505050565b602e546001600160a01b031633146108e95760405162461bcd60e51b81526004016108a290612f91565b63ffffffff821660008181526064602090815260409182902080546001600160a01b038681166001600160a01b03198316811790935584519586521691840182905291830191909152907ffc4d69f373858d480cfc3f12e7cc7f9b12201291753ffc3babef0e7a8041979f906060015b60405180910390a1505050565b63ffffffff81166000908152606a60209081526040808320838052909152808220546001835290822054829161099b9161302f565b63ffffffff84166000908152606a6020908152604080832083805290915280822054600183529120549192501015610a215763ffffffff83166000908152606a602090815260408083208380529091528082205460018352912054829161271091610a06919061316a565b610a10919061310c565b610a1a9190613075565b9150610a71565b63ffffffff83166000908152606a602090815260408083206001845290915280822054828052912054829161271091610a5a919061316a565b610a64919061310c565b610a6e9190613075565b91505b50919050565b610a83828260016113eb565b5050565b610a838282611548565b602e546001600160a01b03163314610abb5760405162461bcd60e51b81526004016108a290612f91565b602e80546001600160a01b0319166001600160a01b0392909216919091179055565b610a83828260006113eb565b602e546001600160a01b03163314610b135760405162461bcd60e51b81526004016108a290612f91565b63ffffffff88166000908152605f602052604090205460ff16158015610b4c5750602f5463ffffffff600160a01b909104811690891611155b610b5557600080fd5b63ffffffff88166000908152605f60205260409020805460ff19166001179055610b828888878988611352565b603054602f54600160a01b900463ffffffff16600081815260696020908152604080832060018452909152808220548280529181902054905163ebe6ca9d60e01b815260048101939093526001600160a01b0391821660248401528116604483015260648201869052608482018590529091169063ebe6ca9d9060a401600060405180830381600087803b158015610c1957600080fd5b505af1158015610c2d573d6000803e3d6000fd5b50505050610c3b818961162e565b5050505050505050565b610c4e8161184f565b50565b602e546001600160a01b03163314610c7b5760405162461bcd60e51b81526004016108a290612f91565b602f80546001600160a01b0319166001600160a01b0392909216919091179055565b610a8382826001611b68565b63ffffffff82166000908152605f6020526040812054839060ff16610d075760405162461bcd60e51b81526020600482015260146024820152731b585c9ad95d08191bd95cdb89dd08195e1a5cdd60621b60448201526064016108a2565b63ffffffff84166000908152606e602090815260408083206001600160a01b038916845290915290205415801590610d70575063ffffffff8416600090815260616020908152604080832054606e83528184206001600160a01b038a1685529092529091205411155b15610dcd5763ffffffff84166000908152606f60209081526040808320861515845282528083206001600160a01b038916845290915281205490610db48686611d23565b90506000610dc28383611dfe565b9450610dd292505050565b600091505b509392505050565b602e546001600160a01b03163314610e045760405162461bcd60e51b81526004016108a290612f91565b602f8054600160a01b900463ffffffff16906014610e218361319c565b82546101009290920a63ffffffff818102199093169183160217909155603154603054602f546040516308ad7e0560e31b81526001600160a01b03938416955063456bf02894610e8a948e948e948e948e949390921692600160a01b9091041690600401612f40565b602060405180830381600087803b158015610ea457600080fd5b505af1158015610eb8573d6000803e3d6000fd5b505050506040513d601f19601f82011682018060405250810190610edc9190612c81565b602f8054600160a01b9081900463ffffffff9081166000908152606960209081526040808320600184529091529081902080546001600160a01b0319166001600160a01b039687161790556031546030549454915163c0b77cf760e01b81529086169563c0b77cf795610f63958f958f958f958f9594909416939290041690600401612f40565b602060405180830381600087803b158015610f7d57600080fd5b505af1158015610f91573d6000803e3d6000fd5b505050506040513d601f19601f82011682018060405250810190610fb59190612c81565b602f8054600160a01b9081900463ffffffff9081166000908152606960209081526040808320838052825280832080546001600160a01b03199081166001600160a01b03998a161790915586548690048516845260628352818420805482168c8a1617905586548690048516845260638352818420805482168a8a161790558654869004851684526064835281842080549091168a89161790559454939093049091168152828120548351630ce74fc560e31b8152935194169363673a7e289360048082019493918390030190829087803b15801561109357600080fd5b505af11580156110a7573d6000803e3d6000fd5b505050506040513d601f19601f820116820180604052508101906110cb9190612c9d565b602f805463ffffffff600160a01b91829004811660009081526060602081815260408084209790975594549390930490911680825260698452848220600183528452848220548280528583205482845293909452908490205493517f01d45c422ec27e66f2a01f895833c12169c58817ba9eb3b4d8e2fda86959d99f9461116e9492936001600160a01b039384169316918991908e908e908e908e908d90612fb5565b60405180910390a150505050505050565b60005b818110156111d9576111c78383838181106111ad57634e487b7160e01b600052603260045260246000fd5b90506020020160208101906111c29190612d5b565b61184f565b806111d181613181565b915050611182565b505050565b610a8382826000611b68565b60008060006111f8856107c6565b9050612710610857828661310c565b600054610100900460ff1680611220575060005460ff16155b6112835760405162461bcd60e51b815260206004820152602e60248201527f496e697469616c697a61626c653a20636f6e747261637420697320616c72656160448201526d191e481a5b9a5d1a585b1a5e995960921b60648201526084016108a2565b600054610100900460ff161580156112a5576000805461ffff19166101011790555b602e80546001600160a01b038781166001600160a01b03199283168117909355602f805488831690841681179091556031805488841690851681179091556030805493881693909416831790935560408051948552602085019190915283019190915260608201527fa9f3221832df6af126767c0e7fe3b550b0a97a07ed205459eefd4bbe29158b719060800160405180910390a180156108b8576000805461ff00191690555050505050565b63ffffffff858116600090815260656020908152604080832088905560678252808320879055606682528083208690556068825291829020849055602f548251600160a01b90910490931683528201869052810183905260608101849052608081018290527f9334feae13767655a4683b8e764f47a7359c96684bdafb8c41cc6f2edcf1e6779060a00160405180910390a15050505050565b826113f58161184f565b33846114018282611548565b61140b8686611e13565b63ffffffff86166000908152606c6020908152604080832087151584529091528120805487929061143d90849061302f565b909155505063ffffffff86166000908152606f60209081526040808320871515845282528083203384529091528120805487929061147c90849061302f565b909155505063ffffffff86166000908152606160205260409020546114a290600161302f565b63ffffffff87166000818152606e6020908152604080832033808552908352818420959095559282526061905220547f50b8727b538cf16daeb79894e8bde5c1e975985071be8a8d7620675a5dddfc6b9188918791899161150490600161302f565b6040805163ffffffff90961686529315156020860152928401919091526001600160a01b03166060830152608082015260a0015b60405180910390a1505050505050565b63ffffffff81166000908152606e602090815260408083206001600160a01b03861684529091529020548015801590611596575063ffffffff82166000908152606160205260409020548111155b156111d9576115a782846001611eb1565b6115b382846000611eb1565b6115bf82846001611ff4565b6115cb82846000611ff4565b63ffffffff82166000818152606e602090815260408083206001600160a01b038816808552908352818420939093558051928352908201929092527fe03aa867e2345cc967d98e4c81f6b0707b5ef082d9d20bac3dcf95540acdeae49101610959565b67016345785d8a000082116116935760405162461bcd60e51b815260206004820152602560248201527f496e73756666696369656e742076616c756520746f207365656420746865206d604482015264185c9ad95d60da1b60648201526084016108a2565b6116a7816116a284600261310c565b6120d3565b602f54600160a01b900463ffffffff16600090815260696020908152604080832060018452909152908190205490516340c10f1960e01b815273f10a7f10a7f10a7f10a7f10a7f10a7f10a7f10a76004820152602481018490526001600160a01b03909116906340c10f1990604401600060405180830381600087803b15801561173057600080fd5b505af1158015611744573d6000803e3d6000fd5b5050602f54600160a01b900463ffffffff166000908152606960209081526040808320838052909152908190205490516340c10f1960e01b815273f10a7f10a7f10a7f10a7f10a7f10a7f10a7f10a76004820152602481018690526001600160a01b0390911692506340c10f199150604401600060405180830381600087803b1580156117d057600080fd5b505af11580156117e4573d6000803e3d6000fd5b5050505063ffffffff81166000818152606a6020908152604080832060018452825280832086905582805291829020859055815192835282018490527f6b73d8f672e796176444c21cb5429d8ea426e6f0f8a3b34e7057a808be5d19c6910160405180910390a15050565b63ffffffff81166000908152605f6020526040902054819060ff166118ad5760405162461bcd60e51b81526020600482015260146024820152731b585c9ad95d08191bd95cdb89dd08195e1a5cdd60621b60448201526064016108a2565b60006118ba836001611d23565b905060006118c9846000611d23565b60305463ffffffff86166000818152606a6020908152604080832060018452909152808220548280529181902054905163368e71f760e11b815260048101939093526024830187905260448301859052606483019190915260848201529192506001600160a01b031690636d1ce3ee9060a401600060405180830381600087803b15801561195657600080fd5b505af115801561196a573d6000803e3d6000fd5b5050505063ffffffff84166000908152606460209081526040808320548151630ce74fc560e31b815291516001600160a01b039091169263673a7e28926004808201939182900301818787803b1580156119c357600080fd5b505af11580156119d7573d6000803e3d6000fd5b505050506040513d601f19601f820116820180604052508101906119fb9190612c9d565b63ffffffff861660009081526060602052604090205490915080821415611a255750505050610a83565b611a2e866120e7565b611a3886836121da565b611a43866001611d23565b9350611a50866000611d23565b63ffffffff87166000908152606060209081526040808320869055606190915281208054929550600192909190611a8890849061302f565b909155505063ffffffff861660008181526061602081815260408084208054606b84528286206001875280855283872082885285528387208c90558680528452828620908652835290842088905593909252905254611aea9087908686612404565b63ffffffff8616600081815260616020908152604080832054606a835281842060018552835281842054848052938290205482519586529285015283019190915260608201526080810185905260a081018490527f5eb9cec62763589d03420e30821e85901e5ed5d452136e87780b923d42d2aa369060c001611538565b82611b728161184f565b3384611b7e8282611548565b63ffffffff861660009081526069602090815260408083208715158452909152908190205490516323b872dd60e01b8152336004820152306024820152604481018790526001600160a01b03909116906323b872dd90606401602060405180830381600087803b158015611bf157600080fd5b505af1158015611c05573d6000803e3d6000fd5b505050506040513d601f19601f82011682018060405250810190611c299190612c65565b5063ffffffff861660009081526070602090815260408083208715158452825280832033845290915281208054879290611c6490849061302f565b909155505063ffffffff8616600090815260616020526040902054611c8a90600161302f565b63ffffffff87166000818152606e60209081526040808320338452825280832094909455918152606d825282812087151582529091529081208054879290611cd390849061302f565b909155505063ffffffff86166000908152606160205260409020547f191d5f0d51691cdc223884e5321013c9663c6b337a07d550c538d9dcbbd6620390879086908890339061150490600161302f565b63ffffffff821660009081526069602090815260408083206001845282528083205481516318160ddd60e01b815291516001600160a01b03909116926318160ddd9260048082019391829003018186803b158015611d8057600080fd5b505afa158015611d94573d6000803e3d6000fd5b505050506040513d601f19601f82011682018060405250810190611db89190612c9d565b63ffffffff84166000908152606a6020908152604080832060018452909152902054611ded90670de0b6b3a76400009061310c565b611df79190613075565b9392505050565b600081611ded670de0b6b3a76400008561310c565b63ffffffff8216600090815260626020526040908190205490516323b872dd60e01b8152336004820152306024820152604481018390526001600160a01b03909116906323b872dd90606401602060405180830381600087803b158015611e7957600080fd5b505af1158015611e8d573d6000803e3d6000fd5b505050506040513d601f19601f820116820180604052508101906111d99190612c65565b63ffffffff83166000908152606f60209081526040808320841515845282528083206001600160a01b0386168452909152812080549190558015611fee5763ffffffff84166000818152606b6020908152604080832086151584528252808320938352606e82528083206001600160a01b0388168452825280832054835292905290812054611f41908390611dfe565b63ffffffff8616600090815260696020908152604080832087151584529091529081902054905163a9059cbb60e01b81526001600160a01b0387811660048301526024820184905292935091169063a9059cbb906044015b602060405180830381600087803b158015611fb357600080fd5b505af1158015611fc7573d6000803e3d6000fd5b505050506040513d601f19601f82011682018060405250810190611feb9190612c65565b50505b50505050565b63ffffffff83166000908152607060209081526040808320841515845282528083206001600160a01b0386168452909152812080549190558015611fee5763ffffffff84166000818152606b6020908152604080832086151584528252808320938352606e82528083206001600160a01b0388168452825280832054835292905290812054612084908390612427565b63ffffffff86166000908152606260205260409081902054905163a9059cbb60e01b81526001600160a01b0387811660048301526024820184905292935091169063a9059cbb90604401611f99565b6120dd8282611e13565b610a83828261243c565b60006120f282610966565b63ffffffff83166000908152606a60209081526040808320838052909152808220546001835290822054929350909161212b919061302f565b63ffffffff8416600090815260636020526040808220549051630a0be6b760e21b8152600481018490526024810186905292935090916001600160a01b039091169063282f9adc90604401602060405180830381600087803b15801561219057600080fd5b505af11580156121a4573d6000803e3d6000fd5b505050506040513d601f19601f820116820180604052508101906121c89190612c9d565b90508015611fee57611fee8482612550565b63ffffffff8216600090815260606020908152604080832054606a8352818420848052909252808320546001845290832054919291101561223d575063ffffffff83166000908152606a6020908152604080832060018452909152902054612260565b5063ffffffff83166000908152606a602090815260408083208380529091529020545b600082670de0b6b3a7640000612276828761312b565b6122809190613089565b61228a9190613047565b90506000670de0b6b3a76400006122a18484613089565b6122ab9190613047565b905060008113156123275763ffffffff86166000908152606a6020908152604080832060018452909152812080548392906122e790849061302f565b909155505063ffffffff86166000908152606a602090815260408083208380529091528120805483929061231c90849061316a565b909155506123ac9050565b61233381600019613089565b63ffffffff87166000908152606a60209081526040808320600184529091528120805490919061236490849061316a565b90915550612376905081600019613089565b63ffffffff87166000908152606a60209081526040808320838052909152812080549091906123a690849061302f565b90915550505b63ffffffff86166000818152606060208181526040928390205483519485529084015290820187905233908201527fd71bf4c0282ba3f822633c7855d997e3e0dd859f876d8e5cd9b65317c86dda8490608001611538565b612410846001846125d3565b61241c846000836125d3565b611fee8483836126f9565b6000670de0b6b3a7640000611ded838561310c565b63ffffffff821660009081526062602090815260408083205460639092529182902054915163095ea7b360e01b81526001600160a01b0392831660048201526024810184905291169063095ea7b390604401602060405180830381600087803b1580156124a857600080fd5b505af11580156124bc573d6000803e3d6000fd5b505050506040513d601f19601f820116820180604052508101906124e09190612c65565b5063ffffffff821660009081526063602052604090819020549051636215be7760e01b8152600481018390526001600160a01b0390911690636215be77906024015b600060405180830381600087803b15801561253c57600080fd5b505af1158015611feb573d6000803e3d6000fd5b60008061255d84846111ea565b63ffffffff86166000908152606a602090815260408083206001845290915281208054939550919350849261259390849061302f565b909155505063ffffffff84166000908152606a60209081526040808320838052909152812080548392906125c890849061302f565b909155505050505050565b63ffffffff83166000908152606c6020908152604080832085151584529091529020548015611fee5763ffffffff84166000908152606c602090815260408083208615158452909152812055612629848261243c565b60006126358284611dfe565b63ffffffff861660009081526069602090815260408083208815158452909152908190205490516340c10f1960e01b8152306004820152602481018390529192506001600160a01b0316906340c10f1990604401600060405180830381600087803b1580156126a357600080fd5b505af11580156126b7573d6000803e3d6000fd5b5050505063ffffffff85166000908152606a602090815260408083208715158452909152812080548492906126ed90849061302f565b90915550505050505050565b63ffffffff83166000908152606d60209081526040808320600184529091528082205482805291205461272d9185916127c1565b63ffffffff83166000908152606d60209081526040808320600184529091528120546127599084612427565b63ffffffff85166000908152606d60209081526040808320838052909152812054919250906127889084612427565b63ffffffff86166000908152606d602090815260408083206001845290915280822082905581805281205590506108b8858383306128da565b811561284c5763ffffffff83166000908152606960209081526040808320600184529091529081902054905163319920a160e11b8152306004820152602481018490526001600160a01b0390911690636332414290604401600060405180830381600087803b15801561283357600080fd5b505af1158015612847573d6000803e3d6000fd5b505050505b80156111d95763ffffffff831660009081526069602090815260408083208380529091529081902054905163319920a160e11b8152306004820152602481018390526001600160a01b0390911690636332414290604401600060405180830381600087803b1580156128bd57600080fd5b505af11580156128d1573d6000803e3d6000fd5b50505050505050565b60006128e6838561302f565b9050806128f35750611fee565b63ffffffff85166000908152606a60209081526040808320600184529091529020548411801590612944575063ffffffff85166000908152606a602090815260408083208380529091529020548311155b61295e57634e487b7160e01b600052600160045260246000fd5b6129688582612a69565b63ffffffff85166000908152606260205260409081902054905163a9059cbb60e01b81526001600160a01b038481166004830152602482018490529091169063a9059cbb90604401602060405180830381600087803b1580156129ca57600080fd5b505af11580156129de573d6000803e3d6000fd5b505050506040513d601f19601f82011682018060405250810190612a029190612c65565b5063ffffffff85166000908152606a602090815260408083206001845290915281208054869290612a3490849061316a565b909155505063ffffffff85166000908152606a60209081526040808320838052909152812080548592906126ed90849061316a565b63ffffffff82166000908152606360205260409081902054905163285d531160e11b8152600481018390526001600160a01b03909116906350baa62290602401612522565b60008083601f840112612abf578182fd5b50813567ffffffffffffffff811115612ad6578182fd5b60208301915083602082850101111561087157600080fd5b803563ffffffff8116811461083557600080fd5b600060208284031215612b13578081fd5b8135611df7816131ec565b60008060008060808587031215612b33578283fd5b8435612b3e816131ec565b93506020850135612b4e816131ec565b92506040850135612b5e816131ec565b91506060850135612b6e816131ec565b939692955090935050565b60008060408385031215612b8b578182fd5b8235612b96816131ec565b9150612ba460208401612aee565b90509250929050565b600080600060608486031215612bc1578283fd5b8335612bcc816131ec565b9250612bda60208501612aee565b91506040840135612bea81613201565b809150509250925092565b60008060208385031215612c07578182fd5b823567ffffffffffffffff80821115612c1e578384fd5b818501915085601f830112612c31578384fd5b813581811115612c3f578485fd5b8660208260051b8501011115612c53578485fd5b60209290920196919550909350505050565b600060208284031215612c76578081fd5b8151611df781613201565b600060208284031215612c92578081fd5b8151611df7816131ec565b600060208284031215612cae578081fd5b5051919050565b600080600080600080600060a0888a031215612ccf578283fd5b873567ffffffffffffffff80821115612ce6578485fd5b612cf28b838c01612aae565b909950975060208a0135915080821115612d0a578485fd5b50612d178a828b01612aae565b9096509450506040880135612d2b816131ec565b92506060880135612d3b816131ec565b91506080880135612d4b816131ec565b8091505092959891949750929550565b600060208284031215612d6c578081fd5b611df782612aee565b60008060408385031215612d87578182fd5b612d9083612aee565b91506020830135612da0816131ec565b809150509250929050565b60008060408385031215612dbd578182fd5b612dc683612aee565b91506020830135612da081613201565b600080600060608486031215612dea578081fd5b612df384612aee565b92506020840135612e0381613201565b91506040840135612bea816131ec565b600080600060608486031215612e27578081fd5b612e3084612aee565b92506020840135612e4081613201565b929592945050506040919091013590565b60008060408385031215612e63578182fd5b612e6c83612aee565b946020939093013593505050565b600080600080600060a08688031215612e91578283fd5b612e9a86612aee565b97602087013597506040870135966060810135965060800135945092505050565b600080600080600080600080610100898b031215612ed7578182fd5b612ee089612aee565b9a60208a01359a5060408a013599606081013599506080810135985060a0810135975060c0810135965060e00135945092505050565b60008284528282602086013780602084860101526020601f19601f85011685010190509392505050565b600060808252612f5460808301888a612f16565b8281036020840152612f67818789612f16565b6001600160a01b03959095166040840152505063ffffffff91909116606090910152949350505050565b6020808252600a908201526937b7363c9030b236b4b760b11b604082015260600190565b63ffffffff8b1681526001600160a01b038a81166020830152898116604083015288811660608301526080820188905261010060a08301819052600091612fff848301898b612f16565b915083820360c0850152613014828789612f16565b925080851660e085015250509b9a5050505050505050505050565b60008219821115613042576130426131c0565b500190565b600082613056576130566131d6565b600160ff1b821460001984141615613070576130706131c0565b500590565b600082613084576130846131d6565b500490565b60006001600160ff1b03818413828413808216868404861116156130af576130af6131c0565b600160ff1b848712828116878305891216156130cd576130cd6131c0565b8587129250878205871284841616156130e8576130e86131c0565b878505871281841616156130fe576130fe6131c0565b505050929093029392505050565b6000816000190483118215151615613126576131266131c0565b500290565b60008083128015600160ff1b850184121615613149576131496131c0565b6001600160ff1b0384018313811615613164576131646131c0565b50500390565b60008282101561317c5761317c6131c0565b500390565b6000600019821415613195576131956131c0565b5060010190565b600063ffffffff808316818114156131b6576131b66131c0565b6001019392505050565b634e487b7160e01b600052601160045260246000fd5b634e487b7160e01b600052601260045260246000fd5b6001600160a01b0381168114610c4e57600080fd5b8015158114610c4e57600080fdfea26469706673582212203f9bec3eab272bdd2a759681cced30c636d85879819d6a3eed9d48546019afbb64736f6c63430008030033",
  "immutableReferences": {},
  "source": "// SPDX-License-Identifier: BUSL-1.1\n\npragma solidity 0.8.3;\n\nimport \"hardhat/console.sol\";\nimport \"@openzeppelin/contracts-upgradeable/proxy/utils/Initializable.sol\";\nimport \"@openzeppelin/contracts/token/ERC20/IERC20.sol\";\n\nimport \"./interfaces/ITokenFactory.sol\";\nimport \"./interfaces/ISyntheticToken.sol\";\nimport \"./interfaces/IStaker.sol\";\nimport \"./interfaces/ILongShort.sol\";\nimport \"./interfaces/IYieldManager.sol\";\nimport \"./interfaces/IOracleManager.sol\";\n\n/**\n * @dev {LongShort} contract:\n **** visit https://float.capital *****\n *  - Ability for users to create synthetic long and short positions on value movements\n *  - Value movements could be derived from tradional or alternative asset classes, derivates, binary outcomes, etc...\n *  - Incentive mechansim providing fees to liquidity makers (users on both sides of order book)\n */\n\ncontract LongShort is ILongShort, Initializable {\n    /*\n                VARIABLES          \n      */\n\n    // Fixed-precision constants ////////////////////////////////\n    address public constant DEAD_ADDRESS =\n        0xf10A7_F10A7_f10A7_F10a7_F10A7_f10a7_F10A7_f10a7;\n    uint256 public constant TEN_TO_THE_18 = 1e18;\n    int256 public constant TEN_TO_THE_18_SIGNED = 1e18;\n    uint256 public constant TEN_TO_THE_5 = 10000;\n    uint256[45] private __constantsGap;\n\n    // Global state ////////////////////////////////////////////\n    address public admin;\n    address public treasury;\n    uint32 public latestMarket;\n\n    IStaker public staker;\n    ITokenFactory public tokenFactory;\n    uint256[45] private __globalStateGap;\n\n    // Market specific /////////////////////////////////////////\n    mapping(uint32 => bool) public marketExists;\n    mapping(uint32 => uint256) public assetPrice;\n    mapping(uint32 => uint256) public marketUpdateIndex;\n    mapping(uint32 => IERC20) public fundTokens;\n    mapping(uint32 => IYieldManager) public yieldManagers;\n    mapping(uint32 => IOracleManager) public oracleManagers;\n\n    mapping(uint32 => uint256) public baseEntryFee;\n    mapping(uint32 => uint256) public badLiquidityEntryFee;\n    mapping(uint32 => uint256) public baseExitFee;\n    mapping(uint32 => uint256) public badLiquidityExitFee;\n\n    // Market + position (long/short) specific /////////////////\n    mapping(uint32 => mapping(bool => ISyntheticToken)) public syntheticTokens;\n    mapping(uint32 => mapping(bool => uint256)) public syntheticTokenPoolValue;\n\n    mapping(uint32 => mapping(bool => mapping(uint256 => uint256)))\n        public syntheticTokenPriceSnapshot;\n\n    mapping(uint32 => mapping(bool => uint256))\n        public batchedAmountOfTokensToDeposit;\n    mapping(uint32 => mapping(bool => uint256))\n        public batchedAmountOfSynthTokensToRedeem;\n\n    // User specific ///////////////////////////////////////////\n    mapping(uint32 => mapping(address => uint256))\n        public userCurrentNextPriceUpdateIndex;\n\n    mapping(uint32 => mapping(bool => mapping(address => uint256)))\n        public userNextPriceDepositAmount;\n    mapping(uint32 => mapping(bool => mapping(address => uint256)))\n        public userNextPriceRedemptionAmount;\n\n    /*\n                 EVENTS           \n      */\n\n    event V1(\n        address admin,\n        address treasury,\n        address tokenFactory,\n        address staker\n    );\n\n    // TODO: make sure this is emmited for batched actions too!\n    event SystemStateUpdated(\n        uint32 marketIndex,\n        uint256 updateIndex,\n        uint256 longValue,\n        uint256 shortValue,\n        uint256 longPrice,\n        uint256 shortPrice\n    );\n\n    event FeesLevied(uint32 marketIndex, uint256 totalFees);\n\n    event SyntheticTokenCreated(\n        uint32 marketIndex,\n        address longTokenAddress,\n        address shortTokenAddress,\n        address fundToken,\n        uint256 assetPrice,\n        string name,\n        string symbol,\n        address oracleAddress\n    );\n\n    event PriceUpdate(\n        uint32 marketIndex,\n        uint256 oldPrice,\n        uint256 newPrice,\n        address user\n    );\n\n    event NextPriceRedeem(\n        uint32 marketIndex,\n        bool isLong,\n        uint256 synthRedeemed,\n        address user,\n        uint256 oracleUpdateIndex\n    );\n\n    event NextPriceDeposit(\n        uint32 marketIndex,\n        bool isLong,\n        uint256 depositAdded,\n        address user,\n        uint256 oracleUpdateIndex\n    );\n\n    event FeesChanges(\n        uint32 marketIndex,\n        uint256 baseEntryFee,\n        uint256 badLiquidityEntryFee,\n        uint256 baseExitFee,\n        uint256 badLiquidityExitFee\n    );\n\n    event OracleUpdated(\n        uint32 marketIndex,\n        address oldOracleAddress,\n        address newOracleAddress\n    );\n\n    event NewMarketLaunchedAndSeeded(uint32 marketIndex, uint256 initialSeed);\n\n    event ExecuteNextPriceSettlementsUser(address user, uint32 marketIndex);\n\n    /*\n                MODIFIERS          \n      */\n\n    /**\n     * Necessary to update system state before any contract actions (deposits / withdraws)\n     */\n\n    modifier adminOnly() {\n        require(msg.sender == admin, \"only admin\");\n        _;\n    }\n\n    modifier treasuryOnly() {\n        require(msg.sender == treasury, \"only treasury\");\n        _;\n    }\n\n    modifier assertMarketExists(uint32 marketIndex) {\n        require(marketExists[marketIndex], \"market doesn't exist\");\n        _;\n    }\n\n    modifier executeOutstandingNextPriceSettlements(\n        address user,\n        uint32 marketIndex\n    ) virtual {\n        _executeOutstandingNextPriceSettlements(user, marketIndex);\n        _;\n    }\n\n    modifier updateSystemStateMarket(uint32 marketIndex) {\n        _updateSystemStateInternal(marketIndex);\n\n        _;\n    }\n\n    /*\n             CONTRACT SET-UP       \n      */\n\n    function initialize(\n        address _admin,\n        address _treasury,\n        ITokenFactory _tokenFactory,\n        IStaker _staker\n    ) public initializer {\n        admin = _admin;\n        treasury = _treasury;\n        tokenFactory = _tokenFactory;\n        staker = _staker;\n\n        emit V1(\n            _admin,\n            address(treasury),\n            address(_tokenFactory),\n            address(_staker)\n        );\n    }\n\n    /*\n             MULTI-SIG ADMIN       \n      */\n\n    function changeAdmin(address _admin) external adminOnly {\n        admin = _admin;\n    }\n\n    function changeTreasury(address _treasury) external adminOnly {\n        treasury = _treasury;\n    }\n\n    function changeFees(\n        uint32 marketIndex,\n        uint256 _baseEntryFee,\n        uint256 _badLiquidityEntryFee,\n        uint256 _baseExitFee,\n        uint256 _badLiquidityExitFee\n    ) external adminOnly {\n        _changeFees(\n            marketIndex,\n            _baseEntryFee,\n            _baseExitFee,\n            _badLiquidityEntryFee,\n            _badLiquidityExitFee\n        );\n    }\n\n    function _changeFees(\n        uint32 marketIndex,\n        uint256 _baseEntryFee,\n        uint256 _baseExitFee,\n        uint256 _badLiquidityEntryFee,\n        uint256 _badLiquidityExitFee\n    ) internal {\n        baseEntryFee[marketIndex] = _baseEntryFee;\n        baseExitFee[marketIndex] = _baseExitFee;\n        badLiquidityEntryFee[marketIndex] = _badLiquidityEntryFee;\n        badLiquidityExitFee[marketIndex] = _badLiquidityExitFee;\n\n        emit FeesChanges(\n            latestMarket,\n            _baseEntryFee,\n            _badLiquidityEntryFee,\n            _baseExitFee,\n            _badLiquidityExitFee\n        );\n    }\n\n    /**\n     * Update oracle for a market\n     */\n    function updateMarketOracle(uint32 marketIndex, address _newOracleManager)\n        external\n        adminOnly\n    {\n        // If not a oracle contract this would break things.. Test's arn't validating this\n        // Ie require isOracle interface - ERC165\n        address previousOracleManager = address(oracleManagers[marketIndex]);\n        oracleManagers[marketIndex] = IOracleManager(_newOracleManager);\n        emit OracleUpdated(\n            marketIndex,\n            previousOracleManager,\n            _newOracleManager\n        );\n    }\n\n    /*\n             MARKET CREATION       \n      */\n\n    /**\n     * Creates an entirely new long/short market tracking an underlying\n     * oracle price. Make sure the synthetic names/symbols are unique.\n     */\n    function newSyntheticMarket(\n        string calldata syntheticName,\n        string calldata syntheticSymbol,\n        address _fundToken,\n        address _oracleManager,\n        address _yieldManager\n    ) external adminOnly {\n        latestMarket++;\n\n        // Create new synthetic long token.\n        syntheticTokens[latestMarket][true] = ISyntheticToken(\n            tokenFactory.createTokenLong(\n                syntheticName,\n                syntheticSymbol,\n                staker,\n                latestMarket\n            )\n        );\n\n        // Create new synthetic short token.\n        syntheticTokens[latestMarket][false] = ISyntheticToken(\n            tokenFactory.createTokenShort(\n                syntheticName,\n                syntheticSymbol,\n                staker,\n                latestMarket\n            )\n        );\n\n        // Initial market state.\n        fundTokens[latestMarket] = IERC20(_fundToken);\n        yieldManagers[latestMarket] = IYieldManager(_yieldManager);\n        oracleManagers[latestMarket] = IOracleManager(_oracleManager);\n        assetPrice[latestMarket] = uint256(\n            oracleManagers[latestMarket].updatePrice()\n        );\n\n        emit SyntheticTokenCreated(\n            latestMarket,\n            address(syntheticTokens[latestMarket][true]),\n            address(syntheticTokens[latestMarket][false]),\n            _fundToken,\n            assetPrice[latestMarket],\n            syntheticName,\n            syntheticSymbol,\n            _oracleManager\n        );\n    }\n\n    function _seedMarketInitially(uint256 initialMarketSeed, uint32 marketIndex)\n        internal\n    {\n        require(\n            // You require at least 10^17 of the underlying payment token to seed the market.\n            initialMarketSeed > 0.1 ether,\n            \"Insufficient value to seed the market\"\n        );\n\n        _lockFundsInMarket(marketIndex, initialMarketSeed * 2);\n\n        syntheticTokens[latestMarket][true].mint(\n            DEAD_ADDRESS,\n            initialMarketSeed\n        );\n        syntheticTokens[latestMarket][false].mint(\n            DEAD_ADDRESS,\n            initialMarketSeed\n        );\n\n        syntheticTokenPoolValue[marketIndex][true] = initialMarketSeed;\n        syntheticTokenPoolValue[marketIndex][false] = initialMarketSeed;\n\n        emit NewMarketLaunchedAndSeeded(marketIndex, initialMarketSeed);\n    }\n\n    function initializeMarket(\n        uint32 marketIndex,\n        uint256 _baseEntryFee,\n        uint256 _badLiquidityEntryFee,\n        uint256 _baseExitFee,\n        uint256 _badLiquidityExitFee,\n        uint256 kInitialMultiplier,\n        uint256 kPeriod,\n        uint256 initialMarketSeed\n    ) external adminOnly {\n        require(!marketExists[marketIndex] && marketIndex <= latestMarket);\n\n        marketExists[marketIndex] = true;\n\n        _changeFees(\n            marketIndex,\n            _baseEntryFee,\n            _baseExitFee,\n            _badLiquidityEntryFee,\n            _badLiquidityExitFee\n        );\n\n        // Add new staker funds with fresh synthetic tokens.\n        staker.addNewStakingFund(\n            latestMarket,\n            syntheticTokens[latestMarket][true],\n            syntheticTokens[latestMarket][false],\n            kInitialMultiplier,\n            kPeriod\n        );\n\n        _seedMarketInitially(initialMarketSeed, marketIndex);\n    }\n\n    /*\n             GETTER FUNCTIONS       \n      */\n\n    function _getSyntheticTokenPrice(uint32 marketIndex, bool isLong)\n        internal\n        view\n        returns (uint256 syntheticTokenPrice)\n    {\n        syntheticTokenPrice =\n            (syntheticTokenPoolValue[marketIndex][true] * TEN_TO_THE_18) /\n            syntheticTokens[marketIndex][true].totalSupply();\n    }\n\n    function _getAmountPaymentToken(uint256 amountSynth, uint256 price)\n        internal\n        pure\n        returns (uint256)\n    {\n        return (amountSynth * price) / TEN_TO_THE_18;\n    }\n\n    function _getAmountSynthToken(uint256 amountPaymentToken, uint256 price)\n        internal\n        pure\n        returns (uint256)\n    {\n        return (amountPaymentToken * TEN_TO_THE_18) / price;\n    }\n\n    function getUsersPendingBalance(\n        address user,\n        uint32 marketIndex,\n        bool isLong\n    )\n        external\n        view\n        override\n        assertMarketExists(marketIndex)\n        returns (uint256 pendingBalance)\n    {\n        if (\n            userCurrentNextPriceUpdateIndex[marketIndex][user] != 0 &&\n            userCurrentNextPriceUpdateIndex[marketIndex][user] <=\n            marketUpdateIndex[marketIndex]\n        ) {\n            // Update is still nextPrice but not past the next oracle update - display the amount the user would get if they executed immediately\n            uint256 amountPaymentTokenDeposited = userNextPriceDepositAmount[\n                marketIndex\n            ][isLong][user];\n\n            uint256 syntheticTokenPrice = _getSyntheticTokenPrice(\n                marketIndex,\n                isLong\n            );\n\n            uint256 tokens = _getAmountSynthToken(\n                amountPaymentTokenDeposited,\n                syntheticTokenPrice\n            );\n\n            return tokens;\n        } else {\n            return 0;\n        }\n    }\n\n    function getMarketPcntForTreasuryVsMarketSplit(uint32 marketIndex)\n        public\n        view\n        returns (uint256 marketPcntE5)\n    {\n        uint256 totalValueLockedInMarket = syntheticTokenPoolValue[marketIndex][\n            true\n        ] + syntheticTokenPoolValue[marketIndex][false];\n\n        if (\n            syntheticTokenPoolValue[marketIndex][true] >\n            syntheticTokenPoolValue[marketIndex][false]\n        ) {\n            marketPcntE5 =\n                ((syntheticTokenPoolValue[marketIndex][true] -\n                    syntheticTokenPoolValue[marketIndex][false]) *\n                    TEN_TO_THE_5) /\n                totalValueLockedInMarket;\n        } else {\n            marketPcntE5 =\n                ((syntheticTokenPoolValue[marketIndex][false] -\n                    syntheticTokenPoolValue[marketIndex][true]) *\n                    TEN_TO_THE_5) /\n                totalValueLockedInMarket;\n        }\n\n        return marketPcntE5;\n    }\n\n    /**\n     * Returns the amount of accrued value that should go to the market,\n     * and the amount that should be locked into the treasury. To incentivise\n     * market balance, more value goes to the market in proportion to how\n     * imbalanced it is.\n     */\n    function getTreasurySplit(uint32 marketIndex, uint256 amount)\n        public\n        view\n        returns (uint256 marketAmount, uint256 treasuryAmount)\n    {\n        uint256 marketPcntE5 = getMarketPcntForTreasuryVsMarketSplit(\n            marketIndex\n        );\n\n        marketAmount = (marketPcntE5 * amount) / TEN_TO_THE_5;\n        treasuryAmount = amount - marketAmount;\n\n        return (marketAmount, treasuryAmount);\n    }\n\n    function getLongPcntForLongVsShortSplit(uint32 marketIndex)\n        public\n        view\n        returns (uint256 longPcntE5)\n    {\n        return\n            (syntheticTokenPoolValue[marketIndex][false] * TEN_TO_THE_5) /\n            (syntheticTokenPoolValue[marketIndex][true] +\n                syntheticTokenPoolValue[marketIndex][false]);\n    }\n\n    /**\n     * Returns the amount of accrued value that should go to each side of the\n     * market. To incentivise balance, more value goes to the weaker side in\n     * proportion to how imbalanced the market is.\n     */\n    function getMarketSplit(uint32 marketIndex, uint256 amount)\n        public\n        view\n        returns (uint256 longAmount, uint256 shortAmount)\n    {\n        uint256 longPcntE5 = getLongPcntForLongVsShortSplit(marketIndex);\n\n        longAmount = (amount * longPcntE5) / TEN_TO_THE_5;\n        shortAmount = amount - longAmount;\n\n        return (longAmount, shortAmount);\n    }\n\n    /*\n             HELPER FUNCTIONS       \n      */\n\n    function _distributeMarketAmount(uint32 marketIndex, uint256 marketAmount)\n        internal\n    {\n        // Splits mostly to the weaker position to incentivise balance.\n        (uint256 longAmount, uint256 shortAmount) = getMarketSplit(\n            marketIndex,\n            marketAmount\n        );\n        syntheticTokenPoolValue[marketIndex][true] += longAmount;\n        syntheticTokenPoolValue[marketIndex][false] += shortAmount;\n    }\n\n    /**\n     * Controls what happens with accrued yield manager interest.\n     */\n    function _claimAndDistributeYield(uint32 marketIndex) internal {\n        uint256 marketPcntE5 = getMarketPcntForTreasuryVsMarketSplit(\n            marketIndex\n        );\n\n        uint256 totalValueRealizedForMarket = syntheticTokenPoolValue[\n            marketIndex\n        ][true] + syntheticTokenPoolValue[marketIndex][false];\n\n        uint256 marketAmount = yieldManagers[marketIndex]\n        .claimYieldAndGetMarketAmount(\n            totalValueRealizedForMarket,\n            marketPcntE5\n        );\n\n        if (marketAmount > 0) {\n            _distributeMarketAmount(marketIndex, marketAmount);\n        }\n    }\n\n    function _adjustMarketBasedOnNewAssetPrice(\n        uint32 marketIndex,\n        int256 newAssetPrice\n    ) internal {\n        int256 oldAssetPrice = int256(assetPrice[marketIndex]);\n\n        uint256 min;\n        if (\n            syntheticTokenPoolValue[marketIndex][true] <\n            syntheticTokenPoolValue[marketIndex][false]\n        ) {\n            min = syntheticTokenPoolValue[marketIndex][true];\n        } else {\n            min = syntheticTokenPoolValue[marketIndex][false];\n        }\n\n        int256 percentageChangeE18 = ((newAssetPrice - oldAssetPrice) *\n            TEN_TO_THE_18_SIGNED) / oldAssetPrice;\n\n        int256 valueChange = (percentageChangeE18 * int256(min)) /\n            TEN_TO_THE_18_SIGNED;\n\n        if (valueChange > 0) {\n            syntheticTokenPoolValue[marketIndex][true] += uint256(valueChange);\n            syntheticTokenPoolValue[marketIndex][false] -= uint256(valueChange);\n        } else {\n            syntheticTokenPoolValue[marketIndex][true] -= uint256(\n                valueChange * -1\n            );\n            syntheticTokenPoolValue[marketIndex][false] += uint256(\n                valueChange * -1\n            );\n        }\n\n        emit PriceUpdate(\n            marketIndex,\n            assetPrice[marketIndex],\n            uint256(newAssetPrice),\n            msg.sender\n        );\n    }\n\n    function _saveSyntheticTokenPriceSnapshots(\n        uint32 marketIndex,\n        uint256 newLatestPriceStateIndex,\n        uint256 syntheticTokenPriceLong,\n        uint256 syntheticTokenPriceShort\n    ) internal {\n        syntheticTokenPriceSnapshot[marketIndex][true][\n            newLatestPriceStateIndex\n        ] = syntheticTokenPriceLong;\n\n        syntheticTokenPriceSnapshot[marketIndex][false][\n            newLatestPriceStateIndex\n        ] = syntheticTokenPriceShort;\n    }\n\n    /*\n           UPDATING SYSTEM STATE     \n      */\n\n    /**\n     * Updates the value of the long and short sides within the system.\n     */\n    function _updateSystemStateInternal(uint32 marketIndex)\n        internal\n        assertMarketExists(marketIndex)\n    {\n        uint256 syntheticTokenPriceLong = _getSyntheticTokenPrice(\n            marketIndex,\n            true\n        );\n        uint256 syntheticTokenPriceShort = _getSyntheticTokenPrice(\n            marketIndex,\n            false\n        );\n\n        // Adding state point for rewards in staker contract\n        staker.addNewStateForFloatRewards(\n            marketIndex,\n            syntheticTokenPriceLong,\n            syntheticTokenPriceShort,\n            syntheticTokenPoolValue[marketIndex][true],\n            syntheticTokenPoolValue[marketIndex][false]\n        );\n\n        // If a negative int is return this should fail.\n        int256 newAssetPrice = oracleManagers[marketIndex].updatePrice();\n        int256 oldAssetPrice = int256(assetPrice[marketIndex]);\n\n        if (oldAssetPrice == newAssetPrice) {\n            return;\n        }\n\n        _claimAndDistributeYield(marketIndex);\n        _adjustMarketBasedOnNewAssetPrice(marketIndex, newAssetPrice);\n\n        syntheticTokenPriceLong = _getSyntheticTokenPrice(marketIndex, true);\n        syntheticTokenPriceShort = _getSyntheticTokenPrice(marketIndex, false);\n\n        assetPrice[marketIndex] = uint256(newAssetPrice);\n        marketUpdateIndex[marketIndex] += 1;\n\n        _saveSyntheticTokenPriceSnapshots(\n            marketIndex,\n            marketUpdateIndex[marketIndex],\n            syntheticTokenPriceLong,\n            syntheticTokenPriceShort\n        );\n        _performOustandingSettlements(\n            marketIndex,\n            marketUpdateIndex[marketIndex],\n            syntheticTokenPriceLong,\n            syntheticTokenPriceShort\n        );\n\n        emit SystemStateUpdated(\n            marketIndex,\n            marketUpdateIndex[marketIndex],\n            syntheticTokenPoolValue[marketIndex][true],\n            syntheticTokenPoolValue[marketIndex][false],\n            syntheticTokenPriceLong,\n            syntheticTokenPriceShort\n        );\n    }\n\n    function _updateSystemState(uint32 marketIndex) external override {\n        _updateSystemStateInternal(marketIndex);\n    }\n\n    function _updateSystemStateMulti(uint32[] calldata marketIndexes)\n        external\n        override\n    {\n        for (uint256 i = 0; i < marketIndexes.length; i++) {\n            _updateSystemStateInternal(marketIndexes[i]);\n        }\n    }\n\n    /*\n            DEPOSIT + WITHDRAWAL      \n      */\n\n    function _depositFunds(uint32 marketIndex, uint256 amount) internal {\n        fundTokens[marketIndex].transferFrom(msg.sender, address(this), amount);\n    }\n\n    // NOTE: Only used in seeding the market.\n    function _lockFundsInMarket(uint32 marketIndex, uint256 amount) internal {\n        _depositFunds(marketIndex, amount);\n        _transferFundsToYieldManager(marketIndex, amount);\n    }\n\n    /*\n     * Returns locked funds from the market to the sender.\n     */\n    function _withdrawFunds(\n        uint32 marketIndex,\n        uint256 amountLong,\n        uint256 amountShort,\n        address user\n    ) internal {\n        uint256 totalAmount = amountLong + amountShort;\n\n        if (totalAmount == 0) {\n            return;\n        }\n\n        assert(\n            syntheticTokenPoolValue[marketIndex][true] >= amountLong &&\n                syntheticTokenPoolValue[marketIndex][false] >= amountShort\n        );\n\n        _transferFromYieldManager(marketIndex, totalAmount);\n\n        // Transfer funds to the sender.\n        fundTokens[marketIndex].transfer(user, totalAmount);\n\n        syntheticTokenPoolValue[marketIndex][true] -= amountLong;\n        syntheticTokenPoolValue[marketIndex][false] -= amountShort;\n    }\n\n    function _burnSynthTokensForRedemption(\n        uint32 marketIndex,\n        uint256 amountSynthToRedeemLong,\n        uint256 amountSynthToRedeemShort\n    ) internal {\n        if (amountSynthToRedeemLong > 0) {\n            syntheticTokens[marketIndex][true].synthRedeemBurn(\n                address(this),\n                amountSynthToRedeemLong\n            );\n        }\n\n        if (amountSynthToRedeemShort > 0) {\n            syntheticTokens[marketIndex][false].synthRedeemBurn(\n                address(this),\n                amountSynthToRedeemShort\n            );\n        }\n    }\n\n    /*\n           TREASURY + YIELD MANAGER     \n      */\n\n    /*\n     * Transfers locked funds from LongShort into the yield manager.\n     */\n    function _transferFundsToYieldManager(uint32 marketIndex, uint256 amount)\n        internal\n    {\n        // TODO STENT note there are 2 approvals & 2 transfers here:\n        //     1. approve transfer from this contract to yield manager contract\n        //     2. transfer from this contract to yield manager contract\n        //     3. approve transfer from yield manager contract to lendingPool contract\n        //     4. transfer from yield mnager contract to lendingPool contract\n        // Surely we can make this more efficient?\n        fundTokens[marketIndex].approve(\n            address(yieldManagers[marketIndex]),\n            amount\n        );\n        yieldManagers[marketIndex].depositToken(amount);\n    }\n\n    /*\n     * Transfers locked funds from the yield manager into LongShort.\n     */\n    function _transferFromYieldManager(uint32 marketIndex, uint256 amount)\n        internal\n    {\n        // NB there will be issues here if not enough liquidity exists to withdraw\n        // Boolean should be returned from yield manager and think how to appropriately handle this\n        yieldManagers[marketIndex].withdrawToken(amount);\n    }\n\n    /*\n             MINT POSITION       \n      */\n\n    function _mintNextPrice(\n        uint32 marketIndex,\n        uint256 amount,\n        bool isLong\n    )\n        internal\n        updateSystemStateMarket(marketIndex)\n        executeOutstandingNextPriceSettlements(msg.sender, marketIndex)\n    {\n        _depositFunds(marketIndex, amount);\n\n        batchedAmountOfTokensToDeposit[marketIndex][isLong] += amount;\n        userNextPriceDepositAmount[marketIndex][isLong][msg.sender] += amount;\n        userCurrentNextPriceUpdateIndex[marketIndex][msg.sender] =\n            marketUpdateIndex[marketIndex] +\n            1;\n\n        emit NextPriceDeposit(\n            marketIndex,\n            isLong,\n            amount,\n            msg.sender,\n            marketUpdateIndex[marketIndex] + 1\n        );\n    }\n\n    function mintLongNextPrice(uint32 marketIndex, uint256 amount) external {\n        _mintNextPrice(marketIndex, amount, true);\n    }\n\n    function mintShortNextPrice(uint32 marketIndex, uint256 amount) external {\n        _mintNextPrice(marketIndex, amount, false);\n    }\n\n    /*\n            REDEEM POSITION      \n      */\n\n    function _redeemNextPrice(\n        uint32 marketIndex,\n        uint256 tokensToRedeem,\n        bool isLong\n    )\n        internal\n        updateSystemStateMarket(marketIndex)\n        executeOutstandingNextPriceSettlements(msg.sender, marketIndex)\n    {\n        syntheticTokens[marketIndex][isLong].transferFrom(\n            msg.sender,\n            address(this),\n            tokensToRedeem\n        );\n\n        userNextPriceRedemptionAmount[marketIndex][isLong][\n            msg.sender\n        ] += tokensToRedeem;\n        userCurrentNextPriceUpdateIndex[marketIndex][msg.sender] =\n            marketUpdateIndex[marketIndex] +\n            1;\n\n        batchedAmountOfSynthTokensToRedeem[marketIndex][\n            isLong\n        ] += tokensToRedeem;\n\n        emit NextPriceRedeem(\n            marketIndex,\n            isLong,\n            tokensToRedeem,\n            msg.sender,\n            marketUpdateIndex[marketIndex] + 1\n        );\n    }\n\n    function redeemLongNextPrice(uint32 marketIndex, uint256 tokensToRedeem)\n        external\n    {\n        _redeemNextPrice(marketIndex, tokensToRedeem, true);\n    }\n\n    function redeemShortNextPrice(uint32 marketIndex, uint256 tokensToRedeem)\n        external\n    {\n        _redeemNextPrice(marketIndex, tokensToRedeem, false);\n    }\n\n    /*\n           NEXT PRICE SETTLEMENTS     \n      */\n\n    function _executeNextPriceMintsIfTheyExist(\n        uint32 marketIndex,\n        address user,\n        bool isLong\n    ) internal {\n        uint256 currentDepositAmount = userNextPriceDepositAmount[marketIndex][\n            isLong\n        ][user];\n        userNextPriceDepositAmount[marketIndex][isLong][user] = 0;\n        if (currentDepositAmount > 0) {\n            uint256 tokensToTransferToUser = _getAmountSynthToken(\n                currentDepositAmount,\n                syntheticTokenPriceSnapshot[marketIndex][isLong][\n                    userCurrentNextPriceUpdateIndex[marketIndex][user]\n                ]\n            );\n            syntheticTokens[marketIndex][isLong].transfer(\n                user,\n                tokensToTransferToUser\n            );\n        }\n    }\n\n    function _executeOutstandingNextPriceRedeems(\n        uint32 marketIndex,\n        address user,\n        bool isLong\n    ) internal {\n        uint256 currentRedemptions = userNextPriceRedemptionAmount[marketIndex][\n            isLong\n        ][user];\n        userNextPriceRedemptionAmount[marketIndex][isLong][user] = 0;\n        if (currentRedemptions > 0) {\n            uint256 amountToRedeem = _getAmountPaymentToken(\n                currentRedemptions,\n                syntheticTokenPriceSnapshot[marketIndex][isLong][\n                    userCurrentNextPriceUpdateIndex[marketIndex][user]\n                ]\n            );\n            fundTokens[marketIndex].transfer(user, amountToRedeem);\n        }\n    }\n\n    function _executeOutstandingNextPriceSettlements(\n        address user,\n        uint32 marketIndex\n    ) internal {\n        uint256 currentUpdateIndex = userCurrentNextPriceUpdateIndex[\n            marketIndex\n        ][user];\n        if (\n            currentUpdateIndex != 0 &&\n            currentUpdateIndex <= marketUpdateIndex[marketIndex]\n        ) {\n            _executeNextPriceMintsIfTheyExist(marketIndex, user, true);\n            _executeNextPriceMintsIfTheyExist(marketIndex, user, false);\n            _executeOutstandingNextPriceRedeems(marketIndex, user, true);\n            _executeOutstandingNextPriceRedeems(marketIndex, user, false);\n\n            userCurrentNextPriceUpdateIndex[marketIndex][user] = 0;\n\n            emit ExecuteNextPriceSettlementsUser(user, marketIndex);\n        }\n    }\n\n    function executeOutstandingNextPriceSettlementsUser(\n        address user,\n        uint32 marketIndex\n    ) external override {\n        _executeOutstandingNextPriceSettlements(user, marketIndex);\n    }\n\n    /*\n         BATCHED NEXT PRICE SETTLEMENT ACTIONS   \n      */\n\n    function _performOustandingSettlements(\n        uint32 marketIndex,\n        uint256 newLatestPriceStateIndex,\n        uint256 syntheticTokenPriceLong,\n        uint256 syntheticTokenPriceShort\n    ) internal {\n        _handleBatchedDepositSettlement(\n            marketIndex,\n            true,\n            syntheticTokenPriceLong\n        );\n        _handleBatchedDepositSettlement(\n            marketIndex,\n            false,\n            syntheticTokenPriceShort\n        );\n        _handleBatchedRedeemSettlement(\n            marketIndex,\n            syntheticTokenPriceLong,\n            syntheticTokenPriceShort\n        );\n    }\n\n    function _handleBatchedDepositSettlement(\n        uint32 marketIndex,\n        bool isLong,\n        uint256 syntheticTokenPrice\n    ) internal {\n        uint256 amountToBatchDeposit = batchedAmountOfTokensToDeposit[\n            marketIndex\n        ][isLong];\n\n        if (amountToBatchDeposit > 0) {\n            batchedAmountOfTokensToDeposit[marketIndex][isLong] = 0;\n            _transferFundsToYieldManager(marketIndex, amountToBatchDeposit);\n\n            uint256 numberOfTokens = _getAmountSynthToken(\n                amountToBatchDeposit,\n                syntheticTokenPrice\n            );\n\n            // TODO STENT there are no token mint events emitted here, but there are on market initialization\n            syntheticTokens[marketIndex][isLong].mint(\n                address(this),\n                numberOfTokens\n            );\n\n            syntheticTokenPoolValue[marketIndex][\n                isLong\n            ] += amountToBatchDeposit;\n        }\n    }\n\n    function _handleBatchedRedeemSettlement(\n        uint32 marketIndex,\n        uint256 syntheticTokenPriceLong,\n        uint256 syntheticTokenPriceShort\n    ) internal {\n        _burnSynthTokensForRedemption(\n            marketIndex,\n            batchedAmountOfSynthTokensToRedeem[marketIndex][true],\n            batchedAmountOfSynthTokensToRedeem[marketIndex][false]\n        );\n\n        uint256 longAmountOfPaymentTokenToRedeem = _getAmountPaymentToken(\n            batchedAmountOfSynthTokensToRedeem[marketIndex][true],\n            syntheticTokenPriceLong\n        );\n        uint256 shortAmountOfPaymentTokenToRedeem = _getAmountPaymentToken(\n            batchedAmountOfSynthTokensToRedeem[marketIndex][false],\n            syntheticTokenPriceShort\n        );\n\n        batchedAmountOfSynthTokensToRedeem[marketIndex][true] = 0;\n        batchedAmountOfSynthTokensToRedeem[marketIndex][false] = 0;\n\n        _withdrawFunds(\n            marketIndex,\n            longAmountOfPaymentTokenToRedeem,\n            shortAmountOfPaymentTokenToRedeem,\n            address(this)\n        );\n    }\n}\n",
  "sourcePath": "/home/jasoons/Documents/code/monorepo/contracts/contracts/LongShort.sol",
  "compiler": {
    "name": "solc",
    "version": "0.8.3+commit.8d00100c.Emscripten.clang"
  },
  "schemaVersion": "3.3.4",
  "updatedAt": "2021-07-01T14:26:59.294Z",
  "networkType": "ethereum",
  "devdoc": {
    "details": "{LongShort} contract:**** visit https://float.capital *****  - Ability for users to create synthetic long and short positions on value movements  - Value movements could be derived from tradional or alternative asset classes, derivates, binary outcomes, etc...  - Incentive mechansim providing fees to liquidity makers (users on both sides of order book)",
    "kind": "dev",
    "methods": {},
    "version": 1
  },
  "userdoc": {
    "kind": "user",
    "methods": {
      "getMarketSplit(uint32,uint256)": {
        "notice": "Returns the amount of accrued value that should go to each side of the market. To incentivise balance, more value goes to the weaker side in proportion to how imbalanced the market is."
      },
      "getTreasurySplit(uint32,uint256)": {
        "notice": "Returns the amount of accrued value that should go to the market, and the amount that should be locked into the treasury. To incentivise market balance, more value goes to the market in proportion to how imbalanced it is."
      },
      "newSyntheticMarket(string,string,address,address,address)": {
        "notice": "Creates an entirely new long/short market tracking an underlying oracle price. Make sure the synthetic names/symbols are unique."
      },
      "updateMarketOracle(uint32,address)": {
        "notice": "Update oracle for a market"
      }
    },
    "version": 1
  }
}