{
  "contractName": "LongShort",
  "abi": [
    {
      "anonymous": false,
      "inputs": [
        {
          "indexed": false,
          "internalType": "uint32",
          "name": "marketIndex",
          "type": "uint32"
        },
        {
          "indexed": false,
          "internalType": "uint256",
          "name": "updateIndex",
          "type": "uint256"
        },
        {
          "indexed": false,
          "internalType": "uint256",
          "name": "mintPriceSnapshotLong",
          "type": "uint256"
        },
        {
          "indexed": false,
          "internalType": "uint256",
          "name": "mintPriceSnapshotShort",
          "type": "uint256"
        },
        {
          "indexed": false,
          "internalType": "uint256",
          "name": "redeemPriceSnapshotLong",
          "type": "uint256"
        },
        {
          "indexed": false,
          "internalType": "uint256",
          "name": "redeemPriceSnapshotShort",
          "type": "uint256"
        }
      ],
      "name": "BatchedActionsSettled",
      "type": "event"
    },
    {
      "anonymous": false,
      "inputs": [
        {
          "indexed": false,
          "internalType": "address",
          "name": "user",
          "type": "address"
        },
        {
          "indexed": false,
          "internalType": "uint32",
          "name": "marketIndex",
          "type": "uint32"
        }
      ],
      "name": "ExecuteNextPriceSettlementsUser",
      "type": "event"
    },
    {
      "anonymous": false,
      "inputs": [
        {
          "indexed": false,
          "internalType": "uint32",
          "name": "marketIndex",
          "type": "uint32"
        },
        {
          "indexed": false,
          "internalType": "uint256",
          "name": "baseEntryFee",
          "type": "uint256"
        },
        {
          "indexed": false,
          "internalType": "uint256",
          "name": "badLiquidityEntryFee",
          "type": "uint256"
        },
        {
          "indexed": false,
          "internalType": "uint256",
          "name": "baseExitFee",
          "type": "uint256"
        },
        {
          "indexed": false,
          "internalType": "uint256",
          "name": "badLiquidityExitFee",
          "type": "uint256"
        }
      ],
      "name": "FeesChanges",
      "type": "event"
    },
    {
      "anonymous": false,
      "inputs": [
        {
          "indexed": false,
          "internalType": "uint32",
          "name": "marketIndex",
          "type": "uint32"
        },
        {
          "indexed": false,
          "internalType": "uint256",
          "name": "totalFees",
          "type": "uint256"
        }
      ],
      "name": "FeesLevied",
      "type": "event"
    },
    {
      "anonymous": false,
      "inputs": [
        {
          "indexed": false,
          "internalType": "uint32",
          "name": "marketIndex",
          "type": "uint32"
        },
        {
          "indexed": false,
          "internalType": "uint256",
          "name": "initialSeed",
          "type": "uint256"
        }
      ],
      "name": "NewMarketLaunchedAndSeeded",
      "type": "event"
    },
    {
      "anonymous": false,
      "inputs": [
        {
          "indexed": false,
          "internalType": "uint32",
          "name": "marketIndex",
          "type": "uint32"
        },
        {
          "indexed": false,
          "internalType": "enum ILongShort.MarketSide",
          "name": "syntheticTokenType",
          "type": "uint8"
        },
        {
          "indexed": false,
          "internalType": "uint256",
          "name": "depositAdded",
          "type": "uint256"
        },
        {
          "indexed": false,
          "internalType": "address",
          "name": "user",
          "type": "address"
        },
        {
          "indexed": false,
          "internalType": "uint256",
          "name": "oracleUpdateIndex",
          "type": "uint256"
        }
      ],
      "name": "NextPriceDeposit",
      "type": "event"
    },
    {
      "anonymous": false,
      "inputs": [
        {
          "indexed": false,
          "internalType": "uint32",
          "name": "marketIndex",
          "type": "uint32"
        },
        {
          "indexed": false,
          "internalType": "enum ILongShort.MarketSide",
          "name": "syntheticTokenType",
          "type": "uint8"
        },
        {
          "indexed": false,
          "internalType": "uint256",
          "name": "synthRedeemed",
          "type": "uint256"
        },
        {
          "indexed": false,
          "internalType": "address",
          "name": "user",
          "type": "address"
        },
        {
          "indexed": false,
          "internalType": "uint256",
          "name": "oracleUpdateIndex",
          "type": "uint256"
        }
      ],
      "name": "NextPriceRedeem",
      "type": "event"
    },
    {
      "anonymous": false,
      "inputs": [
        {
          "indexed": false,
          "internalType": "uint32",
          "name": "marketIndex",
          "type": "uint32"
        },
        {
          "indexed": false,
          "internalType": "address",
          "name": "oldOracleAddress",
          "type": "address"
        },
        {
          "indexed": false,
          "internalType": "address",
          "name": "newOracleAddress",
          "type": "address"
        }
      ],
      "name": "OracleUpdated",
      "type": "event"
    },
    {
      "anonymous": false,
      "inputs": [
        {
          "indexed": false,
          "internalType": "uint32",
          "name": "marketIndex",
          "type": "uint32"
        },
        {
          "indexed": false,
          "internalType": "uint256",
          "name": "oldPrice",
          "type": "uint256"
        },
        {
          "indexed": false,
          "internalType": "uint256",
          "name": "newPrice",
          "type": "uint256"
        },
        {
          "indexed": false,
          "internalType": "address",
          "name": "user",
          "type": "address"
        }
      ],
      "name": "PriceUpdate",
      "type": "event"
    },
    {
      "anonymous": false,
      "inputs": [
        {
          "indexed": false,
          "internalType": "uint32",
          "name": "marketIndex",
          "type": "uint32"
        },
        {
          "indexed": false,
          "internalType": "address",
          "name": "longTokenAddress",
          "type": "address"
        },
        {
          "indexed": false,
          "internalType": "address",
          "name": "shortTokenAddress",
          "type": "address"
        },
        {
          "indexed": false,
          "internalType": "address",
          "name": "fundToken",
          "type": "address"
        },
        {
          "indexed": false,
          "internalType": "uint256",
          "name": "assetPrice",
          "type": "uint256"
        },
        {
          "indexed": false,
          "internalType": "string",
          "name": "name",
          "type": "string"
        },
        {
          "indexed": false,
          "internalType": "string",
          "name": "symbol",
          "type": "string"
        },
        {
          "indexed": false,
          "internalType": "address",
          "name": "oracleAddress",
          "type": "address"
        }
      ],
      "name": "SyntheticTokenCreated",
      "type": "event"
    },
    {
      "anonymous": false,
      "inputs": [
        {
          "indexed": false,
          "internalType": "uint32",
          "name": "marketIndex",
          "type": "uint32"
        },
        {
          "indexed": false,
          "internalType": "uint256",
          "name": "longTokenPrice",
          "type": "uint256"
        },
        {
          "indexed": false,
          "internalType": "uint256",
          "name": "shortTokenPrice",
          "type": "uint256"
        }
      ],
      "name": "TokenPriceRefreshed",
      "type": "event"
    },
    {
      "anonymous": false,
      "inputs": [
        {
          "indexed": false,
          "internalType": "address",
          "name": "admin",
          "type": "address"
        },
        {
          "indexed": false,
          "internalType": "address",
          "name": "treasury",
          "type": "address"
        },
        {
          "indexed": false,
          "internalType": "address",
          "name": "tokenFactory",
          "type": "address"
        },
        {
          "indexed": false,
          "internalType": "address",
          "name": "staker",
          "type": "address"
        }
      ],
      "name": "V1",
      "type": "event"
    },
    {
      "anonymous": false,
      "inputs": [
        {
          "indexed": false,
          "internalType": "uint32",
          "name": "marketIndex",
          "type": "uint32"
        },
        {
          "indexed": false,
          "internalType": "uint256",
          "name": "totalValueLockedInMarket",
          "type": "uint256"
        },
        {
          "indexed": false,
          "internalType": "uint256",
          "name": "longValue",
          "type": "uint256"
        },
        {
          "indexed": false,
          "internalType": "uint256",
          "name": "shortValue",
          "type": "uint256"
        }
      ],
      "name": "ValueLockedInSystem",
      "type": "event"
    },
    {
      "inputs": [],
      "name": "DEAD_ADDRESS",
      "outputs": [
        {
          "internalType": "address",
          "name": "",
          "type": "address"
        }
      ],
      "stateMutability": "view",
      "type": "function"
    },
    {
      "inputs": [],
      "name": "TEN_TO_THE_18",
      "outputs": [
        {
          "internalType": "uint256",
          "name": "",
          "type": "uint256"
        }
      ],
      "stateMutability": "view",
      "type": "function"
    },
    {
      "inputs": [],
      "name": "TEN_TO_THE_18_SIGNED",
      "outputs": [
        {
          "internalType": "int256",
          "name": "",
          "type": "int256"
        }
      ],
      "stateMutability": "view",
      "type": "function"
    },
    {
      "inputs": [],
      "name": "admin",
      "outputs": [
        {
          "internalType": "address",
          "name": "",
          "type": "address"
        }
      ],
      "stateMutability": "view",
      "type": "function"
    },
    {
      "inputs": [
        {
          "internalType": "uint32",
          "name": "",
          "type": "uint32"
        }
      ],
      "name": "assetPrice",
      "outputs": [
        {
          "internalType": "uint256",
          "name": "",
          "type": "uint256"
        }
      ],
      "stateMutability": "view",
      "type": "function"
    },
    {
      "inputs": [
        {
          "internalType": "uint32",
          "name": "",
          "type": "uint32"
        }
      ],
      "name": "badLiquidityEntryFee",
      "outputs": [
        {
          "internalType": "uint256",
          "name": "",
          "type": "uint256"
        }
      ],
      "stateMutability": "view",
      "type": "function"
    },
    {
      "inputs": [
        {
          "internalType": "uint32",
          "name": "",
          "type": "uint32"
        }
      ],
      "name": "badLiquidityExitFee",
      "outputs": [
        {
          "internalType": "uint256",
          "name": "",
          "type": "uint256"
        }
      ],
      "stateMutability": "view",
      "type": "function"
    },
    {
      "inputs": [
        {
          "internalType": "uint32",
          "name": "",
          "type": "uint32"
        }
      ],
      "name": "baseEntryFee",
      "outputs": [
        {
          "internalType": "uint256",
          "name": "",
          "type": "uint256"
        }
      ],
      "stateMutability": "view",
      "type": "function"
    },
    {
      "inputs": [
        {
          "internalType": "uint32",
          "name": "",
          "type": "uint32"
        }
      ],
      "name": "baseExitFee",
      "outputs": [
        {
          "internalType": "uint256",
          "name": "",
          "type": "uint256"
        }
      ],
      "stateMutability": "view",
      "type": "function"
    },
    {
      "inputs": [
        {
          "internalType": "uint32",
          "name": "",
          "type": "uint32"
        },
        {
          "internalType": "enum ILongShort.MarketSide",
          "name": "",
          "type": "uint8"
        }
      ],
      "name": "batchedNextPricePaymentTokenToDeposit",
      "outputs": [
        {
          "internalType": "uint256",
          "name": "",
          "type": "uint256"
        }
      ],
      "stateMutability": "view",
      "type": "function"
    },
    {
      "inputs": [
        {
          "internalType": "uint32",
          "name": "",
          "type": "uint32"
        },
        {
          "internalType": "enum ILongShort.MarketSide",
          "name": "",
          "type": "uint8"
        }
      ],
      "name": "batchedNextPriceSynthToRedeem",
      "outputs": [
        {
          "internalType": "uint256",
          "name": "",
          "type": "uint256"
        }
      ],
      "stateMutability": "view",
      "type": "function"
    },
    {
      "inputs": [],
      "name": "feeUnitsOfPrecision",
      "outputs": [
        {
          "internalType": "uint256",
          "name": "",
          "type": "uint256"
        }
      ],
      "stateMutability": "view",
      "type": "function"
    },
    {
      "inputs": [
        {
          "internalType": "uint32",
          "name": "",
          "type": "uint32"
        }
      ],
      "name": "fundTokens",
      "outputs": [
        {
          "internalType": "contract IERC20",
          "name": "",
          "type": "address"
        }
      ],
      "stateMutability": "view",
      "type": "function"
    },
    {
      "inputs": [],
      "name": "latestMarket",
      "outputs": [
        {
          "internalType": "uint32",
          "name": "",
          "type": "uint32"
        }
      ],
      "stateMutability": "view",
      "type": "function"
    },
    {
      "inputs": [
        {
          "internalType": "uint32",
          "name": "",
          "type": "uint32"
        }
      ],
      "name": "latestUpdateIndex",
      "outputs": [
        {
          "internalType": "uint256",
          "name": "",
          "type": "uint256"
        }
      ],
      "stateMutability": "view",
      "type": "function"
    },
    {
      "inputs": [
        {
          "internalType": "uint32",
          "name": "",
          "type": "uint32"
        }
      ],
      "name": "marketExists",
      "outputs": [
        {
          "internalType": "bool",
          "name": "",
          "type": "bool"
        }
      ],
      "stateMutability": "view",
      "type": "function"
    },
    {
      "inputs": [
        {
          "internalType": "uint32",
          "name": "",
          "type": "uint32"
        },
        {
          "internalType": "uint256",
          "name": "",
          "type": "uint256"
        },
        {
          "internalType": "enum ILongShort.MarketSide",
          "name": "",
          "type": "uint8"
        }
      ],
      "name": "mintPriceSnapshot",
      "outputs": [
        {
          "internalType": "uint256",
          "name": "",
          "type": "uint256"
        }
      ],
      "stateMutability": "view",
      "type": "function"
    },
    {
      "inputs": [
        {
          "internalType": "uint32",
          "name": "",
          "type": "uint32"
        }
      ],
      "name": "oracleManagers",
      "outputs": [
        {
          "internalType": "contract IOracleManager",
          "name": "",
          "type": "address"
        }
      ],
      "stateMutability": "view",
      "type": "function"
    },
    {
      "inputs": [
        {
          "internalType": "uint32",
          "name": "",
          "type": "uint32"
        },
        {
          "internalType": "uint256",
          "name": "",
          "type": "uint256"
        },
        {
          "internalType": "enum ILongShort.MarketSide",
          "name": "",
          "type": "uint8"
        }
      ],
      "name": "redeemPriceSnapshot",
      "outputs": [
        {
          "internalType": "uint256",
          "name": "",
          "type": "uint256"
        }
      ],
      "stateMutability": "view",
      "type": "function"
    },
    {
      "inputs": [],
      "name": "staker",
      "outputs": [
        {
          "internalType": "contract IStaker",
          "name": "",
          "type": "address"
        }
      ],
      "stateMutability": "view",
      "type": "function"
    },
    {
      "inputs": [
        {
          "internalType": "enum ILongShort.MarketSide",
          "name": "",
          "type": "uint8"
        },
        {
          "internalType": "uint32",
          "name": "",
          "type": "uint32"
        }
      ],
      "name": "syntheticTokenBackedValue",
      "outputs": [
        {
          "internalType": "uint256",
          "name": "",
          "type": "uint256"
        }
      ],
      "stateMutability": "view",
      "type": "function"
    },
    {
      "inputs": [
        {
          "internalType": "enum ILongShort.MarketSide",
          "name": "",
          "type": "uint8"
        },
        {
          "internalType": "uint32",
          "name": "",
          "type": "uint32"
        }
      ],
      "name": "syntheticTokenPrice",
      "outputs": [
        {
          "internalType": "uint256",
          "name": "",
          "type": "uint256"
        }
      ],
      "stateMutability": "view",
      "type": "function"
    },
    {
      "inputs": [
        {
          "internalType": "enum ILongShort.MarketSide",
          "name": "",
          "type": "uint8"
        },
        {
          "internalType": "uint32",
          "name": "",
          "type": "uint32"
        }
      ],
      "name": "syntheticTokens",
      "outputs": [
        {
          "internalType": "contract ISyntheticToken",
          "name": "",
          "type": "address"
        }
      ],
      "stateMutability": "view",
      "type": "function"
    },
    {
      "inputs": [],
      "name": "tokenFactory",
      "outputs": [
        {
          "internalType": "contract ITokenFactory",
          "name": "",
          "type": "address"
        }
      ],
      "stateMutability": "view",
      "type": "function"
    },
    {
      "inputs": [
        {
          "internalType": "uint32",
          "name": "",
          "type": "uint32"
        }
      ],
      "name": "totalValueLockedInYieldManager",
      "outputs": [
        {
          "internalType": "uint256",
          "name": "",
          "type": "uint256"
        }
      ],
      "stateMutability": "view",
      "type": "function"
    },
    {
      "inputs": [
        {
          "internalType": "uint32",
          "name": "",
          "type": "uint32"
        }
      ],
      "name": "totalValueReservedForTreasury",
      "outputs": [
        {
          "internalType": "uint256",
          "name": "",
          "type": "uint256"
        }
      ],
      "stateMutability": "view",
      "type": "function"
    },
    {
      "inputs": [],
      "name": "treasury",
      "outputs": [
        {
          "internalType": "address",
          "name": "",
          "type": "address"
        }
      ],
      "stateMutability": "view",
      "type": "function"
    },
    {
      "inputs": [
        {
          "internalType": "uint32",
          "name": "",
          "type": "uint32"
        },
        {
          "internalType": "address",
          "name": "",
          "type": "address"
        }
      ],
      "name": "userCurrentNextPriceUpdateIndex",
      "outputs": [
        {
          "internalType": "uint256",
          "name": "",
          "type": "uint256"
        }
      ],
      "stateMutability": "view",
      "type": "function"
    },
    {
      "inputs": [
        {
          "internalType": "uint32",
          "name": "",
          "type": "uint32"
        },
        {
          "internalType": "address",
          "name": "",
          "type": "address"
        },
        {
          "internalType": "enum ILongShort.MarketSide",
          "name": "",
          "type": "uint8"
        }
      ],
      "name": "userNextPriceDepositAmounts",
      "outputs": [
        {
          "internalType": "uint256",
          "name": "",
          "type": "uint256"
        }
      ],
      "stateMutability": "view",
      "type": "function"
    },
    {
      "inputs": [
        {
          "internalType": "uint32",
          "name": "",
          "type": "uint32"
        },
        {
          "internalType": "address",
          "name": "",
          "type": "address"
        },
        {
          "internalType": "enum ILongShort.MarketSide",
          "name": "",
          "type": "uint8"
        }
      ],
      "name": "userNextPriceRedemptions",
      "outputs": [
        {
          "internalType": "uint256",
          "name": "",
          "type": "uint256"
        }
      ],
      "stateMutability": "view",
      "type": "function"
    },
    {
      "inputs": [
        {
          "internalType": "uint32",
          "name": "",
          "type": "uint32"
        }
      ],
      "name": "yieldManagers",
      "outputs": [
        {
          "internalType": "contract IYieldManager",
          "name": "",
          "type": "address"
        }
      ],
      "stateMutability": "view",
      "type": "function"
    },
    {
      "inputs": [
        {
          "internalType": "address",
          "name": "_admin",
          "type": "address"
        },
        {
          "internalType": "address",
          "name": "_treasury",
          "type": "address"
        },
        {
          "internalType": "contract ITokenFactory",
          "name": "_tokenFactory",
          "type": "address"
        },
        {
          "internalType": "contract IStaker",
          "name": "_staker",
          "type": "address"
        }
      ],
      "name": "initialize",
      "outputs": [],
      "stateMutability": "nonpayable",
      "type": "function"
    },
    {
      "inputs": [
        {
          "internalType": "address",
          "name": "_admin",
          "type": "address"
        }
      ],
      "name": "changeAdmin",
      "outputs": [],
      "stateMutability": "nonpayable",
      "type": "function"
    },
    {
      "inputs": [
        {
          "internalType": "address",
          "name": "_treasury",
          "type": "address"
        }
      ],
      "name": "changeTreasury",
      "outputs": [],
      "stateMutability": "nonpayable",
      "type": "function"
    },
    {
      "inputs": [
        {
          "internalType": "uint32",
          "name": "marketIndex",
          "type": "uint32"
        },
        {
          "internalType": "uint256",
          "name": "_baseEntryFee",
          "type": "uint256"
        },
        {
          "internalType": "uint256",
          "name": "_badLiquidityEntryFee",
          "type": "uint256"
        },
        {
          "internalType": "uint256",
          "name": "_baseExitFee",
          "type": "uint256"
        },
        {
          "internalType": "uint256",
          "name": "_badLiquidityExitFee",
          "type": "uint256"
        }
      ],
      "name": "changeFees",
      "outputs": [],
      "stateMutability": "nonpayable",
      "type": "function"
    },
    {
      "inputs": [
        {
          "internalType": "uint32",
          "name": "marketIndex",
          "type": "uint32"
        },
        {
          "internalType": "address",
          "name": "_newOracleManager",
          "type": "address"
        }
      ],
      "name": "updateMarketOracle",
      "outputs": [],
      "stateMutability": "nonpayable",
      "type": "function"
    },
    {
      "inputs": [
        {
          "internalType": "string",
          "name": "syntheticName",
          "type": "string"
        },
        {
          "internalType": "string",
          "name": "syntheticSymbol",
          "type": "string"
        },
        {
          "internalType": "address",
          "name": "_fundToken",
          "type": "address"
        },
        {
          "internalType": "address",
          "name": "_oracleManager",
          "type": "address"
        },
        {
          "internalType": "address",
          "name": "_yieldManager",
          "type": "address"
        }
      ],
      "name": "newSyntheticMarket",
      "outputs": [],
      "stateMutability": "nonpayable",
      "type": "function"
    },
    {
      "inputs": [
        {
          "internalType": "uint32",
          "name": "marketIndex",
          "type": "uint32"
        },
        {
          "internalType": "uint256",
          "name": "_baseEntryFee",
          "type": "uint256"
        },
        {
          "internalType": "uint256",
          "name": "_badLiquidityEntryFee",
          "type": "uint256"
        },
        {
          "internalType": "uint256",
          "name": "_baseExitFee",
          "type": "uint256"
        },
        {
          "internalType": "uint256",
          "name": "_badLiquidityExitFee",
          "type": "uint256"
        },
        {
          "internalType": "uint256",
          "name": "kInitialMultiplier",
          "type": "uint256"
        },
        {
          "internalType": "uint256",
          "name": "kPeriod",
          "type": "uint256"
        },
        {
          "internalType": "uint256",
          "name": "initialMarketSeed",
          "type": "uint256"
        }
      ],
      "name": "initializeMarket",
      "outputs": [],
      "stateMutability": "nonpayable",
      "type": "function"
    },
    {
      "inputs": [
        {
          "internalType": "uint32",
          "name": "marketIndex",
          "type": "uint32"
        },
        {
          "internalType": "uint256",
          "name": "amount",
          "type": "uint256"
        }
      ],
      "name": "getTreasurySplit",
      "outputs": [
        {
          "internalType": "uint256",
          "name": "marketAmount",
          "type": "uint256"
        },
        {
          "internalType": "uint256",
          "name": "treasuryAmount",
          "type": "uint256"
        }
      ],
      "stateMutability": "view",
      "type": "function"
    },
    {
      "inputs": [
        {
          "internalType": "uint32",
          "name": "marketIndex",
          "type": "uint32"
        },
        {
          "internalType": "uint256",
          "name": "amount",
          "type": "uint256"
        }
      ],
      "name": "getMarketSplit",
      "outputs": [
        {
          "internalType": "uint256",
          "name": "longAmount",
          "type": "uint256"
        },
        {
          "internalType": "uint256",
          "name": "shortAmount",
          "type": "uint256"
        }
      ],
      "stateMutability": "view",
      "type": "function"
    },
    {
      "inputs": [
        {
          "internalType": "uint32",
          "name": "marketIndex",
          "type": "uint32"
        }
      ],
      "name": "_updateSystemState",
      "outputs": [],
      "stateMutability": "nonpayable",
      "type": "function"
    },
    {
      "inputs": [
        {
          "internalType": "uint32[]",
          "name": "marketIndexes",
          "type": "uint32[]"
        }
      ],
      "name": "_updateSystemStateMulti",
      "outputs": [],
      "stateMutability": "nonpayable",
      "type": "function"
    },
    {
      "inputs": [
        {
          "internalType": "uint32",
          "name": "marketIndex",
          "type": "uint32"
        }
      ],
      "name": "transferTreasuryFunds",
      "outputs": [],
      "stateMutability": "nonpayable",
      "type": "function"
    },
    {
      "inputs": [
        {
          "internalType": "address",
          "name": "user",
          "type": "address"
        },
        {
          "internalType": "uint32",
          "name": "marketIndex",
          "type": "uint32"
        },
        {
          "internalType": "enum ILongShort.MarketSide",
          "name": "syntheticTokenType",
          "type": "uint8"
        }
      ],
      "name": "getUsersPendingBalance",
      "outputs": [
        {
          "internalType": "uint256",
          "name": "pendingBalance",
          "type": "uint256"
        }
      ],
      "stateMutability": "view",
      "type": "function"
    },
    {
      "inputs": [
        {
          "internalType": "address",
          "name": "user",
          "type": "address"
        },
        {
          "internalType": "uint32",
          "name": "marketIndex",
          "type": "uint32"
        }
      ],
      "name": "executeOutstandingNextPriceSettlementsUser",
      "outputs": [],
      "stateMutability": "nonpayable",
      "type": "function"
    },
    {
      "inputs": [
        {
          "internalType": "uint32",
          "name": "marketIndex",
          "type": "uint32"
        },
        {
          "internalType": "uint256",
          "name": "amount",
          "type": "uint256"
        }
      ],
      "name": "mintLongNextPrice",
      "outputs": [],
      "stateMutability": "nonpayable",
      "type": "function"
    },
    {
      "inputs": [
        {
          "internalType": "uint32",
          "name": "marketIndex",
          "type": "uint32"
        },
        {
          "internalType": "uint256",
          "name": "amount",
          "type": "uint256"
        }
      ],
      "name": "mintShortNextPrice",
      "outputs": [],
      "stateMutability": "nonpayable",
      "type": "function"
    },
    {
      "inputs": [
        {
          "internalType": "uint32",
          "name": "marketIndex",
          "type": "uint32"
        },
        {
          "internalType": "uint256",
          "name": "tokensToRedeem",
          "type": "uint256"
        }
      ],
      "name": "redeemLongNextPrice",
      "outputs": [],
      "stateMutability": "nonpayable",
      "type": "function"
    },
    {
      "inputs": [
        {
          "internalType": "uint32",
          "name": "marketIndex",
          "type": "uint32"
        },
        {
          "internalType": "uint256",
          "name": "tokensToRedeem",
          "type": "uint256"
        }
      ],
      "name": "redeemShortNextPrice",
      "outputs": [],
      "stateMutability": "nonpayable",
      "type": "function"
    }
  ],
  "bytecode": "0x608060405234801561001057600080fd5b50614853806100206000396000f3fe608060405234801561001057600080fd5b50600436106102bb5760003560e01c8063a42b519111610182578063d0bf44a8116100e9578063e6b604e0116100a2578063f851a4401161007c578063f851a44014610816578063f8c8765e1461082f578063fa35f46314610842578063facd8c0f14610873576102bb565b8063e6b604e0146107dd578063e77772fe146107f0578063eb10854014610803576102bb565b8063d0bf44a814610757578063d2d2ef76146103ec578063d47540bc14610777578063d4898f1f1461078a578063d8d3ded1146107aa578063de89c0cd146107bd576102bb565b8063b2bdc9681161013b578063b2bdc9681461068d578063b36f5374146106ad578063c2e12471146106e0578063c9373084146106f3578063cc9a816314610713578063cd59e15314610744576102bb565b8063a42b5191146105c6578063a71f2b47146105f1578063abd1711b14610611578063ae369fc61461063c578063b03b214214610667578063b14f2a391461067a576102bb565b806361d027b3116102265780638900bdfa116101df5780638900bdfa14610531578063897a0786146105515780638f2839701461056457806391a9fa611461057757806393967c6b1461058a5780639c5b0ee31461059d576102bb565b806361d027b314610467578063636190c81461047a57806364d16f53146104a6578063738a4e80146104b9578063867dfc6d146104ed57806387e2c53114610500576102bb565b80632cbf458d116102785780632cbf458d146103e35780633697cece146103ec5780634e6fd6c4146103fb5780635520dc36146104165780635c5b1fbb1461042b5780635ebaf1db14610454576102bb565b8063026747fc146102c0578063061ca298146102f35780630faa2087146103245780631badf5c01461034f5780631c4c61131461039057806326a584aa146103bb575b600080fd5b6102e06102ce36600461427e565b60c26020526000908152604090205481565b6040519081526020015b60405180910390f35b6102e061030136600461434d565b60f460209081526000938452604080852082529284528284209052825290205481565b6102e06103323660046141a5565b606360209081526000928352604080842090915290825290205481565b61037861035d36600461427e565b6066602052600090815260409020546001600160a01b031681565b6040516001600160a01b0390911681526020016102ea565b6102e061039e3660046142fb565b60f760209081526000928352604080842090915290825290205481565b6103ce6103c9366004614324565b610886565b604080519283526020830191909152016102ea565b6102e061271081565b6102e0670de0b6b3a764000081565b61037873f10a7f10a7f10a7f10a7f10a7f10a7f10a7f10a781565b61042961042436600461437f565b610a1d565b005b61037861043936600461427e565b6064602052600090815260409020546001600160a01b031681565b600454610378906001600160a01b031681565b600254610378906001600160a01b031681565b60005461049190600160b01b900463ffffffff1681565b60405163ffffffff90911681526020016102ea565b6104296104b4366004614298565b610a6a565b6103786104c73660046141a5565b60946020908152600092835260408084209091529082529020546001600160a01b031681565b6104296104fb366004614324565b610b17565b6102e061050e3660046142ce565b60f860209081526000938452604080852082529284528284209052825290205481565b6102e061053f36600461427e565b60626020526000908152604090205481565b61042961055f366004614081565b610b27565b61042961057236600461400a565b610b31565b610429610585366004614324565b610b8b565b6104296105983660046143c0565b610b97565b6103786105ab36600461427e565b6065602052600090815260409020546001600160a01b031681565b6102e06105d43660046142fb565b60f660209081526000928352604080842090915290825290205481565b6102e06105ff36600461427e565b60606020526000908152604090205481565b6102e061061f3660046141a5565b605f60209081526000928352604080842090915290825290205481565b6102e061064a366004614298565b60fa60209081526000928352604080842090915290825290205481565b61042961067536600461427e565b610d12565b61042961068836600461400a565b610d1e565b6102e061069b36600461427e565b60c46020526000908152604090205481565b6106d06106bb36600461427e565b60016020526000908152604090205460ff1681565b60405190151581526020016102ea565b6104296106ee366004614324565b610d70565b6102e061070136600461427e565b60f36020526000908152604090205481565b6102e06107213660046142ce565b60f960209081526000938452604080852082529284528284209052825290205481565b6102e06107523660046140b5565b610d7c565b6102e061076536600461427e565b60616020526000908152604090205481565b6104296107853660046141d8565b610f1d565b6102e061079836600461427e565b60c36020526000908152604090205481565b6104296107b83660046140f9565b611369565b6102e06107cb36600461427e565b60c56020526000908152604090205481565b6104296107eb366004614324565b6113c8565b600354610378906001600160a01b031681565b6103ce610811366004614324565b6113d4565b600054610378906201000090046001600160a01b031681565b61042961083d366004614026565b611485565b6102e061085036600461434d565b60f560209081526000938452604080852082529284528284209052825290205481565b61042961088136600461427e565b6115e1565b63ffffffff8216600090815260008051602061479e83398151915260209081526040808320546000805160206147be8339815191529092528220548291829182916108d09161458b565b63ffffffff8716600090815260008051602061479e83398151915260209081526040808320546000805160206147be8339815191529092529091205491925010156109795763ffffffff8616600090815260008051602061479e83398151915260209081526040808320546000805160206147be83398151915290925290912054829161095c916146c6565b61096890612710614668565b61097291906145d1565b91506109d9565b63ffffffff861660009081526000805160206147be833981519152602090815260408083205460008051602061479e8339815191529092529091205482916109c0916146c6565b6109cc90612710614668565b6109d691906145d1565b91505b6127106109e68684614668565b6109f091906145d1565b93506109fc84866146c6565b9250610a08838561458b565b8514610a1357600080fd5b50505b9250929050565b6000546201000090046001600160a01b03163314610a565760405162461bcd60e51b8152600401610a4d90614496565b60405180910390fd5b610a6385858486856116f7565b5050505050565b6000546201000090046001600160a01b03163314610a9a5760405162461bcd60e51b8152600401610a4d90614496565b63ffffffff821660008181526066602090815260409182902080546001600160a01b038681166001600160a01b03198316811790935584519586521691840182905291830191909152907ffc4d69f373858d480cfc3f12e7cc7f9b12201291753ffc3babef0e7a8041979f906060015b60405180910390a1505050565b610b238282600061178f565b5050565b610b23828261194e565b6000546201000090046001600160a01b03163314610b615760405162461bcd60e51b8152600401610a4d90614496565b600080546001600160a01b03909216620100000262010000600160b01b0319909216919091179055565b610b238282600161178f565b6000546201000090046001600160a01b03163314610bc75760405162461bcd60e51b8152600401610a4d90614496565b63ffffffff881660009081526001602052604090205460ff16158015610c00575060005463ffffffff600160b01b909104811690891611155b610c0957600080fd5b63ffffffff88166000908152600160208190526040909120805460ff19169091179055610c3988888789886116f7565b600480546000805463ffffffff8c8116835260008051602061477e83398151915260209081526040808520546000805160206147fe8339815191529092529384902054935163ebe6ca9d60e01b8152600160b01b909304909116948201949094526001600160a01b0393841660248201529083166044820152606481018690526084810185905291169063ebe6ca9d9060a401600060405180830381600087803b158015610ce657600080fd5b505af1158015610cfa573d6000803e3d6000fd5b50505050610d0881896119e4565b5050505050505050565b610d1b81611c09565b50565b6000546201000090046001600160a01b03163314610d4e5760405162461bcd60e51b8152600401610a4d90614496565b600280546001600160a01b0319166001600160a01b0392909216919091179055565b610b23828260006120fa565b63ffffffff8216600090815260016020526040812054839060ff16610dda5760405162461bcd60e51b81526020600482015260146024820152731b585c9ad95d08191bd95cdb89dd08195e1a5cdd60621b6044820152606401610a4d565b63ffffffff8416600090815260f3602090815260408083205460fa83528184206001600160a01b038a1685529092529091205411610f105763ffffffff8416600090815260f9602090815260408083206001600160a01b0389168452909152812081856001811115610e5c57634e487b7160e01b600052602160045260246000fd5b6001811115610e7b57634e487b7160e01b600052602160045260246000fd5b81526020019081526020016000205490506000610f068260636000886001811115610eb657634e487b7160e01b600052602160045260246000fd5b6001811115610ed557634e487b7160e01b600052602160045260246000fd5b815260200190815260200160002060008963ffffffff1663ffffffff16815260200190815260200160002054612394565b9350610f15915050565b600091505b509392505050565b6000546201000090046001600160a01b03163314610f4d5760405162461bcd60e51b8152600401610a4d90614496565b60008054600160b01b900463ffffffff16906016610f6a836146f8565b82546101009290920a63ffffffff818102199093169183160217909155600354600480546000546040516308ad7e0560e31b81526001600160a01b03948516965063456bf02895610fd2958f958f958f958f959390911693600160b01b909104169101614445565b602060405180830381600087803b158015610fec57600080fd5b505af1158015611000573d6000803e3d6000fd5b505050506040513d601f19601f820116820180604052508101906110249190614189565b6094600080815260200190815260200160002060008060169054906101000a900463ffffffff1663ffffffff1663ffffffff16815260200190815260200160002060006101000a8154816001600160a01b0302191690836001600160a01b03160217905550600360009054906101000a90046001600160a01b03166001600160a01b031663c0b77cf788888888600460009054906101000a90046001600160a01b0316600060169054906101000a900463ffffffff166040518763ffffffff1660e01b81526004016110fb96959493929190614445565b602060405180830381600087803b15801561111557600080fd5b505af1158015611129573d6000803e3d6000fd5b505050506040513d601f19601f8201168201806040525081019061114d9190614189565b6000805463ffffffff600160b01b91829004811683526000805160206147fe8339815191526020908152604080852080546001600160a01b039788166001600160a01b0319918216179091558554859004841686526000805160206147de8339815191528352818620670de0b6b3a76400009081905586548690048516875260008051602061475e83398151915284528287205585548590048416865260648352818620805482168b891617905585548590048416865260658352818620805482168989161790558554859004841686526066835281862080549091168988161790558454939093049091168352818320548251630ce74fc560e31b8152925194169363673a7e28936004808501948390030190829087803b15801561127257600080fd5b505af1158015611286573d6000803e3d6000fd5b505050506040513d601f19601f820116820180604052508101906112aa91906141c0565b6000805463ffffffff600160b01b91829004811683526062602081815260408086209690965584549390930490911680845260008051602061477e8339815191528352848420546000805160206147fe83398151915284528585205492909352928490205493517f01d45c422ec27e66f2a01f895833c12169c58817ba9eb3b4d8e2fda86959d99f9461135894936001600160a01b039081169316918991908e908e908e908e908d906144ba565b60405180910390a150505050505050565b60005b818110156113c3576113b183838381811061139757634e487b7160e01b600052603260045260246000fd5b90506020020160208101906113ac919061427e565b611c09565b806113bb816146dd565b91505061136c565b505050565b610b23828260016120fa565b63ffffffff8216600090815260008051602061479e83398151915260209081526040808320546000805160206147be8339815191529092528220548291829161141d919061458b565b63ffffffff8616600090815260008051602061479e833981519152602052604090205461144c90612710614668565b61145691906145d1565b90506127106114658286614668565b61146f91906145d1565b925061147b83856146c6565b9150509250929050565b600054610100900460ff168061149e575060005460ff16155b6115015760405162461bcd60e51b815260206004820152602e60248201527f496e697469616c697a61626c653a20636f6e747261637420697320616c72656160448201526d191e481a5b9a5d1a585b1a5e995960921b6064820152608401610a4d565b600054610100900460ff16158015611523576000805461ffff19166101011790555b6000805462010000600160b01b031916620100006001600160a01b0388811691820292909217909255600280546001600160a01b0319908116888416908117909255600380548216888516908117909155600480549092169387169384179091556040805194855260208501929092529083015260608201527fa9f3221832df6af126767c0e7fe3b550b0a97a07ed205459eefd4bbe29158b719060800160405180910390a18015610a63576000805461ff00191690555050505050565b6002546001600160a01b0316331461162b5760405162461bcd60e51b815260206004820152600d60248201526c6f6e6c7920747265617375727960981b6044820152606401610a4d565b63ffffffff811660009081526061602052604081208054919055806116505750610d1b565b61165a82826123bc565b63ffffffff82166000908152606460205260409081902054600254915163a9059cbb60e01b81526001600160a01b0392831660048201526024810184905291169063a9059cbb906044015b602060405180830381600087803b1580156116bf57600080fd5b505af11580156116d3573d6000803e3d6000fd5b505050506040513d601f19601f820116820180604052508101906113c39190614169565b63ffffffff858116600090815260c26020908152604080832088905560c4825280832087905560c3825280832086905560c5825280832085905591548251600160b01b90910490931683528201869052810183905260608101849052608081018290527f9334feae13767655a4683b8e764f47a7359c96684bdafb8c41cc6f2edcf1e6779060a0015b60405180910390a15050505050565b8261179981611c09565b33846117a5828261194e565b6117af86866124f2565b63ffffffff8616600090815260f66020526040812086918660018111156117e657634e487b7160e01b600052602160045260246000fd5b600181111561180557634e487b7160e01b600052602160045260246000fd5b81526020019081526020016000206000828254611822919061458b565b909155505063ffffffff8616600090815260f9602090815260408083203384529091528120869186600181111561186957634e487b7160e01b600052602160045260246000fd5b600181111561188857634e487b7160e01b600052602160045260246000fd5b815260200190815260200160002060008282546118a5919061458b565b909155505063ffffffff8616600090815260f360205260409020546118cb90600161458b565b63ffffffff8716600081815260fa60209081526040808320338085529083528184209590955592825260f3905220547f9a0a1aca29eb5748baa51b59d86e8e2df0e06bd97e457d5d259c2ec4ebd455a49188918791899161192d90600161458b565b60405161193e959493929190614534565b60405180910390a1505050505050565b63ffffffff8116600081815260fa602090815260408083206001600160a01b038716845282528083205493835260f3909152902054811180159061199157508015155b156113c3576119a08383612543565b604080516001600160a01b038516815263ffffffff841660208201527fe03aa867e2345cc967d98e4c81f6b0707b5ef082d9d20bac3dcf95540acdeae49101610b0a565b67016345785d8a00008211611a495760405162461bcd60e51b815260206004820152602560248201527f496e73756666696369656e742076616c756520746f207365656420746865206d604482015264185c9ad95d60da1b6064820152608401610a4d565b611a5d81611a58846002614668565b6125a0565b63ffffffff8116600090815260008051602061477e83398151915260205260408082205481516340c10f1960e01b815273f10a7f10a7f10a7f10a7f10a7f10a7f10a7f10a760048201526024810186905291516001600160a01b03909116926340c10f19926044808201939182900301818387803b158015611ade57600080fd5b505af1158015611af2573d6000803e3d6000fd5b5050505063ffffffff811660009081526000805160206147fe83398151915260205260408082205481516340c10f1960e01b815273f10a7f10a7f10a7f10a7f10a7f10a7f10a7f10a760048201526024810186905291516001600160a01b03909116926340c10f19926044808201939182900301818387803b158015611b7757600080fd5b505af1158015611b8b573d6000803e3d6000fd5b5050505063ffffffff811660008181526000805160206147be8339815191526020908152604080832086905560008051602061479e8339815191528252918290208590558151928352820184905280517f6b73d8f672e796176444c21cb5429d8ea426e6f0f8a3b34e7057a808be5d19c69281900390910190a15050565b63ffffffff8116600090815260016020526040902054819060ff16611c675760405162461bcd60e51b81526020600482015260146024820152731b585c9ad95d08191bd95cdb89dd08195e1a5cdd60621b6044820152606401610a4d565b6004805463ffffffff841660008181526000805160206147de833981519152602090815260408083205460008051602061475e8339815191528352818420546000805160206147be83398151915284528285205460008051602061479e83398151915290945282852054835163368e71f760e11b815298890196909652602488019190915260448701526064860191909152608485019290925290516001600160a01b0390921692636d1ce3ee9260a4808301939282900301818387803b158015611d3157600080fd5b505af1158015611d45573d6000803e3d6000fd5b5050505063ffffffff82166000908152606660209081526040808320548151630ce74fc560e31b815291516001600160a01b039091169263673a7e28926004808201939182900301818787803b158015611d9e57600080fd5b505af1158015611db2573d6000803e3d6000fd5b505050506040513d601f19601f82011682018060405250810190611dd691906141c0565b90506000611de484836125b4565b905080156120f45763ffffffff841660009081526000805160206147be833981519152602052604090205415801590611e3e575063ffffffff8416600090815260008051602061479e833981519152602052604090205415155b611e5857634e487b7160e01b600052600160045260246000fd5b611e6184612782565b63ffffffff84166000818152606260209081526040918290205482519384529083015281018390523360608201527fd71bf4c0282ba3f822633c7855d997e3e0dd859f876d8e5cd9b65317c86dda849060800160405180910390a1611ec58461289c565b63ffffffff8416600090815260626020908152604080832085905560f3909152812054611ef390600161458b565b63ffffffff8616600081815260f3602090815260408083208590556000805160206147de83398151915282528083205460f4835281842086855283528184208480528084528285209190915593835260008051602061475e83398151915282528083205460018452939091529020559050611f6f856000612af8565b611f7a856001612af8565b611f8385612e6a565b63ffffffff8516600081815260f460209081526040808320858452825280832083805282528083205460018085528285205486865260f58552838620888752855283862086805285528386205491865294839020548351968752938601879052858301919091526060850193909352608084019290925260a0830152517febc20ca2ddd861fa20d8b739b578c0326d4dd550778d87fbc55ae1022b96d78b9181900360c00190a163ffffffff8516600090815260008051602061479e83398151915260209081526040808320546000805160206147be833981519152909252909120547f55b867eafd3a5bb583d0c262b914e900c0fa21c2ffc34e64f80acf4c9c0ae4f9918791612094919061458b565b63ffffffff88811660009081526000805160206147be833981519152602090815260408083205460008051602061479e83398151915283529281902054815196909416865290850193909352918301919091526060820152608001611780565b50505050565b8261210481611c09565b3384612110828261194e565b6094600085600181111561213457634e487b7160e01b600052602160045260246000fd5b600181111561215357634e487b7160e01b600052602160045260246000fd5b81526020808201929092526040908101600090812063ffffffff8a168252909252908190205490516323b872dd60e01b8152336004820152306024820152604481018790526001600160a01b03909116906323b872dd90606401602060405180830381600087803b1580156121c757600080fd5b505af11580156121db573d6000803e3d6000fd5b505050506040513d601f19601f820116820180604052508101906121ff9190614169565b5063ffffffff8616600090815260f3602052604081205461222190600161458b565b63ffffffff8816600090815260f860209081526040808320338452909152812091925087919087600181111561226757634e487b7160e01b600052602160045260246000fd5b600181111561228657634e487b7160e01b600052602160045260246000fd5b815260200190815260200160002060008282546122a3919061458b565b909155505063ffffffff8716600081815260fa60209081526040808320338452825280832085905592825260f7905290812087918760018111156122f757634e487b7160e01b600052602160045260246000fd5b600181111561231657634e487b7160e01b600052602160045260246000fd5b81526020019081526020016000206000828254612333919061458b565b909155505063ffffffff8716600090815260f360205260409020547f41e3e76ce68a1c44f4659e645473faf87b13de52e56fad5b84a7b5dc7f314e2990889087908990339061238390600161458b565b604051611358959493929190614534565b6000816123a9670de0b6b3a764000085614668565b6123b391906145d1565b90505b92915050565b63ffffffff82166000908152606060205260409020548111156123de57600080fd5b63ffffffff82166000908152606560205260409081902054905163285d531160e11b8152600481018390526001600160a01b03909116906350baa62290602401600060405180830381600087803b15801561243857600080fd5b505af115801561244c573d6000803e3d6000fd5b5050505063ffffffff8216600090815260606020526040812080548392906124759084906146c6565b909155505063ffffffff821660009081526061602090815260408083205460008051602061479e8339815191528352818420546000805160206147be8339815191529093529220546124c7919061458b565b6124d1919061458b565b63ffffffff83166000908152606060205260409020541115610b2357600080fd5b63ffffffff82166000908152606460208190526040918290205491516323b872dd60e01b8152336004820152306024820152604481018490526001600160a01b03909216916323b872dd91016116a5565b61254f81836000612fa1565b61255b81836001612fa1565b61256781836000613225565b61257381836001613225565b63ffffffff16600090815260fa602090815260408083206001600160a01b03909416835292905290812055565b6125aa82826124f2565b610b2382826134ec565b63ffffffff8216600090815260626020526040812054828114156125dc5760009150506123b6565b63ffffffff841660009081526000805160206147be833981519152602090815260408083205460008051602061479e8339815191529092528220546126219190613631565b9050600082670de0b6b3a76400006126398288614687565b61264391906145e5565b61264d91906145a3565b90506000670de0b6b3a764000061266484846145e5565b61266e91906145a3565b905060008113156126ed5763ffffffff871660009081526000805160206147be8339815191526020526040812080548392906126ab90849061458b565b909155505063ffffffff8716600090815260008051602061479e8339815191526020526040812080548392906126e29084906146c6565b909155506127759050565b6126f9816000196145e5565b63ffffffff881660009081526000805160206147be83398151915260205260408120805490919061272b9084906146c6565b9091555061273d9050816000196145e5565b63ffffffff8816600090815260008051602061479e83398151915260205260408120805490919061276f90849061458b565b90915550505b5060019695505050505050565b63ffffffff811660009081526060602090815260408083205460658352818420548251638fb9801760e01b8152925191936001600160a01b0390911692638fb98017926004808301939282900301818887803b1580156127e157600080fd5b505af11580156127f5573d6000803e3d6000fd5b505050506040513d601f19601f8201168201806040525081019061281991906141c0565b61282391906146c6565b90508015610b23576000806128388484610886565b63ffffffff861660009081526060602052604081208054939550919350859261286290849061458b565b909155505063ffffffff84166000908152606160205260408120805483929061288c90849061458b565b909155506120f490508483613649565b63ffffffff8116600090815260008051602061477e833981519152602090815260408083205481516318160ddd60e01b815291516001600160a01b03909116926318160ddd9260048082019391829003018186803b1580156128fd57600080fd5b505afa158015612911573d6000803e3d6000fd5b505050506040513d601f19601f8201168201806040525081019061293591906141c0565b9050801561298f5763ffffffff821660009081526000805160206147be833981519152602052604090205461296b9082906136cf565b63ffffffff831660009081526000805160206147de83398151915260205260409020555b63ffffffff821660009081526000805160206147fe833981519152602090815260408083205481516318160ddd60e01b815291516001600160a01b03909116926318160ddd9260048082019391829003018186803b1580156129f057600080fd5b505afa158015612a04573d6000803e3d6000fd5b505050506040513d601f19601f82011682018060405250810190612a2891906141c0565b90508015612a825763ffffffff8316600090815260008051602061479e8339815191526020526040902054612a5e9082906136cf565b63ffffffff8416600090815260008051602061475e83398151915260205260409020555b63ffffffff831660008181526000805160206147de833981519152602090815260408083205460008051602061475e83398151915283529281902054815194855291840192909252908201527f7a64be79521c8048166c160645af5117404a4067d16932c6cda3dcc83958269590606001610b0a565b63ffffffff8216600090815260f66020526040812081836001811115612b2e57634e487b7160e01b600052602160045260246000fd5b6001811115612b4d57634e487b7160e01b600052602160045260246000fd5b815260200190815260200160002054905060008111156113c35763ffffffff8316600090815260f66020526040812081846001811115612b9d57634e487b7160e01b600052602160045260246000fd5b6001811115612bbc57634e487b7160e01b600052602160045260246000fd5b8152602081019190915260400160002055612bd783826134ec565b6000612c518260636000866001811115612c0157634e487b7160e01b600052602160045260246000fd5b6001811115612c2057634e487b7160e01b600052602160045260246000fd5b815260200190815260200160002060008763ffffffff1663ffffffff16815260200190815260200160002054612394565b905060946000846001811115612c7757634e487b7160e01b600052602160045260246000fd5b6001811115612c9657634e487b7160e01b600052602160045260246000fd5b81526020808201929092526040908101600090812063ffffffff88168252909252908190205490516340c10f1960e01b8152306004820152602481018390526001600160a01b03909116906340c10f1990604401600060405180830381600087803b158015612d0457600080fd5b505af1158015612d18573d6000803e3d6000fd5b5050505081605f6000856001811115612d4157634e487b7160e01b600052602160045260246000fd5b6001811115612d6057634e487b7160e01b600052602160045260246000fd5b815260200190815260200160002060008663ffffffff1663ffffffff1681526020019081526020016000206000828254612d9a919061458b565b909155505063ffffffff841660009081526000805160206147de833981519152602090815260408083205460008051602061475e83398151915290925290912054612de48661289c565b63ffffffff861660009081526000805160206147de83398151915260205260409020548214612e2357634e487b7160e01b600052600160045260246000fd5b63ffffffff8616600090815260008051602061475e83398151915260205260409020548114612e6257634e487b7160e01b600052600160045260246000fd5b505050505050565b63ffffffff8116600090815260f7602090815260408083208380529091528082205460018352908220549091612ea2908490846136e4565b612eae836001836136e4565b63ffffffff831660009081526000805160206147de8339815191526020526040812054612edc9084906137b8565b63ffffffff8516600090815260008051602061475e833981519152602052604081205491925090612f0e9084906137b8565b9050600080612f1e8785856137cd565b90925090506000612f3a88612f3384876146c6565b600161387a565b90506000612f5389612f4c86896146c6565b600061387a565b9050612f6189828430613a2c565b612f6a8961289c565b5050505063ffffffff94909416600090815260f7602090815260408083208380529091528082208290556001825281205550505050565b63ffffffff8316600090815260f9602090815260408083206001600160a01b0386168452909152812081836001811115612feb57634e487b7160e01b600052602160045260246000fd5b600181111561300a57634e487b7160e01b600052602160045260246000fd5b815260200190815260200160002054905060008111156120f45763ffffffff8416600090815260f46020908152604080832060fa83528184206001600160a01b0388168552835281842054845290915281206130b69083908386600181111561308357634e487b7160e01b600052602160045260246000fd5b60018111156130a257634e487b7160e01b600052602160045260246000fd5b815260200190815260200160002054612394565b9050609460008460018111156130dc57634e487b7160e01b600052602160045260246000fd5b60018111156130fb57634e487b7160e01b600052602160045260246000fd5b81526020808201929092526040908101600090812063ffffffff891682529092529081902054905163a9059cbb60e01b81526001600160a01b038681166004830152602482018490529091169063a9059cbb90604401602060405180830381600087803b15801561316b57600080fd5b505af115801561317f573d6000803e3d6000fd5b505050506040513d601f19601f820116820180604052508101906131a39190614169565b5063ffffffff8516600090815260f9602090815260408083206001600160a01b03881684529091528120818560018111156131ee57634e487b7160e01b600052602160045260246000fd5b600181111561320d57634e487b7160e01b600052602160045260246000fd5b81526020810191909152604001600020555050505050565b63ffffffff8316600090815260f8602090815260408083206001600160a01b038616845290915281208183600181111561326f57634e487b7160e01b600052602160045260246000fd5b600181111561328e57634e487b7160e01b600052602160045260246000fd5b815260200190815260200160002054905060008111156120f45763ffffffff8416600090815260f56020908152604080832060fa83528184206001600160a01b03881685528352818420548452909152812061333a9083908386600181111561330757634e487b7160e01b600052602160045260246000fd5b600181111561332657634e487b7160e01b600052602160045260246000fd5b8152602001908152602001600020546137b8565b63ffffffff86166000908152606460205260408082205490516370a0823160e01b815230600482015292935090916001600160a01b03909116906370a082319060240160206040518083038186803b15801561339557600080fd5b505afa1580156133a9573d6000803e3d6000fd5b505050506040513d601f19601f820116820180604052508101906133cd91906141c0565b63ffffffff87166000908152606460205260409081902054905163a9059cbb60e01b81526001600160a01b0388811660048301526024820186905292935091169063a9059cbb90604401602060405180830381600087803b15801561343157600080fd5b505af1158015613445573d6000803e3d6000fd5b505050506040513d601f19601f820116820180604052508101906134699190614169565b5063ffffffff8616600090815260f8602090815260408083206001600160a01b03891684529091528120818660018111156134b457634e487b7160e01b600052602160045260246000fd5b60018111156134d357634e487b7160e01b600052602160045260246000fd5b8152602081019190915260400160002055505050505050565b63ffffffff821660009081526064602090815260408083205460659092529182902054915163095ea7b360e01b81526001600160a01b0392831660048201526024810184905291169063095ea7b390604401602060405180830381600087803b15801561355857600080fd5b505af115801561356c573d6000803e3d6000fd5b505050506040513d601f19601f820116820180604052508101906135909190614169565b5063ffffffff821660009081526065602052604090819020549051636215be7760e01b8152600481018390526001600160a01b0390911690636215be7790602401600060405180830381600087803b1580156135eb57600080fd5b505af11580156135ff573d6000803e3d6000fd5b5050505063ffffffff82166000908152606060205260408120805483929061362890849061458b565b90915550505050565b6000818310156136425750816123b6565b50806123b6565b60008061365684846113d4565b63ffffffff861660009081526000805160206147be833981519152602052604081208054939550919350849261368d90849061458b565b909155505063ffffffff8416600090815260008051602061479e8339815191526020526040812080548392906136c490849061458b565b909155505050505050565b6000826123a9670de0b6b3a764000084614668565b80156113c3576094600083600181111561370e57634e487b7160e01b600052602160045260246000fd5b600181111561372d57634e487b7160e01b600052602160045260246000fd5b81526020808201929092526040908101600090812063ffffffff871682529092529081902054905163319920a160e11b8152306004820152602481018390526001600160a01b0390911690636332414290604401600060405180830381600087803b15801561379b57600080fd5b505af11580156137af573d6000803e3d6000fd5b50505050505050565b6000670de0b6b3a76400006123a98385614668565b6000808284111561381d5760006137e484866146c6565b90506138158682600160008060c560008d63ffffffff1663ffffffff16815260200190815260200160002054613bcd565b92505061385f565b600061382985856146c6565b905061385b868260006001600060c560008d63ffffffff1663ffffffff16815260200190815260200160002054613bcd565b9150505b6138728561386d838561458b565b613f16565b935093915050565b60008215613a255763ffffffff8416600090815260f7602052604081206138ef918460018111156138bb57634e487b7160e01b600052602160045260246000fd5b60018111156138da57634e487b7160e01b600052602160045260246000fd5b815260200190815260200160002054846136cf565b63ffffffff8516600090815260f56020908152604080832060f3835281842054845290915281209084600181111561393757634e487b7160e01b600052602160045260246000fd5b600181111561395657634e487b7160e01b600052602160045260246000fd5b815260200190815260200160002081905550613a2260f760008663ffffffff1663ffffffff16815260200190815260200160002060008460018111156139ac57634e487b7160e01b600052602160045260246000fd5b60018111156139cb57634e487b7160e01b600052602160045260246000fd5b8152602080820192909252604090810160009081205463ffffffff8916825260f5845282822060f385528383205483529093529081209085600181111561330757634e487b7160e01b600052602160045260246000fd5b90505b9392505050565b6000613a38838561458b565b905080613a4557506120f4565b63ffffffff851660009081526000805160206147be83398151915260205260409020548411801590613a99575063ffffffff8516600090815260008051602061479e83398151915260205260409020548311155b613ab357634e487b7160e01b600052600160045260246000fd5b613abd85826123bc565b63ffffffff85166000908152606460205260409081902054905163a9059cbb60e01b81526001600160a01b038481166004830152602482018490529091169063a9059cbb90604401602060405180830381600087803b158015613b1f57600080fd5b505af1158015613b33573d6000803e3d6000fd5b505050506040513d601f19601f82011682018060405250810190613b579190614169565b5063ffffffff851660009081526000805160206147be833981519152602052604081208054869290613b8a9084906146c6565b909155505063ffffffff8516600090815260008051602061479e833981519152602052604081208054859290613bc19084906146c6565b90915550505050505050565b600080612710613bdd8589614668565b613be791906145d1565b9050605f6000866001811115613c0d57634e487b7160e01b600052602160045260246000fd5b6001811115613c2c57634e487b7160e01b600052602160045260246000fd5b815260200190815260200160002060008963ffffffff1663ffffffff16815260200190815260200160002054605f6000886001811115613c7c57634e487b7160e01b600052602160045260246000fd5b6001811115613c9b57634e487b7160e01b600052602160045260246000fd5b815260200190815260200160002060008a63ffffffff1663ffffffff1681526020019081526020016000205410613cf557612710613cd98489614668565b613ce391906145d1565b613ced908261458b565b915050613f0c565b605f6000866001811115613d1957634e487b7160e01b600052602160045260246000fd5b6001811115613d3857634e487b7160e01b600052602160045260246000fd5b815260200190815260200160002060008963ffffffff1663ffffffff1681526020019081526020016000205487605f6000896001811115613d8957634e487b7160e01b600052602160045260246000fd5b6001811115613da857634e487b7160e01b600052602160045260246000fd5b815260200190815260200160002060008b63ffffffff1663ffffffff16815260200190815260200160002054613dde919061458b565b1115613f09576000605f6000886001811115613e0a57634e487b7160e01b600052602160045260246000fd5b6001811115613e2957634e487b7160e01b600052602160045260246000fd5b815260200190815260200160002060008a63ffffffff1663ffffffff16815260200190815260200160002054605f6000886001811115613e7957634e487b7160e01b600052602160045260246000fd5b6001811115613e9857634e487b7160e01b600052602160045260246000fd5b815260200190815260200160002060008b63ffffffff1663ffffffff16815260200190815260200160002054613ece91906146c6565b613ed890896146c6565b90506000612710613ee98684614668565b613ef391906145d1565b9050613eff818461458b565b9350505050613f0c565b90505b9695505050505050565b600080613f238484610886565b63ffffffff8616600090815260616020526040812080549395509193508392613f4d90849061458b565b90915550613f5d90508483613649565b6040805163ffffffff86168152602081018590527f3c7f623ed306a9aa1b122c12a685441429e8fd6e0ea2f05bfd48971e813c1e1a910160405180910390a150505050565b803560028110613fb157600080fd5b919050565b60008083601f840112613fc7578182fd5b50813567ffffffffffffffff811115613fde578182fd5b602083019150836020828501011115610a1657600080fd5b803563ffffffff81168114613fb157600080fd5b60006020828403121561401b578081fd5b8135613a2581614748565b6000806000806080858703121561403b578283fd5b843561404681614748565b9350602085013561405681614748565b9250604085013561406681614748565b9150606085013561407681614748565b939692955090935050565b60008060408385031215614093578182fd5b823561409e81614748565b91506140ac60208401613ff6565b90509250929050565b6000806000606084860312156140c9578283fd5b83356140d481614748565b92506140e260208501613ff6565b91506140f060408501613fa2565b90509250925092565b6000806020838503121561410b578182fd5b823567ffffffffffffffff80821115614122578384fd5b818501915085601f830112614135578384fd5b813581811115614143578485fd5b8660208260051b8501011115614157578485fd5b60209290920196919550909350505050565b60006020828403121561417a578081fd5b81518015158114613a25578182fd5b60006020828403121561419a578081fd5b8151613a2581614748565b600080604083850312156141b7578182fd5b61409e83613fa2565b6000602082840312156141d1578081fd5b5051919050565b600080600080600080600060a0888a0312156141f2578283fd5b873567ffffffffffffffff80821115614209578485fd5b6142158b838c01613fb6565b909950975060208a013591508082111561422d578485fd5b5061423a8a828b01613fb6565b909650945050604088013561424e81614748565b9250606088013561425e81614748565b9150608088013561426e81614748565b8091505092959891949750929550565b60006020828403121561428f578081fd5b6123b382613ff6565b600080604083850312156142aa578182fd5b6142b383613ff6565b915060208301356142c381614748565b809150509250929050565b6000806000606084860312156142e2578081fd5b6142eb84613ff6565b925060208401356140e281614748565b6000806040838503121561430d578182fd5b61431683613ff6565b91506140ac60208401613fa2565b60008060408385031215614336578182fd5b61433f83613ff6565b946020939093013593505050565b600080600060608486031215614361578081fd5b61436a84613ff6565b9250602084013591506140f060408501613fa2565b600080600080600060a08688031215614396578283fd5b61439f86613ff6565b97602087013597506040870135966060810135965060800135945092505050565b600080600080600080600080610100898b0312156143dc578182fd5b6143e589613ff6565b9a60208a01359a5060408a013599606081013599506080810135985060a0810135975060c0810135965060e00135945092505050565b60008284528282602086013780602084860101526020601f19601f85011685010190509392505050565b60006080825261445960808301888a61441b565b828103602084015261446c81878961441b565b6001600160a01b03959095166040840152505063ffffffff91909116606090910152949350505050565b6020808252600a908201526937b7363c9030b236b4b760b11b604082015260600190565b63ffffffff8b1681526001600160a01b038a81166020830152898116604083015288811660608301526080820188905261010060a08301819052600091614504848301898b61441b565b915083820360c085015261451982878961441b565b925080851660e085015250509b9a5050505050505050505050565b63ffffffff8616815260a081016002861061455f57634e487b7160e01b600052602160045260246000fd5b602082019590955260408101939093526001600160a01b03919091166060830152608090910152919050565b6000821982111561459e5761459e61471c565b500190565b6000826145b2576145b2614732565b600160ff1b8214600019841416156145cc576145cc61471c565b500590565b6000826145e0576145e0614732565b500490565b60006001600160ff1b038184138284138082168684048611161561460b5761460b61471c565b600160ff1b848712828116878305891216156146295761462961471c565b8587129250878205871284841616156146445761464461471c565b8785058712818416161561465a5761465a61471c565b505050929093029392505050565b60008160001904831182151516156146825761468261471c565b500290565b60008083128015600160ff1b8501841216156146a5576146a561471c565b6001600160ff1b03840183138116156146c0576146c061471c565b50500390565b6000828210156146d8576146d861471c565b500390565b60006000198214156146f1576146f161471c565b5060010190565b600063ffffffff808316818114156147125761471261471c565b6001019392505050565b634e487b7160e01b600052601160045260246000fd5b634e487b7160e01b600052601260045260246000fd5b6001600160a01b0381168114610d1b57600080fdfe5357689ddcfdfe94c3e645cd0477147da86b88e1393fa128e21ba20e764741cb71879ed144ce54ba860b4b7bdfef017f991f00a558107ae54d9b7241247abb0cb1c7cf5da58e0247a170dab9f2b8162d7e28f048175d34981e04bfb771df1a522f3542b7cb9207ce24a57b545dbcd536897a45c9d0e317421e8f5a891a7b7c063b9d2a99d8ef98f767dace35b4b78fcb2793ffd9aa04cbe74c1de111c01044b8cc17ea8400925948dd1c77a446a25fd644f1f60ac4c2cb4d1d34646dcfc8b344a264697066735822122010a3099f92f8af61ed65838b0e7b05596371934723c384b56a60900281675d3164736f6c63430008030033",
  "immutableReferences": {},
  "source": "// SPDX-License-Identifier: BUSL-1.1\n\npragma solidity 0.8.3;\n\nimport \"hardhat/console.sol\";\nimport \"@openzeppelin/contracts-upgradeable/proxy/utils/Initializable.sol\";\nimport \"@openzeppelin/contracts/token/ERC20/IERC20.sol\";\n\nimport \"./interfaces/ITokenFactory.sol\";\nimport \"./interfaces/ISyntheticToken.sol\";\nimport \"./interfaces/IStaker.sol\";\nimport \"./interfaces/ILongShort.sol\";\nimport \"./interfaces/IYieldManager.sol\";\nimport \"./interfaces/IOracleManager.sol\";\n\n/**\n * @dev {LongShort} contract:\n **** visit https://float.capital *****\n *  - Ability for users to create synthetic long and short positions on value movements\n *  - Value movements could be derived from tradional or alternative asset classes, derivates, binary outcomes, etc...\n *  - Incentive mechansim providing fees to liquidity makers (users on both sides of order book)\n */\ncontract LongShort is ILongShort, Initializable {\n    ////////////////////////////////////\n    //////// VARIABLES /////////////////\n    ////////////////////////////////////\n\n    // Global state.\n    address public admin; // This will likely be the Gnosis safe\n    uint32 public latestMarket;\n    mapping(uint32 => bool) public marketExists;\n\n    // Treasury contract that accrued fees and yield are sent to.\n    address public treasury;\n\n    // Factory for dynamically creating synthetic long/short tokens.\n    ITokenFactory public tokenFactory;\n\n    // Staker for controlling governance token issuance.\n    IStaker public staker;\n    uint256[45] private __globalStateGap;\n\n    // Fixed-precision constants.\n    address public constant DEAD_ADDRESS =\n        0xf10A7_F10A7_f10A7_F10a7_F10A7_f10a7_F10A7_f10a7;\n    uint256 public constant TEN_TO_THE_18 = 1e18;\n    int256 public constant TEN_TO_THE_18_SIGNED = 1e18;\n    uint256 public constant feeUnitsOfPrecision = 10000;\n    uint256[45] private __constantsGap;\n\n    // Market state.\n    mapping(MarketSide => mapping(uint32 => uint256))\n        public syntheticTokenBackedValue;\n    mapping(uint32 => uint256) public totalValueLockedInYieldManager;\n    mapping(uint32 => uint256) public totalValueReservedForTreasury;\n    mapping(uint32 => uint256) public assetPrice;\n    mapping(MarketSide => mapping(uint32 => uint256))\n        public syntheticTokenPrice; // NOTE: cannot deprecate this value and use the mintPriceSnapshot values instead since these values change inbetween assetPrice updates (when yield is collected)\n    mapping(uint32 => IERC20) public fundTokens;\n    mapping(uint32 => IYieldManager) public yieldManagers;\n    mapping(uint32 => IOracleManager) public oracleManagers;\n    uint256[45] private __marketStateGap;\n\n    // Synthetic long/short tokens users can mint and redeem.\n    mapping(MarketSide => mapping(uint32 => ISyntheticToken))\n        public syntheticTokens;\n    uint256[45] private __marketSynthsGap;\n\n    // Fees for minting/redeeming long/short tokens. Users are penalised\n    // with extra fees for imbalancing the market.\n    mapping(uint32 => uint256) public baseEntryFee;\n    mapping(uint32 => uint256) public badLiquidityEntryFee;\n    mapping(uint32 => uint256) public baseExitFee;\n    mapping(uint32 => uint256) public badLiquidityExitFee;\n    uint256[45] private __feeInfo;\n\n    // The following 3 values update with every price update\n    mapping(uint32 => uint256) public latestUpdateIndex;\n    // These two can be grouped together in a struct\n    mapping(uint32 => mapping(uint256 => mapping(MarketSide => uint256)))\n        public mintPriceSnapshot;\n    mapping(uint32 => mapping(uint256 => mapping(MarketSide => uint256)))\n        public redeemPriceSnapshot;\n\n    // These two can be grouped together in a struct\n    mapping(uint32 => mapping(MarketSide => uint256))\n        public batchedNextPricePaymentTokenToDeposit;\n    mapping(uint32 => mapping(MarketSide => uint256))\n        public batchedNextPriceSynthToRedeem;\n\n    mapping(uint32 => mapping(address => mapping(MarketSide => uint256)))\n        public userNextPriceRedemptions;\n    mapping(uint32 => mapping(address => mapping(MarketSide => uint256)))\n        public userNextPriceDepositAmounts;\n    mapping(uint32 => mapping(address => uint256))\n        public userCurrentNextPriceUpdateIndex;\n\n    ////////////////////////////////////\n    /////////// EVENTS /////////////////\n    ////////////////////////////////////\n\n    event V1(\n        address admin,\n        address treasury,\n        address tokenFactory,\n        address staker\n    );\n\n    // TODO: make sure this is emmited for batched actions too!\n    event ValueLockedInSystem(\n        uint32 marketIndex,\n        uint256 totalValueLockedInMarket,\n        uint256 longValue,\n        uint256 shortValue\n    );\n\n    event TokenPriceRefreshed(\n        uint32 marketIndex,\n        uint256 longTokenPrice,\n        uint256 shortTokenPrice\n    );\n\n    event FeesLevied(uint32 marketIndex, uint256 totalFees);\n\n    event SyntheticTokenCreated(\n        uint32 marketIndex,\n        address longTokenAddress,\n        address shortTokenAddress,\n        address fundToken,\n        uint256 assetPrice,\n        string name,\n        string symbol,\n        address oracleAddress\n    );\n\n    event PriceUpdate(\n        uint32 marketIndex,\n        uint256 oldPrice,\n        uint256 newPrice,\n        address user\n    );\n\n    event NextPriceRedeem(\n        uint32 marketIndex,\n        MarketSide syntheticTokenType,\n        uint256 synthRedeemed,\n        address user,\n        uint256 oracleUpdateIndex\n    );\n\n    event BatchedActionsSettled(\n        uint32 marketIndex,\n        uint256 updateIndex,\n        uint256 mintPriceSnapshotLong,\n        uint256 mintPriceSnapshotShort,\n        uint256 redeemPriceSnapshotLong,\n        uint256 redeemPriceSnapshotShort\n    );\n\n    event NextPriceDeposit(\n        uint32 marketIndex,\n        MarketSide syntheticTokenType,\n        uint256 depositAdded,\n        address user,\n        uint256 oracleUpdateIndex\n    );\n\n    event FeesChanges(\n        uint32 marketIndex,\n        uint256 baseEntryFee,\n        uint256 badLiquidityEntryFee,\n        uint256 baseExitFee,\n        uint256 badLiquidityExitFee\n    );\n\n    event OracleUpdated(\n        uint32 marketIndex,\n        address oldOracleAddress,\n        address newOracleAddress\n    );\n\n    event NewMarketLaunchedAndSeeded(uint32 marketIndex, uint256 initialSeed);\n\n    event ExecuteNextPriceSettlementsUser(address user, uint32 marketIndex);\n\n    ////////////////////////////////////\n    /////////// MODIFIERS //////////////\n    ////////////////////////////////////\n\n    /**\n     * Necessary to update system state before any contract actions (deposits / withdraws)\n     */\n\n    modifier adminOnly() {\n        require(msg.sender == admin, \"only admin\");\n        _;\n    }\n\n    modifier treasuryOnly() {\n        require(msg.sender == treasury, \"only treasury\");\n        _;\n    }\n\n    modifier assertMarketExists(uint32 marketIndex) {\n        require(marketExists[marketIndex], \"market doesn't exist\");\n        _;\n    }\n\n    modifier isCorrectSynth(\n        uint32 marketIndex,\n        MarketSide syntheticTokenType,\n        ISyntheticToken syntheticToken\n    ) {\n        if (syntheticTokenType == ILongShort.MarketSide.Long) {\n            require(\n                syntheticTokens[MarketSide.Long][marketIndex] == syntheticToken,\n                \"Incorrect synthetic token\"\n            );\n        } else {\n            require(\n                syntheticTokens[MarketSide.Short][marketIndex] ==\n                    syntheticToken,\n                \"Incorrect synthetic token\"\n            );\n        }\n        _;\n    }\n\n    modifier executeOutstandingNextPriceSettlements(\n        address user,\n        uint32 marketIndex\n    ) virtual {\n        _executeOutstandingNextPriceSettlements(user, marketIndex);\n\n        _;\n    }\n\n    modifier updateSystemStateMarket(uint32 marketIndex) {\n        _updateSystemStateInternal(marketIndex);\n\n        _;\n    }\n\n    ////////////////////////////////////\n    ///// CONTRACT SET-UP //////////////\n    ////////////////////////////////////\n\n    function initialize(\n        address _admin,\n        address _treasury,\n        ITokenFactory _tokenFactory,\n        IStaker _staker\n    ) public initializer {\n        admin = _admin;\n        treasury = _treasury;\n        tokenFactory = _tokenFactory;\n        staker = _staker;\n\n        emit V1(\n            _admin,\n            address(treasury),\n            address(_tokenFactory),\n            address(_staker)\n        );\n    }\n\n    ////////////////////////////////////\n    /// MULTISIG ADMIN FUNCTIONS ///////\n    ////////////////////////////////////\n\n    function changeAdmin(address _admin) external adminOnly {\n        admin = _admin;\n    }\n\n    function changeTreasury(address _treasury) external adminOnly {\n        treasury = _treasury;\n    }\n\n    function changeFees(\n        uint32 marketIndex,\n        uint256 _baseEntryFee,\n        uint256 _badLiquidityEntryFee,\n        uint256 _baseExitFee,\n        uint256 _badLiquidityExitFee\n    ) external adminOnly {\n        _changeFees(\n            marketIndex,\n            _baseEntryFee,\n            _baseExitFee,\n            _badLiquidityEntryFee,\n            _badLiquidityExitFee\n        );\n    }\n\n    function _changeFees(\n        uint32 marketIndex,\n        uint256 _baseEntryFee,\n        uint256 _baseExitFee,\n        uint256 _badLiquidityEntryFee,\n        uint256 _badLiquidityExitFee\n    ) internal {\n        baseEntryFee[marketIndex] = _baseEntryFee;\n        baseExitFee[marketIndex] = _baseExitFee;\n        badLiquidityEntryFee[marketIndex] = _badLiquidityEntryFee;\n        badLiquidityExitFee[marketIndex] = _badLiquidityExitFee;\n\n        emit FeesChanges(\n            latestMarket,\n            _baseEntryFee,\n            _badLiquidityEntryFee,\n            _baseExitFee,\n            _badLiquidityExitFee\n        );\n    }\n\n    /**\n     * Update oracle for a market\n     */\n    function updateMarketOracle(uint32 marketIndex, address _newOracleManager)\n        external\n        adminOnly\n    {\n        // If not a oracle contract this would break things.. Test's arn't validating this\n        // Ie require isOracle interface - ERC165\n        address previousOracleManager = address(oracleManagers[marketIndex]);\n        oracleManagers[marketIndex] = IOracleManager(_newOracleManager);\n        emit OracleUpdated(\n            marketIndex,\n            previousOracleManager,\n            _newOracleManager\n        );\n    }\n\n    /**\n     * Creates an entirely new long/short market tracking an underlying\n     * oracle price. Make sure the synthetic names/symbols are unique.\n     */\n    function newSyntheticMarket(\n        string calldata syntheticName,\n        string calldata syntheticSymbol,\n        address _fundToken,\n        address _oracleManager,\n        address _yieldManager\n    ) external adminOnly {\n        latestMarket++;\n\n        // Create new synthetic long token.\n        syntheticTokens[MarketSide.Long][latestMarket] = ISyntheticToken(\n            tokenFactory.createTokenLong(\n                syntheticName,\n                syntheticSymbol,\n                staker,\n                latestMarket\n            )\n        );\n\n        // Create new synthetic short token.\n        syntheticTokens[MarketSide.Short][latestMarket] = ISyntheticToken(\n            tokenFactory.createTokenShort(\n                syntheticName,\n                syntheticSymbol,\n                staker,\n                latestMarket\n            )\n        );\n\n        // Initial market state.\n        syntheticTokenPrice[MarketSide.Long][latestMarket] = TEN_TO_THE_18;\n        syntheticTokenPrice[MarketSide.Short][latestMarket] = TEN_TO_THE_18;\n        fundTokens[latestMarket] = IERC20(_fundToken);\n        yieldManagers[latestMarket] = IYieldManager(_yieldManager);\n        oracleManagers[latestMarket] = IOracleManager(_oracleManager);\n        assetPrice[latestMarket] = uint256(\n            oracleManagers[latestMarket].updatePrice()\n        );\n\n        emit SyntheticTokenCreated(\n            latestMarket,\n            address(syntheticTokens[MarketSide.Long][latestMarket]),\n            address(syntheticTokens[MarketSide.Short][latestMarket]),\n            _fundToken,\n            assetPrice[latestMarket],\n            syntheticName,\n            syntheticSymbol,\n            _oracleManager\n        );\n    }\n\n    function seedMarketInitially(uint256 initialMarketSeed, uint32 marketIndex)\n        internal\n    {\n        require(\n            // You require at least 10^17 of the underlying payment token to seed the market.\n            initialMarketSeed > 0.1 ether,\n            \"Insufficient value to seed the market\"\n        );\n\n        _lockFundsInMarket(marketIndex, initialMarketSeed * 2);\n\n        syntheticTokens[MarketSide.Long][marketIndex].mint(\n            DEAD_ADDRESS,\n            initialMarketSeed\n        );\n        syntheticTokens[MarketSide.Short][marketIndex].mint(\n            DEAD_ADDRESS,\n            initialMarketSeed\n        );\n\n        syntheticTokenBackedValue[MarketSide.Long][\n            marketIndex\n        ] = initialMarketSeed;\n        syntheticTokenBackedValue[MarketSide.Short][\n            marketIndex\n        ] = initialMarketSeed;\n\n        emit NewMarketLaunchedAndSeeded(marketIndex, initialMarketSeed);\n    }\n\n    function initializeMarket(\n        uint32 marketIndex,\n        uint256 _baseEntryFee,\n        uint256 _badLiquidityEntryFee,\n        uint256 _baseExitFee,\n        uint256 _badLiquidityExitFee,\n        uint256 kInitialMultiplier,\n        uint256 kPeriod,\n        uint256 initialMarketSeed\n    ) external adminOnly {\n        require(!marketExists[marketIndex] && marketIndex <= latestMarket);\n\n        marketExists[marketIndex] = true;\n\n        _changeFees(\n            marketIndex,\n            _baseEntryFee,\n            _baseExitFee,\n            _badLiquidityEntryFee,\n            _badLiquidityExitFee\n        );\n\n        // Add new staker funds with fresh synthetic tokens.\n        staker.addNewStakingFund(\n            latestMarket,\n            syntheticTokens[MarketSide.Long][marketIndex],\n            syntheticTokens[MarketSide.Short][marketIndex],\n            kInitialMultiplier,\n            kPeriod\n        );\n\n        seedMarketInitially(initialMarketSeed, marketIndex);\n    }\n\n    ////////////////////////////////////\n    //////// HELPER FUNCTIONS //////////\n    ////////////////////////////////////\n\n    function getOtherSynthType(MarketSide synthTokenType)\n        internal\n        view\n        returns (MarketSide)\n    {\n        if (synthTokenType == MarketSide.Long) {\n            return MarketSide.Short;\n        } else {\n            return MarketSide.Long;\n        }\n    }\n\n    /**\n     * Returns the amount of accrued value that should go to the market,\n     * and the amount that should be locked into the treasury. To incentivise\n     * market balance, more value goes to the market in proportion to how\n     * imbalanced it is.\n     */\n    function getTreasurySplit(uint32 marketIndex, uint256 amount)\n        public\n        view\n        returns (uint256 marketAmount, uint256 treasuryAmount)\n    {\n        uint256 marketPcnt; // fixed-precision scale of 10000\n\n        uint256 totalValueLockedInMarket =\n            syntheticTokenBackedValue[MarketSide.Long][marketIndex] +\n                syntheticTokenBackedValue[MarketSide.Short][marketIndex];\n\n        if (\n            syntheticTokenBackedValue[MarketSide.Long][marketIndex] >\n            syntheticTokenBackedValue[MarketSide.Short][marketIndex]\n        ) {\n            marketPcnt =\n                ((syntheticTokenBackedValue[MarketSide.Long][marketIndex] -\n                    syntheticTokenBackedValue[MarketSide.Short][marketIndex]) *\n                    10000) /\n                totalValueLockedInMarket;\n        } else {\n            marketPcnt =\n                ((syntheticTokenBackedValue[MarketSide.Short][marketIndex] -\n                    syntheticTokenBackedValue[MarketSide.Long][marketIndex]) *\n                    10000) /\n                totalValueLockedInMarket;\n        }\n\n        marketAmount = (marketPcnt * amount) / 10000;\n        treasuryAmount = amount - marketAmount;\n        require(amount == marketAmount + treasuryAmount);\n\n        return (marketAmount, treasuryAmount);\n    }\n\n    function getPrice(uint256 amountSynth, uint256 amountPaymentToken)\n        internal\n        pure\n        returns (uint256)\n    {\n        return (amountPaymentToken * TEN_TO_THE_18) / amountSynth;\n    }\n\n    function getAmountPaymentToken(uint256 amountSynth, uint256 price)\n        internal\n        pure\n        returns (uint256)\n    {\n        return (amountSynth * price) / TEN_TO_THE_18;\n    }\n\n    function getAmountSynthToken(uint256 amountPaymentToken, uint256 price)\n        internal\n        pure\n        returns (uint256)\n    {\n        return (amountPaymentToken * TEN_TO_THE_18) / price;\n    }\n\n    /**\n     * Returns the amount of accrued value that should go to each side of the\n     * market. To incentivise balance, more value goes to the weaker side in\n     * proportion to how imbalanced the market is.\n     */\n    function getMarketSplit(uint32 marketIndex, uint256 amount)\n        public\n        view\n        returns (uint256 longAmount, uint256 shortAmount)\n    {\n        // The percentage value that a position receives depends on the amount\n        // of total market value taken up by the _opposite_ position.\n        uint256 longPcnt =\n            (syntheticTokenBackedValue[MarketSide.Short][marketIndex] * 10000) /\n                (syntheticTokenBackedValue[MarketSide.Long][marketIndex] +\n                    syntheticTokenBackedValue[MarketSide.Short][marketIndex]);\n\n        longAmount = (amount * longPcnt) / 10000;\n        shortAmount = amount - longAmount;\n        return (longAmount, shortAmount);\n    }\n\n    /**\n     * Adjusts the long/short token prices according to supply and value.\n     */\n    function _refreshTokenPrices(uint32 marketIndex) internal {\n        uint256 longTokenSupply =\n            syntheticTokens[MarketSide.Long][marketIndex].totalSupply();\n\n        // supply should never be zero and burn address will always own a small amount\n        if (longTokenSupply > 0) {\n            syntheticTokenPrice[MarketSide.Long][marketIndex] = getPrice(\n                longTokenSupply,\n                syntheticTokenBackedValue[MarketSide.Long][marketIndex]\n            );\n        }\n\n        uint256 shortTokenSupply =\n            syntheticTokens[MarketSide.Short][marketIndex].totalSupply();\n        if (shortTokenSupply > 0) {\n            syntheticTokenPrice[MarketSide.Short][marketIndex] = getPrice(\n                shortTokenSupply,\n                syntheticTokenBackedValue[MarketSide.Short][marketIndex]\n            );\n        }\n\n        emit TokenPriceRefreshed(\n            marketIndex,\n            syntheticTokenPrice[MarketSide.Long][marketIndex],\n            syntheticTokenPrice[MarketSide.Short][marketIndex]\n        );\n    }\n\n    function _distributeMarketAmount(uint32 marketIndex, uint256 marketAmount)\n        internal\n    {\n        // Splits mostly to the weaker position to incentivise balance.\n        (uint256 longAmount, uint256 shortAmount) =\n            getMarketSplit(marketIndex, marketAmount);\n        syntheticTokenBackedValue[MarketSide.Long][marketIndex] += longAmount;\n        syntheticTokenBackedValue[MarketSide.Short][marketIndex] += shortAmount;\n    }\n\n    /**\n     * Controls what happens with mint/redeem fees.\n     */\n    // NOTE: only used in `handleBatchedNextPriceRedeems`\n    function _feesMechanism(uint32 marketIndex, uint256 totalFees) internal {\n        // Market gets a bigger share if the market is more imbalanced.\n        (uint256 marketAmount, uint256 treasuryAmount) =\n            getTreasurySplit(marketIndex, totalFees);\n\n        totalValueReservedForTreasury[marketIndex] += treasuryAmount;\n\n        _distributeMarketAmount(marketIndex, marketAmount);\n        emit FeesLevied(marketIndex, totalFees);\n    }\n\n    /**\n     * Controls what happens with accrued yield manager interest.\n     */\n    function _claimAndDistributeYield(uint32 marketIndex) internal {\n        uint256 amount =\n            yieldManagers[marketIndex].getTotalHeld() -\n                totalValueLockedInYieldManager[marketIndex];\n\n        if (amount > 0) {\n            (uint256 marketAmount, uint256 treasuryAmount) =\n                getTreasurySplit(marketIndex, amount);\n\n            // We keep the interest locked in the yield manager, but update our\n            // bookkeeping to logically simulate moving the funds around.\n            totalValueLockedInYieldManager[marketIndex] += amount;\n            totalValueReservedForTreasury[marketIndex] += treasuryAmount;\n\n            _distributeMarketAmount(marketIndex, marketAmount);\n        }\n    }\n\n    function _minimum(uint256 A, uint256 B) internal view returns (int256) {\n        if (A < B) {\n            return int256(A);\n        } else {\n            return int256(B);\n        }\n    }\n\n    function _adjustMarketBasedOnNewAssetPrice(\n        uint32 marketIndex,\n        int256 newAssetPrice\n    ) internal returns (bool didUpdate) {\n        int256 oldAssetPrice = int256(assetPrice[marketIndex]);\n\n        if (oldAssetPrice == newAssetPrice) {\n            return false;\n        }\n\n        int256 min =\n            _minimum(\n                syntheticTokenBackedValue[MarketSide.Long][marketIndex],\n                syntheticTokenBackedValue[MarketSide.Short][marketIndex]\n            );\n\n        int256 percentageChangeE18 =\n            ((newAssetPrice - oldAssetPrice) * TEN_TO_THE_18_SIGNED) /\n                oldAssetPrice;\n\n        int256 valueChange = (percentageChangeE18 * min) / TEN_TO_THE_18_SIGNED;\n\n        if (valueChange > 0) {\n            syntheticTokenBackedValue[MarketSide.Long][marketIndex] += uint256(\n                valueChange\n            );\n            syntheticTokenBackedValue[MarketSide.Short][marketIndex] -= uint256(\n                valueChange\n            );\n        } else {\n            syntheticTokenBackedValue[MarketSide.Long][marketIndex] -= uint256(\n                valueChange * -1\n            );\n            syntheticTokenBackedValue[MarketSide.Short][marketIndex] += uint256(\n                valueChange * -1\n            );\n        }\n\n        return true;\n    }\n\n    function handleBatchedDepositSettlement(\n        uint32 marketIndex,\n        MarketSide syntheticTokenType\n    ) internal {\n        uint256 amountToBatchDeposit =\n            batchedNextPricePaymentTokenToDeposit[marketIndex][\n                syntheticTokenType\n            ];\n\n        if (amountToBatchDeposit > 0) {\n            batchedNextPricePaymentTokenToDeposit[marketIndex][\n                syntheticTokenType\n            ] = 0;\n            _transferFundsToYieldManager(marketIndex, amountToBatchDeposit);\n\n            // Mint long tokens with remaining value.\n            uint256 numberOfTokens =\n                getAmountSynthToken(\n                    amountToBatchDeposit,\n                    syntheticTokenPrice[syntheticTokenType][marketIndex]\n                );\n\n            // TODO STENT there are no token mint events emitted here, but there are on market initialization\n            syntheticTokens[syntheticTokenType][marketIndex].mint(\n                address(this),\n                numberOfTokens\n            );\n\n            syntheticTokenBackedValue[syntheticTokenType][\n                marketIndex\n            ] += amountToBatchDeposit;\n\n            //TODO: Can remove these sanity checks at some point\n            uint256 oldTokenLongPrice =\n                syntheticTokenPrice[MarketSide.Long][marketIndex];\n            uint256 oldTokenShortPrice =\n                syntheticTokenPrice[MarketSide.Short][marketIndex];\n\n            // NOTE: no fees are calculated, but if they are desired in the future they can be added here.\n            // Distribute fees across the market.\n            // TODO STENT CONCERN1\n            _refreshTokenPrices(marketIndex);\n\n            assert(\n                syntheticTokenPrice[MarketSide.Long][marketIndex] ==\n                    oldTokenLongPrice\n            );\n            assert(\n                syntheticTokenPrice[MarketSide.Short][marketIndex] ==\n                    oldTokenShortPrice\n            );\n        }\n    }\n\n    function snapshotPriceChangeForNextPriceExecution(\n        uint32 marketIndex,\n        uint256 newLatestPriceStateIndex\n    ) internal {\n        // NOTE: we can't just merge these two values since the 'yield' has an effect on the token price inbetween oracle updates.\n        mintPriceSnapshot[marketIndex][newLatestPriceStateIndex][\n            MarketSide.Long\n        ] = syntheticTokenPrice[MarketSide.Long][marketIndex];\n        mintPriceSnapshot[marketIndex][newLatestPriceStateIndex][\n            MarketSide.Short\n        ] = syntheticTokenPrice[MarketSide.Short][marketIndex];\n    }\n\n    /**\n     * Updates the value of the long and short sides within the system\n     * Note this is public. Anyone can call this function.\n     */\n    function _updateSystemStateInternal(uint32 marketIndex)\n        internal\n        assertMarketExists(marketIndex)\n    {\n        // This is called right before any state change!\n        // So reward rate can be calculated just in time by\n        // staker without needing to be saved\n        staker.addNewStateForFloatRewards(\n            marketIndex,\n            syntheticTokenPrice[MarketSide.Long][marketIndex],\n            syntheticTokenPrice[MarketSide.Short][marketIndex],\n            syntheticTokenBackedValue[MarketSide.Long][marketIndex],\n            syntheticTokenBackedValue[MarketSide.Short][marketIndex]\n        );\n\n        // If a negative int is return this should fail.\n        int256 newAssetPrice = oracleManagers[marketIndex].updatePrice();\n\n        // Adjusts long and short values based on price movements.\n        bool priceChanged =\n            _adjustMarketBasedOnNewAssetPrice(marketIndex, newAssetPrice);\n\n        if (priceChanged) {\n            assert(\n                syntheticTokenBackedValue[MarketSide.Long][marketIndex] != 0 &&\n                    syntheticTokenBackedValue[MarketSide.Short][marketIndex] !=\n                    0\n            );\n\n            // Distibute accrued yield first based on current liquidity before price update\n            _claimAndDistributeYield(marketIndex);\n\n            // TODO STENT move this into the price function\n            emit PriceUpdate(\n                marketIndex,\n                assetPrice[marketIndex],\n                uint256(newAssetPrice),\n                msg.sender\n            );\n\n            // TODO STENT CONCERN1\n            _refreshTokenPrices(marketIndex);\n            assetPrice[marketIndex] = uint256(newAssetPrice);\n\n            uint256 newLatestPriceStateIndex =\n                latestUpdateIndex[marketIndex] + 1;\n            latestUpdateIndex[marketIndex] = newLatestPriceStateIndex;\n            snapshotPriceChangeForNextPriceExecution(\n                marketIndex,\n                newLatestPriceStateIndex\n            );\n\n            handleBatchedDepositSettlement(marketIndex, MarketSide.Long);\n            handleBatchedDepositSettlement(marketIndex, MarketSide.Short);\n            handleBatchedNextPriceRedeems(marketIndex);\n\n            emit BatchedActionsSettled(\n                marketIndex,\n                newLatestPriceStateIndex,\n                mintPriceSnapshot[marketIndex][newLatestPriceStateIndex][\n                    MarketSide.Long\n                ],\n                mintPriceSnapshot[marketIndex][newLatestPriceStateIndex][\n                    MarketSide.Short\n                ],\n                redeemPriceSnapshot[marketIndex][newLatestPriceStateIndex][\n                    MarketSide.Long\n                ],\n                redeemPriceSnapshot[marketIndex][newLatestPriceStateIndex][\n                    MarketSide.Short\n                ]\n            );\n\n            emit ValueLockedInSystem(\n                marketIndex,\n                syntheticTokenBackedValue[MarketSide.Long][marketIndex] +\n                    syntheticTokenBackedValue[MarketSide.Short][marketIndex],\n                syntheticTokenBackedValue[MarketSide.Long][marketIndex],\n                syntheticTokenBackedValue[MarketSide.Short][marketIndex]\n            );\n        }\n    }\n\n    function _updateSystemState(uint32 marketIndex) external override {\n        _updateSystemStateInternal(marketIndex);\n    }\n\n    function _updateSystemStateMulti(uint32[] calldata marketIndexes)\n        external\n        override\n    {\n        for (uint256 i = 0; i < marketIndexes.length; i++) {\n            _updateSystemStateInternal(marketIndexes[i]);\n        }\n    }\n\n    function _depositFunds(uint32 marketIndex, uint256 amount) internal {\n        fundTokens[marketIndex].transferFrom(msg.sender, address(this), amount);\n    }\n\n    // NOTE: Only used in seeding the market.\n    function _lockFundsInMarket(uint32 marketIndex, uint256 amount) internal {\n        _depositFunds(marketIndex, amount);\n        _transferFundsToYieldManager(marketIndex, amount);\n    }\n\n    /*\n     * Returns locked funds from the market to the sender.\n     */\n    function _withdrawFunds(\n        uint32 marketIndex,\n        uint256 amountLong,\n        uint256 amountShort,\n        address user\n    ) internal {\n        uint256 totalAmount = amountLong + amountShort;\n\n        if (totalAmount == 0) {\n            return;\n        }\n\n        assert(\n            syntheticTokenBackedValue[MarketSide.Long][marketIndex] >=\n                amountLong &&\n                syntheticTokenBackedValue[MarketSide.Short][marketIndex] >=\n                amountShort\n        );\n\n        _transferFromYieldManager(marketIndex, totalAmount);\n\n        // Transfer funds to the sender.\n        fundTokens[marketIndex].transfer(user, totalAmount);\n\n        syntheticTokenBackedValue[MarketSide.Long][marketIndex] -= amountLong;\n        syntheticTokenBackedValue[MarketSide.Short][marketIndex] -= amountShort;\n    }\n\n    /*\n     * Transfers locked funds from LongShort into the yield manager.\n     */\n    // TODO STENT this is only called in one place, might as well move this code there\n    function _transferFundsToYieldManager(uint32 marketIndex, uint256 amount)\n        internal\n    {\n        // TODO STENT note there are 2 approvals & 2 transfers here:\n        //     1. approve transfer from this contract to yield manager contract\n        //     2. transfer from this contract to yield manager contract\n        //     3. approve transfer from yield manager contract to lendingPool contract\n        //     4. transfer from yield mnager contract to lendingPool contract\n        // Surely we can mak this more efficient?\n        fundTokens[marketIndex].approve(\n            address(yieldManagers[marketIndex]),\n            amount\n        );\n        yieldManagers[marketIndex].depositToken(amount);\n\n        // Update market state.\n        totalValueLockedInYieldManager[marketIndex] += amount;\n    }\n\n    /*\n     * Transfers locked funds from the yield manager into LongShort.\n     */\n    function _transferFromYieldManager(uint32 marketIndex, uint256 amount)\n        internal\n    {\n        require(totalValueLockedInYieldManager[marketIndex] >= amount);\n\n        // NB there will be issues here if not enough liquidity exists to withdraw\n        // Boolean should be returned from yield manager and think how to appropriately handle this\n        yieldManagers[marketIndex].withdrawToken(amount);\n\n        // Update market state.\n        // TODO STENT why is this amount stored in this cotract? Seems like it should be stored inyield manager contract\n        totalValueLockedInYieldManager[marketIndex] -= amount;\n\n        // Invariant: yield managers should never have more locked funds\n        // than the combined value of the market and held treasury funds.\n        // TODO STENT this check seems wierd. What happens if this fails? What is the recovery? Should it be an assert?\n        require(\n            totalValueLockedInYieldManager[marketIndex] <=\n                syntheticTokenBackedValue[MarketSide.Long][marketIndex] +\n                    syntheticTokenBackedValue[MarketSide.Short][marketIndex] +\n                    totalValueReservedForTreasury[marketIndex]\n        );\n    }\n\n    /**\n     * Calculates fees for the given mint/redeem amount. Users are penalised\n     * with higher fees for imbalancing the market.\n     */\n    // TODO STENT look at this again\n    // TODO: this function was written with immediate price in mind, rework this function to suit latest code\n    function _getFeesGeneral(\n        uint32 marketIndex,\n        uint256 delta, // 1e18\n        MarketSide synthTokenGainingDominance,\n        MarketSide synthTokenLosingDominance,\n        uint256 baseFeePercent,\n        uint256 penultyFeePercent\n    ) internal view returns (uint256) {\n        uint256 baseFee = (delta * baseFeePercent) / feeUnitsOfPrecision;\n\n        if (\n            syntheticTokenBackedValue[synthTokenGainingDominance][\n                marketIndex\n            ] >=\n            syntheticTokenBackedValue[synthTokenLosingDominance][marketIndex]\n        ) {\n            // All funds are causing imbalance\n            return\n                baseFee + ((delta * penultyFeePercent) / feeUnitsOfPrecision);\n        } else if (\n            syntheticTokenBackedValue[synthTokenGainingDominance][marketIndex] +\n                delta >\n            syntheticTokenBackedValue[synthTokenLosingDominance][marketIndex]\n        ) {\n            uint256 amountImbalancing =\n                delta -\n                    (syntheticTokenBackedValue[synthTokenLosingDominance][\n                        marketIndex\n                    ] -\n                        syntheticTokenBackedValue[synthTokenGainingDominance][\n                            marketIndex\n                        ]);\n            uint256 penaltyFee =\n                (amountImbalancing * penultyFeePercent) / feeUnitsOfPrecision;\n\n            return baseFee + penaltyFee;\n        } else {\n            return baseFee;\n        }\n    }\n\n    ////////////////////////////////////\n    /////// TREASURY FUNCTIONS /////////\n    ////////////////////////////////////\n\n    /*\n     * Transfers the reserved treasury funds to the treasury contract. This is\n     * done async to avoid putting transfer gas costs on users every time they o\n     * pay fees or accrue yield.\n     *\n     * NOTE: doesn't affect markets, so no state refresh necessary\n     */\n    function transferTreasuryFunds(uint32 marketIndex) external treasuryOnly {\n        uint256 totalForTreasury = totalValueReservedForTreasury[marketIndex];\n\n        // Update global state.\n        totalValueReservedForTreasury[marketIndex] = 0;\n\n        // Edge-case: no funds to transfer.\n        if (totalForTreasury == 0) {\n            return;\n        }\n\n        // TODO STENT why is this called? totalForTreasury gets value from fees and interest from the yield manager. Why are we then removing that value from the yiled manager?\n        _transferFromYieldManager(marketIndex, totalForTreasury);\n\n        // Transfer funds to the treasury.\n        fundTokens[marketIndex].transfer(treasury, totalForTreasury);\n    }\n\n    function getUsersPendingBalance(\n        address user,\n        uint32 marketIndex,\n        MarketSide syntheticTokenType\n    )\n        external\n        view\n        override\n        assertMarketExists(marketIndex)\n        returns (uint256 pendingBalance)\n    {\n        if (\n            userCurrentNextPriceUpdateIndex[marketIndex][user] <=\n            latestUpdateIndex[marketIndex]\n        ) {\n            // Update is still nextPrice but not past the next oracle update - display the amount the user would get if they executed immediately\n            // NOTE: if we ever add fees for minting - we would add them here!\n            uint256 amountPaymentTokenDeposited =\n                userNextPriceDepositAmounts[marketIndex][user][\n                    syntheticTokenType\n                ];\n\n            uint256 tokens =\n                getAmountSynthToken(\n                    amountPaymentTokenDeposited,\n                    syntheticTokenPrice[syntheticTokenType][marketIndex]\n                );\n\n            return tokens;\n        } else {\n            return 0;\n        }\n    }\n\n    function _executeNextPriceMintsIfTheyExist(\n        uint32 marketIndex,\n        address user,\n        MarketSide syntheticTokenType\n    ) internal {\n        uint256 currentDepositAmount =\n            userNextPriceDepositAmounts[marketIndex][user][syntheticTokenType];\n        if (currentDepositAmount > 0) {\n            uint256 tokensToMint =\n                getAmountSynthToken(\n                    currentDepositAmount,\n                    mintPriceSnapshot[marketIndex][\n                        userCurrentNextPriceUpdateIndex[marketIndex][user]\n                    ][syntheticTokenType]\n                );\n\n            syntheticTokens[syntheticTokenType][marketIndex].transfer(\n                user,\n                tokensToMint\n            );\n\n            userNextPriceDepositAmounts[marketIndex][user][\n                syntheticTokenType\n            ] = 0;\n        }\n    }\n\n    function _executeOutstandingNextPriceSettlementsAction(\n        address user,\n        uint32 marketIndex\n    ) internal {\n        _executeNextPriceMintsIfTheyExist(marketIndex, user, MarketSide.Long);\n        _executeNextPriceMintsIfTheyExist(marketIndex, user, MarketSide.Short);\n        _executeOutstandingNextPriceRedeems(marketIndex, user, MarketSide.Long);\n        _executeOutstandingNextPriceRedeems(\n            marketIndex,\n            user,\n            MarketSide.Short\n        );\n\n        userCurrentNextPriceUpdateIndex[marketIndex][user] = 0;\n    }\n\n    // TODO: modify this function (or make a different version) that takes in the desired useage and does either partial or full \"early use\"\n    // TODO: WARNING!! This function is re-entrancy vulnerable if the synthetic token has any execution hooks\n    function _executeOutstandingNextPriceSettlements(\n        address user,\n        uint32 marketIndex // TODO: make this internal ?\n    ) internal {\n        uint256 currentUpdateIndex =\n            userCurrentNextPriceUpdateIndex[marketIndex][user];\n        if (\n            currentUpdateIndex <= latestUpdateIndex[marketIndex] &&\n            currentUpdateIndex != 0 // NOTE: this conditional isn't strictly necessary (all the users deposit amounts will be zero too)\n        ) {\n            _executeOutstandingNextPriceSettlementsAction(user, marketIndex);\n\n            emit ExecuteNextPriceSettlementsUser(user, marketIndex);\n        }\n    }\n\n    function executeOutstandingNextPriceSettlementsUser(\n        address user,\n        uint32 marketIndex\n    ) external override {\n        // NOTE: this does all the \"nextPrice\" actions. This could be simplified to only do the relevant nextPrice action.\n        _executeOutstandingNextPriceSettlements(user, marketIndex);\n    }\n\n    function _mintNextPrice(\n        uint32 marketIndex,\n        uint256 amount,\n        MarketSide syntheticTokenType\n    )\n        internal\n        updateSystemStateMarket(marketIndex)\n        executeOutstandingNextPriceSettlements(msg.sender, marketIndex)\n    {\n        // TODO: pre-deposit them into YieldManager?\n        //    - for now not doing that for simplicity, don't gain that much doing so either just more expensive tx (for very little yield)\n        _depositFunds(marketIndex, amount);\n\n        batchedNextPricePaymentTokenToDeposit[marketIndex][\n            syntheticTokenType\n        ] += amount;\n        userNextPriceDepositAmounts[marketIndex][msg.sender][\n            syntheticTokenType\n        ] += amount;\n        userCurrentNextPriceUpdateIndex[marketIndex][msg.sender] =\n            latestUpdateIndex[marketIndex] +\n            1;\n\n        emit NextPriceDeposit(\n            marketIndex,\n            syntheticTokenType,\n            amount,\n            msg.sender,\n            latestUpdateIndex[marketIndex] + 1\n        );\n    }\n\n    function mintLongNextPrice(uint32 marketIndex, uint256 amount) external {\n        _mintNextPrice(marketIndex, amount, MarketSide.Long);\n    }\n\n    function mintShortNextPrice(uint32 marketIndex, uint256 amount) external {\n        _mintNextPrice(marketIndex, amount, MarketSide.Short);\n    }\n\n    function _executeOutstandingNextPriceRedeems(\n        uint32 marketIndex,\n        address user,\n        MarketSide syntheticTokenType\n    ) internal {\n        uint256 currentRedemptions =\n            userNextPriceRedemptions[marketIndex][user][syntheticTokenType];\n        if (currentRedemptions > 0) {\n            uint256 amountToRedeem =\n                getAmountPaymentToken(\n                    currentRedemptions,\n                    redeemPriceSnapshot[marketIndex][\n                        userCurrentNextPriceUpdateIndex[marketIndex][user]\n                    ][syntheticTokenType]\n                );\n\n            uint256 balance = fundTokens[marketIndex].balanceOf(address(this));\n\n            fundTokens[marketIndex].transfer(user, amountToRedeem);\n            userNextPriceRedemptions[marketIndex][user][syntheticTokenType] = 0;\n        }\n    }\n\n    function _redeemNextPrice(\n        uint32 marketIndex,\n        uint256 tokensToRedeem,\n        MarketSide syntheticTokenType\n    )\n        internal\n        updateSystemStateMarket(marketIndex)\n        executeOutstandingNextPriceSettlements(msg.sender, marketIndex)\n    {\n        syntheticTokens[syntheticTokenType][marketIndex].transferFrom(\n            msg.sender,\n            address(this),\n            tokensToRedeem\n        );\n        uint256 nextUpdateIndex = latestUpdateIndex[marketIndex] + 1;\n\n        userNextPriceRedemptions[marketIndex][msg.sender][\n            syntheticTokenType\n        ] += tokensToRedeem;\n        userCurrentNextPriceUpdateIndex[marketIndex][\n            msg.sender\n        ] = nextUpdateIndex;\n\n        batchedNextPriceSynthToRedeem[marketIndex][\n            syntheticTokenType\n        ] += tokensToRedeem;\n\n        emit NextPriceRedeem(\n            marketIndex,\n            syntheticTokenType,\n            tokensToRedeem,\n            msg.sender,\n            latestUpdateIndex[marketIndex] + 1\n        );\n    }\n\n    function redeemLongNextPrice(uint32 marketIndex, uint256 tokensToRedeem)\n        external\n    {\n        _redeemNextPrice(marketIndex, tokensToRedeem, MarketSide.Long);\n    }\n\n    function redeemShortNextPrice(uint32 marketIndex, uint256 tokensToRedeem)\n        external\n    {\n        _redeemNextPrice(marketIndex, tokensToRedeem, MarketSide.Short);\n    }\n\n    function _handleBatchedNextPriceRedeem(\n        uint32 marketIndex,\n        MarketSide syntheticTokenType,\n        uint256 amountSynthToRedeem\n    ) internal {\n        if (amountSynthToRedeem > 0) {\n            syntheticTokens[syntheticTokenType][marketIndex].synthRedeemBurn(\n                address(this),\n                amountSynthToRedeem\n            );\n        }\n    }\n\n    function _calculateBatchedNextPriceFees(\n        uint32 marketIndex,\n        uint256 amountOfPaymentTokenToRedeem,\n        uint256 shortAmountOfPaymentTokenToRedeem\n    ) internal returns (uint256 totalFeesLong, uint256 totalFeesShort) {\n        // penalty fee is shared equally between\n        // all users on the side that ends up causing an imbalance in the\n        // batch.\n        if (amountOfPaymentTokenToRedeem > shortAmountOfPaymentTokenToRedeem) {\n            uint256 delta =\n                amountOfPaymentTokenToRedeem -\n                    shortAmountOfPaymentTokenToRedeem;\n            totalFeesLong = _getFeesGeneral(\n                marketIndex,\n                delta,\n                MarketSide.Short,\n                MarketSide.Long,\n                0,\n                badLiquidityExitFee[marketIndex]\n            );\n        } else {\n            uint256 delta =\n                shortAmountOfPaymentTokenToRedeem -\n                    amountOfPaymentTokenToRedeem;\n            totalFeesShort = _getFeesGeneral(\n                marketIndex,\n                delta,\n                MarketSide.Long,\n                MarketSide.Short,\n                0,\n                badLiquidityExitFee[marketIndex]\n            );\n        }\n\n        _feesMechanism(marketIndex, totalFeesLong + totalFeesShort);\n    }\n\n    function calculateRedeemPriceSnapshot(\n        uint32 marketIndex,\n        uint256 amountOfPaymentTokenToRedeem,\n        MarketSide syntheticTokenType\n    ) internal returns (uint256 batchLongTotalWithdrawnPaymentToken) {\n        if (amountOfPaymentTokenToRedeem > 0) {\n            redeemPriceSnapshot[marketIndex][latestUpdateIndex[marketIndex]][\n                syntheticTokenType\n            ] = getPrice(\n                batchedNextPriceSynthToRedeem[marketIndex][syntheticTokenType],\n                amountOfPaymentTokenToRedeem\n            );\n\n            // NOTE: this is always slightly less than `amountOfPaymentTokenToRedeem` due to rounding errors\n            return\n                getAmountPaymentToken(\n                    batchedNextPriceSynthToRedeem[marketIndex][\n                        syntheticTokenType\n                    ],\n                    redeemPriceSnapshot[marketIndex][\n                        latestUpdateIndex[marketIndex]\n                    ][syntheticTokenType]\n                );\n        }\n    }\n\n    function handleBatchedNextPriceRedeems(uint32 marketIndex) internal {\n        uint256 batchedNextPriceSynthToRedeemLong =\n            batchedNextPriceSynthToRedeem[marketIndex][MarketSide.Long];\n        uint256 batchedNextPriceSynthToRedeemShort =\n            batchedNextPriceSynthToRedeem[marketIndex][MarketSide.Short];\n\n        _handleBatchedNextPriceRedeem(\n            marketIndex,\n            MarketSide.Long,\n            batchedNextPriceSynthToRedeemLong\n        );\n        _handleBatchedNextPriceRedeem(\n            marketIndex,\n            MarketSide.Short,\n            batchedNextPriceSynthToRedeemShort\n        );\n\n        uint256 longAmountOfPaymentTokenToRedeem =\n            getAmountPaymentToken(\n                batchedNextPriceSynthToRedeemLong,\n                syntheticTokenPrice[MarketSide.Long][marketIndex]\n            );\n\n        uint256 shortAmountOfPaymentTokenToRedeem =\n            getAmountPaymentToken(\n                batchedNextPriceSynthToRedeemShort,\n                syntheticTokenPrice[MarketSide.Short][marketIndex]\n            );\n\n        (uint256 totalFeesLong, uint256 totalFeesShort) =\n            _calculateBatchedNextPriceFees(\n                marketIndex,\n                longAmountOfPaymentTokenToRedeem,\n                shortAmountOfPaymentTokenToRedeem\n            );\n\n        uint256 batchShortTotalWithdrawnPaymentToken =\n            calculateRedeemPriceSnapshot(\n                marketIndex,\n                shortAmountOfPaymentTokenToRedeem - totalFeesShort,\n                MarketSide.Short\n            );\n\n        uint256 batchLongTotalWithdrawnPaymentToken =\n            calculateRedeemPriceSnapshot(\n                marketIndex,\n                longAmountOfPaymentTokenToRedeem - totalFeesLong,\n                MarketSide.Long\n            );\n\n        _withdrawFunds(\n            marketIndex,\n            batchLongTotalWithdrawnPaymentToken,\n            batchShortTotalWithdrawnPaymentToken,\n            address(this)\n        );\n\n        // TODO STENT CONCERN1\n        _refreshTokenPrices(marketIndex);\n\n        batchedNextPriceSynthToRedeem[marketIndex][MarketSide.Long] = 0;\n        batchedNextPriceSynthToRedeem[marketIndex][MarketSide.Short] = 0;\n    }\n}\n",
  "sourcePath": "/home/jasoons/Documents/code/monorepo/contracts/contracts/LongShort.sol",
  "compiler": {
    "name": "solc",
    "version": "0.8.3+commit.8d00100c.Emscripten.clang"
  },
  "schemaVersion": "3.3.4",
  "updatedAt": "2021-06-16T19:47:39.194Z",
  "devdoc": {
    "details": "{LongShort} contract:**** visit https://float.capital *****  - Ability for users to create synthetic long and short positions on value movements  - Value movements could be derived from tradional or alternative asset classes, derivates, binary outcomes, etc...  - Incentive mechansim providing fees to liquidity makers (users on both sides of order book)",
    "kind": "dev",
    "methods": {},
    "version": 1
  },
  "userdoc": {
    "kind": "user",
    "methods": {
      "changeAdmin(address)": {
        "notice": "MULTISIG ADMIN FUNCTIONS ///////"
      },
      "getMarketSplit(uint32,uint256)": {
        "notice": "Returns the amount of accrued value that should go to each side of the market. To incentivise balance, more value goes to the weaker side in proportion to how imbalanced the market is."
      },
      "getTreasurySplit(uint32,uint256)": {
        "notice": "Returns the amount of accrued value that should go to the market, and the amount that should be locked into the treasury. To incentivise market balance, more value goes to the market in proportion to how imbalanced it is."
      },
      "newSyntheticMarket(string,string,address,address,address)": {
        "notice": "Creates an entirely new long/short market tracking an underlying oracle price. Make sure the synthetic names/symbols are unique."
      },
      "updateMarketOracle(uint32,address)": {
        "notice": "Update oracle for a market"
      }
    },
    "version": 1
  }
}