{
  "contractName": "LongShort",
  "abi": [
    {
      "anonymous": false,
      "inputs": [
        {
          "indexed": false,
          "internalType": "uint256",
          "name": "marketIndex",
          "type": "uint256"
        },
        {
          "indexed": false,
          "internalType": "uint256",
          "name": "baseEntryFee",
          "type": "uint256"
        },
        {
          "indexed": false,
          "internalType": "uint256",
          "name": "badLiquidityEntryFee",
          "type": "uint256"
        },
        {
          "indexed": false,
          "internalType": "uint256",
          "name": "baseExitFee",
          "type": "uint256"
        },
        {
          "indexed": false,
          "internalType": "uint256",
          "name": "badLiquidityExitFee",
          "type": "uint256"
        }
      ],
      "name": "FeesChanges",
      "type": "event"
    },
    {
      "anonymous": false,
      "inputs": [
        {
          "indexed": false,
          "internalType": "uint256",
          "name": "marketIndex",
          "type": "uint256"
        },
        {
          "indexed": false,
          "internalType": "uint256",
          "name": "contractCallCounter",
          "type": "uint256"
        },
        {
          "indexed": false,
          "internalType": "uint256",
          "name": "totalFees",
          "type": "uint256"
        }
      ],
      "name": "FeesLevied",
      "type": "event"
    },
    {
      "anonymous": false,
      "inputs": [
        {
          "indexed": false,
          "internalType": "uint256",
          "name": "marketIndex",
          "type": "uint256"
        },
        {
          "indexed": false,
          "internalType": "uint256",
          "name": "contractCallCounter",
          "type": "uint256"
        },
        {
          "indexed": false,
          "internalType": "uint256",
          "name": "depositAdded",
          "type": "uint256"
        },
        {
          "indexed": false,
          "internalType": "uint256",
          "name": "finalDepositAmount",
          "type": "uint256"
        },
        {
          "indexed": false,
          "internalType": "uint256",
          "name": "tokensMinted",
          "type": "uint256"
        },
        {
          "indexed": false,
          "internalType": "address",
          "name": "user",
          "type": "address"
        }
      ],
      "name": "LongMinted",
      "type": "event"
    },
    {
      "anonymous": false,
      "inputs": [
        {
          "indexed": false,
          "internalType": "uint256",
          "name": "marketIndex",
          "type": "uint256"
        },
        {
          "indexed": false,
          "internalType": "uint256",
          "name": "contractCallCounter",
          "type": "uint256"
        },
        {
          "indexed": false,
          "internalType": "uint256",
          "name": "tokensRedeemed",
          "type": "uint256"
        },
        {
          "indexed": false,
          "internalType": "uint256",
          "name": "valueOfRedemption",
          "type": "uint256"
        },
        {
          "indexed": false,
          "internalType": "uint256",
          "name": "finalRedeemValue",
          "type": "uint256"
        },
        {
          "indexed": false,
          "internalType": "address",
          "name": "user",
          "type": "address"
        }
      ],
      "name": "LongRedeem",
      "type": "event"
    },
    {
      "anonymous": false,
      "inputs": [
        {
          "indexed": false,
          "internalType": "uint256",
          "name": "marketIndex",
          "type": "uint256"
        },
        {
          "indexed": false,
          "internalType": "uint256",
          "name": "contractCallCounter",
          "type": "uint256"
        },
        {
          "indexed": false,
          "internalType": "uint256",
          "name": "oldPrice",
          "type": "uint256"
        },
        {
          "indexed": false,
          "internalType": "uint256",
          "name": "newPrice",
          "type": "uint256"
        },
        {
          "indexed": false,
          "internalType": "address",
          "name": "user",
          "type": "address"
        }
      ],
      "name": "PriceUpdate",
      "type": "event"
    },
    {
      "anonymous": false,
      "inputs": [
        {
          "indexed": false,
          "internalType": "uint256",
          "name": "marketIndex",
          "type": "uint256"
        },
        {
          "indexed": false,
          "internalType": "uint256",
          "name": "contractCallCounter",
          "type": "uint256"
        },
        {
          "indexed": false,
          "internalType": "uint256",
          "name": "depositAdded",
          "type": "uint256"
        },
        {
          "indexed": false,
          "internalType": "uint256",
          "name": "finalDepositAmount",
          "type": "uint256"
        },
        {
          "indexed": false,
          "internalType": "uint256",
          "name": "tokensMinted",
          "type": "uint256"
        },
        {
          "indexed": false,
          "internalType": "address",
          "name": "user",
          "type": "address"
        }
      ],
      "name": "ShortMinted",
      "type": "event"
    },
    {
      "anonymous": false,
      "inputs": [
        {
          "indexed": false,
          "internalType": "uint256",
          "name": "marketIndex",
          "type": "uint256"
        },
        {
          "indexed": false,
          "internalType": "uint256",
          "name": "contractCallCounter",
          "type": "uint256"
        },
        {
          "indexed": false,
          "internalType": "uint256",
          "name": "tokensRedeemed",
          "type": "uint256"
        },
        {
          "indexed": false,
          "internalType": "uint256",
          "name": "valueOfRedemption",
          "type": "uint256"
        },
        {
          "indexed": false,
          "internalType": "uint256",
          "name": "finalRedeemValue",
          "type": "uint256"
        },
        {
          "indexed": false,
          "internalType": "address",
          "name": "user",
          "type": "address"
        }
      ],
      "name": "ShortRedeem",
      "type": "event"
    },
    {
      "anonymous": false,
      "inputs": [
        {
          "indexed": false,
          "internalType": "uint256",
          "name": "marketIndex",
          "type": "uint256"
        },
        {
          "indexed": false,
          "internalType": "address",
          "name": "longTokenAddress",
          "type": "address"
        },
        {
          "indexed": false,
          "internalType": "address",
          "name": "shortTokenAddress",
          "type": "address"
        },
        {
          "indexed": false,
          "internalType": "uint256",
          "name": "assetPrice",
          "type": "uint256"
        },
        {
          "indexed": false,
          "internalType": "string",
          "name": "name",
          "type": "string"
        },
        {
          "indexed": false,
          "internalType": "string",
          "name": "symbol",
          "type": "string"
        },
        {
          "indexed": false,
          "internalType": "address",
          "name": "oracleAddress",
          "type": "address"
        }
      ],
      "name": "SyntheticTokenCreated",
      "type": "event"
    },
    {
      "anonymous": false,
      "inputs": [
        {
          "indexed": false,
          "internalType": "uint256",
          "name": "marketIndex",
          "type": "uint256"
        },
        {
          "indexed": false,
          "internalType": "uint256",
          "name": "contractCallCounter",
          "type": "uint256"
        },
        {
          "indexed": false,
          "internalType": "uint256",
          "name": "longTokenPrice",
          "type": "uint256"
        },
        {
          "indexed": false,
          "internalType": "uint256",
          "name": "shortTokenPrice",
          "type": "uint256"
        }
      ],
      "name": "TokenPriceRefreshed",
      "type": "event"
    },
    {
      "anonymous": false,
      "inputs": [
        {
          "indexed": false,
          "internalType": "address",
          "name": "admin",
          "type": "address"
        },
        {
          "indexed": false,
          "internalType": "address",
          "name": "tokenFactory",
          "type": "address"
        },
        {
          "indexed": false,
          "internalType": "address",
          "name": "staker",
          "type": "address"
        }
      ],
      "name": "V1",
      "type": "event"
    },
    {
      "anonymous": false,
      "inputs": [
        {
          "indexed": false,
          "internalType": "uint256",
          "name": "marketIndex",
          "type": "uint256"
        },
        {
          "indexed": false,
          "internalType": "uint256",
          "name": "contractCallCounter",
          "type": "uint256"
        },
        {
          "indexed": false,
          "internalType": "uint256",
          "name": "totalValueLockedInMarket",
          "type": "uint256"
        },
        {
          "indexed": false,
          "internalType": "uint256",
          "name": "longValue",
          "type": "uint256"
        },
        {
          "indexed": false,
          "internalType": "uint256",
          "name": "shortValue",
          "type": "uint256"
        }
      ],
      "name": "ValueLockedInSystem",
      "type": "event"
    },
    {
      "inputs": [],
      "name": "TEN_TO_THE_18",
      "outputs": [
        {
          "internalType": "uint256",
          "name": "",
          "type": "uint256"
        }
      ],
      "stateMutability": "view",
      "type": "function",
      "constant": true
    },
    {
      "inputs": [],
      "name": "admin",
      "outputs": [
        {
          "internalType": "address",
          "name": "",
          "type": "address"
        }
      ],
      "stateMutability": "view",
      "type": "function",
      "constant": true
    },
    {
      "inputs": [
        {
          "internalType": "uint256",
          "name": "",
          "type": "uint256"
        }
      ],
      "name": "assetPrice",
      "outputs": [
        {
          "internalType": "uint256",
          "name": "",
          "type": "uint256"
        }
      ],
      "stateMutability": "view",
      "type": "function",
      "constant": true
    },
    {
      "inputs": [
        {
          "internalType": "uint256",
          "name": "",
          "type": "uint256"
        }
      ],
      "name": "badLiquidityEntryFee",
      "outputs": [
        {
          "internalType": "uint256",
          "name": "",
          "type": "uint256"
        }
      ],
      "stateMutability": "view",
      "type": "function",
      "constant": true
    },
    {
      "inputs": [
        {
          "internalType": "uint256",
          "name": "",
          "type": "uint256"
        }
      ],
      "name": "badLiquidityExitFee",
      "outputs": [
        {
          "internalType": "uint256",
          "name": "",
          "type": "uint256"
        }
      ],
      "stateMutability": "view",
      "type": "function",
      "constant": true
    },
    {
      "inputs": [
        {
          "internalType": "uint256",
          "name": "",
          "type": "uint256"
        }
      ],
      "name": "baseEntryFee",
      "outputs": [
        {
          "internalType": "uint256",
          "name": "",
          "type": "uint256"
        }
      ],
      "stateMutability": "view",
      "type": "function",
      "constant": true
    },
    {
      "inputs": [
        {
          "internalType": "uint256",
          "name": "",
          "type": "uint256"
        }
      ],
      "name": "baseExitFee",
      "outputs": [
        {
          "internalType": "uint256",
          "name": "",
          "type": "uint256"
        }
      ],
      "stateMutability": "view",
      "type": "function",
      "constant": true
    },
    {
      "inputs": [
        {
          "internalType": "uint256",
          "name": "",
          "type": "uint256"
        }
      ],
      "name": "externalContractCounter",
      "outputs": [
        {
          "internalType": "uint256",
          "name": "",
          "type": "uint256"
        }
      ],
      "stateMutability": "view",
      "type": "function",
      "constant": true
    },
    {
      "inputs": [],
      "name": "feeUnitsOfPrecision",
      "outputs": [
        {
          "internalType": "uint256",
          "name": "",
          "type": "uint256"
        }
      ],
      "stateMutability": "view",
      "type": "function",
      "constant": true
    },
    {
      "inputs": [
        {
          "internalType": "uint256",
          "name": "",
          "type": "uint256"
        }
      ],
      "name": "fundTokens",
      "outputs": [
        {
          "internalType": "contract IERC20Upgradeable",
          "name": "",
          "type": "address"
        }
      ],
      "stateMutability": "view",
      "type": "function",
      "constant": true
    },
    {
      "inputs": [],
      "name": "latestMarket",
      "outputs": [
        {
          "internalType": "uint256",
          "name": "",
          "type": "uint256"
        }
      ],
      "stateMutability": "view",
      "type": "function",
      "constant": true
    },
    {
      "inputs": [
        {
          "internalType": "uint256",
          "name": "",
          "type": "uint256"
        }
      ],
      "name": "longTokenPrice",
      "outputs": [
        {
          "internalType": "uint256",
          "name": "",
          "type": "uint256"
        }
      ],
      "stateMutability": "view",
      "type": "function",
      "constant": true
    },
    {
      "inputs": [
        {
          "internalType": "uint256",
          "name": "",
          "type": "uint256"
        }
      ],
      "name": "longTokens",
      "outputs": [
        {
          "internalType": "contract SyntheticToken",
          "name": "",
          "type": "address"
        }
      ],
      "stateMutability": "view",
      "type": "function",
      "constant": true
    },
    {
      "inputs": [
        {
          "internalType": "uint256",
          "name": "",
          "type": "uint256"
        }
      ],
      "name": "longValue",
      "outputs": [
        {
          "internalType": "uint256",
          "name": "",
          "type": "uint256"
        }
      ],
      "stateMutability": "view",
      "type": "function",
      "constant": true
    },
    {
      "inputs": [
        {
          "internalType": "uint256",
          "name": "",
          "type": "uint256"
        }
      ],
      "name": "marketExists",
      "outputs": [
        {
          "internalType": "bool",
          "name": "",
          "type": "bool"
        }
      ],
      "stateMutability": "view",
      "type": "function",
      "constant": true
    },
    {
      "inputs": [
        {
          "internalType": "uint256",
          "name": "",
          "type": "uint256"
        }
      ],
      "name": "oracleManagers",
      "outputs": [
        {
          "internalType": "contract IOracleManager",
          "name": "",
          "type": "address"
        }
      ],
      "stateMutability": "view",
      "type": "function",
      "constant": true
    },
    {
      "inputs": [
        {
          "internalType": "uint256",
          "name": "",
          "type": "uint256"
        }
      ],
      "name": "shortTokenPrice",
      "outputs": [
        {
          "internalType": "uint256",
          "name": "",
          "type": "uint256"
        }
      ],
      "stateMutability": "view",
      "type": "function",
      "constant": true
    },
    {
      "inputs": [
        {
          "internalType": "uint256",
          "name": "",
          "type": "uint256"
        }
      ],
      "name": "shortTokens",
      "outputs": [
        {
          "internalType": "contract SyntheticToken",
          "name": "",
          "type": "address"
        }
      ],
      "stateMutability": "view",
      "type": "function",
      "constant": true
    },
    {
      "inputs": [
        {
          "internalType": "uint256",
          "name": "",
          "type": "uint256"
        }
      ],
      "name": "shortValue",
      "outputs": [
        {
          "internalType": "uint256",
          "name": "",
          "type": "uint256"
        }
      ],
      "stateMutability": "view",
      "type": "function",
      "constant": true
    },
    {
      "inputs": [],
      "name": "staker",
      "outputs": [
        {
          "internalType": "contract IStaker",
          "name": "",
          "type": "address"
        }
      ],
      "stateMutability": "view",
      "type": "function",
      "constant": true
    },
    {
      "inputs": [],
      "name": "tokenFactory",
      "outputs": [
        {
          "internalType": "contract TokenFactory",
          "name": "",
          "type": "address"
        }
      ],
      "stateMutability": "view",
      "type": "function",
      "constant": true
    },
    {
      "inputs": [
        {
          "internalType": "uint256",
          "name": "",
          "type": "uint256"
        }
      ],
      "name": "totalValueLockedInMarket",
      "outputs": [
        {
          "internalType": "uint256",
          "name": "",
          "type": "uint256"
        }
      ],
      "stateMutability": "view",
      "type": "function",
      "constant": true
    },
    {
      "inputs": [
        {
          "internalType": "uint256",
          "name": "",
          "type": "uint256"
        }
      ],
      "name": "totalValueLockedInYieldManager",
      "outputs": [
        {
          "internalType": "uint256",
          "name": "",
          "type": "uint256"
        }
      ],
      "stateMutability": "view",
      "type": "function",
      "constant": true
    },
    {
      "inputs": [
        {
          "internalType": "uint256",
          "name": "",
          "type": "uint256"
        }
      ],
      "name": "totalValueReservedForTreasury",
      "outputs": [
        {
          "internalType": "uint256",
          "name": "",
          "type": "uint256"
        }
      ],
      "stateMutability": "view",
      "type": "function",
      "constant": true
    },
    {
      "inputs": [],
      "name": "treasury",
      "outputs": [
        {
          "internalType": "address",
          "name": "",
          "type": "address"
        }
      ],
      "stateMutability": "view",
      "type": "function",
      "constant": true
    },
    {
      "inputs": [
        {
          "internalType": "uint256",
          "name": "",
          "type": "uint256"
        }
      ],
      "name": "yieldManagers",
      "outputs": [
        {
          "internalType": "contract IYieldManager",
          "name": "",
          "type": "address"
        }
      ],
      "stateMutability": "view",
      "type": "function",
      "constant": true
    },
    {
      "inputs": [
        {
          "internalType": "address",
          "name": "_admin",
          "type": "address"
        },
        {
          "internalType": "address",
          "name": "_treasury",
          "type": "address"
        },
        {
          "internalType": "address",
          "name": "_tokenFactory",
          "type": "address"
        },
        {
          "internalType": "address",
          "name": "_staker",
          "type": "address"
        }
      ],
      "name": "setup",
      "outputs": [],
      "stateMutability": "nonpayable",
      "type": "function"
    },
    {
      "inputs": [
        {
          "internalType": "address",
          "name": "_admin",
          "type": "address"
        }
      ],
      "name": "changeAdmin",
      "outputs": [],
      "stateMutability": "nonpayable",
      "type": "function"
    },
    {
      "inputs": [
        {
          "internalType": "address",
          "name": "_treasury",
          "type": "address"
        }
      ],
      "name": "changeTreasury",
      "outputs": [],
      "stateMutability": "nonpayable",
      "type": "function"
    },
    {
      "inputs": [
        {
          "internalType": "uint256",
          "name": "marketIndex",
          "type": "uint256"
        },
        {
          "internalType": "uint256",
          "name": "_baseEntryFee",
          "type": "uint256"
        },
        {
          "internalType": "uint256",
          "name": "_badLiquidityEntryFee",
          "type": "uint256"
        },
        {
          "internalType": "uint256",
          "name": "_baseExitFee",
          "type": "uint256"
        },
        {
          "internalType": "uint256",
          "name": "_badLiquidityExitFee",
          "type": "uint256"
        }
      ],
      "name": "changeFees",
      "outputs": [],
      "stateMutability": "nonpayable",
      "type": "function"
    },
    {
      "inputs": [
        {
          "internalType": "string",
          "name": "syntheticName",
          "type": "string"
        },
        {
          "internalType": "string",
          "name": "syntheticSymbol",
          "type": "string"
        },
        {
          "internalType": "address",
          "name": "_fundToken",
          "type": "address"
        },
        {
          "internalType": "address",
          "name": "_oracleManager",
          "type": "address"
        },
        {
          "internalType": "address",
          "name": "_yieldManager",
          "type": "address"
        }
      ],
      "name": "newSyntheticMarket",
      "outputs": [],
      "stateMutability": "nonpayable",
      "type": "function"
    },
    {
      "inputs": [
        {
          "internalType": "uint256",
          "name": "marketIndex",
          "type": "uint256"
        },
        {
          "internalType": "uint256",
          "name": "_baseEntryFee",
          "type": "uint256"
        },
        {
          "internalType": "uint256",
          "name": "_badLiquidityEntryFee",
          "type": "uint256"
        },
        {
          "internalType": "uint256",
          "name": "_baseExitFee",
          "type": "uint256"
        },
        {
          "internalType": "uint256",
          "name": "_badLiquidityExitFee",
          "type": "uint256"
        },
        {
          "internalType": "uint256",
          "name": "kInitialMultiplier",
          "type": "uint256"
        },
        {
          "internalType": "uint256",
          "name": "kPeriod",
          "type": "uint256"
        }
      ],
      "name": "initializeMarket",
      "outputs": [],
      "stateMutability": "nonpayable",
      "type": "function"
    },
    {
      "inputs": [
        {
          "internalType": "uint256",
          "name": "marketIndex",
          "type": "uint256"
        }
      ],
      "name": "getLiquidFunds",
      "outputs": [
        {
          "internalType": "uint256",
          "name": "",
          "type": "uint256"
        }
      ],
      "stateMutability": "view",
      "type": "function",
      "constant": true
    },
    {
      "inputs": [
        {
          "internalType": "uint256",
          "name": "marketIndex",
          "type": "uint256"
        }
      ],
      "name": "getLongBeta",
      "outputs": [
        {
          "internalType": "uint256",
          "name": "",
          "type": "uint256"
        }
      ],
      "stateMutability": "view",
      "type": "function",
      "constant": true
    },
    {
      "inputs": [
        {
          "internalType": "uint256",
          "name": "marketIndex",
          "type": "uint256"
        }
      ],
      "name": "getShortBeta",
      "outputs": [
        {
          "internalType": "uint256",
          "name": "",
          "type": "uint256"
        }
      ],
      "stateMutability": "view",
      "type": "function",
      "constant": true
    },
    {
      "inputs": [
        {
          "internalType": "uint256",
          "name": "marketIndex",
          "type": "uint256"
        },
        {
          "internalType": "uint256",
          "name": "amount",
          "type": "uint256"
        }
      ],
      "name": "getTreasurySplit",
      "outputs": [
        {
          "internalType": "uint256",
          "name": "marketAmount",
          "type": "uint256"
        },
        {
          "internalType": "uint256",
          "name": "treasuryAmount",
          "type": "uint256"
        }
      ],
      "stateMutability": "view",
      "type": "function",
      "constant": true
    },
    {
      "inputs": [
        {
          "internalType": "uint256",
          "name": "marketIndex",
          "type": "uint256"
        },
        {
          "internalType": "uint256",
          "name": "amount",
          "type": "uint256"
        }
      ],
      "name": "getMarketSplit",
      "outputs": [
        {
          "internalType": "uint256",
          "name": "longAmount",
          "type": "uint256"
        },
        {
          "internalType": "uint256",
          "name": "shortAmount",
          "type": "uint256"
        }
      ],
      "stateMutability": "view",
      "type": "function",
      "constant": true
    },
    {
      "inputs": [
        {
          "internalType": "uint256",
          "name": "marketIndex",
          "type": "uint256"
        }
      ],
      "name": "_updateSystemState",
      "outputs": [],
      "stateMutability": "nonpayable",
      "type": "function"
    },
    {
      "inputs": [
        {
          "internalType": "uint256",
          "name": "marketIndex",
          "type": "uint256"
        },
        {
          "internalType": "uint256",
          "name": "amount",
          "type": "uint256"
        }
      ],
      "name": "mintLong",
      "outputs": [],
      "stateMutability": "nonpayable",
      "type": "function"
    },
    {
      "inputs": [
        {
          "internalType": "uint256",
          "name": "marketIndex",
          "type": "uint256"
        },
        {
          "internalType": "uint256",
          "name": "amount",
          "type": "uint256"
        }
      ],
      "name": "mintShort",
      "outputs": [],
      "stateMutability": "nonpayable",
      "type": "function"
    },
    {
      "inputs": [
        {
          "internalType": "uint256",
          "name": "marketIndex",
          "type": "uint256"
        },
        {
          "internalType": "uint256",
          "name": "amount",
          "type": "uint256"
        }
      ],
      "name": "mintLongAndStake",
      "outputs": [],
      "stateMutability": "nonpayable",
      "type": "function"
    },
    {
      "inputs": [
        {
          "internalType": "uint256",
          "name": "marketIndex",
          "type": "uint256"
        },
        {
          "internalType": "uint256",
          "name": "amount",
          "type": "uint256"
        }
      ],
      "name": "mintShortAndStake",
      "outputs": [],
      "stateMutability": "nonpayable",
      "type": "function"
    },
    {
      "inputs": [
        {
          "internalType": "uint256",
          "name": "marketIndex",
          "type": "uint256"
        },
        {
          "internalType": "uint256",
          "name": "tokensToRedeem",
          "type": "uint256"
        }
      ],
      "name": "redeemLong",
      "outputs": [],
      "stateMutability": "nonpayable",
      "type": "function"
    },
    {
      "inputs": [
        {
          "internalType": "uint256",
          "name": "marketIndex",
          "type": "uint256"
        },
        {
          "internalType": "uint256",
          "name": "tokensToRedeem",
          "type": "uint256"
        }
      ],
      "name": "redeemShort",
      "outputs": [],
      "stateMutability": "nonpayable",
      "type": "function"
    },
    {
      "inputs": [
        {
          "internalType": "uint256",
          "name": "marketIndex",
          "type": "uint256"
        }
      ],
      "name": "transferTreasuryFunds",
      "outputs": [],
      "stateMutability": "nonpayable",
      "type": "function"
    }
  ],
  "bytecode": "0x608060405234801561001057600080fd5b50612e44806100206000396000f3fe608060405234801561001057600080fd5b506004361061027f5760003560e01c80638e6554091161015c578063d2d2ef76116100ce578063e95c17db11610087578063e95c17db1461067a578063ec69a6541461069a578063f45a7192146106cd578063f851a440146106ed578063faf8095f14610706578063fff1939c146107195761027f565b8063d2d2ef76146105ff578063d3ce79821461060e578063d47540bc14610621578063e40944b314610634578063e54cdfe214610647578063e77772fe146106675761027f565b8063a668199f11610120578063a668199f14610573578063a80b245714610593578063b03f8c0e146105a6578063b14f2a39146105b9578063c2b9a2e1146105cc578063d206ff1c146105df5761027f565b80638e655409146104f15780638f2839701461051a578063983ccdff1461052d5780639e1211171461054d578063a104438f146105605761027f565b80635ad6c71d116101f5578063636190c8116101b9578063636190c81461046657806384ba3c041461046f57806387d3249714610482578063896c0c05146104955780638c08068a146104b55780638e5dfc1e146104c85761027f565b80635ad6c71d146103e55780635d713566146104055780635ebaf1db1461042d578063608bbd491461044057806361d027b3146104535761027f565b80632cbf458d116102475780632cbf458d146103585780633425d363146103615780633498cd49146103765780633d7d07061461039f5780634b7d5ead146103b257806354c35a3c146103d25761027f565b8063076c1e9414610284578063143c70d0146102b75780631bfd19f8146102d75780632237d35c146102f75780632b5d871814610338575b600080fd5b6102a4610292366004612b9b565b60076020526000908152604090205481565b6040519081526020015b60405180910390f35b6102a46102c5366004612b9b565b60066020526000908152604090205481565b6102a46102e5366004612b9b565b600d6020526000908152604090205481565b610320610305366004612b9b565b6013602052600090815260409020546001600160a01b031681565b6040516001600160a01b0390911681526020016102ae565b6102a4610346366004612b9b565b600a6020526000908152604090205481565b6102a461271081565b61037461036f366004612bb3565b610742565b005b610320610384366004612b9b565b6012602052600090815260409020546001600160a01b031681565b6103746103ad366004612b9b565b6107ee565b6102a46103c0366004612b9b565b60096020526000908152604090205481565b6103746103e0366004612a46565b610ae8565b6102a46103f3366004612b9b565b60156020526000908152604090205481565b610418610413366004612bb3565b610c46565b604080519283526020830191909152016102ae565b600554610320906001600160a01b031681565b61037461044e366004612bb3565b610d57565b600354610320906001600160a01b031681565b6102a460015481565b6102a461047d366004612b9b565b610d6d565b610374610490366004612bb3565b610ddb565b6102a46104a3366004612b9b565b60176020526000908152604090205481565b6103746104c3366004612b9b565b610fc2565b6103206104d6366004612b9b565b6010602052600090815260409020546001600160a01b031681565b6103206104ff366004612b9b565b6011602052600090815260409020546001600160a01b031681565b610374610528366004612a23565b6110f0565b6102a461053b366004612b9b565b60086020526000908152604090205481565b61037461055b366004612bd4565b611137565b61037461056e366004612bb3565b611161565b6102a4610581366004612b9b565b600c6020526000908152604090205481565b6103746105a1366004612bb3565b6112bb565b6103746105b4366004612c0e565b611333565b6103746105c7366004612a23565b611444565b6103746105da366004612bb3565b611483565b6102a46105ed366004612b9b565b600b6020526000908152604090205481565b6102a4670de0b6b3a764000081565b6102a461061c366004612b9b565b611499565b61037461062f366004612af5565b6114d1565b6102a4610642366004612b9b565b611772565b6102a4610655366004612b9b565b60166020526000908152604090205481565b600454610320906001600160a01b031681565b6102a4610688366004612b9b565b600e6020526000908152604090205481565b6106bd6106a8366004612b9b565b60026020526000908152604090205460ff1681565b60405190151581526020016102ae565b6102a46106db366004612b9b565b60146020526000908152604090205481565b600054610320906201000090046001600160a01b031681565b610418610714366004612bb3565b6117ce565b610320610727366004612b9b565b600f602052600090815260409020546001600160a01b031681565b8161074c816107ee565b60055460009061076a908590859033906001600160a01b0316611893565b6005546000868152601260205260409081902054905163796a7ae960e11b81526001600160a01b03918216600482015260248101849052336044820152929350169063f2d4f5d2906064015b600060405180830381600087803b1580156107d057600080fd5b505af11580156107e4573d6000803e3d6000fd5b5050505050505050565b600081815260026020526040902054819060ff1661080b57600080fd5b81333014610833576000818152600e6020526040812080549161082d83612dc8565b91905055505b6005546000848152601260209081526040808320546013835281842054600c845282852054600d8552838620546006865284872054600790965295849020549351635512039360e11b81526001600160a01b039384166004820152918316602483015260448201526064810194909452608484019290925260a48301529091169063aa2407269060c401600060405180830381600087803b1580156108d757600080fd5b505af11580156108eb573d6000803e3d6000fd5b50505060008481526006602052604090205415905080156109185750600083815260076020526040902054155b1561092257610ae3565b600061092d84611a6c565b6000858152600e6020908152604080832054600b83529281902054815189815292830193909352810191909152606081018290523360808201529091507f79fb6848e7674bc7f6dccc10751e59abb112a43e0cadc715fa9d89f341c942dc9060a00160405180910390a1600084815260066020526040902054158015906109c1575060008481526007602052604090205415155b156109d0576109d08482611b5a565b6109d984611e50565b6109e284611fd4565b6000848152600b60209081526040808320849055600e8252808320546008835281842054600684528285205460078552948390205483518a815294850192909252838301526060830193909352608082019290925290517f79ebcec14f04f4d0413d471c8a42adb8217d9a407decd6be7387bc7625d8cad49181900360a00190a160008481526008602090815260408083205460078352818420546006909352922054610a8f9190612d5a565b14610ae15760405162461bcd60e51b815260206004820152601960248201527f546f74616c206c6f636b656420696e636f6e73697374656e740000000000000060448201526064015b60405180910390fd5b505b505050565b600054610100900460ff1680610b01575060005460ff16155b610b645760405162461bcd60e51b815260206004820152602e60248201527f496e697469616c697a61626c653a20636f6e747261637420697320616c72656160448201526d191e481a5b9a5d1a585b1a5e995960921b6064820152608401610ad8565b600054610100900460ff16158015610b8f576000805460ff1961ff0019909116610100171660011790555b6000805462010000600160b01b031916620100006001600160a01b0388811691820292909217909255600380546001600160a01b031990811688841617909155600480548216878416908117909155600580549092169286169283179091556040805193845260208401919091528201527f0d0c1ab1ce29d16db389025513a309c9877f81db1ccb629c52eac3698d853bab9060600160405180910390a18015610c3f576000805461ff00191690555b5050505050565b6000828152600860205260408120548190610c6657508190506000610d50565b60008481526007602090815260408083205460069092528220541115610ccf5760008581526008602090815260408083205460078352818420546006909352922054610cb29190612db1565b610cbe90612710612d92565b610cc89190612d72565b9050610d14565b60008581526008602090815260408083205460068352818420546007909352922054610cfb9190612db1565b610d0790612710612d92565b610d119190612d72565b90505b612710610d218583612d92565b610d2b9190612d72565b9250610d378385612db1565b9150610d438284612d5a565b8414610d4e57600080fd5b505b9250929050565b81610d61816107ee565b610ae1838333336121da565b600081815260076020908152604080832054600690925282205410610d9b5750670de0b6b3a7640000610dd6565b600082815260076020908152604080832054600690925290912054610dc990670de0b6b3a764000090612d92565b610dd39190612d72565b90505b919050565b81610de5816107ee565b6000838152601260205260409081902054905163319920a160e11b8152336004820152602481018490526001600160a01b0390911690636332414290604401600060405180830381600087803b158015610e3e57600080fd5b505af1158015610e52573d6000803e3d6000fd5b5050506000848152600c6020526040812054909150670de0b6b3a764000090610e7b9085612d92565b610e859190612d72565b90506000610e97858360006001612328565b90506000610ea58284612db1565b9050610eb186836123e2565b600086815260066020526040902054610ecb908490612db1565b600087815260066020526040902055610ee486826124e4565b610eed86611fd4565b6000868152600e6020526040908190205490517f0ff7f63b14327882049ca86ccf90d5556c1ae229b18a460af7f119a1ce3b97cb91610f36918991908990889087903390612d29565b60405180910390a16000868152600e60209081526040808320546008835281842054600684528285205460078552948390205483518c81529485019290925291830191909152606082019290925260808101919091527f79ebcec14f04f4d0413d471c8a42adb8217d9a407decd6be7387bc7625d8cad49060a0015b60405180910390a1505050505050565b6003546001600160a01b03163314610fd957600080fd5b6000818152600a6020526040902054610ff1576110ed565b6000610ffc82611499565b6000838152600a602052604090205490915081101561103a576000828152600a602052604090205461103a908390611035908490612db1565b6125e5565b6000828152600f6020908152604080832054600354600a9093529281902054905163a9059cbb60e01b81526001600160a01b039283166004820152602481019190915291169063a9059cbb90604401602060405180830381600087803b1580156110a357600080fd5b505af11580156110b7573d6000803e3d6000fd5b505050506040513d601f19601f820116820180604052508101906110db9190612aa1565b50506000818152600a60205260408120555b50565b6000546201000090046001600160a01b0316331461110d57600080fd5b600080546001600160a01b03909216620100000262010000600160b01b0319909216919091179055565b6000546201000090046001600160a01b0316331461115457600080fd5b610c3f85858486856126cf565b8161116b816107ee565b6000838152601360205260409081902054905163319920a160e11b8152336004820152602481018490526001600160a01b0390911690636332414290604401600060405180830381600087803b1580156111c457600080fd5b505af11580156111d8573d6000803e3d6000fd5b5050506000848152600d6020526040812054909150670de0b6b3a7640000906112019085612d92565b61120b9190612d72565b9050600061121c8583600080612328565b9050600061122a8284612db1565b905061123686836123e2565b600086815260076020526040902054611250908490612db1565b60008781526007602052604090205561126986826124e4565b61127286611fd4565b6000868152600e6020526040908190205490517f600c89bdd3fd6a17535cf96a7a531c2342557630dea9d38cf8fb2ea72887b6f291610f36918991908990889087903390612d29565b816112c5816107ee565b6005546000906112e3908590859033906001600160a01b03166121da565b6005546000868152601360205260409081902054905163796a7ae960e11b81526001600160a01b03918216600482015260248101849052336044820152929350169063f2d4f5d2906064016107b6565b6000546201000090046001600160a01b0316331461135057600080fd5b60008781526002602052604090205460ff1615801561137157506001548711155b61137a57600080fd5b6000878152600260205260409020805460ff191660011790556113a087878688876126cf565b60055460015460008981526012602090815260408083205460139092529182902054915163306efa3960e11b815260048101939093526001600160a01b03908116602484015290811660448301526064820185905260848201849052909116906360ddf4729060a401600060405180830381600087803b15801561142357600080fd5b505af1158015611437573d6000803e3d6000fd5b5050505050505050505050565b6000546201000090046001600160a01b0316331461146157600080fd5b600380546001600160a01b0319166001600160a01b0392909216919091179055565b8161148d816107ee565b610ae183833333611893565b600081815260096020908152604080832054600a83528184205460089093529083205490916114c791612d5a565b610dd39190612db1565b6000546201000090046001600160a01b031633146114ee57600080fd5b600180549060006114fe83612dc8565b9091555050600480546005546040516315f297c760e21b81526001600160a01b03928316936357ca5f1c9361153d938d938d938d938d93169101612c83565b602060405180830381600087803b15801561155757600080fd5b505af115801561156b573d6000803e3d6000fd5b505050506040513d601f19601f8201168201806040525081019061158f9190612ac1565b6001546000908152601260205260409081902080546001600160a01b0319166001600160a01b0393841617905560048054600554925163cfc6808960e01b81529084169363cfc68089936115ee938d938d938d938d9391169101612c83565b602060405180830381600087803b15801561160857600080fd5b505af115801561161c573d6000803e3d6000fd5b505050506040513d601f19601f820116820180604052508101906116409190612ac1565b60018054600090815260136020908152604080832080546001600160a01b03199081166001600160a01b039788161790915584548452600c8352818420670de0b6b3a76400009081905585548552600d84528285205584548452600f8352818420805482168a8816179055845484526010835281842080548216888816179055845484526011909252909120805490911692851692909217909155546116e590611a6c565b600180546000908152600b602081815260408084209590955592548083526012845284832054601385528584205492909452918490205493517fd8681bc5f150068e5911f39a75ccaf4e67e3669d2c0dd350225e5a06796e124694611761946001600160a01b039081169316918d908d908d908d908c90612cc5565b60405180910390a150505050505050565b6000818152600660209081526040808320546007909252822054106117a05750670de0b6b3a7640000610dd6565b600082815260066020908152604080832054600790925290912054610dc990670de0b6b3a764000090612d92565b60008281526006602052604081205481901580156117f85750600084815260076020526040902054155b1561181b57611808600284612d72565b91506118148284612db1565b9050610d50565b600084815260076020908152604080832054600690925282205461183f9190612d5a565b60008681526007602052604090205461185a90612710612d92565b6118649190612d72565b90506127106118738286612d92565b61187d9190612d72565b92506118898385612db1565b9150509250929050565b600061189f8585612758565b60006118ae8686600180612328565b905060006118bc8287612db1565b90506118c887836123e2565b6118d187611fd4565b6000878152600c60205260408120546118f2670de0b6b3a764000084612d92565b6118fc9190612d72565b600089815260126020526040908190205490516340c10f1960e01b81526001600160a01b038881166004830152602482018490529293509116906340c10f1990604401600060405180830381600087803b15801561195957600080fd5b505af115801561196d573d6000803e3d6000fd5b50505060008981526006602052604090205461198b91508390612d5a565b600089815260066020908152604080832093909355600e90528190205490517f62dfea882042aff33d46c5863b7dcce89776289b112b277c886cb51a186dbafc916119e0918b91908b90879087908d90612d29565b60405180910390a16000888152600e60209081526040808320546008835281842054600684528285205460078552948390205483518e815294850192909252838301526060830193909352608082019290925290517f79ebcec14f04f4d0413d471c8a42adb8217d9a407decd6be7387bc7625d8cad49181900360a00190a1925050505b949350505050565b600081815260116020526040808220548151630ce74fc560e31b815291516001600160a01b039091169163673a7e28916004808301928692919082900301818387803b158015611abb57600080fd5b505af1158015611acf573d6000803e3d6000fd5b505050600083815260116020908152604091829020548251638e15f47360e01b815292516001600160a01b039091169350638e15f473926004808201939291829003018186803b158015611b2257600080fd5b505afa158015611b36573d6000803e3d6000fd5b505050506040513d601f19601f82011682018060405250810190610dd39190612add565b6000828152600b6020526040902054811415611b7557611e4c565b6000828152600b60205260408120548190831115611cee576000848152600b6020526040902054670de0b6b3a7640000611baf8286612db1565b611bb99190612d92565b611bc39190612d72565b9150670de0b6b3a76400008210611c1b57600084815260076020908152604080832054600690925290912054611bf99190612d5a565b6000858152600660209081526040808320939093556007905290812055611ce9565b670de0b6b3a7640000611c2d85610d6d565b1415611c6857600084815260076020526040902054670de0b6b3a764000090611c57908490612d92565b611c619190612d72565b9050611c99565b600084815260066020526040902054670de0b6b3a764000090611c8c908490612d92565b611c969190612d72565b90505b600084815260066020526040902054611cb3908290612d5a565b600085815260066020908152604080832093909355600790522054611cd9908290612db1565b6000858152600760205260409020555b610ae1565b6000848152600b6020526040902054670de0b6b3a7640000611d108583612db1565b611d1a9190612d92565b611d249190612d72565b9150670de0b6b3a76400008210611d7c57600084815260066020908152604080832054600790925290912054611d5a9190612d5a565b6000858152600760209081526040808320939093556006905290812055610ae1565b670de0b6b3a7640000611d8e85610d6d565b1415611dc957600084815260076020526040902054670de0b6b3a764000090611db8908490612d92565b611dc29190612d72565b9050611dfa565b600084815260066020526040902054670de0b6b3a764000090611ded908490612d92565b611df79190612d72565b90505b600084815260066020526040902054611e14908290612db1565b600085815260066020908152604080832093909355600790522054611e3a908290612d5a565b60008581526007602052604090205550505b5050565b60008181526009602090815260408083205460108352818420548251638fb9801760e01b8152925191936001600160a01b0390911692638fb98017926004808301939282900301818887803b158015611ea857600080fd5b505af1158015611ebc573d6000803e3d6000fd5b505050506040513d601f19601f82011682018060405250810190611ee09190612add565b611eea9190612db1565b9050600080611ef98484610c46565b600086815260096020526040812080549395509193508592611f1c908490612d5a565b909155505060008481526008602052604081208054849290611f3f908490612d5a565b90915550506000848152600a602052604081208054839290611f62908490612d5a565b909155506000905080611f7586856117ce565b6000888152600660205260409020549193509150611f94908390612d5a565b600087815260066020908152604080832093909355600790522054611fba908290612d5a565b600096875260076020526040909620959095555050505050565b60008181526012602090815260408083205481516318160ddd60e01b815291516001600160a01b03909116926318160ddd9260048082019391829003018186803b15801561202157600080fd5b505afa158015612035573d6000803e3d6000fd5b505050506040513d601f19601f820116820180604052508101906120599190612add565b9050801561209f57600082815260066020526040902054819061208590670de0b6b3a764000090612d92565b61208f9190612d72565b6000838152600c60205260409020555b60008281526013602090815260408083205481516318160ddd60e01b815291516001600160a01b03909116926318160ddd9260048082019391829003018186803b1580156120ec57600080fd5b505afa158015612100573d6000803e3d6000fd5b505050506040513d601f19601f820116820180604052508101906121249190612add565b9050801561216a57600083815260076020526040902054819061215090670de0b6b3a764000090612d92565b61215a9190612d72565b6000848152600d60205260409020555b6000838152600e6020908152604080832054600c835281842054600d845293829020548251888152938401919091529082019290925260608101919091527ff5a0d32fb0a11ce8c5cbc41ba0fbff5c11cf5a38f1d250b09a0604ecd7baeddb9060800160405180910390a1505050565b60006121e68585612758565b60006121f6868660016000612328565b905060006122048287612db1565b905061221087836123e2565b61221987611fd4565b6000878152600d602052604081205461223a670de0b6b3a764000084612d92565b6122449190612d72565b600089815260136020526040908190205490516340c10f1960e01b81526001600160a01b038881166004830152602482018490529293509116906340c10f1990604401600060405180830381600087803b1580156122a157600080fd5b505af11580156122b5573d6000803e3d6000fd5b5050506000898152600760205260409020546122d391508390612d5a565b600089815260076020908152604080832093909355600e90528190205490517f68904ace1024130cf0b954daa8ba8ea241b63f38cab13588eb3c534de1a48746916119e0918b91908b90879087908d90612d29565b60008481526006602090815260408083205460079092528220548480156123555750811580612355575080155b15612370576123678787600088612823565b92505050611a64565b60008515158515151480156123995783831115612394576123918484612db1565b91505b6123ae565b828411156123ae576123ab8385612db1565b91505b8782106123cd576123c2898960008a612823565b945050505050611a64565b6123c289896123dc8582612db1565b8a612823565b6000806123ef8484610c46565b600086815260086020526040812080549395509193508392612412908490612db1565b90915550506000848152600a602052604081208054839290612435908490612d5a565b90915550600090508061244886856117ce565b6000888152600660205260409020549193509150612467908390612d5a565b60008781526006602090815260408083209390935560079052205461248d908290612d5a565b600087815260076020908152604080832093909355600e815290829020548251898152918201529081018690527f3d8c223aec0df0c88c5489277b48159462e896649c6ab16501ee8f868458450390606001610fb2565b6000828152600860205260409020548111156124ff57600080fd5b600061250a83611499565b90508181101561252257612522836110358385612db1565b6000838152600f60205260409081902054905163a9059cbb60e01b8152336004820152602481018490526001600160a01b039091169063a9059cbb90604401602060405180830381600087803b15801561257b57600080fd5b505af115801561258f573d6000803e3d6000fd5b505050506040513d601f19601f820116820180604052508101906125b39190612aa1565b506000838152600860205260409020546125ce908390612db1565b600093845260086020526040909320929092555050565b60008281526009602052604090205481111561260057600080fd5b6000828152601060205260409081902054905163285d531160e11b8152600481018390526001600160a01b03909116906350baa62290602401600060405180830381600087803b15801561265357600080fd5b505af1158015612667573d6000803e3d6000fd5b5050506000838152600960205260408120805484935090919061268b908490612db1565b90915550506000828152600a60209081526040808320546008909252909120546126b59190612d5a565b6000838152600960205260409020541115611e4c57600080fd5b600085815260146020908152604080832087905560168252808320859055601582528083208690556017825291829020839055600154825190815290810186905290810184905260608101839052608081018290527f024c023868ae1326921c7f1c4029ca8962335f227458e7515ece46b49775e12d9060a00160405180910390a15050505050565b6000828152600f6020526040908190205490516323b872dd60e01b8152336004820152306024820152604481018390526001600160a01b03909116906323b872dd90606401602060405180830381600087803b1580156127b757600080fd5b505af11580156127cb573d6000803e3d6000fd5b505050506040513d601f19601f820116820180604052508101906127ef9190612aa1565b5060008281526008602052604090205461280a908290612d5a565b600083815260086020526040902055611e4c82826128ba565b60008080831561284f57505060008581526014602090815260408083205460159092529091205461286d565b50506000858152601660209081526040808320546017909252909120545b600061271061287c8489612d92565b6128869190612d72565b905060006127106128978489612d92565b6128a19190612d72565b90506128ad8183612d5a565b9998505050505050505050565b6000828152600f602090815260408083205460109092529182902054915163095ea7b360e01b81526001600160a01b0392831660048201526024810184905291169063095ea7b390604401602060405180830381600087803b15801561291f57600080fd5b505af1158015612933573d6000803e3d6000fd5b505050506040513d601f19601f820116820180604052508101906129579190612aa1565b5060008281526010602052604090819020549051636215be7760e01b8152600481018390526001600160a01b0390911690636215be7790602401600060405180830381600087803b1580156129ab57600080fd5b505af11580156129bf573d6000803e3d6000fd5b5050506000838152600960205260408120805484935090919061268b908490612d5a565b60008083601f8401126129f4578182fd5b50813567ffffffffffffffff811115612a0b578182fd5b602083019150836020828501011115610d5057600080fd5b600060208284031215612a34578081fd5b8135612a3f81612df9565b9392505050565b60008060008060808587031215612a5b578283fd5b8435612a6681612df9565b93506020850135612a7681612df9565b92506040850135612a8681612df9565b91506060850135612a9681612df9565b939692955090935050565b600060208284031215612ab2578081fd5b81518015158114612a3f578182fd5b600060208284031215612ad2578081fd5b8151612a3f81612df9565b600060208284031215612aee578081fd5b5051919050565b600080600080600080600060a0888a031215612b0f578283fd5b873567ffffffffffffffff80821115612b26578485fd5b612b328b838c016129e3565b909950975060208a0135915080821115612b4a578485fd5b50612b578a828b016129e3565b9096509450506040880135612b6b81612df9565b92506060880135612b7b81612df9565b91506080880135612b8b81612df9565b8091505092959891949750929550565b600060208284031215612bac578081fd5b5035919050565b60008060408385031215612bc5578182fd5b50508035926020909101359150565b600080600080600060a08688031215612beb578081fd5b505083359560208501359550604085013594606081013594506080013592509050565b600080600080600080600060e0888a031215612c28578283fd5b505085359760208701359750604087013596606081013596506080810135955060a0810135945060c0013592509050565b60008284528282602086013780602084860101526020601f19601f85011685010190509392505050565b600060608252612c97606083018789612c59565b8281036020840152612caa818688612c59565b91505060018060a01b03831660408301529695505050505050565b60008a825260018060a01b03808b166020840152808a16604084015288606084015260e06080840152612cfc60e08401888a612c59565b83810360a0850152612d0f818789612c59565b92505080841660c0840152509a9950505050505050505050565b95865260208601949094526040850192909252606084015260808301526001600160a01b031660a082015260c00190565b60008219821115612d6d57612d6d612de3565b500190565b600082612d8d57634e487b7160e01b81526012600452602481fd5b500490565b6000816000190483118215151615612dac57612dac612de3565b500290565b600082821015612dc357612dc3612de3565b500390565b6000600019821415612ddc57612ddc612de3565b5060010190565b634e487b7160e01b600052601160045260246000fd5b6001600160a01b03811681146110ed57600080fdfea26469706673582212209179123c179d6bda7260e6cafd19d5740ece8acd7e98a0dded592bf3b85490a464736f6c63430008020033",
  "immutableReferences": {},
  "source": "// SPDX-License-Identifier: MIT\n\npragma solidity 0.8.2;\n\nimport \"hardhat/console.sol\";\nimport \"@openzeppelin/contracts-upgradeable/utils/Initializable.sol\";\nimport \"@chainlink/contracts/src/v0.6/interfaces/AggregatorV3Interface.sol\";\n\nimport \"./TokenFactory.sol\";\nimport \"./SyntheticToken.sol\";\nimport \"./interfaces/IStaker.sol\";\nimport \"./interfaces/ILongShort.sol\";\nimport \"./interfaces/IYieldManager.sol\";\nimport \"./interfaces/IOracleManager.sol\";\n\n/**\n * @dev {LongShort} contract:\n **** visit https://float.capital *****\n *  - Ability for users to create synthetic long and short positions on value movements\n *  - Value movements could be derived from tradional or alternative asset classes, derivates, binary outcomes, etc...\n *  - Incentive mechansim providing fees to liquidity makers (users on both sides of order book)\n */\ncontract LongShort is ILongShort, Initializable {\n    ////////////////////////////////////\n    //////// VARIABLES /////////////////\n    ////////////////////////////////////\n\n    // Global state.\n    address public admin; // This will likely be the Gnosis safe\n    uint256 public latestMarket;\n    mapping(uint256 => bool) public marketExists;\n\n    // Treasury contract that accrued fees and yield are sent to.\n    address public treasury;\n\n    // Factory for dynamically creating synthetic long/short tokens.\n    TokenFactory public tokenFactory;\n\n    // Staker for controlling governance token issuance.\n    IStaker public staker;\n\n    // Fixed-precision constants.\n    uint256 public constant TEN_TO_THE_18 = 10**18;\n    uint256 public constant feeUnitsOfPrecision = 10000;\n\n    // Market state.\n    mapping(uint256 => uint256) public longValue;\n    mapping(uint256 => uint256) public shortValue;\n    mapping(uint256 => uint256) public totalValueLockedInMarket;\n    mapping(uint256 => uint256) public totalValueLockedInYieldManager;\n    mapping(uint256 => uint256) public totalValueReservedForTreasury;\n    mapping(uint256 => uint256) public assetPrice;\n    mapping(uint256 => uint256) public longTokenPrice;\n    mapping(uint256 => uint256) public shortTokenPrice;\n    mapping(uint256 => uint256) public externalContractCounter;\n    mapping(uint256 => IERC20Upgradeable) public fundTokens;\n    mapping(uint256 => IYieldManager) public yieldManagers;\n    mapping(uint256 => IOracleManager) public oracleManagers;\n\n    // Synthetic long/short tokens users can mint and redeem.\n    mapping(uint256 => SyntheticToken) public longTokens;\n    mapping(uint256 => SyntheticToken) public shortTokens;\n\n    // Fees for minting/redeeming long/short tokens. Users are penalised\n    // with extra fees for imbalancing the market.\n    mapping(uint256 => uint256) public baseEntryFee;\n    mapping(uint256 => uint256) public badLiquidityEntryFee;\n    mapping(uint256 => uint256) public baseExitFee;\n    mapping(uint256 => uint256) public badLiquidityExitFee;\n\n    ////////////////////////////////////\n    /////////// EVENTS /////////////////\n    ////////////////////////////////////\n\n    event V1(address admin, address tokenFactory, address staker);\n\n    event ValueLockedInSystem(\n        uint256 marketIndex,\n        uint256 contractCallCounter,\n        uint256 totalValueLockedInMarket,\n        uint256 longValue,\n        uint256 shortValue\n    );\n\n    event TokenPriceRefreshed(\n        uint256 marketIndex,\n        uint256 contractCallCounter,\n        uint256 longTokenPrice,\n        uint256 shortTokenPrice\n    );\n\n    event FeesLevied(\n        uint256 marketIndex,\n        uint256 contractCallCounter,\n        uint256 totalFees\n    );\n\n    event SyntheticTokenCreated(\n        uint256 marketIndex,\n        address longTokenAddress,\n        address shortTokenAddress,\n        uint256 assetPrice,\n        string name,\n        string symbol,\n        address oracleAddress\n    );\n\n    event PriceUpdate(\n        uint256 marketIndex,\n        uint256 contractCallCounter,\n        uint256 oldPrice,\n        uint256 newPrice,\n        address user\n    );\n\n    event LongMinted(\n        uint256 marketIndex,\n        uint256 contractCallCounter,\n        uint256 depositAdded,\n        uint256 finalDepositAmount,\n        uint256 tokensMinted,\n        address user\n    );\n\n    event ShortMinted(\n        uint256 marketIndex,\n        uint256 contractCallCounter,\n        uint256 depositAdded,\n        uint256 finalDepositAmount,\n        uint256 tokensMinted,\n        address user\n    );\n\n    event LongRedeem(\n        uint256 marketIndex,\n        uint256 contractCallCounter,\n        uint256 tokensRedeemed,\n        uint256 valueOfRedemption,\n        uint256 finalRedeemValue,\n        address user\n    );\n\n    event ShortRedeem(\n        uint256 marketIndex,\n        uint256 contractCallCounter,\n        uint256 tokensRedeemed,\n        uint256 valueOfRedemption,\n        uint256 finalRedeemValue,\n        address user\n    );\n\n    event FeesChanges(\n        uint256 marketIndex,\n        uint256 baseEntryFee,\n        uint256 badLiquidityEntryFee,\n        uint256 baseExitFee,\n        uint256 badLiquidityExitFee\n    );\n\n    ////////////////////////////////////\n    /////////// MODIFIERS //////////////\n    ////////////////////////////////////\n\n    /**\n     * Necessary to update system state before any contract actions (deposits / withdraws)\n     */\n\n    modifier adminOnly() {\n        require(msg.sender == admin);\n        _;\n    }\n\n    modifier treasuryOnly() {\n        require(msg.sender == treasury);\n        _;\n    }\n\n    modifier doesMarketExist(uint256 marketIndex) {\n        require(marketExists[marketIndex]);\n        _;\n    }\n\n    modifier refreshSystemState(uint256 marketIndex) {\n        _updateSystemState(marketIndex);\n        _;\n    }\n\n    modifier updateCounterIfExternalCall(uint256 marketIndex) {\n        if (msg.sender != address(this)) {\n            externalContractCounter[marketIndex]++;\n        }\n        _;\n    }\n\n    ////////////////////////////////////\n    ///// CONTRACT SET-UP //////////////\n    ////////////////////////////////////\n\n    function setup(\n        address _admin,\n        address _treasury,\n        address _tokenFactory,\n        address _staker\n    ) public initializer {\n        admin = _admin;\n        treasury = _treasury;\n        tokenFactory = TokenFactory(_tokenFactory);\n        staker = IStaker(_staker);\n\n        emit V1(_admin, _tokenFactory, _staker);\n    }\n\n    ////////////////////////////////////\n    /// MULTISIG ADMIN FUNCTIONS ///////\n    ////////////////////////////////////\n\n    function changeAdmin(address _admin) external adminOnly {\n        admin = _admin;\n    }\n\n    function changeTreasury(address _treasury) external adminOnly {\n        treasury = _treasury;\n    }\n\n    function changeFees(\n        uint256 marketIndex,\n        uint256 _baseEntryFee,\n        uint256 _badLiquidityEntryFee,\n        uint256 _baseExitFee,\n        uint256 _badLiquidityExitFee\n    ) external adminOnly {\n        _changeFees(\n            marketIndex,\n            _baseEntryFee,\n            _baseExitFee,\n            _badLiquidityEntryFee,\n            _badLiquidityExitFee\n        );\n    }\n\n    function _changeFees(\n        uint256 marketIndex,\n        uint256 _baseEntryFee,\n        uint256 _badLiquidityEntryFee,\n        uint256 _baseExitFee,\n        uint256 _badLiquidityExitFee\n    ) internal {\n        baseEntryFee[marketIndex] = _baseEntryFee;\n        baseExitFee[marketIndex] = _baseExitFee;\n        badLiquidityEntryFee[marketIndex] = _badLiquidityEntryFee;\n        badLiquidityExitFee[marketIndex] = _badLiquidityExitFee;\n\n        emit FeesChanges(\n            latestMarket,\n            _baseEntryFee,\n            _badLiquidityEntryFee,\n            _baseExitFee,\n            _badLiquidityExitFee\n        );\n    }\n\n    /**\n     * Creates an entirely new long/short market tracking an underlying\n     * oracle price. Make sure the synthetic names/symbols are unique.\n     */\n    function newSyntheticMarket(\n        string calldata syntheticName,\n        string calldata syntheticSymbol,\n        address _fundToken,\n        address _oracleManager,\n        address _yieldManager\n    ) external adminOnly {\n        latestMarket++;\n\n        // Create new synthetic long token.\n        longTokens[latestMarket] = SyntheticToken(\n            tokenFactory.createTokenLong(\n                syntheticName,\n                syntheticSymbol,\n                address(staker)\n            )\n        );\n\n        // Create new synthetic short token.\n        shortTokens[latestMarket] = SyntheticToken(\n            tokenFactory.createTokenShort(\n                syntheticName,\n                syntheticSymbol,\n                address(staker)\n            )\n        );\n\n        // Initial market state.\n        longTokenPrice[latestMarket] = TEN_TO_THE_18;\n        shortTokenPrice[latestMarket] = TEN_TO_THE_18;\n        fundTokens[latestMarket] = IERC20Upgradeable(_fundToken);\n        yieldManagers[latestMarket] = IYieldManager(_yieldManager);\n        oracleManagers[latestMarket] = IOracleManager(_oracleManager);\n        assetPrice[latestMarket] = uint256(getLatestPrice(latestMarket));\n\n        emit SyntheticTokenCreated(\n            latestMarket,\n            address(longTokens[latestMarket]),\n            address(shortTokens[latestMarket]),\n            assetPrice[latestMarket],\n            syntheticName,\n            syntheticSymbol,\n            _oracleManager\n        );\n    }\n\n    function initializeMarket(\n        uint256 marketIndex,\n        uint256 _baseEntryFee,\n        uint256 _badLiquidityEntryFee,\n        uint256 _baseExitFee,\n        uint256 _badLiquidityExitFee,\n        uint256 kInitialMultiplier,\n        uint256 kPeriod\n    ) external adminOnly {\n        require(!marketExists[marketIndex] && marketIndex <= latestMarket);\n        marketExists[marketIndex] = true;\n\n        _changeFees(\n            marketIndex,\n            _baseEntryFee,\n            _baseExitFee,\n            _badLiquidityEntryFee,\n            _badLiquidityExitFee\n        );\n\n        // Add new staker funds with fresh synthetic tokens.\n        staker.addNewStakingFund(\n            latestMarket,\n            address(longTokens[marketIndex]),\n            address(shortTokens[marketIndex]),\n            kInitialMultiplier,\n            kPeriod\n        );\n    }\n\n    ////////////////////////////////////\n    //////// HELPER FUNCTIONS //////////\n    ////////////////////////////////////\n\n    /**\n     * Returns the latest price\n     */\n    function getLatestPrice(uint256 marketIndex) internal returns (int256) {\n        oracleManagers[marketIndex].updatePrice();\n        return oracleManagers[marketIndex].getLatestPrice();\n    }\n\n    /**\n     * Returns the amount of funds that LongShort can directly transfer.\n     * Funds locked in the yield managers have to be withdrawn first.\n     */\n    function getLiquidFunds(uint256 marketIndex) public view returns (uint256) {\n        return\n            totalValueLockedInMarket[marketIndex] +\n            totalValueReservedForTreasury[marketIndex] -\n            totalValueLockedInYieldManager[marketIndex];\n    }\n\n    /**\n     * Returns % of long position that is filled\n     */\n    function getLongBeta(uint256 marketIndex) public view returns (uint256) {\n        // TODO account for contract start when these are both zero\n        // and an erronous beta of 1 reported.\n        if (shortValue[marketIndex] >= longValue[marketIndex]) {\n            return TEN_TO_THE_18;\n        } else {\n            return\n                (shortValue[marketIndex] * TEN_TO_THE_18) /\n                longValue[marketIndex];\n        }\n    }\n\n    /**\n     * Returns % of short position that is filled\n     * zero div error if both are zero\n     */\n    function getShortBeta(uint256 marketIndex) public view returns (uint256) {\n        if (longValue[marketIndex] >= shortValue[marketIndex]) {\n            return TEN_TO_THE_18;\n        } else {\n            return\n                (longValue[marketIndex] * TEN_TO_THE_18) /\n                shortValue[marketIndex];\n        }\n    }\n\n    /**\n     * Returns the amount of accrued value that should go to the market,\n     * and the amount that should be locked into the treasury. To incentivise\n     * market balance, more value goes to the market in proportion to how\n     * imbalanced it is.\n     */\n    function getTreasurySplit(uint256 marketIndex, uint256 amount)\n        public\n        view\n        returns (uint256 marketAmount, uint256 treasuryAmount)\n    {\n        // Edge case: all goes to market when market is empty.\n        if (totalValueLockedInMarket[marketIndex] == 0) {\n            return (amount, 0);\n        }\n\n        uint256 marketPcnt; // fixed-precision scale of 10000\n        if (longValue[marketIndex] > shortValue[marketIndex]) {\n            marketPcnt =\n                ((longValue[marketIndex] - shortValue[marketIndex]) * 10000) /\n                totalValueLockedInMarket[marketIndex];\n        } else {\n            marketPcnt =\n                ((shortValue[marketIndex] - longValue[marketIndex]) * 10000) /\n                totalValueLockedInMarket[marketIndex];\n        }\n\n        marketAmount = (marketPcnt * amount) / 10000;\n        treasuryAmount = amount - marketAmount;\n        require(amount == marketAmount + treasuryAmount);\n\n        return (marketAmount, treasuryAmount);\n    }\n\n    /**\n     * Returns the amount of accrued value that should go to each side of the\n     * market. To incentivise balance, more value goes to the weaker side in\n     * proportion to how imbalanced the market is.\n     */\n    function getMarketSplit(uint256 marketIndex, uint256 amount)\n        public\n        view\n        returns (uint256 longAmount, uint256 shortAmount)\n    {\n        // Edge case: equal split when market is empty.\n        if (longValue[marketIndex] == 0 && shortValue[marketIndex] == 0) {\n            longAmount = amount / 2;\n            shortAmount = amount - longAmount;\n            return (longAmount, shortAmount);\n        }\n\n        // The percentage value that a position receives depends on the amount\n        // of total market value taken up by the _opposite_ position.\n        uint256 longPcnt =\n            (shortValue[marketIndex] * 10000) /\n                (longValue[marketIndex] + shortValue[marketIndex]);\n\n        longAmount = (amount * longPcnt) / 10000;\n        shortAmount = amount - longAmount;\n        return (longAmount, shortAmount);\n    }\n\n    /**\n     * Adjusts the long/short token prices according to supply and value.\n     */\n    function _refreshTokensPrice(uint256 marketIndex) internal {\n        uint256 longTokenSupply = longTokens[marketIndex].totalSupply();\n        if (longTokenSupply > 0) {\n            longTokenPrice[marketIndex] =\n                (longValue[marketIndex] * TEN_TO_THE_18) /\n                longTokenSupply;\n        }\n\n        uint256 shortTokenSupply = shortTokens[marketIndex].totalSupply();\n        if (shortTokenSupply > 0) {\n            shortTokenPrice[marketIndex] =\n                (shortValue[marketIndex] * TEN_TO_THE_18) /\n                shortTokenSupply;\n        }\n\n        emit TokenPriceRefreshed(\n            marketIndex,\n            externalContractCounter[marketIndex],\n            longTokenPrice[marketIndex],\n            shortTokenPrice[marketIndex]\n        );\n    }\n\n    /**\n     * Controls what happens with mint/redeem fees.\n     */\n    function _feesMechanism(uint256 marketIndex, uint256 totalFees) internal {\n        // Market gets a bigger share if the market is more imbalanced.\n        (uint256 marketAmount, uint256 treasuryAmount) =\n            getTreasurySplit(marketIndex, totalFees);\n\n        // Do a logical transfer from market funds into treasury.\n        totalValueLockedInMarket[marketIndex] -= treasuryAmount;\n        totalValueReservedForTreasury[marketIndex] += treasuryAmount;\n\n        // Splits mostly to the weaker position to incentivise balance.\n        (uint256 longAmount, uint256 shortAmount) =\n            getMarketSplit(marketIndex, marketAmount);\n        longValue[marketIndex] = longValue[marketIndex] + longAmount;\n        shortValue[marketIndex] = shortValue[marketIndex] + shortAmount;\n\n        emit FeesLevied(\n            marketIndex,\n            externalContractCounter[marketIndex],\n            totalFees\n        );\n    }\n\n    /**\n     * Controls what happens with accrued yield manager interest.\n     */\n    function _yieldMechanism(uint256 marketIndex) internal {\n        uint256 amount =\n            yieldManagers[marketIndex].getTotalHeld() -\n                totalValueLockedInYieldManager[marketIndex];\n\n        // Market gets a bigger share if the market is more imbalanced.\n        (uint256 marketAmount, uint256 treasuryAmount) =\n            getTreasurySplit(marketIndex, amount);\n\n        // We keep the interest locked in the yield manager, but update our\n        // bookkeeping to logically simulate moving the funds around.\n        totalValueLockedInYieldManager[marketIndex] += amount;\n        totalValueLockedInMarket[marketIndex] += marketAmount;\n        totalValueReservedForTreasury[marketIndex] += treasuryAmount;\n\n        // Splits mostly to the weaker position to incentivise balance.\n        (uint256 longAmount, uint256 shortAmount) =\n            getMarketSplit(marketIndex, marketAmount);\n        longValue[marketIndex] = longValue[marketIndex] + longAmount;\n        shortValue[marketIndex] = shortValue[marketIndex] + shortAmount;\n    }\n\n    // TODO fix with beta\n    function _priceChangeMechanism(uint256 marketIndex, uint256 newPrice)\n        internal\n    {\n        // If no new price update from oracle, proceed as normal\n        if (assetPrice[marketIndex] == newPrice) {\n            return;\n        }\n        // 100% -> 10**18\n        // 100% -> 1\n        uint256 percentageChange;\n        uint256 valueChange = 0;\n        // Long gains\n        if (newPrice > assetPrice[marketIndex]) {\n            percentageChange =\n                ((newPrice - assetPrice[marketIndex]) * TEN_TO_THE_18) /\n                assetPrice[marketIndex];\n            if (percentageChange >= TEN_TO_THE_18) {\n                // More than 100% price movement, system liquidation.\n                longValue[marketIndex] =\n                    longValue[marketIndex] +\n                    shortValue[marketIndex];\n                shortValue[marketIndex] = 0;\n            } else {\n                if (getShortBeta(marketIndex) == TEN_TO_THE_18) {\n                    valueChange =\n                        (shortValue[marketIndex] * percentageChange) /\n                        TEN_TO_THE_18;\n                } else {\n                    valueChange =\n                        (longValue[marketIndex] * percentageChange) /\n                        TEN_TO_THE_18;\n                }\n                longValue[marketIndex] = longValue[marketIndex] + valueChange;\n                shortValue[marketIndex] = shortValue[marketIndex] - valueChange;\n            }\n        } else {\n            percentageChange =\n                ((assetPrice[marketIndex] - newPrice) * TEN_TO_THE_18) /\n                assetPrice[marketIndex];\n            if (percentageChange >= TEN_TO_THE_18) {\n                shortValue[marketIndex] =\n                    shortValue[marketIndex] +\n                    longValue[marketIndex];\n                longValue[marketIndex] = 0;\n            } else {\n                if (getShortBeta(marketIndex) == TEN_TO_THE_18) {\n                    valueChange =\n                        (shortValue[marketIndex] * percentageChange) /\n                        TEN_TO_THE_18;\n                } else {\n                    valueChange =\n                        (longValue[marketIndex] * percentageChange) /\n                        TEN_TO_THE_18;\n                }\n                longValue[marketIndex] = longValue[marketIndex] - valueChange;\n                shortValue[marketIndex] = shortValue[marketIndex] + valueChange;\n            }\n        }\n    }\n\n    /**\n     * Updates the value of the long and short sides within the system\n     * Note this is public. Anyone can call this function.\n     */\n    function _updateSystemState(uint256 marketIndex)\n        public\n        doesMarketExist(marketIndex)\n        updateCounterIfExternalCall(marketIndex)\n    {\n        // This is called right before any state change!\n        // So reward rate can be calculated just in time by\n        // staker without needing to be saved\n        staker.addNewStateForFloatRewards(\n            address(longTokens[marketIndex]),\n            address(shortTokens[marketIndex]),\n            longTokenPrice[marketIndex],\n            shortTokenPrice[marketIndex],\n            longValue[marketIndex],\n            shortValue[marketIndex]\n        );\n\n        if (longValue[marketIndex] == 0 && shortValue[marketIndex] == 0) {\n            return;\n        }\n\n        // TODO: Check why/if this is bad (casting to uint)\n        // If a negative int is return this should fail.\n        uint256 newPrice = uint256(getLatestPrice(marketIndex));\n        emit PriceUpdate(\n            marketIndex,\n            externalContractCounter[marketIndex],\n            assetPrice[marketIndex],\n            newPrice,\n            msg.sender\n        );\n\n        // Adjusts long and short values based on price movements.\n        if (longValue[marketIndex] > 0 && shortValue[marketIndex] > 0) {\n            _priceChangeMechanism(marketIndex, newPrice);\n        }\n\n        // Distibute accrued yield manager interest.\n        _yieldMechanism(marketIndex);\n\n        _refreshTokensPrice(marketIndex);\n        assetPrice[marketIndex] = newPrice;\n\n        emit ValueLockedInSystem(\n            marketIndex,\n            externalContractCounter[marketIndex],\n            totalValueLockedInMarket[marketIndex],\n            longValue[marketIndex],\n            shortValue[marketIndex]\n        );\n\n        // Invariant: long/short values should never differ from total value.\n        require(\n            longValue[marketIndex] + shortValue[marketIndex] ==\n                totalValueLockedInMarket[marketIndex],\n            \"Total locked inconsistent\"\n        );\n    }\n\n    /*\n     * Locks funds from the sender into the given market.\n     */\n    function _depositFunds(uint256 marketIndex, uint256 amount) internal {\n        fundTokens[marketIndex].transferFrom(msg.sender, address(this), amount);\n\n        // Update global value state.\n        totalValueLockedInMarket[marketIndex] =\n            totalValueLockedInMarket[marketIndex] +\n            amount;\n\n        // Transfer funds to the yield managers.\n        // TODO: we could consider pooling funds in the LongShort contract and\n        // only transferring over some threshold to save on gas. Does kinda\n        // screw users periodically if they transfer right on the threshold.\n        _transferToYieldManager(marketIndex, amount);\n    }\n\n    /*\n     * Returns locked funds from the market to the sender.\n     */\n    function _withdrawFunds(uint256 marketIndex, uint256 amount) internal {\n        require(totalValueLockedInMarket[marketIndex] >= amount);\n\n        // Withdraw requisite funds from the yield managers if necessary.\n        // TODO: we could consider withdrawing more funds than necessary into\n        // a pool, so users don't have to transfer on every call to safe gas.\n        // Again, kinda screws users now and again if they time calls badly.\n        uint256 liquid = getLiquidFunds(marketIndex);\n        if (liquid < amount) {\n            _transferFromYieldManager(marketIndex, amount - liquid);\n        }\n\n        // Transfer funds to the sender.\n        fundTokens[marketIndex].transfer(msg.sender, amount);\n\n        // Update market state.\n        totalValueLockedInMarket[marketIndex] =\n            totalValueLockedInMarket[marketIndex] -\n            amount;\n    }\n\n    /*\n     * Transfers locked funds from LongShort into the yield manager.\n     */\n    function _transferToYieldManager(uint256 marketIndex, uint256 amount)\n        internal\n    {\n        fundTokens[marketIndex].approve(\n            address(yieldManagers[marketIndex]),\n            amount\n        );\n        yieldManagers[marketIndex].depositToken(amount);\n\n        // Update market state.\n        totalValueLockedInYieldManager[marketIndex] += amount;\n\n        // Invariant: yield managers should never have more locked funds\n        // than the combined value of the market and dao funds.\n        require(\n            totalValueLockedInYieldManager[marketIndex] <=\n                totalValueLockedInMarket[marketIndex] +\n                    totalValueReservedForTreasury[marketIndex]\n        );\n    }\n\n    /*\n     * Transfers locked funds from the yield manager into LongShort.\n     */\n    function _transferFromYieldManager(uint256 marketIndex, uint256 amount)\n        internal\n    {\n        require(totalValueLockedInYieldManager[marketIndex] >= amount);\n        yieldManagers[marketIndex].withdrawToken(amount);\n\n        // Update market state.\n        totalValueLockedInYieldManager[marketIndex] -= amount;\n\n        // Invariant: yield managers should never have more locked funds\n        // than the combined value of the market and held treasury funds.\n        require(\n            totalValueLockedInYieldManager[marketIndex] <=\n                totalValueLockedInMarket[marketIndex] +\n                    totalValueReservedForTreasury[marketIndex]\n        );\n    }\n\n    /*\n     * Calculates fees for the given base amount and an additional penalty\n     * amount that extra fees are paid on. Users are penalised for imbalancing\n     * the market.\n     */\n    function _getFeesForAmounts(\n        uint256 marketIndex,\n        uint256 baseAmount, // e18\n        uint256 penaltyAmount, // e18\n        bool isMint // true for mint, false for redeem\n    ) internal view returns (uint256) {\n        uint256 baseRate = 0; // base fee pcnt paid for all actions\n        uint256 penaltyRate = 0; // penalty fee pcnt paid for imbalancing\n\n        if (isMint) {\n            baseRate = baseEntryFee[marketIndex];\n            penaltyRate = badLiquidityEntryFee[marketIndex];\n        } else {\n            baseRate = baseExitFee[marketIndex];\n            penaltyRate = badLiquidityExitFee[marketIndex];\n        }\n\n        uint256 baseFee = (baseAmount * baseRate) / feeUnitsOfPrecision;\n\n        uint256 penaltyFee =\n            (penaltyAmount * penaltyRate) / feeUnitsOfPrecision;\n\n        return baseFee + penaltyFee;\n    }\n\n    /**\n     * Calculates fees for the given mint/redeem amount. Users are penalised\n     * with higher fees for imbalancing the market.\n     */\n    function _getFeesForAction(\n        uint256 marketIndex,\n        uint256 amount, // 1e18\n        bool isMint, // true for mint, false for redeem\n        bool isLong // true for long side, false for short side\n    ) internal view returns (uint256) {\n        uint256 _longValue = longValue[marketIndex];\n        uint256 _shortValue = shortValue[marketIndex];\n\n        // Edge-case: no penalties for minting in a 1-sided market.\n        // TODO: Is this what we want for new markets?\n        if (isMint && (_longValue == 0 || _shortValue == 0)) {\n            return _getFeesForAmounts(marketIndex, amount, 0, isMint);\n        }\n\n        // Compute amount that can be spent before higher fees.\n        uint256 feeGap = 0;\n        bool isLongMintOrShortRedeem = isMint == isLong;\n        if (isLongMintOrShortRedeem) {\n            if (_shortValue > _longValue) {\n                feeGap = _shortValue - _longValue;\n            }\n        } else {\n            if (_longValue > _shortValue) {\n                feeGap = _longValue - _shortValue;\n            }\n        }\n\n        if (feeGap >= amount) {\n            // Case 1: fee gap is big enough that user pays no penalty fees\n            return _getFeesForAmounts(marketIndex, amount, 0, isMint);\n        } else {\n            // Case 2: user pays penalty fees on the remained after fee gap\n            return\n                _getFeesForAmounts(\n                    marketIndex,\n                    amount,\n                    amount - feeGap,\n                    isMint\n                );\n        }\n    }\n\n    ////////////////////////////////////\n    /////////// MINT TOKENS ////////////\n    ////////////////////////////////////\n\n    /**\n     * Create a long position\n     */\n    function mintLong(uint256 marketIndex, uint256 amount)\n        external\n        refreshSystemState(marketIndex)\n    {\n        _mintLong(marketIndex, amount, msg.sender, msg.sender);\n    }\n\n    /**\n     * Creates a short position\n     */\n    function mintShort(uint256 marketIndex, uint256 amount)\n        external\n        refreshSystemState(marketIndex)\n    {\n        _mintShort(marketIndex, amount, msg.sender, msg.sender);\n    }\n\n    /**\n     * Creates a long position and stakes it\n     */\n    function mintLongAndStake(uint256 marketIndex, uint256 amount)\n        external\n        refreshSystemState(marketIndex)\n    {\n        uint256 tokensMinted =\n            _mintLong(marketIndex, amount, msg.sender, address(staker));\n\n        staker.stakeTransferredTokens(\n            address(longTokens[marketIndex]),\n            tokensMinted,\n            msg.sender\n        );\n    }\n\n    /**\n     * Creates a short position and stakes it\n     */\n    function mintShortAndStake(uint256 marketIndex, uint256 amount)\n        external\n        refreshSystemState(marketIndex)\n    {\n        uint256 tokensMinted =\n            _mintShort(marketIndex, amount, msg.sender, address(staker));\n\n        staker.stakeTransferredTokens(\n            address(shortTokens[marketIndex]),\n            tokensMinted,\n            msg.sender\n        );\n    }\n\n    function _mintLong(\n        uint256 marketIndex,\n        uint256 amount,\n        address user,\n        address transferTo\n    ) internal returns (uint256) {\n        // Deposit funds and compute fees.\n        _depositFunds(marketIndex, amount);\n        uint256 fees = _getFeesForAction(marketIndex, amount, true, true);\n        uint256 remaining = amount - fees;\n\n        // Distribute fees across the market.\n        _feesMechanism(marketIndex, fees);\n        _refreshTokensPrice(marketIndex);\n\n        // Mint long tokens with remaining value.\n        uint256 tokens =\n            (remaining * TEN_TO_THE_18) / longTokenPrice[marketIndex];\n        longTokens[marketIndex].mint(transferTo, tokens);\n        longValue[marketIndex] = longValue[marketIndex] + remaining;\n\n        emit LongMinted(\n            marketIndex,\n            externalContractCounter[marketIndex],\n            amount,\n            remaining,\n            tokens,\n            user\n        );\n\n        emit ValueLockedInSystem(\n            marketIndex,\n            externalContractCounter[marketIndex],\n            totalValueLockedInMarket[marketIndex],\n            longValue[marketIndex],\n            shortValue[marketIndex]\n        );\n        return tokens;\n    }\n\n    function _mintShort(\n        uint256 marketIndex,\n        uint256 amount,\n        address user,\n        address transferTo\n    ) internal returns (uint256) {\n        // Deposit funds and compute fees.\n        _depositFunds(marketIndex, amount);\n        uint256 fees = _getFeesForAction(marketIndex, amount, true, false);\n        uint256 remaining = amount - fees;\n\n        // Distribute fees across the market.\n        _feesMechanism(marketIndex, fees);\n        _refreshTokensPrice(marketIndex);\n\n        // Mint short tokens with remaining value.\n        uint256 tokens =\n            (remaining * TEN_TO_THE_18) / shortTokenPrice[marketIndex];\n        shortTokens[marketIndex].mint(transferTo, tokens);\n        shortValue[marketIndex] = shortValue[marketIndex] + remaining;\n\n        emit ShortMinted(\n            marketIndex,\n            externalContractCounter[marketIndex],\n            amount,\n            remaining,\n            tokens,\n            user\n        );\n\n        emit ValueLockedInSystem(\n            marketIndex,\n            externalContractCounter[marketIndex],\n            totalValueLockedInMarket[marketIndex],\n            longValue[marketIndex],\n            shortValue[marketIndex]\n        );\n        return tokens;\n    }\n\n    ////////////////////////////////////\n    /////////// REDEEM TOKENS //////////\n    ////////////////////////////////////\n\n    function redeemLong(uint256 marketIndex, uint256 tokensToRedeem)\n        external\n        override\n        refreshSystemState(marketIndex)\n    {\n        // Burn tokens - will revert unless user gives permission.\n        longTokens[marketIndex].synthRedeemBurn(msg.sender, tokensToRedeem);\n\n        // Compute fees.\n        uint256 amount =\n            (tokensToRedeem * longTokenPrice[marketIndex]) / TEN_TO_THE_18;\n        uint256 fees = _getFeesForAction(marketIndex, amount, false, true);\n        uint256 remaining = amount - fees;\n\n        // Distribute fees across the market.\n        _feesMechanism(marketIndex, fees);\n\n        // Withdraw funds with remaining amount.\n        longValue[marketIndex] = longValue[marketIndex] - amount;\n        _withdrawFunds(marketIndex, remaining);\n        _refreshTokensPrice(marketIndex);\n\n        emit LongRedeem(\n            marketIndex,\n            externalContractCounter[marketIndex],\n            tokensToRedeem,\n            amount,\n            remaining,\n            msg.sender\n        );\n\n        emit ValueLockedInSystem(\n            marketIndex,\n            externalContractCounter[marketIndex],\n            totalValueLockedInMarket[marketIndex],\n            longValue[marketIndex],\n            shortValue[marketIndex]\n        );\n    }\n\n    function redeemShort(uint256 marketIndex, uint256 tokensToRedeem)\n        external\n        override\n        refreshSystemState(marketIndex)\n    {\n        // Burn tokens - will revert unless user gives permission to contract.\n        shortTokens[marketIndex].synthRedeemBurn(msg.sender, tokensToRedeem);\n\n        // Compute fees.\n        uint256 amount =\n            (tokensToRedeem * shortTokenPrice[marketIndex]) / TEN_TO_THE_18;\n        uint256 fees = _getFeesForAction(marketIndex, amount, false, false);\n        uint256 remaining = amount - fees;\n\n        // Distribute fees across the market.\n        _feesMechanism(marketIndex, fees);\n\n        // Withdraw funds with remaining amount.\n        shortValue[marketIndex] = shortValue[marketIndex] - amount;\n        _withdrawFunds(marketIndex, remaining);\n        _refreshTokensPrice(marketIndex);\n\n        emit ShortRedeem(\n            marketIndex,\n            externalContractCounter[marketIndex],\n            tokensToRedeem,\n            amount,\n            remaining,\n            msg.sender\n        );\n\n        emit ValueLockedInSystem(\n            marketIndex,\n            externalContractCounter[marketIndex],\n            totalValueLockedInMarket[marketIndex],\n            longValue[marketIndex],\n            shortValue[marketIndex]\n        );\n    }\n\n    ////////////////////////////////////\n    /////// TREASURY FUNCTIONS /////////\n    ////////////////////////////////////\n\n    /*\n     * Transfers the reserved treasury funds to the treasury contract. This is\n     * done async to avoid putting transfer gas costs on users every time they o\n     * pay fees or accrue yield.\n     *\n     * NOTE: doesn't affect markets, so no state refresh necessary\n     */\n    function transferTreasuryFunds(uint256 marketIndex) external treasuryOnly {\n        // Edge-case: no funds to transfer.\n        if (totalValueReservedForTreasury[marketIndex] == 0) {\n            return;\n        }\n\n        // We may have to withdraw requisite funds from the yield managers.\n        uint256 liquid = getLiquidFunds(marketIndex);\n        if (liquid < totalValueReservedForTreasury[marketIndex]) {\n            _transferFromYieldManager(\n                marketIndex,\n                totalValueReservedForTreasury[marketIndex] - liquid\n            );\n        }\n\n        // Transfer funds to the treasury.\n        fundTokens[marketIndex].transfer(\n            treasury,\n            totalValueReservedForTreasury[marketIndex]\n        );\n\n        // Update global state.\n        totalValueReservedForTreasury[marketIndex] = 0;\n    }\n}\n",
  "sourcePath": "/Users/johanthan/Code/avolabs/longshort/contracts/contracts/LongShort.sol",
  "compiler": {
    "name": "solc",
    "version": "0.8.2+commit.661d1103.Emscripten.clang"
  },
  "schemaVersion": "3.3.4",
  "updatedAt": "2021-03-11T12:36:34.510Z",
  "networkType": "ethereum",
  "devdoc": {
    "details": "{LongShort} contract:**** visit https://float.capital *****  - Ability for users to create synthetic long and short positions on value movements  - Value movements could be derived from tradional or alternative asset classes, derivates, binary outcomes, etc...  - Incentive mechansim providing fees to liquidity makers (users on both sides of order book)",
    "kind": "dev",
    "methods": {},
    "version": 1
  },
  "userdoc": {
    "kind": "user",
    "methods": {
      "_updateSystemState(uint256)": {
        "notice": "Updates the value of the long and short sides within the system Note this is public. Anyone can call this function."
      },
      "changeAdmin(address)": {
        "notice": "MULTISIG ADMIN FUNCTIONS ///////"
      },
      "getLiquidFunds(uint256)": {
        "notice": "Returns the amount of funds that LongShort can directly transfer. Funds locked in the yield managers have to be withdrawn first."
      },
      "getLongBeta(uint256)": {
        "notice": "Returns % of long position that is filled"
      },
      "getMarketSplit(uint256,uint256)": {
        "notice": "Returns the amount of accrued value that should go to each side of the market. To incentivise balance, more value goes to the weaker side in proportion to how imbalanced the market is."
      },
      "getShortBeta(uint256)": {
        "notice": "Returns % of short position that is filled zero div error if both are zero"
      },
      "getTreasurySplit(uint256,uint256)": {
        "notice": "Returns the amount of accrued value that should go to the market, and the amount that should be locked into the treasury. To incentivise market balance, more value goes to the market in proportion to how imbalanced it is."
      },
      "mintLong(uint256,uint256)": {
        "notice": "Create a long position"
      },
      "mintLongAndStake(uint256,uint256)": {
        "notice": "Creates a long position and stakes it"
      },
      "mintShort(uint256,uint256)": {
        "notice": "Creates a short position"
      },
      "mintShortAndStake(uint256,uint256)": {
        "notice": "Creates a short position and stakes it"
      },
      "newSyntheticMarket(string,string,address,address,address)": {
        "notice": "Creates an entirely new long/short market tracking an underlying oracle price. Make sure the synthetic names/symbols are unique."
      }
    },
    "version": 1
  }
}