{
  "contractName": "LongShort",
  "abi": [
    {
      "anonymous": false,
      "inputs": [
        {
          "indexed": false,
          "internalType": "uint32",
          "name": "marketIndex",
          "type": "uint32"
        },
        {
          "indexed": false,
          "internalType": "uint256",
          "name": "baseEntryFee",
          "type": "uint256"
        },
        {
          "indexed": false,
          "internalType": "uint256",
          "name": "badLiquidityEntryFee",
          "type": "uint256"
        },
        {
          "indexed": false,
          "internalType": "uint256",
          "name": "baseExitFee",
          "type": "uint256"
        },
        {
          "indexed": false,
          "internalType": "uint256",
          "name": "badLiquidityExitFee",
          "type": "uint256"
        }
      ],
      "name": "FeesChanges",
      "type": "event"
    },
    {
      "anonymous": false,
      "inputs": [
        {
          "indexed": false,
          "internalType": "uint32",
          "name": "marketIndex",
          "type": "uint32"
        },
        {
          "indexed": false,
          "internalType": "uint256",
          "name": "totalFees",
          "type": "uint256"
        }
      ],
      "name": "FeesLevied",
      "type": "event"
    },
    {
      "anonymous": false,
      "inputs": [
        {
          "indexed": false,
          "internalType": "uint32",
          "name": "marketIndex",
          "type": "uint32"
        },
        {
          "indexed": false,
          "internalType": "uint256",
          "name": "depositAdded",
          "type": "uint256"
        },
        {
          "indexed": false,
          "internalType": "uint256",
          "name": "finalDepositAmount",
          "type": "uint256"
        },
        {
          "indexed": false,
          "internalType": "uint256",
          "name": "tokensMinted",
          "type": "uint256"
        },
        {
          "indexed": false,
          "internalType": "address",
          "name": "user",
          "type": "address"
        }
      ],
      "name": "LongMinted",
      "type": "event"
    },
    {
      "anonymous": false,
      "inputs": [
        {
          "indexed": false,
          "internalType": "uint32",
          "name": "marketIndex",
          "type": "uint32"
        },
        {
          "indexed": false,
          "internalType": "uint256",
          "name": "tokensRedeemed",
          "type": "uint256"
        },
        {
          "indexed": false,
          "internalType": "uint256",
          "name": "valueOfRedemption",
          "type": "uint256"
        },
        {
          "indexed": false,
          "internalType": "uint256",
          "name": "finalRedeemValue",
          "type": "uint256"
        },
        {
          "indexed": false,
          "internalType": "address",
          "name": "user",
          "type": "address"
        }
      ],
      "name": "LongRedeem",
      "type": "event"
    },
    {
      "anonymous": false,
      "inputs": [
        {
          "indexed": false,
          "internalType": "uint32",
          "name": "marketIndex",
          "type": "uint32"
        },
        {
          "indexed": false,
          "internalType": "address",
          "name": "oldOracleAddress",
          "type": "address"
        },
        {
          "indexed": false,
          "internalType": "address",
          "name": "newOracleAddress",
          "type": "address"
        }
      ],
      "name": "OracleUpdated",
      "type": "event"
    },
    {
      "anonymous": false,
      "inputs": [
        {
          "indexed": false,
          "internalType": "uint32",
          "name": "marketIndex",
          "type": "uint32"
        },
        {
          "indexed": false,
          "internalType": "uint256",
          "name": "oldPrice",
          "type": "uint256"
        },
        {
          "indexed": false,
          "internalType": "uint256",
          "name": "newPrice",
          "type": "uint256"
        },
        {
          "indexed": false,
          "internalType": "address",
          "name": "user",
          "type": "address"
        }
      ],
      "name": "PriceUpdate",
      "type": "event"
    },
    {
      "anonymous": false,
      "inputs": [
        {
          "indexed": false,
          "internalType": "uint32",
          "name": "marketIndex",
          "type": "uint32"
        },
        {
          "indexed": false,
          "internalType": "uint256",
          "name": "depositAdded",
          "type": "uint256"
        },
        {
          "indexed": false,
          "internalType": "uint256",
          "name": "finalDepositAmount",
          "type": "uint256"
        },
        {
          "indexed": false,
          "internalType": "uint256",
          "name": "tokensMinted",
          "type": "uint256"
        },
        {
          "indexed": false,
          "internalType": "address",
          "name": "user",
          "type": "address"
        }
      ],
      "name": "ShortMinted",
      "type": "event"
    },
    {
      "anonymous": false,
      "inputs": [
        {
          "indexed": false,
          "internalType": "uint32",
          "name": "marketIndex",
          "type": "uint32"
        },
        {
          "indexed": false,
          "internalType": "uint256",
          "name": "tokensRedeemed",
          "type": "uint256"
        },
        {
          "indexed": false,
          "internalType": "uint256",
          "name": "valueOfRedemption",
          "type": "uint256"
        },
        {
          "indexed": false,
          "internalType": "uint256",
          "name": "finalRedeemValue",
          "type": "uint256"
        },
        {
          "indexed": false,
          "internalType": "address",
          "name": "user",
          "type": "address"
        }
      ],
      "name": "ShortRedeem",
      "type": "event"
    },
    {
      "anonymous": false,
      "inputs": [
        {
          "indexed": false,
          "internalType": "uint32",
          "name": "marketIndex",
          "type": "uint32"
        },
        {
          "indexed": false,
          "internalType": "address",
          "name": "longTokenAddress",
          "type": "address"
        },
        {
          "indexed": false,
          "internalType": "address",
          "name": "shortTokenAddress",
          "type": "address"
        },
        {
          "indexed": false,
          "internalType": "address",
          "name": "fundToken",
          "type": "address"
        },
        {
          "indexed": false,
          "internalType": "uint256",
          "name": "assetPrice",
          "type": "uint256"
        },
        {
          "indexed": false,
          "internalType": "string",
          "name": "name",
          "type": "string"
        },
        {
          "indexed": false,
          "internalType": "string",
          "name": "symbol",
          "type": "string"
        },
        {
          "indexed": false,
          "internalType": "address",
          "name": "oracleAddress",
          "type": "address"
        }
      ],
      "name": "SyntheticTokenCreated",
      "type": "event"
    },
    {
      "anonymous": false,
      "inputs": [
        {
          "indexed": false,
          "internalType": "uint32",
          "name": "marketIndex",
          "type": "uint32"
        },
        {
          "indexed": false,
          "internalType": "uint256",
          "name": "longTokenPrice",
          "type": "uint256"
        },
        {
          "indexed": false,
          "internalType": "uint256",
          "name": "shortTokenPrice",
          "type": "uint256"
        }
      ],
      "name": "TokenPriceRefreshed",
      "type": "event"
    },
    {
      "anonymous": false,
      "inputs": [
        {
          "indexed": false,
          "internalType": "address",
          "name": "admin",
          "type": "address"
        },
        {
          "indexed": false,
          "internalType": "address",
          "name": "treasury",
          "type": "address"
        },
        {
          "indexed": false,
          "internalType": "address",
          "name": "tokenFactory",
          "type": "address"
        },
        {
          "indexed": false,
          "internalType": "address",
          "name": "staker",
          "type": "address"
        }
      ],
      "name": "V1",
      "type": "event"
    },
    {
      "anonymous": false,
      "inputs": [
        {
          "indexed": false,
          "internalType": "uint32",
          "name": "marketIndex",
          "type": "uint32"
        },
        {
          "indexed": false,
          "internalType": "uint256",
          "name": "totalValueLockedInMarket",
          "type": "uint256"
        },
        {
          "indexed": false,
          "internalType": "uint256",
          "name": "longValue",
          "type": "uint256"
        },
        {
          "indexed": false,
          "internalType": "uint256",
          "name": "shortValue",
          "type": "uint256"
        }
      ],
      "name": "ValueLockedInSystem",
      "type": "event"
    },
    {
      "inputs": [],
      "name": "TEN_TO_THE_18",
      "outputs": [
        {
          "internalType": "uint256",
          "name": "",
          "type": "uint256"
        }
      ],
      "stateMutability": "view",
      "type": "function",
      "constant": true
    },
    {
      "inputs": [],
      "name": "admin",
      "outputs": [
        {
          "internalType": "address",
          "name": "",
          "type": "address"
        }
      ],
      "stateMutability": "view",
      "type": "function",
      "constant": true
    },
    {
      "inputs": [
        {
          "internalType": "uint32",
          "name": "",
          "type": "uint32"
        }
      ],
      "name": "assetPrice",
      "outputs": [
        {
          "internalType": "uint256",
          "name": "",
          "type": "uint256"
        }
      ],
      "stateMutability": "view",
      "type": "function",
      "constant": true
    },
    {
      "inputs": [
        {
          "internalType": "uint32",
          "name": "",
          "type": "uint32"
        }
      ],
      "name": "badLiquidityEntryFee",
      "outputs": [
        {
          "internalType": "uint256",
          "name": "",
          "type": "uint256"
        }
      ],
      "stateMutability": "view",
      "type": "function",
      "constant": true
    },
    {
      "inputs": [
        {
          "internalType": "uint32",
          "name": "",
          "type": "uint32"
        }
      ],
      "name": "badLiquidityExitFee",
      "outputs": [
        {
          "internalType": "uint256",
          "name": "",
          "type": "uint256"
        }
      ],
      "stateMutability": "view",
      "type": "function",
      "constant": true
    },
    {
      "inputs": [
        {
          "internalType": "uint32",
          "name": "",
          "type": "uint32"
        }
      ],
      "name": "baseEntryFee",
      "outputs": [
        {
          "internalType": "uint256",
          "name": "",
          "type": "uint256"
        }
      ],
      "stateMutability": "view",
      "type": "function",
      "constant": true
    },
    {
      "inputs": [
        {
          "internalType": "uint32",
          "name": "",
          "type": "uint32"
        }
      ],
      "name": "baseExitFee",
      "outputs": [
        {
          "internalType": "uint256",
          "name": "",
          "type": "uint256"
        }
      ],
      "stateMutability": "view",
      "type": "function",
      "constant": true
    },
    {
      "inputs": [],
      "name": "feeUnitsOfPrecision",
      "outputs": [
        {
          "internalType": "uint256",
          "name": "",
          "type": "uint256"
        }
      ],
      "stateMutability": "view",
      "type": "function",
      "constant": true
    },
    {
      "inputs": [
        {
          "internalType": "uint32",
          "name": "",
          "type": "uint32"
        }
      ],
      "name": "fundTokens",
      "outputs": [
        {
          "internalType": "contract IERC20",
          "name": "",
          "type": "address"
        }
      ],
      "stateMutability": "view",
      "type": "function",
      "constant": true
    },
    {
      "inputs": [],
      "name": "latestMarket",
      "outputs": [
        {
          "internalType": "uint32",
          "name": "",
          "type": "uint32"
        }
      ],
      "stateMutability": "view",
      "type": "function",
      "constant": true
    },
    {
      "inputs": [
        {
          "internalType": "uint32",
          "name": "",
          "type": "uint32"
        }
      ],
      "name": "longTokenPrice",
      "outputs": [
        {
          "internalType": "uint256",
          "name": "",
          "type": "uint256"
        }
      ],
      "stateMutability": "view",
      "type": "function",
      "constant": true
    },
    {
      "inputs": [
        {
          "internalType": "uint32",
          "name": "",
          "type": "uint32"
        }
      ],
      "name": "longTokens",
      "outputs": [
        {
          "internalType": "contract ISyntheticToken",
          "name": "",
          "type": "address"
        }
      ],
      "stateMutability": "view",
      "type": "function",
      "constant": true
    },
    {
      "inputs": [
        {
          "internalType": "uint32",
          "name": "",
          "type": "uint32"
        }
      ],
      "name": "longValue",
      "outputs": [
        {
          "internalType": "uint256",
          "name": "",
          "type": "uint256"
        }
      ],
      "stateMutability": "view",
      "type": "function",
      "constant": true
    },
    {
      "inputs": [
        {
          "internalType": "uint32",
          "name": "",
          "type": "uint32"
        }
      ],
      "name": "marketExists",
      "outputs": [
        {
          "internalType": "bool",
          "name": "",
          "type": "bool"
        }
      ],
      "stateMutability": "view",
      "type": "function",
      "constant": true
    },
    {
      "inputs": [
        {
          "internalType": "uint32",
          "name": "",
          "type": "uint32"
        }
      ],
      "name": "oracleManagers",
      "outputs": [
        {
          "internalType": "contract IOracleManager",
          "name": "",
          "type": "address"
        }
      ],
      "stateMutability": "view",
      "type": "function",
      "constant": true
    },
    {
      "inputs": [
        {
          "internalType": "uint32",
          "name": "",
          "type": "uint32"
        }
      ],
      "name": "shortTokenPrice",
      "outputs": [
        {
          "internalType": "uint256",
          "name": "",
          "type": "uint256"
        }
      ],
      "stateMutability": "view",
      "type": "function",
      "constant": true
    },
    {
      "inputs": [
        {
          "internalType": "uint32",
          "name": "",
          "type": "uint32"
        }
      ],
      "name": "shortTokens",
      "outputs": [
        {
          "internalType": "contract ISyntheticToken",
          "name": "",
          "type": "address"
        }
      ],
      "stateMutability": "view",
      "type": "function",
      "constant": true
    },
    {
      "inputs": [
        {
          "internalType": "uint32",
          "name": "",
          "type": "uint32"
        }
      ],
      "name": "shortValue",
      "outputs": [
        {
          "internalType": "uint256",
          "name": "",
          "type": "uint256"
        }
      ],
      "stateMutability": "view",
      "type": "function",
      "constant": true
    },
    {
      "inputs": [],
      "name": "staker",
      "outputs": [
        {
          "internalType": "contract IStaker",
          "name": "",
          "type": "address"
        }
      ],
      "stateMutability": "view",
      "type": "function",
      "constant": true
    },
    {
      "inputs": [],
      "name": "tokenFactory",
      "outputs": [
        {
          "internalType": "contract ITokenFactory",
          "name": "",
          "type": "address"
        }
      ],
      "stateMutability": "view",
      "type": "function",
      "constant": true
    },
    {
      "inputs": [
        {
          "internalType": "uint32",
          "name": "",
          "type": "uint32"
        }
      ],
      "name": "totalValueLockedInMarket",
      "outputs": [
        {
          "internalType": "uint256",
          "name": "",
          "type": "uint256"
        }
      ],
      "stateMutability": "view",
      "type": "function",
      "constant": true
    },
    {
      "inputs": [
        {
          "internalType": "uint32",
          "name": "",
          "type": "uint32"
        }
      ],
      "name": "totalValueLockedInYieldManager",
      "outputs": [
        {
          "internalType": "uint256",
          "name": "",
          "type": "uint256"
        }
      ],
      "stateMutability": "view",
      "type": "function",
      "constant": true
    },
    {
      "inputs": [
        {
          "internalType": "uint32",
          "name": "",
          "type": "uint32"
        }
      ],
      "name": "totalValueReservedForTreasury",
      "outputs": [
        {
          "internalType": "uint256",
          "name": "",
          "type": "uint256"
        }
      ],
      "stateMutability": "view",
      "type": "function",
      "constant": true
    },
    {
      "inputs": [],
      "name": "treasury",
      "outputs": [
        {
          "internalType": "address",
          "name": "",
          "type": "address"
        }
      ],
      "stateMutability": "view",
      "type": "function",
      "constant": true
    },
    {
      "inputs": [
        {
          "internalType": "uint32",
          "name": "",
          "type": "uint32"
        }
      ],
      "name": "yieldManagers",
      "outputs": [
        {
          "internalType": "contract IYieldManager",
          "name": "",
          "type": "address"
        }
      ],
      "stateMutability": "view",
      "type": "function",
      "constant": true
    },
    {
      "inputs": [
        {
          "internalType": "address",
          "name": "_admin",
          "type": "address"
        },
        {
          "internalType": "address",
          "name": "_treasury",
          "type": "address"
        },
        {
          "internalType": "contract ITokenFactory",
          "name": "_tokenFactory",
          "type": "address"
        },
        {
          "internalType": "contract IStaker",
          "name": "_staker",
          "type": "address"
        }
      ],
      "name": "initialize",
      "outputs": [],
      "stateMutability": "nonpayable",
      "type": "function"
    },
    {
      "inputs": [
        {
          "internalType": "address",
          "name": "_admin",
          "type": "address"
        }
      ],
      "name": "changeAdmin",
      "outputs": [],
      "stateMutability": "nonpayable",
      "type": "function"
    },
    {
      "inputs": [
        {
          "internalType": "address",
          "name": "_treasury",
          "type": "address"
        }
      ],
      "name": "changeTreasury",
      "outputs": [],
      "stateMutability": "nonpayable",
      "type": "function"
    },
    {
      "inputs": [
        {
          "internalType": "uint32",
          "name": "marketIndex",
          "type": "uint32"
        },
        {
          "internalType": "uint256",
          "name": "_baseEntryFee",
          "type": "uint256"
        },
        {
          "internalType": "uint256",
          "name": "_badLiquidityEntryFee",
          "type": "uint256"
        },
        {
          "internalType": "uint256",
          "name": "_baseExitFee",
          "type": "uint256"
        },
        {
          "internalType": "uint256",
          "name": "_badLiquidityExitFee",
          "type": "uint256"
        }
      ],
      "name": "changeFees",
      "outputs": [],
      "stateMutability": "nonpayable",
      "type": "function"
    },
    {
      "inputs": [
        {
          "internalType": "uint32",
          "name": "marketIndex",
          "type": "uint32"
        },
        {
          "internalType": "address",
          "name": "_newOracleManager",
          "type": "address"
        }
      ],
      "name": "updateMarketOracle",
      "outputs": [],
      "stateMutability": "nonpayable",
      "type": "function"
    },
    {
      "inputs": [
        {
          "internalType": "string",
          "name": "syntheticName",
          "type": "string"
        },
        {
          "internalType": "string",
          "name": "syntheticSymbol",
          "type": "string"
        },
        {
          "internalType": "address",
          "name": "_fundToken",
          "type": "address"
        },
        {
          "internalType": "address",
          "name": "_oracleManager",
          "type": "address"
        },
        {
          "internalType": "address",
          "name": "_yieldManager",
          "type": "address"
        }
      ],
      "name": "newSyntheticMarket",
      "outputs": [],
      "stateMutability": "nonpayable",
      "type": "function"
    },
    {
      "inputs": [
        {
          "internalType": "uint32",
          "name": "marketIndex",
          "type": "uint32"
        },
        {
          "internalType": "uint256",
          "name": "_baseEntryFee",
          "type": "uint256"
        },
        {
          "internalType": "uint256",
          "name": "_badLiquidityEntryFee",
          "type": "uint256"
        },
        {
          "internalType": "uint256",
          "name": "_baseExitFee",
          "type": "uint256"
        },
        {
          "internalType": "uint256",
          "name": "_badLiquidityExitFee",
          "type": "uint256"
        },
        {
          "internalType": "uint256",
          "name": "kInitialMultiplier",
          "type": "uint256"
        },
        {
          "internalType": "uint256",
          "name": "kPeriod",
          "type": "uint256"
        }
      ],
      "name": "initializeMarket",
      "outputs": [],
      "stateMutability": "nonpayable",
      "type": "function"
    },
    {
      "inputs": [
        {
          "internalType": "uint32",
          "name": "marketIndex",
          "type": "uint32"
        }
      ],
      "name": "getLongBeta",
      "outputs": [
        {
          "internalType": "uint256",
          "name": "",
          "type": "uint256"
        }
      ],
      "stateMutability": "view",
      "type": "function",
      "constant": true
    },
    {
      "inputs": [
        {
          "internalType": "uint32",
          "name": "marketIndex",
          "type": "uint32"
        }
      ],
      "name": "getShortBeta",
      "outputs": [
        {
          "internalType": "uint256",
          "name": "",
          "type": "uint256"
        }
      ],
      "stateMutability": "view",
      "type": "function",
      "constant": true
    },
    {
      "inputs": [
        {
          "internalType": "uint32",
          "name": "marketIndex",
          "type": "uint32"
        },
        {
          "internalType": "uint256",
          "name": "amount",
          "type": "uint256"
        }
      ],
      "name": "getTreasurySplit",
      "outputs": [
        {
          "internalType": "uint256",
          "name": "marketAmount",
          "type": "uint256"
        },
        {
          "internalType": "uint256",
          "name": "treasuryAmount",
          "type": "uint256"
        }
      ],
      "stateMutability": "view",
      "type": "function",
      "constant": true
    },
    {
      "inputs": [
        {
          "internalType": "uint32",
          "name": "marketIndex",
          "type": "uint32"
        },
        {
          "internalType": "uint256",
          "name": "amount",
          "type": "uint256"
        }
      ],
      "name": "getMarketSplit",
      "outputs": [
        {
          "internalType": "uint256",
          "name": "longAmount",
          "type": "uint256"
        },
        {
          "internalType": "uint256",
          "name": "shortAmount",
          "type": "uint256"
        }
      ],
      "stateMutability": "view",
      "type": "function",
      "constant": true
    },
    {
      "inputs": [
        {
          "internalType": "uint32",
          "name": "marketIndex",
          "type": "uint32"
        }
      ],
      "name": "_updateSystemState",
      "outputs": [],
      "stateMutability": "nonpayable",
      "type": "function"
    },
    {
      "inputs": [
        {
          "internalType": "uint32[]",
          "name": "marketIndexes",
          "type": "uint32[]"
        }
      ],
      "name": "_updateSystemStateMulti",
      "outputs": [],
      "stateMutability": "nonpayable",
      "type": "function"
    },
    {
      "inputs": [
        {
          "internalType": "uint32",
          "name": "marketIndex",
          "type": "uint32"
        },
        {
          "internalType": "uint256",
          "name": "amount",
          "type": "uint256"
        }
      ],
      "name": "mintLong",
      "outputs": [],
      "stateMutability": "nonpayable",
      "type": "function"
    },
    {
      "inputs": [
        {
          "internalType": "uint32",
          "name": "marketIndex",
          "type": "uint32"
        },
        {
          "internalType": "uint256",
          "name": "amount",
          "type": "uint256"
        }
      ],
      "name": "mintShort",
      "outputs": [],
      "stateMutability": "nonpayable",
      "type": "function"
    },
    {
      "inputs": [
        {
          "internalType": "uint32",
          "name": "marketIndex",
          "type": "uint32"
        },
        {
          "internalType": "uint256",
          "name": "amount",
          "type": "uint256"
        }
      ],
      "name": "mintLongAndStake",
      "outputs": [],
      "stateMutability": "nonpayable",
      "type": "function"
    },
    {
      "inputs": [
        {
          "internalType": "uint32",
          "name": "marketIndex",
          "type": "uint32"
        },
        {
          "internalType": "uint256",
          "name": "amount",
          "type": "uint256"
        }
      ],
      "name": "mintShortAndStake",
      "outputs": [],
      "stateMutability": "nonpayable",
      "type": "function"
    },
    {
      "inputs": [
        {
          "internalType": "uint32",
          "name": "marketIndex",
          "type": "uint32"
        },
        {
          "internalType": "uint256",
          "name": "tokensToRedeem",
          "type": "uint256"
        }
      ],
      "name": "redeemLong",
      "outputs": [],
      "stateMutability": "nonpayable",
      "type": "function"
    },
    {
      "inputs": [
        {
          "internalType": "uint32",
          "name": "marketIndex",
          "type": "uint32"
        }
      ],
      "name": "redeemLongAll",
      "outputs": [],
      "stateMutability": "nonpayable",
      "type": "function"
    },
    {
      "inputs": [
        {
          "internalType": "uint32",
          "name": "marketIndex",
          "type": "uint32"
        },
        {
          "internalType": "uint256",
          "name": "tokensToRedeem",
          "type": "uint256"
        }
      ],
      "name": "redeemShort",
      "outputs": [],
      "stateMutability": "nonpayable",
      "type": "function"
    },
    {
      "inputs": [
        {
          "internalType": "uint32",
          "name": "marketIndex",
          "type": "uint32"
        }
      ],
      "name": "redeemShortAll",
      "outputs": [],
      "stateMutability": "nonpayable",
      "type": "function"
    },
    {
      "inputs": [
        {
          "internalType": "uint32",
          "name": "marketIndex",
          "type": "uint32"
        }
      ],
      "name": "transferTreasuryFunds",
      "outputs": [],
      "stateMutability": "nonpayable",
      "type": "function"
    },
    {
      "inputs": [
        {
          "internalType": "uint32",
          "name": "marketIndex",
          "type": "uint32"
        },
        {
          "internalType": "uint256",
          "name": "amount",
          "type": "uint256"
        }
      ],
      "name": "mintLongLazy",
      "outputs": [],
      "stateMutability": "nonpayable",
      "type": "function"
    },
    {
      "inputs": [
        {
          "internalType": "uint32",
          "name": "marketIndex",
          "type": "uint32"
        },
        {
          "internalType": "uint256",
          "name": "amount",
          "type": "uint256"
        }
      ],
      "name": "mintShortLazy",
      "outputs": [],
      "stateMutability": "nonpayable",
      "type": "function"
    },
    {
      "inputs": [
        {
          "internalType": "uint32",
          "name": "marketIndex",
          "type": "uint32"
        },
        {
          "internalType": "uint256",
          "name": "amount",
          "type": "uint256"
        }
      ],
      "name": "mintLongAndStakeLazy",
      "outputs": [],
      "stateMutability": "nonpayable",
      "type": "function"
    },
    {
      "inputs": [
        {
          "internalType": "uint32",
          "name": "marketIndex",
          "type": "uint32"
        },
        {
          "internalType": "uint256",
          "name": "amount",
          "type": "uint256"
        }
      ],
      "name": "mintShortAndStakeLazy",
      "outputs": [],
      "stateMutability": "nonpayable",
      "type": "function"
    }
  ],
  "bytecode": "0x608060405234801561001057600080fd5b506134c0806100206000396000f3fe608060405234801561001057600080fd5b50600436106102f15760003560e01c80638bb8bdb21161019d578063d0bf44a8116100e9578063e45761f1116100a2578063edafcf681161007c578063edafcf68146107b6578063f851a440146107d6578063f8c8765e146107ef578063facd8c0f14610802576102f1565b8063e45761f114610767578063e77772fe14610790578063eb108540146107a3576102f1565b8063d0bf44a8146106d2578063d2d2ef76146106f2578063d47540bc14610701578063d4898f1f14610714578063d8d3ded114610734578063de89c0cd14610747576102f1565b8063b03b214211610156578063b36f537411610130578063b36f537414610666578063b41d869314610699578063b5a2d604146106ac578063b6a0fa45146106bf576102f1565b8063b03b214214610620578063b14f2a3914610633578063b2bdc96814610646576102f1565b80638bb8bdb21461059e5780638f283970146105b15780639136b250146103f05780639c5b0ee3146105c4578063a71f2b47146105ed578063aab576a61461060d576102f1565b80635c5b1fbb1161025c5780636473a138116102155780636e513265116101ef5780636e513265146105585780637203a9251461056b5780637f43d31c146103f05780638900bdfa1461057e576102f1565b80636473a1381461050957806364d16f531461053257806365ac9f2b14610545576102f1565b80635c5b1fbb1461045b5780635ebaf1db14610484578063606996ff1461049757806361d027b3146104b757806362c415d9146104ca578063636190c8146104dd576102f1565b80632cbf458d116102ae5780632cbf458d146103e7578063314bfaf6146103f057806354fae135146104025780635520dc3614610415578063555e1349146104285780635b9ebb9e14610448576102f1565b8063026747fc146102f6578063049e86b414610329578063115c3f1a146103495780631badf5c01461036957806326a584aa146103aa57806327685d0d146103d2575b600080fd5b610316610304366004613168565b60c66020526000908152604090205481565b6040519081526020015b60405180910390f35b610316610337366004613168565b60656020526000908152604090205481565b610316610357366004613168565b60666020526000908152604090205481565b610392610377366004613168565b6069602052600090815260409020546001600160a01b031681565b6040516001600160a01b039091168152602001610320565b6103bd6103b83660046131b8565b610815565b60408051928352602083019190915201610320565b6103e56103e03660046131b8565b610942565b005b61031661271081565b6103e56103fe3660046131b8565b5050565b6103e5610410366004613168565b61094c565b6103e56104233660046131e1565b6109e6565b610316610436366004613168565b605f6020526000908152604090205481565b610316610456366004613168565b610a33565b610392610469366004613168565b6067602052600090815260409020546001600160a01b031681565b600454610392906001600160a01b031681565b6103166104a5366004613168565b60616020526000908152604090205481565b600254610392906001600160a01b031681565b6103e56104d83660046131b8565b610aaf565b6000546104f490600160b01b900463ffffffff1681565b60405163ffffffff9091168152602001610320565b610392610517366004613168565b6098602052600090815260409020546001600160a01b031681565b6103e5610540366004613182565b610b68565b6103e56105533660046131b8565b610c15565b6103e56105663660046131b8565b610c31565b6103e5610579366004613222565b610cdc565b61031661058c366004613168565b60646020526000908152604090205481565b6103166105ac366004613168565b610e32565b6103e56105bf366004612f80565b610e9c565b6103926105d2366004613168565b6068602052600090815260409020546001600160a01b031681565b6103166105fb366004613168565b60626020526000908152604090205481565b6103e561061b3660046131b8565b610ef6565b6103e561062e366004613168565b610f7b565b6103e5610641366004612f80565b610f87565b610316610654366004613168565b60c86020526000908152604090205481565b610689610674366004613168565b60016020526000908152604090205460ff1681565b6040519015158152602001610320565b6103e56106a73660046131b8565b610fd9565b6103e56106ba366004613168565b610fe3565b6103e56106cd3660046131b8565b61107d565b6103166106e0366004613168565b60636020526000908152604090205481565b610316670de0b6b3a764000081565b6103e561070f3660046130c2565b611093565b610316610722366004613168565b60c76020526000908152604090205481565b6103e5610742366004612ffe565b6113bf565b610316610755366004613168565b60c96020526000908152604090205481565b610392610775366004613168565b6097602052600090815260409020546001600160a01b031681565b600354610392906001600160a01b031681565b6103bd6107b13660046131b8565b61141e565b6103166107c4366004613168565b60606020526000908152604090205481565b600054610392906201000090046001600160a01b031681565b6103e56107fd366004612fa3565b6114ff565b6103e5610810366004613168565b61165b565b63ffffffff8216600090815260616020526040812054819061083c5750819050600061093b565b63ffffffff8416600090815260606020908152604080832054605f90925282205411156108b35763ffffffff85166000908152606160209081526040808320546060835281842054605f9093529220546108969190613409565b6108a2906127106133ea565b6108ac91906133ca565b90506108ff565b63ffffffff8516600090815260616020908152604080832054605f83528184205460609093529220546108e69190613409565b6108f2906127106133ea565b6108fc91906133ca565b90505b61271061090c85836133ea565b61091691906133ca565b92506109228385613409565b915061092e82846133b2565b841461093957600080fd5b505b9250929050565b6103fe82826117a5565b63ffffffff81166000908152609860205260408082205490516370a0823160e01b81523360048201526001600160a01b03909116906370a082319060240160206040518083038186803b1580156109a257600080fd5b505afa1580156109b6573d6000803e3d6000fd5b505050506040513d601f19601f820116820180604052508101906109da91906130aa565b90506103fe8282611985565b6000546201000090046001600160a01b03163314610a1f5760405162461bcd60e51b8152600401610a16906132e0565b60405180910390fd5b610a2c8585848685611ae7565b5050505050565b63ffffffff8116600090815260606020908152604080832054605f90925282205410610a685750670de0b6b3a7640000610aaa565b63ffffffff8216600090815260606020908152604080832054605f90925290912054610a9d90670de0b6b3a7640000906133ea565b610aa791906133ca565b90505b919050565b81610ab981611b7e565b600454600090610ad7908590859033906001600160a01b0316611ebf565b6004805463ffffffff871660009081526097602052604090819020549051637e430ab360e11b81526001600160a01b039182169381019390935260248301849052336044840152929350919091169063fc861566906064015b600060405180830381600087803b158015610b4a57600080fd5b505af1158015610b5e573d6000803e3d6000fd5b5050505050505050565b6000546201000090046001600160a01b03163314610b985760405162461bcd60e51b8152600401610a16906132e0565b63ffffffff821660008181526069602090815260409182902080546001600160a01b038681166001600160a01b03198316811790935584519586521691840182905291830191909152907ffc4d69f373858d480cfc3f12e7cc7f9b12201291753ffc3babef0e7a8041979f906060015b60405180910390a1505050565b81610c1f81611b7e565b610c2b83833333611ebf565b50505050565b63ffffffff8216600090815260cc602052604081208054839290610c569084906133b2565b909155505063ffffffff8216600090815260ce6020908152604080832033845290915281206001018054839290610c8e9084906133b2565b909155505063ffffffff8216600090815260ca6020526040902054610cb49060016133b2565b63ffffffff909216600090815260ce6020908152604080832033845290915290209190915550565b6000546201000090046001600160a01b03163314610d0c5760405162461bcd60e51b8152600401610a16906132e0565b63ffffffff871660009081526001602052604090205460ff16158015610d45575060005463ffffffff600160b01b909104811690881611155b610d4e57600080fd5b63ffffffff87166000908152600160208190526040909120805460ff19169091179055610d7e8787868887611ae7565b600480546000805463ffffffff8b811683526097602090815260408085205460989092529384902054935163ebe6ca9d60e01b8152600160b01b909304909116948201949094526001600160a01b0393841660248201529083166044820152606481018590526084810184905291169063ebe6ca9d9060a401600060405180830381600087803b158015610e1157600080fd5b505af1158015610e25573d6000803e3d6000fd5b5050505050505050505050565b63ffffffff81166000908152605f6020908152604080832054606090925282205410610e675750670de0b6b3a7640000610aaa565b63ffffffff82166000908152605f6020908152604080832054606090925290912054610a9d90670de0b6b3a7640000906133ea565b6000546201000090046001600160a01b03163314610ecc5760405162461bcd60e51b8152600401610a16906132e0565b600080546001600160a01b03909216620100000262010000600160b01b0319909216919091179055565b81610f0081611b7e565b600454600090610f1e908590859033906001600160a01b031661209c565b6004805463ffffffff871660009081526098602052604090819020549051637e430ab360e11b81526001600160a01b039182169381019390935260248301849052336044840152929350919091169063fc86156690606401610b30565b610f8481611b7e565b50565b6000546201000090046001600160a01b03163314610fb75760405162461bcd60e51b8152600401610a16906132e0565b600280546001600160a01b0319166001600160a01b0392909216919091179055565b6103fe8282611985565b63ffffffff81166000908152609760205260408082205490516370a0823160e01b81523360048201526001600160a01b03909116906370a082319060240160206040518083038186803b15801561103957600080fd5b505afa15801561104d573d6000803e3d6000fd5b505050506040513d601f19601f8201168201806040525081019061107191906130aa565b90506103fe82826117a5565b8161108781611b7e565b610c2b8383333361209c565b6000546201000090046001600160a01b031633146110c35760405162461bcd60e51b8152600401610a16906132e0565b60008054600160b01b900463ffffffff169060166110e08361343b565b825463ffffffff9182166101009390930a928302919092021990911617905550600354600480546040516315f297c760e21b81526001600160a01b03938416936357ca5f1c9361113c938d938d938d938d93909116910161329e565b602060405180830381600087803b15801561115657600080fd5b505af115801561116a573d6000803e3d6000fd5b505050506040513d601f19601f8201168201806040525081019061118e919061308e565b60008054600160b01b900463ffffffff168152609760205260409081902080546001600160a01b0319166001600160a01b0393841617905560035460048054925163cfc6808960e01b81529184169363cfc68089936111f8938d938d938d938d939116910161329e565b602060405180830381600087803b15801561121257600080fd5b505af1158015611226573d6000803e3d6000fd5b505050506040513d601f19601f8201168201806040525081019061124a919061308e565b60008054600160b01b9081900463ffffffff908116835260986020908152604080852080546001600160a01b03199081166001600160a01b039889161790915585548590048416865260658352818620670de0b6b3a764000090819055865486900485168752606684528287205585548590048416865260678352818620805482168b8916179055855485900484168652606883528186208054821689891617905585548590048416865260699092528420805490911694871694909417909355905461131a92919004166121fb565b6000805463ffffffff600160b01b9182900481168352606460208181526040808620969096558454939093049091168084526097835284842054609884528585205492909352928490205493517f01d45c422ec27e66f2a01f895833c12169c58817ba9eb3b4d8e2fda86959d99f946113ae94936001600160a01b039081169316918991908e908e908e908e908d90613304565b60405180910390a150505050505050565b60005b81811015611419576114078383838181106113ed57634e487b7160e01b600052603260045260246000fd5b90506020020160208101906114029190613168565b611b7e565b8061141181613420565b9150506113c2565b505050565b63ffffffff82166000908152605f60205260408120548190158015611456575063ffffffff8416600090815260606020526040902054155b15611479576114666002846133ca565b91506114728284613409565b905061093b565b63ffffffff8416600090815260606020908152604080832054605f9092528220546114a491906133b2565b63ffffffff86166000908152606060205260409020546114c6906127106133ea565b6114d091906133ca565b90506127106114df82866133ea565b6114e991906133ca565b92506114f58385613409565b9150509250929050565b600054610100900460ff1680611518575060005460ff16155b61157b5760405162461bcd60e51b815260206004820152602e60248201527f496e697469616c697a61626c653a20636f6e747261637420697320616c72656160448201526d191e481a5b9a5d1a585b1a5e995960921b6064820152608401610a16565b600054610100900460ff1615801561159d576000805461ffff19166101011790555b6000805462010000600160b01b031916620100006001600160a01b0388811691820292909217909255600280546001600160a01b0319908116888416908117909255600380548216888516908117909155600480549092169387169384179091556040805194855260208501929092529083015260608201527fa9f3221832df6af126767c0e7fe3b550b0a97a07ed205459eefd4bbe29158b719060800160405180910390a18015610a2c576000805461ff00191690555050505050565b6002546001600160a01b031633146116a55760405162461bcd60e51b815260206004820152600d60248201526c6f6e6c7920747265617375727960981b6044820152606401610a16565b63ffffffff81166000908152606360205260409020546116c457610f84565b63ffffffff81166000908152606360205260409020546116e5908290612288565b63ffffffff811660009081526067602090815260408083205460025460639093529281902054905163a9059cbb60e01b81526001600160a01b039283166004820152602481019190915291169063a9059cbb90604401602060405180830381600087803b15801561175557600080fd5b505af1158015611769573d6000803e3d6000fd5b505050506040513d601f19601f8201168201806040525081019061178d919061306e565b5063ffffffff16600090815260636020526040812055565b816117af81611b7e565b63ffffffff83166000908152609760205260409081902054905163319920a160e11b8152336004820152602481018490526001600160a01b0390911690636332414290604401600060405180830381600087803b15801561180f57600080fd5b505af1158015611823573d6000803e3d6000fd5b5050505063ffffffff8316600090815260656020526040812054670de0b6b3a76400009061185190856133ea565b61185b91906133ca565b9050600061186d858360006001612393565b9050600061187b8284613409565b90506118878683612454565b63ffffffff86166000908152605f60205260409020546118a8908490613409565b63ffffffff87166000908152605f60205260409020556118c8868261256b565b6118d18661266e565b7f2ed9d787cbbed07bcc869a30444f24de6e79f4b6be3f9494ca8870e406ebbe31868685843360405161190895949392919061337e565b60405180910390a163ffffffff8616600081815260616020908152604080832054605f8352818420546060808552948390205483519687529386019190915290840152908201527f55b867eafd3a5bb583d0c262b914e900c0fa21c2ffc34e64f80acf4c9c0ae4f9906080015b60405180910390a1505050505050565b8161198f81611b7e565b63ffffffff83166000908152609860205260409081902054905163319920a160e11b8152336004820152602481018490526001600160a01b0390911690636332414290604401600060405180830381600087803b1580156119ef57600080fd5b505af1158015611a03573d6000803e3d6000fd5b5050505063ffffffff8316600090815260666020526040812054670de0b6b3a764000090611a3190856133ea565b611a3b91906133ca565b90506000611a4c8583600080612393565b90506000611a5a8284613409565b9050611a668683612454565b63ffffffff8616600090815260606020526040902054611a87908490613409565b63ffffffff8716600090815260606020526040902055611aa7868261256b565b611ab08661266e565b7f25db59f9d3d5f0f489db65252ea79a52f9d334aa222fb44fa61fa90a57b1c834868685843360405161190895949392919061337e565b63ffffffff858116600090815260c66020908152604080832088905560c8825280832086905560c7825280832087905560c9825280832085905591548251600160b01b90910490931683528201869052810184905260608101839052608081018290527f9334feae13767655a4683b8e764f47a7359c96684bdafb8c41cc6f2edcf1e6779060a00160405180910390a15050505050565b63ffffffff8116600090815260016020526040902054819060ff16611bdc5760405162461bcd60e51b81526020600482015260146024820152731b585c9ad95d08191bd95cdb89dd08195e1a5cdd60621b6044820152606401610a16565b6004805463ffffffff84166000818152606560209081526040808320546066835281842054605f84528285205460609094529382902054915163368e71f760e11b81529687019490945260248601939093526044850191909152606484015260848301526001600160a01b031690636d1ce3ee9060a401600060405180830381600087803b158015611c6d57600080fd5b505af1158015611c81573d6000803e3d6000fd5b5050505063ffffffff82166000908152605f6020526040902054158015611cbb575063ffffffff8216600090815260606020526040902054155b15611cc5576103fe565b6000611cd0836121fb565b63ffffffff84166000818152606460209081526040918290205482519384529083015281018290523360608201529091507fd71bf4c0282ba3f822633c7855d997e3e0dd859f876d8e5cd9b65317c86dda849060800160405180910390a163ffffffff83166000908152605f602052604081205415801590611d66575063ffffffff841660009081526060602052604090205415155b15611d7857611d75848361288a565b90505b611d8184612a23565b611d8a8461266e565b8015611e075763ffffffff8416600090815260646020908152604080832085905560ca909152812054611dbe9060016133b2565b63ffffffff8616600081815260ca6020908152604080832085905560cb825280832094835293815283822092825260658152838220548355606690529190912054600190910155505b63ffffffff8416600081815260616020908152604080832054605f835281842054606080855294839020548351968752938601919091528482015291830152517f55b867eafd3a5bb583d0c262b914e900c0fa21c2ffc34e64f80acf4c9c0ae4f99181900360800190a163ffffffff84166000908152606160209081526040808320546060835281842054605f909352922054611ea491906133b2565b14610c2b57634e487b7160e01b600052600160045260246000fd5b6000611ecb8585612bdb565b6000611eda8686600180612393565b90506000611ee88287613409565b9050611ef48783612454565b611efd8761266e565b63ffffffff8716600090815260656020526040812054611f25670de0b6b3a7640000846133ea565b611f2f91906133ca565b63ffffffff8916600090815260976020526040908190205490516340c10f1960e01b81526001600160a01b038881166004830152602482018490529293509116906340c10f1990604401600060405180830381600087803b158015611f9357600080fd5b505af1158015611fa7573d6000803e3d6000fd5b50505063ffffffff89166000908152605f6020526040902054611fcc915083906133b2565b63ffffffff89166000908152605f60205260409081902091909155517f784eb098718e58a0436a9596a504ebeb3e000c104dbea447639180c3ed9493329061201d908a908a90869086908c9061337e565b60405180910390a163ffffffff8816600081815260616020908152604080832054605f835281842054606080855294839020548351968752938601919091528482015291830152517f55b867eafd3a5bb583d0c262b914e900c0fa21c2ffc34e64f80acf4c9c0ae4f99181900360800190a1925050505b949350505050565b60006120a88585612bdb565b60006120b8868660016000612393565b905060006120c68287613409565b90506120d28783612454565b6120db8761266e565b63ffffffff8716600090815260666020526040812054612103670de0b6b3a7640000846133ea565b61210d91906133ca565b63ffffffff8916600090815260986020526040908190205490516340c10f1960e01b81526001600160a01b038881166004830152602482018490529293509116906340c10f1990604401600060405180830381600087803b15801561217157600080fd5b505af1158015612185573d6000803e3d6000fd5b50505063ffffffff89166000908152606060205260409020546121aa915083906133b2565b63ffffffff89166000908152606060205260409081902091909155517fc2e574e390824ef5895503841737437301c9304c928c00b86f83d423162b0f4b9061201d908a908a90869086908c9061337e565b63ffffffff81166000908152606960209081526040808320548151630ce74fc560e31b815291516001600160a01b039091169263673a7e28926004808201939182900301818787803b15801561225057600080fd5b505af1158015612264573d6000803e3d6000fd5b505050506040513d601f19601f82011682018060405250810190610aa791906130aa565b63ffffffff82166000908152606260205260409020548111156122aa57600080fd5b63ffffffff82166000908152606860205260409081902054905163285d531160e11b8152600481018390526001600160a01b03909116906350baa62290602401600060405180830381600087803b15801561230457600080fd5b505af1158015612318573d6000803e3d6000fd5b5050505063ffffffff821660009081526062602052604081208054839290612341908490613409565b909155505063ffffffff821660009081526063602090815260408083205460619092529091205461237291906133b2565b63ffffffff831660009081526062602052604090205411156103fe57600080fd5b63ffffffff84166000908152605f602090815260408083205460609092528220548480156123c757508115806123c7575080155b156123e2576123d98787600088612cbb565b92505050612094565b600085151585151514801561240b5783831115612406576124038484613409565b91505b612420565b828411156124205761241d8385613409565b91505b87821061243f57612434898960008a612cbb565b945050505050612094565b612434898961244e8582613409565b8a612cbb565b6000806124618484610815565b63ffffffff861660009081526061602052604081208054939550919350839261248b908490613409565b909155505063ffffffff8416600090815260636020526040812080548392906124b59084906133b2565b9091555060009050806124c8868561141e565b63ffffffff88166000908152605f602052604090205491935091506124ee9083906133b2565b63ffffffff87166000908152605f602090815260408083209390935560609052205461251b9082906133b2565b63ffffffff87166000818152606060209081526040918290209390935580519182529181018790527f3c7f623ed306a9aa1b122c12a685441429e8fd6e0ea2f05bfd48971e813c1e1a9101611975565b63ffffffff821660009081526061602052604090205481111561258d57600080fd5b6125978282612288565b63ffffffff82166000908152606760205260409081902054905163a9059cbb60e01b8152336004820152602481018390526001600160a01b039091169063a9059cbb90604401602060405180830381600087803b1580156125f757600080fd5b505af115801561260b573d6000803e3d6000fd5b505050506040513d601f19601f8201168201806040525081019061262f919061306e565b5063ffffffff8216600090815260616020526040902054612651908290613409565b63ffffffff90921660009081526061602052604090209190915550565b63ffffffff811660009081526097602090815260408083205481516318160ddd60e01b815291516001600160a01b03909116926318160ddd9260048082019391829003018186803b1580156126c257600080fd5b505afa1580156126d6573d6000803e3d6000fd5b505050506040513d601f19601f820116820180604052508101906126fa91906130aa565b9050801561274e5763ffffffff82166000908152605f6020526040902054819061272d90670de0b6b3a7640000906133ea565b61273791906133ca565b63ffffffff83166000908152606560205260409020555b63ffffffff821660009081526098602090815260408083205481516318160ddd60e01b815291516001600160a01b03909116926318160ddd9260048082019391829003018186803b1580156127a257600080fd5b505afa1580156127b6573d6000803e3d6000fd5b505050506040513d601f19601f820116820180604052508101906127da91906130aa565b9050801561282e5763ffffffff8316600090815260606020526040902054819061280d90670de0b6b3a7640000906133ea565b61281791906133ca565b63ffffffff84166000908152606660205260409020555b63ffffffff8316600081815260656020908152604080832054606683529281902054815194855291840192909252908201527f7a64be79521c8048166c160645af5117404a4067d16932c6cda3dcc83958269590606001610c08565b63ffffffff82166000908152606460205260408120548214156128af57506000612a1d565b63ffffffff83166000908152605f6020908152604080832054606090925282205482916128db91612d60565b63ffffffff861660009081526064602052604090205490915084111561298b5763ffffffff851660009081526064602052604090205461291f908690869084612d78565b63ffffffff86166000908152605f60205260409020549092506129439083906133b2565b63ffffffff86166000908152605f6020908152604080832093909355606090522054612970908390613409565b63ffffffff8616600090815260606020526040902055612a16565b63ffffffff85166000908152606460205260409020546129ae9086908684612d78565b63ffffffff86166000908152605f60205260409020549092506129d2908390613409565b63ffffffff86166000908152605f60209081526040808320939093556060905220546129ff9083906133b2565b63ffffffff86166000908152606060205260409020555b6001925050505b92915050565b63ffffffff811660009081526062602090815260408083205460688352818420548251638fb9801760e01b8152925191936001600160a01b0390911692638fb98017926004808301939282900301818887803b158015612a8257600080fd5b505af1158015612a96573d6000803e3d6000fd5b505050506040513d601f19601f82011682018060405250810190612aba91906130aa565b612ac49190613409565b905080156103fe57600080612ad98484610815565b63ffffffff8616600090815260626020526040812080549395509193508592612b039084906133b2565b909155505063ffffffff841660009081526061602052604081208054849290612b2d9084906133b2565b909155505063ffffffff841660009081526063602052604081208054839290612b579084906133b2565b909155506000905080612b6a868561141e565b63ffffffff88166000908152605f60205260409020549193509150612b909083906133b2565b63ffffffff87166000908152605f6020908152604080832093909355606090522054612bbd9082906133b2565b63ffffffff8716600090815260606020526040902055505050505050565b63ffffffff8216600090815260676020526040908190205490516323b872dd60e01b8152336004820152306024820152604481018390526001600160a01b03909116906323b872dd90606401602060405180830381600087803b158015612c4157600080fd5b505af1158015612c55573d6000803e3d6000fd5b505050506040513d601f19601f82011682018060405250810190612c79919061306e565b5063ffffffff8216600090815260616020526040902054612c9b9082906133b2565b63ffffffff83166000908152606160205260409020556103fe8282612df0565b600080808315612cee57505063ffffffff8516600090815260c6602090815260408083205460c790925290912054612d13565b505063ffffffff8516600090815260c8602090815260408083205460c9909252909120545b6000612710612d2284896133ea565b612d2c91906133ca565b90506000612710612d3d84896133ea565b612d4791906133ca565b9050612d5381836133b2565b9998505050505050505050565b600081831015612d71575081612a1d565b5080612a1d565b63ffffffff841660009081526064602052604081205481908190670de0b6b3a7640000612da58789613409565b612daf91906133ea565b612db991906133ca565b9050670de0b6b3a7640000612dce82866133ea565b612dd891906133ca565b915083821115612de6578391505b5095945050505050565b63ffffffff821660009081526067602090815260408083205460689092529182902054915163095ea7b360e01b81526001600160a01b0392831660048201526024810184905291169063095ea7b390604401602060405180830381600087803b158015612e5c57600080fd5b505af1158015612e70573d6000803e3d6000fd5b505050506040513d601f19601f82011682018060405250810190612e94919061306e565b5063ffffffff821660009081526068602052604090819020549051636215be7760e01b8152600481018390526001600160a01b0390911690636215be7790602401600060405180830381600087803b158015612eef57600080fd5b505af1158015612f03573d6000803e3d6000fd5b5050505063ffffffff8216600090815260626020526040812080548392906123419084906133b2565b60008083601f840112612f3d578182fd5b50813567ffffffffffffffff811115612f54578182fd5b60208301915083602082850101111561093b57600080fd5b803563ffffffff81168114610aaa57600080fd5b600060208284031215612f91578081fd5b8135612f9c81613475565b9392505050565b60008060008060808587031215612fb8578283fd5b8435612fc381613475565b93506020850135612fd381613475565b92506040850135612fe381613475565b91506060850135612ff381613475565b939692955090935050565b60008060208385031215613010578182fd5b823567ffffffffffffffff80821115613027578384fd5b818501915085601f83011261303a578384fd5b813581811115613048578485fd5b8660208260051b850101111561305c578485fd5b60209290920196919550909350505050565b60006020828403121561307f578081fd5b81518015158114612f9c578182fd5b60006020828403121561309f578081fd5b8151612f9c81613475565b6000602082840312156130bb578081fd5b5051919050565b600080600080600080600060a0888a0312156130dc578283fd5b873567ffffffffffffffff808211156130f3578485fd5b6130ff8b838c01612f2c565b909950975060208a0135915080821115613117578485fd5b506131248a828b01612f2c565b909650945050604088013561313881613475565b9250606088013561314881613475565b9150608088013561315881613475565b8091505092959891949750929550565b600060208284031215613179578081fd5b612f9c82612f6c565b60008060408385031215613194578182fd5b61319d83612f6c565b915060208301356131ad81613475565b809150509250929050565b600080604083850312156131ca578182fd5b6131d383612f6c565b946020939093013593505050565b600080600080600060a086880312156131f8578081fd5b61320186612f6c565b97602087013597506040870135966060810135965060800135945092505050565b600080600080600080600060e0888a03121561323c578081fd5b61324588612f6c565b9960208901359950604089013598606081013598506080810135975060a0810135965060c00135945092505050565b60008284528282602086013780602084860101526020601f19601f85011685010190509392505050565b6000606082526132b2606083018789613274565b82810360208401526132c5818688613274565b91505060018060a01b03831660408301529695505050505050565b6020808252600a908201526937b7363c9030b236b4b760b11b604082015260600190565b63ffffffff8b1681526001600160a01b038a81166020830152898116604083015288811660608301526080820188905261010060a0830181905260009161334e848301898b613274565b915083820360c0850152613363828789613274565b925080851660e085015250509b9a5050505050505050505050565b63ffffffff9590951685526020850193909352604084019190915260608301526001600160a01b0316608082015260a00190565b600082198211156133c5576133c561345f565b500190565b6000826133e557634e487b7160e01b81526012600452602481fd5b500490565b60008160001904831182151516156134045761340461345f565b500290565b60008282101561341b5761341b61345f565b500390565b60006000198214156134345761343461345f565b5060010190565b600063ffffffff808316818114156134555761345561345f565b6001019392505050565b634e487b7160e01b600052601160045260246000fd5b6001600160a01b0381168114610f8457600080fdfea2646970667358221220f9728c4677e6384a558443cc60b99cbf7785ec5d0f56666425ef314f821be8c964736f6c63430008030033",
  "immutableReferences": {},
  "source": "// SPDX-License-Identifier: BUSL-1.1\n\npragma solidity 0.8.3;\n\nimport \"hardhat/console.sol\";\nimport \"@openzeppelin/contracts-upgradeable/proxy/utils/Initializable.sol\";\nimport \"@openzeppelin/contracts/token/ERC20/IERC20.sol\";\nimport \"@chainlink/contracts/src/v0.6/interfaces/AggregatorV3Interface.sol\";\n\nimport \"./interfaces/ITokenFactory.sol\";\nimport \"./interfaces/ISyntheticToken.sol\";\nimport \"./interfaces/IStaker.sol\";\nimport \"./interfaces/ILongShort.sol\";\nimport \"./interfaces/IYieldManager.sol\";\nimport \"./interfaces/IOracleManager.sol\";\n\n/**\n * @dev {LongShort} contract:\n **** visit https://float.capital *****\n *  - Ability for users to create synthetic long and short positions on value movements\n *  - Value movements could be derived from tradional or alternative asset classes, derivates, binary outcomes, etc...\n *  - Incentive mechansim providing fees to liquidity makers (users on both sides of order book)\n */\ncontract LongShort is ILongShort, Initializable {\n    ////////////////////////////////////\n    //////// VARIABLES /////////////////\n    ////////////////////////////////////\n\n    // Global state.\n    address public admin; // This will likely be the Gnosis safe\n    uint32 public latestMarket;\n    mapping(uint32 => bool) public marketExists;\n\n    // Treasury contract that accrued fees and yield are sent to.\n    address public treasury;\n\n    // Factory for dynamically creating synthetic long/short tokens.\n    ITokenFactory public tokenFactory;\n\n    // Staker for controlling governance token issuance.\n    IStaker public staker;\n    uint256[45] private __globalStateGap;\n\n    // Fixed-precision constants.\n    uint256 public constant TEN_TO_THE_18 = 10**18;\n    uint256 public constant feeUnitsOfPrecision = 10000;\n    uint256[45] private __constantsGap;\n\n    // Market state.\n    mapping(uint32 => uint256) public longValue;\n    mapping(uint32 => uint256) public shortValue;\n    mapping(uint32 => uint256) public totalValueLockedInMarket;\n    mapping(uint32 => uint256) public totalValueLockedInYieldManager;\n    mapping(uint32 => uint256) public totalValueReservedForTreasury;\n    mapping(uint32 => uint256) public assetPrice;\n    mapping(uint32 => uint256) public longTokenPrice; // NOTE: cannot deprecate this value and use the marketStateSnapshot values instead since these values change inbetween assetPrice updates (when yield is collected)\n    mapping(uint32 => uint256) public shortTokenPrice; // NOTE: cannot deprecate this value and use the marketStateSnapshot values instead since these values change inbetween assetPrice updates (when yield is collected)\n    mapping(uint32 => IERC20) public fundTokens;\n    mapping(uint32 => IYieldManager) public yieldManagers;\n    mapping(uint32 => IOracleManager) public oracleManagers;\n    uint256[45] private __marketStateGap;\n\n    // Synthetic long/short tokens users can mint and redeem.\n    mapping(uint32 => ISyntheticToken) public longTokens;\n    mapping(uint32 => ISyntheticToken) public shortTokens;\n    uint256[45] private __marketSynthsGap;\n\n    // Fees for minting/redeeming long/short tokens. Users are penalised\n    // with extra fees for imbalancing the market.\n    mapping(uint32 => uint256) public baseEntryFee;\n    mapping(uint32 => uint256) public badLiquidityEntryFee;\n    mapping(uint32 => uint256) public baseExitFee;\n    mapping(uint32 => uint256) public badLiquidityExitFee;\n\n    ////////////////////////////////////\n    /////////// EVENTS /////////////////\n    ////////////////////////////////////\n\n    event V1(\n        address admin,\n        address treasury,\n        address tokenFactory,\n        address staker\n    );\n\n    event ValueLockedInSystem(\n        uint32 marketIndex,\n        uint256 totalValueLockedInMarket,\n        uint256 longValue,\n        uint256 shortValue\n    );\n\n    event TokenPriceRefreshed(\n        uint32 marketIndex,\n        uint256 longTokenPrice,\n        uint256 shortTokenPrice\n    );\n\n    event FeesLevied(uint32 marketIndex, uint256 totalFees);\n\n    event SyntheticTokenCreated(\n        uint32 marketIndex,\n        address longTokenAddress,\n        address shortTokenAddress,\n        address fundToken,\n        uint256 assetPrice,\n        string name,\n        string symbol,\n        address oracleAddress\n    );\n\n    event PriceUpdate(\n        uint32 marketIndex,\n        uint256 oldPrice,\n        uint256 newPrice,\n        address user\n    );\n\n    event LongMinted(\n        uint32 marketIndex,\n        uint256 depositAdded,\n        uint256 finalDepositAmount,\n        uint256 tokensMinted,\n        address user\n    );\n\n    event ShortMinted(\n        uint32 marketIndex,\n        uint256 depositAdded,\n        uint256 finalDepositAmount,\n        uint256 tokensMinted,\n        address user\n    );\n\n    event LongRedeem(\n        uint32 marketIndex,\n        uint256 tokensRedeemed,\n        uint256 valueOfRedemption,\n        uint256 finalRedeemValue,\n        address user\n    );\n\n    event ShortRedeem(\n        uint32 marketIndex,\n        uint256 tokensRedeemed,\n        uint256 valueOfRedemption,\n        uint256 finalRedeemValue,\n        address user\n    );\n\n    event FeesChanges(\n        uint32 marketIndex,\n        uint256 baseEntryFee,\n        uint256 badLiquidityEntryFee,\n        uint256 baseExitFee,\n        uint256 badLiquidityExitFee\n    );\n\n    event OracleUpdated(\n        uint32 marketIndex,\n        address oldOracleAddress,\n        address newOracleAddress\n    );\n\n    ////////////////////////////////////\n    /////////// MODIFIERS //////////////\n    ////////////////////////////////////\n\n    /**\n     * Necessary to update system state before any contract actions (deposits / withdraws)\n     */\n\n    modifier adminOnly() {\n        require(msg.sender == admin, \"only admin\");\n        _;\n    }\n\n    modifier treasuryOnly() {\n        require(msg.sender == treasury, \"only treasury\");\n        _;\n    }\n\n    modifier doesMarketExist(uint32 marketIndex) {\n        require(marketExists[marketIndex], \"market doesn't exist\");\n        _;\n    }\n\n    modifier refreshSystemState(uint32 marketIndex) {\n        _updateSystemStateInternal(marketIndex);\n        _;\n    }\n\n    ////////////////////////////////////\n    ///// CONTRACT SET-UP //////////////\n    ////////////////////////////////////\n\n    function initialize(\n        address _admin,\n        address _treasury,\n        ITokenFactory _tokenFactory,\n        IStaker _staker\n    ) public initializer {\n        admin = _admin;\n        treasury = _treasury;\n        tokenFactory = _tokenFactory;\n        staker = _staker;\n\n        emit V1(\n            _admin,\n            address(treasury),\n            address(_tokenFactory),\n            address(_staker)\n        );\n    }\n\n    ////////////////////////////////////\n    /// MULTISIG ADMIN FUNCTIONS ///////\n    ////////////////////////////////////\n\n    function changeAdmin(address _admin) external adminOnly {\n        admin = _admin;\n    }\n\n    function changeTreasury(address _treasury) external adminOnly {\n        treasury = _treasury;\n    }\n\n    function changeFees(\n        uint32 marketIndex,\n        uint256 _baseEntryFee,\n        uint256 _badLiquidityEntryFee,\n        uint256 _baseExitFee,\n        uint256 _badLiquidityExitFee\n    ) external adminOnly {\n        _changeFees(\n            marketIndex,\n            _baseEntryFee,\n            _baseExitFee,\n            _badLiquidityEntryFee,\n            _badLiquidityExitFee\n        );\n    }\n\n    function _changeFees(\n        uint32 marketIndex,\n        uint256 _baseEntryFee,\n        uint256 _badLiquidityEntryFee,\n        uint256 _baseExitFee,\n        uint256 _badLiquidityExitFee\n    ) internal {\n        baseEntryFee[marketIndex] = _baseEntryFee;\n        baseExitFee[marketIndex] = _baseExitFee;\n        badLiquidityEntryFee[marketIndex] = _badLiquidityEntryFee;\n        badLiquidityExitFee[marketIndex] = _badLiquidityExitFee;\n\n        emit FeesChanges(\n            latestMarket,\n            _baseEntryFee,\n            _badLiquidityEntryFee,\n            _baseExitFee,\n            _badLiquidityExitFee\n        );\n    }\n\n    /**\n     * Update oracle for a market\n     */\n    function updateMarketOracle(uint32 marketIndex, address _newOracleManager)\n        external\n        adminOnly\n    {\n        // If not a oracle contract this would break things.. Test's arn't validating this\n        // Ie require isOracle interface - ERC165\n        address previousOracleManager = address(oracleManagers[marketIndex]);\n        oracleManagers[marketIndex] = IOracleManager(_newOracleManager);\n        emit OracleUpdated(\n            marketIndex,\n            previousOracleManager,\n            _newOracleManager\n        );\n    }\n\n    /**\n     * Creates an entirely new long/short market tracking an underlying\n     * oracle price. Make sure the synthetic names/symbols are unique.\n     */\n    function newSyntheticMarket(\n        string calldata syntheticName,\n        string calldata syntheticSymbol,\n        address _fundToken,\n        address _oracleManager,\n        address _yieldManager\n    ) external adminOnly {\n        latestMarket++;\n\n        // Create new synthetic long token.\n        longTokens[latestMarket] = ISyntheticToken(\n            tokenFactory.createTokenLong(\n                syntheticName,\n                syntheticSymbol,\n                address(staker)\n            )\n        );\n\n        // Create new synthetic short token.\n        shortTokens[latestMarket] = ISyntheticToken(\n            tokenFactory.createTokenShort(\n                syntheticName,\n                syntheticSymbol,\n                address(staker)\n            )\n        );\n\n        // Initial market state.\n        longTokenPrice[latestMarket] = TEN_TO_THE_18;\n        shortTokenPrice[latestMarket] = TEN_TO_THE_18;\n        fundTokens[latestMarket] = IERC20(_fundToken);\n        yieldManagers[latestMarket] = IYieldManager(_yieldManager);\n        oracleManagers[latestMarket] = IOracleManager(_oracleManager);\n        assetPrice[latestMarket] = uint256(getLatestPrice(latestMarket));\n\n        emit SyntheticTokenCreated(\n            latestMarket,\n            address(longTokens[latestMarket]),\n            address(shortTokens[latestMarket]),\n            _fundToken,\n            assetPrice[latestMarket],\n            syntheticName,\n            syntheticSymbol,\n            _oracleManager\n        );\n    }\n\n    function initializeMarket(\n        uint32 marketIndex,\n        uint256 _baseEntryFee,\n        uint256 _badLiquidityEntryFee,\n        uint256 _baseExitFee,\n        uint256 _badLiquidityExitFee,\n        uint256 kInitialMultiplier,\n        uint256 kPeriod\n    ) external adminOnly {\n        require(!marketExists[marketIndex] && marketIndex <= latestMarket);\n        marketExists[marketIndex] = true;\n\n        _changeFees(\n            marketIndex,\n            _baseEntryFee,\n            _baseExitFee,\n            _badLiquidityEntryFee,\n            _badLiquidityExitFee\n        );\n\n        // Add new staker funds with fresh synthetic tokens.\n        staker.addNewStakingFund(\n            latestMarket,\n            longTokens[marketIndex],\n            shortTokens[marketIndex],\n            kInitialMultiplier,\n            kPeriod\n        );\n    }\n\n    ////////////////////////////////////\n    //////// HELPER FUNCTIONS //////////\n    ////////////////////////////////////\n\n    /**\n     * Returns the latest price\n     */\n    function getLatestPrice(uint32 marketIndex) internal returns (int256) {\n        return oracleManagers[marketIndex].updatePrice();\n    }\n\n    /**\n     * Returns % of long position that is filled\n     */\n    function getLongBeta(uint32 marketIndex) public view returns (uint256) {\n        // TODO account for contract start when these are both zero\n        // and an erronous beta of 1 reported.\n        if (shortValue[marketIndex] >= longValue[marketIndex]) {\n            return TEN_TO_THE_18;\n        } else {\n            return\n                (shortValue[marketIndex] * TEN_TO_THE_18) /\n                longValue[marketIndex];\n        }\n    }\n\n    /**\n     * Returns % of short position that is filled\n     * zero div error if both are zero\n     */\n    function getShortBeta(uint32 marketIndex) public view returns (uint256) {\n        if (longValue[marketIndex] >= shortValue[marketIndex]) {\n            return TEN_TO_THE_18;\n        } else {\n            return\n                (longValue[marketIndex] * TEN_TO_THE_18) /\n                shortValue[marketIndex];\n        }\n    }\n\n    /**\n     * Returns the amount of accrued value that should go to the market,\n     * and the amount that should be locked into the treasury. To incentivise\n     * market balance, more value goes to the market in proportion to how\n     * imbalanced it is.\n     */\n    function getTreasurySplit(uint32 marketIndex, uint256 amount)\n        public\n        view\n        returns (uint256 marketAmount, uint256 treasuryAmount)\n    {\n        // Edge case: all goes to market when market is empty.\n        if (totalValueLockedInMarket[marketIndex] == 0) {\n            return (amount, 0);\n        }\n\n        uint256 marketPcnt; // fixed-precision scale of 10000\n        if (longValue[marketIndex] > shortValue[marketIndex]) {\n            marketPcnt =\n                ((longValue[marketIndex] - shortValue[marketIndex]) * 10000) /\n                totalValueLockedInMarket[marketIndex];\n        } else {\n            marketPcnt =\n                ((shortValue[marketIndex] - longValue[marketIndex]) * 10000) /\n                totalValueLockedInMarket[marketIndex];\n        }\n\n        marketAmount = (marketPcnt * amount) / 10000;\n        treasuryAmount = amount - marketAmount;\n        require(amount == marketAmount + treasuryAmount);\n\n        return (marketAmount, treasuryAmount);\n    }\n\n    /**\n     * Returns the amount of accrued value that should go to each side of the\n     * market. To incentivise balance, more value goes to the weaker side in\n     * proportion to how imbalanced the market is.\n     */\n    function getMarketSplit(uint32 marketIndex, uint256 amount)\n        public\n        view\n        returns (uint256 longAmount, uint256 shortAmount)\n    {\n        // Edge case: equal split when market is empty.\n        if (longValue[marketIndex] == 0 && shortValue[marketIndex] == 0) {\n            longAmount = amount / 2;\n            shortAmount = amount - longAmount;\n            return (longAmount, shortAmount);\n        }\n\n        // The percentage value that a position receives depends on the amount\n        // of total market value taken up by the _opposite_ position.\n        uint256 longPcnt =\n            (shortValue[marketIndex] * 10000) /\n                (longValue[marketIndex] + shortValue[marketIndex]);\n\n        longAmount = (amount * longPcnt) / 10000;\n        shortAmount = amount - longAmount;\n        return (longAmount, shortAmount);\n    }\n\n    /**\n     * Adjusts the long/short token prices according to supply and value.\n     */\n    function _refreshTokensPrice(uint32 marketIndex) internal {\n        uint256 longTokenSupply = longTokens[marketIndex].totalSupply();\n        if (longTokenSupply > 0) {\n            longTokenPrice[marketIndex] =\n                (longValue[marketIndex] * TEN_TO_THE_18) /\n                longTokenSupply;\n        }\n\n        uint256 shortTokenSupply = shortTokens[marketIndex].totalSupply();\n        if (shortTokenSupply > 0) {\n            shortTokenPrice[marketIndex] =\n                (shortValue[marketIndex] * TEN_TO_THE_18) /\n                shortTokenSupply;\n        }\n\n        emit TokenPriceRefreshed(\n            marketIndex,\n            longTokenPrice[marketIndex],\n            shortTokenPrice[marketIndex]\n        );\n    }\n\n    /**\n     * Controls what happens with mint/redeem fees.\n     */\n    function _feesMechanism(uint32 marketIndex, uint256 totalFees) internal {\n        // Market gets a bigger share if the market is more imbalanced.\n        (uint256 marketAmount, uint256 treasuryAmount) =\n            getTreasurySplit(marketIndex, totalFees);\n\n        // Do a logical transfer from market funds into treasury.\n        totalValueLockedInMarket[marketIndex] -= treasuryAmount;\n        totalValueReservedForTreasury[marketIndex] += treasuryAmount;\n\n        // Splits mostly to the weaker position to incentivise balance.\n        (uint256 longAmount, uint256 shortAmount) =\n            getMarketSplit(marketIndex, marketAmount);\n        longValue[marketIndex] = longValue[marketIndex] + longAmount;\n        shortValue[marketIndex] = shortValue[marketIndex] + shortAmount;\n\n        emit FeesLevied(marketIndex, totalFees);\n    }\n\n    /**\n     * Controls what happens with accrued yield manager interest.\n     */\n    function _yieldMechanism(uint32 marketIndex) internal {\n        uint256 amount =\n            yieldManagers[marketIndex].getTotalHeld() -\n                totalValueLockedInYieldManager[marketIndex];\n\n        // Market gets a bigger share if the market is more imbalanced.\n        if (amount > 0) {\n            (uint256 marketAmount, uint256 treasuryAmount) =\n                getTreasurySplit(marketIndex, amount);\n\n            // We keep the interest locked in the yield manager, but update our\n            // bookkeeping to logically simulate moving the funds around.\n            totalValueLockedInYieldManager[marketIndex] += amount;\n            totalValueLockedInMarket[marketIndex] += marketAmount;\n            totalValueReservedForTreasury[marketIndex] += treasuryAmount;\n\n            // Splits mostly to the weaker position to incentivise balance.\n            (uint256 longAmount, uint256 shortAmount) =\n                getMarketSplit(marketIndex, marketAmount);\n            longValue[marketIndex] = longValue[marketIndex] + longAmount;\n            shortValue[marketIndex] = shortValue[marketIndex] + shortAmount;\n        }\n    }\n\n    function _minimum(\n        uint256 liquidityOfPositionA,\n        uint256 liquidityOfPositionB\n    ) internal view returns (uint256) {\n        if (liquidityOfPositionA < liquidityOfPositionB) {\n            return liquidityOfPositionA;\n        } else {\n            return liquidityOfPositionB;\n        }\n    }\n\n    function _calculateValueChangeForPriceMechanism(\n        uint32 marketIndex,\n        uint256 assetPriceGreater,\n        uint256 assetPriceLess,\n        uint256 baseValueExposure\n    ) internal view returns (uint256) {\n        uint256 valueChange = 0;\n\n        uint256 percentageChange =\n            ((assetPriceGreater - assetPriceLess) * TEN_TO_THE_18) /\n                assetPrice[marketIndex];\n\n        valueChange = (baseValueExposure * percentageChange) / TEN_TO_THE_18;\n\n        if (valueChange > baseValueExposure) {\n            // More than 100% price movement, system liquidation.\n            valueChange = baseValueExposure;\n        }\n\n        return valueChange;\n    }\n\n    function _priceChangeMechanism(uint32 marketIndex, uint256 newPrice)\n        internal\n        returns (bool didUpdate)\n    {\n        // If no new price update from oracle, proceed as normal\n        if (assetPrice[marketIndex] == newPrice) {\n            return false;\n        }\n\n        uint256 valueChange = 0;\n        uint256 baseValueExposure =\n            _minimum(longValue[marketIndex], shortValue[marketIndex]);\n\n        // Long gains\n        if (newPrice > assetPrice[marketIndex]) {\n            valueChange = _calculateValueChangeForPriceMechanism(\n                marketIndex,\n                newPrice,\n                assetPrice[marketIndex],\n                baseValueExposure\n            );\n            longValue[marketIndex] = longValue[marketIndex] + valueChange;\n            shortValue[marketIndex] = shortValue[marketIndex] - valueChange;\n        } else {\n            valueChange = _calculateValueChangeForPriceMechanism(\n                marketIndex,\n                assetPrice[marketIndex],\n                newPrice,\n                baseValueExposure\n            );\n            longValue[marketIndex] = longValue[marketIndex] - valueChange;\n            shortValue[marketIndex] = shortValue[marketIndex] + valueChange;\n        }\n        return true;\n    }\n\n    /**\n     * Updates the value of the long and short sides within the system\n     * Note this is public. Anyone can call this function.\n     */\n    function _updateSystemStateInternal(uint32 marketIndex)\n        internal\n        doesMarketExist(marketIndex)\n    {\n        // This is called right before any state change!\n        // So reward rate can be calculated just in time by\n        // staker without needing to be saved\n        staker.addNewStateForFloatRewards(\n            marketIndex,\n            longTokenPrice[marketIndex],\n            shortTokenPrice[marketIndex],\n            longValue[marketIndex],\n            shortValue[marketIndex]\n        );\n\n        // turn this into an assert (markets will be seeded)\n        if (longValue[marketIndex] == 0 && shortValue[marketIndex] == 0) {\n            return;\n        }\n        // TODO - should never happen - seed markets\n        // assert(longValue[marketIndex] != 0 && shortValue[marketIndex] != 0);\n\n        // If a negative int is return this should fail.\n        uint256 newPrice = uint256(getLatestPrice(marketIndex));\n        emit PriceUpdate(\n            marketIndex,\n            assetPrice[marketIndex],\n            newPrice,\n            msg.sender\n        );\n\n        bool priceChanged = false;\n        // Adjusts long and short values based on price movements.\n        if (longValue[marketIndex] > 0 && shortValue[marketIndex] > 0) {\n            // TODO: this should always be true due to market setup seed.\n            priceChanged = _priceChangeMechanism(marketIndex, newPrice);\n        }\n\n        // Distibute accrued yield manager interest.\n        _yieldMechanism(marketIndex);\n\n        _refreshTokensPrice(marketIndex);\n\n        if (priceChanged) {\n            assetPrice[marketIndex] = newPrice;\n\n            // TODO: perform deposit of batched mints + mintAndStakes!\n\n            uint256 newLatestPriceStateIndex =\n                latestUpdateIndex[marketIndex] + 1;\n            latestUpdateIndex[marketIndex] = newLatestPriceStateIndex;\n\n            MarketStateSnapshotStruct storage stateStruct =\n                marketStateSnapshot[marketIndex][newLatestPriceStateIndex];\n            stateStruct.tokenPriceLong = longTokenPrice[marketIndex];\n            stateStruct.tokenPriceShort = shortTokenPrice[marketIndex];\n        }\n\n        emit ValueLockedInSystem(\n            marketIndex,\n            totalValueLockedInMarket[marketIndex],\n            longValue[marketIndex],\n            shortValue[marketIndex]\n        );\n\n        // Invariant: long/short values should never differ from total value.\n        assert(\n            longValue[marketIndex] + shortValue[marketIndex] ==\n                totalValueLockedInMarket[marketIndex]\n        );\n    }\n\n    function _updateSystemState(uint32 marketIndex) external override {\n        _updateSystemStateInternal(marketIndex);\n    }\n\n    function _updateSystemStateMulti(uint32[] calldata marketIndexes)\n        external\n        override\n    {\n        for (uint256 i = 0; i < marketIndexes.length; i++) {\n            _updateSystemStateInternal(marketIndexes[i]);\n        }\n    }\n\n    /*\n     * Locks funds from the sender into the given market.\n     */\n    function _depositFunds(uint32 marketIndex, uint256 amount) internal {\n        fundTokens[marketIndex].transferFrom(msg.sender, address(this), amount);\n\n        // Update global value state.\n        totalValueLockedInMarket[marketIndex] =\n            totalValueLockedInMarket[marketIndex] +\n            amount;\n\n        _transferToYieldManager(marketIndex, amount);\n    }\n\n    /*\n     * Returns locked funds from the market to the sender.\n     */\n    function _withdrawFunds(uint32 marketIndex, uint256 amount) internal {\n        require(totalValueLockedInMarket[marketIndex] >= amount);\n\n        _transferFromYieldManager(marketIndex, amount);\n\n        // Transfer funds to the sender.\n        fundTokens[marketIndex].transfer(msg.sender, amount);\n\n        // Update market state.\n        totalValueLockedInMarket[marketIndex] =\n            totalValueLockedInMarket[marketIndex] -\n            amount;\n    }\n\n    /*\n     * Transfers locked funds from LongShort into the yield manager.\n     */\n    function _transferToYieldManager(uint32 marketIndex, uint256 amount)\n        internal\n    {\n        fundTokens[marketIndex].approve(\n            address(yieldManagers[marketIndex]),\n            amount\n        );\n        yieldManagers[marketIndex].depositToken(amount);\n\n        // Update market state.\n        totalValueLockedInYieldManager[marketIndex] += amount;\n\n        // Invariant: yield managers should never have more locked funds\n        // than the combined value of the market and dao funds.\n        require(\n            totalValueLockedInYieldManager[marketIndex] <=\n                totalValueLockedInMarket[marketIndex] +\n                    totalValueReservedForTreasury[marketIndex]\n        );\n    }\n\n    /*\n     * Transfers locked funds from the yield manager into LongShort.\n     */\n    function _transferFromYieldManager(uint32 marketIndex, uint256 amount)\n        internal\n    {\n        require(totalValueLockedInYieldManager[marketIndex] >= amount);\n\n        // NB there will be issues here if not enough liquidity exists to withdraw\n        // Boolean should be returned from yield manager and think how to approproately handle this\n        yieldManagers[marketIndex].withdrawToken(amount);\n\n        // Update market state.\n        totalValueLockedInYieldManager[marketIndex] -= amount;\n\n        // Invariant: yield managers should never have more locked funds\n        // than the combined value of the market and held treasury funds.\n        require(\n            totalValueLockedInYieldManager[marketIndex] <=\n                totalValueLockedInMarket[marketIndex] +\n                    totalValueReservedForTreasury[marketIndex]\n        );\n    }\n\n    /*\n     * Calculates fees for the given base amount and an additional penalty\n     * amount that extra fees are paid on. Users are penalised for imbalancing\n     * the market.\n     */\n    function _getFeesForAmounts(\n        uint32 marketIndex,\n        uint256 baseAmount, // e18\n        uint256 penaltyAmount, // e18\n        bool isMint // true for mint, false for redeem\n    ) internal view returns (uint256) {\n        uint256 baseRate = 0; // base fee pcnt paid for all actions\n        uint256 penaltyRate = 0; // penalty fee pcnt paid for imbalancing\n\n        if (isMint) {\n            baseRate = baseEntryFee[marketIndex];\n            penaltyRate = badLiquidityEntryFee[marketIndex];\n        } else {\n            baseRate = baseExitFee[marketIndex];\n            penaltyRate = badLiquidityExitFee[marketIndex];\n        }\n\n        uint256 baseFee = (baseAmount * baseRate) / feeUnitsOfPrecision;\n\n        uint256 penaltyFee =\n            (penaltyAmount * penaltyRate) / feeUnitsOfPrecision;\n\n        return baseFee + penaltyFee;\n    }\n\n    /**\n     * Calculates fees for the given mint/redeem amount. Users are penalised\n     * with higher fees for imbalancing the market.\n     */\n    function _getFeesForAction(\n        uint32 marketIndex,\n        uint256 amount, // 1e18\n        bool isMint, // true for mint, false for redeem\n        MarketSide syntheticTokenType // true for long side, false for short side\n    ) internal view returns (uint256) {\n        uint256 _longValue = longValue[marketIndex];\n        uint256 _shortValue = shortValue[marketIndex];\n\n        // Edge-case: no penalties for minting in a 1-sided market.\n        // TODO: Is this what we want for new markets?\n        if (isMint && (_longValue == 0 || _shortValue == 0)) {\n            return _getFeesForAmounts(marketIndex, amount, 0, isMint);\n        }\n\n        // Compute amount that can be spent before higher fees.\n        uint256 feeGap = 0;\n        MarketSide syntheticTokenTypeMintOrShortRedeem = isMint == isLong;\n        if (isLongMintOrShortRedeem) {\n            if (_shortValue > _longValue) {\n                feeGap = _shortValue - _longValue;\n            }\n        } else {\n            if (_longValue > _shortValue) {\n                feeGap = _longValue - _shortValue;\n            }\n        }\n\n        if (feeGap >= amount) {\n            // Case 1: fee gap is big enough that user pays no penalty fees\n            return _getFeesForAmounts(marketIndex, amount, 0, isMint);\n        } else {\n            // Case 2: user pays penalty fees on the remained after fee gap\n            return\n                _getFeesForAmounts(\n                    marketIndex,\n                    amount,\n                    amount - feeGap,\n                    isMint\n                );\n        }\n    }\n\n    ////////////////////////////////////\n    /////////// MINT TOKENS ////////////\n    ////////////////////////////////////\n\n    /**\n     * Create a long position\n     */\n    function mintLong(uint32 marketIndex, uint256 amount)\n        external\n        refreshSystemState(marketIndex)\n    {\n        _mintLong(marketIndex, amount, msg.sender, msg.sender);\n    }\n\n    /**\n     * Creates a short position\n     */\n    function mintShort(uint32 marketIndex, uint256 amount)\n        external\n        refreshSystemState(marketIndex)\n    {\n        _mintShort(marketIndex, amount, msg.sender, msg.sender);\n    }\n\n    /**\n     * Creates a long position and stakes it\n     */\n    function mintLongAndStake(uint32 marketIndex, uint256 amount)\n        external\n        refreshSystemState(marketIndex)\n    {\n        uint256 tokensMinted =\n            _mintLong(marketIndex, amount, msg.sender, address(staker));\n\n        staker.stakeFromMint(longTokens[marketIndex], tokensMinted, msg.sender);\n    }\n\n    /**\n     * Creates a short position and stakes it\n     */\n    function mintShortAndStake(uint32 marketIndex, uint256 amount)\n        external\n        refreshSystemState(marketIndex)\n    {\n        uint256 tokensMinted =\n            _mintShort(marketIndex, amount, msg.sender, address(staker));\n\n        staker.stakeFromMint(\n            shortTokens[marketIndex],\n            tokensMinted,\n            msg.sender\n        );\n    }\n\n    function _mintLong(\n        uint32 marketIndex,\n        uint256 amount,\n        address user,\n        address transferTo\n    ) internal returns (uint256) {\n        // Deposit funds and compute fees.\n        _depositFunds(marketIndex, amount);\n        uint256 fees = _getFeesForAction(marketIndex, amount, true, true);\n        uint256 remaining = amount - fees;\n\n        // Distribute fees across the market.\n        _feesMechanism(marketIndex, fees);\n        _refreshTokensPrice(marketIndex);\n\n        // Mint long tokens with remaining value.\n        uint256 tokens =\n            (remaining * TEN_TO_THE_18) / longTokenPrice[marketIndex];\n        longTokens[marketIndex].mint(transferTo, tokens);\n        longValue[marketIndex] = longValue[marketIndex] + remaining;\n\n        emit LongMinted(marketIndex, amount, remaining, tokens, user);\n\n        emit ValueLockedInSystem(\n            marketIndex,\n            totalValueLockedInMarket[marketIndex],\n            longValue[marketIndex],\n            shortValue[marketIndex]\n        );\n        return tokens;\n    }\n\n    function _mintShort(\n        uint32 marketIndex,\n        uint256 amount,\n        address user,\n        address transferTo\n    ) internal returns (uint256) {\n        // Deposit funds and compute fees.\n        _depositFunds(marketIndex, amount);\n        uint256 fees = _getFeesForAction(marketIndex, amount, true, false);\n        uint256 remaining = amount - fees;\n\n        // Distribute fees across the market.\n        _feesMechanism(marketIndex, fees);\n        _refreshTokensPrice(marketIndex);\n\n        // Mint short tokens with remaining value.\n        uint256 tokens =\n            (remaining * TEN_TO_THE_18) / shortTokenPrice[marketIndex];\n        shortTokens[marketIndex].mint(transferTo, tokens);\n        shortValue[marketIndex] = shortValue[marketIndex] + remaining;\n\n        emit ShortMinted(marketIndex, amount, remaining, tokens, user);\n\n        emit ValueLockedInSystem(\n            marketIndex,\n            totalValueLockedInMarket[marketIndex],\n            longValue[marketIndex],\n            shortValue[marketIndex]\n        );\n        return tokens;\n    }\n\n    ////////////////////////////////////\n    /////////// REDEEM TOKENS //////////\n    ////////////////////////////////////\n\n    function _redeemLong(uint32 marketIndex, uint256 tokensToRedeem)\n        internal\n        refreshSystemState(marketIndex)\n    {\n        // Only this contract has permission to call this function\n        longTokens[marketIndex].synthRedeemBurn(msg.sender, tokensToRedeem);\n\n        // Compute fees.\n        uint256 amount =\n            (tokensToRedeem * longTokenPrice[marketIndex]) / TEN_TO_THE_18;\n        uint256 fees = _getFeesForAction(marketIndex, amount, false, true);\n        uint256 remaining = amount - fees;\n\n        // Distribute fees across the market.\n        _feesMechanism(marketIndex, fees);\n\n        // Withdraw funds with remaining amount.\n        longValue[marketIndex] = longValue[marketIndex] - amount;\n        _withdrawFunds(marketIndex, remaining);\n        _refreshTokensPrice(marketIndex);\n\n        emit LongRedeem(\n            marketIndex,\n            tokensToRedeem,\n            amount,\n            remaining,\n            msg.sender\n        );\n\n        emit ValueLockedInSystem(\n            marketIndex,\n            totalValueLockedInMarket[marketIndex],\n            longValue[marketIndex],\n            shortValue[marketIndex]\n        );\n    }\n\n    function _redeemShort(uint32 marketIndex, uint256 tokensToRedeem)\n        internal\n        refreshSystemState(marketIndex)\n    {\n        // Only this contract has permission to call this function\n        shortTokens[marketIndex].synthRedeemBurn(msg.sender, tokensToRedeem);\n\n        // Compute fees.\n        uint256 amount =\n            (tokensToRedeem * shortTokenPrice[marketIndex]) / TEN_TO_THE_18;\n        uint256 fees = _getFeesForAction(marketIndex, amount, false, false);\n        uint256 remaining = amount - fees;\n\n        // Distribute fees across the market.\n        _feesMechanism(marketIndex, fees);\n\n        // Withdraw funds with remaining amount.\n        shortValue[marketIndex] = shortValue[marketIndex] - amount;\n        _withdrawFunds(marketIndex, remaining);\n        _refreshTokensPrice(marketIndex);\n\n        emit ShortRedeem(\n            marketIndex,\n            tokensToRedeem,\n            amount,\n            remaining,\n            msg.sender\n        );\n\n        emit ValueLockedInSystem(\n            marketIndex,\n            totalValueLockedInMarket[marketIndex],\n            longValue[marketIndex],\n            shortValue[marketIndex]\n        );\n    }\n\n    function redeemLong(uint32 marketIndex, uint256 tokensToRedeem)\n        external\n        override\n    {\n        _redeemLong(marketIndex, tokensToRedeem);\n    }\n\n    function redeemLongAll(uint32 marketIndex) external {\n        uint256 tokensToRedeem = longTokens[marketIndex].balanceOf(msg.sender);\n        _redeemLong(marketIndex, tokensToRedeem);\n    }\n\n    function redeemShort(uint32 marketIndex, uint256 tokensToRedeem)\n        external\n        override\n    {\n        _redeemShort(marketIndex, tokensToRedeem);\n    }\n\n    function redeemShortAll(uint32 marketIndex) external {\n        uint256 tokensToRedeem = shortTokens[marketIndex].balanceOf(msg.sender);\n        _redeemShort(marketIndex, tokensToRedeem);\n    }\n\n    ////////////////////////////////////\n    /////// TREASURY FUNCTIONS /////////\n    ////////////////////////////////////\n\n    /*\n     * Transfers the reserved treasury funds to the treasury contract. This is\n     * done async to avoid putting transfer gas costs on users every time they o\n     * pay fees or accrue yield.\n     *\n     * NOTE: doesn't affect markets, so no state refresh necessary\n     */\n    function transferTreasuryFunds(uint32 marketIndex) external treasuryOnly {\n        // Edge-case: no funds to transfer.\n        if (totalValueReservedForTreasury[marketIndex] == 0) {\n            return;\n        }\n\n        _transferFromYieldManager(\n            marketIndex,\n            totalValueReservedForTreasury[marketIndex]\n        );\n\n        // Transfer funds to the treasury.\n        fundTokens[marketIndex].transfer(\n            treasury,\n            totalValueReservedForTreasury[marketIndex]\n        );\n\n        // Update global state.\n        totalValueReservedForTreasury[marketIndex] = 0;\n    }\n\n    ////// LAZY EXEC:\n    // Putting all code related to lazy execution below to keep it separate from the rest of the code (for now)\n\n    struct userLazyDeposit {\n        uint256 updateIndex;\n        uint256 mintLong;\n        uint256 mintShort;\n        uint256 mintAndStakeLong;\n        uint256 mintAndStakeShort;\n    }\n    struct MarketStateSnapshotStruct {\n        // QUESTION? possible to compress this into two uint128 values?\n        uint256 tokenPriceLong;\n        uint256 tokenPriceShort;\n    }\n\n    mapping(uint32 => uint256) latestUpdateIndex;\n    mapping(uint32 => mapping(uint256 => MarketStateSnapshotStruct)) marketStateSnapshot;\n    mapping(uint32 => uint256) batchedMintLong;\n    mapping(uint32 => uint256) batchedMinttShort;\n    mapping(uint32 => mapping(address => userLazyDeposit)) userLazyActions;\n\n    modifier executeOutstandingLazyDeposits(address user) {\n        _;\n    }\n\n    function mintLongLazy(uint32 marketIndex, uint256 amount) external {\n        // accept the users funds\n        // pre-deposit them into the market? (probably not an easy thing to do, don't gain that much doing so either just more expensive tx)\n        batchedMintLong[marketIndex] += amount;\n        userLazyActions[marketIndex][msg.sender].mintLong += amount;\n        userLazyActions[marketIndex][msg.sender].updateIndex =\n            latestUpdateIndex[marketIndex] +\n            1;\n    }\n\n    function mintShortLazy(uint32 marketIndex, uint256 amount) external {}\n\n    function mintLongAndStakeLazy(uint32 marketIndex, uint256 amount)\n        external\n    {}\n\n    function mintShortAndStakeLazy(uint32 marketIndex, uint256 amount)\n        external\n    {}\n}\n",
  "sourcePath": "/Users/denham/Documents/projects/float-capital/code/float-capital/contracts/contracts/LongShort.sol",
  "compiler": {
    "name": "solc",
    "version": "0.8.3+commit.8d00100c.Emscripten.clang"
  },
  "schemaVersion": "3.3.4",
  "updatedAt": "2021-05-24T09:35:48.325Z",
  "networkType": "ethereum",
  "devdoc": {
    "details": "{LongShort} contract:**** visit https://float.capital *****  - Ability for users to create synthetic long and short positions on value movements  - Value movements could be derived from tradional or alternative asset classes, derivates, binary outcomes, etc...  - Incentive mechansim providing fees to liquidity makers (users on both sides of order book)",
    "kind": "dev",
    "methods": {},
    "version": 1
  },
  "userdoc": {
    "kind": "user",
    "methods": {
      "changeAdmin(address)": {
        "notice": "MULTISIG ADMIN FUNCTIONS ///////"
      },
      "getLongBeta(uint32)": {
        "notice": "Returns % of long position that is filled"
      },
      "getMarketSplit(uint32,uint256)": {
        "notice": "Returns the amount of accrued value that should go to each side of the market. To incentivise balance, more value goes to the weaker side in proportion to how imbalanced the market is."
      },
      "getShortBeta(uint32)": {
        "notice": "Returns % of short position that is filled zero div error if both are zero"
      },
      "getTreasurySplit(uint32,uint256)": {
        "notice": "Returns the amount of accrued value that should go to the market, and the amount that should be locked into the treasury. To incentivise market balance, more value goes to the market in proportion to how imbalanced it is."
      },
      "mintLong(uint32,uint256)": {
        "notice": "Create a long position"
      },
      "mintLongAndStake(uint32,uint256)": {
        "notice": "Creates a long position and stakes it"
      },
      "mintShort(uint32,uint256)": {
        "notice": "Creates a short position"
      },
      "mintShortAndStake(uint32,uint256)": {
        "notice": "Creates a short position and stakes it"
      },
      "newSyntheticMarket(string,string,address,address,address)": {
        "notice": "Creates an entirely new long/short market tracking an underlying oracle price. Make sure the synthetic names/symbols are unique."
      },
      "updateMarketOracle(uint32,address)": {
        "notice": "Update oracle for a market"
      }
    },
    "version": 1
  }
}