{
  "contractName": "Staker",
  "abi": [
    {
      "anonymous": false,
      "inputs": [
        {
          "indexed": false,
          "internalType": "address",
          "name": "floatToken",
          "type": "address"
        }
      ],
      "name": "DeployV1",
      "type": "event"
    },
    {
      "anonymous": false,
      "inputs": [
        {
          "indexed": false,
          "internalType": "address",
          "name": "user",
          "type": "address"
        },
        {
          "indexed": false,
          "internalType": "address",
          "name": "tokenAddress",
          "type": "address"
        },
        {
          "indexed": false,
          "internalType": "uint256",
          "name": "amount",
          "type": "uint256"
        },
        {
          "indexed": false,
          "internalType": "uint256",
          "name": "lastMintIndex",
          "type": "uint256"
        }
      ],
      "name": "FloatMinted",
      "type": "event"
    },
    {
      "anonymous": false,
      "inputs": [
        {
          "indexed": false,
          "internalType": "uint32",
          "name": "marketIndex",
          "type": "uint32"
        },
        {
          "indexed": false,
          "internalType": "uint256",
          "name": "period",
          "type": "uint256"
        },
        {
          "indexed": false,
          "internalType": "uint256",
          "name": "multiplier",
          "type": "uint256"
        }
      ],
      "name": "KFactorParametersChanges",
      "type": "event"
    },
    {
      "anonymous": false,
      "inputs": [
        {
          "indexed": false,
          "internalType": "address",
          "name": "user",
          "type": "address"
        },
        {
          "indexed": false,
          "internalType": "address",
          "name": "tokenAddress",
          "type": "address"
        },
        {
          "indexed": false,
          "internalType": "uint256",
          "name": "amount",
          "type": "uint256"
        },
        {
          "indexed": false,
          "internalType": "uint256",
          "name": "lastMintIndex",
          "type": "uint256"
        }
      ],
      "name": "StakeAdded",
      "type": "event"
    },
    {
      "anonymous": false,
      "inputs": [
        {
          "indexed": false,
          "internalType": "address",
          "name": "user",
          "type": "address"
        },
        {
          "indexed": false,
          "internalType": "address",
          "name": "tokenAddress",
          "type": "address"
        },
        {
          "indexed": false,
          "internalType": "uint256",
          "name": "amount",
          "type": "uint256"
        }
      ],
      "name": "StakeWithdrawn",
      "type": "event"
    },
    {
      "anonymous": false,
      "inputs": [
        {
          "indexed": false,
          "internalType": "address",
          "name": "tokenAddress",
          "type": "address"
        },
        {
          "indexed": false,
          "internalType": "uint256",
          "name": "stateIndex",
          "type": "uint256"
        },
        {
          "indexed": false,
          "internalType": "uint256",
          "name": "timestamp",
          "type": "uint256"
        },
        {
          "indexed": false,
          "internalType": "uint256",
          "name": "accumulative",
          "type": "uint256"
        }
      ],
      "name": "StateAdded",
      "type": "event"
    },
    {
      "inputs": [],
      "name": "admin",
      "outputs": [
        {
          "internalType": "address",
          "name": "",
          "type": "address"
        }
      ],
      "stateMutability": "view",
      "type": "function",
      "constant": true
    },
    {
      "inputs": [],
      "name": "floatCapital",
      "outputs": [
        {
          "internalType": "address",
          "name": "",
          "type": "address"
        }
      ],
      "stateMutability": "view",
      "type": "function",
      "constant": true
    },
    {
      "inputs": [],
      "name": "floatContract",
      "outputs": [
        {
          "internalType": "contract LongShort",
          "name": "",
          "type": "address"
        }
      ],
      "stateMutability": "view",
      "type": "function",
      "constant": true
    },
    {
      "inputs": [],
      "name": "floatPercentage",
      "outputs": [
        {
          "internalType": "uint16",
          "name": "",
          "type": "uint16"
        }
      ],
      "stateMutability": "view",
      "type": "function",
      "constant": true
    },
    {
      "inputs": [],
      "name": "floatToken",
      "outputs": [
        {
          "internalType": "contract FloatToken",
          "name": "",
          "type": "address"
        }
      ],
      "stateMutability": "view",
      "type": "function",
      "constant": true
    },
    {
      "inputs": [],
      "name": "initialTimestamp",
      "outputs": [
        {
          "internalType": "uint256",
          "name": "",
          "type": "uint256"
        }
      ],
      "stateMutability": "view",
      "type": "function",
      "constant": true
    },
    {
      "inputs": [
        {
          "internalType": "uint256",
          "name": "",
          "type": "uint256"
        }
      ],
      "name": "kFactorInitialMultipliers",
      "outputs": [
        {
          "internalType": "uint256",
          "name": "",
          "type": "uint256"
        }
      ],
      "stateMutability": "view",
      "type": "function",
      "constant": true
    },
    {
      "inputs": [
        {
          "internalType": "uint256",
          "name": "",
          "type": "uint256"
        }
      ],
      "name": "kFactorPeriods",
      "outputs": [
        {
          "internalType": "uint256",
          "name": "",
          "type": "uint256"
        }
      ],
      "stateMutability": "view",
      "type": "function",
      "constant": true
    },
    {
      "inputs": [
        {
          "internalType": "address",
          "name": "",
          "type": "address"
        }
      ],
      "name": "latestRewardIndex",
      "outputs": [
        {
          "internalType": "uint256",
          "name": "",
          "type": "uint256"
        }
      ],
      "stateMutability": "view",
      "type": "function",
      "constant": true
    },
    {
      "inputs": [
        {
          "internalType": "address",
          "name": "",
          "type": "address"
        }
      ],
      "name": "marketIndexOfToken",
      "outputs": [
        {
          "internalType": "uint32",
          "name": "",
          "type": "uint32"
        }
      ],
      "stateMutability": "view",
      "type": "function",
      "constant": true
    },
    {
      "inputs": [
        {
          "internalType": "address",
          "name": "",
          "type": "address"
        },
        {
          "internalType": "uint256",
          "name": "",
          "type": "uint256"
        }
      ],
      "name": "syntheticRewardParams",
      "outputs": [
        {
          "internalType": "uint256",
          "name": "timestamp",
          "type": "uint256"
        },
        {
          "internalType": "uint256",
          "name": "accumulativeFloatPerToken",
          "type": "uint256"
        }
      ],
      "stateMutability": "view",
      "type": "function",
      "constant": true
    },
    {
      "inputs": [
        {
          "internalType": "address",
          "name": "",
          "type": "address"
        },
        {
          "internalType": "address",
          "name": "",
          "type": "address"
        }
      ],
      "name": "userAmountStaked",
      "outputs": [
        {
          "internalType": "uint256",
          "name": "",
          "type": "uint256"
        }
      ],
      "stateMutability": "view",
      "type": "function",
      "constant": true
    },
    {
      "inputs": [
        {
          "internalType": "address",
          "name": "",
          "type": "address"
        },
        {
          "internalType": "address",
          "name": "",
          "type": "address"
        }
      ],
      "name": "userIndexOfLastClaimedReward",
      "outputs": [
        {
          "internalType": "uint256",
          "name": "",
          "type": "uint256"
        }
      ],
      "stateMutability": "view",
      "type": "function",
      "constant": true
    },
    {
      "inputs": [
        {
          "internalType": "address",
          "name": "_admin",
          "type": "address"
        },
        {
          "internalType": "address",
          "name": "_floatContract",
          "type": "address"
        },
        {
          "internalType": "address",
          "name": "_floatToken",
          "type": "address"
        },
        {
          "internalType": "address",
          "name": "_floatCapital",
          "type": "address"
        }
      ],
      "name": "initialize",
      "outputs": [],
      "stateMutability": "nonpayable",
      "type": "function"
    },
    {
      "inputs": [
        {
          "internalType": "address",
          "name": "_admin",
          "type": "address"
        }
      ],
      "name": "changeAdmin",
      "outputs": [],
      "stateMutability": "nonpayable",
      "type": "function"
    },
    {
      "inputs": [
        {
          "internalType": "uint16",
          "name": "_newPercentage",
          "type": "uint16"
        }
      ],
      "name": "changeFloatPercentage",
      "outputs": [],
      "stateMutability": "nonpayable",
      "type": "function"
    },
    {
      "inputs": [
        {
          "internalType": "uint32",
          "name": "marketIndex",
          "type": "uint32"
        },
        {
          "internalType": "uint256",
          "name": "period",
          "type": "uint256"
        },
        {
          "internalType": "uint256",
          "name": "initialMultiplier",
          "type": "uint256"
        }
      ],
      "name": "changeKFactorParameters",
      "outputs": [],
      "stateMutability": "nonpayable",
      "type": "function"
    },
    {
      "inputs": [
        {
          "internalType": "uint32",
          "name": "marketIndex",
          "type": "uint32"
        },
        {
          "internalType": "address",
          "name": "longTokenAddress",
          "type": "address"
        },
        {
          "internalType": "address",
          "name": "shortTokenAddress",
          "type": "address"
        },
        {
          "internalType": "uint256",
          "name": "kInitialMultiplier",
          "type": "uint256"
        },
        {
          "internalType": "uint256",
          "name": "kPeriod",
          "type": "uint256"
        }
      ],
      "name": "addNewStakingFund",
      "outputs": [],
      "stateMutability": "nonpayable",
      "type": "function"
    },
    {
      "inputs": [
        {
          "internalType": "uint256",
          "name": "longValue",
          "type": "uint256"
        },
        {
          "internalType": "uint256",
          "name": "shortValue",
          "type": "uint256"
        },
        {
          "internalType": "uint256",
          "name": "tokenPrice",
          "type": "uint256"
        },
        {
          "internalType": "address",
          "name": "token",
          "type": "address"
        },
        {
          "internalType": "bool",
          "name": "isLong",
          "type": "bool"
        }
      ],
      "name": "calculateFloatPerSecond",
      "outputs": [
        {
          "internalType": "uint256",
          "name": "",
          "type": "uint256"
        }
      ],
      "stateMutability": "view",
      "type": "function",
      "constant": true
    },
    {
      "inputs": [
        {
          "internalType": "address",
          "name": "longToken",
          "type": "address"
        },
        {
          "internalType": "address",
          "name": "shortToken",
          "type": "address"
        },
        {
          "internalType": "uint256",
          "name": "longPrice",
          "type": "uint256"
        },
        {
          "internalType": "uint256",
          "name": "shortPrice",
          "type": "uint256"
        },
        {
          "internalType": "uint256",
          "name": "longValue",
          "type": "uint256"
        },
        {
          "internalType": "uint256",
          "name": "shortValue",
          "type": "uint256"
        }
      ],
      "name": "addNewStateForFloatRewards",
      "outputs": [],
      "stateMutability": "nonpayable",
      "type": "function"
    },
    {
      "inputs": [
        {
          "internalType": "address[]",
          "name": "tokenAddresses",
          "type": "address[]"
        }
      ],
      "name": "claimFloat",
      "outputs": [],
      "stateMutability": "nonpayable",
      "type": "function"
    },
    {
      "inputs": [
        {
          "internalType": "address[]",
          "name": "tokenAddresses",
          "type": "address[]"
        }
      ],
      "name": "claimFloatImmediately",
      "outputs": [],
      "stateMutability": "nonpayable",
      "type": "function"
    },
    {
      "inputs": [
        {
          "internalType": "address[]",
          "name": "tokenAddresses",
          "type": "address[]"
        },
        {
          "internalType": "uint32[]",
          "name": "marketIndexes",
          "type": "uint32[]"
        }
      ],
      "name": "claimFloatCustom",
      "outputs": [],
      "stateMutability": "nonpayable",
      "type": "function"
    },
    {
      "inputs": [
        {
          "internalType": "address",
          "name": "from",
          "type": "address"
        },
        {
          "internalType": "uint256",
          "name": "amount",
          "type": "uint256"
        }
      ],
      "name": "stakeDirect",
      "outputs": [],
      "stateMutability": "nonpayable",
      "type": "function"
    },
    {
      "inputs": [
        {
          "internalType": "address",
          "name": "tokenAddress",
          "type": "address"
        },
        {
          "internalType": "uint256",
          "name": "amount",
          "type": "uint256"
        }
      ],
      "name": "stake",
      "outputs": [],
      "stateMutability": "nonpayable",
      "type": "function"
    },
    {
      "inputs": [
        {
          "internalType": "address",
          "name": "tokenAddress",
          "type": "address"
        },
        {
          "internalType": "uint256",
          "name": "amount",
          "type": "uint256"
        }
      ],
      "name": "stakeAndEarnImmediately",
      "outputs": [],
      "stateMutability": "nonpayable",
      "type": "function"
    },
    {
      "inputs": [
        {
          "internalType": "address",
          "name": "tokenAddress",
          "type": "address"
        },
        {
          "internalType": "uint256",
          "name": "amount",
          "type": "uint256"
        },
        {
          "internalType": "address",
          "name": "user",
          "type": "address"
        }
      ],
      "name": "stakeTransferredTokens",
      "outputs": [],
      "stateMutability": "nonpayable",
      "type": "function"
    },
    {
      "inputs": [
        {
          "internalType": "address",
          "name": "tokenAddress",
          "type": "address"
        },
        {
          "internalType": "uint256",
          "name": "amount",
          "type": "uint256"
        }
      ],
      "name": "withdraw",
      "outputs": [],
      "stateMutability": "nonpayable",
      "type": "function"
    },
    {
      "inputs": [
        {
          "internalType": "address",
          "name": "tokenAddress",
          "type": "address"
        },
        {
          "internalType": "uint256",
          "name": "amount",
          "type": "uint256"
        }
      ],
      "name": "withdrawAll",
      "outputs": [],
      "stateMutability": "nonpayable",
      "type": "function"
    }
  ],
  "bytecode": "0x608060405234801561001057600080fd5b50611de4806100206000396000f3fe608060405234801561001057600080fd5b50600436106101cf5760003560e01c8063b777fae611610104578063eae5a8d9116100a2578063f3fef3a311610071578063f3fef3a314610466578063f3ff5fef14610479578063f851a440146104c0578063f8c8765e146104d3576101cf565b8063eae5a8d91461040d578063eb4a8a7714610420578063ebe6ca9d14610440578063f2d4f5d214610453576101cf565b8063c17f8ce9116100de578063c17f8ce9146103a6578063cc6dbc27146103d1578063d6d14171146103e4578063d9467900146103ed576101cf565b8063b777fae614610355578063ba89f7b814610368578063bf92106d1461037b576101cf565b80638f28397011610171578063a7ba9fd71161014b578063a7ba9fd714610309578063aa2407261461031c578063adc9772e1461032f578063b368277a14610342576101cf565b80638f283970146102d0578063a074969e146102e3578063a4e7d108146102f6576101cf565b80633380f1c1116101ad5780633380f1c11461024a5780634b1474a31461025d5780635892457d1461027d578063885eae3e146102a5576101cf565b806315f2081d146101d45780631f9a341214610214578063299484c214610229575b600080fd5b6101fa6101e23660046118e4565b600b6020526000908152604090205463ffffffff1681565b60405163ffffffff90911681526020015b60405180910390f35b610227610222366004611be8565b6104e6565b005b61023c610237366004611b41565b610529565b60405190815260200161020b565b610227610258366004611a82565b61064f565b61023c61026b366004611b29565b60026020526000908152604090205481565b60045461029290600160a01b900461ffff1681565b60405161ffff909116815260200161020b565b6006546102b8906001600160a01b031681565b6040516001600160a01b03909116815260200161020b565b6102276102de3660046118e4565b6106c3565b6102276102f1366004611a42565b61070f565b6102276103043660046119de565b6107f7565b6102276103173660046119de565b610922565b61022761032a36600461198a565b61095e565b61022761033d3660046119de565b6109aa565b610227610350366004611a42565b610a6f565b610227610363366004611b07565b610c86565b6004546102b8906001600160a01b031681565b61023c610389366004611905565b600960209081526000928352604080842090915290825290205481565b61023c6103b4366004611905565b600860209081526000928352604080842090915290825290205481565b6102276103df3660046119de565b610ce5565b61023c60055481565b61023c6103fb3660046118e4565b600d6020526000908152604090205481565b6007546102b8906001600160a01b031681565b61023c61042e366004611b29565b60016020526000908152604090205481565b61022761044e366004611b94565b610d14565b610227610461366004611a07565b610e5e565b6102276104743660046119de565b610f31565b6104ab6104873660046119de565b600c6020908152600092835260408084209091529082529020805460019091015482565b6040805192835260208301919091520161020b565b6003546102b8906001600160a01b031681565b6102276104e1366004611937565b610f3b565b6003546001600160a01b031633146105195760405162461bcd60e51b815260040161051090611cdb565b60405180910390fd5b610524838383611086565b505050565b600085158015610537575084155b1561054457506000610646565b6001600160a01b0383166000908152600b6020526040812054819061056e9063ffffffff1661114f565b91509150670de0b6b3a764000081101561059857634e487b7160e01b600052600160045260246000fd5b600554670de0b6b3a76400009083906105b19042611d55565b116105f85782600554426105c59190611d55565b6105d7670de0b6b3a764000085611d55565b6105e19190611d36565b6105eb9190611d16565b6105f59083611d55565b90505b841561063157610608888a611cfe565b876106138a84611d36565b61061d9190611d36565b6106279190611d16565b9350505050610646565b61063b888a611cfe565b876106138b84611d36565b95945050505050565b60065460405163d8d3ded160e01b81526001600160a01b039091169063d8d3ded1906106819085908590600401611c69565b600060405180830381600087803b15801561069b57600080fd5b505af11580156106af573d6000803e3d6000fd5b505050506106bd8484610a6f565b50505050565b6003546001600160a01b031633146106ed5760405162461bcd60e51b815260040161051090611cdb565b600380546001600160a01b0319166001600160a01b0392909216919091179055565b60005b818110156107e8576006546001600160a01b031663b03b2142600b600086868681811061074f57634e487b7160e01b600052603260045260246000fd5b905060200201602081019061076491906118e4565b6001600160a01b031681526020810191909152604090810160002054905160e083901b6001600160e01b031916815263ffffffff9091166004820152602401600060405180830381600087803b1580156107bd57600080fd5b505af11580156107d1573d6000803e3d6000fd5b5050505080806107e090611d6c565b915050610712565b506107f38282610a6f565b5050565b6001600160a01b0382166000908152600a6020526040902054829060ff166108315760405162461bcd60e51b815260040161051090611cb2565b6006546001600160a01b038481166000908152600b60205260409081902054905163581d90a160e11b815263ffffffff909116600482015291169063b03b214290602401600060405180830381600087803b15801561088f57600080fd5b505af11580156108a3573d6000803e3d6000fd5b505050506108b4838333600061118d565b6001600160a01b0383166000908152600d60209081526040808320546009835281842033808652935292819020839055517fef7c8dfef14cbefdf829b8f066b068b677992411137321d64b3ed4538c2b363792610915929187918791611c1a565b60405180910390a1505050565b336000818152600a602052604090205460ff166109515760405162461bcd60e51b815260040161051090611cb2565b610524338385600161118d565b6006546001600160a01b0316331461097557600080fd5b6000610980876112ea565b11156109a257610994828286896001611327565b6109a2828285886000611327565b505050505050565b6001600160a01b0382166000908152600a6020526040902054829060ff166109e45760405162461bcd60e51b815260040161051090611cb2565b6109f1838333600061118d565b6001600160a01b0383166000908152600d6020526040902054610a15906001611cfe565b6001600160a01b03841660009081526009602090815260408083203380855292529182902083905590517fef7c8dfef14cbefdf829b8f066b068b677992411137321d64b3ed4538c2b363792610915929187918791611c1a565b600f811115610a7d57600080fd5b6000805b82811015610c75576000610ac9858584818110610aae57634e487b7160e01b600052603260045260246000fd5b9050602002016020810190610ac391906118e4565b336113e2565b90508015610c6257600d6000868685818110610af557634e487b7160e01b600052603260045260246000fd5b9050602002016020810190610b0a91906118e4565b6001600160a01b03166001600160a01b031681526020019081526020016000205460096000878786818110610b4f57634e487b7160e01b600052603260045260246000fd5b9050602002016020810190610b6491906118e4565b6001600160a01b0316815260208082019290925260409081016000908120338252909252902055610b958184611cfe565b92507f5517044bd368ee894aa7ad4101070fb06d772822caeddfc36b65e830358dd40933868685818110610bd957634e487b7160e01b600052603260045260246000fd5b9050602002016020810190610bee91906118e4565b83600d60008a8a89818110610c1357634e487b7160e01b600052603260045260246000fd5b9050602002016020810190610c2891906118e4565b6001600160a01b03166001600160a01b0316815260200190815260200160002054604051610c599493929190611c1a565b60405180910390a15b5080610c6d81611d6c565b915050610a81565b5080156105245761052433826114da565b6003546001600160a01b03163314610cb05760405162461bcd60e51b815260040161051090611cdb565b6127108161ffff161115610cc357600080fd5b6004805461ffff909216600160a01b0261ffff60a01b19909216919091179055565b6001600160a01b03821660009081526008602090815260408083203384529091529020546107f39083906115d9565b6006546001600160a01b03163314610d2b57600080fd5b6001600160a01b038481166000818152600a602090815260408083208054600160ff19918216811790925595891680855282852080549097168217909655848452600b8352818420805463ffffffff1990811663ffffffff8e1690811790925587865283862080549091169091179055938352600c80835281842084805283528184204280825590860185905595845282528083208380529091528120928355910155610dd9858284611086565b7ff2ed3ded7239352543c32455ccd4d109eedda4c3599627843338159622095f06846000426000604051610e109493929190611c43565b60405180910390a17ff2ed3ded7239352543c32455ccd4d109eedda4c3599627843338159622095f06836000426000604051610e4f9493929190611c43565b60405180910390a15050505050565b6006546001600160a01b03163314610e7557600080fd5b6001600160a01b0383166000908152600a6020526040902054839060ff16610eaf5760405162461bcd60e51b815260040161051090611cb2565b610ebc848484600161118d565b6001600160a01b038481166000908152600d60209081526040808320546009835281842094871684529390915290819020829055517fef7c8dfef14cbefdf829b8f066b068b677992411137321d64b3ed4538c2b363791610f239185918891889190611c1a565b60405180910390a150505050565b6107f382826115d9565b600054610100900460ff1680610f54575060005460ff16155b610fb75760405162461bcd60e51b815260206004820152602e60248201527f496e697469616c697a61626c653a20636f6e747261637420697320616c72656160448201526d191e481a5b9a5d1a585b1a5e995960921b6064820152608401610510565b600054610100900460ff16158015610fd9576000805461ffff19166101011790555b600380546001600160a01b038781166001600160a01b0319928316179092556004805442600555600680548986169085161790556007805488861694168417905561017760a21b6001600160b01b031990911693861693909317929092179091556040519081527f33e61a5ca0ab730cf48ad851505059983582d3512d66de94f246b06df7e704369060200160405180910390a1801561107f576000805461ff00191690555b5050505050565b670de0b6b3a76400008110156110f05760405162461bcd60e51b815260206004820152602960248201527f496e697469616c206b466163746f724d756c7469706c696572206d75737420626044820152680ca407c7a4062ca62760bb1b6064820152608401610510565b63ffffffff8316600081815260016020908152604080832086905560028252918290208490558151928352820184905281018290527f808b7b55749d79a4a7e2e84fd265edb3dfb2d45271b7d7d2da0cb8c35f6715ed90606001610915565b63ffffffff81166000908152600160209081526040808320546002909252822054829190806111835750670de0b6b3a76400005b9092509050915091565b8061121c576040516323b872dd60e01b81526001600160a01b038381166004830152306024830152604482018590528516906323b872dd90606401602060405180830381600087803b1580156111e257600080fd5b505af11580156111f6573d6000803e3d6000fd5b505050506040513d601f19601f8201168201806040525081019061121a9190611aeb565b505b6001600160a01b0380851660009081526008602090815260408083209386168352929052205415611287576001600160a01b038085166000908152600d6020908152604080832054600983528184209487168452939091529020541015611287576112878483611765565b6001600160a01b038085166000908152600860209081526040808320938616835292905220546112b8908490611cfe565b6001600160a01b0394851660009081526008602090815260408083209590971682529390935293909120929092555050565b6001600160a01b0381166000908152600c60209081526040808320600d835281842054845290915281205461131f9042611d55565b90505b919050565b6001600160a01b0382166000908152600d602052604081205461134b906001611cfe565b905061135a8686868686611802565b6001600160a01b0384166000818152600c60209081526040808320868452808352818420600181019687554290819055948452600d835281842087905592869052919052915491517ff2ed3ded7239352543c32455ccd4d109eedda4c3599627843338159622095f06926113d2928792869290611c43565b60405180910390a1505050505050565b6001600160a01b038083166000908152600d602090815260408083205460098352818420948616845293909152812054909111611421575060006114d4565b6001600160a01b038084166000818152600c60209081526040808320600983528184209588168452948252808320548352848252808320600190810154948452600d83528184205484529490915281209092015461147f9190611d55565b6001600160a01b03808616600090815260086020908152604080832093881683529290522054909150710b7abc627050305adf14a3d9e40000000000906114c69083611d36565b6114d09190611d16565b9150505b92915050565b6007546040516340c10f1960e01b81526001600160a01b03848116600483015260248201849052909116906340c10f1990604401600060405180830381600087803b15801561152857600080fd5b505af115801561153c573d6000803e3d6000fd5b50506007546004546001600160a01b0391821693506340c10f199250908116906127109061157590600160a01b900461ffff1686611d36565b61157f9190611d16565b6040516001600160e01b031960e085901b1681526001600160a01b0390921660048301526024820152604401600060405180830381600087803b1580156115c557600080fd5b505af11580156109a2573d6000803e3d6000fd5b6001600160a01b038216600090815260086020908152604080832033845290915290205461163f5760405162461bcd60e51b81526020600482015260136024820152726e6f7468696e6720746f20776974686472617760681b6044820152606401610510565b6116498233611765565b6001600160a01b0382166000908152600860209081526040808320338452909152902054611678908290611d55565b6001600160a01b038316600081815260086020908152604080832033808552925291829020939093555163a9059cbb60e01b81526004810192909252602482018390529063a9059cbb90604401602060405180830381600087803b1580156116df57600080fd5b505af11580156116f3573d6000803e3d6000fd5b505050506040513d601f19601f820116820180604052508101906117179190611aeb565b50604080513381526001600160a01b03841660208201529081018290527fb7c918e0e249f999e965cafeb6c664271b3f4317d296461500e71da39f0cbda39060600160405180910390a15050565b600061177183836113e2565b90508015610524576001600160a01b038084166000908152600d6020908152604080832054600983528184209487168452939091529020556117b382826114da565b6001600160a01b0383166000908152600d6020526040908190205490517f5517044bd368ee894aa7ad4101070fb06d772822caeddfc36b65e830358dd409916109159185918791869190611c1a565b6000806118128787878787610529565b9050600061181f856112ea565b905061182b8282611d36565b6001600160a01b0386166000908152600c60209081526040808320600d83528184205484529091529020600101546118639190611cfe565b98975050505050505050565b80356001600160a01b038116811461132257600080fd5b60008083601f840112611897578182fd5b50813567ffffffffffffffff8111156118ae578182fd5b6020830191508360208260051b85010111156118c957600080fd5b9250929050565b803563ffffffff8116811461132257600080fd5b6000602082840312156118f5578081fd5b6118fe8261186f565b9392505050565b60008060408385031215611917578081fd5b6119208361186f565b915061192e6020840161186f565b90509250929050565b6000806000806080858703121561194c578182fd5b6119558561186f565b93506119636020860161186f565b92506119716040860161186f565b915061197f6060860161186f565b905092959194509250565b60008060008060008060c087890312156119a2578182fd5b6119ab8761186f565b95506119b96020880161186f565b95989597505050506040840135936060810135936080820135935060a0909101359150565b600080604083850312156119f0578182fd5b6119f98361186f565b946020939093013593505050565b600080600060608486031215611a1b578283fd5b611a248461186f565b925060208401359150611a396040850161186f565b90509250925092565b60008060208385031215611a54578182fd5b823567ffffffffffffffff811115611a6a578283fd5b611a7685828601611886565b90969095509350505050565b60008060008060408587031215611a97578384fd5b843567ffffffffffffffff80821115611aae578586fd5b611aba88838901611886565b90965094506020870135915080821115611ad2578384fd5b50611adf87828801611886565b95989497509550505050565b600060208284031215611afc578081fd5b81516118fe81611d9d565b600060208284031215611b18578081fd5b813561ffff811681146118fe578182fd5b600060208284031215611b3a578081fd5b5035919050565b600080600080600060a08688031215611b58578081fd5b853594506020860135935060408601359250611b766060870161186f565b91506080860135611b8681611d9d565b809150509295509295909350565b600080600080600060a08688031215611bab578283fd5b611bb4866118d0565b9450611bc26020870161186f565b9350611bd06040870161186f565b94979396509394606081013594506080013592915050565b600080600060608486031215611bfc578081fd5b611c05846118d0565b95602085013595506040909401359392505050565b6001600160a01b0394851681529290931660208301526040820152606081019190915260800190565b6001600160a01b0394909416845260208401929092526040830152606082015260800190565b60208082528181018390526000908460408401835b86811015611ca75763ffffffff611c94846118d0565b1682529183019190830190600101611c7e565b509695505050505050565b6020808252600f908201526e0dcdee840ecc2d8d2c840e6f2dce8d608b1b604082015260600190565b6020808252600990820152683737ba1030b236b4b760b91b604082015260600190565b60008219821115611d1157611d11611d87565b500190565b600082611d3157634e487b7160e01b81526012600452602481fd5b500490565b6000816000190483118215151615611d5057611d50611d87565b500290565b600082821015611d6757611d67611d87565b500390565b6000600019821415611d8057611d80611d87565b5060010190565b634e487b7160e01b600052601160045260246000fd5b8015158114611dab57600080fd5b5056fea264697066735822122003f4a04b70693e632f3eb85a57612d87160523f138f56dbed4946101a1c17eab64736f6c63430008030033",
  "immutableReferences": {},
  "source": "// SPDX-License-Identifier: MIT\n\npragma solidity 0.8.3;\n\nimport \"hardhat/console.sol\";\nimport \"@openzeppelin/contracts-upgradeable/token/ERC20/presets/ERC20PresetMinterPauserUpgradeable.sol\";\n\nimport \"./LongShort.sol\";\nimport \"./FloatToken.sol\";\nimport \"./interfaces/IStaker.sol\";\n\n/*\n    ###### Purpose of contract ########\n    This smart contract allows users to securely stake fTokens\n    that represent their synthetic exposure.\n\n    Staking sythentic tokens will ensure that the liquidity of the\n    synthetic market is increased, and entitle users to FLOAT rewards.\n*/\n\n/** @title Staker Contract (name is WIP) */\ncontract Staker is IStaker, Initializable {\n    struct RewardState {\n        uint256 timestamp;\n        uint256 accumulativeFloatPerToken;\n    }\n\n    ////////////////////////////////////\n    //////// CONSTANTS /////////////////\n    ////////////////////////////////////\n\n    // Controls the k-factor, a multiplier for incentivising early stakers.\n    //   token market index -> value\n    mapping(uint256 => uint256) public kFactorPeriods; // seconds\n    mapping(uint256 => uint256) public kFactorInitialMultipliers; // e18 scale\n\n    ////////////////////////////////////\n    //////// VARIABLES /////////////////\n    ////////////////////////////////////\n\n    // Global state.\n    address public admin;\n    address public floatCapital;\n    uint16 public floatPercentage;\n    uint256 public initialTimestamp;\n    LongShort public floatContract;\n    FloatToken public floatToken;\n\n    // User state.\n    //   token -> user -> value\n    mapping(address => mapping(address => uint256)) public userAmountStaked;\n    mapping(address => mapping(address => uint256))\n        public userIndexOfLastClaimedReward;\n\n    // Token state.\n    mapping(address => bool) syntheticValid; // token -> is valid?\n    mapping(address => uint32) public marketIndexOfToken; // token -> market index\n    mapping(address => mapping(uint256 => RewardState))\n        public syntheticRewardParams; // token -> index -> state\n    mapping(address => uint256) public latestRewardIndex; // token -> index\n\n    ////////////////////////////////////\n    /////////// EVENTS /////////////////\n    ////////////////////////////////////\n\n    event DeployV1(address floatToken);\n\n    event StateAdded(\n        address tokenAddress,\n        uint256 stateIndex,\n        uint256 timestamp,\n        uint256 accumulative\n    );\n\n    event StakeAdded(\n        address user,\n        address tokenAddress,\n        uint256 amount,\n        uint256 lastMintIndex\n    );\n\n    event StakeWithdrawn(address user, address tokenAddress, uint256 amount);\n\n    event FloatMinted(\n        address user,\n        address tokenAddress,\n        uint256 amount,\n        uint256 lastMintIndex\n    );\n\n    event KFactorParametersChanges(\n        uint32 marketIndex,\n        uint256 period,\n        uint256 multiplier\n    );\n\n    ////////////////////////////////////\n    /////////// MODIFIERS //////////////\n    ////////////////////////////////////\n\n    modifier onlyAdmin() {\n        require(msg.sender == admin, \"not admin\");\n        _;\n    }\n\n    modifier onlyValidSynthetic(address _synthAddress) {\n        require(syntheticValid[_synthAddress], \"not valid synth\");\n        _;\n    }\n\n    modifier onlyFloat() {\n        require(msg.sender == address(floatContract));\n        _;\n    }\n\n    ////////////////////////////////////\n    ///// CONTRACT SET-UP //////////////\n    ////////////////////////////////////\n\n    function initialize(\n        address _admin,\n        address _floatContract,\n        address _floatToken,\n        address _floatCapital\n    ) public initializer {\n        admin = _admin;\n        floatCapital = _floatCapital;\n        initialTimestamp = block.timestamp;\n        floatContract = LongShort(_floatContract);\n        floatToken = FloatToken(_floatToken);\n        floatPercentage = 1500;\n\n        emit DeployV1(_floatToken);\n    }\n\n    ////////////////////////////////////\n    /// MULTISIG ADMIN FUNCTIONS ///////\n    ////////////////////////////////////\n\n    function changeAdmin(address _admin) external onlyAdmin {\n        admin = _admin;\n    }\n\n    function changeFloatPercentage(uint16 _newPercentage) external onlyAdmin {\n        require(_newPercentage <= 10000);\n        floatPercentage = _newPercentage;\n    }\n\n    function changeKFactorParameters(\n        uint32 marketIndex,\n        uint256 period,\n        uint256 initialMultiplier\n    ) external onlyAdmin {\n        _changeKFactorParameters(marketIndex, period, initialMultiplier);\n    }\n\n    function _changeKFactorParameters(\n        uint32 marketIndex,\n        uint256 period,\n        uint256 initialMultiplier\n    ) internal {\n        require(\n            initialMultiplier >= 1e18,\n            \"Initial kFactorMultiplier must be >= 1e18\"\n        );\n\n        kFactorPeriods[marketIndex] = period;\n        kFactorInitialMultipliers[marketIndex] = initialMultiplier;\n\n        emit KFactorParametersChanges(marketIndex, period, initialMultiplier);\n    }\n\n    ////////////////////////////////////\n    /////////// STAKING SETUP //////////\n    ////////////////////////////////////\n\n    function addNewStakingFund(\n        uint32 marketIndex,\n        address longTokenAddress,\n        address shortTokenAddress,\n        uint256 kInitialMultiplier,\n        uint256 kPeriod\n    ) external override onlyFloat {\n        syntheticValid[longTokenAddress] = true;\n        syntheticValid[shortTokenAddress] = true;\n        marketIndexOfToken[longTokenAddress] = marketIndex;\n        marketIndexOfToken[shortTokenAddress] = marketIndex;\n\n        syntheticRewardParams[longTokenAddress][0].timestamp = block.timestamp;\n        syntheticRewardParams[longTokenAddress][0]\n            .accumulativeFloatPerToken = 0;\n\n        syntheticRewardParams[shortTokenAddress][0].timestamp = block.timestamp;\n        syntheticRewardParams[shortTokenAddress][0]\n            .accumulativeFloatPerToken = 0;\n\n        _changeKFactorParameters(marketIndex, kPeriod, kInitialMultiplier);\n\n        emit StateAdded(longTokenAddress, 0, block.timestamp, 0);\n        emit StateAdded(shortTokenAddress, 0, block.timestamp, 0);\n    }\n\n    ////////////////////////////////////\n    // GLOBAL REWARD STATE FUNCTIONS ///\n    ////////////////////////////////////\n\n    /*\n     * Computes the current 'r' value, i.e. the number of float tokens a user\n     * earns per second for every longshort token they've staked. The returned\n     * value has a fixed decimal scale of 1e42 (!!!) for numerical stability.\n     */\n    function calculateFloatPerSecond(\n        uint256 longValue,\n        uint256 shortValue,\n        uint256 tokenPrice, // price of the token\n        address token, // long or short token address\n        bool isLong // whether it's the long or short token\n    ) public view returns (uint256) {\n        // Edge-case: no float is issued in an empty market.\n        if (longValue == 0 && shortValue == 0) {\n            return 0;\n        }\n\n        // Parameters controlling the float issuance multiplier.\n        (uint256 kPeriod, uint256 kInitialMultiplier) =\n            getKFactorParameters(marketIndexOfToken[token]);\n\n        // Sanity check - under normal circumstances, the multipliers should\n        // *never* be set to a value < 1e18, as there are guards against this.\n        assert(kInitialMultiplier >= 1e18);\n\n        // A float issuance multiplier that starts high and decreases linearly\n        // over time to a value of 1. This incentivises users to stake early.\n        uint256 k = 1e18;\n        if (block.timestamp - initialTimestamp <= kPeriod) {\n            k =\n                kInitialMultiplier -\n                (((kInitialMultiplier - 1e18) *\n                    (block.timestamp - initialTimestamp)) / kPeriod);\n        }\n\n        // Float is scaled by the percentage of the total market value held in\n        // the opposite position. This incentivises users to stake on the\n        // weaker position.\n        if (isLong) {\n            return ((k * shortValue) * tokenPrice) / (longValue + shortValue);\n        } else {\n            return ((k * longValue) * tokenPrice) / (longValue + shortValue);\n        }\n    }\n\n    /*\n     * Returns the K factor parameters for the given market with sensible\n     * defaults if they haven't been set yet.\n     */\n    function getKFactorParameters(uint32 marketIndex)\n        internal\n        view\n        returns (uint256, uint256)\n    {\n        uint256 period = kFactorPeriods[marketIndex];\n        uint256 multiplier = kFactorInitialMultipliers[marketIndex];\n        if (multiplier == 0) {\n            multiplier = 1e18; // multiplier of 1 by default\n        }\n\n        return (period, multiplier);\n    }\n\n    /*\n     * Computes the time since last state point for the given token in seconds.\n     */\n    function calculateTimeDelta(address token) internal view returns (uint256) {\n        return\n            block.timestamp -\n            syntheticRewardParams[token][latestRewardIndex[token]].timestamp;\n    }\n\n    /*\n     * Computes new cumulative sum of 'r' value since last state point. We use\n     * cumulative 'r' value to avoid looping during issuance. Note that the\n     * cumulative sum is kept in 1e42 scale (!!!) to avoid numerical issues.\n     */\n    function calculateNewCumulative(\n        uint256 longValue,\n        uint256 shortValue,\n        uint256 tokenPrice,\n        address token, // either long or short token address\n        bool isLong // tells us which one\n    ) internal view returns (uint256) {\n        // Compute the current 'r' value for float issuance per second.\n        uint256 floatPerSecond =\n            calculateFloatPerSecond(\n                longValue,\n                shortValue,\n                tokenPrice,\n                token,\n                isLong\n            );\n\n        // Compute time since last state point for the given token.\n        uint256 timeDelta = calculateTimeDelta(token);\n\n        // Compute new cumulative 'r' value total.\n        return\n            syntheticRewardParams[token][latestRewardIndex[token]]\n                .accumulativeFloatPerToken + (timeDelta * floatPerSecond);\n    }\n\n    /*\n     * Creates a new state point for the given token and updates indexes.\n     */\n    function setRewardObjects(\n        uint256 longValue,\n        uint256 shortValue,\n        uint256 tokenPrice, // long or short token price\n        address token,\n        bool isLong\n    ) internal {\n        uint256 newIndex = latestRewardIndex[token] + 1;\n\n        // Set cumulative 'r' value on new state point.\n        syntheticRewardParams[token][newIndex]\n            .accumulativeFloatPerToken = calculateNewCumulative(\n            longValue,\n            shortValue,\n            tokenPrice,\n            token,\n            isLong\n        );\n\n        // Set timestamp on new state point.\n        syntheticRewardParams[token][newIndex].timestamp = block.timestamp;\n\n        // Update latest index to point to new state point.\n        latestRewardIndex[token] = newIndex;\n\n        emit StateAdded(\n            token,\n            newIndex,\n            block.timestamp,\n            syntheticRewardParams[token][newIndex].accumulativeFloatPerToken\n        );\n    }\n\n    /*\n     * Adds new state points for the given long/short tokens. Called by the\n     * LongShort contract whenever there is a state change for a market.\n     */\n    function addNewStateForFloatRewards(\n        address longToken,\n        address shortToken,\n        uint256 longPrice,\n        uint256 shortPrice,\n        uint256 longValue,\n        uint256 shortValue\n    ) external override onlyFloat {\n        // Only add a new state point if some time has passed.\n        if (calculateTimeDelta(longToken) > 0) {\n            setRewardObjects(longValue, shortValue, longPrice, longToken, true);\n            setRewardObjects(\n                longValue,\n                shortValue,\n                shortPrice,\n                shortToken,\n                false\n            );\n        }\n    }\n\n    ////////////////////////////////////\n    // USER REWARD STATE FUNCTIONS ///\n    ////////////////////////////////////\n\n    function calculateAccumulatedFloat(address tokenAddress, address user)\n        internal\n        view\n        returns (uint256)\n    {\n        // Don't let users accumulate float immediately after staking, before\n        // the next reward state is indexed.\n        if (\n            userIndexOfLastClaimedReward[tokenAddress][user] >=\n            latestRewardIndex[tokenAddress]\n        ) {\n            return 0;\n        }\n\n        uint256 accumDelta =\n            syntheticRewardParams[tokenAddress][latestRewardIndex[tokenAddress]]\n                .accumulativeFloatPerToken -\n                syntheticRewardParams[tokenAddress][\n                    userIndexOfLastClaimedReward[tokenAddress][user]\n                ]\n                    .accumulativeFloatPerToken;\n\n        return (accumDelta * userAmountStaked[tokenAddress][user]) / 1e42;\n    }\n\n    function _mintFloat(address user, uint256 floatToMint) internal {\n        floatToken.mint(user, floatToMint);\n        floatToken.mint(floatCapital, (floatToMint * floatPercentage) / 10000);\n    }\n\n    function mintAccumulatedFloat(address tokenAddress, address user) internal {\n        uint256 floatToMint = calculateAccumulatedFloat(tokenAddress, user);\n\n        if (floatToMint > 0) {\n            // stops them setting this forward\n            userIndexOfLastClaimedReward[tokenAddress][\n                user\n            ] = latestRewardIndex[tokenAddress];\n\n            _mintFloat(user, floatToMint);\n\n            emit FloatMinted(\n                user,\n                tokenAddress,\n                floatToMint,\n                latestRewardIndex[tokenAddress]\n            );\n        }\n    }\n\n    function claimFloat(address[] calldata tokenAddresses) public {\n        require(tokenAddresses.length <= 15); // Set some limit on loop length\n        uint256 floatTotal = 0;\n        for (uint256 i = 0; i < tokenAddresses.length; i++) {\n            uint256 floatToMint =\n                calculateAccumulatedFloat(tokenAddresses[i], msg.sender);\n\n            if (floatToMint > 0) {\n                // Set the user has claimed up until now.\n                userIndexOfLastClaimedReward[tokenAddresses[i]][\n                    msg.sender\n                ] = latestRewardIndex[tokenAddresses[i]];\n\n                floatTotal += floatToMint;\n\n                emit FloatMinted(\n                    msg.sender,\n                    tokenAddresses[i],\n                    floatToMint,\n                    latestRewardIndex[tokenAddresses[i]]\n                );\n            }\n        }\n        if (floatTotal > 0) {\n            _mintFloat(msg.sender, floatTotal);\n        }\n    }\n\n    // TODO: check if there is any gas benefit to this function over `claimFloatCustom`\n    function claimFloatImmediately(address[] calldata tokenAddresses) external {\n        for (uint256 i = 0; i < tokenAddresses.length; i++) {\n            floatContract._updateSystemState(\n                marketIndexOfToken[tokenAddresses[i]]\n            );\n        }\n        claimFloat(tokenAddresses);\n    }\n\n    function claimFloatCustom(\n        address[] calldata tokenAddresses,\n        uint32[] calldata marketIndexes\n    ) external {\n        floatContract._updateSystemStateMulti(marketIndexes);\n        claimFloat(tokenAddresses);\n    }\n\n    ////////////////////////////////////\n    /////////// STAKING ////////////////\n    ////////////////////////////////////\n\n    /*\n    Staking function.\n    User can stake (flexibly) and start earning float rewards.\n    Only approved float synthetic tokens can be staked.\n    Users can call this same function to \"top-up\" their stake.\n    */\n    function stakeDirect(address from, uint256 amount)\n        public\n        override\n        onlyValidSynthetic(msg.sender)\n    {\n        _stake(msg.sender, amount, from, true);\n    }\n\n    /*\n    Staking function.\n    User can stake (flexibly) and start earning float rewards.\n    Only approved float synthetic tokens can be staked.\n    Users can call this same function to \"top-up\" their stake.\n    */\n    function stake(address tokenAddress, uint256 amount)\n        public\n        onlyValidSynthetic(tokenAddress)\n    {\n        _stake(tokenAddress, amount, msg.sender, false);\n\n        // This currently disavatages people who top-up?\n        // Since they have capital locked that will skip a state of earning.\n        // This is very difficult for the top up case. Unless they create a state point,\n        // There is going to need to be some system compromise.\n        userIndexOfLastClaimedReward[tokenAddress][msg.sender] =\n            latestRewardIndex[tokenAddress] +\n            1;\n\n        emit StakeAdded(\n            msg.sender,\n            tokenAddress,\n            amount,\n            userIndexOfLastClaimedReward[tokenAddress][msg.sender]\n        );\n    }\n\n    /*\n    Staking function.\n    This is a more gas heavy staking function.\n    It ensures the user starts earning FLOAT immediately \n    As opposed to from the next state point generated.\n    */\n    function stakeAndEarnImmediately(address tokenAddress, uint256 amount)\n        external\n        onlyValidSynthetic(tokenAddress)\n    {\n        //First update state.\n        floatContract._updateSystemState(marketIndexOfToken[tokenAddress]);\n\n        // Stake for user.\n        _stake(tokenAddress, amount, msg.sender, false);\n\n        userIndexOfLastClaimedReward[tokenAddress][\n            msg.sender\n        ] = latestRewardIndex[tokenAddress];\n\n        // Now we can set the users reward state to the just created state.\n        userIndexOfLastClaimedReward[tokenAddress][\n            msg.sender\n        ] = latestRewardIndex[tokenAddress];\n        emit StakeAdded(\n            msg.sender,\n            tokenAddress,\n            amount,\n            userIndexOfLastClaimedReward[tokenAddress][msg.sender]\n        );\n    }\n\n    /**\n     * Stake tokens that have already been minted for the staker\n     */\n    function stakeTransferredTokens(\n        address tokenAddress,\n        uint256 amount,\n        address user\n    ) external override onlyFloat() onlyValidSynthetic(tokenAddress) {\n        _stake(tokenAddress, amount, user, true);\n\n        // NOTE: system state is already updated on the float side - make sure this function is impossible to call otherwise\n        userIndexOfLastClaimedReward[tokenAddress][user] = latestRewardIndex[\n            tokenAddress\n        ];\n        emit StakeAdded(\n            user,\n            tokenAddress,\n            amount,\n            userIndexOfLastClaimedReward[tokenAddress][user]\n        );\n    }\n\n    function _stake(\n        address tokenAddress,\n        uint256 amount,\n        address user,\n        bool alreadyTransferred\n    ) internal {\n        if (!alreadyTransferred) {\n            ERC20PresetMinterPauserUpgradeable(tokenAddress).transferFrom(\n                user,\n                address(this),\n                amount\n            );\n        }\n\n        // If they already have staked, calculate and award them their float.\n        if (userAmountStaked[tokenAddress][user] > 0) {\n            if (\n                userIndexOfLastClaimedReward[tokenAddress][user] <\n                latestRewardIndex[tokenAddress]\n            ) {\n                mintAccumulatedFloat(tokenAddress, user);\n            }\n        }\n\n        userAmountStaked[tokenAddress][user] =\n            userAmountStaked[tokenAddress][user] +\n            amount;\n    }\n\n    ////////////////////////////////////\n    /////// WITHDRAW n MINT ////////////\n    ////////////////////////////////////\n\n    /*\n    Withdraw function.\n    Mint user any outstanding float before\n    */\n    function _withdraw(address tokenAddress, uint256 amount) internal {\n        require(\n            userAmountStaked[tokenAddress][msg.sender] > 0,\n            \"nothing to withdraw\"\n        );\n        // Note when withdrawing, they will only accumulate float tokens up until the last\n        // state point that has been created. This is acceptable.\n        mintAccumulatedFloat(tokenAddress, msg.sender);\n\n        userAmountStaked[tokenAddress][msg.sender] =\n            userAmountStaked[tokenAddress][msg.sender] -\n            amount;\n\n        ERC20PresetMinterPauserUpgradeable(tokenAddress).transfer(\n            msg.sender,\n            amount\n        );\n\n        emit StakeWithdrawn(msg.sender, tokenAddress, amount);\n    }\n\n    function withdraw(address tokenAddress, uint256 amount) external {\n        _withdraw(tokenAddress, amount);\n    }\n\n    function withdrawAll(address tokenAddress, uint256 amount) external {\n        _withdraw(tokenAddress, userAmountStaked[tokenAddress][msg.sender]);\n    }\n}\n",
  "sourcePath": "/home/jasoons/Documents/code/monorepo/contracts/contracts/Staker.sol",
  "compiler": {
    "name": "solc",
    "version": "0.8.3+commit.8d00100c.Emscripten.clang"
  },
  "schemaVersion": "3.3.4",
  "updatedAt": "2021-04-13T12:09:35.847Z",
  "networkType": "ethereum",
  "devdoc": {
    "kind": "dev",
    "methods": {},
    "title": "Staker Contract (name is WIP) ",
    "version": 1
  },
  "userdoc": {
    "kind": "user",
    "methods": {
      "changeAdmin(address)": {
        "notice": "MULTISIG ADMIN FUNCTIONS ///////"
      },
      "stakeTransferredTokens(address,uint256,address)": {
        "notice": "Stake tokens that have already been minted for the staker"
      }
    },
    "version": 1
  }
}