{
  "contractName": "Staker",
  "abi": [
    {
      "anonymous": false,
      "inputs": [
        {
          "indexed": false,
          "internalType": "address",
          "name": "floatToken",
          "type": "address"
        }
      ],
      "name": "DeployV1",
      "type": "event"
    },
    {
      "anonymous": false,
      "inputs": [
        {
          "indexed": false,
          "internalType": "address",
          "name": "user",
          "type": "address"
        },
        {
          "indexed": false,
          "internalType": "uint32",
          "name": "marketIndex",
          "type": "uint32"
        },
        {
          "indexed": false,
          "internalType": "uint256",
          "name": "amountLong",
          "type": "uint256"
        },
        {
          "indexed": false,
          "internalType": "uint256",
          "name": "amountShort",
          "type": "uint256"
        },
        {
          "indexed": false,
          "internalType": "uint256",
          "name": "lastMintIndex",
          "type": "uint256"
        }
      ],
      "name": "FloatMinted",
      "type": "event"
    },
    {
      "anonymous": false,
      "inputs": [
        {
          "indexed": false,
          "internalType": "uint32",
          "name": "marketIndex",
          "type": "uint32"
        },
        {
          "indexed": false,
          "internalType": "uint256",
          "name": "period",
          "type": "uint256"
        },
        {
          "indexed": false,
          "internalType": "uint256",
          "name": "multiplier",
          "type": "uint256"
        }
      ],
      "name": "MarketLaunchIncentiveParametersChanges",
      "type": "event"
    },
    {
      "anonymous": false,
      "inputs": [
        {
          "indexed": false,
          "internalType": "address",
          "name": "user",
          "type": "address"
        },
        {
          "indexed": false,
          "internalType": "address",
          "name": "token",
          "type": "address"
        },
        {
          "indexed": false,
          "internalType": "uint256",
          "name": "amount",
          "type": "uint256"
        },
        {
          "indexed": false,
          "internalType": "uint256",
          "name": "lastMintIndex",
          "type": "uint256"
        }
      ],
      "name": "StakeAdded",
      "type": "event"
    },
    {
      "anonymous": false,
      "inputs": [
        {
          "indexed": false,
          "internalType": "address",
          "name": "user",
          "type": "address"
        },
        {
          "indexed": false,
          "internalType": "address",
          "name": "token",
          "type": "address"
        },
        {
          "indexed": false,
          "internalType": "uint256",
          "name": "amount",
          "type": "uint256"
        }
      ],
      "name": "StakeWithdrawn",
      "type": "event"
    },
    {
      "anonymous": false,
      "inputs": [
        {
          "indexed": false,
          "internalType": "uint32",
          "name": "marketIndex",
          "type": "uint32"
        },
        {
          "indexed": false,
          "internalType": "uint256",
          "name": "stateIndex",
          "type": "uint256"
        },
        {
          "indexed": false,
          "internalType": "uint256",
          "name": "timestamp",
          "type": "uint256"
        },
        {
          "indexed": false,
          "internalType": "uint256",
          "name": "accumulativeLong",
          "type": "uint256"
        },
        {
          "indexed": false,
          "internalType": "uint256",
          "name": "accumulativeShort",
          "type": "uint256"
        }
      ],
      "name": "StateAdded",
      "type": "event"
    },
    {
      "inputs": [],
      "name": "FLOAT_ISSUANCE_FIXED_DECIMAL",
      "outputs": [
        {
          "internalType": "uint256",
          "name": "",
          "type": "uint256"
        }
      ],
      "stateMutability": "view",
      "type": "function",
      "constant": true
    },
    {
      "inputs": [],
      "name": "admin",
      "outputs": [
        {
          "internalType": "address",
          "name": "",
          "type": "address"
        }
      ],
      "stateMutability": "view",
      "type": "function",
      "constant": true
    },
    {
      "inputs": [],
      "name": "floatCapital",
      "outputs": [
        {
          "internalType": "address",
          "name": "",
          "type": "address"
        }
      ],
      "stateMutability": "view",
      "type": "function",
      "constant": true
    },
    {
      "inputs": [],
      "name": "floatPercentage",
      "outputs": [
        {
          "internalType": "uint16",
          "name": "",
          "type": "uint16"
        }
      ],
      "stateMutability": "view",
      "type": "function",
      "constant": true
    },
    {
      "inputs": [],
      "name": "floatToken",
      "outputs": [
        {
          "internalType": "contract IFloatToken",
          "name": "",
          "type": "address"
        }
      ],
      "stateMutability": "view",
      "type": "function",
      "constant": true
    },
    {
      "inputs": [],
      "name": "initialTimestamp",
      "outputs": [
        {
          "internalType": "uint256",
          "name": "",
          "type": "uint256"
        }
      ],
      "stateMutability": "view",
      "type": "function",
      "constant": true
    },
    {
      "inputs": [
        {
          "internalType": "uint32",
          "name": "",
          "type": "uint32"
        }
      ],
      "name": "latestRewardIndex",
      "outputs": [
        {
          "internalType": "uint256",
          "name": "",
          "type": "uint256"
        }
      ],
      "stateMutability": "view",
      "type": "function",
      "constant": true
    },
    {
      "inputs": [],
      "name": "longShortCoreContract",
      "outputs": [
        {
          "internalType": "contract ILongShort",
          "name": "",
          "type": "address"
        }
      ],
      "stateMutability": "view",
      "type": "function",
      "constant": true
    },
    {
      "inputs": [
        {
          "internalType": "contract ISyntheticToken",
          "name": "",
          "type": "address"
        }
      ],
      "name": "marketIndexOfToken",
      "outputs": [
        {
          "internalType": "uint32",
          "name": "",
          "type": "uint32"
        }
      ],
      "stateMutability": "view",
      "type": "function",
      "constant": true
    },
    {
      "inputs": [
        {
          "internalType": "uint256",
          "name": "",
          "type": "uint256"
        }
      ],
      "name": "marketLaunchIncentiveMultipliers",
      "outputs": [
        {
          "internalType": "uint256",
          "name": "",
          "type": "uint256"
        }
      ],
      "stateMutability": "view",
      "type": "function",
      "constant": true
    },
    {
      "inputs": [
        {
          "internalType": "uint256",
          "name": "",
          "type": "uint256"
        }
      ],
      "name": "marketLaunchIncentivePeriod",
      "outputs": [
        {
          "internalType": "uint256",
          "name": "",
          "type": "uint256"
        }
      ],
      "stateMutability": "view",
      "type": "function",
      "constant": true
    },
    {
      "inputs": [
        {
          "internalType": "uint32",
          "name": "",
          "type": "uint32"
        },
        {
          "internalType": "uint256",
          "name": "",
          "type": "uint256"
        }
      ],
      "name": "syntheticRewardParams",
      "outputs": [
        {
          "internalType": "uint256",
          "name": "timestamp",
          "type": "uint256"
        },
        {
          "internalType": "uint256",
          "name": "accumulativeFloatPerLongToken",
          "type": "uint256"
        },
        {
          "internalType": "uint256",
          "name": "accumulativeFloatPerShortToken",
          "type": "uint256"
        }
      ],
      "stateMutability": "view",
      "type": "function",
      "constant": true
    },
    {
      "inputs": [
        {
          "internalType": "uint32",
          "name": "",
          "type": "uint32"
        }
      ],
      "name": "syntheticTokens",
      "outputs": [
        {
          "internalType": "contract ISyntheticToken",
          "name": "shortToken",
          "type": "address"
        },
        {
          "internalType": "contract ISyntheticToken",
          "name": "longToken",
          "type": "address"
        }
      ],
      "stateMutability": "view",
      "type": "function",
      "constant": true
    },
    {
      "inputs": [
        {
          "internalType": "contract ISyntheticToken",
          "name": "",
          "type": "address"
        },
        {
          "internalType": "address",
          "name": "",
          "type": "address"
        }
      ],
      "name": "userAmountStaked",
      "outputs": [
        {
          "internalType": "uint256",
          "name": "",
          "type": "uint256"
        }
      ],
      "stateMutability": "view",
      "type": "function",
      "constant": true
    },
    {
      "inputs": [
        {
          "internalType": "uint32",
          "name": "",
          "type": "uint32"
        },
        {
          "internalType": "address",
          "name": "",
          "type": "address"
        }
      ],
      "name": "userIndexOfLastClaimedReward",
      "outputs": [
        {
          "internalType": "uint256",
          "name": "",
          "type": "uint256"
        }
      ],
      "stateMutability": "view",
      "type": "function",
      "constant": true
    },
    {
      "inputs": [
        {
          "internalType": "address",
          "name": "_admin",
          "type": "address"
        },
        {
          "internalType": "address",
          "name": "_longShortCoreContract",
          "type": "address"
        },
        {
          "internalType": "address",
          "name": "_floatToken",
          "type": "address"
        },
        {
          "internalType": "address",
          "name": "_floatCapital",
          "type": "address"
        }
      ],
      "name": "initialize",
      "outputs": [],
      "stateMutability": "nonpayable",
      "type": "function"
    },
    {
      "inputs": [
        {
          "internalType": "address",
          "name": "_admin",
          "type": "address"
        }
      ],
      "name": "changeAdmin",
      "outputs": [],
      "stateMutability": "nonpayable",
      "type": "function"
    },
    {
      "inputs": [
        {
          "internalType": "uint16",
          "name": "_newPercentage",
          "type": "uint16"
        }
      ],
      "name": "changeFloatPercentage",
      "outputs": [],
      "stateMutability": "nonpayable",
      "type": "function"
    },
    {
      "inputs": [
        {
          "internalType": "uint32",
          "name": "marketIndex",
          "type": "uint32"
        },
        {
          "internalType": "uint256",
          "name": "period",
          "type": "uint256"
        },
        {
          "internalType": "uint256",
          "name": "initialMultiplier",
          "type": "uint256"
        }
      ],
      "name": "changeMarketLaunchIncentiveParameters",
      "outputs": [],
      "stateMutability": "nonpayable",
      "type": "function"
    },
    {
      "inputs": [
        {
          "internalType": "uint32",
          "name": "marketIndex",
          "type": "uint32"
        },
        {
          "internalType": "contract ISyntheticToken",
          "name": "longToken",
          "type": "address"
        },
        {
          "internalType": "contract ISyntheticToken",
          "name": "shortToken",
          "type": "address"
        },
        {
          "internalType": "uint256",
          "name": "kInitialMultiplier",
          "type": "uint256"
        },
        {
          "internalType": "uint256",
          "name": "kPeriod",
          "type": "uint256"
        }
      ],
      "name": "addNewStakingFund",
      "outputs": [],
      "stateMutability": "nonpayable",
      "type": "function"
    },
    {
      "inputs": [
        {
          "internalType": "uint256",
          "name": "longValue",
          "type": "uint256"
        },
        {
          "internalType": "uint256",
          "name": "shortValue",
          "type": "uint256"
        },
        {
          "internalType": "uint256",
          "name": "longPrice",
          "type": "uint256"
        },
        {
          "internalType": "uint256",
          "name": "shortPrice",
          "type": "uint256"
        },
        {
          "internalType": "uint32",
          "name": "marketIndex",
          "type": "uint32"
        }
      ],
      "name": "calculateFloatPerSecond",
      "outputs": [
        {
          "internalType": "uint256",
          "name": "longFloatPerSecond",
          "type": "uint256"
        },
        {
          "internalType": "uint256",
          "name": "shortFloatPerSecond",
          "type": "uint256"
        }
      ],
      "stateMutability": "view",
      "type": "function",
      "constant": true
    },
    {
      "inputs": [
        {
          "internalType": "uint32",
          "name": "marketIndex",
          "type": "uint32"
        },
        {
          "internalType": "uint256",
          "name": "longPrice",
          "type": "uint256"
        },
        {
          "internalType": "uint256",
          "name": "shortPrice",
          "type": "uint256"
        },
        {
          "internalType": "uint256",
          "name": "longValue",
          "type": "uint256"
        },
        {
          "internalType": "uint256",
          "name": "shortValue",
          "type": "uint256"
        }
      ],
      "name": "addNewStateForFloatRewards",
      "outputs": [],
      "stateMutability": "nonpayable",
      "type": "function"
    },
    {
      "inputs": [
        {
          "internalType": "uint32[]",
          "name": "marketIndexes",
          "type": "uint32[]"
        }
      ],
      "name": "claimFloatCustom",
      "outputs": [],
      "stateMutability": "nonpayable",
      "type": "function"
    },
    {
      "inputs": [
        {
          "internalType": "address",
          "name": "from",
          "type": "address"
        },
        {
          "internalType": "uint256",
          "name": "amount",
          "type": "uint256"
        }
      ],
      "name": "stakeFromUser",
      "outputs": [],
      "stateMutability": "nonpayable",
      "type": "function"
    },
    {
      "inputs": [
        {
          "internalType": "contract ISyntheticToken",
          "name": "token",
          "type": "address"
        },
        {
          "internalType": "uint256",
          "name": "amount",
          "type": "uint256"
        },
        {
          "internalType": "address",
          "name": "user",
          "type": "address"
        }
      ],
      "name": "stakeFromMint",
      "outputs": [],
      "stateMutability": "nonpayable",
      "type": "function"
    },
    {
      "inputs": [
        {
          "internalType": "contract ISyntheticToken",
          "name": "token",
          "type": "address"
        },
        {
          "internalType": "uint256",
          "name": "amount",
          "type": "uint256"
        }
      ],
      "name": "withdraw",
      "outputs": [],
      "stateMutability": "nonpayable",
      "type": "function"
    },
    {
      "inputs": [
        {
          "internalType": "contract ISyntheticToken",
          "name": "token",
          "type": "address"
        }
      ],
      "name": "withdrawAll",
      "outputs": [],
      "stateMutability": "nonpayable",
      "type": "function"
    }
  ],
  "bytecode": "0x608060405234801561001057600080fd5b50611c84806100206000396000f3fe608060405234801561001057600080fd5b50600436106101a95760003560e01c8063d679b042116100f9578063f3fef3a311610097578063f997e5d311610071578063f997e5d314610477578063fa09e6301461048a578063fc8615661461049d578063fd6e8206146104b0576101a9565b8063f3fef3a31461043e578063f851a44014610451578063f8c8765e14610464576101a9565b8063e39ac044116100d3578063e39ac044146103e5578063e68f3dbe14610405578063eae5a8d914610418578063ebe6ca9d1461042b576101a9565b8063d679b042146103a1578063d6d14171146103c9578063d84593e5146103d2576101a9565b806386cbde1f11610166578063b777fae611610140578063b777fae614610318578063ba324d9f1461032b578063ba89f7b81461034b578063c17f8ce914610376576101a9565b806386cbde1f146102975780638f283970146102b0578063947c29f6146102c3576101a9565b806315f2081d146101ae57806351384b4e146101ee5780635892457d1461021c5780635ac76ce1146102445780636d1ce3ee1461026f578063738f4b8e14610284575b600080fd5b6101d46101bc3660046117df565b60906020526000908152604090205463ffffffff1681565b60405163ffffffff90911681526020015b60405180910390f35b61020e6101fc3660046119b3565b60026020526000908152604090205481565b6040519081526020016101e5565b60315461023190600160a01b900461ffff1681565b60405161ffff90911681526020016101e5565b61020e610252366004611a2d565b60be60209081526000928352604080842090915290825290205481565b61028261027d366004611aed565b610504565b005b610282610292366004611888565b610540565b61020e710b7abc627050305adf14a3d9e4000000000081565b6102826102be3660046117df565b6105c0565b6102fd6102d1366004611aa0565b60c060209081526000928352604080842090915290825290208054600182015460029092015490919083565b604080519384526020840192909252908201526060016101e5565b610282610326366004611991565b610615565b61020e6103393660046119b3565b60016020526000908152604090205481565b60315461035e906001600160a01b031681565b6040516001600160a01b0390911681526020016101e5565b61020e610384366004611918565b606260209081526000928352604080842090915290825290205481565b6103b46103af3660046119cb565b610674565b604080519283526020830191909152016101e5565b61020e60325481565b6102826103e0366004611abb565b6106ff565b61020e6103f3366004611a13565b60c16020526000908152604090205481565b61028261041336600461185d565b610739565b60345461035e906001600160a01b031681565b610282610439366004611a48565b6107a1565b61028261044c36600461185d565b6108bb565b60305461035e906001600160a01b031681565b610282610472366004611802565b6108ce565b60335461035e906001600160a01b031681565b6102826104983660046117df565b610a18565b6102826104ab366004611950565b610a53565b6104e46104be366004611a13565b60bf60205260009081526040902080546001909101546001600160a01b03918216911682565b604080516001600160a01b039384168152929091166020830152016101e5565b6033546001600160a01b0316331461051b57600080fd5b600061052686610ada565b1115610539576105398282868689610b14565b5050505050565b603281111561054e57600080fd5b60335460405163d8d3ded160e01b81526001600160a01b039091169063d8d3ded1906105809085908590600401611b2e565b600060405180830381600087803b15801561059a57600080fd5b505af11580156105ae573d6000803e3d6000fd5b505050506105bc8282610be3565b5050565b6030546001600160a01b031633146105f35760405162461bcd60e51b81526004016105ea90611b77565b60405180910390fd5b603080546001600160a01b0319166001600160a01b0392909216919091179055565b6030546001600160a01b0316331461063f5760405162461bcd60e51b81526004016105ea90611b77565b6127108161ffff16111561065257600080fd5b6031805461ffff909216600160a01b0261ffff60a01b19909216919091179055565b60008086158015610683575085155b15610693575060009050806106f5565b600061069e84610e0f565b905060006106ac888a611b9a565b905080876106ba8a85611bd2565b6106c49190611bd2565b6106ce9190611bb2565b81876106da8c86611bd2565b6106e49190611bd2565b6106ee9190611bb2565b9350935050505b9550959350505050565b6030546001600160a01b031633146107295760405162461bcd60e51b81526004016105ea90611b77565b610734838383610eb5565b505050565b3360008181526090602052604090205463ffffffff1661078d5760405162461bcd60e51b815260206004820152600f60248201526e0dcdee840ecc2d8d2c840e6f2dce8d608b1b60448201526064016105ea565b61079633610f8d565b610734338385610fff565b6033546001600160a01b031633146107b857600080fd5b6001600160a01b038085166000818152609060209081526040808320805463ffffffff8c1663ffffffff1991821681179092559589168085528285208054909716821790965580845260c0835281842084805283528184204281556001818101869055600290910185905590845260bf90925290912090810180546001600160a01b0319908116909317905580549091169091179055610859858284610eb5565b6040805163ffffffff8716815260006020820181905242928201929092526060810182905260808101919091527f410021739f5042238a2cf44c95dfc59d80366606943a2d4e41334c8a82288cc19060a0015b60405180910390a15050505050565b6108c482610f8d565b6105bc828261114e565b600054610100900460ff16806108e7575060005460ff16155b61094a5760405162461bcd60e51b815260206004820152602e60248201527f496e697469616c697a61626c653a20636f6e747261637420697320616c72656160448201526d191e481a5b9a5d1a585b1a5e995960921b60648201526084016105ea565b600054610100900460ff1615801561096c576000805461ffff19166101011790555b603080546001600160a01b038781166001600160a01b0319928316179092556031805442603255603380548986169085161790556034805488861694168417905561017760a21b6001600160b01b031990911693861693909317929092179091556040519081527f33e61a5ca0ab730cf48ad851505059983582d3512d66de94f246b06df7e704369060200160405180910390a18015610539576000805461ff00191690555050505050565b610a2181610f8d565b6001600160a01b0381166000908152606260209081526040808320338452909152902054610a5090829061114e565b50565b6033546001600160a01b03163314610a6a57600080fd5b6001600160a01b038316600090815260906020526040902054839063ffffffff16610ac95760405162461bcd60e51b815260206004820152600f60248201526e0dcdee840ecc2d8d2c840e6f2dce8d608b1b60448201526064016105ea565b610ad4848484610fff565b50505050565b63ffffffff8116600090815260c06020908152604080832060c18352818420548452909152812054610b0c9042611bf1565b90505b919050565b600080610b2487878787876112e5565b63ffffffff8516600090815260c1602052604081205492945090925090610b4c906001611b9a565b63ffffffff8516600081815260c06020908152604080832085845282528083206001810189905560028101889055429081905584845260c1835292819020859055805193845290830184905282015260608101859052608081018490529091507f410021739f5042238a2cf44c95dfc59d80366606943a2d4e41334c8a82288cc19060a00160405180910390a15050505050505050565b6000805b82811015610dfe57600080610c30868685818110610c1557634e487b7160e01b600052603260045260246000fd5b9050602002016020810190610c2a9190611a13565b33611398565b90925090506000610c418284611b9a565b90508015610de85760c16000888887818110610c6d57634e487b7160e01b600052603260045260246000fd5b9050602002016020810190610c829190611a13565b63ffffffff1663ffffffff1681526020019081526020016000205460be6000898988818110610cc157634e487b7160e01b600052603260045260246000fd5b9050602002016020810190610cd69190611a13565b63ffffffff16815260208082019290925260409081016000908120338252909252902055610d048186611b9a565b94507f509b9c1618234e6c3daf857164c2191afb2a74f34bb850c840ab12e61a6b887433888887818110610d4857634e487b7160e01b600052603260045260246000fd5b9050602002016020810190610d5d9190611a13565b858560c160008d8d8c818110610d8357634e487b7160e01b600052603260045260246000fd5b9050602002016020810190610d989190611a13565b63ffffffff908116825260208083019390935260409182016000205482516001600160a01b0390981688529516918601919091528401919091526060830152608082015260a00160405180910390a15b5050508080610df690611c08565b915050610be7565b5080156107345761073433826115b5565b6000806000610e1d846116bc565b91509150670de0b6b3a7640000811015610e4757634e487b7160e01b600052600160045260246000fd5b8160325442610e569190611bf1565b11610ea3578160325442610e6a9190611bf1565b610e7c670de0b6b3a764000084611bf1565b610e869190611bd2565b610e909190611bb2565b610e9a9082611bf1565b92505050610b0f565b670de0b6b3a764000092505050610b0f565b670de0b6b3a7640000811015610f255760405162461bcd60e51b815260206004820152602f60248201527f6d61726b65744c61756e6368496e63656e746976654d756c7469706c6965722060448201526e0daeae6e840c4ca407c7a4062ca627608b1b60648201526084016105ea565b63ffffffff8316600081815260016020908152604080832086905560028252918290208490558151928352820184905281018290527fa1d30e827392d7c605768dc1c77c5dfbf58180ca1bb944ecfc8155765b7f53ca906060015b60405180910390a1505050565b6033546001600160a01b038281166000908152609060205260409081902054905163581d90a160e11b815263ffffffff909116600482015291169063b03b214290602401600060405180830381600087803b158015610feb57600080fd5b505af1158015610539573d6000803e3d6000fd5b6001600160a01b0380841660009081526090602090815260408083205463ffffffff1680845260be835281842094861684529390915290205415801590611076575063ffffffff8116600090815260c1602090815260408083205460be83528184206001600160a01b038716855290925290912054105b156110855761108581836116fa565b6001600160a01b038085166000908152606260209081526040808320938616835292905220546110b6908490611b9a565b6001600160a01b0385811660008181526062602090815260408083209488168084529482528083209590955563ffffffff8616825260c181528482205460be82528583208584528252918590208290558451938452830191909152818301869052606082015290517fef7c8dfef14cbefdf829b8f066b068b677992411137321d64b3ed4538c2b36379181900360800190a150505050565b6001600160a01b038216600090815260906020908152604080832054606283528184203385529092529091205463ffffffff909116906111c65760405162461bcd60e51b81526020600482015260136024820152726e6f7468696e6720746f20776974686472617760681b60448201526064016105ea565b6111d081336116fa565b6001600160a01b03831660009081526062602090815260408083203384529091529020546111ff908390611bf1565b6001600160a01b038416600081815260626020908152604080832033808552925291829020939093555163a9059cbb60e01b81526004810192909252602482018490529063a9059cbb90604401602060405180830381600087803b15801561126657600080fd5b505af115801561127a573d6000803e3d6000fd5b505050506040513d601f19601f8201168201806040525081019061129e91906118f8565b50604080513381526001600160a01b03851660208201529081018390527fb7c918e0e249f999e965cafeb6c664271b3f4317d296461500e71da39f0cbda390606001610f80565b6000806000806112f88989898989610674565b91509150600061130786610ada565b90506113138382611bd2565b63ffffffff8716600090815260c06020908152604080832060c183528184205484529091529020600101546113489190611b9a565b6113528383611bd2565b63ffffffff8816600090815260c06020908152604080832060c183528184205484529091529020600201546113879190611b9a565b945094505050509550959350505050565b63ffffffff8216600090815260c1602090815260408083205460be83528184206001600160a01b0386168552909252822054829114156113dd575060009050806115ae565b63ffffffff8416600090815260c1602090815260408083205460be83528184206001600160a01b0388168552909252909120541061142b57634e487b7160e01b600052600160045260246000fd5b63ffffffff8416600090815260bf60209081526040808320600181015490546001600160a01b0391821680865260628086528487208a8516808952908752858820549390941680885290865284872093875292909452919093205491929181156115195763ffffffff8816600081815260c06020908152604080832060be83528184206001600160a01b038d168552835281842054845280835281842060019081015495855260c1845282852054855292528220015490916114ec91611bf1565b9050710b7abc627050305adf14a3d9e4000000000061150b8483611bd2565b6115159190611bb2565b9650505b80156115a95763ffffffff8816600081815260c06020908152604080832060be83528184206001600160a01b038d168552835281842054845280835281842060029081015495855260c18452828520548552925282200154909161157c91611bf1565b9050710b7abc627050305adf14a3d9e4000000000061159b8383611bd2565b6115a59190611bb2565b9550505b505050505b9250929050565b6034546040516340c10f1960e01b81526001600160a01b03848116600483015260248201849052909116906340c10f1990604401600060405180830381600087803b15801561160357600080fd5b505af1158015611617573d6000803e3d6000fd5b50506034546031546001600160a01b0391821693506340c10f199250908116906127109061165090600160a01b900461ffff1686611bd2565b61165a9190611bb2565b6040516001600160e01b031960e085901b1681526001600160a01b0390921660048301526024820152604401600060405180830381600087803b1580156116a057600080fd5b505af11580156116b4573d6000803e3d6000fd5b505050505050565b63ffffffff81166000908152600160209081526040808320546002909252822054829190806116f05750670de0b6b3a76400005b9092509050915091565b6000806117078433611398565b909250905060006117188284611b9a565b905080156105395763ffffffff8516600090815260c1602090815260408083205460be83528184206001600160a01b03891685529092529091205561175d84826115b5565b63ffffffff8516600081815260c160209081526040918290205482516001600160a01b0389168152918201939093529081018590526060810184905260808101919091527f509b9c1618234e6c3daf857164c2191afb2a74f34bb850c840ab12e61a6b88749060a0016108ac565b803563ffffffff81168114610b0f57600080fd5b6000602082840312156117f0578081fd5b81356117fb81611c39565b9392505050565b60008060008060808587031215611817578283fd5b843561182281611c39565b9350602085013561183281611c39565b9250604085013561184281611c39565b9150606085013561185281611c39565b939692955090935050565b6000806040838503121561186f578182fd5b823561187a81611c39565b946020939093013593505050565b6000806020838503121561189a578182fd5b823567ffffffffffffffff808211156118b1578384fd5b818501915085601f8301126118c4578384fd5b8135818111156118d2578485fd5b8660208260051b85010111156118e6578485fd5b60209290920196919550909350505050565b600060208284031215611909578081fd5b815180151581146117fb578182fd5b6000806040838503121561192a578182fd5b823561193581611c39565b9150602083013561194581611c39565b809150509250929050565b600080600060608486031215611964578283fd5b833561196f81611c39565b925060208401359150604084013561198681611c39565b809150509250925092565b6000602082840312156119a2578081fd5b813561ffff811681146117fb578182fd5b6000602082840312156119c4578081fd5b5035919050565b600080600080600060a086880312156119e2578081fd5b85359450602086013593506040860135925060608601359150611a07608087016117cb565b90509295509295909350565b600060208284031215611a24578081fd5b6117fb826117cb565b60008060408385031215611a3f578182fd5b611935836117cb565b600080600080600060a08688031215611a5f578081fd5b611a68866117cb565b94506020860135611a7881611c39565b93506040860135611a8881611c39565b94979396509394606081013594506080013592915050565b60008060408385031215611ab2578182fd5b61187a836117cb565b600080600060608486031215611acf578081fd5b611ad8846117cb565b95602085013595506040909401359392505050565b600080600080600060a08688031215611b04578283fd5b611b0d866117cb565b97602087013597506040870135966060810135965060800135945092505050565b60208082528181018390526000908460408401835b86811015611b6c5763ffffffff611b59846117cb565b1682529183019190830190600101611b43565b509695505050505050565b6020808252600990820152683737ba1030b236b4b760b91b604082015260600190565b60008219821115611bad57611bad611c23565b500190565b600082611bcd57634e487b7160e01b81526012600452602481fd5b500490565b6000816000190483118215151615611bec57611bec611c23565b500290565b600082821015611c0357611c03611c23565b500390565b6000600019821415611c1c57611c1c611c23565b5060010190565b634e487b7160e01b600052601160045260246000fd5b6001600160a01b0381168114610a5057600080fdfea2646970667358221220cde8dc43659ca52c8049d403ccb6f45f1efc98a8446fa1c67b6e0fd9fd80d50f64736f6c63430008030033",
  "immutableReferences": {},
  "source": "// SPDX-License-Identifier: BUSL-1.1\n\npragma solidity 0.8.3;\n\nimport \"hardhat/console.sol\";\nimport \"@openzeppelin/contracts-upgradeable/token/ERC20/presets/ERC20PresetMinterPauserUpgradeable.sol\";\n\nimport \"./interfaces/IFloatToken.sol\";\nimport \"./interfaces/ILongShort.sol\";\nimport \"./interfaces/IStaker.sol\";\n\n/*\n    ###### Purpose of contract ########\n    This smart contract allows users to securely stake synthetic asset\n    tokens created through the float protocol.\n\n    Staking sythentic tokens will ensure that the liquidity of the\n    synthetic market is increased, and entitle users to FLOAT rewards.\n*/\n\n/** @title Staker Contract */\ncontract Staker is IStaker, Initializable {\n    struct RewardState {\n        uint256 timestamp;\n        uint256 accumulativeFloatPerLongToken;\n        uint256 accumulativeFloatPerShortToken;\n    }\n    struct SyntheticTokens {\n        ISyntheticToken shortToken;\n        ISyntheticToken longToken;\n    }\n\n    ////////////////////////////////////\n    //////// CONSTANTS /////////////////\n    ////////////////////////////////////\n\n    // Controls the k-factor, a multiplier for incentivising early stakers.\n    //   token market index -> value\n    uint256 public constant FLOAT_ISSUANCE_FIXED_DECIMAL = 1e42;\n    mapping(uint256 => uint256) public marketLaunchIncentivePeriod; // seconds\n    mapping(uint256 => uint256) public marketLaunchIncentiveMultipliers; // e18 scale\n    uint256[45] private __stakeParametersGap;\n\n    ////////////////////////////////////\n    //////// VARIABLES /////////////////\n    ////////////////////////////////////\n\n    // Global state.\n    address public admin;\n    address public floatCapital;\n    uint16 public floatPercentage;\n    uint256 public initialTimestamp;\n    ILongShort public longShortCoreContract;\n    IFloatToken public floatToken;\n    uint256[45] private __globalParamsGap;\n\n    // User state.\n    //   token -> user -> value\n    mapping(ISyntheticToken => mapping(address => uint256))\n        public userAmountStaked;\n    uint256[45] private __userInfoGap;\n\n    // Token state.\n    mapping(ISyntheticToken => uint32) public marketIndexOfToken; // token -> market index\n    uint256[45] private __tokenInfoGap;\n\n    // market state.\n    mapping(uint32 => mapping(address => uint256))\n        public userIndexOfLastClaimedReward;\n    mapping(uint32 => SyntheticTokens) public syntheticTokens; // token -> index -> state\n    mapping(uint32 => mapping(uint256 => RewardState))\n        public syntheticRewardParams; // token -> index -> state\n    mapping(uint32 => uint256) public latestRewardIndex; // token -> index\n\n    ////////////////////////////////////\n    /////////// EVENTS /////////////////\n    ////////////////////////////////////\n\n    event DeployV1(address floatToken);\n\n    event StateAdded(\n        uint32 marketIndex,\n        uint256 stateIndex,\n        uint256 timestamp,\n        uint256 accumulativeLong,\n        uint256 accumulativeShort\n    );\n\n    event StakeAdded(\n        address user,\n        address token,\n        uint256 amount,\n        uint256 lastMintIndex\n    );\n\n    event StakeWithdrawn(address user, address token, uint256 amount);\n\n    event FloatMinted(\n        address user,\n        uint32 marketIndex,\n        uint256 amountLong,\n        uint256 amountShort,\n        uint256 lastMintIndex\n    );\n\n    event MarketLaunchIncentiveParametersChanges(\n        uint32 marketIndex,\n        uint256 period,\n        uint256 multiplier\n    );\n\n    ////////////////////////////////////\n    /////////// MODIFIERS //////////////\n    ////////////////////////////////////\n\n    modifier onlyAdmin() {\n        require(msg.sender == admin, \"not admin\");\n        _;\n    }\n\n    modifier onlyValidSynthetic(ISyntheticToken _synth) {\n        require(marketIndexOfToken[_synth] != 0, \"not valid synth\");\n        _;\n    }\n\n    modifier onlyFloat() {\n        require(msg.sender == address(longShortCoreContract));\n        _;\n    }\n\n    ////////////////////////////////////\n    ///// CONTRACT SET-UP //////////////\n    ////////////////////////////////////\n\n    function initialize(\n        address _admin,\n        address _longShortCoreContract,\n        address _floatToken,\n        address _floatCapital\n    ) public initializer {\n        admin = _admin;\n        floatCapital = _floatCapital;\n        initialTimestamp = block.timestamp;\n        longShortCoreContract = ILongShort(_longShortCoreContract);\n        floatToken = IFloatToken(_floatToken);\n        floatPercentage = 1500;\n\n        emit DeployV1(_floatToken);\n    }\n\n    ////////////////////////////////////\n    /// MULTISIG ADMIN FUNCTIONS ///////\n    ////////////////////////////////////\n\n    function changeAdmin(address _admin) external onlyAdmin {\n        admin = _admin;\n    }\n\n    function changeFloatPercentage(uint16 _newPercentage) external onlyAdmin {\n        require(_newPercentage <= 10000);\n        floatPercentage = _newPercentage;\n    }\n\n    function changeMarketLaunchIncentiveParameters(\n        uint32 marketIndex,\n        uint256 period,\n        uint256 initialMultiplier\n    ) external onlyAdmin {\n        _changeMarketLaunchIncentiveParameters(\n            marketIndex,\n            period,\n            initialMultiplier\n        );\n    }\n\n    function _changeMarketLaunchIncentiveParameters(\n        uint32 marketIndex,\n        uint256 period,\n        uint256 initialMultiplier\n    ) internal {\n        require(\n            initialMultiplier >= 1e18,\n            \"marketLaunchIncentiveMultiplier must be >= 1e18\"\n        );\n\n        marketLaunchIncentivePeriod[marketIndex] = period;\n        marketLaunchIncentiveMultipliers[marketIndex] = initialMultiplier;\n\n        emit MarketLaunchIncentiveParametersChanges(\n            marketIndex,\n            period,\n            initialMultiplier\n        );\n    }\n\n    ////////////////////////////////////\n    /////////// STAKING SETUP //////////\n    ////////////////////////////////////\n\n    function addNewStakingFund(\n        uint32 marketIndex,\n        ISyntheticToken longToken,\n        ISyntheticToken shortToken,\n        uint256 kInitialMultiplier,\n        uint256 kPeriod\n    ) external override onlyFloat {\n        marketIndexOfToken[longToken] = marketIndex;\n        marketIndexOfToken[shortToken] = marketIndex;\n\n        syntheticRewardParams[marketIndex][0].timestamp = block.timestamp;\n        syntheticRewardParams[marketIndex][0].accumulativeFloatPerLongToken = 0;\n        syntheticRewardParams[marketIndex][0]\n            .accumulativeFloatPerShortToken = 0;\n\n        syntheticTokens[marketIndex].longToken = longToken;\n        syntheticTokens[marketIndex].shortToken = shortToken;\n\n        _changeMarketLaunchIncentiveParameters(\n            marketIndex,\n            kPeriod,\n            kInitialMultiplier\n        );\n\n        emit StateAdded(marketIndex, 0, block.timestamp, 0, 0);\n    }\n\n    ////////////////////////////////////\n    // GLOBAL REWARD STATE FUNCTIONS ///\n    ////////////////////////////////////\n\n    /*\n     * Returns the K factor parameters for the given market with sensible\n     * defaults if they haven't been set yet.\n     */\n    function getMarketLaunchIncentiveParameters(uint32 marketIndex)\n        internal\n        view\n        returns (uint256, uint256)\n    {\n        uint256 period = marketLaunchIncentivePeriod[marketIndex];\n        uint256 multiplier = marketLaunchIncentiveMultipliers[marketIndex];\n        if (multiplier == 0) {\n            multiplier = 1e18; // multiplier of 1 by default\n        }\n\n        return (period, multiplier);\n    }\n\n    function getKValue(uint32 marketIndex) internal view returns (uint256) {\n        // Parameters controlling the float issuance multiplier.\n        (uint256 kPeriod, uint256 kInitialMultiplier) =\n            getMarketLaunchIncentiveParameters(marketIndex);\n\n        // Sanity check - under normal circumstances, the multipliers should\n        // *never* be set to a value < 1e18, as there are guards against this.\n        assert(kInitialMultiplier >= 1e18);\n\n        if (block.timestamp - initialTimestamp <= kPeriod) {\n            return\n                kInitialMultiplier -\n                (((kInitialMultiplier - 1e18) *\n                    (block.timestamp - initialTimestamp)) / kPeriod);\n        } else {\n            return 1e18;\n        }\n    }\n\n    /*\n     * Computes the current 'r' value, i.e. the number of float tokens a user\n     * earns per second for every longshort token they've staked. The returned\n     * value has a fixed decimal scale of 1e42 (!!!) for numerical stability.\n     */\n    // TODO: should be an internal function (only a javascript test using this function, )\n    function calculateFloatPerSecond(\n        uint256 longValue,\n        uint256 shortValue,\n        uint256 longPrice,\n        uint256 shortPrice,\n        uint32 marketIndex\n    )\n        public\n        view\n        returns (uint256 longFloatPerSecond, uint256 shortFloatPerSecond)\n    {\n        // Edge-case: no float is issued in an empty market.\n        if (longValue == 0 && shortValue == 0) {\n            return (0, 0);\n        }\n\n        // A float issuance multiplier that starts high and decreases linearly\n        // over time to a value of 1. This incentivises users to stake early.\n        uint256 k = getKValue(marketIndex);\n\n        uint256 totalLocked = (longValue + shortValue);\n\n        // Float is scaled by the percentage of the total market value held in\n        // the opposite position. This incentivises users to stake on the\n        // weaker position.\n        return (\n            ((k * shortValue) * longPrice) / totalLocked,\n            ((k * longValue) * shortPrice) / totalLocked\n        );\n    }\n\n    /*\n     * Computes the time since last state point for the given token in seconds.\n     */\n    function calculateTimeDelta(uint32 marketIndex)\n        internal\n        view\n        returns (uint256)\n    {\n        return\n            block.timestamp -\n            syntheticRewardParams[marketIndex][latestRewardIndex[marketIndex]]\n                .timestamp;\n    }\n\n    /*\n     * Computes new cumulative sum of 'r' value since last state point. We use\n     * cumulative 'r' value to avoid looping during issuance. Note that the\n     * cumulative sum is kept in 1e42 scale (!!!) to avoid numerical issues.\n     */\n    function calculateNewCumulativeRate(\n        uint256 longValue,\n        uint256 shortValue,\n        uint256 longPrice,\n        uint256 shortPrice,\n        uint32 marketIndex\n    )\n        internal\n        view\n        returns (uint256 longCumulativeRates, uint256 shortCumulativeRates)\n    {\n        // Compute the current 'r' value for float issuance per second.\n        (uint256 longFloatPerSecond, uint256 shortFloatPerSecond) =\n            calculateFloatPerSecond(\n                longValue,\n                shortValue,\n                longPrice,\n                shortPrice,\n                marketIndex\n            );\n\n        // Compute time since last state point for the given token.\n        uint256 timeDelta = calculateTimeDelta(marketIndex);\n\n        // // Compute new cumulative 'r' value total.\n        return (\n            syntheticRewardParams[marketIndex][latestRewardIndex[marketIndex]]\n                .accumulativeFloatPerLongToken +\n                (timeDelta * longFloatPerSecond),\n            syntheticRewardParams[marketIndex][latestRewardIndex[marketIndex]]\n                .accumulativeFloatPerShortToken +\n                (timeDelta * shortFloatPerSecond)\n        );\n    }\n\n    /*\n     * Creates a new state point for the given token and updates indexes.\n     */\n    function setRewardObjects(\n        uint256 longValue,\n        uint256 shortValue,\n        uint256 longPrice,\n        uint256 shortPrice,\n        uint32 marketIndex\n    ) internal {\n        (uint256 longAccumulativeRates, uint256 shortAccumulativeRates) =\n            calculateNewCumulativeRate(\n                longValue,\n                shortValue,\n                longPrice,\n                shortPrice,\n                marketIndex\n            );\n\n        uint256 newIndex = latestRewardIndex[marketIndex] + 1;\n\n        // Set cumulative 'r' value on new state point.\n        syntheticRewardParams[marketIndex][newIndex]\n            .accumulativeFloatPerLongToken = longAccumulativeRates;\n        syntheticRewardParams[marketIndex][newIndex]\n            .accumulativeFloatPerShortToken = shortAccumulativeRates;\n\n        // Set timestamp on new state point.\n        syntheticRewardParams[marketIndex][newIndex].timestamp = block\n            .timestamp;\n\n        // Update latest index to point to new state point.\n        latestRewardIndex[marketIndex] = newIndex;\n\n        emit StateAdded(\n            marketIndex,\n            newIndex,\n            block.timestamp,\n            longAccumulativeRates,\n            shortAccumulativeRates\n        );\n    }\n\n    /*\n     * Adds new state points for the given long/short tokens. Called by the\n     * ILongShort contract whenever there is a state change for a market.\n     */\n    function addNewStateForFloatRewards(\n        uint32 marketIndex,\n        uint256 longPrice,\n        uint256 shortPrice,\n        uint256 longValue,\n        uint256 shortValue\n    ) external override onlyFloat {\n        // Only add a new state point if some time has passed.\n\n        // Time delta is fetched twice in below code, can pass through? Which is less gas?\n        if (calculateTimeDelta(marketIndex) > 0) {\n            // TODO: for consistancy, all functions should follow same order\n            setRewardObjects(\n                longValue,\n                shortValue,\n                longPrice,\n                shortPrice,\n                marketIndex\n            );\n        }\n    }\n\n    ////////////////////////////////////\n    // USER REWARD STATE FUNCTIONS /////\n    ////////////////////////////////////\n\n    function _updateState(ISyntheticToken token) internal {\n        longShortCoreContract._updateSystemState(marketIndexOfToken[token]);\n    }\n\n    function calculateAccumulatedFloat(uint32 marketIndex, address user)\n        internal\n        view\n        returns (\n            // NOTE: this returns the long and short reward separately for the sake of simplicity of the event and the graph. Would be more efficient to return as single value\n            uint256 longFloatReward,\n            uint256 shortFloatReward\n        )\n    {\n        // Don't do the calculation and return zero immediately if there is no change\n        if (\n            userIndexOfLastClaimedReward[marketIndex][user] ==\n            latestRewardIndex[marketIndex]\n        ) {\n            return (0, 0);\n        }\n\n        // Stake should always do a full system state update, so 'users last claimed index' should never be greater than the latest index\n        assert(\n            userIndexOfLastClaimedReward[marketIndex][user] <\n                latestRewardIndex[marketIndex]\n        );\n\n        ISyntheticToken longToken = syntheticTokens[marketIndex].longToken;\n        ISyntheticToken shortToken = syntheticTokens[marketIndex].shortToken;\n\n        uint256 stakedLong = userAmountStaked[longToken][user];\n        uint256 stakedShort = userAmountStaked[shortToken][user];\n\n        if (stakedLong > 0) {\n            uint256 accumDeltaLong =\n                syntheticRewardParams[marketIndex][\n                    latestRewardIndex[marketIndex]\n                ]\n                    .accumulativeFloatPerLongToken -\n                    syntheticRewardParams[marketIndex][\n                        userIndexOfLastClaimedReward[marketIndex][user]\n                    ]\n                        .accumulativeFloatPerLongToken;\n            longFloatReward =\n                (accumDeltaLong * stakedLong) /\n                FLOAT_ISSUANCE_FIXED_DECIMAL;\n        }\n\n        if (stakedShort > 0) {\n            uint256 accumDeltaShort =\n                syntheticRewardParams[marketIndex][\n                    latestRewardIndex[marketIndex]\n                ]\n                    .accumulativeFloatPerShortToken -\n                    syntheticRewardParams[marketIndex][\n                        userIndexOfLastClaimedReward[marketIndex][user]\n                    ]\n                        .accumulativeFloatPerShortToken;\n            shortFloatReward =\n                (accumDeltaShort * stakedShort) /\n                FLOAT_ISSUANCE_FIXED_DECIMAL;\n        }\n\n        // explicit return\n        return (longFloatReward, shortFloatReward);\n    }\n\n    function _mintFloat(address user, uint256 floatToMint) internal {\n        floatToken.mint(user, floatToMint);\n        floatToken.mint(floatCapital, (floatToMint * floatPercentage) / 10000);\n    }\n\n    function mintAccumulatedFloat(uint32 marketIndex, address user) internal {\n        // NOTE: Could merge these two values already inside the `calculateAccumulatedFloat` function, but that would make it harder for the graph\n        (uint256 floatToMintLong, uint256 floatToMintShort) =\n            calculateAccumulatedFloat(marketIndex, msg.sender);\n\n        uint256 floatToMint = floatToMintLong + floatToMintShort;\n        if (floatToMint > 0) {\n            // stops them setting this forward\n            userIndexOfLastClaimedReward[marketIndex][user] = latestRewardIndex[\n                marketIndex\n            ];\n\n            _mintFloat(user, floatToMint);\n\n            emit FloatMinted(\n                user,\n                marketIndex,\n                floatToMintLong,\n                floatToMintShort,\n                latestRewardIndex[marketIndex]\n            );\n        }\n    }\n\n    function _claimFloat(uint32[] calldata marketIndex) internal {\n        uint256 floatTotal = 0;\n        for (uint256 i = 0; i < marketIndex.length; i++) {\n            // NOTE: Could merge these two values already inside the `calculateAccumulatedFloat` function, but that would make it harder for the graph\n            (uint256 floatToMintLong, uint256 floatToMintShort) =\n                calculateAccumulatedFloat(marketIndex[i], msg.sender);\n\n            uint256 floatToMint = floatToMintLong + floatToMintShort;\n\n            if (floatToMint > 0) {\n                // Set the user has claimed up until now.\n                userIndexOfLastClaimedReward[marketIndex[i]][\n                    msg.sender\n                ] = latestRewardIndex[marketIndex[i]];\n                floatTotal += floatToMint;\n\n                emit FloatMinted(\n                    msg.sender,\n                    marketIndex[i],\n                    floatToMintLong,\n                    floatToMintShort,\n                    latestRewardIndex[marketIndex[i]]\n                );\n            }\n        }\n        if (floatTotal > 0) {\n            _mintFloat(msg.sender, floatTotal);\n        }\n    }\n\n    function claimFloatCustom(uint32[] calldata marketIndexes) external {\n        require(marketIndexes.length <= 50); // Set some (arbitrary) limit on loop length\n        longShortCoreContract._updateSystemStateMulti(marketIndexes);\n        _claimFloat(marketIndexes);\n    }\n\n    ////////////////////////////////////\n    /////////// STAKING ////////////////\n    ////////////////////////////////////\n\n    /*\n     * A user with synthetic tokens stakes by calling stake on the token\n     * contract which calls this function. We need to first update the\n     * State of the system before staking to correctly calculate user rewards.\n     */\n    function stakeFromUser(address from, uint256 amount)\n        public\n        override\n        onlyValidSynthetic(ISyntheticToken(msg.sender))\n    {\n        _updateState(ISyntheticToken(msg.sender));\n        _stake(ISyntheticToken(msg.sender), amount, from);\n    }\n\n    /*\n     * Called by the float contract when a user mints and immediately stakes\n     * Updating the state is not necessary since this would have just been done\n     * during the minting process\n     */\n    function stakeFromMint(\n        ISyntheticToken token,\n        uint256 amount,\n        address user\n    ) external override onlyFloat() onlyValidSynthetic(token) {\n        _stake(token, amount, user);\n    }\n\n    function _stake(\n        ISyntheticToken token,\n        uint256 amount,\n        address user\n    ) internal {\n        uint32 marketIndex = marketIndexOfToken[token];\n\n        // If they already have staked and have rewards due, mint these.\n        if (\n            userIndexOfLastClaimedReward[marketIndex][user] != 0 &&\n            userIndexOfLastClaimedReward[marketIndex][user] <\n            latestRewardIndex[marketIndex]\n        ) {\n            mintAccumulatedFloat(marketIndex, user);\n        }\n\n        userAmountStaked[token][user] = userAmountStaked[token][user] + amount;\n\n        userIndexOfLastClaimedReward[marketIndex][user] = latestRewardIndex[\n            marketIndex\n        ];\n\n        emit StakeAdded(\n            user,\n            address(token),\n            amount,\n            userIndexOfLastClaimedReward[marketIndex][user]\n        );\n    }\n\n    ////////////////////////////////////\n    /////// WITHDRAW n MINT ////////////\n    ////////////////////////////////////\n\n    /*\n    Withdraw function.\n    Mint user any outstanding float before\n    */\n    function _withdraw(ISyntheticToken token, uint256 amount) internal {\n        uint32 marketIndex = marketIndexOfToken[token];\n        require(userAmountStaked[token][msg.sender] > 0, \"nothing to withdraw\");\n        mintAccumulatedFloat(marketIndex, msg.sender);\n\n        userAmountStaked[token][msg.sender] =\n            userAmountStaked[token][msg.sender] -\n            amount;\n\n        token.transfer(msg.sender, amount);\n\n        emit StakeWithdrawn(msg.sender, address(token), amount);\n    }\n\n    function withdraw(ISyntheticToken token, uint256 amount) external {\n        _updateState(token);\n        _withdraw(token, amount);\n    }\n\n    function withdrawAll(ISyntheticToken token) external {\n        _updateState(token);\n        _withdraw(token, userAmountStaked[token][msg.sender]);\n    }\n}\n",
  "sourcePath": "/Users/denham/Documents/projects/float-capital/code/float-capital/contracts/contracts/Staker.sol",
  "compiler": {
    "name": "solc",
    "version": "0.8.3+commit.8d00100c.Emscripten.clang"
  },
  "schemaVersion": "3.3.4",
  "updatedAt": "2021-05-24T09:35:48.378Z",
  "networkType": "ethereum",
  "devdoc": {
    "kind": "dev",
    "methods": {},
    "title": "Staker Contract ",
    "version": 1
  },
  "userdoc": {
    "kind": "user",
    "methods": {
      "changeAdmin(address)": {
        "notice": "MULTISIG ADMIN FUNCTIONS ///////"
      }
    },
    "version": 1
  }
}