{
  "contractName": "Staker",
  "abi": [
    {
      "anonymous": false,
      "inputs": [
        {
          "indexed": false,
          "internalType": "uint32",
          "name": "marketIndex",
          "type": "uint32"
        },
        {
          "indexed": false,
          "internalType": "int256",
          "name": "balanceIncentiveEquilibriumOffset",
          "type": "int256"
        }
      ],
      "name": "BalanceIncentiveEquilibriumOffsetUpdated",
      "type": "event"
    },
    {
      "anonymous": false,
      "inputs": [
        {
          "indexed": false,
          "internalType": "uint32",
          "name": "marketIndex",
          "type": "uint32"
        },
        {
          "indexed": false,
          "internalType": "uint256",
          "name": "balanceIncentiveExponent",
          "type": "uint256"
        }
      ],
      "name": "BalanceIncentiveExponentUpdated",
      "type": "event"
    },
    {
      "anonymous": false,
      "inputs": [
        {
          "indexed": false,
          "internalType": "address",
          "name": "user",
          "type": "address"
        },
        {
          "indexed": false,
          "internalType": "uint32",
          "name": "marketIndex",
          "type": "uint32"
        },
        {
          "indexed": false,
          "internalType": "uint256",
          "name": "amountLong",
          "type": "uint256"
        },
        {
          "indexed": false,
          "internalType": "uint256",
          "name": "amountShort",
          "type": "uint256"
        },
        {
          "indexed": false,
          "internalType": "uint256",
          "name": "lastMintIndex",
          "type": "uint256"
        }
      ],
      "name": "FloatMinted",
      "type": "event"
    },
    {
      "anonymous": false,
      "inputs": [
        {
          "indexed": false,
          "internalType": "uint256",
          "name": "floatPercentage",
          "type": "uint256"
        }
      ],
      "name": "FloatPercentageUpdated",
      "type": "event"
    },
    {
      "anonymous": false,
      "inputs": [
        {
          "indexed": false,
          "internalType": "uint32",
          "name": "marketIndex",
          "type": "uint32"
        },
        {
          "indexed": false,
          "internalType": "uint256",
          "name": "exitFeeBasisPoints",
          "type": "uint256"
        },
        {
          "indexed": false,
          "internalType": "uint256",
          "name": "period",
          "type": "uint256"
        },
        {
          "indexed": false,
          "internalType": "uint256",
          "name": "multiplier",
          "type": "uint256"
        },
        {
          "indexed": false,
          "internalType": "uint256",
          "name": "balanceIncentiveExponent",
          "type": "uint256"
        },
        {
          "indexed": false,
          "internalType": "int256",
          "name": "balanceIncentiveEquilibriumOffset",
          "type": "int256"
        }
      ],
      "name": "MarketAddedToStaker",
      "type": "event"
    },
    {
      "anonymous": false,
      "inputs": [
        {
          "indexed": false,
          "internalType": "uint32",
          "name": "marketIndex",
          "type": "uint32"
        },
        {
          "indexed": false,
          "internalType": "uint256",
          "name": "period",
          "type": "uint256"
        },
        {
          "indexed": false,
          "internalType": "uint256",
          "name": "multiplier",
          "type": "uint256"
        }
      ],
      "name": "MarketLaunchIncentiveParametersChanges",
      "type": "event"
    },
    {
      "anonymous": false,
      "inputs": [
        {
          "indexed": false,
          "internalType": "address",
          "name": "user",
          "type": "address"
        },
        {
          "indexed": false,
          "internalType": "address",
          "name": "token",
          "type": "address"
        },
        {
          "indexed": false,
          "internalType": "uint256",
          "name": "amount",
          "type": "uint256"
        },
        {
          "indexed": false,
          "internalType": "uint256",
          "name": "lastMintIndex",
          "type": "uint256"
        }
      ],
      "name": "StakeAdded",
      "type": "event"
    },
    {
      "anonymous": false,
      "inputs": [
        {
          "indexed": false,
          "internalType": "uint32",
          "name": "marketIndex",
          "type": "uint32"
        },
        {
          "indexed": false,
          "internalType": "uint256",
          "name": "stakeWithdralFee",
          "type": "uint256"
        }
      ],
      "name": "StakeWithdrawalFeeUpdated",
      "type": "event"
    },
    {
      "anonymous": false,
      "inputs": [
        {
          "indexed": false,
          "internalType": "address",
          "name": "user",
          "type": "address"
        },
        {
          "indexed": false,
          "internalType": "address",
          "name": "token",
          "type": "address"
        },
        {
          "indexed": false,
          "internalType": "uint256",
          "name": "amount",
          "type": "uint256"
        }
      ],
      "name": "StakeWithdrawn",
      "type": "event"
    },
    {
      "anonymous": false,
      "inputs": [
        {
          "indexed": false,
          "internalType": "address",
          "name": "floatToken",
          "type": "address"
        },
        {
          "indexed": false,
          "internalType": "uint256",
          "name": "floatPercentage",
          "type": "uint256"
        }
      ],
      "name": "StakerV1",
      "type": "event"
    },
    {
      "anonymous": false,
      "inputs": [
        {
          "indexed": false,
          "internalType": "uint32",
          "name": "marketIndex",
          "type": "uint32"
        },
        {
          "indexed": false,
          "internalType": "uint256",
          "name": "stateIndex",
          "type": "uint256"
        },
        {
          "indexed": false,
          "internalType": "uint256",
          "name": "accumulativeLong",
          "type": "uint256"
        },
        {
          "indexed": false,
          "internalType": "uint256",
          "name": "accumulativeShort",
          "type": "uint256"
        }
      ],
      "name": "StateAdded",
      "type": "event"
    },
    {
      "inputs": [],
      "name": "FLOAT_ISSUANCE_FIXED_DECIMAL",
      "outputs": [
        {
          "internalType": "uint256",
          "name": "",
          "type": "uint256"
        }
      ],
      "stateMutability": "view",
      "type": "function",
      "constant": true
    },
    {
      "inputs": [],
      "name": "admin",
      "outputs": [
        {
          "internalType": "address",
          "name": "",
          "type": "address"
        }
      ],
      "stateMutability": "view",
      "type": "function",
      "constant": true
    },
    {
      "inputs": [
        {
          "internalType": "uint32",
          "name": "",
          "type": "uint32"
        }
      ],
      "name": "balanceIncentiveCurveEquilibriumOffset",
      "outputs": [
        {
          "internalType": "int256",
          "name": "",
          "type": "int256"
        }
      ],
      "stateMutability": "view",
      "type": "function",
      "constant": true
    },
    {
      "inputs": [
        {
          "internalType": "uint32",
          "name": "",
          "type": "uint32"
        }
      ],
      "name": "balanceIncentiveCurveExponent",
      "outputs": [
        {
          "internalType": "uint256",
          "name": "",
          "type": "uint256"
        }
      ],
      "stateMutability": "view",
      "type": "function",
      "constant": true
    },
    {
      "inputs": [],
      "name": "floatCapital",
      "outputs": [
        {
          "internalType": "address",
          "name": "",
          "type": "address"
        }
      ],
      "stateMutability": "view",
      "type": "function",
      "constant": true
    },
    {
      "inputs": [],
      "name": "floatPercentage",
      "outputs": [
        {
          "internalType": "uint256",
          "name": "",
          "type": "uint256"
        }
      ],
      "stateMutability": "view",
      "type": "function",
      "constant": true
    },
    {
      "inputs": [],
      "name": "floatToken",
      "outputs": [
        {
          "internalType": "contract IFloatToken",
          "name": "",
          "type": "address"
        }
      ],
      "stateMutability": "view",
      "type": "function",
      "constant": true
    },
    {
      "inputs": [
        {
          "internalType": "uint32",
          "name": "",
          "type": "uint32"
        }
      ],
      "name": "latestRewardIndex",
      "outputs": [
        {
          "internalType": "uint256",
          "name": "",
          "type": "uint256"
        }
      ],
      "stateMutability": "view",
      "type": "function",
      "constant": true
    },
    {
      "inputs": [],
      "name": "longShortCoreContract",
      "outputs": [
        {
          "internalType": "contract ILongShort",
          "name": "",
          "type": "address"
        }
      ],
      "stateMutability": "view",
      "type": "function",
      "constant": true
    },
    {
      "inputs": [
        {
          "internalType": "contract ISyntheticToken",
          "name": "",
          "type": "address"
        }
      ],
      "name": "marketIndexOfToken",
      "outputs": [
        {
          "internalType": "uint32",
          "name": "",
          "type": "uint32"
        }
      ],
      "stateMutability": "view",
      "type": "function",
      "constant": true
    },
    {
      "inputs": [
        {
          "internalType": "uint32",
          "name": "",
          "type": "uint32"
        }
      ],
      "name": "marketLaunchIncentiveMultipliers",
      "outputs": [
        {
          "internalType": "uint256",
          "name": "",
          "type": "uint256"
        }
      ],
      "stateMutability": "view",
      "type": "function",
      "constant": true
    },
    {
      "inputs": [
        {
          "internalType": "uint32",
          "name": "",
          "type": "uint32"
        }
      ],
      "name": "marketLaunchIncentivePeriod",
      "outputs": [
        {
          "internalType": "uint256",
          "name": "",
          "type": "uint256"
        }
      ],
      "stateMutability": "view",
      "type": "function",
      "constant": true
    },
    {
      "inputs": [
        {
          "internalType": "uint32",
          "name": "",
          "type": "uint32"
        }
      ],
      "name": "marketUnstakeFeeBasisPoints",
      "outputs": [
        {
          "internalType": "uint256",
          "name": "",
          "type": "uint256"
        }
      ],
      "stateMutability": "view",
      "type": "function",
      "constant": true
    },
    {
      "inputs": [
        {
          "internalType": "uint32",
          "name": "",
          "type": "uint32"
        },
        {
          "internalType": "uint256",
          "name": "",
          "type": "uint256"
        }
      ],
      "name": "syntheticRewardParams",
      "outputs": [
        {
          "internalType": "uint256",
          "name": "timestamp",
          "type": "uint256"
        },
        {
          "internalType": "uint256",
          "name": "accumulativeFloatPerLongToken",
          "type": "uint256"
        },
        {
          "internalType": "uint256",
          "name": "accumulativeFloatPerShortToken",
          "type": "uint256"
        }
      ],
      "stateMutability": "view",
      "type": "function",
      "constant": true
    },
    {
      "inputs": [
        {
          "internalType": "uint32",
          "name": "",
          "type": "uint32"
        },
        {
          "internalType": "bool",
          "name": "",
          "type": "bool"
        }
      ],
      "name": "syntheticTokens",
      "outputs": [
        {
          "internalType": "contract ISyntheticToken",
          "name": "",
          "type": "address"
        }
      ],
      "stateMutability": "view",
      "type": "function",
      "constant": true
    },
    {
      "inputs": [
        {
          "internalType": "contract ISyntheticToken",
          "name": "",
          "type": "address"
        },
        {
          "internalType": "address",
          "name": "",
          "type": "address"
        }
      ],
      "name": "userAmountStaked",
      "outputs": [
        {
          "internalType": "uint256",
          "name": "",
          "type": "uint256"
        }
      ],
      "stateMutability": "view",
      "type": "function",
      "constant": true
    },
    {
      "inputs": [
        {
          "internalType": "uint32",
          "name": "",
          "type": "uint32"
        },
        {
          "internalType": "address",
          "name": "",
          "type": "address"
        }
      ],
      "name": "userIndexOfLastClaimedReward",
      "outputs": [
        {
          "internalType": "uint256",
          "name": "",
          "type": "uint256"
        }
      ],
      "stateMutability": "view",
      "type": "function",
      "constant": true
    },
    {
      "inputs": [
        {
          "internalType": "address",
          "name": "_admin",
          "type": "address"
        },
        {
          "internalType": "address",
          "name": "_longShortCoreContract",
          "type": "address"
        },
        {
          "internalType": "address",
          "name": "_floatToken",
          "type": "address"
        },
        {
          "internalType": "address",
          "name": "_floatCapital",
          "type": "address"
        },
        {
          "internalType": "uint256",
          "name": "_floatPercentage",
          "type": "uint256"
        }
      ],
      "name": "initialize",
      "outputs": [],
      "stateMutability": "nonpayable",
      "type": "function"
    },
    {
      "inputs": [
        {
          "internalType": "address",
          "name": "_admin",
          "type": "address"
        }
      ],
      "name": "changeAdmin",
      "outputs": [],
      "stateMutability": "nonpayable",
      "type": "function"
    },
    {
      "inputs": [
        {
          "internalType": "uint256",
          "name": "newFloatPercentage",
          "type": "uint256"
        }
      ],
      "name": "changeFloatPercentage",
      "outputs": [],
      "stateMutability": "nonpayable",
      "type": "function"
    },
    {
      "inputs": [
        {
          "internalType": "uint32",
          "name": "marketIndex",
          "type": "uint32"
        },
        {
          "internalType": "uint256",
          "name": "newMarketUnstakeFeeBasisPoints",
          "type": "uint256"
        }
      ],
      "name": "changeUnstakeFee",
      "outputs": [],
      "stateMutability": "nonpayable",
      "type": "function"
    },
    {
      "inputs": [
        {
          "internalType": "uint32",
          "name": "marketIndex",
          "type": "uint32"
        },
        {
          "internalType": "uint256",
          "name": "period",
          "type": "uint256"
        },
        {
          "internalType": "uint256",
          "name": "initialMultiplier",
          "type": "uint256"
        }
      ],
      "name": "changeMarketLaunchIncentiveParameters",
      "outputs": [],
      "stateMutability": "nonpayable",
      "type": "function"
    },
    {
      "inputs": [
        {
          "internalType": "uint32",
          "name": "marketIndex",
          "type": "uint32"
        },
        {
          "internalType": "uint256",
          "name": "_balanceIncentiveCurveExponent",
          "type": "uint256"
        }
      ],
      "name": "changBalanceIncentiveExponent",
      "outputs": [],
      "stateMutability": "nonpayable",
      "type": "function"
    },
    {
      "inputs": [
        {
          "internalType": "uint32",
          "name": "marketIndex",
          "type": "uint32"
        },
        {
          "internalType": "int256",
          "name": "_balanceIncentiveCurveEquilibriumOffset",
          "type": "int256"
        }
      ],
      "name": "changBalanceIncentiveEquilibriumOffset",
      "outputs": [],
      "stateMutability": "nonpayable",
      "type": "function"
    },
    {
      "inputs": [
        {
          "internalType": "uint32",
          "name": "marketIndex",
          "type": "uint32"
        },
        {
          "internalType": "contract ISyntheticToken",
          "name": "longToken",
          "type": "address"
        },
        {
          "internalType": "contract ISyntheticToken",
          "name": "shortToken",
          "type": "address"
        },
        {
          "internalType": "uint256",
          "name": "kInitialMultiplier",
          "type": "uint256"
        },
        {
          "internalType": "uint256",
          "name": "kPeriod",
          "type": "uint256"
        },
        {
          "internalType": "uint256",
          "name": "unstakeFee_e18",
          "type": "uint256"
        },
        {
          "internalType": "uint256",
          "name": "_balanceIncentiveCurveExponent",
          "type": "uint256"
        },
        {
          "internalType": "int256",
          "name": "_balanceIncentiveCurveEquilibriumOffset",
          "type": "int256"
        }
      ],
      "name": "addNewStakingFund",
      "outputs": [],
      "stateMutability": "nonpayable",
      "type": "function"
    },
    {
      "inputs": [
        {
          "internalType": "uint32",
          "name": "marketIndex",
          "type": "uint32"
        },
        {
          "internalType": "uint256",
          "name": "longPrice",
          "type": "uint256"
        },
        {
          "internalType": "uint256",
          "name": "shortPrice",
          "type": "uint256"
        },
        {
          "internalType": "uint256",
          "name": "longValue",
          "type": "uint256"
        },
        {
          "internalType": "uint256",
          "name": "shortValue",
          "type": "uint256"
        }
      ],
      "name": "addNewStateForFloatRewards",
      "outputs": [],
      "stateMutability": "nonpayable",
      "type": "function"
    },
    {
      "inputs": [
        {
          "internalType": "uint32[]",
          "name": "marketIndexes",
          "type": "uint32[]"
        }
      ],
      "name": "claimFloatCustom",
      "outputs": [],
      "stateMutability": "nonpayable",
      "type": "function"
    },
    {
      "inputs": [
        {
          "internalType": "address",
          "name": "from",
          "type": "address"
        },
        {
          "internalType": "uint256",
          "name": "amount",
          "type": "uint256"
        }
      ],
      "name": "stakeFromUser",
      "outputs": [],
      "stateMutability": "nonpayable",
      "type": "function"
    },
    {
      "inputs": [
        {
          "internalType": "contract ISyntheticToken",
          "name": "token",
          "type": "address"
        },
        {
          "internalType": "uint256",
          "name": "amount",
          "type": "uint256"
        }
      ],
      "name": "withdraw",
      "outputs": [],
      "stateMutability": "nonpayable",
      "type": "function"
    },
    {
      "inputs": [
        {
          "internalType": "contract ISyntheticToken",
          "name": "token",
          "type": "address"
        }
      ],
      "name": "withdrawAll",
      "outputs": [],
      "stateMutability": "nonpayable",
      "type": "function"
    }
  ],
  "bytecode": "0x608060405234801561001057600080fd5b506126a8806100206000396000f3fe608060405234801561001057600080fd5b50600436106101da5760003560e01c80639673068b11610104578063e39ac044116100a2578063f7013ef611610071578063f7013ef6146104ff578063f851a44014610512578063f997e5d31461052b578063fa09e6301461053e576101da565b8063e39ac044146104a6578063e68f3dbe146104c6578063eae5a8d9146104d9578063f3fef3a3146104ec576101da565b8063b0956b5f116100de578063b0956b5f14610442578063ba89f7b814610455578063c17f8ce914610468578063d84593e514610493576101da565b80639673068b146103d05780639e59fd0f146103e3578063b054c4a1146103f6576101da565b80636304e31e1161017c57806386cbde1f1161014b57806386cbde1f1461032f5780638949f135146103485780638f28397014610368578063947c29f61461037b576101da565b80636304e31e146102c957806363da6af4146102e95780636d1ce3ee14610309578063738f4b8e1461031c576101da565b80634720b24d116101b85780634720b24d146102475780635892457d146102755780635ac76ce11461027e5780635c680207146102a9576101da565b80630ca5a052146101df57806315f2081d146101f45780633378818b14610234575b600080fd5b6101f26101ed36600461224d565b610551565b005b61021a610202366004611fec565b600b6020526000908152604090205463ffffffff1681565b60405163ffffffff90911681526020015b60405180910390f35b6101f261024236600461224d565b6105d8565b610267610255366004612179565b60066020526000908152604090205481565b60405190815260200161022b565b61026760025481565b61026761028c366004612193565b600e60209081526000928352604080842090915290825290205481565b6102676102b7366004612179565b60056020526000908152604090205481565b6102676102d7366004612179565b60076020526000908152604090205481565b6102676102f7366004612179565b60096020526000908152604090205481565b6101f261031736600461229a565b61064e565b6101f261032a36600461209d565b61068a565b610267710b7abc627050305adf14a3d9e4000000000081565b610267610356366004612179565b60086020526000908152604090205481565b6101f2610376366004611fec565b61070a565b6103b561038936600461224d565b600d60209081526000928352604080842090915290825290208054600182015460029092015490919083565b6040805193845260208401929092529082015260600161022b565b6101f26103de36600461224d565b610764565b6101f26103f1366004612161565b6107da565b61042a6104043660046121ae565b600a6020908152600092835260408084209091529082529020546001600160a01b031681565b6040516001600160a01b03909116815260200161022b565b6101f26104503660046121d9565b610849565b60015461042a906001600160a01b031681565b610267610476366004612129565b600f60209081526000928352604080842090915290825290205481565b6101f26104a1366004612268565b6109e4565b6102676104b4366004612179565b600c6020526000908152604090205481565b6101f26104d4366004612072565b610a6b565b60045461042a906001600160a01b031681565b6101f26104fa366004612072565b610b44565b6101f261050d36600461200f565b610bc4565b60005461042a906201000090046001600160a01b031681565b60035461042a906001600160a01b031681565b6101f261054c366004611fec565b610d79565b6000546201000090046001600160a01b0316331461058a5760405162461bcd60e51b815260040161058190612324565b60405180910390fd5b6105948282610e21565b6040805163ffffffff84168152602081018390527feb76801ec75076256b8590fd7c621c2541531e6b9ac568389fa5cdf72e66484491015b60405180910390a15050565b6000546201000090046001600160a01b031633146106085760405162461bcd60e51b815260040161058190612324565b6106128282610e4e565b6040805163ffffffff84168152602081018390527f45029298b28ebd606098e088e84698aad69cbe7d56cec6064a87ab6d85551e1191016105cc565b6003546001600160a01b0316331461066557600080fd5b600061067086610ed8565b1115610683576106838585858585610f12565b5050505050565b603281111561069857600080fd5b600354604051636c8d2b9760e01b81526001600160a01b0390911690636c8d2b97906106ca90859085906004016122db565b600060405180830381600087803b1580156106e457600080fd5b505af11580156106f8573d6000803e3d6000fd5b505050506107068282610fcc565b5050565b6000546201000090046001600160a01b0316331461073a5760405162461bcd60e51b815260040161058190612324565b600080546001600160a01b03909216620100000262010000600160b01b0319909216919091179055565b6000546201000090046001600160a01b031633146107945760405162461bcd60e51b815260040161058190612324565b61079e82826111f8565b6040805163ffffffff84168152602081018390527f0430c32559bfcf3b024f216d4e0db41b7b521dcffe63ad1fc25826cf89fc1ced91016105cc565b6000546201000090046001600160a01b0316331461080a5760405162461bcd60e51b815260040161058190612324565b61081381611299565b6040518181527f062ffcd555faf2b2c81f26010ee6db2e23106941bfed5ae979abd111975d815d9060200160405180910390a150565b6003546001600160a01b0316331461086057600080fd5b6001600160a01b038088166000818152600b60209081526040808320805463ffffffff8f1663ffffffff199182168117909255958c1680855282852080549097168217909655808452600d8352818420848052835281842042815560018181018690556002909101859055908452600a835281842090845280835281842080546001600160a01b0319908116909617905583805290915290208054909116909117905561090d8883610e4e565b61091788826111f8565b6109228885876112bf565b61092c8884610e21565b6040805163ffffffff8a16815260208101859052908101859052606081018690526080810183905260a081018290527f6bc257e0096888bfe19c27bfedca683fc71f53daaf42d4b9ff8e42ea783d67cf9060c00160405180910390a16040805163ffffffff8a16815260006020820181905291810182905260608101919091527f4dc131559487b50c41cf6958c46c92e8207bcbbd1f913b5338cd8ad4e30eb3c1906080015b60405180910390a15050505050505050565b6000546201000090046001600160a01b03163314610a145760405162461bcd60e51b815260040161058190612324565b610a1f8383836112bf565b6040805163ffffffff85168152602081018490529081018290527fa1d30e827392d7c605768dc1c77c5dfbf58180ca1bb944ecfc8155765b7f53ca9060600160405180910390a1505050565b336000818152600b602052604090205463ffffffff16610abf5760405162461bcd60e51b815260206004820152600f60248201526e0dcdee840ecc2d8d2c840e6f2dce8d608b1b6044820152606401610581565b600354336000908152600b6020526040908190205490516305c8146f60e01b815263ffffffff90911660048201526001600160a01b03909116906305c8146f90602401600060405180830381600087803b158015610b1c57600080fd5b505af1158015610b30573d6000803e3d6000fd5b50505050610b3f338385611355565b505050565b6003546001600160a01b038381166000908152600b6020526040908190205490516305c8146f60e01b815263ffffffff90911660048201529116906305c8146f90602401600060405180830381600087803b158015610ba257600080fd5b505af1158015610bb6573d6000803e3d6000fd5b5050505061070682826114a9565b600054610100900460ff1680610bdd575060005460ff16155b610c405760405162461bcd60e51b815260206004820152602e60248201527f496e697469616c697a61626c653a20636f6e747261637420697320616c72656160448201526d191e481a5b9a5d1a585b1a5e995960921b6064820152608401610581565b600054610100900460ff16158015610c62576000805461ffff19166101011790555b6001600160a01b03861615801590610c8257506001600160a01b03831615155b8015610c9657506001600160a01b03851615155b8015610caa57506001600160a01b03841615155b610cb357600080fd5b6000805462010000600160b01b031916620100006001600160a01b038981169190910291909117909155600180546001600160a01b03199081168684161790915560038054821688841617905560048054909116918616919091179055610d1982611299565b600254604080516001600160a01b038716815260208101929092527fa28f5c37c76149bdb70d9110e7ce32b447e3e3f83f1c890313a82cbabb0e5a73910160405180910390a18015610d71576000805461ff00191690555b505050505050565b6003546001600160a01b038281166000908152600b6020526040908190205490516305c8146f60e01b815263ffffffff90911660048201529116906305c8146f90602401600060405180830381600087803b158015610dd757600080fd5b505af1158015610deb573d6000803e3d6000fd5b5050506001600160a01b0382166000908152600f60209081526040808320338452909152902054610e1e915082906114a9565b50565b66b1a2bc2ec50000811115610e3557600080fd5b63ffffffff909116600090815260076020526040902055565b600081118015610e5f575061271081105b610ebf5760405162461bcd60e51b815260206004820152602b60248201527f62616c616e6365496e63656e7469766543757276654578706f6e656e74206f7560448201526a74206f6620626f756e647360a81b6064820152608401610581565b63ffffffff909116600090815260086020526040902055565b63ffffffff81166000908152600d60209081526040808320600c8352818420548452909152812054610f0a90426125d7565b90505b919050565b600080610f228787878787611691565b63ffffffff89166000908152600c602052604081205492945090925090610f4a906001612388565b63ffffffff89166000818152600d6020908152604080832085845282528083206001810189905560028101889055429055838352600c825291829020849055815192835282018390528101859052606081018490529091507f4dc131559487b50c41cf6958c46c92e8207bcbbd1f913b5338cd8ad4e30eb3c1906080016109d2565b6000805b828110156111e757600080611019868685818110610ffe57634e487b7160e01b600052603260045260246000fd5b90506020020160208101906110139190612179565b33611745565b9092509050600061102a8284612388565b905080156111d157600c600088888781811061105657634e487b7160e01b600052603260045260246000fd5b905060200201602081019061106b9190612179565b63ffffffff1663ffffffff16815260200190815260200160002054600e60008989888181106110aa57634e487b7160e01b600052603260045260246000fd5b90506020020160208101906110bf9190612179565b63ffffffff168152602080820192909252604090810160009081203382529092529020556110ed8186612388565b94507f509b9c1618234e6c3daf857164c2191afb2a74f34bb850c840ab12e61a6b88743388888781811061113157634e487b7160e01b600052603260045260246000fd5b90506020020160208101906111469190612179565b8585600c60008d8d8c81811061116c57634e487b7160e01b600052603260045260246000fd5b90506020020160208101906111819190612179565b63ffffffff908116825260208083019390935260409182016000205482516001600160a01b0390981688529516918601919091528401919091526060830152608082015260a00160405180910390a15b50505080806111df906125ee565b915050610fd0565b508015610b3f57610b3f33826117e0565b670c7d713b49d9ffff19811380156112175750670c7d713b49da000081125b6112805760405162461bcd60e51b815260206004820152603460248201527f62616c616e6365496e63656e746976654375727665457175696c69627269756d6044820152734f6666736574206f7574206f6620626f756e647360601b6064820152608401610581565b63ffffffff909116600090815260096020526040902055565b670de0b6b3a764000081111580156112b15750600081115b6112ba57600080fd5b600255565b670de0b6b3a76400008110156113305760405162461bcd60e51b815260206004820152603060248201527f6d61726b65744c61756e6368496e63656e746976654d756c7469706c6965722060448201526f6d757374206265203e3d20316531383160801b6064820152608401610581565b63ffffffff909216600090815260056020908152604080832093909355600690522055565b6001600160a01b038084166000908152600b602090815260408083205463ffffffff16808452600e8352818420948616845293909152902054158015906113cc575063ffffffff81166000908152600c6020908152604080832054600e83528184206001600160a01b038716855290925290912054105b156113db576113db81836118de565b6001600160a01b038085166000908152600f602090815260408083209386168352929052205461140c908490612388565b6001600160a01b038581166000818152600f602090815260408083209488168084529482528083209590955563ffffffff86168252600c815284822054600e8252858320858452825291859020829055845193845283019190915291810185905260608101919091527fef7c8dfef14cbefdf829b8f066b068b677992411137321d64b3ed4538c2b3637906080015b60405180910390a150505050565b6001600160a01b0382166000908152600b6020908152604080832054600f83528184203385529092529091205463ffffffff909116906115215760405162461bcd60e51b81526020600482015260136024820152726e6f7468696e6720746f20776974686472617760681b6044820152606401610581565b61152b81336118de565b6001600160a01b0383166000908152600f6020908152604080832033845290915290205461155a9083906125d7565b6001600160a01b0384166000908152600f6020908152604080832033845282528083209390935563ffffffff841682526007905290812054670de0b6b3a7640000906115a69085612579565b6115b091906123ce565b90506001600160a01b03841663a9059cbb336115cc84876125d7565b6040516001600160e01b031960e085901b1681526001600160a01b0390921660048301526024820152604401602060405180830381600087803b15801561161257600080fd5b505af1158015611626573d6000803e3d6000fd5b505050506040513d601f19601f8201168201806040525081019061164a919061210d565b50604080513381526001600160a01b03861660208201529081018490527fb7c918e0e249f999e965cafeb6c664271b3f4317d296461500e71da39f0cbda39060600161149b565b6000806000806116a489898989896119b7565b9150915060006116b38a610ed8565b90506116bf8382612579565b63ffffffff8b166000908152600d60209081526040808320600c83528184205484529091529020600101546116f49190612388565b6116fe8383612579565b63ffffffff8c166000908152600d60209081526040808320600c83528184205484529091529020600201546117339190612388565b945094505050505b9550959350505050565b63ffffffff82166000818152600a6020908152604080832060018452825280832054838052818420546001600160a01b03918216808652600f8086528487208985168089529087528588205494909316808852908652848720838852865284872054978752600e86528487209287529190945291842054939485946117d1908990899085908590611cbb565b95509550505050509250929050565b600480546040516340c10f1960e01b81526001600160a01b0385811693820193909352602481018490529116906340c10f1990604401600060405180830381600087803b15801561183057600080fd5b505af1158015611844573d6000803e3d6000fd5b50506004546001546002546001600160a01b0392831694506340c10f199350911690670de0b6b3a76400009061187a9086612579565b61188491906123ce565b6040516001600160e01b031960e085901b1681526001600160a01b0390921660048301526024820152604401600060405180830381600087803b1580156118ca57600080fd5b505af1158015610d71573d6000803e3d6000fd5b6000806118eb8484611745565b909250905060006118fc8284612388565b905080156106835763ffffffff85166000908152600c6020908152604080832054600e83528184206001600160a01b03891685529092529091205561194184826117e0565b63ffffffff85166000818152600c60209081526040918290205482516001600160a01b038916815291820193909352808201869052606081018590526080810192909252517f509b9c1618234e6c3daf857164c2191afb2a74f34bb850c840ab12e61a6b88749181900360a00190a15050505050565b60008083158015906119c857508215155b6119e257634e487b7160e01b600052600160045260246000fd5b60006119ed88611e95565b905060006119fb8587612388565b63ffffffff8a1660009081526009602052604081205491925090670de0b6b3a764000090611a2a9084906124f6565b611a3491906123a0565b63ffffffff8b1660009081526008602052604081205491925090611a59908490611f56565b905087611a668389612598565b1215611ba257868212611a9f57600089611a8886670de0b6b3a7640000612579565b611a929190612579565b955095505050505061173b565b63ffffffff8b16600090815260086020526040812054611ac06001846125d7565b611aca858b612598565b611ad592911c612428565b63ffffffff8d1660009081526008602052604081205491925090670de0b6b3a764000090611b059087861c612428565b611b0f91906123ce565b905060006002611b1f83856123ce565b611b2991906123ce565b90506000611b3f82670de0b6b3a76400006125d7565b9050670de0b6b3a76400008e611b558a85612579565b611b5f9190612579565b611b6991906123ce565b670de0b6b3a76400008e611b7d8b85612579565b611b879190612579565b611b9191906123ce565b99509950505050505050505061173b565b87611bac83612609565b12611bdd5789611bc485670de0b6b3a7640000612579565b611bce9190612579565b6000955095505050505061173b565b63ffffffff8b16600090815260086020526040812054611bfe6001846125d7565b611c08858c612347565b611c1392911c612428565b63ffffffff8d1660009081526008602052604081205491925090670de0b6b3a764000090611c439087861c612428565b611c4d91906123ce565b905060006002611c5d83856123ce565b611c6791906123ce565b90506000611c7d82670de0b6b3a76400006125d7565b9050670de0b6b3a76400008e611c938a84612579565b611c9d9190612579565b611ca791906123ce565b670de0b6b3a76400008e611b7d8b86612579565b63ffffffff85166000908152600c60205260408120548190831415611ce55750600090508061173b565b63ffffffff87166000908152600c6020908152604080832054600e83528184206001600160a01b038b1685529092529091205410611d3357634e487b7160e01b600052600160045260246000fd5b63ffffffff87166000908152600a6020908152604080832060018452909152808220548280529120546001600160a01b0391821691168615611df95763ffffffff89166000818152600d60209081526040808320600e83528184206001600160a01b038e1685528352818420548452808352818420600190810154958552600c84528285205485529252822001549091611dcc916125d7565b9050710b7abc627050305adf14a3d9e40000000000611deb8983612579565b611df591906123ce565b9450505b8515611e895763ffffffff89166000818152600d60209081526040808320600e83528184206001600160a01b038e1685528352818420548452808352818420600290810154958552600c84528285205485529252822001549091611e5c916125d7565b9050710b7abc627050305adf14a3d9e40000000000611e7b8883612579565b611e8591906123ce565b9350505b50509550959350505050565b6000806000611ea384611f9a565b91509150670de0b6b3a7640000811015611ecd57634e487b7160e01b600052600160045260246000fd5b63ffffffff84166000908152600d6020908152604080832083805290915290205482611ef982426125d7565b11611f435782611f0982426125d7565b611f1b670de0b6b3a7640000856125d7565b611f259190612579565b611f2f91906123ce565b611f3990836125d7565b9350505050610f0d565b670de0b6b3a76400009350505050610f0d565b600080611f65836101016123ce565b90506000611f74826002612428565b90505b808386901c1115611f9257611f8b836125ee565b9250611f77565b505092915050565b63ffffffff8116600090815260056020908152604080832054600690925282205482919080611fce5750670de0b6b3a76400005b9092509050915091565b803563ffffffff81168114610f0d57600080fd5b600060208284031215611ffd578081fd5b81356120088161264f565b9392505050565b600080600080600060a08688031215612026578081fd5b85356120318161264f565b945060208601356120418161264f565b935060408601356120518161264f565b925060608601356120618161264f565b949793965091946080013592915050565b60008060408385031215612084578182fd5b823561208f8161264f565b946020939093013593505050565b600080602083850312156120af578182fd5b823567ffffffffffffffff808211156120c6578384fd5b818501915085601f8301126120d9578384fd5b8135818111156120e7578485fd5b8660208260051b85010111156120fb578485fd5b60209290920196919550909350505050565b60006020828403121561211e578081fd5b815161200881612664565b6000806040838503121561213b578182fd5b82356121468161264f565b915060208301356121568161264f565b809150509250929050565b600060208284031215612172578081fd5b5035919050565b60006020828403121561218a578081fd5b61200882611fd8565b600080604083850312156121a5578182fd5b61214683611fd8565b600080604083850312156121c0578182fd5b6121c983611fd8565b9150602083013561215681612664565b600080600080600080600080610100898b0312156121f5578283fd5b6121fe89611fd8565b9750602089013561220e8161264f565b9650604089013561221e8161264f565b979a96995096976060810135975060808101359660a0820135965060c0820135955060e0909101359350915050565b6000806040838503121561225f578182fd5b61208f83611fd8565b60008060006060848603121561227c578081fd5b61228584611fd8565b95602085013595506040909401359392505050565b600080600080600060a086880312156122b1578283fd5b6122ba86611fd8565b97602087013597506040870135966060810135965060800135945092505050565b60208082528181018390526000908460408401835b868110156123195763ffffffff61230684611fd8565b16825291830191908301906001016122f0565b509695505050505050565b6020808252600990820152683737ba1030b236b4b760b91b604082015260600190565b600080821280156001600160ff1b038490038513161561236957612369612623565b600160ff1b839003841281161561238257612382612623565b50500190565b6000821982111561239b5761239b612623565b500190565b6000826123af576123af612639565b600160ff1b8214600019841416156123c9576123c9612623565b500590565b6000826123dd576123dd612639565b500490565b80825b60018086116123f4575061241f565b81870482111561240657612406612623565b8086161561241357918102915b9490941c9380026123e5565b94509492505050565b6000612008600019848460008261244157506001612008565b8161244e57506000612008565b8160018114612464576002811461246e5761249b565b6001915050612008565b60ff84111561247f5761247f612623565b6001841b91508482111561249557612495612623565b50612008565b5060208310610133831016604e8410600b84101617156124ce575081810a838111156124c9576124c9612623565b612008565b6124db84848460016123e2565b8086048211156124ed576124ed612623565b02949350505050565b60006001600160ff1b038184138284138082168684048611161561251c5761251c612623565b600160ff1b8487128281168783058912161561253a5761253a612623565b85871292508782058712848416161561255557612555612623565b8785058712818416161561256b5761256b612623565b505050929093029392505050565b600081600019048311821515161561259357612593612623565b500290565b60008083128015600160ff1b8501841216156125b6576125b6612623565b6001600160ff1b03840183138116156125d1576125d1612623565b50500390565b6000828210156125e9576125e9612623565b500390565b600060001982141561260257612602612623565b5060010190565b6000600160ff1b82141561261f5761261f612623565b0390565b634e487b7160e01b600052601160045260246000fd5b634e487b7160e01b600052601260045260246000fd5b6001600160a01b0381168114610e1e57600080fd5b8015158114610e1e57600080fdfea2646970667358221220c03cdeb8e76288510706bbde129bc4cdc44c7f56424d1c39ac9311ca59eb110764736f6c63430008030033",
  "immutableReferences": {},
  "source": "// SPDX-License-Identifier: BUSL-1.1\n\npragma solidity 0.8.3;\n\nimport \"hardhat/console.sol\";\nimport \"@openzeppelin/contracts-upgradeable/token/ERC20/presets/ERC20PresetMinterPauserUpgradeable.sol\";\n\nimport \"./interfaces/IFloatToken.sol\";\nimport \"./interfaces/ILongShort.sol\";\nimport \"./interfaces/IStaker.sol\";\n\ncontract Staker is IStaker, Initializable {\n  /*\n                VARIABLES          \n      */\n\n  // Fixed-precision constants\n  uint256 public constant FLOAT_ISSUANCE_FIXED_DECIMAL = 1e42;\n\n  // Global state\n  address public admin;\n  address public floatCapital;\n  uint256 public floatPercentage;\n\n  ILongShort public longShortCoreContract;\n  IFloatToken public floatToken;\n\n  // Market specific\n  mapping(uint32 => uint256) public marketLaunchIncentivePeriod; // seconds\n  mapping(uint32 => uint256) public marketLaunchIncentiveMultipliers; // e18 scale\n  mapping(uint32 => uint256) public marketUnstakeFeeBasisPoints;\n  mapping(uint32 => uint256) public balanceIncentiveCurveExponent;\n  mapping(uint32 => int256) public balanceIncentiveCurveEquilibriumOffset;\n\n  mapping(uint32 => mapping(bool => ISyntheticToken)) public syntheticTokens;\n\n  mapping(ISyntheticToken => uint32) public marketIndexOfToken;\n\n  // Reward specific\n  mapping(uint32 => uint256) public latestRewardIndex;\n  mapping(uint32 => mapping(uint256 => RewardState)) public syntheticRewardParams;\n  struct RewardState {\n    uint256 timestamp;\n    uint256 accumulativeFloatPerLongToken;\n    uint256 accumulativeFloatPerShortToken;\n  }\n\n  // User specific\n  mapping(uint32 => mapping(address => uint256)) public userIndexOfLastClaimedReward;\n  mapping(ISyntheticToken => mapping(address => uint256)) public userAmountStaked;\n\n  /*\n                 EVENTS           \n      */\n\n  event StakerV1(address floatToken, uint256 floatPercentage);\n\n  event MarketAddedToStaker(\n    uint32 marketIndex,\n    uint256 exitFeeBasisPoints,\n    uint256 period,\n    uint256 multiplier,\n    uint256 balanceIncentiveExponent,\n    int256 balanceIncentiveEquilibriumOffset\n  );\n\n  event StateAdded(\n    uint32 marketIndex,\n    uint256 stateIndex,\n    uint256 accumulativeLong,\n    uint256 accumulativeShort\n  );\n\n  event StakeAdded(address user, address token, uint256 amount, uint256 lastMintIndex);\n\n  event StakeWithdrawn(address user, address token, uint256 amount);\n\n  event FloatMinted(\n    address user,\n    uint32 marketIndex,\n    uint256 amountLong,\n    uint256 amountShort,\n    uint256 lastMintIndex\n  );\n\n  event MarketLaunchIncentiveParametersChanges(\n    uint32 marketIndex,\n    uint256 period,\n    uint256 multiplier\n  );\n\n  event StakeWithdrawalFeeUpdated(uint32 marketIndex, uint256 stakeWithdralFee);\n\n  event BalanceIncentiveExponentUpdated(uint32 marketIndex, uint256 balanceIncentiveExponent);\n\n  event BalanceIncentiveEquilibriumOffsetUpdated(\n    uint32 marketIndex,\n    int256 balanceIncentiveEquilibriumOffset\n  );\n\n  event FloatPercentageUpdated(uint256 floatPercentage);\n\n  /*\n                MODIFIERS          \n      */\n\n  modifier onlyAdmin() {\n    require(msg.sender == admin, \"not admin\");\n    _;\n  }\n\n  modifier onlyValidSynthetic(ISyntheticToken _synth) {\n    require(marketIndexOfToken[_synth] != 0, \"not valid synth\");\n    _;\n  }\n\n  modifier onlyValidMarket(uint32 marketIndex) {\n    require(address(syntheticTokens[marketIndex][true]) != address(0), \"not valid market\");\n    // require(latestRewardIndex[marketIndex] != 0, \"not valid market\");\n    _;\n  }\n\n  modifier onlyFloat() {\n    require(msg.sender == address(longShortCoreContract));\n    _;\n  }\n\n  /*\n             CONTRACT SET-UP       \n      */\n\n  function initialize(\n    address _admin,\n    address _longShortCoreContract,\n    address _floatToken,\n    address _floatCapital,\n    uint256 _floatPercentage\n  ) public initializer {\n    require(\n      _admin != address(0) &&\n        _floatCapital != address(0) &&\n        _longShortCoreContract != address(0) &&\n        _floatToken != address(0)\n    );\n    admin = _admin;\n    floatCapital = _floatCapital;\n    longShortCoreContract = ILongShort(_longShortCoreContract);\n    floatToken = IFloatToken(_floatToken);\n\n    _changeFloatPercentage(_floatPercentage);\n\n    emit StakerV1(_floatToken, floatPercentage);\n  }\n\n  /*\n             MULTI-SIG ADMIN       \n      */\n\n  function changeAdmin(address _admin) external onlyAdmin {\n    admin = _admin;\n  }\n\n  function _changeFloatPercentage(uint256 newFloatPercentage) internal {\n    require(newFloatPercentage <= 1e18 && newFloatPercentage > 0); // less than 100% and greater than 0%\n    floatPercentage = newFloatPercentage;\n  }\n\n  function changeFloatPercentage(uint256 newFloatPercentage) external onlyAdmin {\n    _changeFloatPercentage(newFloatPercentage);\n    emit FloatPercentageUpdated(newFloatPercentage);\n  }\n\n  function _changeUnstakeFee(uint32 marketIndex, uint256 newMarketUnstakeFeeBasisPoints) internal {\n    require(newMarketUnstakeFeeBasisPoints <= 5e16); // 5% fee is the max fee possible.\n    marketUnstakeFeeBasisPoints[marketIndex] = newMarketUnstakeFeeBasisPoints;\n  }\n\n  function changeUnstakeFee(uint32 marketIndex, uint256 newMarketUnstakeFeeBasisPoints)\n    external\n    onlyAdmin\n  {\n    _changeUnstakeFee(marketIndex, newMarketUnstakeFeeBasisPoints);\n    emit StakeWithdrawalFeeUpdated(marketIndex, newMarketUnstakeFeeBasisPoints);\n  }\n\n  function changeMarketLaunchIncentiveParameters(\n    uint32 marketIndex,\n    uint256 period,\n    uint256 initialMultiplier\n  ) external onlyAdmin {\n    _changeMarketLaunchIncentiveParameters(marketIndex, period, initialMultiplier);\n\n    emit MarketLaunchIncentiveParametersChanges(marketIndex, period, initialMultiplier);\n  }\n\n  function _changeMarketLaunchIncentiveParameters(\n    uint32 marketIndex,\n    uint256 period,\n    uint256 initialMultiplier\n  ) internal {\n    require(initialMultiplier >= 1e18, \"marketLaunchIncentiveMultiplier must be >= 1e181\");\n\n    marketLaunchIncentivePeriod[marketIndex] = period;\n    marketLaunchIncentiveMultipliers[marketIndex] = initialMultiplier;\n  }\n\n  function _changBalanceIncentiveExponent(\n    uint32 marketIndex,\n    uint256 _balanceIncentiveCurveExponent\n  ) internal {\n    require(\n      _balanceIncentiveCurveExponent > 0 && _balanceIncentiveCurveExponent < 10000,\n      \"balanceIncentiveCurveExponent out of bounds\"\n    );\n\n    balanceIncentiveCurveExponent[marketIndex] = _balanceIncentiveCurveExponent;\n  }\n\n  function changBalanceIncentiveExponent(uint32 marketIndex, uint256 _balanceIncentiveCurveExponent)\n    external\n    onlyAdmin\n  {\n    _changBalanceIncentiveExponent(marketIndex, _balanceIncentiveCurveExponent);\n\n    emit BalanceIncentiveExponentUpdated(marketIndex, _balanceIncentiveCurveExponent);\n  }\n\n  function _changBalanceIncentiveEquilibriumOffset(\n    uint32 marketIndex,\n    int256 _balanceIncentiveCurveEquilibriumOffset\n  ) internal {\n    // Unreasonable that we would ever shift this more than 90% either way\n    require(\n      _balanceIncentiveCurveEquilibriumOffset > -9e17 &&\n        _balanceIncentiveCurveEquilibriumOffset < 9e17,\n      \"balanceIncentiveCurveEquilibriumOffset out of bounds\"\n    );\n\n    balanceIncentiveCurveEquilibriumOffset[marketIndex] = _balanceIncentiveCurveEquilibriumOffset;\n  }\n\n  function changBalanceIncentiveEquilibriumOffset(\n    uint32 marketIndex,\n    int256 _balanceIncentiveCurveEquilibriumOffset\n  ) external onlyAdmin {\n    _changBalanceIncentiveEquilibriumOffset(marketIndex, _balanceIncentiveCurveEquilibriumOffset);\n\n    emit BalanceIncentiveEquilibriumOffsetUpdated(\n      marketIndex,\n      _balanceIncentiveCurveEquilibriumOffset\n    );\n  }\n\n  /*\n              STAKING SETUP        \n      */\n\n  function addNewStakingFund(\n    uint32 marketIndex,\n    ISyntheticToken longToken,\n    ISyntheticToken shortToken,\n    uint256 kInitialMultiplier,\n    uint256 kPeriod,\n    uint256 unstakeFee_e18,\n    uint256 _balanceIncentiveCurveExponent,\n    int256 _balanceIncentiveCurveEquilibriumOffset\n  ) external override onlyFloat {\n    marketIndexOfToken[longToken] = marketIndex;\n    marketIndexOfToken[shortToken] = marketIndex;\n\n    syntheticRewardParams[marketIndex][0].timestamp = block.timestamp;\n    syntheticRewardParams[marketIndex][0].accumulativeFloatPerLongToken = 0;\n    syntheticRewardParams[marketIndex][0].accumulativeFloatPerShortToken = 0;\n\n    syntheticTokens[marketIndex][true] = longToken;\n    syntheticTokens[marketIndex][false] = shortToken;\n\n    _changBalanceIncentiveExponent(marketIndex, _balanceIncentiveCurveExponent);\n    _changBalanceIncentiveEquilibriumOffset(marketIndex, _balanceIncentiveCurveEquilibriumOffset);\n    _changeMarketLaunchIncentiveParameters(marketIndex, kPeriod, kInitialMultiplier);\n\n    _changeUnstakeFee(marketIndex, unstakeFee_e18);\n\n    emit MarketAddedToStaker(\n      marketIndex,\n      unstakeFee_e18,\n      kPeriod,\n      kInitialMultiplier,\n      _balanceIncentiveCurveExponent,\n      _balanceIncentiveCurveEquilibriumOffset\n    );\n\n    emit StateAdded(marketIndex, 0, 0, 0);\n  }\n\n  ////////////////////////////////////\n  // GLOBAL REWARD STATE FUNCTIONS ///\n  ////////////////////////////////////\n\n  /*\n   * Returns the K factor parameters for the given market with sensible\n   * defaults if they haven't been set yet.\n   */\n  function getMarketLaunchIncentiveParameters(uint32 marketIndex)\n    internal\n    view\n    returns (uint256, uint256)\n  {\n    uint256 period = marketLaunchIncentivePeriod[marketIndex];\n    uint256 multiplier = marketLaunchIncentiveMultipliers[marketIndex];\n    if (multiplier == 0) {\n      multiplier = 1e18; // multiplier of 1 by default\n    }\n\n    return (period, multiplier);\n  }\n\n  function getKValue(uint32 marketIndex) internal view returns (uint256) {\n    // Parameters controlling the float issuance multiplier.\n    (uint256 kPeriod, uint256 kInitialMultiplier) = getMarketLaunchIncentiveParameters(marketIndex);\n\n    // Sanity check - under normal circumstances, the multipliers should\n    // *never* be set to a value < 1e18, as there are guards against this.\n    assert(kInitialMultiplier >= 1e18);\n\n    uint256 initialTimestamp = syntheticRewardParams[marketIndex][0].timestamp;\n\n    if (block.timestamp - initialTimestamp <= kPeriod) {\n      return\n        kInitialMultiplier -\n        (((kInitialMultiplier - 1e18) * (block.timestamp - initialTimestamp)) / kPeriod);\n    } else {\n      return 1e18;\n    }\n  }\n\n  // TODO: turn this into a library.\n  //       make this a simple lookup table with appropriate aproximation\n  function getRequiredAmountOfBitShiftForSafeExponentiation(uint256 number, uint256 exponent)\n    internal\n    pure\n    returns (uint256 amountOfBitShiftRequired)\n  {\n    uint256 targetMaxNumberSizeBinaryDigits = 257 / exponent;\n\n    // Note this can be optimised, this gets a quick easy to compute safe upper bound, not the actuall upper bound.\n    uint256 targetMaxNumber = 2**targetMaxNumberSizeBinaryDigits;\n\n    while (number >> amountOfBitShiftRequired > targetMaxNumber) {\n      ++amountOfBitShiftRequired;\n    }\n  }\n\n  /*\n   * Computes the current 'r' value, i.e. the number of float tokens a user\n   * earns per second for every longshort token they've staked. The returned\n   * value has a fixed decimal scale of 1e42 (!!!) for numerical stability.\n   * The return values are float per second per synthetic token (hence the\n   * requirement to multiply by price)\n   *  -- here is the graph of the curve used: https://www.desmos.com/calculator/vg7jlmn4mn\n   */\n  function _calculateFloatPerSecond(\n    uint32 marketIndex,\n    uint256 longPrice,\n    uint256 shortPrice,\n    uint256 longValue,\n    uint256 shortValue\n  ) internal view returns (uint256 longFloatPerSecond, uint256 shortFloatPerSecond) {\n    // Markets cannot be or become empty (since they are seeded with non-withdrawable capital)\n    assert(longValue != 0 && shortValue != 0);\n\n    // A float issuance multiplier that starts high and decreases linearly\n    // over time to a value of 1. This incentivises users to stake early.\n    uint256 k = getKValue(marketIndex);\n\n    uint256 totalLocked = (longValue + shortValue);\n\n    // we need to scale this number by the totalLocked so that the offset remains consistent accross market size\n\n    int256 equilibriumOffsetMarketScaled = (balanceIncentiveCurveEquilibriumOffset[marketIndex] *\n      int256(totalLocked)) / 1e18;\n\n    uint256 requiredBitShifting = getRequiredAmountOfBitShiftForSafeExponentiation(\n      totalLocked,\n      balanceIncentiveCurveExponent[marketIndex]\n    );\n\n    // Float is scaled by the percentage of the total market value held in\n    // the opposite position. This incentivises users to stake on the\n    // weaker position.\n    if (int256(shortValue) - equilibriumOffsetMarketScaled < int256(longValue)) {\n      if (equilibriumOffsetMarketScaled >= int256(shortValue)) {\n        // edge case: imbalanced far past the equilibrium offset - full rewards go to short token\n        //            extremeley unlikely to happen in practice\n        return (0, 1e18 * k * shortPrice);\n      }\n\n      uint256 numerator = (uint256(int256(shortValue) - equilibriumOffsetMarketScaled) >>\n        (requiredBitShifting - 1))**balanceIncentiveCurveExponent[marketIndex];\n\n      uint256 denominator = ((totalLocked >> requiredBitShifting) **\n        balanceIncentiveCurveExponent[marketIndex]) / 1e18;\n\n      uint256 longRewardUnscaled = (numerator / denominator) / 2;\n      uint256 shortRewardUnscaled = 1e18 - longRewardUnscaled;\n\n      return (\n        (longRewardUnscaled * k * longPrice) / 1e18,\n        (shortRewardUnscaled * k * shortPrice) / 1e18\n      );\n    } else {\n      if (-equilibriumOffsetMarketScaled >= int256(longValue)) {\n        // edge case: imbalanced far past the equilibrium offset - full rewards go to long token\n        //            extremeley unlikely to happen in practice\n        return (1e18 * k * longPrice, 0);\n      }\n\n      uint256 numerator = (uint256(int256(longValue) + equilibriumOffsetMarketScaled) >>\n        (requiredBitShifting - 1))**balanceIncentiveCurveExponent[marketIndex];\n\n      uint256 denominator = ((totalLocked >> requiredBitShifting) **\n        balanceIncentiveCurveExponent[marketIndex]) / 1e18;\n\n      uint256 shortRewardUnscaled = (numerator / denominator) / 2;\n      uint256 longRewardUnscaled = 1e18 - shortRewardUnscaled;\n\n      return (\n        (longRewardUnscaled * k * longPrice) / 1e18,\n        (shortRewardUnscaled * k * shortPrice) / 1e18\n      );\n    }\n  }\n\n  /*\n   * Computes the time since last state point for the given token in seconds.\n   */\n  function calculateTimeDelta(uint32 marketIndex) internal view returns (uint256) {\n    return\n      block.timestamp -\n      syntheticRewardParams[marketIndex][latestRewardIndex[marketIndex]].timestamp;\n  }\n\n  /*\n   * Computes new cumulative sum of 'r' value since last state point. We use\n   * cumulative 'r' value to avoid looping during issuance. Note that the\n   * cumulative sum is kept in 1e42 scale (!!!) to avoid numerical issues.\n   */\n  function calculateNewCumulativeRate(\n    uint32 marketIndex,\n    uint256 longPrice,\n    uint256 shortPrice,\n    uint256 longValue,\n    uint256 shortValue\n  ) internal view returns (uint256 longCumulativeRates, uint256 shortCumulativeRates) {\n    // Compute the current 'r' value for float issuance per second.\n    (uint256 longFloatPerSecond, uint256 shortFloatPerSecond) = _calculateFloatPerSecond(\n      marketIndex,\n      longPrice,\n      shortPrice,\n      longValue,\n      shortValue\n    );\n\n    // Compute time since last state point for the given token.\n    uint256 timeDelta = calculateTimeDelta(marketIndex);\n\n    // Compute new cumulative 'r' value total.\n    return (\n      syntheticRewardParams[marketIndex][latestRewardIndex[marketIndex]]\n      .accumulativeFloatPerLongToken + (timeDelta * longFloatPerSecond),\n      syntheticRewardParams[marketIndex][latestRewardIndex[marketIndex]]\n      .accumulativeFloatPerShortToken + (timeDelta * shortFloatPerSecond)\n    );\n  }\n\n  /*\n   * Creates a new state point for the given token and updates indexes.\n   */\n  function setRewardObjects(\n    uint32 marketIndex,\n    uint256 longPrice,\n    uint256 shortPrice,\n    uint256 longValue,\n    uint256 shortValue\n  ) internal {\n    (uint256 longAccumulativeRates, uint256 shortAccumulativeRates) = calculateNewCumulativeRate(\n      marketIndex,\n      longPrice,\n      shortPrice,\n      longValue,\n      shortValue\n    );\n\n    uint256 newIndex = latestRewardIndex[marketIndex] + 1;\n\n    // Set cumulative 'r' value on new state point.\n    syntheticRewardParams[marketIndex][newIndex]\n    .accumulativeFloatPerLongToken = longAccumulativeRates;\n    syntheticRewardParams[marketIndex][newIndex]\n    .accumulativeFloatPerShortToken = shortAccumulativeRates;\n\n    // Set timestamp on new state point.\n    syntheticRewardParams[marketIndex][newIndex].timestamp = block.timestamp;\n\n    // Update latest index to point to new state point.\n    latestRewardIndex[marketIndex] = newIndex;\n\n    emit StateAdded(marketIndex, newIndex, longAccumulativeRates, shortAccumulativeRates);\n  }\n\n  /*\n   * Adds new state points for the given long/short tokens. Called by the\n   * ILongShort contract whenever there is a state change for a market.\n   */\n  function addNewStateForFloatRewards(\n    uint32 marketIndex,\n    uint256 longPrice,\n    uint256 shortPrice,\n    uint256 longValue,\n    uint256 shortValue\n  ) external override onlyFloat {\n    // Only add a new state point if some time has passed.\n\n    // Time delta is fetched twice in below code, can pass through? Which is less gas?\n    if (calculateTimeDelta(marketIndex) > 0) {\n      setRewardObjects(marketIndex, longPrice, shortPrice, longValue, shortValue);\n    }\n  }\n\n  ////////////////////////////////////\n  // USER REWARD STATE FUNCTIONS /////\n  ////////////////////////////////////\n\n  function calculateAccumulatedFloatHelper(\n    uint32 marketIndex,\n    address user,\n    uint256 amountStakedLong,\n    uint256 amountStakedShort,\n    uint256 usersLastRewardIndex\n  )\n    internal\n    view\n    returns (\n      // NOTE: this returns the long and short reward separately for the sake of simplicity of the event and the graph. Would be more efficient to return as single value\n      uint256 longFloatReward,\n      uint256 shortFloatReward\n    )\n  {\n    // Don't do the calculation and return zero immediately if there is no change\n    if (usersLastRewardIndex == latestRewardIndex[marketIndex]) {\n      return (0, 0);\n    }\n\n    // Stake should always do a full system state update, so 'users last claimed index' should never be greater than the latest index\n    assert(userIndexOfLastClaimedReward[marketIndex][user] < latestRewardIndex[marketIndex]);\n\n    ISyntheticToken longToken = syntheticTokens[marketIndex][true];\n    ISyntheticToken shortToken = syntheticTokens[marketIndex][false];\n\n    if (amountStakedLong > 0) {\n      uint256 accumDeltaLong = syntheticRewardParams[marketIndex][latestRewardIndex[marketIndex]]\n      .accumulativeFloatPerLongToken -\n        syntheticRewardParams[marketIndex][userIndexOfLastClaimedReward[marketIndex][user]]\n        .accumulativeFloatPerLongToken;\n      longFloatReward = (accumDeltaLong * amountStakedLong) / FLOAT_ISSUANCE_FIXED_DECIMAL;\n    }\n\n    if (amountStakedShort > 0) {\n      uint256 accumDeltaShort = syntheticRewardParams[marketIndex][latestRewardIndex[marketIndex]]\n      .accumulativeFloatPerShortToken -\n        syntheticRewardParams[marketIndex][userIndexOfLastClaimedReward[marketIndex][user]]\n        .accumulativeFloatPerShortToken;\n      shortFloatReward = (accumDeltaShort * amountStakedShort) / FLOAT_ISSUANCE_FIXED_DECIMAL;\n    }\n\n    // explicit return\n    return (longFloatReward, shortFloatReward);\n  }\n\n  function calculateAccumulatedFloat(uint32 marketIndex, address user)\n    internal\n    view\n    returns (\n      // NOTE: this returns the long and short reward separately for the sake of simplicity of the event and the graph. Would be more efficient to return as single value\n      uint256 longFloatReward,\n      uint256 shortFloatReward\n    )\n  {\n    ISyntheticToken longToken = syntheticTokens[marketIndex][true];\n    ISyntheticToken shortToken = syntheticTokens[marketIndex][false];\n\n    uint256 amountStakedLong = userAmountStaked[longToken][user];\n    uint256 amountStakedShort = userAmountStaked[shortToken][user];\n\n    // explicit return\n    return\n      calculateAccumulatedFloatHelper(\n        marketIndex,\n        user,\n        amountStakedLong,\n        amountStakedShort,\n        userIndexOfLastClaimedReward[marketIndex][user]\n      );\n  }\n\n  function _mintFloat(address user, uint256 floatToMint) internal {\n    floatToken.mint(user, floatToMint);\n    floatToken.mint(floatCapital, (floatToMint * floatPercentage) / 1e18);\n  }\n\n  function mintAccumulatedFloat(uint32 marketIndex, address user) internal {\n    // NOTE: Could merge these two values already inside the `calculateAccumulatedFloat` function, but that would make it harder for the graph\n    (uint256 floatToMintLong, uint256 floatToMintShort) = calculateAccumulatedFloat(\n      marketIndex,\n      user\n    );\n\n    uint256 floatToMint = floatToMintLong + floatToMintShort;\n    if (floatToMint > 0) {\n      // stops them setting this forward\n      userIndexOfLastClaimedReward[marketIndex][user] = latestRewardIndex[marketIndex];\n\n      _mintFloat(user, floatToMint);\n\n      emit FloatMinted(\n        user,\n        marketIndex,\n        floatToMintLong,\n        floatToMintShort,\n        latestRewardIndex[marketIndex]\n      );\n    }\n  }\n\n  function _claimFloat(uint32[] calldata marketIndexes) internal {\n    uint256 floatTotal = 0;\n    for (uint256 i = 0; i < marketIndexes.length; i++) {\n      // NOTE: Could merge these two values already inside the `calculateAccumulatedFloat` function, but that would make it harder for the graph\n      (uint256 floatToMintLong, uint256 floatToMintShort) = calculateAccumulatedFloat(\n        marketIndexes[i],\n        msg.sender\n      );\n\n      uint256 floatToMint = floatToMintLong + floatToMintShort;\n\n      if (floatToMint > 0) {\n        // Set the user has claimed up until now.\n        // TODO: think very carefully if it is ok for this to be in this if statement. Safer would be to always set this value?\n        //       99.9% sure it is ok though, since `_stake` sets this value when someone joins.\n        //       Maybe just change for the sake of caution?\n        userIndexOfLastClaimedReward[marketIndexes[i]][msg.sender] = latestRewardIndex[\n          marketIndexes[i]\n        ];\n\n        floatTotal += floatToMint;\n\n        emit FloatMinted(\n          msg.sender,\n          marketIndexes[i],\n          floatToMintLong,\n          floatToMintShort,\n          latestRewardIndex[marketIndexes[i]]\n        );\n      }\n    }\n    if (floatTotal > 0) {\n      _mintFloat(msg.sender, floatTotal);\n    }\n  }\n\n  function claimFloatCustom(uint32[] calldata marketIndexes) external {\n    require(marketIndexes.length <= 50); // Set some (arbitrary) limit on loop length\n    longShortCoreContract.updateSystemStateMulti(marketIndexes);\n    _claimFloat(marketIndexes);\n  }\n\n  ////////////////////////////////////\n  /////////// STAKING ////////////////\n  ////////////////////////////////////\n\n  /*\n   * A user with synthetic tokens stakes by calling stake on the token\n   * contract which calls this function. We need to first update the\n   * State of the system before staking to correctly calculate user rewards.\n   */\n  function stakeFromUser(address from, uint256 amount)\n    public\n    override\n    onlyValidSynthetic(ISyntheticToken(msg.sender))\n  {\n    longShortCoreContract.updateSystemState(marketIndexOfToken[ISyntheticToken(msg.sender)]);\n    _stake(ISyntheticToken(msg.sender), amount, from);\n  }\n\n  function _stake(\n    ISyntheticToken token,\n    uint256 amount,\n    address user\n  ) internal {\n    uint32 marketIndex = marketIndexOfToken[token];\n\n    // If they already have staked and have rewards due, mint these.\n    if (\n      userIndexOfLastClaimedReward[marketIndex][user] != 0 &&\n      userIndexOfLastClaimedReward[marketIndex][user] < latestRewardIndex[marketIndex]\n    ) {\n      mintAccumulatedFloat(marketIndex, user);\n    }\n\n    userAmountStaked[token][user] = userAmountStaked[token][user] + amount;\n\n    userIndexOfLastClaimedReward[marketIndex][user] = latestRewardIndex[marketIndex];\n\n    emit StakeAdded(user, address(token), amount, userIndexOfLastClaimedReward[marketIndex][user]);\n  }\n\n  ////////////////////////////////////\n  /////// WITHDRAW n MINT ////////////\n  ////////////////////////////////////\n\n  /*\n    Withdraw function.\n    Mint user any outstanding float before\n    */\n  function _withdraw(ISyntheticToken token, uint256 amount) internal {\n    uint32 marketIndex = marketIndexOfToken[token];\n    require(userAmountStaked[token][msg.sender] > 0, \"nothing to withdraw\");\n    mintAccumulatedFloat(marketIndex, msg.sender);\n\n    userAmountStaked[token][msg.sender] = userAmountStaked[token][msg.sender] - amount;\n\n    uint256 amountFees = (amount * marketUnstakeFeeBasisPoints[marketIndex]) / 1e18;\n\n    token.transfer(msg.sender, amount - amountFees);\n\n    emit StakeWithdrawn(msg.sender, address(token), amount);\n  }\n\n  function withdraw(ISyntheticToken token, uint256 amount) external {\n    longShortCoreContract.updateSystemState(marketIndexOfToken[token]);\n\n    _withdraw(token, amount);\n  }\n\n  function withdrawAll(ISyntheticToken token) external {\n    longShortCoreContract.updateSystemState(marketIndexOfToken[token]);\n\n    _withdraw(token, userAmountStaked[token][msg.sender]);\n  }\n}\n",
  "sourcePath": "/home/jasoons/Documents/code/monorepo/contracts/contracts/Staker.sol",
  "compiler": {
    "name": "solc",
    "version": "0.8.3+commit.8d00100c.Emscripten.clang"
  },
  "schemaVersion": "3.3.4",
  "updatedAt": "2021-07-12T15:23:44.550Z",
  "networkType": "ethereum",
  "devdoc": {
    "kind": "dev",
    "methods": {},
    "version": 1
  },
  "userdoc": {
    "kind": "user",
    "methods": {},
    "version": 1
  }
}