{
  "contractName": "TokenFactory",
  "abi": [
    {
      "inputs": [
        {
          "internalType": "address",
          "name": "_admin",
          "type": "address"
        },
        {
          "internalType": "address",
          "name": "_floatContract",
          "type": "address"
        }
      ],
      "stateMutability": "nonpayable",
      "type": "constructor"
    },
    {
      "inputs": [],
      "name": "DEFAULT_ADMIN_ROLE",
      "outputs": [
        {
          "internalType": "bytes32",
          "name": "",
          "type": "bytes32"
        }
      ],
      "stateMutability": "view",
      "type": "function",
      "constant": true
    },
    {
      "inputs": [],
      "name": "MINTER_ROLE",
      "outputs": [
        {
          "internalType": "bytes32",
          "name": "",
          "type": "bytes32"
        }
      ],
      "stateMutability": "view",
      "type": "function",
      "constant": true
    },
    {
      "inputs": [],
      "name": "PAUSER_ROLE",
      "outputs": [
        {
          "internalType": "bytes32",
          "name": "",
          "type": "bytes32"
        }
      ],
      "stateMutability": "view",
      "type": "function",
      "constant": true
    },
    {
      "inputs": [],
      "name": "admin",
      "outputs": [
        {
          "internalType": "address",
          "name": "",
          "type": "address"
        }
      ],
      "stateMutability": "view",
      "type": "function",
      "constant": true
    },
    {
      "inputs": [],
      "name": "floatContract",
      "outputs": [
        {
          "internalType": "address",
          "name": "",
          "type": "address"
        }
      ],
      "stateMutability": "view",
      "type": "function",
      "constant": true
    },
    {
      "inputs": [
        {
          "internalType": "address",
          "name": "_admin",
          "type": "address"
        }
      ],
      "name": "changeAdmin",
      "outputs": [],
      "stateMutability": "nonpayable",
      "type": "function"
    },
    {
      "inputs": [
        {
          "internalType": "address",
          "name": "_floatContract",
          "type": "address"
        }
      ],
      "name": "changeFloatAddress",
      "outputs": [],
      "stateMutability": "nonpayable",
      "type": "function"
    },
    {
      "inputs": [
        {
          "internalType": "string",
          "name": "syntheticName",
          "type": "string"
        },
        {
          "internalType": "string",
          "name": "syntheticSymbol",
          "type": "string"
        },
        {
          "internalType": "address",
          "name": "staker",
          "type": "address"
        }
      ],
      "name": "createTokenLong",
      "outputs": [
        {
          "internalType": "contract SyntheticToken",
          "name": "",
          "type": "address"
        }
      ],
      "stateMutability": "nonpayable",
      "type": "function"
    },
    {
      "inputs": [
        {
          "internalType": "string",
          "name": "syntheticName",
          "type": "string"
        },
        {
          "internalType": "string",
          "name": "syntheticSymbol",
          "type": "string"
        },
        {
          "internalType": "address",
          "name": "staker",
          "type": "address"
        }
      ],
      "name": "createTokenShort",
      "outputs": [
        {
          "internalType": "contract SyntheticToken",
          "name": "",
          "type": "address"
        }
      ],
      "stateMutability": "nonpayable",
      "type": "function"
    }
  ],
  "bytecode": "0x608060405234801561001057600080fd5b50604051612a42380380612a4283398101604081905261002f9161007c565b600080546001600160a01b039384166001600160a01b031991821617909155600180549290931691161790556100ae565b80516001600160a01b038116811461007757600080fd5b919050565b6000806040838503121561008e578182fd5b61009783610060565b91506100a560208401610060565b90509250929050565b612985806100bd6000396000f3fe60806040523480156200001157600080fd5b5060043610620000a05760003560e01c8063a217fddf116200006f578063a217fddf146200011d578063cfc680891462000154578063d5391393146200016b578063e63ab1e91462000193578063f851a44014620001bb57620000a0565b80634eb86d7314620000a557806357ca5f1c14620000be578063885eae3e14620000f25780638f2839701462000106575b600080fd5b620000bc620000b6366004620006f2565b620001cf565b005b620000d5620000cf36600462000716565b62000209565b6040516001600160a01b0390911681526020015b60405180910390f35b600154620000d5906001600160a01b031681565b620000bc62000117366004620006f2565b620002d2565b620001457f1effbbff9c66c5e59634f24fe842750c60d18891155c32dd155fc2d661a4c86d81565b604051908152602001620000e9565b620000d56200016536600462000716565b6200030c565b620001457f9f2df0fed2c77648de5860a4cc508cd0818c85b8b8a1ab4ceeef8d981c8956a681565b620001457f65d7a28e3265b37a6474929f336521b332c1681b933f6cb9f3376673440d862a81565b600054620000d5906001600160a01b031681565b6000546001600160a01b03163314620001e757600080fd5b600180546001600160a01b0319166001600160a01b0392909216919091179055565b6001546000906001600160a01b031633146200022457600080fd5b600086866040516020016200023b92919062000827565b60405160208183030381529060405285856040516020016200025f92919062000809565b60408051601f198184030181529082905260015490916001600160a01b039091169086906200028e906200067d565b6200029d949392919062000872565b604051809103906000f080158015620002ba573d6000803e3d6000fd5b509050620002c88162000362565b9695505050505050565b6000546001600160a01b03163314620002ea57600080fd5b600080546001600160a01b0319166001600160a01b0392909216919091179055565b6001546000906001600160a01b031633146200032757600080fd5b600086866040516020016200033e9291906200084b565b60405160208183030381529060405285856040516020016200025f929190620007eb565b600154604051632f2ff15d60e01b81527f1effbbff9c66c5e59634f24fe842750c60d18891155c32dd155fc2d661a4c86d60048201526001600160a01b03918216602482015290821690632f2ff15d90604401600060405180830381600087803b158015620003d057600080fd5b505af1158015620003e5573d6000803e3d6000fd5b5050600154604051632f2ff15d60e01b81527f9f2df0fed2c77648de5860a4cc508cd0818c85b8b8a1ab4ceeef8d981c8956a660048201526001600160a01b0391821660248201529084169250632f2ff15d9150604401600060405180830381600087803b1580156200045757600080fd5b505af11580156200046c573d6000803e3d6000fd5b5050600154604051632f2ff15d60e01b81527f65d7a28e3265b37a6474929f336521b332c1681b933f6cb9f3376673440d862a60048201526001600160a01b0391821660248201529084169250632f2ff15d9150604401600060405180830381600087803b158015620004de57600080fd5b505af1158015620004f3573d6000803e3d6000fd5b505060405163d547741f60e01b81527f1effbbff9c66c5e59634f24fe842750c60d18891155c32dd155fc2d661a4c86d60048201523060248201526001600160a01b038416925063d547741f9150604401600060405180830381600087803b1580156200055f57600080fd5b505af115801562000574573d6000803e3d6000fd5b505060405163d547741f60e01b81527f9f2df0fed2c77648de5860a4cc508cd0818c85b8b8a1ab4ceeef8d981c8956a660048201523060248201526001600160a01b038416925063d547741f9150604401600060405180830381600087803b158015620005e057600080fd5b505af1158015620005f5573d6000803e3d6000fd5b505060405163d547741f60e01b81527f65d7a28e3265b37a6474929f336521b332c1681b933f6cb9f3376673440d862a60048201523060248201526001600160a01b038416925063d547741f9150604401600060405180830381600087803b1580156200066157600080fd5b505af115801562000676573d6000803e3d6000fd5b5050505050565b61208f80620008c183390190565b80356001600160a01b0381168114620006a357600080fd5b919050565b60008083601f840112620006ba578182fd5b50813567ffffffffffffffff811115620006d2578182fd5b602083019150836020828501011115620006eb57600080fd5b9250929050565b60006020828403121562000704578081fd5b6200070f826200068b565b9392505050565b6000806000806000606086880312156200072e578081fd5b853567ffffffffffffffff8082111562000746578283fd5b6200075489838a01620006a8565b909750955060208801359150808211156200076d578283fd5b506200077c88828901620006a8565b9094509250620007919050604087016200068b565b90509295509295909350565b60008151808452815b81811015620007c457602081850181015186830182015201620007a6565b81811115620007d65782602083870101525b50601f01601f19169290920160200192915050565b600061199960f21b8252828460028401379101600201908152919050565b600061667560f01b8252828460028401379101600201908152919050565b6000670464c4f41542055560c41b8252828460088401379101600801908152919050565b60006a0232627a0aa102227aba7160ad1b82528284600b8401379101600b01908152919050565b6000608082526200088760808301876200079d565b82810360208401526200089b81876200079d565b6001600160a01b0395861660408501529390941660609092019190915250939250505056fe60806040523480156200001157600080fd5b506040516200208f3803806200208f8339810160408190526200003491620003f5565b838381818160059080519060200190620000509291906200027f565b508051620000669060069060208401906200027f565b50506007805460ff1916905550620000816000335b6200011a565b620000ad7f9f2df0fed2c77648de5860a4cc508cd0818c85b8b8a1ab4ceeef8d981c8956a6336200007b565b620000d97f65d7a28e3265b37a6474929f336521b332c1681b933f6cb9f3376673440d862a336200007b565b505060078054610100600160a81b0319166101006001600160a01b0394851602179055600880546001600160a01b0319169190921617905550620004d49050565b6200013182826200015d60201b62000ac21760201c565b60008281526001602090815260409091206200015891839062000acc6200016d821b17901c565b505050565b6200016982826200018d565b5050565b600062000184836001600160a01b0384166200022d565b90505b92915050565b6000828152602081815260408083206001600160a01b038516845290915290205460ff1662000169576000828152602081815260408083206001600160a01b03851684529091529020805460ff19166001179055620001e93390565b6001600160a01b0316816001600160a01b0316837f2f8788117e7eff1d82e926ec794901d17c78024a50270940304540a733656f0d60405160405180910390a45050565b6000818152600183016020526040812054620002765750815460018181018455600084815260208082209093018490558454848252828601909352604090209190915562000187565b50600062000187565b8280546200028d9062000481565b90600052602060002090601f016020900481019282620002b15760008555620002fc565b82601f10620002cc57805160ff1916838001178555620002fc565b82800160010185558215620002fc579182015b82811115620002fc578251825591602001919060010190620002df565b506200030a9291506200030e565b5090565b5b808211156200030a57600081556001016200030f565b80516001600160a01b03811681146200033d57600080fd5b919050565b600082601f83011262000353578081fd5b81516001600160401b0380821115620003705762000370620004be565b604051601f8301601f19908116603f011681019082821181831017156200039b576200039b620004be565b81604052838152602092508683858801011115620003b7578485fd5b8491505b83821015620003da5785820183015181830184015290820190620003bb565b83821115620003eb57848385830101525b9695505050505050565b600080600080608085870312156200040b578384fd5b84516001600160401b038082111562000422578586fd5b620004308883890162000342565b9550602087015191508082111562000446578485fd5b50620004558782880162000342565b935050620004666040860162000325565b9150620004766060860162000325565b905092959194509250565b600181811c908216806200049657607f821691505b60208210811415620004b857634e487b7160e01b600052602260045260246000fd5b50919050565b634e487b7160e01b600052604160045260246000fd5b611bab80620004e46000396000f3fe608060405234801561001057600080fd5b50600436106101f05760003560e01c806370a082311161010f578063a694fc3a116100a2578063d539139311610071578063d53913931461042c578063d547741f14610453578063dd62ed3e14610466578063e63ab1e91461049f576101f0565b8063a694fc3a146103db578063a9059cbb146103ee578063b777453a14610401578063ca15c87314610419576101f0565b806391d14854116100de57806391d14854146103a557806395d89b41146103b8578063a217fddf146103c0578063a457c2d7146103c8576101f0565b806370a082311461034e57806379cc6790146103775780638456cb591461038a5780639010d07c14610392576101f0565b806336568abe1161018757806342966c681161015657806342966c68146102f25780635c975abb146103055780635ebaf1db14610310578063633241421461033b576101f0565b806336568abe146102b157806339509351146102c45780633f4ba83a146102d757806340c10f19146102df576101f0565b806323b872dd116101c357806323b872dd14610257578063248a9ca31461026a5780632f2ff15d1461028d578063313ce567146102a2576101f0565b806301ffc9a7146101f557806306fdde031461021d578063095ea7b31461023257806318160ddd14610245575b600080fd5b6102086102033660046119bf565b6104c6565b60405190151581526020015b60405180910390f35b6102256104f3565b6040516102149190611a5c565b61020861024036600461193b565b610585565b6004545b604051908152602001610214565b610208610265366004611900565b61059c565b610249610278366004611964565b60009081526020819052604090206001015490565b6102a061029b36600461197c565b610652565b005b60405160128152602001610214565b6102a06102bf36600461197c565b610679565b6102086102d236600461193b565b61069b565b6102a06106d2565b6102a06102ed36600461193b565b610778565b6102a0610300366004611964565b610786565b60075460ff16610208565b600854610323906001600160a01b031681565b6040516001600160a01b039091168152602001610214565b6102a061034936600461193b565b610793565b61024961035c3660046118b4565b6001600160a01b031660009081526002602052604090205490565b6102a061038536600461193b565b6107fc565b6102a061087f565b6103236103a036600461199e565b610923565b6102086103b336600461197c565b610942565b61022561096b565b610249600081565b6102086103d636600461193b565b61097a565b6102a06103e9366004611964565b610a15565b6102086103fc36600461193b565b610a94565b6007546103239061010090046001600160a01b031681565b610249610427366004611964565b610aa1565b6102497f9f2df0fed2c77648de5860a4cc508cd0818c85b8b8a1ab4ceeef8d981c8956a681565b6102a061046136600461197c565b610ab8565b6102496104743660046118ce565b6001600160a01b03918216600090815260036020908152604080832093909416825291909152205490565b6102497f65d7a28e3265b37a6474929f336521b332c1681b933f6cb9f3376673440d862a81565b60006001600160e01b03198216635a05180f60e01b14806104eb57506104eb82610ae1565b90505b919050565b60606005805461050290611b24565b80601f016020809104026020016040519081016040528092919081815260200182805461052e90611b24565b801561057b5780601f106105505761010080835404028352916020019161057b565b820191906000526020600020905b81548152906001019060200180831161055e57829003601f168201915b5050505050905090565b6000610592338484610b16565b5060015b92915050565b60006105a9848484610c3b565b6001600160a01b0384166000908152600360209081526040808320338452909152902054828110156106335760405162461bcd60e51b815260206004820152602860248201527f45524332303a207472616e7366657220616d6f756e74206578636565647320616044820152676c6c6f77616e636560c01b60648201526084015b60405180910390fd5b61064785336106428685611ac6565b610b16565b506001949350505050565b61065c8282610e1e565b60008281526001602052604090206106749082610acc565b505050565b6106838282610e45565b60008281526001602052604090206106749082610ebf565b3360008181526003602090815260408083206001600160a01b03871684529091528120549091610592918590610642908690611a8f565b6106fc7f65d7a28e3265b37a6474929f336521b332c1681b933f6cb9f3376673440d862a336103b3565b61076e5760405162461bcd60e51b815260206004820152603960248201527f45524332305072657365744d696e7465725061757365723a206d75737420686160448201527f76652070617573657220726f6c6520746f20756e706175736500000000000000606482015260840161062a565b610776610ed4565b565b6107828282610f67565b5050565b6107903382611006565b50565b60075461010090046001600160a01b031633146107f25760405162461bcd60e51b815260206004820152601760248201527f4f6e6c79206c6f6e6753484f525420636f6e7472616374000000000000000000604482015260640161062a565b6107828282611006565b60006108088333610474565b9050818110156108665760405162461bcd60e51b8152602060048201526024808201527f45524332303a206275726e20616d6f756e74206578636565647320616c6c6f77604482015263616e636560e01b606482015260840161062a565b61087583336106428585611ac6565b6106748383611006565b6108a97f65d7a28e3265b37a6474929f336521b332c1681b933f6cb9f3376673440d862a336103b3565b61091b5760405162461bcd60e51b815260206004820152603760248201527f45524332305072657365744d696e7465725061757365723a206d75737420686160448201527f76652070617573657220726f6c6520746f207061757365000000000000000000606482015260840161062a565b610776611161565b600082815260016020526040812061093b90836111dc565b9392505050565b6000918252602082815260408084206001600160a01b0393909316845291905290205460ff1690565b60606006805461050290611b24565b3360009081526003602090815260408083206001600160a01b0386168452909152812054828110156109fc5760405162461bcd60e51b815260206004820152602560248201527f45524332303a2064656372656173656420616c6c6f77616e63652062656c6f77604482015264207a65726f60d81b606482015260840161062a565b610a0b33856106428685611ac6565b5060019392505050565b600854610a2d9033906001600160a01b031683610c3b565b6008546040516373479edf60e11b8152336004820152602481018390526001600160a01b039091169063e68f3dbe90604401600060405180830381600087803b158015610a7957600080fd5b505af1158015610a8d573d6000803e3d6000fd5b5050505050565b6000610592338484610c3b565b60008181526001602052604081206104eb906111e8565b61068382826111f2565b6107828282611218565b600061093b836001600160a01b03841661129c565b60006001600160e01b03198216637965db0b60e01b14806104eb57506301ffc9a760e01b6001600160e01b03198316146104eb565b6001600160a01b038316610b785760405162461bcd60e51b8152602060048201526024808201527f45524332303a20617070726f76652066726f6d20746865207a65726f206164646044820152637265737360e01b606482015260840161062a565b6001600160a01b038216610bd95760405162461bcd60e51b815260206004820152602260248201527f45524332303a20617070726f766520746f20746865207a65726f206164647265604482015261737360f01b606482015260840161062a565b6001600160a01b0383811660008181526003602090815260408083209487168084529482529182902085905590518481527f8c5be1e5ebec7d5bd14f71427d1e84f3dd0314c0f7b2291e5b200ac8c7c3b92591015b60405180910390a3505050565b6001600160a01b038316610c9f5760405162461bcd60e51b815260206004820152602560248201527f45524332303a207472616e736665722066726f6d20746865207a65726f206164604482015264647265737360d81b606482015260840161062a565b6001600160a01b038216610d015760405162461bcd60e51b815260206004820152602360248201527f45524332303a207472616e7366657220746f20746865207a65726f206164647260448201526265737360e81b606482015260840161062a565b610d0c8383836112eb565b6001600160a01b03831660009081526002602052604090205481811015610d845760405162461bcd60e51b815260206004820152602660248201527f45524332303a207472616e7366657220616d6f756e7420657863656564732062604482015265616c616e636560d01b606482015260840161062a565b610d8e8282611ac6565b6001600160a01b038086166000908152600260205260408082209390935590851681529081208054849290610dc4908490611a8f565b92505081905550826001600160a01b0316846001600160a01b03167fddf252ad1be2c89b69c2b068fc378daa952ba7f163c4a11628f55a4df523b3ef84604051610e1091815260200190565b60405180910390a350505050565b600082815260208190526040902060010154610e3b81335b6112f6565b6106748383611218565b6001600160a01b0381163314610eb55760405162461bcd60e51b815260206004820152602f60248201527f416363657373436f6e74726f6c3a2063616e206f6e6c792072656e6f756e636560448201526e103937b632b9903337b91039b2b63360891b606482015260840161062a565b610782828261135a565b600061093b836001600160a01b0384166113bf565b60075460ff16610f1d5760405162461bcd60e51b815260206004820152601460248201527314185d5cd8589b194e881b9bdd081c185d5cd95960621b604482015260640161062a565b6007805460ff191690557f5db9ee0a495bf2e6ff9c91a7834c1ba4fdd244a5e8aa4e537bd38aeae4b073aa335b6040516001600160a01b03909116815260200160405180910390a1565b610f917f9f2df0fed2c77648de5860a4cc508cd0818c85b8b8a1ab4ceeef8d981c8956a6336103b3565b610ffc5760405162461bcd60e51b815260206004820152603660248201527f45524332305072657365744d696e7465725061757365723a206d7573742068616044820152751d99481b5a5b9d195c881c9bdb19481d1bc81b5a5b9d60521b606482015260840161062a565b61078282826114d6565b6001600160a01b0382166110665760405162461bcd60e51b815260206004820152602160248201527f45524332303a206275726e2066726f6d20746865207a65726f206164647265736044820152607360f81b606482015260840161062a565b611072826000836112eb565b6001600160a01b038216600090815260026020526040902054818110156110e65760405162461bcd60e51b815260206004820152602260248201527f45524332303a206275726e20616d6f756e7420657863656564732062616c616e604482015261636560f01b606482015260840161062a565b6110f08282611ac6565b6001600160a01b0384166000908152600260205260408120919091556004805484929061111e908490611ac6565b90915550506040518281526000906001600160a01b038516907fddf252ad1be2c89b69c2b068fc378daa952ba7f163c4a11628f55a4df523b3ef90602001610c2e565b60075460ff16156111a75760405162461bcd60e51b815260206004820152601060248201526f14185d5cd8589b194e881c185d5cd95960821b604482015260640161062a565b6007805460ff191660011790557f62e78cea01bee320cd4e420270b5ea74000d11b0c9f74754ebdbfc544b05a258610f4a3390565b600061093b83836115c1565b60006104eb825490565b60008281526020819052604090206001015461120e8133610e36565b610674838361135a565b6112228282610942565b610782576000828152602081815260408083206001600160a01b03851684529091529020805460ff191660011790556112583390565b6001600160a01b0316816001600160a01b0316837f2f8788117e7eff1d82e926ec794901d17c78024a50270940304540a733656f0d60405160405180910390a45050565b60008181526001830160205260408120546112e357508154600181810184556000848152602080822090930184905584548482528286019093526040902091909155610596565b506000610596565b610674838383611655565b6113008282610942565b61078257611318816001600160a01b031660146116bb565b6113238360206116bb565b6040516020016113349291906119e7565b60408051601f198184030181529082905262461bcd60e51b825261062a91600401611a5c565b6113648282610942565b15610782576000828152602081815260408083206001600160a01b0385168085529252808320805460ff1916905551339285917ff6391f5c32d9c69d2a47ea670b442974b53935d1edc7fd64eb21e047a839171b9190a45050565b600081815260018301602052604081205480156114cc5760006113e3600183611ac6565b85549091506000906113f790600190611ac6565b9050600086600001828154811061141e57634e487b7160e01b600052603260045260246000fd5b906000526020600020015490508087600001848154811061144f57634e487b7160e01b600052603260045260246000fd5b60009182526020808320909101929092558281526001890190915260409020849055865487908061149057634e487b7160e01b600052603160045260246000fd5b60019003818190600052602060002001600090559055866001016000878152602001908152602001600020600090556001945050505050610596565b6000915050610596565b6001600160a01b03821661152c5760405162461bcd60e51b815260206004820152601f60248201527f45524332303a206d696e7420746f20746865207a65726f206164647265737300604482015260640161062a565b611538600083836112eb565b806004600082825461154a9190611a8f565b90915550506001600160a01b03821660009081526002602052604081208054839290611577908490611a8f565b90915550506040518181526001600160a01b038316906000907fddf252ad1be2c89b69c2b068fc378daa952ba7f163c4a11628f55a4df523b3ef9060200160405180910390a35050565b8154600090821061161f5760405162461bcd60e51b815260206004820152602260248201527f456e756d657261626c655365743a20696e646578206f7574206f6620626f756e604482015261647360f01b606482015260840161062a565b82600001828154811061164257634e487b7160e01b600052603260045260246000fd5b9060005260206000200154905092915050565b60075460ff16156106745760405162461bcd60e51b815260206004820152602a60248201527f45524332305061757361626c653a20746f6b656e207472616e736665722077686044820152691a5b19481c185d5cd95960b21b606482015260840161062a565b606060006116ca836002611aa7565b6116d5906002611a8f565b67ffffffffffffffff8111156116fb57634e487b7160e01b600052604160045260246000fd5b6040519080825280601f01601f191660200182016040528015611725576020820181803683370190505b509050600360fc1b8160008151811061174e57634e487b7160e01b600052603260045260246000fd5b60200101906001600160f81b031916908160001a905350600f60fb1b8160018151811061178b57634e487b7160e01b600052603260045260246000fd5b60200101906001600160f81b031916908160001a90535060006117af846002611aa7565b6117ba906001611a8f565b90505b600181111561184e576f181899199a1a9b1b9c1cb0b131b232b360811b85600f16601081106117fc57634e487b7160e01b600052603260045260246000fd5b1a60f81b82828151811061182057634e487b7160e01b600052603260045260246000fd5b60200101906001600160f81b031916908160001a90535060049490941c9361184781611b0d565b90506117bd565b50831561093b5760405162461bcd60e51b815260206004820181905260248201527f537472696e67733a20686578206c656e67746820696e73756666696369656e74604482015260640161062a565b80356001600160a01b03811681146104ee57600080fd5b6000602082840312156118c5578081fd5b61093b8261189d565b600080604083850312156118e0578081fd5b6118e98361189d565b91506118f76020840161189d565b90509250929050565b600080600060608486031215611914578081fd5b61191d8461189d565b925061192b6020850161189d565b9150604084013590509250925092565b6000806040838503121561194d578182fd5b6119568361189d565b946020939093013593505050565b600060208284031215611975578081fd5b5035919050565b6000806040838503121561198e578182fd5b823591506118f76020840161189d565b600080604083850312156119b0578182fd5b50508035926020909101359150565b6000602082840312156119d0578081fd5b81356001600160e01b03198116811461093b578182fd5b60007f416363657373436f6e74726f6c3a206163636f756e742000000000000000000082528351611a1f816017850160208801611add565b7001034b99036b4b9b9b4b733903937b6329607d1b6017918401918201528351611a50816028840160208801611add565b01602801949350505050565b6000602082528251806020840152611a7b816040850160208701611add565b601f01601f19169190910160400192915050565b60008219821115611aa257611aa2611b5f565b500190565b6000816000190483118215151615611ac157611ac1611b5f565b500290565b600082821015611ad857611ad8611b5f565b500390565b60005b83811015611af8578181015183820152602001611ae0565b83811115611b07576000848401525b50505050565b600081611b1c57611b1c611b5f565b506000190190565b600181811c90821680611b3857607f821691505b60208210811415611b5957634e487b7160e01b600052602260045260246000fd5b50919050565b634e487b7160e01b600052601160045260246000fdfea2646970667358221220042b6c8a8ffe1c8dd097dc3ef613794ac3da3124ca923bbc7a83c6930ee0856364736f6c63430008030033a2646970667358221220ebf8086bfb7788a83c540ded172b5fe4914ffbd72c206bfc6e17cae14eab636c64736f6c63430008030033",
  "immutableReferences": {},
  "source": "// SPDX-License-Identifier: BUSL-1.1\n\npragma solidity 0.8.3;\n\nimport \"./SyntheticToken.sol\";\n\ncontract TokenFactory {\n    ////////////////////////////////////\n    /////////////// STATE //////////////\n    ////////////////////////////////////\n\n    address public admin;\n    address public floatContract;\n\n    bytes32 public constant DEFAULT_ADMIN_ROLE =\n        keccak256(\"DEFAULT_ADMIN_ROLE\");\n    bytes32 public constant MINTER_ROLE = keccak256(\"MINTER_ROLE\");\n    bytes32 public constant PAUSER_ROLE = keccak256(\"PAUSER_ROLE\");\n\n    ////////////////////////////////////\n    /////////// MODIFIERS //////////////\n    ////////////////////////////////////\n\n    modifier adminOnly() {\n        require(msg.sender == admin);\n        _;\n    }\n\n    modifier onlyFLOAT() {\n        require(msg.sender == floatContract);\n        _;\n    }\n\n    ////////////////////////////////////\n    //////////// SET-UP ////////////////\n    ////////////////////////////////////\n\n    constructor(address _admin, address _floatContract) {\n        admin = _admin;\n        floatContract = _floatContract;\n    }\n\n    ////////////////////////////////////\n    /// MULTISIG ADMIN FUNCTIONS ///////\n    ////////////////////////////////////\n\n    function changeAdmin(address _admin) external adminOnly {\n        admin = _admin;\n    }\n\n    function changeFloatAddress(address _floatContract) external adminOnly {\n        floatContract = _floatContract;\n    }\n\n    ////////////////////////////////////\n    ///////// TOKEN CREATION ///////////\n    ////////////////////////////////////\n\n    function setupPermissions(SyntheticToken tokenContract) internal {\n        // Give minter roles\n        tokenContract.grantRole(DEFAULT_ADMIN_ROLE, floatContract);\n        tokenContract.grantRole(MINTER_ROLE, floatContract);\n        tokenContract.grantRole(PAUSER_ROLE, floatContract);\n\n        // Revoke roles\n        tokenContract.revokeRole(DEFAULT_ADMIN_ROLE, address(this));\n        tokenContract.revokeRole(MINTER_ROLE, address(this));\n        tokenContract.revokeRole(PAUSER_ROLE, address(this));\n    }\n\n    function createTokenLong(\n        string calldata syntheticName,\n        string calldata syntheticSymbol,\n        address staker\n    ) external onlyFLOAT returns (SyntheticToken) {\n        SyntheticToken tokenContract;\n        tokenContract = new SyntheticToken(\n            string(abi.encodePacked(\"FLOAT UP\", syntheticName)),\n            string(abi.encodePacked(\"fu\", syntheticSymbol)),\n            floatContract,\n            staker\n        );\n        setupPermissions(tokenContract);\n        return tokenContract;\n    }\n\n    function createTokenShort(\n        string calldata syntheticName,\n        string calldata syntheticSymbol,\n        address staker\n    ) external onlyFLOAT returns (SyntheticToken) {\n        SyntheticToken tokenContract;\n        tokenContract = new SyntheticToken(\n            string(abi.encodePacked(\"FLOAT DOWN \", syntheticName)),\n            string(abi.encodePacked(\"fd\", syntheticSymbol)),\n            floatContract,\n            staker\n        );\n\n        setupPermissions(tokenContract);\n        return tokenContract;\n    }\n}\n",
  "sourcePath": "/Users/denham/Documents/projects/float-capital/code/float-capital/contracts/contracts/TokenFactory.sol",
  "compiler": {
    "name": "solc",
    "version": "0.8.3+commit.8d00100c.Emscripten.clang"
  },
  "schemaVersion": "3.3.4",
  "updatedAt": "2021-05-24T09:21:10.503Z",
  "networkType": "ethereum",
  "devdoc": {
    "kind": "dev",
    "methods": {},
    "version": 1
  },
  "userdoc": {
    "kind": "user",
    "methods": {
      "changeAdmin(address)": {
        "notice": "MULTISIG ADMIN FUNCTIONS ///////"
      }
    },
    "version": 1
  }
}