{
  "contractName": "TokenFactory",
  "abi": [
    {
      "inputs": [],
      "name": "DEFAULT_ADMIN_ROLE",
      "outputs": [
        {
          "internalType": "bytes32",
          "name": "",
          "type": "bytes32"
        }
      ],
      "stateMutability": "view",
      "type": "function",
      "constant": true
    },
    {
      "inputs": [],
      "name": "MINTER_ROLE",
      "outputs": [
        {
          "internalType": "bytes32",
          "name": "",
          "type": "bytes32"
        }
      ],
      "stateMutability": "view",
      "type": "function",
      "constant": true
    },
    {
      "inputs": [],
      "name": "PAUSER_ROLE",
      "outputs": [
        {
          "internalType": "bytes32",
          "name": "",
          "type": "bytes32"
        }
      ],
      "stateMutability": "view",
      "type": "function",
      "constant": true
    },
    {
      "inputs": [],
      "name": "admin",
      "outputs": [
        {
          "internalType": "address",
          "name": "",
          "type": "address"
        }
      ],
      "stateMutability": "view",
      "type": "function",
      "constant": true
    },
    {
      "inputs": [],
      "name": "floatContract",
      "outputs": [
        {
          "internalType": "address",
          "name": "",
          "type": "address"
        }
      ],
      "stateMutability": "view",
      "type": "function",
      "constant": true
    },
    {
      "inputs": [
        {
          "internalType": "address",
          "name": "_admin",
          "type": "address"
        },
        {
          "internalType": "address",
          "name": "_floatContract",
          "type": "address"
        }
      ],
      "name": "setup",
      "outputs": [],
      "stateMutability": "nonpayable",
      "type": "function"
    },
    {
      "inputs": [
        {
          "internalType": "address",
          "name": "_admin",
          "type": "address"
        }
      ],
      "name": "changeAdmin",
      "outputs": [],
      "stateMutability": "nonpayable",
      "type": "function"
    },
    {
      "inputs": [
        {
          "internalType": "address",
          "name": "_floatContract",
          "type": "address"
        }
      ],
      "name": "changeFloatAddress",
      "outputs": [],
      "stateMutability": "nonpayable",
      "type": "function"
    },
    {
      "inputs": [
        {
          "internalType": "string",
          "name": "syntheticName",
          "type": "string"
        },
        {
          "internalType": "string",
          "name": "syntheticSymbol",
          "type": "string"
        },
        {
          "internalType": "address",
          "name": "staker",
          "type": "address"
        }
      ],
      "name": "createTokenLong",
      "outputs": [
        {
          "internalType": "contract SyntheticToken",
          "name": "",
          "type": "address"
        }
      ],
      "stateMutability": "nonpayable",
      "type": "function"
    },
    {
      "inputs": [
        {
          "internalType": "string",
          "name": "syntheticName",
          "type": "string"
        },
        {
          "internalType": "string",
          "name": "syntheticSymbol",
          "type": "string"
        },
        {
          "internalType": "address",
          "name": "staker",
          "type": "address"
        }
      ],
      "name": "createTokenShort",
      "outputs": [
        {
          "internalType": "contract SyntheticToken",
          "name": "",
          "type": "address"
        }
      ],
      "stateMutability": "nonpayable",
      "type": "function"
    }
  ],
  "bytecode": "0x608060405234801561001057600080fd5b50612a7f806100206000396000f3fe608060405234801561001057600080fd5b506004361061009e5760003560e01c8063a217fddf11610066578063a217fddf14610121578063cfc6808914610156578063d539139314610169578063e63ab1e914610190578063f851a440146101b75761009e565b80632d34ba79146100a35780634eb86d73146100b857806357ca5f1c146100cb578063885eae3e146100fb5780638f2839701461010e575b600080fd5b6100b66100b136600461088b565b6101d0565b005b6100b66100c636600461086a565b6102ca565b6100de6100d93660046108bd565b610309565b6040516001600160a01b0390911681526020015b60405180910390f35b6001546100de906001600160a01b031681565b6100b661011c36600461086a565b610419565b6101487f1effbbff9c66c5e59634f24fe842750c60d18891155c32dd155fc2d661a4c86d81565b6040519081526020016100f2565b6100de6101643660046108bd565b610460565b6101487f9f2df0fed2c77648de5860a4cc508cd0818c85b8b8a1ab4ceeef8d981c8956a681565b6101487f65d7a28e3265b37a6474929f336521b332c1681b933f6cb9f3376673440d862a81565b6000546100de906201000090046001600160a01b031681565b600054610100900460ff16806101e9575060005460ff16155b6102505760405162461bcd60e51b815260206004820152602e60248201527f496e697469616c697a61626c653a20636f6e747261637420697320616c72656160448201526d191e481a5b9a5d1a585b1a5e995960921b606482015260840160405180910390fd5b600054610100900460ff16158015610272576000805461ffff19166101011790555b6000805462010000600160b01b031916620100006001600160a01b038681169190910291909117909155600180546001600160a01b03191691841691909117905580156102c5576000805461ff00191690555b505050565b6000546201000090046001600160a01b031633146102e757600080fd5b600180546001600160a01b0319166001600160a01b0392909216919091179055565b6001546000906001600160a01b0316331461032357600080fd5b6000604051610331906107fa565b604051809103906000f08015801561034d573d6000803e3d6000fd5b509050806001600160a01b0316638f15b41488886040516020016103729291906109c2565b60405160208183030381529060405287876040516020016103949291906109a4565b60408051601f19818403018152908290526001546001600160e01b031960e086901b1683526103d493926001600160a01b03909116908990600401610a0d565b600060405180830381600087803b1580156103ee57600080fd5b505af1158015610402573d6000803e3d6000fd5b5050505061040f816104eb565b9695505050505050565b6000546201000090046001600160a01b0316331461043657600080fd5b600080546001600160a01b03909216620100000262010000600160b01b0319909216919091179055565b6001546000906001600160a01b0316331461047a57600080fd5b6000604051610488906107fa565b604051809103906000f0801580156104a4573d6000803e3d6000fd5b509050806001600160a01b0316638f15b41488886040516020016104c99291906109e6565b6040516020818303038152906040528787604051602001610394929190610986565b600154604051632f2ff15d60e01b81527f1effbbff9c66c5e59634f24fe842750c60d18891155c32dd155fc2d661a4c86d60048201526001600160a01b03918216602482015290821690632f2ff15d90604401600060405180830381600087803b15801561055857600080fd5b505af115801561056c573d6000803e3d6000fd5b5050600154604051632f2ff15d60e01b81527f9f2df0fed2c77648de5860a4cc508cd0818c85b8b8a1ab4ceeef8d981c8956a660048201526001600160a01b0391821660248201529084169250632f2ff15d9150604401600060405180830381600087803b1580156105dd57600080fd5b505af11580156105f1573d6000803e3d6000fd5b5050600154604051632f2ff15d60e01b81527f65d7a28e3265b37a6474929f336521b332c1681b933f6cb9f3376673440d862a60048201526001600160a01b0391821660248201529084169250632f2ff15d9150604401600060405180830381600087803b15801561066257600080fd5b505af1158015610676573d6000803e3d6000fd5b505060405163d547741f60e01b81527f1effbbff9c66c5e59634f24fe842750c60d18891155c32dd155fc2d661a4c86d60048201523060248201526001600160a01b038416925063d547741f9150604401600060405180830381600087803b1580156106e157600080fd5b505af11580156106f5573d6000803e3d6000fd5b505060405163d547741f60e01b81527f9f2df0fed2c77648de5860a4cc508cd0818c85b8b8a1ab4ceeef8d981c8956a660048201523060248201526001600160a01b038416925063d547741f9150604401600060405180830381600087803b15801561076057600080fd5b505af1158015610774573d6000803e3d6000fd5b505060405163d547741f60e01b81527f65d7a28e3265b37a6474929f336521b332c1681b933f6cb9f3376673440d862a60048201523060248201526001600160a01b038416925063d547741f9150604401600060405180830381600087803b1580156107df57600080fd5b505af11580156107f3573d6000803e3d6000fd5b5050505050565b611ff280610a5883390190565b80356001600160a01b038116811461081e57600080fd5b919050565b60008083601f840112610834578182fd5b50813567ffffffffffffffff81111561084b578182fd5b60208301915083602082850101111561086357600080fd5b9250929050565b60006020828403121561087b578081fd5b61088482610807565b9392505050565b6000806040838503121561089d578081fd5b6108a683610807565b91506108b460208401610807565b90509250929050565b6000806000806000606086880312156108d4578081fd5b853567ffffffffffffffff808211156108eb578283fd5b6108f789838a01610823565b9097509550602088013591508082111561090f578283fd5b5061091c88828901610823565b909450925061092f905060408701610807565b90509295509295909350565b60008151808452815b8181101561096057602081850181015186830182015201610944565b818111156109715782602083870101525b50601f01601f19169290920160200192915050565b600061199960f21b8252828460028401379101600201908152919050565b600061667560f01b8252828460028401379101600201908152919050565b6000670464c4f41542055560c41b8252828460088401379101600801908152919050565b60006a0232627a0aa102227aba7160ad1b82528284600b8401379101600b01908152919050565b600060808252610a20608083018761093b565b8281036020840152610a32818761093b565b6001600160a01b0395861660408501529390941660609092019190915250939250505056fe608060405234801561001057600080fd5b50611fd2806100206000396000f3fe608060405234801561001057600080fd5b50600436106102065760003560e01c806370a082311161011a578063a457c2d7116100ad578063ca15c8731161007c578063ca15c87314610453578063d539139314610466578063d547741f1461048d578063dd62ed3e146104a0578063e63ab1e9146104d957610206565b8063a457c2d714610406578063a694fc3a14610419578063a9059cbb1461042c578063b777453a1461043f57610206565b80639010d07c116100e95780639010d07c146103d057806391d14854146103e357806395d89b41146103f6578063a217fddf146103fe57610206565b806370a082311461037957806379cc6790146103a25780638456cb59146103b55780638f15b414146103bd57610206565b806336568abe1161019d57806342966c681161016c57806342966c68146103085780634cd88b761461031b5780635c975abb1461032e5780635ebaf1db1461033a578063633241421461036657610206565b806336568abe146102c757806339509351146102da5780633f4ba83a146102ed57806340c10f19146102f557610206565b806323b872dd116101d957806323b872dd1461026d578063248a9ca3146102805780632f2ff15d146102a3578063313ce567146102b857610206565b806301ffc9a71461020b57806306fdde0314610233578063095ea7b31461024857806318160ddd1461025b575b600080fd5b61021e610219366004611d3a565b6104ee565b60405190151581526020015b60405180910390f35b61023b61051b565b60405161022a9190611e45565b61021e610256366004611cb6565b6105ad565b60cb545b60405190815260200161022a565b61021e61027b366004611c7b565b6105c4565b61025f61028e366004611cdf565b60009081526065602052604090206001015490565b6102b66102b1366004611cf7565b61067a565b005b6040516012815260200161022a565b6102b66102d5366004611cf7565b6106a1565b61021e6102e8366004611cb6565b6106c3565b6102b66106fa565b6102b6610303366004611cb6565b61078e565b6102b6610316366004611cdf565b610831565b6102b6610329366004611d62565b61083e565b61012d5460ff1661021e565b6101c45461034e906001600160a01b031681565b6040516001600160a01b03909116815260200161022a565b6102b6610374366004611cb6565b6108b5565b61025f610387366004611c2f565b6001600160a01b0316600090815260c9602052604090205490565b6102b66103b0366004611cb6565b61091a565b6102b661099d565b6102b66103cb366004611dc3565b610a2f565b61034e6103de366004611d19565b610adb565b61021e6103f1366004611cf7565b610afa565b61023b610b25565b61025f600081565b61021e610414366004611cb6565b610b34565b6102b6610427366004611cdf565b610bcf565b61021e61043a366004611cb6565b610c49565b6101c35461034e906001600160a01b031681565b61025f610461366004611cdf565b610c56565b61025f7f9f2df0fed2c77648de5860a4cc508cd0818c85b8b8a1ab4ceeef8d981c8956a681565b6102b661049b366004611cf7565b610c6d565b61025f6104ae366004611c49565b6001600160a01b03918216600090815260ca6020908152604080832093909416825291909152205490565b61025f600080516020611f7d83398151915281565b60006001600160e01b03198216635a05180f60e01b1480610513575061051382610c77565b90505b919050565b606060cc805461052a90611f15565b80601f016020809104026020016040519081016040528092919081815260200182805461055690611f15565b80156105a35780601f10610578576101008083540402835291602001916105a3565b820191906000526020600020905b81548152906001019060200180831161058657829003601f168201915b5050505050905090565b60006105ba338484610cac565b5060015b92915050565b60006105d1848484610dd1565b6001600160a01b038416600090815260ca602090815260408083203384529091529020548281101561065b5760405162461bcd60e51b815260206004820152602860248201527f45524332303a207472616e7366657220616d6f756e74206578636565647320616044820152676c6c6f77616e636560c01b60648201526084015b60405180910390fd5b61066f853361066a8685611efe565b610cac565b506001949350505050565b6106848282610fb4565b600082815260976020526040902061069c908261103f565b505050565b6106ab8282611054565b600082815260976020526040902061069c90826110ce565b33600081815260ca602090815260408083206001600160a01b038716845290915281205490916105ba91859061066a908690611ee6565b610712600080516020611f7d833981519152336103f1565b6107845760405162461bcd60e51b815260206004820152603960248201527f45524332305072657365744d696e7465725061757365723a206d75737420686160448201527f76652070617573657220726f6c6520746f20756e7061757365000000000000006064820152608401610652565b61078c6110e3565b565b6107b87f9f2df0fed2c77648de5860a4cc508cd0818c85b8b8a1ab4ceeef8d981c8956a6336103f1565b6108235760405162461bcd60e51b815260206004820152603660248201527f45524332305072657365744d696e7465725061757365723a206d7573742068616044820152751d99481b5a5b9d195c881c9bdb19481d1bc81b5a5b9d60521b6064820152608401610652565b61082d8282611178565b5050565b61083b3382611263565b50565b600054610100900460ff1680610857575060005460ff16155b6108735760405162461bcd60e51b815260040161065290611e98565b600054610100900460ff16158015610895576000805461ffff19166101011790555b61089f83836113be565b801561069c576000805461ff0019169055505050565b6101c3546001600160a01b031633146109105760405162461bcd60e51b815260206004820152601760248201527f4f6e6c79206c6f6e6753484f525420636f6e74726163740000000000000000006044820152606401610652565b61082d8282611263565b600061092683336104ae565b9050818110156109845760405162461bcd60e51b8152602060048201526024808201527f45524332303a206275726e20616d6f756e74206578636565647320616c6c6f77604482015263616e636560e01b6064820152608401610652565b610993833361066a8585611efe565b61069c8383611263565b6109b5600080516020611f7d833981519152336103f1565b610a275760405162461bcd60e51b815260206004820152603760248201527f45524332305072657365744d696e7465725061757365723a206d75737420686160448201527f76652070617573657220726f6c6520746f2070617573650000000000000000006064820152608401610652565b61078c611461565b600054610100900460ff1680610a48575060005460ff16155b610a645760405162461bcd60e51b815260040161065290611e98565b600054610100900460ff16158015610a86576000805461ffff19166101011790555b610a90858561083e565b6101c380546001600160a01b038086166001600160a01b0319928316179092556101c48054928516929091169190911790558015610ad4576000805461ff00191690555b5050505050565b6000828152609760205260408120610af390836114de565b9392505050565b60009182526065602090815260408084206001600160a01b0393909316845291905290205460ff1690565b606060cd805461052a90611f15565b33600090815260ca602090815260408083206001600160a01b038616845290915281205482811015610bb65760405162461bcd60e51b815260206004820152602560248201527f45524332303a2064656372656173656420616c6c6f77616e63652062656c6f77604482015264207a65726f60d81b6064820152608401610652565b610bc5338561066a8685611efe565b5060019392505050565b6101c454610be89033906001600160a01b031683610dd1565b6101c45460405163a7ba9fd760e01b8152336004820152602481018390526001600160a01b039091169063a7ba9fd790604401600060405180830381600087803b158015610c3557600080fd5b505af1158015610ad4573d6000803e3d6000fd5b60006105ba338484610dd1565b6000818152609760205260408120610513906114ea565b6106ab82826114f4565b60006001600160e01b03198216637965db0b60e01b148061051357506301ffc9a760e01b6001600160e01b0319831614610513565b6001600160a01b038316610d0e5760405162461bcd60e51b8152602060048201526024808201527f45524332303a20617070726f76652066726f6d20746865207a65726f206164646044820152637265737360e01b6064820152608401610652565b6001600160a01b038216610d6f5760405162461bcd60e51b815260206004820152602260248201527f45524332303a20617070726f766520746f20746865207a65726f206164647265604482015261737360f01b6064820152608401610652565b6001600160a01b03838116600081815260ca602090815260408083209487168084529482529182902085905590518481527f8c5be1e5ebec7d5bd14f71427d1e84f3dd0314c0f7b2291e5b200ac8c7c3b92591015b60405180910390a3505050565b6001600160a01b038316610e355760405162461bcd60e51b815260206004820152602560248201527f45524332303a207472616e736665722066726f6d20746865207a65726f206164604482015264647265737360d81b6064820152608401610652565b6001600160a01b038216610e975760405162461bcd60e51b815260206004820152602360248201527f45524332303a207472616e7366657220746f20746865207a65726f206164647260448201526265737360e81b6064820152608401610652565b610ea2838383611574565b6001600160a01b038316600090815260c9602052604090205481811015610f1a5760405162461bcd60e51b815260206004820152602660248201527f45524332303a207472616e7366657220616d6f756e7420657863656564732062604482015265616c616e636560d01b6064820152608401610652565b610f248282611efe565b6001600160a01b03808616600090815260c960205260408082209390935590851681529081208054849290610f5a908490611ee6565b92505081905550826001600160a01b0316846001600160a01b03167fddf252ad1be2c89b69c2b068fc378daa952ba7f163c4a11628f55a4df523b3ef84604051610fa691815260200190565b60405180910390a350505050565b600082815260656020526040902060010154610fd1905b336103f1565b6110355760405162461bcd60e51b815260206004820152602f60248201527f416363657373436f6e74726f6c3a2073656e646572206d75737420626520616e60448201526e0818591b5a5b881d1bc819dc985b9d608a1b6064820152608401610652565b61082d828261157f565b6000610af3836001600160a01b038416611605565b6001600160a01b03811633146110c45760405162461bcd60e51b815260206004820152602f60248201527f416363657373436f6e74726f6c3a2063616e206f6e6c792072656e6f756e636560448201526e103937b632b9903337b91039b2b63360891b6064820152608401610652565b61082d8282611654565b6000610af3836001600160a01b0384166116bb565b61012d5460ff1661112d5760405162461bcd60e51b815260206004820152601460248201527314185d5cd8589b194e881b9bdd081c185d5cd95960621b6044820152606401610652565b61012d805460ff191690557f5db9ee0a495bf2e6ff9c91a7834c1ba4fdd244a5e8aa4e537bd38aeae4b073aa335b6040516001600160a01b03909116815260200160405180910390a1565b6001600160a01b0382166111ce5760405162461bcd60e51b815260206004820152601f60248201527f45524332303a206d696e7420746f20746865207a65726f2061646472657373006044820152606401610652565b6111da60008383611574565b8060cb60008282546111ec9190611ee6565b90915550506001600160a01b038216600090815260c9602052604081208054839290611219908490611ee6565b90915550506040518181526001600160a01b038316906000907fddf252ad1be2c89b69c2b068fc378daa952ba7f163c4a11628f55a4df523b3ef9060200160405180910390a35050565b6001600160a01b0382166112c35760405162461bcd60e51b815260206004820152602160248201527f45524332303a206275726e2066726f6d20746865207a65726f206164647265736044820152607360f81b6064820152608401610652565b6112cf82600083611574565b6001600160a01b038216600090815260c96020526040902054818110156113435760405162461bcd60e51b815260206004820152602260248201527f45524332303a206275726e20616d6f756e7420657863656564732062616c616e604482015261636560f01b6064820152608401610652565b61134d8282611efe565b6001600160a01b038416600090815260c9602052604081209190915560cb805484929061137b908490611efe565b90915550506040518281526000906001600160a01b038516907fddf252ad1be2c89b69c2b068fc378daa952ba7f163c4a11628f55a4df523b3ef90602001610dc4565b600054610100900460ff16806113d7575060005460ff16155b6113f35760405162461bcd60e51b815260040161065290611e98565b600054610100900460ff16158015611415576000805461ffff19166101011790555b61141d6117d8565b6114256117d8565b61142d6117d8565b6114356117d8565b61143f8383611843565b6114476117d8565b61144f6118d8565b6114576117d8565b61089f838361194e565b61012d5460ff16156114a85760405162461bcd60e51b815260206004820152601060248201526f14185d5cd8589b194e881c185d5cd95960821b6044820152606401610652565b61012d805460ff191660011790557f62e78cea01bee320cd4e420270b5ea74000d11b0c9f74754ebdbfc544b05a25861115b3390565b6000610af383836119f3565b6000610513825490565b60008281526065602052604090206001015461150f90610fcb565b6110c45760405162461bcd60e51b815260206004820152603060248201527f416363657373436f6e74726f6c3a2073656e646572206d75737420626520616e60448201526f2061646d696e20746f207265766f6b6560801b6064820152608401610652565b61069c838383611a87565b6115898282610afa565b61082d5760008281526065602090815260408083206001600160a01b03851684529091529020805460ff191660011790556115c13390565b6001600160a01b0316816001600160a01b0316837f2f8788117e7eff1d82e926ec794901d17c78024a50270940304540a733656f0d60405160405180910390a45050565b600081815260018301602052604081205461164c575081546001818101845560008481526020808220909301849055845484825282860190935260409020919091556105be565b5060006105be565b61165e8282610afa565b1561082d5760008281526065602090815260408083206001600160a01b0385168085529252808320805460ff1916905551339285917ff6391f5c32d9c69d2a47ea670b442974b53935d1edc7fd64eb21e047a839171b9190a45050565b600081815260018301602052604081205480156117ce5760006116df600183611efe565b85549091506000906116f390600190611efe565b9050600086600001828154811061171a57634e487b7160e01b600052603260045260246000fd5b906000526020600020015490508087600001848154811061174b57634e487b7160e01b600052603260045260246000fd5b600091825260209091200155611762836001611ee6565b6000828152600189016020526040902055865487908061179257634e487b7160e01b600052603160045260246000fd5b600190038181906000526020600020016000905590558660010160008781526020019081526020016000206000905560019450505050506105be565b60009150506105be565b600054610100900460ff16806117f1575060005460ff16155b61180d5760405162461bcd60e51b815260040161065290611e98565b600054610100900460ff1615801561182f576000805461ffff19166101011790555b801561083b576000805461ff001916905550565b600054610100900460ff168061185c575060005460ff16155b6118785760405162461bcd60e51b815260040161065290611e98565b600054610100900460ff1615801561189a576000805461ffff19166101011790555b82516118ad9060cc906020860190611af8565b5081516118c19060cd906020850190611af8565b50801561069c576000805461ff0019169055505050565b600054610100900460ff16806118f1575060005460ff16155b61190d5760405162461bcd60e51b815260040161065290611e98565b600054610100900460ff1615801561192f576000805461ffff19166101011790555b61012d805460ff19169055801561083b576000805461ff001916905550565b600054610100900460ff1680611967575060005460ff16155b6119835760405162461bcd60e51b815260040161065290611e98565b600054610100900460ff161580156119a5576000805461ffff19166101011790555b6119b16000335b611aee565b6119db7f9f2df0fed2c77648de5860a4cc508cd0818c85b8b8a1ab4ceeef8d981c8956a6336119ac565b61089f600080516020611f7d833981519152336119ac565b81546000908210611a515760405162461bcd60e51b815260206004820152602260248201527f456e756d657261626c655365743a20696e646578206f7574206f6620626f756e604482015261647360f01b6064820152608401610652565b826000018281548110611a7457634e487b7160e01b600052603260045260246000fd5b9060005260206000200154905092915050565b61012d5460ff161561069c5760405162461bcd60e51b815260206004820152602a60248201527f45524332305061757361626c653a20746f6b656e207472616e736665722077686044820152691a5b19481c185d5cd95960b21b6064820152608401610652565b6106848282611035565b828054611b0490611f15565b90600052602060002090601f016020900481019282611b265760008555611b6c565b82601f10611b3f57805160ff1916838001178555611b6c565b82800160010185558215611b6c579182015b82811115611b6c578251825591602001919060010190611b51565b50611b78929150611b7c565b5090565b5b80821115611b785760008155600101611b7d565b80356001600160a01b038116811461051657600080fd5b600082601f830112611bb8578081fd5b813567ffffffffffffffff80821115611bd357611bd3611f66565b604051601f8301601f19908116603f01168101908282118183101715611bfb57611bfb611f66565b81604052838152866020858801011115611c13578485fd5b8360208701602083013792830160200193909352509392505050565b600060208284031215611c40578081fd5b610af382611b91565b60008060408385031215611c5b578081fd5b611c6483611b91565b9150611c7260208401611b91565b90509250929050565b600080600060608486031215611c8f578081fd5b611c9884611b91565b9250611ca660208501611b91565b9150604084013590509250925092565b60008060408385031215611cc8578182fd5b611cd183611b91565b946020939093013593505050565b600060208284031215611cf0578081fd5b5035919050565b60008060408385031215611d09578182fd5b82359150611c7260208401611b91565b60008060408385031215611d2b578182fd5b50508035926020909101359150565b600060208284031215611d4b578081fd5b81356001600160e01b031981168114610af3578182fd5b60008060408385031215611d74578182fd5b823567ffffffffffffffff80821115611d8b578384fd5b611d9786838701611ba8565b93506020850135915080821115611dac578283fd5b50611db985828601611ba8565b9150509250929050565b60008060008060808587031215611dd8578081fd5b843567ffffffffffffffff80821115611def578283fd5b611dfb88838901611ba8565b95506020870135915080821115611e10578283fd5b50611e1d87828801611ba8565b935050611e2c60408601611b91565b9150611e3a60608601611b91565b905092959194509250565b6000602080835283518082850152825b81811015611e7157858101830151858201604001528201611e55565b81811115611e825783604083870101525b50601f01601f1916929092016040019392505050565b6020808252602e908201527f496e697469616c697a61626c653a20636f6e747261637420697320616c72656160408201526d191e481a5b9a5d1a585b1a5e995960921b606082015260800190565b60008219821115611ef957611ef9611f50565b500190565b600082821015611f1057611f10611f50565b500390565b600181811c90821680611f2957607f821691505b60208210811415611f4a57634e487b7160e01b600052602260045260246000fd5b50919050565b634e487b7160e01b600052601160045260246000fd5b634e487b7160e01b600052604160045260246000fdfe65d7a28e3265b37a6474929f336521b332c1681b933f6cb9f3376673440d862aa2646970667358221220a78870dcf66f5afb30627d41f4bd9bcb38c584d0eeafb2b30a631015cc0871de64736f6c63430008030033a2646970667358221220db5e14f4c9e2accc473750820a98f590b5cf63d193f1d5b1f0e16d7480e32b4664736f6c63430008030033",
  "immutableReferences": {},
  "source": "// SPDX-License-Identifier: MIT\n\npragma solidity 0.8.3;\n\nimport \"@openzeppelin/contracts-upgradeable/proxy/utils/Initializable.sol\";\n\nimport \"./SyntheticToken.sol\";\n\ncontract TokenFactory is Initializable {\n    ////////////////////////////////////\n    /////////////// STATE //////////////\n    ////////////////////////////////////\n\n    address public admin;\n    address public floatContract;\n\n    bytes32 public constant DEFAULT_ADMIN_ROLE =\n        keccak256(\"DEFAULT_ADMIN_ROLE\");\n    bytes32 public constant MINTER_ROLE = keccak256(\"MINTER_ROLE\");\n    bytes32 public constant PAUSER_ROLE = keccak256(\"PAUSER_ROLE\");\n\n    ////////////////////////////////////\n    /////////// MODIFIERS //////////////\n    ////////////////////////////////////\n\n    modifier adminOnly() {\n        require(msg.sender == admin);\n        _;\n    }\n\n    modifier onlyFLOAT() {\n        require(msg.sender == floatContract);\n        _;\n    }\n\n    ////////////////////////////////////\n    //////////// SET-UP ////////////////\n    ////////////////////////////////////\n\n    function setup(address _admin, address _floatContract) public initializer {\n        admin = _admin;\n        floatContract = _floatContract;\n    }\n\n    ////////////////////////////////////\n    /// MULTISIG ADMIN FUNCTIONS ///////\n    ////////////////////////////////////\n\n    function changeAdmin(address _admin) external adminOnly {\n        admin = _admin;\n    }\n\n    function changeFloatAddress(address _floatContract) external adminOnly {\n        floatContract = _floatContract;\n    }\n\n    ////////////////////////////////////\n    ///////// TOKEN CREATION ///////////\n    ////////////////////////////////////\n\n    function setupPermissions(SyntheticToken tokenContract) internal {\n        // Give minter roles\n        tokenContract.grantRole(DEFAULT_ADMIN_ROLE, floatContract);\n        tokenContract.grantRole(MINTER_ROLE, floatContract);\n        tokenContract.grantRole(PAUSER_ROLE, floatContract);\n\n        // Revoke roles\n        tokenContract.revokeRole(DEFAULT_ADMIN_ROLE, address(this));\n        tokenContract.revokeRole(MINTER_ROLE, address(this));\n        tokenContract.revokeRole(PAUSER_ROLE, address(this));\n    }\n\n    function createTokenLong(\n        string calldata syntheticName,\n        string calldata syntheticSymbol,\n        address staker\n    ) external onlyFLOAT returns (SyntheticToken) {\n        SyntheticToken tokenContract;\n        tokenContract = new SyntheticToken();\n        tokenContract.initialize(\n            string(abi.encodePacked(\"FLOAT UP\", syntheticName)),\n            string(abi.encodePacked(\"fu\", syntheticSymbol)),\n            floatContract,\n            staker\n        );\n        setupPermissions(tokenContract);\n        return tokenContract;\n    }\n\n    function createTokenShort(\n        string calldata syntheticName,\n        string calldata syntheticSymbol,\n        address staker\n    ) external onlyFLOAT returns (SyntheticToken) {\n        SyntheticToken tokenContract;\n        tokenContract = new SyntheticToken();\n        tokenContract.initialize(\n            string(abi.encodePacked(\"FLOAT DOWN \", syntheticName)),\n            string(abi.encodePacked(\"fd\", syntheticSymbol)),\n            floatContract,\n            staker\n        );\n\n        setupPermissions(tokenContract);\n        return tokenContract;\n    }\n}\n",
  "sourcePath": "/home/jasoons/Documents/code/longshort/contracts/contracts/TokenFactory.sol",
  "compiler": {
    "name": "solc",
    "version": "0.8.3+commit.8d00100c.Emscripten.clang"
  },
  "schemaVersion": "3.3.4",
  "updatedAt": "2021-04-07T14:22:08.215Z",
  "networkType": "ethereum",
  "devdoc": {
    "kind": "dev",
    "methods": {},
    "version": 1
  },
  "userdoc": {
    "kind": "user",
    "methods": {
      "changeAdmin(address)": {
        "notice": "MULTISIG ADMIN FUNCTIONS ///////"
      }
    },
    "version": 1
  }
}