{
  "contractName": "TokenFactory",
  "abi": [
    {
      "inputs": [
        {
          "internalType": "address",
          "name": "_admin",
          "type": "address"
        },
        {
          "internalType": "contract ILongShort",
          "name": "_longShort",
          "type": "address"
        }
      ],
      "stateMutability": "nonpayable",
      "type": "constructor"
    },
    {
      "inputs": [],
      "name": "DEFAULT_ADMIN_ROLE",
      "outputs": [
        {
          "internalType": "bytes32",
          "name": "",
          "type": "bytes32"
        }
      ],
      "stateMutability": "view",
      "type": "function",
      "constant": true
    },
    {
      "inputs": [],
      "name": "MINTER_ROLE",
      "outputs": [
        {
          "internalType": "bytes32",
          "name": "",
          "type": "bytes32"
        }
      ],
      "stateMutability": "view",
      "type": "function",
      "constant": true
    },
    {
      "inputs": [],
      "name": "PAUSER_ROLE",
      "outputs": [
        {
          "internalType": "bytes32",
          "name": "",
          "type": "bytes32"
        }
      ],
      "stateMutability": "view",
      "type": "function",
      "constant": true
    },
    {
      "inputs": [],
      "name": "admin",
      "outputs": [
        {
          "internalType": "address",
          "name": "",
          "type": "address"
        }
      ],
      "stateMutability": "view",
      "type": "function",
      "constant": true
    },
    {
      "inputs": [],
      "name": "longShort",
      "outputs": [
        {
          "internalType": "contract ILongShort",
          "name": "",
          "type": "address"
        }
      ],
      "stateMutability": "view",
      "type": "function",
      "constant": true
    },
    {
      "inputs": [
        {
          "internalType": "address",
          "name": "_admin",
          "type": "address"
        }
      ],
      "name": "changeAdmin",
      "outputs": [],
      "stateMutability": "nonpayable",
      "type": "function"
    },
    {
      "inputs": [
        {
          "internalType": "contract ILongShort",
          "name": "_longShort",
          "type": "address"
        }
      ],
      "name": "changeFloatAddress",
      "outputs": [],
      "stateMutability": "nonpayable",
      "type": "function"
    },
    {
      "inputs": [
        {
          "internalType": "string",
          "name": "syntheticName",
          "type": "string"
        },
        {
          "internalType": "string",
          "name": "syntheticSymbol",
          "type": "string"
        },
        {
          "internalType": "contract IStaker",
          "name": "staker",
          "type": "address"
        },
        {
          "internalType": "uint32",
          "name": "marketIndex",
          "type": "uint32"
        }
      ],
      "name": "createTokenLong",
      "outputs": [
        {
          "internalType": "contract SyntheticToken",
          "name": "",
          "type": "address"
        }
      ],
      "stateMutability": "nonpayable",
      "type": "function"
    },
    {
      "inputs": [
        {
          "internalType": "string",
          "name": "syntheticName",
          "type": "string"
        },
        {
          "internalType": "string",
          "name": "syntheticSymbol",
          "type": "string"
        },
        {
          "internalType": "contract IStaker",
          "name": "staker",
          "type": "address"
        },
        {
          "internalType": "uint32",
          "name": "marketIndex",
          "type": "uint32"
        }
      ],
      "name": "createTokenShort",
      "outputs": [
        {
          "internalType": "contract SyntheticToken",
          "name": "",
          "type": "address"
        }
      ],
      "stateMutability": "nonpayable",
      "type": "function"
    }
  ],
  "bytecode": "0x608060405234801561001057600080fd5b50604051612ce0380380612ce083398101604081905261002f91610060565b600080546001600160a01b039384166001600160a01b031991821617909155600180549290931691161790556100b1565b60008060408385031215610072578182fd5b825161007d81610099565b602084015190925061008e81610099565b809150509250929050565b6001600160a01b03811681146100ae57600080fd5b50565b612c20806100c06000396000f3fe60806040523480156200001157600080fd5b5060043610620000a05760003560e01c8063a217fddf116200006f578063a217fddf146200011d578063c0b77cf71462000154578063d5391393146200016b578063e63ab1e91462000193578063f851a44014620001bb57620000a0565b80632994987214620000a5578063456bf02814620000d65780634eb86d7314620000ed5780638f2839701462000106575b600080fd5b600154620000b9906001600160a01b031681565b6040516001600160a01b0390911681526020015b60405180910390f35b620000b9620000e73660046200073d565b620001cf565b62000104620000fe36600462000717565b620002a3565b005b620001046200011736600462000717565b620002dd565b620001457f1effbbff9c66c5e59634f24fe842750c60d18891155c32dd155fc2d661a4c86d81565b604051908152602001620000cd565b620000b9620001653660046200073d565b62000317565b620001457f9f2df0fed2c77648de5860a4cc508cd0818c85b8b8a1ab4ceeef8d981c8956a681565b620001457f65d7a28e3265b37a6474929f336521b332c1681b933f6cb9f3376673440d862a81565b600054620000b9906001600160a01b031681565b6001546000906001600160a01b03163314620001ea57600080fd5b60008787604051602001620002019291906200086b565b6040516020818303038152906040528686604051602001620002259291906200084d565b604051602081830303815290604052600160009054906101000a90046001600160a01b0316868660016040516200025c90620006bf565b6200026d96959493929190620008b6565b604051809103906000f0801580156200028a573d6000803e3d6000fd5b5090506200029881620003a4565b979650505050505050565b6000546001600160a01b03163314620002bb57600080fd5b600180546001600160a01b0319166001600160a01b0392909216919091179055565b6000546001600160a01b03163314620002f557600080fd5b600080546001600160a01b0319166001600160a01b0392909216919091179055565b6001546000906001600160a01b031633146200033257600080fd5b60008787604051602001620003499291906200088f565b60405160208183030381529060405286866040516020016200036d9291906200082f565b604051602081830303815290604052600160009054906101000a90046001600160a01b0316868660006040516200025c90620006bf565b600154604051632f2ff15d60e01b81527f1effbbff9c66c5e59634f24fe842750c60d18891155c32dd155fc2d661a4c86d60048201526001600160a01b03918216602482015290821690632f2ff15d90604401600060405180830381600087803b1580156200041257600080fd5b505af115801562000427573d6000803e3d6000fd5b5050600154604051632f2ff15d60e01b81527f9f2df0fed2c77648de5860a4cc508cd0818c85b8b8a1ab4ceeef8d981c8956a660048201526001600160a01b0391821660248201529084169250632f2ff15d9150604401600060405180830381600087803b1580156200049957600080fd5b505af1158015620004ae573d6000803e3d6000fd5b5050600154604051632f2ff15d60e01b81527f65d7a28e3265b37a6474929f336521b332c1681b933f6cb9f3376673440d862a60048201526001600160a01b0391821660248201529084169250632f2ff15d9150604401600060405180830381600087803b1580156200052057600080fd5b505af115801562000535573d6000803e3d6000fd5b505060405163d547741f60e01b81527f1effbbff9c66c5e59634f24fe842750c60d18891155c32dd155fc2d661a4c86d60048201523060248201526001600160a01b038416925063d547741f9150604401600060405180830381600087803b158015620005a157600080fd5b505af1158015620005b6573d6000803e3d6000fd5b505060405163d547741f60e01b81527f9f2df0fed2c77648de5860a4cc508cd0818c85b8b8a1ab4ceeef8d981c8956a660048201523060248201526001600160a01b038416925063d547741f9150604401600060405180830381600087803b1580156200062257600080fd5b505af115801562000637573d6000803e3d6000fd5b505060405163d547741f60e01b81527f65d7a28e3265b37a6474929f336521b332c1681b933f6cb9f3376673440d862a60048201523060248201526001600160a01b038416925063d547741f9150604401600060405180830381600087803b158015620006a357600080fd5b505af1158015620006b8573d6000803e3d6000fd5b5050505050565b6122bb806200093083390190565b60008083601f840112620006df578182fd5b50813567ffffffffffffffff811115620006f7578182fd5b6020830191508360208285010111156200071057600080fd5b9250929050565b60006020828403121562000729578081fd5b8135620007368162000916565b9392505050565b6000806000806000806080878903121562000756578182fd5b863567ffffffffffffffff808211156200076e578384fd5b6200077c8a838b01620006cd565b9098509650602089013591508082111562000795578384fd5b50620007a489828a01620006cd565b9095509350506040870135620007ba8162000916565b9150606087013563ffffffff81168114620007d3578182fd5b809150509295509295509295565b60008151808452815b818110156200080857602081850181015186830182015201620007ea565b818111156200081a5782602083870101525b50601f01601f19169290920160200192915050565b600061199960f21b8252828460028401379101600201908152919050565b600061667560f01b8252828460028401379101600201908152919050565b6000670464c4f41542055560c41b8252828460088401379101600801908152919050565b60006a0232627a0aa102227aba7160ad1b82528284600b8401379101600b01908152919050565b600060c08252620008cb60c0830189620007e1565b8281036020840152620008df8189620007e1565b6001600160a01b0397881660408501529590961660608301525063ffffffff929092166080830152151560a0909101529392505050565b6001600160a01b03811681146200092c57600080fd5b5056fe60806040523480156200001157600080fd5b50604051620022bb380380620022bb833981016040819052620000349162000402565b85858181816005908051906020019062000050929190620002a9565b50805162000066906006906020840190620002a9565b50506007805460ff1916905550620000816000335b62000144565b620000ad7f9f2df0fed2c77648de5860a4cc508cd0818c85b8b8a1ab4ceeef8d981c8956a6336200007b565b620000d97f65d7a28e3265b37a6474929f336521b332c1681b933f6cb9f3376673440d862a336200007b565b5050600780546001600160a01b0395861661010002610100600160a81b031990911617905560088054911515600160c01b0260ff60c01b1963ffffffff909416600160a01b026001600160c01b03199093169490951693909317171691909117905550620005359050565b6200015b82826200018760201b62000b7b1760201c565b60008281526001602090815260409091206200018291839062000b8562000197821b17901c565b505050565b620001938282620001b7565b5050565b6000620001ae836001600160a01b03841662000257565b90505b92915050565b6000828152602081815260408083206001600160a01b038516845290915290205460ff1662000193576000828152602081815260408083206001600160a01b03851684529091529020805460ff19166001179055620002133390565b6001600160a01b0316816001600160a01b0316837f2f8788117e7eff1d82e926ec794901d17c78024a50270940304540a733656f0d60405160405180910390a45050565b6000818152600183016020526040812054620002a057508154600181810184556000848152602080822090930184905584548482528286019093526040902091909155620001b1565b506000620001b1565b828054620002b790620004c9565b90600052602060002090601f016020900481019282620002db576000855562000326565b82601f10620002f657805160ff191683800117855562000326565b8280016001018555821562000326579182015b828111156200032657825182559160200191906001019062000309565b506200033492915062000338565b5090565b5b8082111562000334576000815560010162000339565b600082601f83011262000360578081fd5b81516001600160401b03808211156200037d576200037d62000506565b604051601f8301601f19908116603f01168101908282118183101715620003a857620003a862000506565b81604052838152602092508683858801011115620003c4578485fd5b8491505b83821015620003e75785820183015181830184015290820190620003c8565b83821115620003f857848385830101525b9695505050505050565b60008060008060008060c087890312156200041b578182fd5b86516001600160401b038082111562000432578384fd5b620004408a838b016200034f565b9750602089015191508082111562000456578384fd5b506200046589828a016200034f565b955050604087015162000478816200051c565b60608801519094506200048b816200051c565b608088015190935063ffffffff81168114620004a5578283fd5b60a08801519092508015158114620004bb578182fd5b809150509295509295509295565b600181811c90821680620004de57607f821691505b602082108114156200050057634e487b7160e01b600052602260045260246000fd5b50919050565b634e487b7160e01b600052604160045260246000fd5b6001600160a01b03811681146200053257600080fd5b50565b611d7680620005456000396000f3fe608060405234801561001057600080fd5b50600436106102065760003560e01c8063633241421161011a578063a217fddf116100ad578063ca15c8731161007c578063ca15c87314610459578063d53913931461046c578063d547741f14610493578063dd62ed3e146104a6578063e63ab1e9146104df57610206565b8063a217fddf14610418578063a457c2d714610420578063a694fc3a14610433578063a9059cbb1461044657610206565b80638c7adc15116100e95780638c7adc15146103be5780639010d07c146103ea57806391d14854146103fd57806395d89b411461041057610206565b8063633241421461037d57806370a082311461039057806379cc6790146103a35780638456cb59146103b657610206565b80632f2ff15d1161019d5780633f4ba83a1161016c5780633f4ba83a1461033157806340c10f191461033957806342966c681461034c5780635c975abb1461035f5780635ebaf1db1461036a57610206565b80632f2ff15d146102e7578063313ce567146102fc57806336568abe1461030b578063395093511461031e57610206565b8063202a61a1116101d9578063202a61a11461026d57806323b872dd14610281578063248a9ca31461029457806329949872146102b757610206565b806301ffc9a71461020b57806306fdde0314610233578063095ea7b31461024857806318160ddd1461025b575b600080fd5b61021e610219366004611b72565b610506565b60405190151581526020015b60405180910390f35b61023b610533565b60405161022a9190611c27565b61021e610256366004611aee565b6105c5565b6004545b60405190815260200161022a565b60085461021e90600160c01b900460ff1681565b61021e61028f366004611ab3565b6105dc565b61025f6102a2366004611b17565b60009081526020819052604090206001015490565b6007546102cf9061010090046001600160a01b031681565b6040516001600160a01b03909116815260200161022a565b6102fa6102f5366004611b2f565b61063d565b005b6040516012815260200161022a565b6102fa610319366004611b2f565b610664565b61021e61032c366004611aee565b610686565b6102fa6106c2565b6102fa610347366004611aee565b61076d565b6102fa61035a366004611b17565b61077b565b60075460ff1661021e565b6008546102cf906001600160a01b031681565b6102fa61038b366004611aee565b610788565b61025f61039e366004611a67565b6107f1565b6102fa6103b1366004611aee565b6108bc565b6102fa61093f565b6008546103d590600160a01b900463ffffffff1681565b60405163ffffffff909116815260200161022a565b6102cf6103f8366004611b51565b6109e3565b61021e61040b366004611b2f565b6109fb565b61023b610a24565b61025f600081565b61021e61042e366004611aee565b610a33565b6102fa610441366004611b17565b610ace565b61021e610454366004611aee565b610b4d565b61025f610467366004611b17565b610b5a565b61025f7f9f2df0fed2c77648de5860a4cc508cd0818c85b8b8a1ab4ceeef8d981c8956a681565b6102fa6104a1366004611b2f565b610b71565b61025f6104b4366004611a81565b6001600160a01b03918216600090815260036020908152604080832093909416825291909152205490565b61025f7f65d7a28e3265b37a6474929f336521b332c1681b933f6cb9f3376673440d862a81565b60006001600160e01b03198216635a05180f60e01b148061052b575061052b82610b9a565b90505b919050565b60606005805461054290611cef565b80601f016020809104026020016040519081016040528092919081815260200182805461056e90611cef565b80156105bb5780601f10610590576101008083540402835291602001916105bb565b820191906000526020600020905b81548152906001019060200180831161059e57829003601f168201915b5050505050905090565b60006105d2338484610bcf565b5060015b92915050565b6007546000906001600160a01b0384811661010090920416148015610610575060075461010090046001600160a01b031633145b1561062857610620848484610cf4565b506001610636565b610633848484610ed7565b90505b9392505050565b6106478282610f83565b600082815260016020526040902061065f9082610b85565b505050565b61066e8282610faa565b600082815260016020526040902061065f9082611024565b3360008181526003602090815260408083206001600160a01b038716845290915281205490916105d29185906106bd908690611c5a565b610bcf565b6106ec7f65d7a28e3265b37a6474929f336521b332c1681b933f6cb9f3376673440d862a3361040b565b6107635760405162461bcd60e51b815260206004820152603960248201527f45524332305072657365744d696e7465725061757365723a206d75737420686160448201527f76652070617573657220726f6c6520746f20756e70617573650000000000000060648201526084015b60405180910390fd5b61076b611039565b565b61077782826110cc565b5050565b610785338261116b565b50565b60075461010090046001600160a01b031633146107e75760405162461bcd60e51b815260206004820152601760248201527f4f6e6c79206c6f6e6753484f525420636f6e7472616374000000000000000000604482015260640161075a565b610777828261116b565b6001600160a01b038116600090815260026020526040812054600754600854604051632592fb8560e01b81526001600160a01b038681166004830152600160a01b830463ffffffff166024830152600160c01b90920460ff16151560448201526101009092041690632592fb859060640160206040518083038186803b15801561087a57600080fd5b505afa15801561088e573d6000803e3d6000fd5b505050506040513d601f19601f820116820180604052508101906108b29190611b9a565b61052b9190611c5a565b60006108c883336104b4565b9050818110156109265760405162461bcd60e51b8152602060048201526024808201527f45524332303a206275726e20616d6f756e74206578636565647320616c6c6f77604482015263616e636560e01b606482015260840161075a565b61093583336106bd8585611c91565b61065f838361116b565b6109697f65d7a28e3265b37a6474929f336521b332c1681b933f6cb9f3376673440d862a3361040b565b6109db5760405162461bcd60e51b815260206004820152603760248201527f45524332305072657365744d696e7465725061757365723a206d75737420686160448201527f76652070617573657220726f6c6520746f207061757365000000000000000000606482015260840161075a565b61076b6112c6565b60008281526001602052604081206106369083611341565b6000918252602082815260408084206001600160a01b0393909316845291905290205460ff1690565b60606006805461054290611cef565b3360009081526003602090815260408083206001600160a01b038616845290915281205482811015610ab55760405162461bcd60e51b815260206004820152602560248201527f45524332303a2064656372656173656420616c6c6f77616e63652062656c6f77604482015264207a65726f60d81b606482015260840161075a565b610ac433856106bd8685611c91565b5060019392505050565b600854610ae69033906001600160a01b031683610cf4565b6008546040516373479edf60e11b8152336004820152602481018390526001600160a01b039091169063e68f3dbe90604401600060405180830381600087803b158015610b3257600080fd5b505af1158015610b46573d6000803e3d6000fd5b5050505050565b60006105d2338484610cf4565b600081815260016020526040812061052b9061134d565b61066e8282611357565b610777828261137d565b6000610636836001600160a01b038416611401565b60006001600160e01b03198216637965db0b60e01b148061052b57506301ffc9a760e01b6001600160e01b031983161461052b565b6001600160a01b038316610c315760405162461bcd60e51b8152602060048201526024808201527f45524332303a20617070726f76652066726f6d20746865207a65726f206164646044820152637265737360e01b606482015260840161075a565b6001600160a01b038216610c925760405162461bcd60e51b815260206004820152602260248201527f45524332303a20617070726f766520746f20746865207a65726f206164647265604482015261737360f01b606482015260840161075a565b6001600160a01b0383811660008181526003602090815260408083209487168084529482529182902085905590518481527f8c5be1e5ebec7d5bd14f71427d1e84f3dd0314c0f7b2291e5b200ac8c7c3b92591015b60405180910390a3505050565b6001600160a01b038316610d585760405162461bcd60e51b815260206004820152602560248201527f45524332303a207472616e736665722066726f6d20746865207a65726f206164604482015264647265737360d81b606482015260840161075a565b6001600160a01b038216610dba5760405162461bcd60e51b815260206004820152602360248201527f45524332303a207472616e7366657220746f20746865207a65726f206164647260448201526265737360e81b606482015260840161075a565b610dc5838383611450565b6001600160a01b03831660009081526002602052604090205481811015610e3d5760405162461bcd60e51b815260206004820152602660248201527f45524332303a207472616e7366657220616d6f756e7420657863656564732062604482015265616c616e636560d01b606482015260840161075a565b610e478282611c91565b6001600160a01b038086166000908152600260205260408082209390935590851681529081208054849290610e7d908490611c5a565b92505081905550826001600160a01b0316846001600160a01b03167fddf252ad1be2c89b69c2b068fc378daa952ba7f163c4a11628f55a4df523b3ef84604051610ec991815260200190565b60405180910390a350505050565b6000610ee4848484610cf4565b6001600160a01b038416600090815260036020908152604080832033845290915290205482811015610f695760405162461bcd60e51b815260206004820152602860248201527f45524332303a207472616e7366657220616d6f756e74206578636565647320616044820152676c6c6f77616e636560c01b606482015260840161075a565b610f7885336106bd8685611c91565b506001949350505050565b600082815260208190526040902060010154610fa081335b61150f565b61065f838361137d565b6001600160a01b038116331461101a5760405162461bcd60e51b815260206004820152602f60248201527f416363657373436f6e74726f6c3a2063616e206f6e6c792072656e6f756e636560448201526e103937b632b9903337b91039b2b63360891b606482015260840161075a565b6107778282611573565b6000610636836001600160a01b0384166115d8565b60075460ff166110825760405162461bcd60e51b815260206004820152601460248201527314185d5cd8589b194e881b9bdd081c185d5cd95960621b604482015260640161075a565b6007805460ff191690557f5db9ee0a495bf2e6ff9c91a7834c1ba4fdd244a5e8aa4e537bd38aeae4b073aa335b6040516001600160a01b03909116815260200160405180910390a1565b6110f67f9f2df0fed2c77648de5860a4cc508cd0818c85b8b8a1ab4ceeef8d981c8956a63361040b565b6111615760405162461bcd60e51b815260206004820152603660248201527f45524332305072657365744d696e7465725061757365723a206d7573742068616044820152751d99481b5a5b9d195c881c9bdb19481d1bc81b5a5b9d60521b606482015260840161075a565b61077782826116ef565b6001600160a01b0382166111cb5760405162461bcd60e51b815260206004820152602160248201527f45524332303a206275726e2066726f6d20746865207a65726f206164647265736044820152607360f81b606482015260840161075a565b6111d782600083611450565b6001600160a01b0382166000908152600260205260409020548181101561124b5760405162461bcd60e51b815260206004820152602260248201527f45524332303a206275726e20616d6f756e7420657863656564732062616c616e604482015261636560f01b606482015260840161075a565b6112558282611c91565b6001600160a01b03841660009081526002602052604081209190915560048054849290611283908490611c91565b90915550506040518281526000906001600160a01b038516907fddf252ad1be2c89b69c2b068fc378daa952ba7f163c4a11628f55a4df523b3ef90602001610ce7565b60075460ff161561130c5760405162461bcd60e51b815260206004820152601060248201526f14185d5cd8589b194e881c185d5cd95960821b604482015260640161075a565b6007805460ff191660011790557f62e78cea01bee320cd4e420270b5ea74000d11b0c9f74754ebdbfc544b05a2586110af3390565b600061063683836117da565b600061052b825490565b6000828152602081905260409020600101546113738133610f9b565b61065f8383611573565b61138782826109fb565b610777576000828152602081815260408083206001600160a01b03851684529091529020805460ff191660011790556113bd3390565b6001600160a01b0316816001600160a01b0316837f2f8788117e7eff1d82e926ec794901d17c78024a50270940304540a733656f0d60405160405180910390a45050565b6000818152600183016020526040812054611448575081546001818101845560008481526020808220909301849055845484825282860190935260409020919091556105d6565b5060006105d6565b6007546001600160a01b0384811661010090920416146114e4576007546008546040516344bd03c360e11b81526001600160a01b038681166004830152600160a01b90920463ffffffff166024820152610100909204169063897a078690604401600060405180830381600087803b1580156114cb57600080fd5b505af11580156114df573d6000803e3d6000fd5b505050505b6001600160a01b03831660009081526002602052604081205490611507856107f1565b505050505050565b61151982826109fb565b61077757611531816001600160a01b0316601461186e565b61153c83602061186e565b60405160200161154d929190611bb2565b60408051601f198184030181529082905262461bcd60e51b825261075a91600401611c27565b61157d82826109fb565b15610777576000828152602081815260408083206001600160a01b0385168085529252808320805460ff1916905551339285917ff6391f5c32d9c69d2a47ea670b442974b53935d1edc7fd64eb21e047a839171b9190a45050565b600081815260018301602052604081205480156116e55760006115fc600183611c91565b855490915060009061161090600190611c91565b9050600086600001828154811061163757634e487b7160e01b600052603260045260246000fd5b906000526020600020015490508087600001848154811061166857634e487b7160e01b600052603260045260246000fd5b6000918252602080832090910192909255828152600189019091526040902084905586548790806116a957634e487b7160e01b600052603160045260246000fd5b600190038181906000526020600020016000905590558660010160008781526020019081526020016000206000905560019450505050506105d6565b60009150506105d6565b6001600160a01b0382166117455760405162461bcd60e51b815260206004820152601f60248201527f45524332303a206d696e7420746f20746865207a65726f206164647265737300604482015260640161075a565b61175160008383611450565b80600460008282546117639190611c5a565b90915550506001600160a01b03821660009081526002602052604081208054839290611790908490611c5a565b90915550506040518181526001600160a01b038316906000907fddf252ad1be2c89b69c2b068fc378daa952ba7f163c4a11628f55a4df523b3ef9060200160405180910390a35050565b815460009082106118385760405162461bcd60e51b815260206004820152602260248201527f456e756d657261626c655365743a20696e646578206f7574206f6620626f756e604482015261647360f01b606482015260840161075a565b82600001828154811061185b57634e487b7160e01b600052603260045260246000fd5b9060005260206000200154905092915050565b6060600061187d836002611c72565b611888906002611c5a565b67ffffffffffffffff8111156118ae57634e487b7160e01b600052604160045260246000fd5b6040519080825280601f01601f1916602001820160405280156118d8576020820181803683370190505b509050600360fc1b8160008151811061190157634e487b7160e01b600052603260045260246000fd5b60200101906001600160f81b031916908160001a905350600f60fb1b8160018151811061193e57634e487b7160e01b600052603260045260246000fd5b60200101906001600160f81b031916908160001a9053506000611962846002611c72565b61196d906001611c5a565b90505b6001811115611a01576f181899199a1a9b1b9c1cb0b131b232b360811b85600f16601081106119af57634e487b7160e01b600052603260045260246000fd5b1a60f81b8282815181106119d357634e487b7160e01b600052603260045260246000fd5b60200101906001600160f81b031916908160001a90535060049490941c936119fa81611cd8565b9050611970565b5083156106365760405162461bcd60e51b815260206004820181905260248201527f537472696e67733a20686578206c656e67746820696e73756666696369656e74604482015260640161075a565b80356001600160a01b038116811461052e57600080fd5b600060208284031215611a78578081fd5b61063682611a50565b60008060408385031215611a93578081fd5b611a9c83611a50565b9150611aaa60208401611a50565b90509250929050565b600080600060608486031215611ac7578081fd5b611ad084611a50565b9250611ade60208501611a50565b9150604084013590509250925092565b60008060408385031215611b00578182fd5b611b0983611a50565b946020939093013593505050565b600060208284031215611b28578081fd5b5035919050565b60008060408385031215611b41578182fd5b82359150611aaa60208401611a50565b60008060408385031215611b63578182fd5b50508035926020909101359150565b600060208284031215611b83578081fd5b81356001600160e01b031981168114610636578182fd5b600060208284031215611bab578081fd5b5051919050565b60007f416363657373436f6e74726f6c3a206163636f756e742000000000000000000082528351611bea816017850160208801611ca8565b7001034b99036b4b9b9b4b733903937b6329607d1b6017918401918201528351611c1b816028840160208801611ca8565b01602801949350505050565b6000602082528251806020840152611c46816040850160208701611ca8565b601f01601f19169190910160400192915050565b60008219821115611c6d57611c6d611d2a565b500190565b6000816000190483118215151615611c8c57611c8c611d2a565b500290565b600082821015611ca357611ca3611d2a565b500390565b60005b83811015611cc3578181015183820152602001611cab565b83811115611cd2576000848401525b50505050565b600081611ce757611ce7611d2a565b506000190190565b600181811c90821680611d0357607f821691505b60208210811415611d2457634e487b7160e01b600052602260045260246000fd5b50919050565b634e487b7160e01b600052601160045260246000fdfea26469706673582212205d788cad3fda84ee8fd461fb65300c77564ac27c68f9e5a632af52d425ddf20364736f6c63430008030033a26469706673582212209b9cf0e364ee502716384c98e59d1328dcb38597838500b8305d3b4828de31b664736f6c63430008030033",
  "immutableReferences": {},
  "source": "// SPDX-License-Identifier: BUSL-1.1\n\npragma solidity 0.8.3;\n\nimport \"./SyntheticToken.sol\";\nimport \"./interfaces/ILongShort.sol\";\nimport \"./interfaces/ITokenFactory.sol\";\n\ncontract TokenFactory is ITokenFactory {\n  ////////////////////////////////////\n  /////////////// STATE //////////////\n  ////////////////////////////////////\n\n  address public admin;\n  ILongShort public longShort;\n\n  bytes32 public constant DEFAULT_ADMIN_ROLE = keccak256(\"DEFAULT_ADMIN_ROLE\");\n  bytes32 public constant MINTER_ROLE = keccak256(\"MINTER_ROLE\");\n  bytes32 public constant PAUSER_ROLE = keccak256(\"PAUSER_ROLE\");\n\n  ////////////////////////////////////\n  /////////// MODIFIERS //////////////\n  ////////////////////////////////////\n\n  modifier adminOnly() {\n    require(msg.sender == admin);\n    _;\n  }\n\n  modifier onlyLongShort() {\n    require(msg.sender == address(longShort));\n    _;\n  }\n\n  ////////////////////////////////////\n  //////////// SET-UP ////////////////\n  ////////////////////////////////////\n\n  constructor(address _admin, ILongShort _longShort) {\n    admin = _admin;\n    longShort = _longShort;\n  }\n\n  ////////////////////////////////////\n  /// MULTISIG ADMIN FUNCTIONS ///////\n  ////////////////////////////////////\n\n  function changeAdmin(address _admin) external adminOnly {\n    admin = _admin;\n  }\n\n  function changeFloatAddress(ILongShort _longShort) external adminOnly {\n    longShort = _longShort;\n  }\n\n  ////////////////////////////////////\n  ///////// TOKEN CREATION ///////////\n  ////////////////////////////////////\n\n  function setupPermissions(SyntheticToken tokenContract) internal {\n    // Give minter roles\n    tokenContract.grantRole(DEFAULT_ADMIN_ROLE, address(longShort));\n    tokenContract.grantRole(MINTER_ROLE, address(longShort));\n    tokenContract.grantRole(PAUSER_ROLE, address(longShort));\n\n    // Revoke roles\n    tokenContract.revokeRole(DEFAULT_ADMIN_ROLE, address(this));\n    tokenContract.revokeRole(MINTER_ROLE, address(this));\n    tokenContract.revokeRole(PAUSER_ROLE, address(this));\n  }\n\n  function createTokenLong(\n    string calldata syntheticName,\n    string calldata syntheticSymbol,\n    IStaker staker,\n    uint32 marketIndex\n  ) external override onlyLongShort returns (SyntheticToken) {\n    SyntheticToken tokenContract = new SyntheticToken(\n      string(abi.encodePacked(\"FLOAT UP\", syntheticName)),\n      string(abi.encodePacked(\"fu\", syntheticSymbol)),\n      longShort,\n      staker,\n      marketIndex,\n      true /*long*/\n    );\n    setupPermissions(tokenContract);\n    return tokenContract;\n  }\n\n  function createTokenShort(\n    string calldata syntheticName,\n    string calldata syntheticSymbol,\n    IStaker staker,\n    uint32 marketIndex\n  ) external override onlyLongShort returns (SyntheticToken) {\n    SyntheticToken tokenContract = new SyntheticToken(\n      string(abi.encodePacked(\"FLOAT DOWN \", syntheticName)),\n      string(abi.encodePacked(\"fd\", syntheticSymbol)),\n      longShort,\n      staker,\n      marketIndex,\n      false /*short*/\n    );\n\n    setupPermissions(tokenContract);\n    return tokenContract;\n  }\n}\n",
  "sourcePath": "/home/jasoons/Documents/code/monorepo/contracts/contracts/TokenFactory.sol",
  "compiler": {
    "name": "solc",
    "version": "0.8.3+commit.8d00100c.Emscripten.clang"
  },
  "schemaVersion": "3.3.4",
  "updatedAt": "2021-07-12T15:23:44.665Z",
  "networkType": "ethereum",
  "devdoc": {
    "kind": "dev",
    "methods": {},
    "version": 1
  },
  "userdoc": {
    "kind": "user",
    "methods": {
      "changeAdmin(address)": {
        "notice": "MULTISIG ADMIN FUNCTIONS ///////"
      }
    },
    "version": 1
  }
}