{
  "contractName": "TokenFactory",
  "abi": [
    {
      "inputs": [
        {
          "internalType": "address",
          "name": "_admin",
          "type": "address"
        },
        {
          "internalType": "contract ILongShort",
          "name": "_longShort",
          "type": "address"
        }
      ],
      "stateMutability": "nonpayable",
      "type": "constructor"
    },
    {
      "inputs": [],
      "name": "DEFAULT_ADMIN_ROLE",
      "outputs": [
        {
          "internalType": "bytes32",
          "name": "",
          "type": "bytes32"
        }
      ],
      "stateMutability": "view",
      "type": "function",
      "constant": true
    },
    {
      "inputs": [],
      "name": "MINTER_ROLE",
      "outputs": [
        {
          "internalType": "bytes32",
          "name": "",
          "type": "bytes32"
        }
      ],
      "stateMutability": "view",
      "type": "function",
      "constant": true
    },
    {
      "inputs": [],
      "name": "PAUSER_ROLE",
      "outputs": [
        {
          "internalType": "bytes32",
          "name": "",
          "type": "bytes32"
        }
      ],
      "stateMutability": "view",
      "type": "function",
      "constant": true
    },
    {
      "inputs": [],
      "name": "admin",
      "outputs": [
        {
          "internalType": "address",
          "name": "",
          "type": "address"
        }
      ],
      "stateMutability": "view",
      "type": "function",
      "constant": true
    },
    {
      "inputs": [],
      "name": "longShort",
      "outputs": [
        {
          "internalType": "contract ILongShort",
          "name": "",
          "type": "address"
        }
      ],
      "stateMutability": "view",
      "type": "function",
      "constant": true
    },
    {
      "inputs": [
        {
          "internalType": "address",
          "name": "_admin",
          "type": "address"
        }
      ],
      "name": "changeAdmin",
      "outputs": [],
      "stateMutability": "nonpayable",
      "type": "function"
    },
    {
      "inputs": [
        {
          "internalType": "contract ILongShort",
          "name": "_longShort",
          "type": "address"
        }
      ],
      "name": "changeFloatAddress",
      "outputs": [],
      "stateMutability": "nonpayable",
      "type": "function"
    },
    {
      "inputs": [
        {
          "internalType": "string",
          "name": "syntheticName",
          "type": "string"
        },
        {
          "internalType": "string",
          "name": "syntheticSymbol",
          "type": "string"
        },
        {
          "internalType": "contract IStaker",
          "name": "staker",
          "type": "address"
        },
        {
          "internalType": "uint32",
          "name": "marketIndex",
          "type": "uint32"
        }
      ],
      "name": "createTokenLong",
      "outputs": [
        {
          "internalType": "contract SyntheticToken",
          "name": "",
          "type": "address"
        }
      ],
      "stateMutability": "nonpayable",
      "type": "function"
    },
    {
      "inputs": [
        {
          "internalType": "string",
          "name": "syntheticName",
          "type": "string"
        },
        {
          "internalType": "string",
          "name": "syntheticSymbol",
          "type": "string"
        },
        {
          "internalType": "contract IStaker",
          "name": "staker",
          "type": "address"
        },
        {
          "internalType": "uint32",
          "name": "marketIndex",
          "type": "uint32"
        }
      ],
      "name": "createTokenShort",
      "outputs": [
        {
          "internalType": "contract SyntheticToken",
          "name": "",
          "type": "address"
        }
      ],
      "stateMutability": "nonpayable",
      "type": "function"
    }
  ],
  "bytecode": "0x608060405234801561001057600080fd5b50604051612ecd380380612ecd83398101604081905261002f91610060565b600080546001600160a01b039384166001600160a01b031991821617909155600180549290931691161790556100b1565b60008060408385031215610072578182fd5b825161007d81610099565b602084015190925061008e81610099565b809150509250929050565b6001600160a01b03811681146100ae57600080fd5b50565b612e0d806100c06000396000f3fe60806040523480156200001157600080fd5b5060043610620000a05760003560e01c8063a217fddf116200006f578063a217fddf146200011d578063c0b77cf71462000154578063d5391393146200016b578063e63ab1e91462000193578063f851a44014620001bb57620000a0565b80632994987214620000a5578063456bf02814620000d65780634eb86d7314620000ed5780638f2839701462000106575b600080fd5b600154620000b9906001600160a01b031681565b6040516001600160a01b0390911681526020015b60405180910390f35b620000b9620000e73660046200073d565b620001cf565b62000104620000fe36600462000717565b620002a3565b005b620001046200011736600462000717565b620002dd565b620001457f1effbbff9c66c5e59634f24fe842750c60d18891155c32dd155fc2d661a4c86d81565b604051908152602001620000cd565b620000b9620001653660046200073d565b62000317565b620001457f9f2df0fed2c77648de5860a4cc508cd0818c85b8b8a1ab4ceeef8d981c8956a681565b620001457f65d7a28e3265b37a6474929f336521b332c1681b933f6cb9f3376673440d862a81565b600054620000b9906001600160a01b031681565b6001546000906001600160a01b03163314620001ea57600080fd5b60008787604051602001620002019291906200086b565b6040516020818303038152906040528686604051602001620002259291906200084d565b604051602081830303815290604052600160009054906101000a90046001600160a01b0316868660006040516200025c90620006bf565b6200026d96959493929190620008b6565b604051809103906000f0801580156200028a573d6000803e3d6000fd5b5090506200029881620003a4565b979650505050505050565b6000546001600160a01b03163314620002bb57600080fd5b600180546001600160a01b0319166001600160a01b0392909216919091179055565b6000546001600160a01b03163314620002f557600080fd5b600080546001600160a01b0319166001600160a01b0392909216919091179055565b6001546000906001600160a01b031633146200033257600080fd5b60008787604051602001620003499291906200088f565b60405160208183030381529060405286866040516020016200036d9291906200082f565b604051602081830303815290604052600160009054906101000a90046001600160a01b0316868660016040516200025c90620006bf565b600154604051632f2ff15d60e01b81527f1effbbff9c66c5e59634f24fe842750c60d18891155c32dd155fc2d661a4c86d60048201526001600160a01b03918216602482015290821690632f2ff15d90604401600060405180830381600087803b1580156200041257600080fd5b505af115801562000427573d6000803e3d6000fd5b5050600154604051632f2ff15d60e01b81527f9f2df0fed2c77648de5860a4cc508cd0818c85b8b8a1ab4ceeef8d981c8956a660048201526001600160a01b0391821660248201529084169250632f2ff15d9150604401600060405180830381600087803b1580156200049957600080fd5b505af1158015620004ae573d6000803e3d6000fd5b5050600154604051632f2ff15d60e01b81527f65d7a28e3265b37a6474929f336521b332c1681b933f6cb9f3376673440d862a60048201526001600160a01b0391821660248201529084169250632f2ff15d9150604401600060405180830381600087803b1580156200052057600080fd5b505af115801562000535573d6000803e3d6000fd5b505060405163d547741f60e01b81527f1effbbff9c66c5e59634f24fe842750c60d18891155c32dd155fc2d661a4c86d60048201523060248201526001600160a01b038416925063d547741f9150604401600060405180830381600087803b158015620005a157600080fd5b505af1158015620005b6573d6000803e3d6000fd5b505060405163d547741f60e01b81527f9f2df0fed2c77648de5860a4cc508cd0818c85b8b8a1ab4ceeef8d981c8956a660048201523060248201526001600160a01b038416925063d547741f9150604401600060405180830381600087803b1580156200062257600080fd5b505af115801562000637573d6000803e3d6000fd5b505060405163d547741f60e01b81527f65d7a28e3265b37a6474929f336521b332c1681b933f6cb9f3376673440d862a60048201523060248201526001600160a01b038416925063d547741f9150604401600060405180830381600087803b158015620006a357600080fd5b505af1158015620006b8573d6000803e3d6000fd5b5050505050565b612489806200094f83390190565b60008083601f840112620006df578182fd5b50813567ffffffffffffffff811115620006f7578182fd5b6020830191508360208285010111156200071057600080fd5b9250929050565b60006020828403121562000729578081fd5b8135620007368162000935565b9392505050565b6000806000806000806080878903121562000756578182fd5b863567ffffffffffffffff808211156200076e578384fd5b6200077c8a838b01620006cd565b9098509650602089013591508082111562000795578384fd5b50620007a489828a01620006cd565b9095509350506040870135620007ba8162000935565b9150606087013563ffffffff81168114620007d3578182fd5b809150509295509295509295565b60008151808452815b818110156200080857602081850181015186830182015201620007ea565b818111156200081a5782602083870101525b50601f01601f19169290920160200192915050565b600061199960f21b8252828460028401379101600201908152919050565b600061667560f01b8252828460028401379101600201908152919050565b6000670464c4f41542055560c41b8252828460088401379101600801908152919050565b60006a0232627a0aa102227aba7160ad1b82528284600b8401379101600b01908152919050565b600060c08252620008cb60c0830189620007e1565b8281036020840152620008df8189620007e1565b6001600160a01b0388811660408601528716606085015263ffffffff86166080850152915050600283106200092457634e487b7160e01b600052602160045260246000fd5b8260a0830152979650505050505050565b6001600160a01b03811681146200094b57600080fd5b5056fe60806040523480156200001157600080fd5b50604051620024893803806200248983398101604081905262000034916200042a565b85858181816005908051906020019062000050929190620002d1565b50805162000066906006906020840190620002d1565b50506007805460ff1916905550620000816000335b6200016c565b620000ad7f9f2df0fed2c77648de5860a4cc508cd0818c85b8b8a1ab4ceeef8d981c8956a6336200007b565b620000d97f65d7a28e3265b37a6474929f336521b332c1681b933f6cb9f3376673440d862a336200007b565b505060078054610100600160a81b0319166101006001600160a01b038781169190910291909117909155600880549185166001600160c01b031990921691909117600160a01b63ffffffff8516021780825582919060ff60c01b1916600160c01b8360018111156200015b57634e487b7160e01b600052602160045260246000fd5b02179055505050505050506200055c565b620001838282620001af60201b62000d041760201c565b6000828152600160209081526040909120620001aa91839062000d0e620001bf821b17901c565b505050565b620001bb8282620001df565b5050565b6000620001d6836001600160a01b0384166200027f565b90505b92915050565b6000828152602081815260408083206001600160a01b038516845290915290205460ff16620001bb576000828152602081815260408083206001600160a01b03851684529091529020805460ff191660011790556200023b3390565b6001600160a01b0316816001600160a01b0316837f2f8788117e7eff1d82e926ec794901d17c78024a50270940304540a733656f0d60405160405180910390a45050565b6000818152600183016020526040812054620002c857508154600181810184556000848152602080822090930184905584548482528286019093526040902091909155620001d9565b506000620001d9565b828054620002df90620004f0565b90600052602060002090601f0160209004810192826200030357600085556200034e565b82601f106200031e57805160ff19168380011785556200034e565b828001600101855582156200034e579182015b828111156200034e57825182559160200191906001019062000331565b506200035c92915062000360565b5090565b5b808211156200035c576000815560010162000361565b600082601f83011262000388578081fd5b81516001600160401b0380821115620003a557620003a56200052d565b604051601f8301601f19908116603f01168101908282118183101715620003d057620003d06200052d565b81604052838152602092508683858801011115620003ec578485fd5b8491505b838210156200040f5785820183015181830184015290820190620003f0565b838211156200042057848385830101525b9695505050505050565b60008060008060008060c0878903121562000443578182fd5b86516001600160401b03808211156200045a578384fd5b620004688a838b0162000377565b975060208901519150808211156200047e578384fd5b506200048d89828a0162000377565b9550506040870151620004a08162000543565b6060880151909450620004b38162000543565b608088015190935063ffffffff81168114620004cd578283fd5b60a088015190925060028110620004e2578182fd5b809150509295509295509295565b600181811c908216806200050557607f821691505b602082108114156200052757634e487b7160e01b600052602260045260246000fd5b50919050565b634e487b7160e01b600052604160045260246000fd5b6001600160a01b03811681146200055957600080fd5b50565b611f1d806200056c6000396000f3fe608060405234801561001057600080fd5b50600436106102065760003560e01c806370a082311161011a578063a457c2d7116100ad578063ca15c8731161007c578063ca15c87314610466578063d539139314610479578063d547741f146104a0578063dd62ed3e146104b3578063e63ab1e9146104ec57610206565b8063a457c2d71461040c578063a694fc3a1461041f578063a9059cbb14610432578063b1179ddf1461044557610206565b80639010d07c116100e95780639010d07c146103d657806391d14854146103e957806395d89b41146103fc578063a217fddf1461040457610206565b806370a082311461037c57806379cc67901461038f5780638456cb59146103a25780638c7adc15146103aa57610206565b8063313ce5671161019d57806340c10f191161016c57806340c10f191461032557806342966c68146103385780635c975abb1461034b5780635ebaf1db14610356578063633241421461036957610206565b8063313ce567146102e857806336568abe146102f7578063395093511461030a5780633f4ba83a1461031d57610206565b806323b872dd116101d957806323b872dd1461026d578063248a9ca31461028057806329949872146102a35780632f2ff15d146102d357610206565b806301ffc9a71461020b57806306fdde0314610233578063095ea7b31461024857806318160ddd1461025b575b600080fd5b61021e610219366004611cb8565b610513565b60405190151581526020015b60405180910390f35b61023b610540565b60405161022a9190611dce565b61021e610256366004611c34565b6105d2565b6004545b60405190815260200161022a565b61021e61027b366004611bf9565b6105e9565b61025f61028e366004611c5d565b60009081526020819052604090206001015490565b6007546102bb9061010090046001600160a01b031681565b6040516001600160a01b03909116815260200161022a565b6102e66102e1366004611c75565b61070a565b005b6040516012815260200161022a565b6102e6610305366004611c75565b610731565b61021e610318366004611c34565b610753565b6102e661078f565b6102e6610333366004611c34565b61083a565b6102e6610346366004611c5d565b610848565b60075460ff1661021e565b6008546102bb906001600160a01b031681565b6102e6610377366004611c34565b610855565b61025f61038a366004611bad565b6108be565b6102e661039d366004611c34565b610982565b6102e6610a05565b6008546103c190600160a01b900463ffffffff1681565b60405163ffffffff909116815260200161022a565b6102bb6103e4366004611c97565b610aa9565b61021e6103f7366004611c75565b610ac8565b61023b610af1565b61025f600081565b61021e61041a366004611c34565b610b00565b6102e661042d366004611c5d565b610b9b565b61021e610440366004611c34565b610cd6565b60085461045990600160c01b900460ff1681565b60405161022a9190611dc0565b61025f610474366004611c5d565b610ce3565b61025f7f9f2df0fed2c77648de5860a4cc508cd0818c85b8b8a1ab4ceeef8d981c8956a681565b6102e66104ae366004611c75565b610cfa565b61025f6104c1366004611bc7565b6001600160a01b03918216600090815260036020908152604080832093909416825291909152205490565b61025f7f65d7a28e3265b37a6474929f336521b332c1681b933f6cb9f3376673440d862a81565b60006001600160e01b03198216635a05180f60e01b1480610538575061053882610d23565b90505b919050565b60606005805461054f90611e96565b80601f016020809104026020016040519081016040528092919081815260200182805461057b90611e96565b80156105c85780601f1061059d576101008083540402835291602001916105c8565b820191906000526020600020905b8154815290600101906020018083116105ab57829003601f168201915b5050505050905090565b60006105df338484610d58565b5060015b92915050565b60075460009084906001600160a01b038083166101009092041614610682576007546008546040516344bd03c360e11b81526001600160a01b038481166004830152600160a01b90920463ffffffff166024820152610100909204169063897a078690604401600060405180830381600087803b15801561066957600080fd5b505af115801561067d573d6000803e3d6000fd5b505050505b6001600160a01b038116600090815260026020526040812054906106a5836108be565b6007549091506001600160a01b03878116610100909204161480156106d9575060075461010090046001600160a01b031633145b156106f2576106e9878787610e7d565b60019350610700565b6106fd878787610e88565b93505b5050509392505050565b6107148282610f34565b600082815260016020526040902061072c9082610d0e565b505050565b61073b8282610f5b565b600082815260016020526040902061072c9082610fd5565b3360008181526003602090815260408083206001600160a01b038716845290915281205490916105df91859061078a908690611e01565b610d58565b6107b97f65d7a28e3265b37a6474929f336521b332c1681b933f6cb9f3376673440d862a336103f7565b6108305760405162461bcd60e51b815260206004820152603960248201527f45524332305072657365744d696e7465725061757365723a206d75737420686160448201527f76652070617573657220726f6c6520746f20756e70617573650000000000000060648201526084015b60405180910390fd5b610838610fea565b565b610844828261107d565b5050565b610852338261111c565b50565b60075461010090046001600160a01b031633146108b45760405162461bcd60e51b815260206004820152601760248201527f4f6e6c79206c6f6e6753484f525420636f6e74726163740000000000000000006044820152606401610827565b610844828261111c565b6001600160a01b03811660009081526002602052604081205460075460085460405163cd59e15360e01b81526101009092046001600160a01b03169163cd59e15391610928918791600160a01b810463ffffffff1691600160c01b90910460ff1690600401611d8f565b60206040518083038186803b15801561094057600080fd5b505afa158015610954573d6000803e3d6000fd5b505050506040513d601f19601f820116820180604052508101906109789190611ce0565b6105389190611e01565b600061098e83336104c1565b9050818110156109ec5760405162461bcd60e51b8152602060048201526024808201527f45524332303a206275726e20616d6f756e74206578636565647320616c6c6f77604482015263616e636560e01b6064820152608401610827565b6109fb833361078a8585611e38565b61072c838361111c565b610a2f7f65d7a28e3265b37a6474929f336521b332c1681b933f6cb9f3376673440d862a336103f7565b610aa15760405162461bcd60e51b815260206004820152603760248201527f45524332305072657365744d696e7465725061757365723a206d75737420686160448201527f76652070617573657220726f6c6520746f2070617573650000000000000000006064820152608401610827565b610838611277565b6000828152600160205260408120610ac190836112f2565b9392505050565b6000918252602082815260408084206001600160a01b0393909316845291905290205460ff1690565b60606006805461054f90611e96565b3360009081526003602090815260408083206001600160a01b038616845290915281205482811015610b825760405162461bcd60e51b815260206004820152602560248201527f45524332303a2064656372656173656420616c6c6f77616e63652062656c6f77604482015264207a65726f60d81b6064820152608401610827565b610b91338561078a8685611e38565b5060019392505050565b600754339061010090046001600160a01b03168114610c2e576007546008546040516344bd03c360e11b81526001600160a01b038481166004830152600160a01b90920463ffffffff166024820152610100909204169063897a078690604401600060405180830381600087803b158015610c1557600080fd5b505af1158015610c29573d6000803e3d6000fd5b505050505b6001600160a01b03811660009081526002602052604081205490610c51836108be565b600854909150610c6c9033906001600160a01b031686610e7d565b6008546040516373479edf60e11b8152336004820152602481018690526001600160a01b039091169063e68f3dbe90604401600060405180830381600087803b158015610cb857600080fd5b505af1158015610ccc573d6000803e3d6000fd5b5050505050505050565b60006105df338484610e7d565b6000818152600160205260408120610538906112fe565b61073b8282611308565b610844828261132e565b6000610ac1836001600160a01b0384166113b2565b60006001600160e01b03198216637965db0b60e01b148061053857506301ffc9a760e01b6001600160e01b0319831614610538565b6001600160a01b038316610dba5760405162461bcd60e51b8152602060048201526024808201527f45524332303a20617070726f76652066726f6d20746865207a65726f206164646044820152637265737360e01b6064820152608401610827565b6001600160a01b038216610e1b5760405162461bcd60e51b815260206004820152602260248201527f45524332303a20617070726f766520746f20746865207a65726f206164647265604482015261737360f01b6064820152608401610827565b6001600160a01b0383811660008181526003602090815260408083209487168084529482529182902085905590518481527f8c5be1e5ebec7d5bd14f71427d1e84f3dd0314c0f7b2291e5b200ac8c7c3b92591015b60405180910390a3505050565b61072c838383611401565b6000610e95848484610e7d565b6001600160a01b038416600090815260036020908152604080832033845290915290205482811015610f1a5760405162461bcd60e51b815260206004820152602860248201527f45524332303a207472616e7366657220616d6f756e74206578636565647320616044820152676c6c6f77616e636560c01b6064820152608401610827565b610f29853361078a8685611e38565b506001949350505050565b600082815260208190526040902060010154610f5181335b6115e4565b61072c838361132e565b6001600160a01b0381163314610fcb5760405162461bcd60e51b815260206004820152602f60248201527f416363657373436f6e74726f6c3a2063616e206f6e6c792072656e6f756e636560448201526e103937b632b9903337b91039b2b63360891b6064820152608401610827565b6108448282611648565b6000610ac1836001600160a01b0384166116ad565b60075460ff166110335760405162461bcd60e51b815260206004820152601460248201527314185d5cd8589b194e881b9bdd081c185d5cd95960621b6044820152606401610827565b6007805460ff191690557f5db9ee0a495bf2e6ff9c91a7834c1ba4fdd244a5e8aa4e537bd38aeae4b073aa335b6040516001600160a01b03909116815260200160405180910390a1565b6110a77f9f2df0fed2c77648de5860a4cc508cd0818c85b8b8a1ab4ceeef8d981c8956a6336103f7565b6111125760405162461bcd60e51b815260206004820152603660248201527f45524332305072657365744d696e7465725061757365723a206d7573742068616044820152751d99481b5a5b9d195c881c9bdb19481d1bc81b5a5b9d60521b6064820152608401610827565b61084482826117c4565b6001600160a01b03821661117c5760405162461bcd60e51b815260206004820152602160248201527f45524332303a206275726e2066726f6d20746865207a65726f206164647265736044820152607360f81b6064820152608401610827565b611188826000836118af565b6001600160a01b038216600090815260026020526040902054818110156111fc5760405162461bcd60e51b815260206004820152602260248201527f45524332303a206275726e20616d6f756e7420657863656564732062616c616e604482015261636560f01b6064820152608401610827565b6112068282611e38565b6001600160a01b03841660009081526002602052604081209190915560048054849290611234908490611e38565b90915550506040518281526000906001600160a01b038516907fddf252ad1be2c89b69c2b068fc378daa952ba7f163c4a11628f55a4df523b3ef90602001610e70565b60075460ff16156112bd5760405162461bcd60e51b815260206004820152601060248201526f14185d5cd8589b194e881c185d5cd95960821b6044820152606401610827565b6007805460ff191660011790557f62e78cea01bee320cd4e420270b5ea74000d11b0c9f74754ebdbfc544b05a2586110603390565b6000610ac183836118ba565b6000610538825490565b6000828152602081905260409020600101546113248133610f4c565b61072c8383611648565b6113388282610ac8565b610844576000828152602081815260408083206001600160a01b03851684529091529020805460ff1916600117905561136e3390565b6001600160a01b0316816001600160a01b0316837f2f8788117e7eff1d82e926ec794901d17c78024a50270940304540a733656f0d60405160405180910390a45050565b60008181526001830160205260408120546113f9575081546001818101845560008481526020808220909301849055845484825282860190935260409020919091556105e3565b5060006105e3565b6001600160a01b0383166114655760405162461bcd60e51b815260206004820152602560248201527f45524332303a207472616e736665722066726f6d20746865207a65726f206164604482015264647265737360d81b6064820152608401610827565b6001600160a01b0382166114c75760405162461bcd60e51b815260206004820152602360248201527f45524332303a207472616e7366657220746f20746865207a65726f206164647260448201526265737360e81b6064820152608401610827565b6114d28383836118af565b6001600160a01b0383166000908152600260205260409020548181101561154a5760405162461bcd60e51b815260206004820152602660248201527f45524332303a207472616e7366657220616d6f756e7420657863656564732062604482015265616c616e636560d01b6064820152608401610827565b6115548282611e38565b6001600160a01b03808616600090815260026020526040808220939093559085168152908120805484929061158a908490611e01565b92505081905550826001600160a01b0316846001600160a01b03167fddf252ad1be2c89b69c2b068fc378daa952ba7f163c4a11628f55a4df523b3ef846040516115d691815260200190565b60405180910390a350505050565b6115ee8282610ac8565b61084457611606816001600160a01b0316601461194e565b61161183602061194e565b604051602001611622929190611d1a565b60408051601f198184030181529082905262461bcd60e51b825261082791600401611dce565b6116528282610ac8565b15610844576000828152602081815260408083206001600160a01b0385168085529252808320805460ff1916905551339285917ff6391f5c32d9c69d2a47ea670b442974b53935d1edc7fd64eb21e047a839171b9190a45050565b600081815260018301602052604081205480156117ba5760006116d1600183611e38565b85549091506000906116e590600190611e38565b9050600086600001828154811061170c57634e487b7160e01b600052603260045260246000fd5b906000526020600020015490508087600001848154811061173d57634e487b7160e01b600052603260045260246000fd5b60009182526020808320909101929092558281526001890190915260409020849055865487908061177e57634e487b7160e01b600052603160045260246000fd5b600190038181906000526020600020016000905590558660010160008781526020019081526020016000206000905560019450505050506105e3565b60009150506105e3565b6001600160a01b03821661181a5760405162461bcd60e51b815260206004820152601f60248201527f45524332303a206d696e7420746f20746865207a65726f2061646472657373006044820152606401610827565b611826600083836118af565b80600460008282546118389190611e01565b90915550506001600160a01b03821660009081526002602052604081208054839290611865908490611e01565b90915550506040518181526001600160a01b038316906000907fddf252ad1be2c89b69c2b068fc378daa952ba7f163c4a11628f55a4df523b3ef9060200160405180910390a35050565b61072c838383611b30565b815460009082106119185760405162461bcd60e51b815260206004820152602260248201527f456e756d657261626c655365743a20696e646578206f7574206f6620626f756e604482015261647360f01b6064820152608401610827565b82600001828154811061193b57634e487b7160e01b600052603260045260246000fd5b9060005260206000200154905092915050565b6060600061195d836002611e19565b611968906002611e01565b67ffffffffffffffff81111561198e57634e487b7160e01b600052604160045260246000fd5b6040519080825280601f01601f1916602001820160405280156119b8576020820181803683370190505b509050600360fc1b816000815181106119e157634e487b7160e01b600052603260045260246000fd5b60200101906001600160f81b031916908160001a905350600f60fb1b81600181518110611a1e57634e487b7160e01b600052603260045260246000fd5b60200101906001600160f81b031916908160001a9053506000611a42846002611e19565b611a4d906001611e01565b90505b6001811115611ae1576f181899199a1a9b1b9c1cb0b131b232b360811b85600f1660108110611a8f57634e487b7160e01b600052603260045260246000fd5b1a60f81b828281518110611ab357634e487b7160e01b600052603260045260246000fd5b60200101906001600160f81b031916908160001a90535060049490941c93611ada81611e7f565b9050611a50565b508315610ac15760405162461bcd60e51b815260206004820181905260248201527f537472696e67733a20686578206c656e67746820696e73756666696369656e746044820152606401610827565b60075460ff161561072c5760405162461bcd60e51b815260206004820152602a60248201527f45524332305061757361626c653a20746f6b656e207472616e736665722077686044820152691a5b19481c185d5cd95960b21b6064820152608401610827565b80356001600160a01b038116811461053b57600080fd5b600060208284031215611bbe578081fd5b610ac182611b96565b60008060408385031215611bd9578081fd5b611be283611b96565b9150611bf060208401611b96565b90509250929050565b600080600060608486031215611c0d578081fd5b611c1684611b96565b9250611c2460208501611b96565b9150604084013590509250925092565b60008060408385031215611c46578182fd5b611c4f83611b96565b946020939093013593505050565b600060208284031215611c6e578081fd5b5035919050565b60008060408385031215611c87578182fd5b82359150611bf060208401611b96565b60008060408385031215611ca9578182fd5b50508035926020909101359150565b600060208284031215611cc9578081fd5b81356001600160e01b031981168114610ac1578182fd5b600060208284031215611cf1578081fd5b5051919050565b60028110611d1657634e487b7160e01b600052602160045260246000fd5b9052565b60007f416363657373436f6e74726f6c3a206163636f756e742000000000000000000082528351611d52816017850160208801611e4f565b7001034b99036b4b9b9b4b733903937b6329607d1b6017918401918201528351611d83816028840160208801611e4f565b01602801949350505050565b6001600160a01b038416815263ffffffff8316602082015260608101611db86040830184611cf8565b949350505050565b602081016105e38284611cf8565b6000602082528251806020840152611ded816040850160208701611e4f565b601f01601f19169190910160400192915050565b60008219821115611e1457611e14611ed1565b500190565b6000816000190483118215151615611e3357611e33611ed1565b500290565b600082821015611e4a57611e4a611ed1565b500390565b60005b83811015611e6a578181015183820152602001611e52565b83811115611e79576000848401525b50505050565b600081611e8e57611e8e611ed1565b506000190190565b600181811c90821680611eaa57607f821691505b60208210811415611ecb57634e487b7160e01b600052602260045260246000fd5b50919050565b634e487b7160e01b600052601160045260246000fdfea26469706673582212207025e860ad7405497080b15c376d6a19bdb7b862cf65b71c27f8dbd97337d1dd64736f6c63430008030033a2646970667358221220e9407a48ab97ae7d11cc68ac2dac6aa1973a6084f5e05ecd5772c8701824594264736f6c63430008030033",
  "immutableReferences": {},
  "source": "// SPDX-License-Identifier: BUSL-1.1\n\npragma solidity 0.8.3;\n\nimport \"./SyntheticToken.sol\";\nimport \"./interfaces/ILongShort.sol\";\nimport \"./interfaces/ITokenFactory.sol\";\n\ncontract TokenFactory is ITokenFactory {\n    ////////////////////////////////////\n    /////////////// STATE //////////////\n    ////////////////////////////////////\n\n    address public admin;\n    ILongShort public longShort;\n\n    bytes32 public constant DEFAULT_ADMIN_ROLE =\n        keccak256(\"DEFAULT_ADMIN_ROLE\");\n    bytes32 public constant MINTER_ROLE = keccak256(\"MINTER_ROLE\");\n    bytes32 public constant PAUSER_ROLE = keccak256(\"PAUSER_ROLE\");\n\n    ////////////////////////////////////\n    /////////// MODIFIERS //////////////\n    ////////////////////////////////////\n\n    modifier adminOnly() {\n        require(msg.sender == admin);\n        _;\n    }\n\n    modifier onlyLongShort() {\n        require(msg.sender == address(longShort));\n        _;\n    }\n\n    ////////////////////////////////////\n    //////////// SET-UP ////////////////\n    ////////////////////////////////////\n\n    constructor(address _admin, ILongShort _longShort) {\n        admin = _admin;\n        longShort = _longShort;\n    }\n\n    ////////////////////////////////////\n    /// MULTISIG ADMIN FUNCTIONS ///////\n    ////////////////////////////////////\n\n    function changeAdmin(address _admin) external adminOnly {\n        admin = _admin;\n    }\n\n    function changeFloatAddress(ILongShort _longShort) external adminOnly {\n        longShort = _longShort;\n    }\n\n    ////////////////////////////////////\n    ///////// TOKEN CREATION ///////////\n    ////////////////////////////////////\n\n    function setupPermissions(SyntheticToken tokenContract) internal {\n        // Give minter roles\n        tokenContract.grantRole(DEFAULT_ADMIN_ROLE, address(longShort));\n        tokenContract.grantRole(MINTER_ROLE, address(longShort));\n        tokenContract.grantRole(PAUSER_ROLE, address(longShort));\n\n        // Revoke roles\n        tokenContract.revokeRole(DEFAULT_ADMIN_ROLE, address(this));\n        tokenContract.revokeRole(MINTER_ROLE, address(this));\n        tokenContract.revokeRole(PAUSER_ROLE, address(this));\n    }\n\n    function createTokenLong(\n        string calldata syntheticName,\n        string calldata syntheticSymbol,\n        IStaker staker,\n        uint32 marketIndex\n    ) external override onlyLongShort returns (SyntheticToken) {\n        SyntheticToken tokenContract =\n            new SyntheticToken(\n                string(abi.encodePacked(\"FLOAT UP\", syntheticName)),\n                string(abi.encodePacked(\"fu\", syntheticSymbol)),\n                longShort,\n                staker,\n                marketIndex,\n                ILongShort.MarketSide.Long\n            );\n        setupPermissions(tokenContract);\n        return tokenContract;\n    }\n\n    function createTokenShort(\n        string calldata syntheticName,\n        string calldata syntheticSymbol,\n        IStaker staker,\n        uint32 marketIndex\n    ) external override onlyLongShort returns (SyntheticToken) {\n        SyntheticToken tokenContract =\n            new SyntheticToken(\n                string(abi.encodePacked(\"FLOAT DOWN \", syntheticName)),\n                string(abi.encodePacked(\"fd\", syntheticSymbol)),\n                longShort,\n                staker,\n                marketIndex,\n                ILongShort.MarketSide.Short\n            );\n\n        setupPermissions(tokenContract);\n        return tokenContract;\n    }\n}\n",
  "sourcePath": "/home/jasoons/Documents/code/monorepo/contracts/contracts/TokenFactory.sol",
  "compiler": {
    "name": "solc",
    "version": "0.8.3+commit.8d00100c.Emscripten.clang"
  },
  "schemaVersion": "3.3.4",
  "updatedAt": "2021-06-16T19:26:36.478Z",
  "networkType": "ethereum",
  "devdoc": {
    "kind": "dev",
    "methods": {},
    "version": 1
  },
  "userdoc": {
    "kind": "user",
    "methods": {
      "changeAdmin(address)": {
        "notice": "MULTISIG ADMIN FUNCTIONS ///////"
      }
    },
    "version": 1
  }
}