{
  "contractName": "TokenFactory",
  "abi": [
    {
      "inputs": [],
      "name": "DEFAULT_ADMIN_ROLE",
      "outputs": [
        {
          "internalType": "bytes32",
          "name": "",
          "type": "bytes32"
        }
      ],
      "stateMutability": "view",
      "type": "function",
      "constant": true
    },
    {
      "inputs": [],
      "name": "MINTER_ROLE",
      "outputs": [
        {
          "internalType": "bytes32",
          "name": "",
          "type": "bytes32"
        }
      ],
      "stateMutability": "view",
      "type": "function",
      "constant": true
    },
    {
      "inputs": [],
      "name": "PAUSER_ROLE",
      "outputs": [
        {
          "internalType": "bytes32",
          "name": "",
          "type": "bytes32"
        }
      ],
      "stateMutability": "view",
      "type": "function",
      "constant": true
    },
    {
      "inputs": [],
      "name": "admin",
      "outputs": [
        {
          "internalType": "address",
          "name": "",
          "type": "address"
        }
      ],
      "stateMutability": "view",
      "type": "function",
      "constant": true
    },
    {
      "inputs": [],
      "name": "floatContract",
      "outputs": [
        {
          "internalType": "address",
          "name": "",
          "type": "address"
        }
      ],
      "stateMutability": "view",
      "type": "function",
      "constant": true
    },
    {
      "inputs": [
        {
          "internalType": "address",
          "name": "_admin",
          "type": "address"
        },
        {
          "internalType": "address",
          "name": "_floatContract",
          "type": "address"
        }
      ],
      "name": "setup",
      "outputs": [],
      "stateMutability": "nonpayable",
      "type": "function"
    },
    {
      "inputs": [
        {
          "internalType": "address",
          "name": "_admin",
          "type": "address"
        }
      ],
      "name": "changeAdmin",
      "outputs": [],
      "stateMutability": "nonpayable",
      "type": "function"
    },
    {
      "inputs": [
        {
          "internalType": "address",
          "name": "_floatContract",
          "type": "address"
        }
      ],
      "name": "changeFloatAddress",
      "outputs": [],
      "stateMutability": "nonpayable",
      "type": "function"
    },
    {
      "inputs": [
        {
          "internalType": "string",
          "name": "syntheticName",
          "type": "string"
        },
        {
          "internalType": "string",
          "name": "syntheticSymbol",
          "type": "string"
        },
        {
          "internalType": "address",
          "name": "staker",
          "type": "address"
        }
      ],
      "name": "createTokenLong",
      "outputs": [
        {
          "internalType": "contract SyntheticToken",
          "name": "",
          "type": "address"
        }
      ],
      "stateMutability": "nonpayable",
      "type": "function"
    },
    {
      "inputs": [
        {
          "internalType": "string",
          "name": "syntheticName",
          "type": "string"
        },
        {
          "internalType": "string",
          "name": "syntheticSymbol",
          "type": "string"
        },
        {
          "internalType": "address",
          "name": "staker",
          "type": "address"
        }
      ],
      "name": "createTokenShort",
      "outputs": [
        {
          "internalType": "contract SyntheticToken",
          "name": "",
          "type": "address"
        }
      ],
      "stateMutability": "nonpayable",
      "type": "function"
    }
  ],
  "bytecode": "0x608060405234801561001057600080fd5b506129f8806100206000396000f3fe608060405234801561001057600080fd5b506004361061009e5760003560e01c8063a217fddf11610066578063a217fddf14610121578063cfc6808914610156578063d539139314610169578063e63ab1e914610190578063f851a440146101b75761009e565b80632d34ba79146100a35780634eb86d73146100b857806357ca5f1c146100cb578063885eae3e146100fb5780638f2839701461010e575b600080fd5b6100b66100b1366004610894565b6101d0565b005b6100b66100c6366004610873565b6102d3565b6100de6100d93660046108c6565b610312565b6040516001600160a01b0390911681526020015b60405180910390f35b6001546100de906001600160a01b031681565b6100b661011c366004610873565b610422565b6101487f1effbbff9c66c5e59634f24fe842750c60d18891155c32dd155fc2d661a4c86d81565b6040519081526020016100f2565b6100de6101643660046108c6565b610469565b6101487f9f2df0fed2c77648de5860a4cc508cd0818c85b8b8a1ab4ceeef8d981c8956a681565b6101487f65d7a28e3265b37a6474929f336521b332c1681b933f6cb9f3376673440d862a81565b6000546100de906201000090046001600160a01b031681565b600054610100900460ff16806101e9575060005460ff16155b6102505760405162461bcd60e51b815260206004820152602e60248201527f496e697469616c697a61626c653a20636f6e747261637420697320616c72656160448201526d191e481a5b9a5d1a585b1a5e995960921b606482015260840160405180910390fd5b600054610100900460ff1615801561027b576000805460ff1961ff0019909116610100171660011790555b6000805462010000600160b01b031916620100006001600160a01b038681169190910291909117909155600180546001600160a01b03191691841691909117905580156102ce576000805461ff00191690555b505050565b6000546201000090046001600160a01b031633146102f057600080fd5b600180546001600160a01b0319166001600160a01b0392909216919091179055565b6001546000906001600160a01b0316331461032c57600080fd5b600060405161033a90610803565b604051809103906000f080158015610356573d6000803e3d6000fd5b509050806001600160a01b0316638f15b414888860405160200161037b9291906109cb565b604051602081830303815290604052878760405160200161039d9291906109ad565b60408051601f19818403018152908290526001546001600160e01b031960e086901b1683526103dd93926001600160a01b03909116908990600401610a16565b600060405180830381600087803b1580156103f757600080fd5b505af115801561040b573d6000803e3d6000fd5b50505050610418816104f4565b9695505050505050565b6000546201000090046001600160a01b0316331461043f57600080fd5b600080546001600160a01b03909216620100000262010000600160b01b0319909216919091179055565b6001546000906001600160a01b0316331461048357600080fd5b600060405161049190610803565b604051809103906000f0801580156104ad573d6000803e3d6000fd5b509050806001600160a01b0316638f15b41488886040516020016104d29291906109ef565b604051602081830303815290604052878760405160200161039d92919061098f565b600154604051632f2ff15d60e01b81527f1effbbff9c66c5e59634f24fe842750c60d18891155c32dd155fc2d661a4c86d60048201526001600160a01b03918216602482015290821690632f2ff15d90604401600060405180830381600087803b15801561056157600080fd5b505af1158015610575573d6000803e3d6000fd5b5050600154604051632f2ff15d60e01b81527f9f2df0fed2c77648de5860a4cc508cd0818c85b8b8a1ab4ceeef8d981c8956a660048201526001600160a01b0391821660248201529084169250632f2ff15d9150604401600060405180830381600087803b1580156105e657600080fd5b505af11580156105fa573d6000803e3d6000fd5b5050600154604051632f2ff15d60e01b81527f65d7a28e3265b37a6474929f336521b332c1681b933f6cb9f3376673440d862a60048201526001600160a01b0391821660248201529084169250632f2ff15d9150604401600060405180830381600087803b15801561066b57600080fd5b505af115801561067f573d6000803e3d6000fd5b505060405163d547741f60e01b81527f1effbbff9c66c5e59634f24fe842750c60d18891155c32dd155fc2d661a4c86d60048201523060248201526001600160a01b038416925063d547741f9150604401600060405180830381600087803b1580156106ea57600080fd5b505af11580156106fe573d6000803e3d6000fd5b505060405163d547741f60e01b81527f9f2df0fed2c77648de5860a4cc508cd0818c85b8b8a1ab4ceeef8d981c8956a660048201523060248201526001600160a01b038416925063d547741f9150604401600060405180830381600087803b15801561076957600080fd5b505af115801561077d573d6000803e3d6000fd5b505060405163d547741f60e01b81527f65d7a28e3265b37a6474929f336521b332c1681b933f6cb9f3376673440d862a60048201523060248201526001600160a01b038416925063d547741f9150604401600060405180830381600087803b1580156107e857600080fd5b505af11580156107fc573d6000803e3d6000fd5b5050505050565b611f6280610a6183390190565b80356001600160a01b038116811461082757600080fd5b919050565b60008083601f84011261083d578182fd5b50813567ffffffffffffffff811115610854578182fd5b60208301915083602082850101111561086c57600080fd5b9250929050565b600060208284031215610884578081fd5b61088d82610810565b9392505050565b600080604083850312156108a6578081fd5b6108af83610810565b91506108bd60208401610810565b90509250929050565b6000806000806000606086880312156108dd578081fd5b853567ffffffffffffffff808211156108f4578283fd5b61090089838a0161082c565b90975095506020880135915080821115610918578283fd5b506109258882890161082c565b9094509250610938905060408701610810565b90509295509295909350565b60008151808452815b818110156109695760208185018101518683018201520161094d565b8181111561097a5782602083870101525b50601f01601f19169290920160200192915050565b600061199960f21b8252828460028401379101600201908152919050565b600061667560f01b8252828460028401379101600201908152919050565b6000670464c4f41542055560c41b8252828460088401379101600801908152919050565b60006a0232627a0aa102227aba7160ad1b82528284600b8401379101600b01908152919050565b600060808252610a296080830187610944565b8281036020840152610a3b8187610944565b6001600160a01b0395861660408501529390941660609092019190915250939250505056fe608060405234801561001057600080fd5b50611f42806100206000396000f3fe608060405234801561001057600080fd5b50600436106101fb5760003560e01c806370a082311161011a578063a457c2d7116100ad578063ca15c8731161007c578063ca15c87314610428578063d53913931461043b578063d547741f14610462578063dd62ed3e14610475578063e63ab1e9146104ae576101fb565b8063a457c2d7146103db578063a694fc3a146103ee578063a9059cbb14610401578063b777453a14610414576101fb565b80639010d07c116100e95780639010d07c146103a557806391d14854146103b857806395d89b41146103cb578063a217fddf146103d3576101fb565b806370a082311461034e57806379cc6790146103775780638456cb591461038a5780638f15b41414610392576101fb565b806339509351116101925780634cd88b76116101615780634cd88b76146102f15780635c975abb146103045780635ebaf1db1461030f578063633241421461033b576101fb565b806339509351146102b05780633f4ba83a146102c357806340c10f19146102cb57806342966c68146102de576101fb565b8063248a9ca3116101ce578063248a9ca3146102665780632f2ff15d14610279578063313ce5671461028e57806336568abe1461029d576101fb565b806306fdde0314610200578063095ea7b31461021e57806318160ddd1461024157806323b872dd14610253575b600080fd5b6102086104c3565b6040516102159190611db5565b60405180910390f35b61023161022c366004611c4e565b610555565b6040519015158152602001610215565b6099545b604051908152602001610215565b610231610261366004611c13565b61056c565b610245610274366004611c77565b610622565b61028c610287366004611c8f565b61063a565b005b60405160128152602001610215565b61028c6102ab366004611c8f565b610661565b6102316102be366004611c4e565b6106df565b61028c610716565b61028c6102d9366004611c4e565b6107aa565b61028c6102ec366004611c77565b610849565b61028c6102ff366004611cd2565b610856565b60fb5460ff16610231565b61019254610323906001600160a01b031681565b6040516001600160a01b039091168152602001610215565b61028c610349366004611c4e565b6108d6565b61024561035c366004611bc7565b6001600160a01b031660009081526097602052604090205490565b61028c610385366004611c4e565b61093b565b61028c6109be565b61028c6103a0366004611d33565b610a50565b6103236103b3366004611cb1565b610b05565b6102316103c6366004611c8f565b610b24565b610208610b4f565b610245600081565b6102316103e9366004611c4e565b610b5e565b61028c6103fc366004611c77565b610bf9565b61023161040f366004611c4e565b610c73565b61019154610323906001600160a01b031681565b610245610436366004611c77565b610c80565b6102457f9f2df0fed2c77648de5860a4cc508cd0818c85b8b8a1ab4ceeef8d981c8956a681565b61028c610470366004611c8f565b610c97565b610245610483366004611be1565b6001600160a01b03918216600090815260986020908152604080832093909416825291909152205490565b610245600080516020611eed83398151915281565b6060609a80546104d290611e85565b80601f01602080910402602001604051908101604052809291908181526020018280546104fe90611e85565b801561054b5780601f106105205761010080835404028352916020019161054b565b820191906000526020600020905b81548152906001019060200180831161052e57829003601f168201915b5050505050905090565b6000610562338484610cb9565b5060015b92915050565b6000610579848484610dde565b6001600160a01b0384166000908152609860209081526040808320338452909152902054828110156106035760405162461bcd60e51b815260206004820152602860248201527f45524332303a207472616e7366657220616d6f756e74206578636565647320616044820152676c6c6f77616e636560c01b60648201526084015b60405180910390fd5b61061785336106128685611e6e565b610cb9565b506001949350505050565b6000818152603360205260409020600101545b919050565b6106448282610fc1565b600082815260656020526040902061065c9082611041565b505050565b6001600160a01b03811633146106d15760405162461bcd60e51b815260206004820152602f60248201527f416363657373436f6e74726f6c3a2063616e206f6e6c792072656e6f756e636560448201526e103937b632b9903337b91039b2b63360891b60648201526084016105fa565b6106db8282611056565b5050565b3360008181526098602090815260408083206001600160a01b03871684529091528120549091610562918590610612908690611e56565b61072e600080516020611eed833981519152336103c6565b6107a05760405162461bcd60e51b815260206004820152603960248201527f45524332305072657365744d696e7465725061757365723a206d75737420686160448201527f76652070617573657220726f6c6520746f20756e70617573650000000000000060648201526084016105fa565b6107a86110bd565b565b6107d47f9f2df0fed2c77648de5860a4cc508cd0818c85b8b8a1ab4ceeef8d981c8956a6336103c6565b61083f5760405162461bcd60e51b815260206004820152603660248201527f45524332305072657365744d696e7465725061757365723a206d7573742068616044820152751d99481b5a5b9d195c881c9bdb19481d1bc81b5a5b9d60521b60648201526084016105fa565b6106db8282611150565b610853338261123b565b50565b600054610100900460ff168061086f575060005460ff16155b61088b5760405162461bcd60e51b81526004016105fa90611e08565b600054610100900460ff161580156108b6576000805460ff1961ff0019909116610100171660011790555b6108c08383611396565b801561065c576000805461ff0019169055505050565b610191546001600160a01b031633146109315760405162461bcd60e51b815260206004820152601760248201527f4f6e6c79206c6f6e6753484f525420636f6e747261637400000000000000000060448201526064016105fa565b6106db828261123b565b60006109478333610483565b9050818110156109a55760405162461bcd60e51b8152602060048201526024808201527f45524332303a206275726e20616d6f756e74206578636565647320616c6c6f77604482015263616e636560e01b60648201526084016105fa565b6109b483336106128585611e6e565b61065c838361123b565b6109d6600080516020611eed833981519152336103c6565b610a485760405162461bcd60e51b815260206004820152603760248201527f45524332305072657365744d696e7465725061757365723a206d75737420686160448201527f76652070617573657220726f6c6520746f20706175736500000000000000000060648201526084016105fa565b6107a861143a565b600054610100900460ff1680610a69575060005460ff16155b610a855760405162461bcd60e51b81526004016105fa90611e08565b600054610100900460ff16158015610ab0576000805460ff1961ff0019909116610100171660011790555b610aba8585610856565b61019180546001600160a01b038086166001600160a01b0319928316179092556101928054928516929091169190911790558015610afe576000805461ff00191690555b5050505050565b6000828152606560205260408120610b1d90836114b5565b9392505050565b60009182526033602090815260408084206001600160a01b0393909316845291905290205460ff1690565b6060609b80546104d290611e85565b3360009081526098602090815260408083206001600160a01b038616845290915281205482811015610be05760405162461bcd60e51b815260206004820152602560248201527f45524332303a2064656372656173656420616c6c6f77616e63652062656c6f77604482015264207a65726f60d81b60648201526084016105fa565b610bef33856106128685611e6e565b5060019392505050565b61019254610c129033906001600160a01b031683610dde565b6101925460405163a7ba9fd760e01b8152336004820152602481018390526001600160a01b039091169063a7ba9fd790604401600060405180830381600087803b158015610c5f57600080fd5b505af1158015610afe573d6000803e3d6000fd5b6000610562338484610dde565b6000818152606560205260408120610566906114c1565b610ca182826114cb565b600082815260656020526040902061065c908261153c565b6001600160a01b038316610d1b5760405162461bcd60e51b8152602060048201526024808201527f45524332303a20617070726f76652066726f6d20746865207a65726f206164646044820152637265737360e01b60648201526084016105fa565b6001600160a01b038216610d7c5760405162461bcd60e51b815260206004820152602260248201527f45524332303a20617070726f766520746f20746865207a65726f206164647265604482015261737360f01b60648201526084016105fa565b6001600160a01b0383811660008181526098602090815260408083209487168084529482529182902085905590518481527f8c5be1e5ebec7d5bd14f71427d1e84f3dd0314c0f7b2291e5b200ac8c7c3b92591015b60405180910390a3505050565b6001600160a01b038316610e425760405162461bcd60e51b815260206004820152602560248201527f45524332303a207472616e736665722066726f6d20746865207a65726f206164604482015264647265737360d81b60648201526084016105fa565b6001600160a01b038216610ea45760405162461bcd60e51b815260206004820152602360248201527f45524332303a207472616e7366657220746f20746865207a65726f206164647260448201526265737360e81b60648201526084016105fa565b610eaf838383611551565b6001600160a01b03831660009081526097602052604090205481811015610f275760405162461bcd60e51b815260206004820152602660248201527f45524332303a207472616e7366657220616d6f756e7420657863656564732062604482015265616c616e636560d01b60648201526084016105fa565b610f318282611e6e565b6001600160a01b038086166000908152609760205260408082209390935590851681529081208054849290610f67908490611e56565b92505081905550826001600160a01b0316846001600160a01b03167fddf252ad1be2c89b69c2b068fc378daa952ba7f163c4a11628f55a4df523b3ef84604051610fb391815260200190565b60405180910390a350505050565b610fd3610fcd83610622565b336103c6565b6110375760405162461bcd60e51b815260206004820152602f60248201527f416363657373436f6e74726f6c3a2073656e646572206d75737420626520616e60448201526e0818591b5a5b881d1bc819dc985b9d608a1b60648201526084016105fa565b6106db828261155c565b6000610b1d836001600160a01b0384166115e2565b6110608282610b24565b156106db5760008281526033602090815260408083206001600160a01b0385168085529252808320805460ff1916905551339285917ff6391f5c32d9c69d2a47ea670b442974b53935d1edc7fd64eb21e047a839171b9190a45050565b60fb5460ff166111065760405162461bcd60e51b815260206004820152601460248201527314185d5cd8589b194e881b9bdd081c185d5cd95960621b60448201526064016105fa565b60fb805460ff191690557f5db9ee0a495bf2e6ff9c91a7834c1ba4fdd244a5e8aa4e537bd38aeae4b073aa335b6040516001600160a01b03909116815260200160405180910390a1565b6001600160a01b0382166111a65760405162461bcd60e51b815260206004820152601f60248201527f45524332303a206d696e7420746f20746865207a65726f20616464726573730060448201526064016105fa565b6111b260008383611551565b80609960008282546111c49190611e56565b90915550506001600160a01b038216600090815260976020526040812080548392906111f1908490611e56565b90915550506040518181526001600160a01b038316906000907fddf252ad1be2c89b69c2b068fc378daa952ba7f163c4a11628f55a4df523b3ef9060200160405180910390a35050565b6001600160a01b03821661129b5760405162461bcd60e51b815260206004820152602160248201527f45524332303a206275726e2066726f6d20746865207a65726f206164647265736044820152607360f81b60648201526084016105fa565b6112a782600083611551565b6001600160a01b0382166000908152609760205260409020548181101561131b5760405162461bcd60e51b815260206004820152602260248201527f45524332303a206275726e20616d6f756e7420657863656564732062616c616e604482015261636560f01b60648201526084016105fa565b6113258282611e6e565b6001600160a01b03841660009081526097602052604081209190915560998054849290611353908490611e6e565b90915550506040518281526000906001600160a01b038516907fddf252ad1be2c89b69c2b068fc378daa952ba7f163c4a11628f55a4df523b3ef90602001610dd1565b600054610100900460ff16806113af575060005460ff16155b6113cb5760405162461bcd60e51b81526004016105fa90611e08565b600054610100900460ff161580156113f6576000805460ff1961ff0019909116610100171660011790555b6113fe611631565b611406611631565b61140e611631565b61141883836116a5565b611420611631565b611428611743565b611430611631565b6108c083836117c1565b60fb5460ff16156114805760405162461bcd60e51b815260206004820152601060248201526f14185d5cd8589b194e881c185d5cd95960821b60448201526064016105fa565b60fb805460ff191660011790557f62e78cea01bee320cd4e420270b5ea74000d11b0c9f74754ebdbfc544b05a2586111333390565b6000610b1d838361186f565b6000610566825490565b6114d7610fcd83610622565b6106d15760405162461bcd60e51b815260206004820152603060248201527f416363657373436f6e74726f6c3a2073656e646572206d75737420626520616e60448201526f2061646d696e20746f207265766f6b6560801b60648201526084016105fa565b6000610b1d836001600160a01b038416611903565b61065c838383611a20565b6115668282610b24565b6106db5760008281526033602090815260408083206001600160a01b03851684529091529020805460ff1916600117905561159e3390565b6001600160a01b0316816001600160a01b0316837f2f8788117e7eff1d82e926ec794901d17c78024a50270940304540a733656f0d60405160405180910390a45050565b600081815260018301602052604081205461162957508154600181810184556000848152602080822090930184905584548482528286019093526040902091909155610566565b506000610566565b600054610100900460ff168061164a575060005460ff16155b6116665760405162461bcd60e51b81526004016105fa90611e08565b600054610100900460ff16158015611691576000805460ff1961ff0019909116610100171660011790555b8015610853576000805461ff001916905550565b600054610100900460ff16806116be575060005460ff16155b6116da5760405162461bcd60e51b81526004016105fa90611e08565b600054610100900460ff16158015611705576000805460ff1961ff0019909116610100171660011790555b825161171890609a906020860190611a90565b50815161172c90609b906020850190611a90565b50801561065c576000805461ff0019169055505050565b600054610100900460ff168061175c575060005460ff16155b6117785760405162461bcd60e51b81526004016105fa90611e08565b600054610100900460ff161580156117a3576000805460ff1961ff0019909116610100171660011790555b60fb805460ff191690558015610853576000805461ff001916905550565b600054610100900460ff16806117da575060005460ff16155b6117f65760405162461bcd60e51b81526004016105fa90611e08565b600054610100900460ff16158015611821576000805460ff1961ff0019909116610100171660011790555b61182d6000335b611a86565b6118577f9f2df0fed2c77648de5860a4cc508cd0818c85b8b8a1ab4ceeef8d981c8956a633611828565b6108c0600080516020611eed83398151915233611828565b815460009082106118cd5760405162461bcd60e51b815260206004820152602260248201527f456e756d657261626c655365743a20696e646578206f7574206f6620626f756e604482015261647360f01b60648201526084016105fa565b8260000182815481106118f057634e487b7160e01b600052603260045260246000fd5b9060005260206000200154905092915050565b60008181526001830160205260408120548015611a16576000611927600183611e6e565b855490915060009061193b90600190611e6e565b9050600086600001828154811061196257634e487b7160e01b600052603260045260246000fd5b906000526020600020015490508087600001848154811061199357634e487b7160e01b600052603260045260246000fd5b6000918252602090912001556119aa836001611e56565b600082815260018901602052604090205586548790806119da57634e487b7160e01b600052603160045260246000fd5b60019003818190600052602060002001600090559055866001016000878152602001908152602001600020600090556001945050505050610566565b6000915050610566565b60fb5460ff161561065c5760405162461bcd60e51b815260206004820152602a60248201527f45524332305061757361626c653a20746f6b656e207472616e736665722077686044820152691a5b19481c185d5cd95960b21b60648201526084016105fa565b6106448282611037565b828054611a9c90611e85565b90600052602060002090601f016020900481019282611abe5760008555611b04565b82601f10611ad757805160ff1916838001178555611b04565b82800160010185558215611b04579182015b82811115611b04578251825591602001919060010190611ae9565b50611b10929150611b14565b5090565b5b80821115611b105760008155600101611b15565b80356001600160a01b038116811461063557600080fd5b600082601f830112611b50578081fd5b813567ffffffffffffffff80821115611b6b57611b6b611ed6565b604051601f8301601f19908116603f01168101908282118183101715611b9357611b93611ed6565b81604052838152866020858801011115611bab578485fd5b8360208701602083013792830160200193909352509392505050565b600060208284031215611bd8578081fd5b610b1d82611b29565b60008060408385031215611bf3578081fd5b611bfc83611b29565b9150611c0a60208401611b29565b90509250929050565b600080600060608486031215611c27578081fd5b611c3084611b29565b9250611c3e60208501611b29565b9150604084013590509250925092565b60008060408385031215611c60578182fd5b611c6983611b29565b946020939093013593505050565b600060208284031215611c88578081fd5b5035919050565b60008060408385031215611ca1578182fd5b82359150611c0a60208401611b29565b60008060408385031215611cc3578182fd5b50508035926020909101359150565b60008060408385031215611ce4578182fd5b823567ffffffffffffffff80821115611cfb578384fd5b611d0786838701611b40565b93506020850135915080821115611d1c578283fd5b50611d2985828601611b40565b9150509250929050565b60008060008060808587031215611d48578081fd5b843567ffffffffffffffff80821115611d5f578283fd5b611d6b88838901611b40565b95506020870135915080821115611d80578283fd5b50611d8d87828801611b40565b935050611d9c60408601611b29565b9150611daa60608601611b29565b905092959194509250565b6000602080835283518082850152825b81811015611de157858101830151858201604001528201611dc5565b81811115611df25783604083870101525b50601f01601f1916929092016040019392505050565b6020808252602e908201527f496e697469616c697a61626c653a20636f6e747261637420697320616c72656160408201526d191e481a5b9a5d1a585b1a5e995960921b606082015260800190565b60008219821115611e6957611e69611ec0565b500190565b600082821015611e8057611e80611ec0565b500390565b600281046001821680611e9957607f821691505b60208210811415611eba57634e487b7160e01b600052602260045260246000fd5b50919050565b634e487b7160e01b600052601160045260246000fd5b634e487b7160e01b600052604160045260246000fdfe65d7a28e3265b37a6474929f336521b332c1681b933f6cb9f3376673440d862aa26469706673582212208f119ce4a3f74e6c541cf035478c799245b86f671b52ca9d913d1fdf34493be164736f6c63430008020033a264697066735822122037fd255a2fcc4d4bccc0f091b431f6d4d0fd5ca34949108279c45ca09f2110fb64736f6c63430008020033",
  "immutableReferences": {},
  "source": "// SPDX-License-Identifier: MIT\n\npragma solidity 0.8.2;\n\nimport \"@openzeppelin/contracts-upgradeable/utils/Initializable.sol\";\n\nimport \"./SyntheticToken.sol\";\n\ncontract TokenFactory is Initializable {\n    ////////////////////////////////////\n    /////////////// STATE //////////////\n    ////////////////////////////////////\n\n    address public admin;\n    address public floatContract;\n\n    bytes32 public constant DEFAULT_ADMIN_ROLE =\n        keccak256(\"DEFAULT_ADMIN_ROLE\");\n    bytes32 public constant MINTER_ROLE = keccak256(\"MINTER_ROLE\");\n    bytes32 public constant PAUSER_ROLE = keccak256(\"PAUSER_ROLE\");\n\n    ////////////////////////////////////\n    /////////// MODIFIERS //////////////\n    ////////////////////////////////////\n\n    modifier adminOnly() {\n        require(msg.sender == admin);\n        _;\n    }\n\n    modifier onlyFLOAT() {\n        require(msg.sender == floatContract);\n        _;\n    }\n\n    ////////////////////////////////////\n    //////////// SET-UP ////////////////\n    ////////////////////////////////////\n\n    function setup(address _admin, address _floatContract) public initializer {\n        admin = _admin;\n        floatContract = _floatContract;\n    }\n\n    ////////////////////////////////////\n    /// MULTISIG ADMIN FUNCTIONS ///////\n    ////////////////////////////////////\n\n    function changeAdmin(address _admin) external adminOnly {\n        admin = _admin;\n    }\n\n    function changeFloatAddress(address _floatContract) external adminOnly {\n        floatContract = _floatContract;\n    }\n\n    ////////////////////////////////////\n    ///////// TOKEN CREATION ///////////\n    ////////////////////////////////////\n\n    function setupPermissions(SyntheticToken tokenContract) internal {\n        // Give minter roles\n        tokenContract.grantRole(DEFAULT_ADMIN_ROLE, floatContract);\n        tokenContract.grantRole(MINTER_ROLE, floatContract);\n        tokenContract.grantRole(PAUSER_ROLE, floatContract);\n\n        // Revoke roles\n        tokenContract.revokeRole(DEFAULT_ADMIN_ROLE, address(this));\n        tokenContract.revokeRole(MINTER_ROLE, address(this));\n        tokenContract.revokeRole(PAUSER_ROLE, address(this));\n    }\n\n    function createTokenLong(\n        string calldata syntheticName,\n        string calldata syntheticSymbol,\n        address staker\n    ) external onlyFLOAT returns (SyntheticToken) {\n        SyntheticToken tokenContract;\n        tokenContract = new SyntheticToken();\n        tokenContract.initialize(\n            string(abi.encodePacked(\"FLOAT UP\", syntheticName)),\n            string(abi.encodePacked(\"fu\", syntheticSymbol)),\n            floatContract,\n            staker\n        );\n        setupPermissions(tokenContract);\n        return tokenContract;\n    }\n\n    function createTokenShort(\n        string calldata syntheticName,\n        string calldata syntheticSymbol,\n        address staker\n    ) external onlyFLOAT returns (SyntheticToken) {\n        SyntheticToken tokenContract;\n        tokenContract = new SyntheticToken();\n        tokenContract.initialize(\n            string(abi.encodePacked(\"FLOAT DOWN \", syntheticName)),\n            string(abi.encodePacked(\"fd\", syntheticSymbol)),\n            floatContract,\n            staker\n        );\n\n        setupPermissions(tokenContract);\n        return tokenContract;\n    }\n}\n",
  "sourcePath": "/Users/johanthan/Code/avolabs/longshort/contracts/contracts/TokenFactory.sol",
  "compiler": {
    "name": "solc",
    "version": "0.8.2+commit.661d1103.Emscripten.clang"
  },
  "schemaVersion": "3.3.4",
  "updatedAt": "2021-03-11T12:33:46.876Z",
  "networkType": "ethereum",
  "devdoc": {
    "kind": "dev",
    "methods": {},
    "version": 1
  },
  "userdoc": {
    "kind": "user",
    "methods": {
      "changeAdmin(address)": {
        "notice": "MULTISIG ADMIN FUNCTIONS ///////"
      }
    },
    "version": 1
  }
}