{
  "address": "0xB9768349a377e8C2f4a58f34D1ba364FA778D7d6",
  "abi": [
    {
      "anonymous": false,
      "inputs": [
        {
          "indexed": false,
          "internalType": "address",
          "name": "previousAdmin",
          "type": "address"
        },
        {
          "indexed": false,
          "internalType": "address",
          "name": "newAdmin",
          "type": "address"
        }
      ],
      "name": "AdminChanged",
      "type": "event"
    },
    {
      "anonymous": false,
      "inputs": [
        {
          "indexed": true,
          "internalType": "address",
          "name": "beacon",
          "type": "address"
        }
      ],
      "name": "BeaconUpgraded",
      "type": "event"
    },
    {
      "anonymous": false,
      "inputs": [
        {
          "indexed": false,
          "internalType": "address",
          "name": "user",
          "type": "address"
        },
        {
          "indexed": false,
          "internalType": "uint32",
          "name": "marketIndex",
          "type": "uint32"
        }
      ],
      "name": "ExecuteNextPriceSettlementsUser",
      "type": "event"
    },
    {
      "anonymous": false,
      "inputs": [
        {
          "indexed": false,
          "internalType": "address",
          "name": "admin",
          "type": "address"
        },
        {
          "indexed": false,
          "internalType": "address",
          "name": "tokenFactory",
          "type": "address"
        },
        {
          "indexed": false,
          "internalType": "address",
          "name": "staker",
          "type": "address"
        }
      ],
      "name": "LongShortV1",
      "type": "event"
    },
    {
      "anonymous": false,
      "inputs": [
        {
          "indexed": false,
          "internalType": "uint32",
          "name": "marketIndex",
          "type": "uint32"
        },
        {
          "indexed": false,
          "internalType": "uint256",
          "name": "initialSeed",
          "type": "uint256"
        }
      ],
      "name": "NewMarketLaunchedAndSeeded",
      "type": "event"
    },
    {
      "anonymous": false,
      "inputs": [
        {
          "indexed": false,
          "internalType": "uint32",
          "name": "marketIndex",
          "type": "uint32"
        },
        {
          "indexed": false,
          "internalType": "bool",
          "name": "isLong",
          "type": "bool"
        },
        {
          "indexed": false,
          "internalType": "uint256",
          "name": "depositAdded",
          "type": "uint256"
        },
        {
          "indexed": false,
          "internalType": "address",
          "name": "user",
          "type": "address"
        },
        {
          "indexed": false,
          "internalType": "uint256",
          "name": "oracleUpdateIndex",
          "type": "uint256"
        }
      ],
      "name": "NextPriceDeposit",
      "type": "event"
    },
    {
      "anonymous": false,
      "inputs": [
        {
          "indexed": false,
          "internalType": "uint32",
          "name": "marketIndex",
          "type": "uint32"
        },
        {
          "indexed": false,
          "internalType": "bool",
          "name": "isLong",
          "type": "bool"
        },
        {
          "indexed": false,
          "internalType": "uint256",
          "name": "synthRedeemed",
          "type": "uint256"
        },
        {
          "indexed": false,
          "internalType": "address",
          "name": "user",
          "type": "address"
        },
        {
          "indexed": false,
          "internalType": "uint256",
          "name": "oracleUpdateIndex",
          "type": "uint256"
        }
      ],
      "name": "NextPriceRedeem",
      "type": "event"
    },
    {
      "anonymous": false,
      "inputs": [
        {
          "indexed": false,
          "internalType": "uint32",
          "name": "marketIndex",
          "type": "uint32"
        },
        {
          "indexed": false,
          "internalType": "bool",
          "name": "isShiftFromLong",
          "type": "bool"
        },
        {
          "indexed": false,
          "internalType": "uint256",
          "name": "synthShifted",
          "type": "uint256"
        },
        {
          "indexed": false,
          "internalType": "address",
          "name": "user",
          "type": "address"
        },
        {
          "indexed": false,
          "internalType": "uint256",
          "name": "oracleUpdateIndex",
          "type": "uint256"
        }
      ],
      "name": "NextPriceSyntheticPositionShift",
      "type": "event"
    },
    {
      "anonymous": false,
      "inputs": [
        {
          "indexed": false,
          "internalType": "uint32",
          "name": "marketIndex",
          "type": "uint32"
        },
        {
          "indexed": false,
          "internalType": "address",
          "name": "oldOracleAddress",
          "type": "address"
        },
        {
          "indexed": false,
          "internalType": "address",
          "name": "newOracleAddress",
          "type": "address"
        }
      ],
      "name": "OracleUpdated",
      "type": "event"
    },
    {
      "anonymous": false,
      "inputs": [
        {
          "indexed": true,
          "internalType": "bytes32",
          "name": "role",
          "type": "bytes32"
        },
        {
          "indexed": true,
          "internalType": "bytes32",
          "name": "previousAdminRole",
          "type": "bytes32"
        },
        {
          "indexed": true,
          "internalType": "bytes32",
          "name": "newAdminRole",
          "type": "bytes32"
        }
      ],
      "name": "RoleAdminChanged",
      "type": "event"
    },
    {
      "anonymous": false,
      "inputs": [
        {
          "indexed": true,
          "internalType": "bytes32",
          "name": "role",
          "type": "bytes32"
        },
        {
          "indexed": true,
          "internalType": "address",
          "name": "account",
          "type": "address"
        },
        {
          "indexed": true,
          "internalType": "address",
          "name": "sender",
          "type": "address"
        }
      ],
      "name": "RoleGranted",
      "type": "event"
    },
    {
      "anonymous": false,
      "inputs": [
        {
          "indexed": true,
          "internalType": "bytes32",
          "name": "role",
          "type": "bytes32"
        },
        {
          "indexed": true,
          "internalType": "address",
          "name": "account",
          "type": "address"
        },
        {
          "indexed": true,
          "internalType": "address",
          "name": "sender",
          "type": "address"
        }
      ],
      "name": "RoleRevoked",
      "type": "event"
    },
    {
      "anonymous": false,
      "inputs": [
        {
          "indexed": false,
          "internalType": "uint32",
          "name": "marketIndex",
          "type": "uint32"
        },
        {
          "indexed": false,
          "internalType": "address",
          "name": "longTokenAddress",
          "type": "address"
        },
        {
          "indexed": false,
          "internalType": "address",
          "name": "shortTokenAddress",
          "type": "address"
        },
        {
          "indexed": false,
          "internalType": "address",
          "name": "paymentToken",
          "type": "address"
        },
        {
          "indexed": false,
          "internalType": "int256",
          "name": "initialAssetPrice",
          "type": "int256"
        },
        {
          "indexed": false,
          "internalType": "string",
          "name": "name",
          "type": "string"
        },
        {
          "indexed": false,
          "internalType": "string",
          "name": "symbol",
          "type": "string"
        },
        {
          "indexed": false,
          "internalType": "address",
          "name": "oracleAddress",
          "type": "address"
        },
        {
          "indexed": false,
          "internalType": "address",
          "name": "yieldManagerAddress",
          "type": "address"
        }
      ],
      "name": "SyntheticMarketCreated",
      "type": "event"
    },
    {
      "anonymous": false,
      "inputs": [
        {
          "indexed": false,
          "internalType": "uint32",
          "name": "marketIndex",
          "type": "uint32"
        },
        {
          "indexed": false,
          "internalType": "uint256",
          "name": "updateIndex",
          "type": "uint256"
        },
        {
          "indexed": false,
          "internalType": "int256",
          "name": "underlyingAssetPrice",
          "type": "int256"
        },
        {
          "indexed": false,
          "internalType": "uint256",
          "name": "longValue",
          "type": "uint256"
        },
        {
          "indexed": false,
          "internalType": "uint256",
          "name": "shortValue",
          "type": "uint256"
        },
        {
          "indexed": false,
          "internalType": "uint256",
          "name": "longPrice",
          "type": "uint256"
        },
        {
          "indexed": false,
          "internalType": "uint256",
          "name": "shortPrice",
          "type": "uint256"
        }
      ],
      "name": "SystemStateUpdated",
      "type": "event"
    },
    {
      "anonymous": false,
      "inputs": [
        {
          "indexed": true,
          "internalType": "address",
          "name": "implementation",
          "type": "address"
        }
      ],
      "name": "Upgraded",
      "type": "event"
    },
    {
      "inputs": [],
      "name": "ADMIN_ROLE",
      "outputs": [
        {
          "internalType": "bytes32",
          "name": "",
          "type": "bytes32"
        }
      ],
      "stateMutability": "view",
      "type": "function"
    },
    {
      "inputs": [],
      "name": "DEFAULT_ADMIN_ROLE",
      "outputs": [
        {
          "internalType": "bytes32",
          "name": "",
          "type": "bytes32"
        }
      ],
      "stateMutability": "view",
      "type": "function"
    },
    {
      "inputs": [],
      "name": "PERMANENT_INITIAL_LIQUIDITY_HOLDER",
      "outputs": [
        {
          "internalType": "address",
          "name": "",
          "type": "address"
        }
      ],
      "stateMutability": "view",
      "type": "function"
    },
    {
      "inputs": [],
      "name": "UPGRADER_ROLE",
      "outputs": [
        {
          "internalType": "bytes32",
          "name": "",
          "type": "bytes32"
        }
      ],
      "stateMutability": "view",
      "type": "function"
    },
    {
      "inputs": [
        {
          "internalType": "uint32",
          "name": "",
          "type": "uint32"
        }
      ],
      "name": "assetPrice",
      "outputs": [
        {
          "internalType": "int256",
          "name": "",
          "type": "int256"
        }
      ],
      "stateMutability": "view",
      "type": "function"
    },
    {
      "inputs": [
        {
          "internalType": "uint32",
          "name": "",
          "type": "uint32"
        },
        {
          "internalType": "bool",
          "name": "",
          "type": "bool"
        }
      ],
      "name": "batched_amountPaymentToken_deposit",
      "outputs": [
        {
          "internalType": "uint256",
          "name": "",
          "type": "uint256"
        }
      ],
      "stateMutability": "view",
      "type": "function"
    },
    {
      "inputs": [
        {
          "internalType": "uint32",
          "name": "",
          "type": "uint32"
        },
        {
          "internalType": "bool",
          "name": "",
          "type": "bool"
        }
      ],
      "name": "batched_amountSyntheticToken_redeem",
      "outputs": [
        {
          "internalType": "uint256",
          "name": "",
          "type": "uint256"
        }
      ],
      "stateMutability": "view",
      "type": "function"
    },
    {
      "inputs": [
        {
          "internalType": "uint32",
          "name": "",
          "type": "uint32"
        },
        {
          "internalType": "bool",
          "name": "",
          "type": "bool"
        }
      ],
      "name": "batched_amountSyntheticToken_toShiftAwayFrom_marketSide",
      "outputs": [
        {
          "internalType": "uint256",
          "name": "",
          "type": "uint256"
        }
      ],
      "stateMutability": "view",
      "type": "function"
    },
    {
      "inputs": [
        {
          "internalType": "uint32",
          "name": "marketIndex",
          "type": "uint32"
        },
        {
          "internalType": "uint256",
          "name": "_marketTreasurySplitGradient_e18",
          "type": "uint256"
        }
      ],
      "name": "changeMarketTreasurySplitGradient",
      "outputs": [],
      "stateMutability": "nonpayable",
      "type": "function"
    },
    {
      "inputs": [
        {
          "internalType": "string",
          "name": "syntheticName",
          "type": "string"
        },
        {
          "internalType": "string",
          "name": "syntheticSymbol",
          "type": "string"
        },
        {
          "internalType": "address",
          "name": "_paymentToken",
          "type": "address"
        },
        {
          "internalType": "address",
          "name": "_oracleManager",
          "type": "address"
        },
        {
          "internalType": "address",
          "name": "_yieldManager",
          "type": "address"
        }
      ],
      "name": "createNewSyntheticMarket",
      "outputs": [],
      "stateMutability": "nonpayable",
      "type": "function"
    },
    {
      "inputs": [
        {
          "internalType": "string",
          "name": "syntheticName",
          "type": "string"
        },
        {
          "internalType": "string",
          "name": "syntheticSymbol",
          "type": "string"
        },
        {
          "internalType": "address",
          "name": "_longToken",
          "type": "address"
        },
        {
          "internalType": "address",
          "name": "_shortToken",
          "type": "address"
        },
        {
          "internalType": "address",
          "name": "_paymentToken",
          "type": "address"
        },
        {
          "internalType": "address",
          "name": "_oracleManager",
          "type": "address"
        },
        {
          "internalType": "address",
          "name": "_yieldManager",
          "type": "address"
        }
      ],
      "name": "createNewSyntheticMarketExternalSyntheticTokens",
      "outputs": [],
      "stateMutability": "nonpayable",
      "type": "function"
    },
    {
      "inputs": [
        {
          "internalType": "address",
          "name": "user",
          "type": "address"
        },
        {
          "internalType": "uint32",
          "name": "marketIndex",
          "type": "uint32"
        }
      ],
      "name": "executeOutstandingNextPriceSettlementsUser",
      "outputs": [],
      "stateMutability": "nonpayable",
      "type": "function"
    },
    {
      "inputs": [
        {
          "internalType": "address",
          "name": "user",
          "type": "address"
        },
        {
          "internalType": "uint32[]",
          "name": "marketIndexes",
          "type": "uint32[]"
        }
      ],
      "name": "executeOutstandingNextPriceSettlementsUserMulti",
      "outputs": [],
      "stateMutability": "nonpayable",
      "type": "function"
    },
    {
      "inputs": [
        {
          "internalType": "uint32",
          "name": "marketIndex",
          "type": "uint32"
        },
        {
          "internalType": "uint256",
          "name": "amountSyntheticToken_redeemOnOriginSide",
          "type": "uint256"
        },
        {
          "internalType": "bool",
          "name": "isShiftFromLong",
          "type": "bool"
        },
        {
          "internalType": "uint256",
          "name": "priceSnapshotIndex",
          "type": "uint256"
        }
      ],
      "name": "getAmountSyntheticTokenToMintOnTargetSide",
      "outputs": [
        {
          "internalType": "uint256",
          "name": "amountSyntheticTokensToMintOnTargetSide",
          "type": "uint256"
        }
      ],
      "stateMutability": "view",
      "type": "function"
    },
    {
      "inputs": [
        {
          "internalType": "bytes32",
          "name": "role",
          "type": "bytes32"
        }
      ],
      "name": "getRoleAdmin",
      "outputs": [
        {
          "internalType": "bytes32",
          "name": "",
          "type": "bytes32"
        }
      ],
      "stateMutability": "view",
      "type": "function"
    },
    {
      "inputs": [
        {
          "internalType": "address",
          "name": "user",
          "type": "address"
        },
        {
          "internalType": "uint32",
          "name": "marketIndex",
          "type": "uint32"
        },
        {
          "internalType": "bool",
          "name": "isLong",
          "type": "bool"
        }
      ],
      "name": "getUsersConfirmedButNotSettledSynthBalance",
      "outputs": [
        {
          "internalType": "uint256",
          "name": "confirmedButNotSettledBalance",
          "type": "uint256"
        }
      ],
      "stateMutability": "view",
      "type": "function"
    },
    {
      "inputs": [
        {
          "internalType": "bytes32",
          "name": "role",
          "type": "bytes32"
        },
        {
          "internalType": "address",
          "name": "account",
          "type": "address"
        }
      ],
      "name": "grantRole",
      "outputs": [],
      "stateMutability": "nonpayable",
      "type": "function"
    },
    {
      "inputs": [
        {
          "internalType": "bytes32",
          "name": "role",
          "type": "bytes32"
        },
        {
          "internalType": "address",
          "name": "account",
          "type": "address"
        }
      ],
      "name": "hasRole",
      "outputs": [
        {
          "internalType": "bool",
          "name": "",
          "type": "bool"
        }
      ],
      "stateMutability": "view",
      "type": "function"
    },
    {
      "inputs": [
        {
          "internalType": "address",
          "name": "_admin",
          "type": "address"
        },
        {
          "internalType": "address",
          "name": "_tokenFactory",
          "type": "address"
        },
        {
          "internalType": "address",
          "name": "_staker",
          "type": "address"
        }
      ],
      "name": "initialize",
      "outputs": [],
      "stateMutability": "nonpayable",
      "type": "function"
    },
    {
      "inputs": [
        {
          "internalType": "uint32",
          "name": "marketIndex",
          "type": "uint32"
        },
        {
          "internalType": "uint256",
          "name": "kInitialMultiplier",
          "type": "uint256"
        },
        {
          "internalType": "uint256",
          "name": "kPeriod",
          "type": "uint256"
        },
        {
          "internalType": "uint256",
          "name": "unstakeFee_e18",
          "type": "uint256"
        },
        {
          "internalType": "uint256",
          "name": "initialMarketSeedForEachMarketSide",
          "type": "uint256"
        },
        {
          "internalType": "uint256",
          "name": "balanceIncentiveCurve_exponent",
          "type": "uint256"
        },
        {
          "internalType": "int256",
          "name": "balanceIncentiveCurve_equilibriumOffset",
          "type": "int256"
        },
        {
          "internalType": "uint256",
          "name": "_marketTreasurySplitGradient_e18",
          "type": "uint256"
        }
      ],
      "name": "initializeMarket",
      "outputs": [],
      "stateMutability": "nonpayable",
      "type": "function"
    },
    {
      "inputs": [],
      "name": "latestMarket",
      "outputs": [
        {
          "internalType": "uint32",
          "name": "",
          "type": "uint32"
        }
      ],
      "stateMutability": "view",
      "type": "function"
    },
    {
      "inputs": [
        {
          "internalType": "uint32",
          "name": "",
          "type": "uint32"
        }
      ],
      "name": "marketExists",
      "outputs": [
        {
          "internalType": "bool",
          "name": "",
          "type": "bool"
        }
      ],
      "stateMutability": "view",
      "type": "function"
    },
    {
      "inputs": [
        {
          "internalType": "uint32",
          "name": "",
          "type": "uint32"
        },
        {
          "internalType": "bool",
          "name": "",
          "type": "bool"
        }
      ],
      "name": "marketSideValueInPaymentToken",
      "outputs": [
        {
          "internalType": "uint256",
          "name": "",
          "type": "uint256"
        }
      ],
      "stateMutability": "view",
      "type": "function"
    },
    {
      "inputs": [
        {
          "internalType": "uint32",
          "name": "",
          "type": "uint32"
        }
      ],
      "name": "marketTreasurySplitGradient_e18",
      "outputs": [
        {
          "internalType": "uint256",
          "name": "",
          "type": "uint256"
        }
      ],
      "stateMutability": "view",
      "type": "function"
    },
    {
      "inputs": [
        {
          "internalType": "uint32",
          "name": "",
          "type": "uint32"
        }
      ],
      "name": "marketUpdateIndex",
      "outputs": [
        {
          "internalType": "uint256",
          "name": "",
          "type": "uint256"
        }
      ],
      "stateMutability": "view",
      "type": "function"
    },
    {
      "inputs": [
        {
          "internalType": "uint32",
          "name": "marketIndex",
          "type": "uint32"
        },
        {
          "internalType": "uint256",
          "name": "amount",
          "type": "uint256"
        }
      ],
      "name": "mintLongNextPrice",
      "outputs": [],
      "stateMutability": "nonpayable",
      "type": "function"
    },
    {
      "inputs": [
        {
          "internalType": "uint32",
          "name": "marketIndex",
          "type": "uint32"
        },
        {
          "internalType": "uint256",
          "name": "amount",
          "type": "uint256"
        }
      ],
      "name": "mintShortNextPrice",
      "outputs": [],
      "stateMutability": "nonpayable",
      "type": "function"
    },
    {
      "inputs": [
        {
          "internalType": "uint32",
          "name": "",
          "type": "uint32"
        }
      ],
      "name": "oracleManagers",
      "outputs": [
        {
          "internalType": "address",
          "name": "",
          "type": "address"
        }
      ],
      "stateMutability": "view",
      "type": "function"
    },
    {
      "inputs": [
        {
          "internalType": "uint32",
          "name": "",
          "type": "uint32"
        }
      ],
      "name": "paymentTokens",
      "outputs": [
        {
          "internalType": "address",
          "name": "",
          "type": "address"
        }
      ],
      "stateMutability": "view",
      "type": "function"
    },
    {
      "inputs": [
        {
          "internalType": "uint32",
          "name": "marketIndex",
          "type": "uint32"
        },
        {
          "internalType": "uint256",
          "name": "tokens_redeem",
          "type": "uint256"
        }
      ],
      "name": "redeemLongNextPrice",
      "outputs": [],
      "stateMutability": "nonpayable",
      "type": "function"
    },
    {
      "inputs": [
        {
          "internalType": "uint32",
          "name": "marketIndex",
          "type": "uint32"
        },
        {
          "internalType": "uint256",
          "name": "tokens_redeem",
          "type": "uint256"
        }
      ],
      "name": "redeemShortNextPrice",
      "outputs": [],
      "stateMutability": "nonpayable",
      "type": "function"
    },
    {
      "inputs": [
        {
          "internalType": "bytes32",
          "name": "role",
          "type": "bytes32"
        },
        {
          "internalType": "address",
          "name": "account",
          "type": "address"
        }
      ],
      "name": "renounceRole",
      "outputs": [],
      "stateMutability": "nonpayable",
      "type": "function"
    },
    {
      "inputs": [
        {
          "internalType": "bytes32",
          "name": "role",
          "type": "bytes32"
        },
        {
          "internalType": "address",
          "name": "account",
          "type": "address"
        }
      ],
      "name": "revokeRole",
      "outputs": [],
      "stateMutability": "nonpayable",
      "type": "function"
    },
    {
      "inputs": [
        {
          "internalType": "uint32",
          "name": "marketIndex",
          "type": "uint32"
        },
        {
          "internalType": "uint256",
          "name": "amountSyntheticTokensToShift",
          "type": "uint256"
        }
      ],
      "name": "shiftPositionFromLongNextPrice",
      "outputs": [],
      "stateMutability": "nonpayable",
      "type": "function"
    },
    {
      "inputs": [
        {
          "internalType": "uint32",
          "name": "marketIndex",
          "type": "uint32"
        },
        {
          "internalType": "uint256",
          "name": "amountSyntheticTokensToShift",
          "type": "uint256"
        }
      ],
      "name": "shiftPositionFromShortNextPrice",
      "outputs": [],
      "stateMutability": "nonpayable",
      "type": "function"
    },
    {
      "inputs": [
        {
          "internalType": "uint32",
          "name": "marketIndex",
          "type": "uint32"
        },
        {
          "internalType": "uint256",
          "name": "amountSyntheticTokensToShift",
          "type": "uint256"
        },
        {
          "internalType": "bool",
          "name": "isShiftFromLong",
          "type": "bool"
        }
      ],
      "name": "shiftPositionNextPrice",
      "outputs": [],
      "stateMutability": "nonpayable",
      "type": "function"
    },
    {
      "inputs": [],
      "name": "staker",
      "outputs": [
        {
          "internalType": "address",
          "name": "",
          "type": "address"
        }
      ],
      "stateMutability": "view",
      "type": "function"
    },
    {
      "inputs": [
        {
          "internalType": "bytes4",
          "name": "interfaceId",
          "type": "bytes4"
        }
      ],
      "name": "supportsInterface",
      "outputs": [
        {
          "internalType": "bool",
          "name": "",
          "type": "bool"
        }
      ],
      "stateMutability": "view",
      "type": "function"
    },
    {
      "inputs": [
        {
          "internalType": "uint32",
          "name": "",
          "type": "uint32"
        },
        {
          "internalType": "bool",
          "name": "",
          "type": "bool"
        },
        {
          "internalType": "uint256",
          "name": "",
          "type": "uint256"
        }
      ],
      "name": "syntheticToken_priceSnapshot",
      "outputs": [
        {
          "internalType": "uint256",
          "name": "",
          "type": "uint256"
        }
      ],
      "stateMutability": "view",
      "type": "function"
    },
    {
      "inputs": [
        {
          "internalType": "uint32",
          "name": "",
          "type": "uint32"
        },
        {
          "internalType": "bool",
          "name": "",
          "type": "bool"
        }
      ],
      "name": "syntheticTokens",
      "outputs": [
        {
          "internalType": "address",
          "name": "",
          "type": "address"
        }
      ],
      "stateMutability": "view",
      "type": "function"
    },
    {
      "inputs": [],
      "name": "tokenFactory",
      "outputs": [
        {
          "internalType": "address",
          "name": "",
          "type": "address"
        }
      ],
      "stateMutability": "view",
      "type": "function"
    },
    {
      "inputs": [
        {
          "internalType": "uint32",
          "name": "marketIndex",
          "type": "uint32"
        },
        {
          "internalType": "address",
          "name": "_newOracleManager",
          "type": "address"
        }
      ],
      "name": "updateMarketOracle",
      "outputs": [],
      "stateMutability": "nonpayable",
      "type": "function"
    },
    {
      "inputs": [
        {
          "internalType": "uint32",
          "name": "marketIndex",
          "type": "uint32"
        }
      ],
      "name": "updateSystemState",
      "outputs": [],
      "stateMutability": "nonpayable",
      "type": "function"
    },
    {
      "inputs": [
        {
          "internalType": "uint32[]",
          "name": "marketIndexes",
          "type": "uint32[]"
        }
      ],
      "name": "updateSystemStateMulti",
      "outputs": [],
      "stateMutability": "nonpayable",
      "type": "function"
    },
    {
      "inputs": [
        {
          "internalType": "address",
          "name": "newImplementation",
          "type": "address"
        }
      ],
      "name": "upgradeTo",
      "outputs": [],
      "stateMutability": "nonpayable",
      "type": "function"
    },
    {
      "inputs": [
        {
          "internalType": "address",
          "name": "newImplementation",
          "type": "address"
        },
        {
          "internalType": "bytes",
          "name": "data",
          "type": "bytes"
        }
      ],
      "name": "upgradeToAndCall",
      "outputs": [],
      "stateMutability": "payable",
      "type": "function"
    },
    {
      "inputs": [
        {
          "internalType": "uint32",
          "name": "",
          "type": "uint32"
        },
        {
          "internalType": "address",
          "name": "",
          "type": "address"
        }
      ],
      "name": "userNextPrice_currentUpdateIndex",
      "outputs": [
        {
          "internalType": "uint256",
          "name": "",
          "type": "uint256"
        }
      ],
      "stateMutability": "view",
      "type": "function"
    },
    {
      "inputs": [
        {
          "internalType": "uint32",
          "name": "",
          "type": "uint32"
        },
        {
          "internalType": "bool",
          "name": "",
          "type": "bool"
        },
        {
          "internalType": "address",
          "name": "",
          "type": "address"
        }
      ],
      "name": "userNextPrice_paymentToken_depositAmount",
      "outputs": [
        {
          "internalType": "uint256",
          "name": "",
          "type": "uint256"
        }
      ],
      "stateMutability": "view",
      "type": "function"
    },
    {
      "inputs": [
        {
          "internalType": "uint32",
          "name": "",
          "type": "uint32"
        },
        {
          "internalType": "bool",
          "name": "",
          "type": "bool"
        },
        {
          "internalType": "address",
          "name": "",
          "type": "address"
        }
      ],
      "name": "userNextPrice_syntheticToken_redeemAmount",
      "outputs": [
        {
          "internalType": "uint256",
          "name": "",
          "type": "uint256"
        }
      ],
      "stateMutability": "view",
      "type": "function"
    },
    {
      "inputs": [
        {
          "internalType": "uint32",
          "name": "",
          "type": "uint32"
        },
        {
          "internalType": "bool",
          "name": "",
          "type": "bool"
        },
        {
          "internalType": "address",
          "name": "",
          "type": "address"
        }
      ],
      "name": "userNextPrice_syntheticToken_toShiftAwayFrom_marketSide",
      "outputs": [
        {
          "internalType": "uint256",
          "name": "",
          "type": "uint256"
        }
      ],
      "stateMutability": "view",
      "type": "function"
    },
    {
      "inputs": [
        {
          "internalType": "uint32",
          "name": "",
          "type": "uint32"
        }
      ],
      "name": "yieldManagers",
      "outputs": [
        {
          "internalType": "address",
          "name": "",
          "type": "address"
        }
      ],
      "stateMutability": "view",
      "type": "function"
    }
  ],
  "transactionHash": "0xf512c5096b31a43742d1e947c6de8a46e205d7db3dba1b10d77121cb2a383408",
  "args": [],
  "solcInputHash": "2f15f67ddf07afedb38acb0f53022f67",
  "bytecode": "0x608060405234801561001057600080fd5b50614be8806100206000396000f3fe6080604052600436106102e45760003560e01c8063867dfc6d11610190578063c0c53b8b116100dc578063e6b604e011610095578063f41cb1951161006f578063f41cb19514610a6e578063f68a327f14610aa5578063f72c0d8b14610ac5578063f80c9b9214610af9576102e4565b8063e6b604e014610a0d578063e77772fe14610a2d578063eeb0235214610a4e576102e4565b8063c0c53b8b1461092e578063c2b800721461094e578063c2e124711461098d578063d547741f146109ad578063d88905c9146109cd578063da04ce14146109ed576102e4565b80639c5b0ee311610149578063b054c4a111610123578063b054c4a11461085a578063b36f53741461089c578063b3c7e218146108cd578063bb0a452914610906576102e4565b80639c5b0ee3146107ea5780639dc39e0f14610821578063a217fddf146106e7576102e4565b8063867dfc6d1461071c5780638900bdfa1461073c578063897a07861461076a57806391a9fa611461078a57806391d14854146107aa57806392f6fe80146107ca576102e4565b80633d6a2b3f1161024f57806364e4a81d116102085780636f486c5b116101e25780636f486c5b1461068857806371fd9623146106c757806375b238fc146106e75780637a0e94f0146106fc576102e4565b806364e4a81d1461060f578063682ad286146106485780636c8d2b9714610668576102e4565b80633d6a2b3f14610540578063414ffd50146105605780634f1ef286146105805780635ebaf1db14610593578063636190c8146105bc57806364d16f53146105ef576102e4565b8063248a9ca3116102a1578063248a9ca3146104385780632f2ff15d14610468578063348986841461048857806334daaa25146104c757806336568abe146105005780633659cfe614610520576102e4565b806301ffc9a7146102e957806305c8146f1461031e5780630e5140dc1461034057806314c88ffa1461038d5780631badf5c0146103bb57806321658e481461040a575b600080fd5b3480156102f557600080fd5b5061030961030436600461425f565b610b32565b60405190151581526020015b60405180910390f35b34801561032a57600080fd5b5061033e61033936600461440f565b610b6b565b005b34801561034c57600080fd5b5061037f61035b36600461447f565b61016760209081526000938452604080852082529284528284209052825290205481565b604051908152602001610315565b34801561039957600080fd5b5061037f6103a836600461440f565b6101596020526000908152604090205481565b3480156103c757600080fd5b506103f26103d636600461440f565b61015c602052600090815260409020546001600160a01b031681565b6040516001600160a01b039091168152602001610315565b34801561041657600080fd5b5061037f61042536600461440f565b61015d6020526000908152604090205481565b34801561044457600080fd5b5061037f610453366004614218565b60009081526065602052604090206001015490565b34801561047457600080fd5b5061033e610483366004614230565b610b77565b34801561049457600080fd5b5061037f6104a336600461447f565b61016660209081526000938452604080852082529284528284209052825290205481565b3480156104d357600080fd5b5061037f6104e2366004614454565b61016260209081526000928352604080842090915290825290205481565b34801561050c57600080fd5b5061033e61051b366004614230565b610ba3565b34801561052c57600080fd5b5061033e61053b366004613f33565b610c26565b34801561054c57600080fd5b5061033e61055b366004614345565b610c4a565b34801561056c57600080fd5b5061033e61057b36600461458c565b610e71565b61033e61058e366004614079565b611108565b34801561059f57600080fd5b50610128546103f29064010000000090046001600160a01b031681565b3480156105c857600080fd5b50610128546105da9063ffffffff1681565b60405163ffffffff9091168152602001610315565b3480156105fb57600080fd5b5061033e61060a366004614429565b61111d565b34801561061b57600080fd5b5061037f61062a366004614454565b61016160209081526000928352604080842090915290825290205481565b34801561065457600080fd5b5061033e6106633660046144ea565b6111a3565b34801561067457600080fd5b5061033e61068336600461418c565b6111af565b34801561069457600080fd5b5061037f6106a33660046144ac565b61016060209081526000938452604080852082529284528284209052825290205481565b3480156106d357600080fd5b5061033e6106e2366004614513565b611210565b3480156106f357600080fd5b5061037f600081565b34801561070857600080fd5b5061033e610717366004613fb5565b6113d7565b34801561072857600080fd5b5061033e6107373660046144ea565b611427565b34801561074857600080fd5b5061037f61075736600461440f565b6101586020526000908152604090205481565b34801561077657600080fd5b5061033e61078536600461411b565b611433565b34801561079657600080fd5b5061033e6107a53660046144ea565b61143d565b3480156107b657600080fd5b506103096107c5366004614230565b611449565b3480156107d657600080fd5b5061037f6107e5366004614547565b611474565b3480156107f657600080fd5b506103f261080536600461440f565b61015b602052600090815260409020546001600160a01b031681565b34801561082d57600080fd5b5061037f61083c366004614429565b61016460209081526000928352604080842090915290825290205481565b34801561086657600080fd5b506103f2610875366004614454565b61015e6020908152600092835260408084209091529082529020546001600160a01b031681565b3480156108a857600080fd5b506103096108b736600461440f565b6101576020526000908152604090205460ff1681565b3480156108d957600080fd5b5061037f6108e8366004614454565b61015f60209081526000928352604080842090915290825290205481565b34801561091257600080fd5b506103f273f10a7f10a7f10a7f10a7f10a7f10a7f10a7f10a781565b34801561093a57600080fd5b5061033e610949366004613f6b565b6114ca565b34801561095a57600080fd5b5061037f61096936600461447f565b61016560209081526000938452604080852082529284528284209052825290205481565b34801561099957600080fd5b5061033e6109a83660046144ea565b611606565b3480156109b957600080fd5b5061033e6109c8366004614230565b611612565b3480156109d957600080fd5b5061033e6109e836600461429f565b611638565b3480156109f957600080fd5b5061033e610a083660046144ea565b611b06565b348015610a1957600080fd5b5061033e610a283660046144ea565b611b28565b348015610a3957600080fd5b50610129546103f2906001600160a01b031681565b348015610a5a57600080fd5b5061033e610a693660046144ea565b611b34565b348015610a7a57600080fd5b506103f2610a8936600461440f565b61015a602052600090815260409020546001600160a01b031681565b348015610ab157600080fd5b5061037f610ac036600461414f565b611b40565b348015610ad157600080fd5b5061037f7f189ab7a9244df0848122154315af71fe140f3db0fe014031783b0946b8c9d2e381565b348015610b0557600080fd5b5061037f610b14366004614454565b61016360209081526000928352604080842090915290825290205481565b60006001600160e01b03198216637965db0b60e01b1480610b6357506301ffc9a760e01b6001600160e01b03198316145b90505b919050565b610b7481611cac565b50565b600082815260656020526040902060010154610b9481335b6120a0565b610b9e8383612104565b505050565b6001600160a01b0381163314610c185760405162461bcd60e51b815260206004820152602f60248201527f416363657373436f6e74726f6c3a2063616e206f6e6c792072656e6f756e636560448201526e103937b632b9903337b91039b2b63360891b60648201526084015b60405180910390fd5b610c22828261218a565b5050565b610c2f816121f1565b610b748160405180602001604052806000815250600061221c565b610c5261239d565b6101288054600091908290610c6c9063ffffffff16614ae8565b91906101000a81548163ffffffff021916908363ffffffff16021790559050816001600160a01b031663edf565cc6040518163ffffffff1660e01b8152600401600060405180830381600087803b158015610cc657600080fd5b505af1158015610cda573d6000803e3d6000fd5b5050505063ffffffff8116600081815261015e6020908152604080832060018452825280832080546001600160a01b03199081166001600160a01b038d811691909117909255848052828520805482168c841617905594845261015a8352818420805486168a831617905561015b83528184208054861688831617905561015c835281842080549095169088169081179094558051630ce74fc560e31b8152905163673a7e2893600480840194938390030190829087803b158015610d9e57600080fd5b505af1158015610db2573d6000803e3d6000fd5b505050506040513d601f19601f82011682018060405250810190610dd69190614287565b61015860008363ffffffff1663ffffffff168152602001908152602001600020819055507f901e73890694712ca72bdc627d356f05f11be45e7ccf490a8d4924c393bcb5658187878761015860008763ffffffff1663ffffffff168152602001908152602001600020548f8f8f8f8c8c604051610e5d9b9a9998979695949392919061480e565b60405180910390a150505050505050505050565b610e7961239d565b8615801590610e8757508415155b8015610e9257508315155b8015610e9d57508215155b8015610ea857508015155b610eb157600080fd5b63ffffffff88166000908152610157602052604090205460ff1615610f0e5760405162461bcd60e51b8152602060048201526013602482015272185b1c9958591e481a5b9a5d1a585b1a5e9959606a1b6044820152606401610c0f565b6101285463ffffffff9081169089161115610f5c5760405162461bcd60e51b815260206004820152600e60248201526d0d2dcc8caf040e8dede40d0d2ced60931b6044820152606401610c0f565b63ffffffff8816600090815261015760209081526040808320805460ff1916600190811790915561015d835281842085905561015990925290912055610fa284896123aa565b6101285463ffffffff8916600081815261015e6020908152604080832060018452909152808220548280529181902054905163b0956b5f60e01b815260048101939093526001600160a01b03918216602484015281166044830152606482018a90526084820189905260a4820188905260c4820186905260e482018590526401000000009092049091169063b0956b5f9061010401600060405180830381600087803b15801561105157600080fd5b505af1158015611065573d6000803e3d6000fd5b5050610128546040516317b4d3fb60e31b815263ffffffff8c16600482015260016024820152670de0b6b3a76400006044820181905260648201526084810188905260a481018890526401000000009091046001600160a01b0316925063bda69fd8915060c401600060405180830381600087803b1580156110e657600080fd5b505af11580156110fa573d6000803e3d6000fd5b505050505050505050505050565b611111826121f1565b610c228282600161221c565b61112561239d565b63ffffffff8216600081815261015c602090815260409182902080546001600160a01b038681166001600160a01b03198316811790935584519586521691840182905291830191909152907ffc4d69f373858d480cfc3f12e7cc7f9b12201291753ffc3babef0e7a8041979f906060015b60405180910390a1505050565b610c2282826000611210565b8060005b8181101561120a576111f88484838181106111de57634e487b7160e01b600052603260045260246000fd5b90506020020160208101906111f3919061440f565b611cac565b8061120281614acd565b9150506111b3565b50505050565b338361121b81611cac565b6112258282612620565b63ffffffff8516600090815261015e602090815260408083208615158452909152908190205490516323b872dd60e01b8152336004820152306024820152604481018690526001600160a01b03909116906323b872dd90606401602060405180830381600087803b15801561129957600080fd5b505af11580156112ad573d6000803e3d6000fd5b505050506040513d601f19601f820116820180604052508101906112d191906141fc565b6112da57600080fd5b63ffffffff85166000908152610167602090815260408083208615158452825280832033845290915281208054869290611315908490614938565b909155505063ffffffff85166000908152610159602052604081205461133c906001614938565b63ffffffff871660008181526101646020908152604080832033845282528083208590559282526101638152828220881515835290529081208054929350879290919061138a908490614938565b90915550506040517fd850f5d8405edb0730cd72e6bb9e228043c91fd591562543ea553efda14970b6906113c79088908790899033908790614892565b60405180910390a1505050505050565b805160005b8181101561120a576114158484838151811061140857634e487b7160e01b600052603260045260246000fd5b6020026020010151612620565b8061141f81614acd565b9150506113dc565b610c2282826001612721565b610c228282612620565b610c2282826000612721565b60009182526065602090815260408084206001600160a01b0393909316845291905290205460ff1690565b63ffffffff84166000908152610160602090815260408083208515801585528184528285208686528452828520549085529083528184208585529092528220546114bf868383612838565b979650505050505050565b600054610100900460ff16806114e3575060005460ff16155b6114ff5760405162461bcd60e51b8152600401610c0f906147c0565b600054610100900460ff16158015611521576000805461ffff19166101011790555b6001600160a01b0384161580159061154157506001600160a01b03831615155b801561155557506001600160a01b03821615155b61155e57600080fd5b61156784612857565b61012980546001600160a01b0319166001600160a01b038581169182179092556101288054640100000000600160c01b031916640100000000868516908102919091179091556040805193881684526020840192909252908201527f48aa6e6153c5dedbe00925ab3c8e28c6ce0c1a80652b3369f176065e797b45079060600160405180910390a1801561120a576000805461ff001916905550505050565b610c22828260016128dc565b60008281526065602052604090206001015461162e8133610b8f565b610b9e838361218a565b61164061239d565b6001600160a01b0383161580159061166057506001600160a01b03821615155b801561167457506001600160a01b03811615155b61167d57600080fd5b61012880546000919082906116979063ffffffff16614ae8565b91906101000a81548163ffffffff021916908363ffffffff16021790559050600061012860049054906101000a90046001600160a01b03169050826001600160a01b031663edf565cc6040518163ffffffff1660e01b8152600401600060405180830381600087803b15801561170c57600080fd5b505af1158015611720573d6000803e3d6000fd5b5050610129546040516001600160a01b03909116925063e6d30467915061174d908c908c90602001614732565b604051602081830303815290604052898960405160200161176f92919061469f565b604051602081830303815290604052848660016040518663ffffffff1660e01b81526004016117a295949392919061476c565b602060405180830381600087803b1580156117bc57600080fd5b505af11580156117d0573d6000803e3d6000fd5b505050506040513d601f19601f820116820180604052508101906117f49190613f4f565b63ffffffff8316600090815261015e602090815260408083206001845282529182902080546001600160a01b0319166001600160a01b03948516179055610129549151919092169163e6d3046791611850918d918d9101614677565b6040516020818303038152906040528989604051602001611872929190614659565b604051602081830303815290604052848660006040518663ffffffff1660e01b81526004016118a595949392919061476c565b602060405180830381600087803b1580156118bf57600080fd5b505af11580156118d3573d6000803e3d6000fd5b505050506040513d601f19601f820116820180604052508101906118f79190613f4f565b63ffffffff8316600081815261015e60209081526040808320838052825280832080546001600160a01b03199081166001600160a01b039788161790915593835261015a8252808320805485168b871617905561015b82528083208054851689871617905561015c825280832080549094169489169485179093558251630ce74fc560e31b8152925163673a7e2893600480820194918390030190829087803b1580156119a357600080fd5b505af11580156119b7573d6000803e3d6000fd5b505050506040513d601f19601f820116820180604052508101906119db9190614287565b61015860008463ffffffff1663ffffffff168152602001908152602001600020819055507f901e73890694712ca72bdc627d356f05f11be45e7ccf490a8d4924c393bcb5658261015e60008563ffffffff1663ffffffff1681526020019081526020016000206000600115151515815260200190815260200160002060009054906101000a90046001600160a01b031661015e60008663ffffffff1663ffffffff16815260200190815260200160002060008015151515815260200190815260200160002060009054906101000a90046001600160a01b03168861015860008863ffffffff1663ffffffff168152602001908152602001600020548e8e8e8e8d8d604051611af39b9a9998979695949392919061480e565b60405180910390a1505050505050505050565b611b0e61239d565b63ffffffff909116600090815261015d6020526040902055565b610c22828260006128dc565b610c2282826001611210565b600082611b4c81612a8b565b63ffffffff84166000908152610159602090815260408083205461016483528184206001600160a01b038a168552909252909120548015801590611b905750818111155b15611ca25763ffffffff8616600090815261016560209081526040808320881515845282528083206001600160a01b038b1684529091529020548015611c0a5763ffffffff871660009081526101606020908152604080832089151584528252808320858452909152902054611c068282612ae8565b9550505b63ffffffff87166000908152610167602090815260408083208915845282528083206001600160a01b038c1684529091529020548015611c9f5763ffffffff88166000908152610160602090815260408083208a158085528184528285208886528452828520549015855290835281842087855290925290912054611c90838383612838565b611c9a9089614938565b975050505b50505b5050509392505050565b80611cb681612a8b565b63ffffffff8216600090815261015c60209081526040808320548151630ce74fc560e31b815291516001600160a01b039091169263673a7e28926004808201939182900301818787803b158015611d0c57600080fd5b505af1158015611d20573d6000803e3d6000fd5b505050506040513d601f19601f82011682018060405250810190611d449190614287565b63ffffffff841660009081526101596020908152604080832054610158909252909120549192509082148015906120995763ffffffff851660009081526101606020908152604080832060018452808352818420868552835281842054848052908352818420868552909252822054909180611dc08988612b0e565b63ffffffff8b16600090815261015e602090815260408083206001845282528083205481516318160ddd60e01b81529151959750939550611e6a9487946001600160a01b0316936318160ddd93600480850194919392918390030190829087803b158015611e2d57600080fd5b505af1158015611e41573d6000803e3d6000fd5b505050506040513d601f19601f82011682018060405250810190611e659190614287565b612ae8565b63ffffffff8a16600090815261015e6020908152604080832083805282528083205481516318160ddd60e01b81529151949850611ed59486946001600160a01b03909216936318160ddd93600480820194929392918390030190829087803b158015611e2d57600080fd5b63ffffffff8a16600090815261015860205260409020889055925085611efa81614acd565b63ffffffff8b1660009081526101596020908152604080832084905561016082528083206001845280835281842085855283528184208a905583805282528083208484529091528120869055909750905080611f578b8787612d03565b9092509050611f6682856148f7565b9350611f7281846148f7565b63ffffffff8c16600081815261015f6020908152604080832060018452909152808220889055818052908190208390556101285490516317b4d3fb60e31b81526004810192909252602482018b905260448201899052606482018890526084820187905260a482018390529194506401000000009091046001600160a01b03169063bda69fd89060c401600060405180830381600087803b15801561201657600080fd5b505af115801561202a573d6000803e3d6000fd5b50506040805163ffffffff8f168152602081018c90529081018c9052606081018790526080810186905260a0810189905260c081018890527f69e662f95898affac086a5bc1177755bdaf7f4a40a3880364c48012170ee57fe925060e001905060405180910390a15050505050505b5050505050565b6120aa8282611449565b610c22576120c2816001600160a01b03166014613002565b6120cd836020613002565b6040516020016120de9291906146bd565b60408051601f198184030181529082905262461bcd60e51b8252610c0f91600401614759565b61210e8282611449565b610c225760008281526065602090815260408083206001600160a01b03851684529091529020805460ff191660011790556121463390565b6001600160a01b0316816001600160a01b0316837f2f8788117e7eff1d82e926ec794901d17c78024a50270940304540a733656f0d60405160405180910390a45050565b6121948282611449565b15610c225760008281526065602090815260408083206001600160a01b0385168085529252808320805460ff1916905551339285917ff6391f5c32d9c69d2a47ea670b442974b53935d1edc7fd64eb21e047a839171b9190a45050565b7f189ab7a9244df0848122154315af71fe140f3db0fe014031783b0946b8c9d2e3610c228133610b8f565b600061224f7f360894a13ba1a3210667c828492db98dca3e2076cc3735a920a3ca505d382bbc546001600160a01b031690565b905061225a846131e4565b6000835111806122675750815b15612278576122768484613289565b505b7f4910fdfa16fed3260ed0e7147f7cc6da11a60208b5b9406d12a635614ffd9143805460ff1661209957805460ff191660011781556040516001600160a01b03831660248201526122f790869060440160408051601f198184030181529190526020810180516001600160e01b0316631b2ce7f360e11b179052613289565b50805460ff191681557f360894a13ba1a3210667c828492db98dca3e2076cc3735a920a3ca505d382bbc546001600160a01b038381169116146123945760405162461bcd60e51b815260206004820152602f60248201527f45524331393637557067726164653a207570677261646520627265616b73206660448201526e75727468657220757067726164657360881b6064820152608401610c0f565b61209985613374565b6123a86000336120a0565b565b670de0b6b3a76400008210156124025760405162461bcd60e51b815260206004820152601860248201527f496e73756666696369656e74206d61726b6574207365656400000000000000006044820152606401610c0f565b600061240f836002614a15565b905061241b82826133b4565b63ffffffff8216600090815261015b6020526040908190205490516304831f7160e51b8152600481018390526001600160a01b0390911690639063ee2090602401600060405180830381600087803b15801561247657600080fd5b505af115801561248a573d6000803e3d6000fd5b5050505063ffffffff8216600090815261015e6020908152604080832060018452909152908190205490516340c10f1960e01b815273f10a7f10a7f10a7f10a7f10a7f10a7f10a7f10a76004820152602481018590526001600160a01b03909116906340c10f1990604401600060405180830381600087803b15801561250f57600080fd5b505af1158015612523573d6000803e3d6000fd5b5050505063ffffffff8216600090815261015e60209081526040808320838052909152908190205490516340c10f1960e01b815273f10a7f10a7f10a7f10a7f10a7f10a7f10a7f10a76004820152602481018590526001600160a01b03909116906340c10f1990604401600060405180830381600087803b1580156125a757600080fd5b505af11580156125bb573d6000803e3d6000fd5b5050505063ffffffff8216600081815261015f6020908152604080832060018452825280832087905582805291829020869055815192835282018590527f6b73d8f672e796176444c21cb5429d8ea426e6f0f8a3b34e7057a808be5d19c69101611196565b63ffffffff81166000908152610164602090815260408083206001600160a01b03861684529091529020548015801590612670575063ffffffff8216600090815261015960205260409020548111155b15610b9e57612681828460016133f5565b61268d828460006133f5565b61269982846001613559565b6126a582846000613559565b6126b18284600161368f565b6126bd8284600061368f565b63ffffffff82166000818152610164602090815260408083206001600160a01b038816808552908352818420939093558051928352908201929092527fe03aa867e2345cc967d98e4c81f6b0707b5ef082d9d20bac3dcf95540acdeae49101611196565b338361272c81611cac565b6127368282612620565b61274085856133b4565b63ffffffff8516600090815261016160209081526040808320861515845290915281208054869290612773908490614938565b909155505063ffffffff851660009081526101656020908152604080832086151584528252808320338452909152812080548692906127b3908490614938565b909155505063ffffffff8516600090815261015960205260408120546127da906001614938565b63ffffffff87166000908152610164602090815260408083203380855292529182902083905590519192507f50b8727b538cf16daeb79894e8bde5c1e975985071be8a8d7620675a5dddfc6b916113c791899188918a918790614892565b6000816128458486614a15565b61284f919061497e565b949350505050565b600054610100900460ff1680612870575060005460ff16155b61288c5760405162461bcd60e51b8152600401610c0f906147c0565b600054610100900460ff161580156128ae576000805461ffff19166101011790555b6128b66137d9565b6128be61385c565b6128c7826138ba565b8015610c22576000805461ff00191690555050565b33836128e781611cac565b6128f18282612620565b63ffffffff8516600090815261015e602090815260408083208615158452909152908190205490516323b872dd60e01b8152336004820152306024820152604481018690526001600160a01b03909116906323b872dd90606401602060405180830381600087803b15801561296557600080fd5b505af1158015612979573d6000803e3d6000fd5b505050506040513d601f19601f8201168201806040525081019061299d91906141fc565b5063ffffffff851660009081526101666020908152604080832086151584528252808320338452909152812080548692906129d9908490614938565b909155505063ffffffff851660009081526101596020526040812054612a00906001614938565b63ffffffff8716600081815261016460209081526040808320338452825280832085905592825261016281528282208815158352905290812080549293508792909190612a4e908490614938565b90915550506040517f191d5f0d51691cdc223884e5321013c9663c6b337a07d550c538d9dcbbd66203906113c79088908790899033908790614892565b63ffffffff81166000908152610157602052604090205460ff16610b745760405162461bcd60e51b81526020600482015260146024820152731b585c9ad95d08191bd95cdb89dd08195e1a5cdd60621b6044820152606401610c0f565b600081612afd84670de0b6b3a7640000614a15565b612b07919061497e565b9392505050565b63ffffffff82166000908152610158602090815260408083205461015f835281842060018552808452828520548580529352908320549192612b508385614938565b9050600080612b6188878786613964565b63ffffffff8a16600090815261015b602052604080822054905163452accd960e11b81526004810188905260248101849052939550919350916001600160a01b0390911690638a5599b290604401602060405180830381600087803b158015612bc957600080fd5b505af1158015612bdd573d6000803e3d6000fd5b505050506040513d601f19601f82011682018060405250810190612c019190614287565b90508015612c2d578215612c2057612c198188614938565b9650612c2d565b612c2a8187614938565b95505b6000612c3988886139dc565b905060008682612c49828d614a34565b612c539190614992565b612c5d9190614950565b90506000811215612cb657612c7181614b0c565b905088811115612c9957620186a0612c8c8a6201869f614992565b612c969190614950565b90505b612ca3818a614a73565b9850612caf8189614938565b9750612cf5565b87811115612cdc57620186a0612ccf896201869f614992565b612cd99190614950565b90505b612ce6818a614938565b9850612cf28189614a73565b97505b505050505050509250929050565b63ffffffff8316600090815261016160209081526040808320600184529091528120548190819081908015612d655763ffffffff881660009081526101616020908152604080832060018452909152812055935083612d628188612ae8565b92505b5063ffffffff87166000908152610161602090815260408083208380529091529020548015612dc05763ffffffff8816600090815261016160209081526040808320838052909152812055925082612dbd8187612ae8565b91505b5063ffffffff8716600090815261016360209081526040808320600184529091529020548015612e58576000612df682896139f2565b9050612e028187614a34565b9550612e0e81866148f7565b9450612e1a8285614a34565b9350612e27828989612838565b612e3190846148f7565b63ffffffff8a16600090815261016360209081526040808320600184529091528120559250505b5063ffffffff87166000908152610163602090815260408083208380529091529020548015612eee576000612e8d82886139f2565b9050612e998186614a34565b9450612ea581876148f7565b9550612eb18284614a34565b9250612ebe82888a612838565b612ec890856148f7565b63ffffffff8a166000908152610163602090815260408083208380529091528120559350505b5063ffffffff8716600090815261016260209081526040808320600184529091529020548015612f5e57612f2281886139f2565b612f2c9086614a34565b9450612f388184614a34565b63ffffffff89166000908152610162602090815260408083206001845290915281205592505b5063ffffffff87166000908152610162602090815260408083208380529091529020548015612fcc57612f9181876139f2565b612f9b9085614a34565b9350612fa78183614a34565b63ffffffff891660009081526101626020908152604080832083805290915281205591505b612fdf88612fda86886148f7565b613a07565b612feb88600185613b0b565b612ff788600084613b0b565b505050935093915050565b60606000613011836002614a15565b61301c906002614938565b67ffffffffffffffff81111561304257634e487b7160e01b600052604160045260246000fd5b6040519080825280601f01601f19166020018201604052801561306c576020820181803683370190505b509050600360fc1b8160008151811061309557634e487b7160e01b600052603260045260246000fd5b60200101906001600160f81b031916908160001a905350600f60fb1b816001815181106130d257634e487b7160e01b600052603260045260246000fd5b60200101906001600160f81b031916908160001a90535060006130f6846002614a15565b613101906001614938565b90505b6001811115613195576f181899199a1a9b1b9c1cb0b131b232b360811b85600f166010811061314357634e487b7160e01b600052603260045260246000fd5b1a60f81b82828151811061316757634e487b7160e01b600052603260045260246000fd5b60200101906001600160f81b031916908160001a90535060049490941c9361318e81614ab6565b9050613104565b508315612b075760405162461bcd60e51b815260206004820181905260248201527f537472696e67733a20686578206c656e67746820696e73756666696369656e746044820152606401610c0f565b803b6132485760405162461bcd60e51b815260206004820152602d60248201527f455243313936373a206e657720696d706c656d656e746174696f6e206973206e60448201526c1bdd08184818dbdb9d1c9858dd609a1b6064820152608401610c0f565b7f360894a13ba1a3210667c828492db98dca3e2076cc3735a920a3ca505d382bbc80546001600160a01b0319166001600160a01b0392909216919091179055565b6060823b6132e85760405162461bcd60e51b815260206004820152602660248201527f416464726573733a2064656c65676174652063616c6c20746f206e6f6e2d636f6044820152651b9d1c9858dd60d21b6064820152608401610c0f565b600080846001600160a01b031684604051613303919061463d565b600060405180830381855af49150503d806000811461333e576040519150601f19603f3d011682016040523d82523d6000602084013e613343565b606091505b509150915061336b8282604051806060016040528060278152602001614b8c60279139613c38565b95945050505050565b61337d816131e4565b6040516001600160a01b038216907fbc7cd75a20ee27fd9adebab32041f755214dbc6bffa90cc0225b39da2e5c2d3b90600090a250565b63ffffffff808316600090815261015b602090815260408083205461015a90925290912054610c22926001600160a01b0391821692339216908590613c7116565b63ffffffff8316600090815261016560209081526040808320841515845282528083206001600160a01b0386168452909152902054801561120a5763ffffffff84166000818152610165602090815260408083208615158085529083528184206001600160a01b038916808652908452828520859055858552610160845282852091855290835281842094845261016483528184209084528252808320548352929052908120546134a7908390612ae8565b63ffffffff8616600090815261015e6020908152604080832087151584529091529081902054905163a9059cbb60e01b81526001600160a01b0387811660048301526024820184905292935091169063a9059cbb90604401602060405180830381600087803b15801561351957600080fd5b505af115801561352d573d6000803e3d6000fd5b505050506040513d601f19601f8201168201806040525081019061355191906141fc565b505050505050565b63ffffffff8316600090815261016660209081526040808320841515845282528083206001600160a01b0386168452909152902054801561120a5763ffffffff84166000818152610166602090815260408083208615158085529083528184206001600160a01b0389168086529084528285208590558585526101608452828520918552908352818420948452610164835281842090845282528083205483529290529081205461360b9083906139f2565b63ffffffff8616600090815261015b6020526040908190205490516375b5ffd160e11b81526001600160a01b0387811660048301526024820184905292935091169063eb6bffa290604401600060405180830381600087803b15801561367057600080fd5b505af1158015613684573d6000803e3d6000fd5b505050505050505050565b63ffffffff8316600090815261016760209081526040808320841515845282528083206001600160a01b0386168452909152902054801561120a5763ffffffff84166000908152610164602090815260408083206001600160a01b038716845290915281205461370490869084908690611474565b63ffffffff86166000818152610167602090815260408083208815801585529083528184206001600160a01b038b811680875291855283862086905595855261015e845282852091855292529182902054915163a9059cbb60e01b8152600481019190915260248101849052929350169063a9059cbb90604401602060405180830381600087803b15801561379857600080fd5b505af11580156137ac573d6000803e3d6000fd5b505050506040513d601f19601f820116820180604052508101906137d091906141fc565b61209957600080fd5b600054610100900460ff16806137f2575060005460ff16155b61380e5760405162461bcd60e51b8152600401610c0f906147c0565b600054610100900460ff16158015613830576000805461ffff19166101011790555b613838613ccb565b613840613ccb565b613848613ccb565b8015610b74576000805461ff001916905550565b600054610100900460ff1680613875575060005460ff16155b6138915760405162461bcd60e51b8152600401610c0f906147c0565b600054610100900460ff16158015613838576000805461ffff1916610101179055613840613ccb565b600054610100900460ff16806138d3575060005460ff16155b6138ef5760405162461bcd60e51b8152600401610c0f906147c0565b600054610100900460ff16158015613911576000805461ffff19166101011790555b6001600160a01b03821661392457600080fd5b61392f600083613d35565b61393a600083613d35565b6128c77f189ab7a9244df0848122154315af71fe140f3db0fe014031783b0946b8c9d2e383613d35565b8183106000808215613979575084840361397e565b508385035b63ffffffff8716600090815261015d602052604081205485906139a19084614a15565b6139ab919061497e565b905060006139c182670de0b6b3a76400006139dc565b905080670de0b6b3a764000003935050505094509492505050565b60008183106139eb5781612b07565b5090919050565b6000670de0b6b3a7640000612afd8385614a15565b6000811315613a885763ffffffff8216600090815261015b6020526040908190205490516304831f7160e51b8152600481018390526001600160a01b0390911690639063ee2090602401600060405180830381600087803b158015613a6b57600080fd5b505af1158015613a7f573d6000803e3d6000fd5b50505050610c22565b6000811215610c225763ffffffff8216600090815261015b60205260409020546001600160a01b0316631c499b55613abf83614b0c565b6040518263ffffffff1660e01b8152600401613add91815260200190565b600060405180830381600087803b158015613af757600080fd5b505af1158015613551573d6000803e3d6000fd5b6000811315613b9f5763ffffffff8316600090815261015e602090815260408083208515158452909152908190205490516340c10f1960e01b8152306004820152602481018390526001600160a01b03909116906340c10f1990604401600060405180830381600087803b158015613b8257600080fd5b505af1158015613b96573d6000803e3d6000fd5b50505050610b9e565b6000811215610b9e5763ffffffff8316600090815261015e6020908152604080832085151584529091529020546001600160a01b03166342966c68613be383614b0c565b6040518263ffffffff1660e01b8152600401613c0191815260200190565b600060405180830381600087803b158015613c1b57600080fd5b505af1158015613c2f573d6000803e3d6000fd5b50505050505050565b60608315613c47575081612b07565b825115613c575782518084602001fd5b8160405162461bcd60e51b8152600401610c0f9190614759565b604080516001600160a01b0385811660248301528416604482015260648082018490528251808303909101815260849091019091526020810180516001600160e01b03166323b872dd60e01b17905261120a908590613d3f565b600054610100900460ff1680613ce4575060005460ff16155b613d005760405162461bcd60e51b8152600401610c0f906147c0565b600054610100900460ff16158015613848576000805461ffff19166101011790558015610b74576000805461ff001916905550565b610c228282612104565b6000613d94826040518060400160405280602081526020017f5361666545524332303a206c6f772d6c6576656c2063616c6c206661696c6564815250856001600160a01b0316613e119092919063ffffffff16565b805190915015610b9e5780806020019051810190613db291906141fc565b610b9e5760405162461bcd60e51b815260206004820152602a60248201527f5361666545524332303a204552433230206f7065726174696f6e20646964206e6044820152691bdd081cdd58d8d9595960b21b6064820152608401610c0f565b606061284f848460008585843b613e6a5760405162461bcd60e51b815260206004820152601d60248201527f416464726573733a2063616c6c20746f206e6f6e2d636f6e74726163740000006044820152606401610c0f565b600080866001600160a01b03168587604051613e86919061463d565b60006040518083038185875af1925050503d8060008114613ec3576040519150601f19603f3d011682016040523d82523d6000602084013e613ec8565b606091505b50915091506114bf828286613c38565b60008083601f840112613ee9578182fd5b50813567ffffffffffffffff811115613f00578182fd5b602083019150836020828501011115613f1857600080fd5b9250929050565b803563ffffffff81168114610b6657600080fd5b600060208284031215613f44578081fd5b8135612b0781614b68565b600060208284031215613f60578081fd5b8151612b0781614b68565b600080600060608486031215613f7f578182fd5b8335613f8a81614b68565b92506020840135613f9a81614b68565b91506040840135613faa81614b68565b809150509250925092565b60008060408385031215613fc7578182fd5b8235613fd281614b68565b915060208381013567ffffffffffffffff80821115613fef578384fd5b818601915086601f830112614002578384fd5b81358181111561401457614014614b52565b8060051b91506140258483016148c6565b8181528481019084860184860187018b101561403f578788fd5b8795505b838610156140685761405481613f1f565b835260019590950194918601918601614043565b508096505050505050509250929050565b6000806040838503121561408b578182fd5b823561409681614b68565b915060208381013567ffffffffffffffff808211156140b3578384fd5b818601915086601f8301126140c6578384fd5b8135818111156140d8576140d8614b52565b6140ea601f8201601f191685016148c6565b915080825287848285010111156140ff578485fd5b8084840185840137810190920192909252919491935090915050565b6000806040838503121561412d578182fd5b823561413881614b68565b915061414660208401613f1f565b90509250929050565b600080600060608486031215614163578283fd5b833561416e81614b68565b925061417c60208501613f1f565b91506040840135613faa81614b7d565b6000806020838503121561419e578182fd5b823567ffffffffffffffff808211156141b5578384fd5b818501915085601f8301126141c8578384fd5b8135818111156141d6578485fd5b8660208260051b85010111156141ea578485fd5b60209290920196919550909350505050565b60006020828403121561420d578081fd5b8151612b0781614b7d565b600060208284031215614229578081fd5b5035919050565b60008060408385031215614242578182fd5b82359150602083013561425481614b68565b809150509250929050565b600060208284031215614270578081fd5b81356001600160e01b031981168114612b07578182fd5b600060208284031215614298578081fd5b5051919050565b600080600080600080600060a0888a0312156142b9578485fd5b873567ffffffffffffffff808211156142d0578687fd5b6142dc8b838c01613ed8565b909950975060208a01359150808211156142f4578687fd5b506143018a828b01613ed8565b909650945050604088013561431581614b68565b9250606088013561432581614b68565b9150608088013561433581614b68565b8091505092959891949750929550565b600080600080600080600080600060e08a8c031215614362578283fd5b893567ffffffffffffffff80821115614379578485fd5b6143858d838e01613ed8565b909b50995060208c013591508082111561439d578485fd5b506143aa8c828d01613ed8565b90985096505060408a01356143be81614b68565b945060608a01356143ce81614b68565b935060808a01356143de81614b68565b925060a08a01356143ee81614b68565b915060c08a01356143fe81614b68565b809150509295985092959850929598565b600060208284031215614420578081fd5b612b0782613f1f565b6000806040838503121561443b578182fd5b61444483613f1f565b9150602083013561425481614b68565b60008060408385031215614466578182fd5b61446f83613f1f565b9150602083013561425481614b7d565b600080600060608486031215614493578081fd5b61449c84613f1f565b92506020840135613f9a81614b7d565b6000806000606084860312156144c0578081fd5b6144c984613f1f565b925060208401356144d981614b7d565b929592945050506040919091013590565b600080604083850312156144fc578182fd5b61450583613f1f565b946020939093013593505050565b600080600060608486031215614527578081fd5b61453084613f1f565b9250602084013591506040840135613faa81614b7d565b6000806000806080858703121561455c578182fd5b61456585613f1f565b935060208501359250604085013561457c81614b7d565b9396929550929360600135925050565b600080600080600080600080610100898b0312156145a8578182fd5b6145b189613f1f565b9a60208a01359a5060408a013599606081013599506080810135985060a0810135975060c0810135965060e00135945092505050565b60008284528282602086013780602084860101526020601f19601f85011685010190509392505050565b60008151808452614629816020860160208601614a8a565b601f01601f19169290920160200192915050565b6000825161464f818460208701614a8a565b9190910192915050565b600061667360f01b8252828460028401379101600201908152919050565b60006b0233637b0ba1029b437b93a160a51b82528284600c8401379101600c01908152919050565b600061199b60f21b8252828460028401379101600201908152919050565b60007f416363657373436f6e74726f6c3a206163636f756e7420000000000000000000825283516146f5816017850160208801614a8a565b7001034b99036b4b9b9b4b733903937b6329607d1b6017918401918201528351614726816028840160208801614a8a565b01602801949350505050565b60006a0233637b0ba102637b733960ad1b82528284600b8401379101600b01908152919050565b600060208252612b076020830184614611565b600060a0825261477f60a0830188614611565b82810360208401526147918188614611565b6001600160a01b03969096166040840152505063ffffffff929092166060830152151560809091015292915050565b6020808252602e908201527f496e697469616c697a61626c653a20636f6e747261637420697320616c72656160408201526d191e481a5b9a5d1a585b1a5e995960921b606082015260800190565b63ffffffff8c1681526001600160a01b038b811660208301528a8116604083015289811660608301526080820189905261012060a083018190526000916148588483018a8c6145e7565b915083820360c085015261486d82888a6145e7565b925080861660e085015280851661010085015250509c9b505050505050505050505050565b63ffffffff959095168552921515602085015260408401919091526001600160a01b03166060830152608082015260a00190565b604051601f8201601f1916810167ffffffffffffffff811182821017156148ef576148ef614b52565b604052919050565b600080821280156001600160ff1b038490038513161561491957614919614b26565b600160ff1b839003841281161561493257614932614b26565b50500190565b6000821982111561494b5761494b614b26565b500190565b60008261495f5761495f614b3c565b600160ff1b82146000198414161561497957614979614b26565b500590565b60008261498d5761498d614b3c565b500490565b60006001600160ff1b03818413828413808216868404861116156149b8576149b8614b26565b600160ff1b848712828116878305891216156149d6576149d6614b26565b8587129250878205871284841616156149f1576149f1614b26565b87850587128184161615614a0757614a07614b26565b505050929093029392505050565b6000816000190483118215151615614a2f57614a2f614b26565b500290565b60008083128015600160ff1b850184121615614a5257614a52614b26565b6001600160ff1b0384018313811615614a6d57614a6d614b26565b50500390565b600082821015614a8557614a85614b26565b500390565b60005b83811015614aa5578181015183820152602001614a8d565b8381111561120a5750506000910152565b600081614ac557614ac5614b26565b506000190190565b6000600019821415614ae157614ae1614b26565b5060010190565b600063ffffffff80831681811415614b0257614b02614b26565b6001019392505050565b6000600160ff1b821415614b2257614b22614b26565b0390565b634e487b7160e01b600052601160045260246000fd5b634e487b7160e01b600052601260045260246000fd5b634e487b7160e01b600052604160045260246000fd5b6001600160a01b0381168114610b7457600080fd5b8015158114610b7457600080fdfe416464726573733a206c6f772d6c6576656c2064656c65676174652063616c6c206661696c6564a2646970667358221220dd5ba6d4995a2a9088722dec75f8ec4995f38a2e21a4901df639f4a03535b92f64736f6c63430008030033",
  "devdoc": {
    "author": "float.capital",
    "custom:auditors": "This contract balances long and short sides.",
    "details": "All functions in this file are currently `virtual`. This is NOT to encourage inheritance. It is merely for convenince when unit testing.",
    "kind": "dev",
    "methods": {
      "createNewSyntheticMarket(string,string,address,address,address)": {
        "details": "This does not make the market active. The `initializeMarket` function was split out separately to this function to reduce costs.",
        "params": {
          "_oracleManager": "The address of the oracle manager that provides the price feed for this market",
          "_paymentToken": "The address of the erc20 token used to buy this synthetic asset this will likely always be DAI",
          "_yieldManager": "The contract that manages depositing the paymentToken into a yield bearing protocol",
          "syntheticName": "Name of the synthetic asset",
          "syntheticSymbol": "Symbol for the synthetic asset"
        }
      },
      "createNewSyntheticMarketExternalSyntheticTokens(string,string,address,address,address,address,address)": {
        "details": "This does not make the market active. The `initializeMarket` function was split out separately to this function to reduce costs.",
        "params": {
          "_longToken": "Address for the long token.",
          "_oracleManager": "The address of the oracle manager that provides the price feed for this market",
          "_paymentToken": "The address of the erc20 token used to buy this synthetic asset this will likely always be DAI",
          "_shortToken": "Address for the short token.",
          "_yieldManager": "The contract that manages depositing the paymentToken into a yield bearing protocol",
          "syntheticName": "Name of the synthetic asset",
          "syntheticSymbol": "Symbol for the synthetic asset"
        }
      },
      "executeOutstandingNextPriceSettlementsUser(address,uint32)": {
        "params": {
          "marketIndex": "An uint32 which uniquely identifies a market.",
          "user": "The address of the user for whom to execute the function."
        }
      },
      "executeOutstandingNextPriceSettlementsUserMulti(address,uint32[])": {
        "params": {
          "marketIndexes": "An array of int32s which each uniquely identify a market.",
          "user": "The address of the user for whom to execute the function."
        }
      },
      "getAmountSyntheticTokenToMintOnTargetSide(uint32,uint256,bool,uint256)": {
        "details": "Intended for use primarily by Staker.sol",
        "params": {
          "amountSyntheticToken_redeemOnOriginSide": "Amount of synth token in wei.",
          "isShiftFromLong": "Whether the token shift is from long to short (true), or short to long (false).",
          "marketIndex": "An uint32 which uniquely identifies a market.",
          "priceSnapshotIndex": "Index which identifies which synth prices to use."
        },
        "returns": {
          "amountSyntheticTokensToMintOnTargetSide": "The amount in wei of tokens for the other side that the shift was worth."
        }
      },
      "getRoleAdmin(bytes32)": {
        "details": "Returns the admin role that controls `role`. See {grantRole} and {revokeRole}. To change a role's admin, use {_setRoleAdmin}."
      },
      "getUsersConfirmedButNotSettledSynthBalance(address,uint32,bool)": {
        "details": "Used in SyntheticToken.sol balanceOf to allow for automatic reflection of next price actions.",
        "params": {
          "isLong": "Whether it is for the long synthetic asset or the short synthetic asset.",
          "marketIndex": "An uint32 which uniquely identifies a market.",
          "user": "The address of the user for whom to execute the function for."
        },
        "returns": {
          "confirmedButNotSettledBalance": "The amount in wei of tokens that the user is owed."
        }
      },
      "grantRole(bytes32,address)": {
        "details": "Grants `role` to `account`. If `account` had not been already granted `role`, emits a {RoleGranted} event. Requirements: - the caller must have ``role``'s admin role."
      },
      "hasRole(bytes32,address)": {
        "details": "Returns `true` if `account` has been granted `role`."
      },
      "initialize(address,address,address)": {
        "details": "Calls OpenZeppelin's initializer modifier.",
        "params": {
          "_admin": "Address of the admin role.",
          "_staker": "Address of the contract which handles synthetic asset stakes.",
          "_tokenFactory": "Address of the contract which creates synthetic asset tokens."
        }
      },
      "initializeMarket(uint32,uint256,uint256,uint256,uint256,uint256,int256,uint256)": {
        "details": "Seperated from createNewSyntheticMarket due to gas considerations.",
        "params": {
          "balanceIncentiveCurve_equilibriumOffset": "An offset to account for naturally imbalanced markets when Float token issuance should differ for market sides. See Staker.sol",
          "balanceIncentiveCurve_exponent": "Sets the degree to which Float token issuance differs for market sides in unbalanced markets. See Staker.sol",
          "initialMarketSeedForEachMarketSide": "Amount of payment token that will be deposited in each market side to seed the market.",
          "kInitialMultiplier": "Linearly decreasing multiplier for Float token issuance for the market when staking synths.",
          "kPeriod": "Time which kInitialMultiplier will last",
          "marketIndex": "An int32 which uniquely identifies the market.",
          "unstakeFee_e18": "Base 1e18 percentage fee levied when unstaking for the market."
        }
      },
      "mintLongNextPrice(uint32,uint256)": {
        "params": {
          "amount": "Amount of payment tokens in that token's lowest denominationfor which to mint synthetic assets at next price.",
          "marketIndex": "An uint32 which uniquely identifies a market."
        }
      },
      "mintShortNextPrice(uint32,uint256)": {
        "params": {
          "amount": "Amount of payment tokens in that token's lowest denominationfor which to mint synthetic assets at next price.",
          "marketIndex": "An uint32 which uniquely identifies a market."
        }
      },
      "redeemLongNextPrice(uint32,uint256)": {
        "params": {
          "marketIndex": "An uint32 which uniquely identifies a market.",
          "tokens_redeem": "Amount in wei of synth tokens to redeem at the next oracle price."
        }
      },
      "redeemShortNextPrice(uint32,uint256)": {
        "params": {
          "marketIndex": "An uint32 which uniquely identifies a market.",
          "tokens_redeem": "Amount in wei of synth tokens to redeem at the next oracle price."
        }
      },
      "renounceRole(bytes32,address)": {
        "details": "Revokes `role` from the calling account. Roles are often managed via {grantRole} and {revokeRole}: this function's purpose is to provide a mechanism for accounts to lose their privileges if they are compromised (such as when a trusted device is misplaced). If the calling account had been granted `role`, emits a {RoleRevoked} event. Requirements: - the caller must be `account`."
      },
      "revokeRole(bytes32,address)": {
        "details": "Revokes `role` from `account`. If `account` had been granted `role`, emits a {RoleRevoked} event. Requirements: - the caller must have ``role``'s admin role."
      },
      "shiftPositionFromLongNextPrice(uint32,uint256)": {
        "params": {
          "amountSyntheticTokensToShift": "Amount in wei of synthetic tokens to shift from long to short the next oracle price update.",
          "marketIndex": "An uint32 which uniquely identifies a market."
        }
      },
      "shiftPositionFromShortNextPrice(uint32,uint256)": {
        "params": {
          "amountSyntheticTokensToShift": "Amount in wei of synthetic tokens to shift from the short to long at the next oracle price update.",
          "marketIndex": "An uint32 which uniquely identifies a market."
        }
      },
      "shiftPositionNextPrice(uint32,uint256,bool)": {
        "details": "Called by external functions to shift either way. Intended for primary use by Staker.sol",
        "params": {
          "amountSyntheticTokensToShift": "Amount in wei of synthetic tokens to shift from the one side to the other at the next oracle price update.",
          "isShiftFromLong": "Whether the token shift is from long to short (true), or short to long (false).",
          "marketIndex": "An uint32 which uniquely identifies a market."
        }
      },
      "supportsInterface(bytes4)": {
        "details": "See {IERC165-supportsInterface}."
      },
      "updateMarketOracle(uint32,address)": {
        "details": "Can only be called by the current admin.",
        "params": {
          "_newOracleManager": "Address of the replacement oracle manager.",
          "marketIndex": "An uint32 which uniquely identifies a market."
        }
      },
      "updateSystemState(uint32)": {
        "params": {
          "marketIndex": "An uint32 which uniquely identifies a market."
        }
      },
      "updateSystemStateMulti(uint32[])": {
        "params": {
          "marketIndexes": "An array of int32s which uniquely identify markets."
        }
      },
      "upgradeTo(address)": {
        "details": "Upgrade the implementation of the proxy to `newImplementation`. Calls {_authorizeUpgrade}. Emits an {Upgraded} event."
      },
      "upgradeToAndCall(address,bytes)": {
        "details": "Upgrade the implementation of the proxy to `newImplementation`, and subsequently execute the function call encoded in `data`. Calls {_authorizeUpgrade}. Emits an {Upgraded} event."
      }
    },
    "stateVariables": {
      "PERMANENT_INITIAL_LIQUIDITY_HOLDER": {
        "details": "f10a7 spells float in hex - for fun - important part is that the private key for this address in not known."
      },
      "__constantsGap": {
        "details": "an empty allocation of storage for use in future upgrades - inspiration from OZ:      https://github.com/OpenZeppelin/openzeppelin-contracts-upgradeable/blob/10f0f1a95b1b0fd5520351886bae7a03490f1056/contracts/token/ERC20/ERC20Upgradeable.sol#L361"
      }
    },
    "title": "Core logic of Float Protocal markets",
    "version": 1
  },
  "userdoc": {
    "kind": "user",
    "methods": {
      "PERMANENT_INITIAL_LIQUIDITY_HOLDER()": {
        "notice": "this is the address that permanently locked initial liquidity for markets is held by. These tokens will never move so market can never have zero liquidity on a side."
      },
      "changeMarketTreasurySplitGradient(uint32,uint256)": {
        "notice": "changes the gradient of the line for determining the yield split between market and treasury."
      },
      "createNewSyntheticMarket(string,string,address,address,address)": {
        "notice": "Creates an entirely new long/short market tracking an underlying oracle price.  Make sure the synthetic names/symbols are unique."
      },
      "createNewSyntheticMarketExternalSyntheticTokens(string,string,address,address,address,address,address)": {
        "notice": "Creates an entirely new long/short market tracking an underlying oracle price.  Uses already created synthetic tokens."
      },
      "executeOutstandingNextPriceSettlementsUser(address,uint32)": {
        "notice": "After markets have been batched updated on a new oracle price, transfers any owed tokens to a user from their next price actions for that update to that user."
      },
      "executeOutstandingNextPriceSettlementsUserMulti(address,uint32[])": {
        "notice": "Executes outstanding next price settlements for a user for multiple markets."
      },
      "getAmountSyntheticTokenToMintOnTargetSide(uint32,uint256,bool,uint256)": {
        "notice": "Given an executed next price shift from tokens on one market side to the other, determines how many other side tokens the shift was worth."
      },
      "getUsersConfirmedButNotSettledSynthBalance(address,uint32,bool)": {
        "notice": "The amount of a synth token a user is owed following a batch execution. 4 possible states for next price actions: - \"Pending\" - means the next price update hasn't happened or been enacted on by the updateSystemState function. - \"Confirmed\" - means the next price has been updated by the updateSystemState function. There is still -               outstanding (lazy) computation that needs to be executed per user in the batch. - \"Settled\" - there is no more computation left for the user. - \"Non-existent\" - user has no next price actions. This function returns a calculated value only in the case of 'confirmed' next price actions. It should return zero for all other types of next price actions."
      },
      "initialize(address,address,address)": {
        "notice": "Initializes the contract."
      },
      "initializeMarket(uint32,uint256,uint256,uint256,uint256,uint256,int256,uint256)": {
        "notice": "Sets a market as active once it has already been setup by createNewSyntheticMarket."
      },
      "mintLongNextPrice(uint32,uint256)": {
        "notice": "Allows users to mint long synthetic assets for a market. To prevent front-running these mints are executed on the next price update from the oracle."
      },
      "mintShortNextPrice(uint32,uint256)": {
        "notice": "Allows users to mint short synthetic assets for a market. To prevent front-running these mints are executed on the next price update from the oracle."
      },
      "redeemLongNextPrice(uint32,uint256)": {
        "notice": "Allows users to redeem long synthetic assets for a market. To prevent front-running these redeems are executed on the next price update from the oracle."
      },
      "redeemShortNextPrice(uint32,uint256)": {
        "notice": "Allows users to redeem short synthetic assets for a market. To prevent front-running these redeems are executed on the next price update from the oracle."
      },
      "shiftPositionFromLongNextPrice(uint32,uint256)": {
        "notice": "Allows users to shift their position from long to short in a single transaction. To prevent front-running these shifts are executed on the next price update from the oracle."
      },
      "shiftPositionFromShortNextPrice(uint32,uint256)": {
        "notice": "Allows users to shift their position from short to long in a single transaction. To prevent front-running these shifts are executed on the next price update from the oracle."
      },
      "shiftPositionNextPrice(uint32,uint256,bool)": {
        "notice": "Allows users to shift their position from one side of the market to the other in a single transaction. To prevent front-running these shifts are executed on the next price update from the oracle."
      },
      "syntheticToken_priceSnapshot(uint32,bool,uint256)": {
        "notice": "synthetic token prices of a given market of a (long/short) at every previous price update"
      },
      "updateMarketOracle(uint32,address)": {
        "notice": "Update oracle for a market"
      },
      "updateSystemState(uint32)": {
        "notice": "Updates the state of a market to account for the latest oracle price update."
      },
      "updateSystemStateMulti(uint32[])": {
        "notice": "Updates the state of multiples markets to account for their latest oracle price updates."
      }
    },
    "notice": "visit https://float.capital for more info",
    "version": 1
  },
  "storageLayout": {
    "storage": [
      {
        "astId": 1148,
        "contract": "contracts/LongShort.sol:LongShort",
        "label": "_initialized",
        "offset": 0,
        "slot": "0",
        "type": "t_bool"
      },
      {
        "astId": 1151,
        "contract": "contracts/LongShort.sol:LongShort",
        "label": "_initializing",
        "offset": 1,
        "slot": "0",
        "type": "t_bool"
      },
      {
        "astId": 3583,
        "contract": "contracts/LongShort.sol:LongShort",
        "label": "__gap",
        "offset": 0,
        "slot": "1",
        "type": "t_array(t_uint256)50_storage"
      },
      {
        "astId": 4482,
        "contract": "contracts/LongShort.sol:LongShort",
        "label": "__gap",
        "offset": 0,
        "slot": "51",
        "type": "t_array(t_uint256)50_storage"
      },
      {
        "astId": 350,
        "contract": "contracts/LongShort.sol:LongShort",
        "label": "_roles",
        "offset": 0,
        "slot": "101",
        "type": "t_mapping(t_bytes32,t_struct(RoleData)345_storage)"
      },
      {
        "astId": 635,
        "contract": "contracts/LongShort.sol:LongShort",
        "label": "__gap",
        "offset": 0,
        "slot": "102",
        "type": "t_array(t_uint256)49_storage"
      },
      {
        "astId": 1131,
        "contract": "contracts/LongShort.sol:LongShort",
        "label": "__gap",
        "offset": 0,
        "slot": "151",
        "type": "t_array(t_uint256)50_storage"
      },
      {
        "astId": 1264,
        "contract": "contracts/LongShort.sol:LongShort",
        "label": "__gap",
        "offset": 0,
        "slot": "201",
        "type": "t_array(t_uint256)50_storage"
      },
      {
        "astId": 10600,
        "contract": "contracts/LongShort.sol:LongShort",
        "label": "__constantsGap",
        "offset": 0,
        "slot": "251",
        "type": "t_array(t_uint256)45_storage"
      },
      {
        "astId": 10602,
        "contract": "contracts/LongShort.sol:LongShort",
        "label": "latestMarket",
        "offset": 0,
        "slot": "296",
        "type": "t_uint32"
      },
      {
        "astId": 10604,
        "contract": "contracts/LongShort.sol:LongShort",
        "label": "staker",
        "offset": 4,
        "slot": "296",
        "type": "t_address"
      },
      {
        "astId": 10606,
        "contract": "contracts/LongShort.sol:LongShort",
        "label": "tokenFactory",
        "offset": 0,
        "slot": "297",
        "type": "t_address"
      },
      {
        "astId": 10610,
        "contract": "contracts/LongShort.sol:LongShort",
        "label": "__globalStateGap",
        "offset": 0,
        "slot": "298",
        "type": "t_array(t_uint256)45_storage"
      },
      {
        "astId": 10614,
        "contract": "contracts/LongShort.sol:LongShort",
        "label": "marketExists",
        "offset": 0,
        "slot": "343",
        "type": "t_mapping(t_uint32,t_bool)"
      },
      {
        "astId": 10618,
        "contract": "contracts/LongShort.sol:LongShort",
        "label": "assetPrice",
        "offset": 0,
        "slot": "344",
        "type": "t_mapping(t_uint32,t_int256)"
      },
      {
        "astId": 10623,
        "contract": "contracts/LongShort.sol:LongShort",
        "label": "marketUpdateIndex",
        "offset": 0,
        "slot": "345",
        "type": "t_mapping(t_uint32,t_uint256)"
      },
      {
        "astId": 10627,
        "contract": "contracts/LongShort.sol:LongShort",
        "label": "paymentTokens",
        "offset": 0,
        "slot": "346",
        "type": "t_mapping(t_uint32,t_address)"
      },
      {
        "astId": 10631,
        "contract": "contracts/LongShort.sol:LongShort",
        "label": "yieldManagers",
        "offset": 0,
        "slot": "347",
        "type": "t_mapping(t_uint32,t_address)"
      },
      {
        "astId": 10635,
        "contract": "contracts/LongShort.sol:LongShort",
        "label": "oracleManagers",
        "offset": 0,
        "slot": "348",
        "type": "t_mapping(t_uint32,t_address)"
      },
      {
        "astId": 10639,
        "contract": "contracts/LongShort.sol:LongShort",
        "label": "marketTreasurySplitGradient_e18",
        "offset": 0,
        "slot": "349",
        "type": "t_mapping(t_uint32,t_uint256)"
      },
      {
        "astId": 10646,
        "contract": "contracts/LongShort.sol:LongShort",
        "label": "syntheticTokens",
        "offset": 0,
        "slot": "350",
        "type": "t_mapping(t_uint32,t_mapping(t_bool,t_address))"
      },
      {
        "astId": 10653,
        "contract": "contracts/LongShort.sol:LongShort",
        "label": "marketSideValueInPaymentToken",
        "offset": 0,
        "slot": "351",
        "type": "t_mapping(t_uint32,t_mapping(t_bool,t_uint256))"
      },
      {
        "astId": 10663,
        "contract": "contracts/LongShort.sol:LongShort",
        "label": "syntheticToken_priceSnapshot",
        "offset": 0,
        "slot": "352",
        "type": "t_mapping(t_uint32,t_mapping(t_bool,t_mapping(t_uint256,t_uint256)))"
      },
      {
        "astId": 10669,
        "contract": "contracts/LongShort.sol:LongShort",
        "label": "batched_amountPaymentToken_deposit",
        "offset": 0,
        "slot": "353",
        "type": "t_mapping(t_uint32,t_mapping(t_bool,t_uint256))"
      },
      {
        "astId": 10675,
        "contract": "contracts/LongShort.sol:LongShort",
        "label": "batched_amountSyntheticToken_redeem",
        "offset": 0,
        "slot": "354",
        "type": "t_mapping(t_uint32,t_mapping(t_bool,t_uint256))"
      },
      {
        "astId": 10681,
        "contract": "contracts/LongShort.sol:LongShort",
        "label": "batched_amountSyntheticToken_toShiftAwayFrom_marketSide",
        "offset": 0,
        "slot": "355",
        "type": "t_mapping(t_uint32,t_mapping(t_bool,t_uint256))"
      },
      {
        "astId": 10687,
        "contract": "contracts/LongShort.sol:LongShort",
        "label": "userNextPrice_currentUpdateIndex",
        "offset": 0,
        "slot": "356",
        "type": "t_mapping(t_uint32,t_mapping(t_address,t_uint256))"
      },
      {
        "astId": 10695,
        "contract": "contracts/LongShort.sol:LongShort",
        "label": "userNextPrice_paymentToken_depositAmount",
        "offset": 0,
        "slot": "357",
        "type": "t_mapping(t_uint32,t_mapping(t_bool,t_mapping(t_address,t_uint256)))"
      },
      {
        "astId": 10703,
        "contract": "contracts/LongShort.sol:LongShort",
        "label": "userNextPrice_syntheticToken_redeemAmount",
        "offset": 0,
        "slot": "358",
        "type": "t_mapping(t_uint32,t_mapping(t_bool,t_mapping(t_address,t_uint256)))"
      },
      {
        "astId": 10711,
        "contract": "contracts/LongShort.sol:LongShort",
        "label": "userNextPrice_syntheticToken_toShiftAwayFrom_marketSide",
        "offset": 0,
        "slot": "359",
        "type": "t_mapping(t_uint32,t_mapping(t_bool,t_mapping(t_address,t_uint256)))"
      }
    ],
    "types": {
      "t_address": {
        "encoding": "inplace",
        "label": "address",
        "numberOfBytes": "20"
      },
      "t_array(t_uint256)45_storage": {
        "base": "t_uint256",
        "encoding": "inplace",
        "label": "uint256[45]",
        "numberOfBytes": "1440"
      },
      "t_array(t_uint256)49_storage": {
        "base": "t_uint256",
        "encoding": "inplace",
        "label": "uint256[49]",
        "numberOfBytes": "1568"
      },
      "t_array(t_uint256)50_storage": {
        "base": "t_uint256",
        "encoding": "inplace",
        "label": "uint256[50]",
        "numberOfBytes": "1600"
      },
      "t_bool": {
        "encoding": "inplace",
        "label": "bool",
        "numberOfBytes": "1"
      },
      "t_bytes32": {
        "encoding": "inplace",
        "label": "bytes32",
        "numberOfBytes": "32"
      },
      "t_int256": {
        "encoding": "inplace",
        "label": "int256",
        "numberOfBytes": "32"
      },
      "t_mapping(t_address,t_bool)": {
        "encoding": "mapping",
        "key": "t_address",
        "label": "mapping(address => bool)",
        "numberOfBytes": "32",
        "value": "t_bool"
      },
      "t_mapping(t_address,t_uint256)": {
        "encoding": "mapping",
        "key": "t_address",
        "label": "mapping(address => uint256)",
        "numberOfBytes": "32",
        "value": "t_uint256"
      },
      "t_mapping(t_bool,t_address)": {
        "encoding": "mapping",
        "key": "t_bool",
        "label": "mapping(bool => address)",
        "numberOfBytes": "32",
        "value": "t_address"
      },
      "t_mapping(t_bool,t_mapping(t_address,t_uint256))": {
        "encoding": "mapping",
        "key": "t_bool",
        "label": "mapping(bool => mapping(address => uint256))",
        "numberOfBytes": "32",
        "value": "t_mapping(t_address,t_uint256)"
      },
      "t_mapping(t_bool,t_mapping(t_uint256,t_uint256))": {
        "encoding": "mapping",
        "key": "t_bool",
        "label": "mapping(bool => mapping(uint256 => uint256))",
        "numberOfBytes": "32",
        "value": "t_mapping(t_uint256,t_uint256)"
      },
      "t_mapping(t_bool,t_uint256)": {
        "encoding": "mapping",
        "key": "t_bool",
        "label": "mapping(bool => uint256)",
        "numberOfBytes": "32",
        "value": "t_uint256"
      },
      "t_mapping(t_bytes32,t_struct(RoleData)345_storage)": {
        "encoding": "mapping",
        "key": "t_bytes32",
        "label": "mapping(bytes32 => struct AccessControlUpgradeable.RoleData)",
        "numberOfBytes": "32",
        "value": "t_struct(RoleData)345_storage"
      },
      "t_mapping(t_uint256,t_uint256)": {
        "encoding": "mapping",
        "key": "t_uint256",
        "label": "mapping(uint256 => uint256)",
        "numberOfBytes": "32",
        "value": "t_uint256"
      },
      "t_mapping(t_uint32,t_address)": {
        "encoding": "mapping",
        "key": "t_uint32",
        "label": "mapping(uint32 => address)",
        "numberOfBytes": "32",
        "value": "t_address"
      },
      "t_mapping(t_uint32,t_bool)": {
        "encoding": "mapping",
        "key": "t_uint32",
        "label": "mapping(uint32 => bool)",
        "numberOfBytes": "32",
        "value": "t_bool"
      },
      "t_mapping(t_uint32,t_int256)": {
        "encoding": "mapping",
        "key": "t_uint32",
        "label": "mapping(uint32 => int256)",
        "numberOfBytes": "32",
        "value": "t_int256"
      },
      "t_mapping(t_uint32,t_mapping(t_address,t_uint256))": {
        "encoding": "mapping",
        "key": "t_uint32",
        "label": "mapping(uint32 => mapping(address => uint256))",
        "numberOfBytes": "32",
        "value": "t_mapping(t_address,t_uint256)"
      },
      "t_mapping(t_uint32,t_mapping(t_bool,t_address))": {
        "encoding": "mapping",
        "key": "t_uint32",
        "label": "mapping(uint32 => mapping(bool => address))",
        "numberOfBytes": "32",
        "value": "t_mapping(t_bool,t_address)"
      },
      "t_mapping(t_uint32,t_mapping(t_bool,t_mapping(t_address,t_uint256)))": {
        "encoding": "mapping",
        "key": "t_uint32",
        "label": "mapping(uint32 => mapping(bool => mapping(address => uint256)))",
        "numberOfBytes": "32",
        "value": "t_mapping(t_bool,t_mapping(t_address,t_uint256))"
      },
      "t_mapping(t_uint32,t_mapping(t_bool,t_mapping(t_uint256,t_uint256)))": {
        "encoding": "mapping",
        "key": "t_uint32",
        "label": "mapping(uint32 => mapping(bool => mapping(uint256 => uint256)))",
        "numberOfBytes": "32",
        "value": "t_mapping(t_bool,t_mapping(t_uint256,t_uint256))"
      },
      "t_mapping(t_uint32,t_mapping(t_bool,t_uint256))": {
        "encoding": "mapping",
        "key": "t_uint32",
        "label": "mapping(uint32 => mapping(bool => uint256))",
        "numberOfBytes": "32",
        "value": "t_mapping(t_bool,t_uint256)"
      },
      "t_mapping(t_uint32,t_uint256)": {
        "encoding": "mapping",
        "key": "t_uint32",
        "label": "mapping(uint32 => uint256)",
        "numberOfBytes": "32",
        "value": "t_uint256"
      },
      "t_struct(RoleData)345_storage": {
        "encoding": "inplace",
        "label": "struct AccessControlUpgradeable.RoleData",
        "members": [
          {
            "astId": 342,
            "contract": "contracts/LongShort.sol:LongShort",
            "label": "members",
            "offset": 0,
            "slot": "0",
            "type": "t_mapping(t_address,t_bool)"
          },
          {
            "astId": 344,
            "contract": "contracts/LongShort.sol:LongShort",
            "label": "adminRole",
            "offset": 0,
            "slot": "1",
            "type": "t_bytes32"
          }
        ],
        "numberOfBytes": "64"
      },
      "t_uint256": {
        "encoding": "inplace",
        "label": "uint256",
        "numberOfBytes": "32"
      },
      "t_uint32": {
        "encoding": "inplace",
        "label": "uint32",
        "numberOfBytes": "4"
      }
    }
  }
}