{
  "address": "0x7a1ae3824e07656419b1B765c0917D4948fC4c3B",
  "abi": [
    {
      "anonymous": false,
      "inputs": [
        {
          "indexed": false,
          "internalType": "address",
          "name": "previousAdmin",
          "type": "address"
        },
        {
          "indexed": false,
          "internalType": "address",
          "name": "newAdmin",
          "type": "address"
        }
      ],
      "name": "AdminChanged",
      "type": "event"
    },
    {
      "anonymous": false,
      "inputs": [
        {
          "indexed": true,
          "internalType": "address",
          "name": "beacon",
          "type": "address"
        }
      ],
      "name": "BeaconUpgraded",
      "type": "event"
    },
    {
      "anonymous": false,
      "inputs": [
        {
          "indexed": false,
          "internalType": "address",
          "name": "user",
          "type": "address"
        },
        {
          "indexed": false,
          "internalType": "uint32",
          "name": "marketIndex",
          "type": "uint32"
        }
      ],
      "name": "ExecuteNextPriceSettlementsUser",
      "type": "event"
    },
    {
      "anonymous": false,
      "inputs": [
        {
          "indexed": false,
          "internalType": "address",
          "name": "admin",
          "type": "address"
        },
        {
          "indexed": false,
          "internalType": "address",
          "name": "tokenFactory",
          "type": "address"
        },
        {
          "indexed": false,
          "internalType": "address",
          "name": "staker",
          "type": "address"
        }
      ],
      "name": "LongShortV1",
      "type": "event"
    },
    {
      "anonymous": false,
      "inputs": [
        {
          "indexed": false,
          "internalType": "uint32",
          "name": "marketIndex",
          "type": "uint32"
        },
        {
          "indexed": false,
          "internalType": "uint256",
          "name": "initialSeed",
          "type": "uint256"
        }
      ],
      "name": "NewMarketLaunchedAndSeeded",
      "type": "event"
    },
    {
      "anonymous": false,
      "inputs": [
        {
          "indexed": false,
          "internalType": "uint32",
          "name": "marketIndex",
          "type": "uint32"
        },
        {
          "indexed": false,
          "internalType": "bool",
          "name": "isLong",
          "type": "bool"
        },
        {
          "indexed": false,
          "internalType": "uint256",
          "name": "depositAdded",
          "type": "uint256"
        },
        {
          "indexed": false,
          "internalType": "address",
          "name": "user",
          "type": "address"
        },
        {
          "indexed": false,
          "internalType": "uint256",
          "name": "oracleUpdateIndex",
          "type": "uint256"
        }
      ],
      "name": "NextPriceDeposit",
      "type": "event"
    },
    {
      "anonymous": false,
      "inputs": [
        {
          "indexed": false,
          "internalType": "uint32",
          "name": "marketIndex",
          "type": "uint32"
        },
        {
          "indexed": false,
          "internalType": "bool",
          "name": "isLong",
          "type": "bool"
        },
        {
          "indexed": false,
          "internalType": "uint256",
          "name": "synthRedeemed",
          "type": "uint256"
        },
        {
          "indexed": false,
          "internalType": "address",
          "name": "user",
          "type": "address"
        },
        {
          "indexed": false,
          "internalType": "uint256",
          "name": "oracleUpdateIndex",
          "type": "uint256"
        }
      ],
      "name": "NextPriceRedeem",
      "type": "event"
    },
    {
      "anonymous": false,
      "inputs": [
        {
          "indexed": false,
          "internalType": "uint32",
          "name": "marketIndex",
          "type": "uint32"
        },
        {
          "indexed": false,
          "internalType": "bool",
          "name": "isShiftFromLong",
          "type": "bool"
        },
        {
          "indexed": false,
          "internalType": "uint256",
          "name": "synthShifted",
          "type": "uint256"
        },
        {
          "indexed": false,
          "internalType": "address",
          "name": "user",
          "type": "address"
        },
        {
          "indexed": false,
          "internalType": "uint256",
          "name": "oracleUpdateIndex",
          "type": "uint256"
        }
      ],
      "name": "NextPriceSyntheticPositionShift",
      "type": "event"
    },
    {
      "anonymous": false,
      "inputs": [
        {
          "indexed": false,
          "internalType": "uint32",
          "name": "marketIndex",
          "type": "uint32"
        },
        {
          "indexed": false,
          "internalType": "address",
          "name": "oldOracleAddress",
          "type": "address"
        },
        {
          "indexed": false,
          "internalType": "address",
          "name": "newOracleAddress",
          "type": "address"
        }
      ],
      "name": "OracleUpdated",
      "type": "event"
    },
    {
      "anonymous": false,
      "inputs": [
        {
          "indexed": true,
          "internalType": "bytes32",
          "name": "role",
          "type": "bytes32"
        },
        {
          "indexed": true,
          "internalType": "bytes32",
          "name": "previousAdminRole",
          "type": "bytes32"
        },
        {
          "indexed": true,
          "internalType": "bytes32",
          "name": "newAdminRole",
          "type": "bytes32"
        }
      ],
      "name": "RoleAdminChanged",
      "type": "event"
    },
    {
      "anonymous": false,
      "inputs": [
        {
          "indexed": true,
          "internalType": "bytes32",
          "name": "role",
          "type": "bytes32"
        },
        {
          "indexed": true,
          "internalType": "address",
          "name": "account",
          "type": "address"
        },
        {
          "indexed": true,
          "internalType": "address",
          "name": "sender",
          "type": "address"
        }
      ],
      "name": "RoleGranted",
      "type": "event"
    },
    {
      "anonymous": false,
      "inputs": [
        {
          "indexed": true,
          "internalType": "bytes32",
          "name": "role",
          "type": "bytes32"
        },
        {
          "indexed": true,
          "internalType": "address",
          "name": "account",
          "type": "address"
        },
        {
          "indexed": true,
          "internalType": "address",
          "name": "sender",
          "type": "address"
        }
      ],
      "name": "RoleRevoked",
      "type": "event"
    },
    {
      "anonymous": false,
      "inputs": [
        {
          "indexed": false,
          "internalType": "uint32",
          "name": "marketIndex",
          "type": "uint32"
        },
        {
          "indexed": false,
          "internalType": "address",
          "name": "longTokenAddress",
          "type": "address"
        },
        {
          "indexed": false,
          "internalType": "address",
          "name": "shortTokenAddress",
          "type": "address"
        },
        {
          "indexed": false,
          "internalType": "address",
          "name": "paymentToken",
          "type": "address"
        },
        {
          "indexed": false,
          "internalType": "int256",
          "name": "initialAssetPrice",
          "type": "int256"
        },
        {
          "indexed": false,
          "internalType": "string",
          "name": "name",
          "type": "string"
        },
        {
          "indexed": false,
          "internalType": "string",
          "name": "symbol",
          "type": "string"
        },
        {
          "indexed": false,
          "internalType": "address",
          "name": "oracleAddress",
          "type": "address"
        },
        {
          "indexed": false,
          "internalType": "address",
          "name": "yieldManagerAddress",
          "type": "address"
        }
      ],
      "name": "SyntheticMarketCreated",
      "type": "event"
    },
    {
      "anonymous": false,
      "inputs": [
        {
          "indexed": false,
          "internalType": "uint32",
          "name": "marketIndex",
          "type": "uint32"
        },
        {
          "indexed": false,
          "internalType": "uint256",
          "name": "updateIndex",
          "type": "uint256"
        },
        {
          "indexed": false,
          "internalType": "int256",
          "name": "underlyingAssetPrice",
          "type": "int256"
        },
        {
          "indexed": false,
          "internalType": "uint256",
          "name": "longValue",
          "type": "uint256"
        },
        {
          "indexed": false,
          "internalType": "uint256",
          "name": "shortValue",
          "type": "uint256"
        },
        {
          "indexed": false,
          "internalType": "uint256",
          "name": "longPrice",
          "type": "uint256"
        },
        {
          "indexed": false,
          "internalType": "uint256",
          "name": "shortPrice",
          "type": "uint256"
        }
      ],
      "name": "SystemStateUpdated",
      "type": "event"
    },
    {
      "anonymous": false,
      "inputs": [
        {
          "indexed": true,
          "internalType": "address",
          "name": "implementation",
          "type": "address"
        }
      ],
      "name": "Upgraded",
      "type": "event"
    },
    {
      "inputs": [],
      "name": "ADMIN_ROLE",
      "outputs": [
        {
          "internalType": "bytes32",
          "name": "",
          "type": "bytes32"
        }
      ],
      "stateMutability": "view",
      "type": "function"
    },
    {
      "inputs": [],
      "name": "DEFAULT_ADMIN_ROLE",
      "outputs": [
        {
          "internalType": "bytes32",
          "name": "",
          "type": "bytes32"
        }
      ],
      "stateMutability": "view",
      "type": "function"
    },
    {
      "inputs": [],
      "name": "PERMANENT_INITIAL_LIQUIDITY_HOLDER",
      "outputs": [
        {
          "internalType": "address",
          "name": "",
          "type": "address"
        }
      ],
      "stateMutability": "view",
      "type": "function"
    },
    {
      "inputs": [],
      "name": "UPGRADER_ROLE",
      "outputs": [
        {
          "internalType": "bytes32",
          "name": "",
          "type": "bytes32"
        }
      ],
      "stateMutability": "view",
      "type": "function"
    },
    {
      "inputs": [
        {
          "internalType": "uint32",
          "name": "",
          "type": "uint32"
        }
      ],
      "name": "assetPrice",
      "outputs": [
        {
          "internalType": "int256",
          "name": "",
          "type": "int256"
        }
      ],
      "stateMutability": "view",
      "type": "function"
    },
    {
      "inputs": [
        {
          "internalType": "uint32",
          "name": "",
          "type": "uint32"
        },
        {
          "internalType": "bool",
          "name": "",
          "type": "bool"
        }
      ],
      "name": "batched_amountPaymentToken_deposit",
      "outputs": [
        {
          "internalType": "uint256",
          "name": "",
          "type": "uint256"
        }
      ],
      "stateMutability": "view",
      "type": "function"
    },
    {
      "inputs": [
        {
          "internalType": "uint32",
          "name": "",
          "type": "uint32"
        },
        {
          "internalType": "bool",
          "name": "",
          "type": "bool"
        }
      ],
      "name": "batched_amountSyntheticToken_redeem",
      "outputs": [
        {
          "internalType": "uint256",
          "name": "",
          "type": "uint256"
        }
      ],
      "stateMutability": "view",
      "type": "function"
    },
    {
      "inputs": [
        {
          "internalType": "uint32",
          "name": "",
          "type": "uint32"
        },
        {
          "internalType": "bool",
          "name": "",
          "type": "bool"
        }
      ],
      "name": "batched_amountSyntheticToken_toShiftAwayFrom_marketSide",
      "outputs": [
        {
          "internalType": "uint256",
          "name": "",
          "type": "uint256"
        }
      ],
      "stateMutability": "view",
      "type": "function"
    },
    {
      "inputs": [
        {
          "internalType": "uint32",
          "name": "marketIndex",
          "type": "uint32"
        },
        {
          "internalType": "uint256",
          "name": "_marketTreasurySplitGradient_e18",
          "type": "uint256"
        }
      ],
      "name": "changeMarketTreasurySplitGradient",
      "outputs": [],
      "stateMutability": "nonpayable",
      "type": "function"
    },
    {
      "inputs": [
        {
          "internalType": "string",
          "name": "syntheticName",
          "type": "string"
        },
        {
          "internalType": "string",
          "name": "syntheticSymbol",
          "type": "string"
        },
        {
          "internalType": "address",
          "name": "_paymentToken",
          "type": "address"
        },
        {
          "internalType": "address",
          "name": "_oracleManager",
          "type": "address"
        },
        {
          "internalType": "address",
          "name": "_yieldManager",
          "type": "address"
        }
      ],
      "name": "createNewSyntheticMarket",
      "outputs": [],
      "stateMutability": "nonpayable",
      "type": "function"
    },
    {
      "inputs": [
        {
          "internalType": "string",
          "name": "syntheticName",
          "type": "string"
        },
        {
          "internalType": "string",
          "name": "syntheticSymbol",
          "type": "string"
        },
        {
          "internalType": "address",
          "name": "_longToken",
          "type": "address"
        },
        {
          "internalType": "address",
          "name": "_shortToken",
          "type": "address"
        },
        {
          "internalType": "address",
          "name": "_paymentToken",
          "type": "address"
        },
        {
          "internalType": "address",
          "name": "_oracleManager",
          "type": "address"
        },
        {
          "internalType": "address",
          "name": "_yieldManager",
          "type": "address"
        }
      ],
      "name": "createNewSyntheticMarketExternalSyntheticTokens",
      "outputs": [],
      "stateMutability": "nonpayable",
      "type": "function"
    },
    {
      "inputs": [
        {
          "internalType": "address",
          "name": "user",
          "type": "address"
        },
        {
          "internalType": "uint32",
          "name": "marketIndex",
          "type": "uint32"
        }
      ],
      "name": "executeOutstandingNextPriceSettlementsUser",
      "outputs": [],
      "stateMutability": "nonpayable",
      "type": "function"
    },
    {
      "inputs": [
        {
          "internalType": "address",
          "name": "user",
          "type": "address"
        },
        {
          "internalType": "uint32[]",
          "name": "marketIndexes",
          "type": "uint32[]"
        }
      ],
      "name": "executeOutstandingNextPriceSettlementsUserMulti",
      "outputs": [],
      "stateMutability": "nonpayable",
      "type": "function"
    },
    {
      "inputs": [
        {
          "internalType": "uint32",
          "name": "marketIndex",
          "type": "uint32"
        },
        {
          "internalType": "uint256",
          "name": "amountSyntheticToken_redeemOnOriginSide",
          "type": "uint256"
        },
        {
          "internalType": "bool",
          "name": "isShiftFromLong",
          "type": "bool"
        },
        {
          "internalType": "uint256",
          "name": "priceSnapshotIndex",
          "type": "uint256"
        }
      ],
      "name": "getAmountSyntheticTokenToMintOnTargetSide",
      "outputs": [
        {
          "internalType": "uint256",
          "name": "amountSyntheticTokensToMintOnTargetSide",
          "type": "uint256"
        }
      ],
      "stateMutability": "view",
      "type": "function"
    },
    {
      "inputs": [
        {
          "internalType": "bytes32",
          "name": "role",
          "type": "bytes32"
        }
      ],
      "name": "getRoleAdmin",
      "outputs": [
        {
          "internalType": "bytes32",
          "name": "",
          "type": "bytes32"
        }
      ],
      "stateMutability": "view",
      "type": "function"
    },
    {
      "inputs": [
        {
          "internalType": "address",
          "name": "user",
          "type": "address"
        },
        {
          "internalType": "uint32",
          "name": "marketIndex",
          "type": "uint32"
        },
        {
          "internalType": "bool",
          "name": "isLong",
          "type": "bool"
        }
      ],
      "name": "getUsersConfirmedButNotSettledSynthBalance",
      "outputs": [
        {
          "internalType": "uint256",
          "name": "confirmedButNotSettledBalance",
          "type": "uint256"
        }
      ],
      "stateMutability": "view",
      "type": "function"
    },
    {
      "inputs": [
        {
          "internalType": "bytes32",
          "name": "role",
          "type": "bytes32"
        },
        {
          "internalType": "address",
          "name": "account",
          "type": "address"
        }
      ],
      "name": "grantRole",
      "outputs": [],
      "stateMutability": "nonpayable",
      "type": "function"
    },
    {
      "inputs": [
        {
          "internalType": "bytes32",
          "name": "role",
          "type": "bytes32"
        },
        {
          "internalType": "address",
          "name": "account",
          "type": "address"
        }
      ],
      "name": "hasRole",
      "outputs": [
        {
          "internalType": "bool",
          "name": "",
          "type": "bool"
        }
      ],
      "stateMutability": "view",
      "type": "function"
    },
    {
      "inputs": [
        {
          "internalType": "address",
          "name": "_admin",
          "type": "address"
        },
        {
          "internalType": "address",
          "name": "_tokenFactory",
          "type": "address"
        },
        {
          "internalType": "address",
          "name": "_staker",
          "type": "address"
        }
      ],
      "name": "initialize",
      "outputs": [],
      "stateMutability": "nonpayable",
      "type": "function"
    },
    {
      "inputs": [
        {
          "internalType": "uint32",
          "name": "marketIndex",
          "type": "uint32"
        },
        {
          "internalType": "uint256",
          "name": "kInitialMultiplier",
          "type": "uint256"
        },
        {
          "internalType": "uint256",
          "name": "kPeriod",
          "type": "uint256"
        },
        {
          "internalType": "uint256",
          "name": "unstakeFee_e18",
          "type": "uint256"
        },
        {
          "internalType": "uint256",
          "name": "initialMarketSeedForEachMarketSide",
          "type": "uint256"
        },
        {
          "internalType": "uint256",
          "name": "balanceIncentiveCurve_exponent",
          "type": "uint256"
        },
        {
          "internalType": "int256",
          "name": "balanceIncentiveCurve_equilibriumOffset",
          "type": "int256"
        },
        {
          "internalType": "uint256",
          "name": "_marketTreasurySplitGradient_e18",
          "type": "uint256"
        }
      ],
      "name": "initializeMarket",
      "outputs": [],
      "stateMutability": "nonpayable",
      "type": "function"
    },
    {
      "inputs": [],
      "name": "latestMarket",
      "outputs": [
        {
          "internalType": "uint32",
          "name": "",
          "type": "uint32"
        }
      ],
      "stateMutability": "view",
      "type": "function"
    },
    {
      "inputs": [
        {
          "internalType": "uint32",
          "name": "",
          "type": "uint32"
        }
      ],
      "name": "marketExists",
      "outputs": [
        {
          "internalType": "bool",
          "name": "",
          "type": "bool"
        }
      ],
      "stateMutability": "view",
      "type": "function"
    },
    {
      "inputs": [
        {
          "internalType": "uint32",
          "name": "",
          "type": "uint32"
        },
        {
          "internalType": "bool",
          "name": "",
          "type": "bool"
        }
      ],
      "name": "marketSideValueInPaymentToken",
      "outputs": [
        {
          "internalType": "uint256",
          "name": "",
          "type": "uint256"
        }
      ],
      "stateMutability": "view",
      "type": "function"
    },
    {
      "inputs": [
        {
          "internalType": "uint32",
          "name": "",
          "type": "uint32"
        }
      ],
      "name": "marketTreasurySplitGradient_e18",
      "outputs": [
        {
          "internalType": "uint256",
          "name": "",
          "type": "uint256"
        }
      ],
      "stateMutability": "view",
      "type": "function"
    },
    {
      "inputs": [
        {
          "internalType": "uint32",
          "name": "",
          "type": "uint32"
        }
      ],
      "name": "marketUpdateIndex",
      "outputs": [
        {
          "internalType": "uint256",
          "name": "",
          "type": "uint256"
        }
      ],
      "stateMutability": "view",
      "type": "function"
    },
    {
      "inputs": [
        {
          "internalType": "uint32",
          "name": "marketIndex",
          "type": "uint32"
        },
        {
          "internalType": "uint256",
          "name": "amount",
          "type": "uint256"
        }
      ],
      "name": "mintLongNextPrice",
      "outputs": [],
      "stateMutability": "nonpayable",
      "type": "function"
    },
    {
      "inputs": [
        {
          "internalType": "uint32",
          "name": "marketIndex",
          "type": "uint32"
        },
        {
          "internalType": "uint256",
          "name": "amount",
          "type": "uint256"
        }
      ],
      "name": "mintShortNextPrice",
      "outputs": [],
      "stateMutability": "nonpayable",
      "type": "function"
    },
    {
      "inputs": [
        {
          "internalType": "uint32",
          "name": "",
          "type": "uint32"
        }
      ],
      "name": "oracleManagers",
      "outputs": [
        {
          "internalType": "address",
          "name": "",
          "type": "address"
        }
      ],
      "stateMutability": "view",
      "type": "function"
    },
    {
      "inputs": [
        {
          "internalType": "uint32",
          "name": "",
          "type": "uint32"
        }
      ],
      "name": "paymentTokens",
      "outputs": [
        {
          "internalType": "address",
          "name": "",
          "type": "address"
        }
      ],
      "stateMutability": "view",
      "type": "function"
    },
    {
      "inputs": [
        {
          "internalType": "uint32",
          "name": "marketIndex",
          "type": "uint32"
        },
        {
          "internalType": "uint256",
          "name": "tokens_redeem",
          "type": "uint256"
        }
      ],
      "name": "redeemLongNextPrice",
      "outputs": [],
      "stateMutability": "nonpayable",
      "type": "function"
    },
    {
      "inputs": [
        {
          "internalType": "uint32",
          "name": "marketIndex",
          "type": "uint32"
        },
        {
          "internalType": "uint256",
          "name": "tokens_redeem",
          "type": "uint256"
        }
      ],
      "name": "redeemShortNextPrice",
      "outputs": [],
      "stateMutability": "nonpayable",
      "type": "function"
    },
    {
      "inputs": [
        {
          "internalType": "bytes32",
          "name": "role",
          "type": "bytes32"
        },
        {
          "internalType": "address",
          "name": "account",
          "type": "address"
        }
      ],
      "name": "renounceRole",
      "outputs": [],
      "stateMutability": "nonpayable",
      "type": "function"
    },
    {
      "inputs": [
        {
          "internalType": "bytes32",
          "name": "role",
          "type": "bytes32"
        },
        {
          "internalType": "address",
          "name": "account",
          "type": "address"
        }
      ],
      "name": "revokeRole",
      "outputs": [],
      "stateMutability": "nonpayable",
      "type": "function"
    },
    {
      "inputs": [
        {
          "internalType": "uint32",
          "name": "marketIndex",
          "type": "uint32"
        },
        {
          "internalType": "uint256",
          "name": "amountSyntheticTokensToShift",
          "type": "uint256"
        }
      ],
      "name": "shiftPositionFromLongNextPrice",
      "outputs": [],
      "stateMutability": "nonpayable",
      "type": "function"
    },
    {
      "inputs": [
        {
          "internalType": "uint32",
          "name": "marketIndex",
          "type": "uint32"
        },
        {
          "internalType": "uint256",
          "name": "amountSyntheticTokensToShift",
          "type": "uint256"
        }
      ],
      "name": "shiftPositionFromShortNextPrice",
      "outputs": [],
      "stateMutability": "nonpayable",
      "type": "function"
    },
    {
      "inputs": [
        {
          "internalType": "uint32",
          "name": "marketIndex",
          "type": "uint32"
        },
        {
          "internalType": "uint256",
          "name": "amountSyntheticTokensToShift",
          "type": "uint256"
        },
        {
          "internalType": "bool",
          "name": "isShiftFromLong",
          "type": "bool"
        }
      ],
      "name": "shiftPositionNextPrice",
      "outputs": [],
      "stateMutability": "nonpayable",
      "type": "function"
    },
    {
      "inputs": [],
      "name": "staker",
      "outputs": [
        {
          "internalType": "address",
          "name": "",
          "type": "address"
        }
      ],
      "stateMutability": "view",
      "type": "function"
    },
    {
      "inputs": [
        {
          "internalType": "bytes4",
          "name": "interfaceId",
          "type": "bytes4"
        }
      ],
      "name": "supportsInterface",
      "outputs": [
        {
          "internalType": "bool",
          "name": "",
          "type": "bool"
        }
      ],
      "stateMutability": "view",
      "type": "function"
    },
    {
      "inputs": [
        {
          "internalType": "uint32",
          "name": "",
          "type": "uint32"
        },
        {
          "internalType": "bool",
          "name": "",
          "type": "bool"
        },
        {
          "internalType": "uint256",
          "name": "",
          "type": "uint256"
        }
      ],
      "name": "syntheticToken_priceSnapshot",
      "outputs": [
        {
          "internalType": "uint256",
          "name": "",
          "type": "uint256"
        }
      ],
      "stateMutability": "view",
      "type": "function"
    },
    {
      "inputs": [
        {
          "internalType": "uint32",
          "name": "",
          "type": "uint32"
        },
        {
          "internalType": "bool",
          "name": "",
          "type": "bool"
        }
      ],
      "name": "syntheticTokens",
      "outputs": [
        {
          "internalType": "address",
          "name": "",
          "type": "address"
        }
      ],
      "stateMutability": "view",
      "type": "function"
    },
    {
      "inputs": [],
      "name": "tokenFactory",
      "outputs": [
        {
          "internalType": "address",
          "name": "",
          "type": "address"
        }
      ],
      "stateMutability": "view",
      "type": "function"
    },
    {
      "inputs": [
        {
          "internalType": "uint32",
          "name": "marketIndex",
          "type": "uint32"
        },
        {
          "internalType": "address",
          "name": "_newOracleManager",
          "type": "address"
        }
      ],
      "name": "updateMarketOracle",
      "outputs": [],
      "stateMutability": "nonpayable",
      "type": "function"
    },
    {
      "inputs": [
        {
          "internalType": "uint32",
          "name": "marketIndex",
          "type": "uint32"
        }
      ],
      "name": "updateSystemState",
      "outputs": [],
      "stateMutability": "nonpayable",
      "type": "function"
    },
    {
      "inputs": [
        {
          "internalType": "uint32[]",
          "name": "marketIndexes",
          "type": "uint32[]"
        }
      ],
      "name": "updateSystemStateMulti",
      "outputs": [],
      "stateMutability": "nonpayable",
      "type": "function"
    },
    {
      "inputs": [
        {
          "internalType": "address",
          "name": "newImplementation",
          "type": "address"
        }
      ],
      "name": "upgradeTo",
      "outputs": [],
      "stateMutability": "nonpayable",
      "type": "function"
    },
    {
      "inputs": [
        {
          "internalType": "address",
          "name": "newImplementation",
          "type": "address"
        },
        {
          "internalType": "bytes",
          "name": "data",
          "type": "bytes"
        }
      ],
      "name": "upgradeToAndCall",
      "outputs": [],
      "stateMutability": "payable",
      "type": "function"
    },
    {
      "inputs": [
        {
          "internalType": "uint32",
          "name": "",
          "type": "uint32"
        },
        {
          "internalType": "address",
          "name": "",
          "type": "address"
        }
      ],
      "name": "userNextPrice_currentUpdateIndex",
      "outputs": [
        {
          "internalType": "uint256",
          "name": "",
          "type": "uint256"
        }
      ],
      "stateMutability": "view",
      "type": "function"
    },
    {
      "inputs": [
        {
          "internalType": "uint32",
          "name": "",
          "type": "uint32"
        },
        {
          "internalType": "bool",
          "name": "",
          "type": "bool"
        },
        {
          "internalType": "address",
          "name": "",
          "type": "address"
        }
      ],
      "name": "userNextPrice_paymentToken_depositAmount",
      "outputs": [
        {
          "internalType": "uint256",
          "name": "",
          "type": "uint256"
        }
      ],
      "stateMutability": "view",
      "type": "function"
    },
    {
      "inputs": [
        {
          "internalType": "uint32",
          "name": "",
          "type": "uint32"
        },
        {
          "internalType": "bool",
          "name": "",
          "type": "bool"
        },
        {
          "internalType": "address",
          "name": "",
          "type": "address"
        }
      ],
      "name": "userNextPrice_syntheticToken_redeemAmount",
      "outputs": [
        {
          "internalType": "uint256",
          "name": "",
          "type": "uint256"
        }
      ],
      "stateMutability": "view",
      "type": "function"
    },
    {
      "inputs": [
        {
          "internalType": "uint32",
          "name": "",
          "type": "uint32"
        },
        {
          "internalType": "bool",
          "name": "",
          "type": "bool"
        },
        {
          "internalType": "address",
          "name": "",
          "type": "address"
        }
      ],
      "name": "userNextPrice_syntheticToken_toShiftAwayFrom_marketSide",
      "outputs": [
        {
          "internalType": "uint256",
          "name": "",
          "type": "uint256"
        }
      ],
      "stateMutability": "view",
      "type": "function"
    },
    {
      "inputs": [
        {
          "internalType": "uint32",
          "name": "",
          "type": "uint32"
        }
      ],
      "name": "yieldManagers",
      "outputs": [
        {
          "internalType": "address",
          "name": "",
          "type": "address"
        }
      ],
      "stateMutability": "view",
      "type": "function"
    }
  ],
  "transactionHash": "0xa77ceb43438d55df5aea10c2f349c97efdacc037cbf79c83058093f87367e97b",
  "args": [],
  "solcInputHash": "7318db9058d08bfb220c028ef0ea41c0",
  "bytecode": "0x608060405234801561001057600080fd5b50614c5a806100206000396000f3fe6080604052600436106102e45760003560e01c8063867dfc6d11610190578063c0c53b8b116100dc578063e6b604e011610095578063f41cb1951161006f578063f41cb19514610aa2578063f68a327f14610ad9578063f72c0d8b14610af9578063f80c9b9214610b2d576102e4565b8063e6b604e014610a41578063e77772fe14610a61578063eeb0235214610a82576102e4565b8063c0c53b8b14610962578063c2b8007214610982578063c2e12471146109c1578063d547741f146109e1578063d88905c914610a01578063da04ce1414610a21576102e4565b80639c5b0ee311610149578063b054c4a111610123578063b054c4a11461088e578063b36f5374146108d0578063b3c7e21814610901578063bb0a45291461093a576102e4565b80639c5b0ee3146108095780639dc39e0f14610840578063a217fddf14610879576102e4565b8063867dfc6d1461073b5780638900bdfa1461075b578063897a07861461078957806391a9fa61146107a957806391d14854146107c957806392f6fe80146107e9576102e4565b80633d6a2b3f1161024f57806364e4a81d116102085780636f486c5b116101e25780636f486c5b1461068857806371fd9623146106c757806375b238fc146106e75780637a0e94f01461071b576102e4565b806364e4a81d1461060f578063682ad286146106485780636c8d2b9714610668576102e4565b80633d6a2b3f14610540578063414ffd50146105605780634f1ef286146105805780635ebaf1db14610593578063636190c8146105bc57806364d16f53146105ef576102e4565b8063248a9ca3116102a1578063248a9ca3146104385780632f2ff15d14610468578063348986841461048857806334daaa25146104c757806336568abe146105005780633659cfe614610520576102e4565b806301ffc9a7146102e957806305c8146f1461031e5780630e5140dc1461034057806314c88ffa1461038d5780631badf5c0146103bb57806321658e481461040a575b600080fd5b3480156102f557600080fd5b506103096103043660046142d1565b610b66565b60405190151581526020015b60405180910390f35b34801561032a57600080fd5b5061033e610339366004614481565b610b9f565b005b34801561034c57600080fd5b5061037f61035b3660046144f1565b61016760209081526000938452604080852082529284528284209052825290205481565b604051908152602001610315565b34801561039957600080fd5b5061037f6103a8366004614481565b6101596020526000908152604090205481565b3480156103c757600080fd5b506103f26103d6366004614481565b61015c602052600090815260409020546001600160a01b031681565b6040516001600160a01b039091168152602001610315565b34801561041657600080fd5b5061037f610425366004614481565b61015d6020526000908152604090205481565b34801561044457600080fd5b5061037f61045336600461428a565b60009081526065602052604090206001015490565b34801561047457600080fd5b5061033e6104833660046142a2565b610bab565b34801561049457600080fd5b5061037f6104a33660046144f1565b61016660209081526000938452604080852082529284528284209052825290205481565b3480156104d357600080fd5b5061037f6104e23660046144c6565b61016260209081526000928352604080842090915290825290205481565b34801561050c57600080fd5b5061033e61051b3660046142a2565b610bd7565b34801561052c57600080fd5b5061033e61053b366004613fa5565b610c5a565b34801561054c57600080fd5b5061033e61055b3660046143b7565b610c7e565b34801561056c57600080fd5b5061033e61057b3660046145fe565b610ea5565b61033e61058e3660046140eb565b61113c565b34801561059f57600080fd5b50610128546103f29064010000000090046001600160a01b031681565b3480156105c857600080fd5b50610128546105da9063ffffffff1681565b60405163ffffffff9091168152602001610315565b3480156105fb57600080fd5b5061033e61060a36600461449b565b611151565b34801561061b57600080fd5b5061037f61062a3660046144c6565b61016160209081526000928352604080842090915290825290205481565b34801561065457600080fd5b5061033e61066336600461455c565b6111d7565b34801561067457600080fd5b5061033e6106833660046141fe565b6111e3565b34801561069457600080fd5b5061037f6106a336600461451e565b61016060209081526000938452604080852082529284528284209052825290205481565b3480156106d357600080fd5b5061033e6106e2366004614585565b611244565b3480156106f357600080fd5b5061037f7fa49807205ce4d355092ef5a8a18f56e8913cf4a201fbe287825b095693c2177581565b34801561072757600080fd5b5061033e610736366004614027565b61140b565b34801561074757600080fd5b5061033e61075636600461455c565b61145b565b34801561076757600080fd5b5061037f610776366004614481565b6101586020526000908152604090205481565b34801561079557600080fd5b5061033e6107a436600461418d565b611467565b3480156107b557600080fd5b5061033e6107c436600461455c565b611471565b3480156107d557600080fd5b506103096107e43660046142a2565b61147d565b3480156107f557600080fd5b5061037f6108043660046145b9565b6114a8565b34801561081557600080fd5b506103f2610824366004614481565b61015b602052600090815260409020546001600160a01b031681565b34801561084c57600080fd5b5061037f61085b36600461449b565b61016460209081526000928352604080842090915290825290205481565b34801561088557600080fd5b5061037f600081565b34801561089a57600080fd5b506103f26108a93660046144c6565b61015e6020908152600092835260408084209091529082529020546001600160a01b031681565b3480156108dc57600080fd5b506103096108eb366004614481565b6101576020526000908152604090205460ff1681565b34801561090d57600080fd5b5061037f61091c3660046144c6565b61015f60209081526000928352604080842090915290825290205481565b34801561094657600080fd5b506103f273f10a7f10a7f10a7f10a7f10a7f10a7f10a7f10a781565b34801561096e57600080fd5b5061033e61097d366004613fdd565b6114fe565b34801561098e57600080fd5b5061037f61099d3660046144f1565b61016560209081526000938452604080852082529284528284209052825290205481565b3480156109cd57600080fd5b5061033e6109dc36600461455c565b61163a565b3480156109ed57600080fd5b5061033e6109fc3660046142a2565b611646565b348015610a0d57600080fd5b5061033e610a1c366004614311565b61166c565b348015610a2d57600080fd5b5061033e610a3c36600461455c565b611b3a565b348015610a4d57600080fd5b5061033e610a5c36600461455c565b611b5c565b348015610a6d57600080fd5b50610129546103f2906001600160a01b031681565b348015610a8e57600080fd5b5061033e610a9d36600461455c565b611b68565b348015610aae57600080fd5b506103f2610abd366004614481565b61015a602052600090815260409020546001600160a01b031681565b348015610ae557600080fd5b5061037f610af43660046141c1565b611b74565b348015610b0557600080fd5b5061037f7f189ab7a9244df0848122154315af71fe140f3db0fe014031783b0946b8c9d2e381565b348015610b3957600080fd5b5061037f610b483660046144c6565b61016360209081526000928352604080842090915290825290205481565b60006001600160e01b03198216637965db0b60e01b1480610b9757506301ffc9a760e01b6001600160e01b03198316145b90505b919050565b610ba881611ce0565b50565b600082815260656020526040902060010154610bc881335b6120d4565b610bd28383612138565b505050565b6001600160a01b0381163314610c4c5760405162461bcd60e51b815260206004820152602f60248201527f416363657373436f6e74726f6c3a2063616e206f6e6c792072656e6f756e636560448201526e103937b632b9903337b91039b2b63360891b60648201526084015b60405180910390fd5b610c5682826121be565b5050565b610c6381612225565b610ba881604051806020016040528060008152506000612250565b610c866123d1565b6101288054600091908290610ca09063ffffffff16614b5a565b91906101000a81548163ffffffff021916908363ffffffff16021790559050816001600160a01b031663edf565cc6040518163ffffffff1660e01b8152600401600060405180830381600087803b158015610cfa57600080fd5b505af1158015610d0e573d6000803e3d6000fd5b5050505063ffffffff8116600081815261015e6020908152604080832060018452825280832080546001600160a01b03199081166001600160a01b038d811691909117909255848052828520805482168c841617905594845261015a8352818420805486168a831617905561015b83528184208054861688831617905561015c835281842080549095169088169081179094558051630ce74fc560e31b8152905163673a7e2893600480840194938390030190829087803b158015610dd257600080fd5b505af1158015610de6573d6000803e3d6000fd5b505050506040513d601f19601f82011682018060405250810190610e0a91906142f9565b61015860008363ffffffff1663ffffffff168152602001908152602001600020819055507f901e73890694712ca72bdc627d356f05f11be45e7ccf490a8d4924c393bcb5658187878761015860008763ffffffff1663ffffffff168152602001908152602001600020548f8f8f8f8c8c604051610e919b9a99989796959493929190614880565b60405180910390a150505050505050505050565b610ead6123d1565b8615801590610ebb57508415155b8015610ec657508315155b8015610ed157508215155b8015610edc57508015155b610ee557600080fd5b63ffffffff88166000908152610157602052604090205460ff1615610f425760405162461bcd60e51b8152602060048201526013602482015272185b1c9958591e481a5b9a5d1a585b1a5e9959606a1b6044820152606401610c43565b6101285463ffffffff9081169089161115610f905760405162461bcd60e51b815260206004820152600e60248201526d0d2dcc8caf040e8dede40d0d2ced60931b6044820152606401610c43565b63ffffffff8816600090815261015760209081526040808320805460ff1916600190811790915561015d835281842085905561015990925290912055610fd684896123fd565b6101285463ffffffff8916600081815261015e6020908152604080832060018452909152808220548280529181902054905163b0956b5f60e01b815260048101939093526001600160a01b03918216602484015281166044830152606482018a90526084820189905260a4820188905260c4820186905260e482018590526401000000009092049091169063b0956b5f9061010401600060405180830381600087803b15801561108557600080fd5b505af1158015611099573d6000803e3d6000fd5b5050610128546040516317b4d3fb60e31b815263ffffffff8c16600482015260016024820152670de0b6b3a76400006044820181905260648201526084810188905260a481018890526401000000009091046001600160a01b0316925063bda69fd8915060c401600060405180830381600087803b15801561111a57600080fd5b505af115801561112e573d6000803e3d6000fd5b505050505050505050505050565b61114582612225565b610c5682826001612250565b6111596123d1565b63ffffffff8216600081815261015c602090815260409182902080546001600160a01b038681166001600160a01b03198316811790935584519586521691840182905291830191909152907ffc4d69f373858d480cfc3f12e7cc7f9b12201291753ffc3babef0e7a8041979f906060015b60405180910390a1505050565b610c5682826000611244565b8060005b8181101561123e5761122c84848381811061121257634e487b7160e01b600052603260045260246000fd5b90506020020160208101906112279190614481565b611ce0565b8061123681614b3f565b9150506111e7565b50505050565b338361124f81611ce0565b6112598282612673565b63ffffffff8516600090815261015e602090815260408083208615158452909152908190205490516323b872dd60e01b8152336004820152306024820152604481018690526001600160a01b03909116906323b872dd90606401602060405180830381600087803b1580156112cd57600080fd5b505af11580156112e1573d6000803e3d6000fd5b505050506040513d601f19601f82011682018060405250810190611305919061426e565b61130e57600080fd5b63ffffffff851660009081526101676020908152604080832086151584528252808320338452909152812080548692906113499084906149aa565b909155505063ffffffff8516600090815261015960205260408120546113709060016149aa565b63ffffffff87166000818152610164602090815260408083203384528252808320859055928252610163815282822088151583529052908120805492935087929091906113be9084906149aa565b90915550506040517fd850f5d8405edb0730cd72e6bb9e228043c91fd591562543ea553efda14970b6906113fb9088908790899033908790614904565b60405180910390a1505050505050565b805160005b8181101561123e576114498484838151811061143c57634e487b7160e01b600052603260045260246000fd5b6020026020010151612673565b8061145381614b3f565b915050611410565b610c5682826001612774565b610c568282612673565b610c5682826000612774565b60009182526065602090815260408084206001600160a01b0393909316845291905290205460ff1690565b63ffffffff84166000908152610160602090815260408083208515801585528184528285208686528452828520549085529083528184208585529092528220546114f386838361288b565b979650505050505050565b600054610100900460ff1680611517575060005460ff16155b6115335760405162461bcd60e51b8152600401610c4390614832565b600054610100900460ff16158015611555576000805461ffff19166101011790555b6001600160a01b0384161580159061157557506001600160a01b03831615155b801561158957506001600160a01b03821615155b61159257600080fd5b61159b846128aa565b61012980546001600160a01b0319166001600160a01b038581169182179092556101288054640100000000600160c01b031916640100000000868516908102919091179091556040805193881684526020840192909252908201527f48aa6e6153c5dedbe00925ab3c8e28c6ce0c1a80652b3369f176065e797b45079060600160405180910390a1801561123e576000805461ff001916905550505050565b610c568282600161292f565b6000828152606560205260409020600101546116628133610bc3565b610bd283836121be565b6116746123d1565b6001600160a01b0383161580159061169457506001600160a01b03821615155b80156116a857506001600160a01b03811615155b6116b157600080fd5b61012880546000919082906116cb9063ffffffff16614b5a565b91906101000a81548163ffffffff021916908363ffffffff16021790559050600061012860049054906101000a90046001600160a01b03169050826001600160a01b031663edf565cc6040518163ffffffff1660e01b8152600401600060405180830381600087803b15801561174057600080fd5b505af1158015611754573d6000803e3d6000fd5b5050610129546040516001600160a01b03909116925063e6d304679150611781908c908c906020016147a4565b60405160208183030381529060405289896040516020016117a3929190614711565b604051602081830303815290604052848660016040518663ffffffff1660e01b81526004016117d69594939291906147de565b602060405180830381600087803b1580156117f057600080fd5b505af1158015611804573d6000803e3d6000fd5b505050506040513d601f19601f820116820180604052508101906118289190613fc1565b63ffffffff8316600090815261015e602090815260408083206001845282529182902080546001600160a01b0319166001600160a01b03948516179055610129549151919092169163e6d3046791611884918d918d91016146e9565b60405160208183030381529060405289896040516020016118a69291906146cb565b604051602081830303815290604052848660006040518663ffffffff1660e01b81526004016118d99594939291906147de565b602060405180830381600087803b1580156118f357600080fd5b505af1158015611907573d6000803e3d6000fd5b505050506040513d601f19601f8201168201806040525081019061192b9190613fc1565b63ffffffff8316600081815261015e60209081526040808320838052825280832080546001600160a01b03199081166001600160a01b039788161790915593835261015a8252808320805485168b871617905561015b82528083208054851689871617905561015c825280832080549094169489169485179093558251630ce74fc560e31b8152925163673a7e2893600480820194918390030190829087803b1580156119d757600080fd5b505af11580156119eb573d6000803e3d6000fd5b505050506040513d601f19601f82011682018060405250810190611a0f91906142f9565b61015860008463ffffffff1663ffffffff168152602001908152602001600020819055507f901e73890694712ca72bdc627d356f05f11be45e7ccf490a8d4924c393bcb5658261015e60008563ffffffff1663ffffffff1681526020019081526020016000206000600115151515815260200190815260200160002060009054906101000a90046001600160a01b031661015e60008663ffffffff1663ffffffff16815260200190815260200160002060008015151515815260200190815260200160002060009054906101000a90046001600160a01b03168861015860008863ffffffff1663ffffffff168152602001908152602001600020548e8e8e8e8d8d604051611b279b9a99989796959493929190614880565b60405180910390a1505050505050505050565b611b426123d1565b63ffffffff909116600090815261015d6020526040902055565b610c568282600061292f565b610c5682826001611244565b600082611b8081612ade565b63ffffffff84166000908152610159602090815260408083205461016483528184206001600160a01b038a168552909252909120548015801590611bc45750818111155b15611cd65763ffffffff8616600090815261016560209081526040808320881515845282528083206001600160a01b038b1684529091529020548015611c3e5763ffffffff871660009081526101606020908152604080832089151584528252808320858452909152902054611c3a8282612b3b565b9550505b63ffffffff87166000908152610167602090815260408083208915845282528083206001600160a01b038c1684529091529020548015611cd35763ffffffff88166000908152610160602090815260408083208a158085528184528285208886528452828520549015855290835281842087855290925290912054611cc483838361288b565b611cce90896149aa565b975050505b50505b5050509392505050565b80611cea81612ade565b63ffffffff8216600090815261015c60209081526040808320548151630ce74fc560e31b815291516001600160a01b039091169263673a7e28926004808201939182900301818787803b158015611d4057600080fd5b505af1158015611d54573d6000803e3d6000fd5b505050506040513d601f19601f82011682018060405250810190611d7891906142f9565b63ffffffff841660009081526101596020908152604080832054610158909252909120549192509082148015906120cd5763ffffffff851660009081526101606020908152604080832060018452808352818420868552835281842054848052908352818420868552909252822054909180611df48988612b61565b63ffffffff8b16600090815261015e602090815260408083206001845282528083205481516318160ddd60e01b81529151959750939550611e9e9487946001600160a01b0316936318160ddd93600480850194919392918390030190829087803b158015611e6157600080fd5b505af1158015611e75573d6000803e3d6000fd5b505050506040513d601f19601f82011682018060405250810190611e9991906142f9565b612b3b565b63ffffffff8a16600090815261015e6020908152604080832083805282528083205481516318160ddd60e01b81529151949850611f099486946001600160a01b03909216936318160ddd93600480820194929392918390030190829087803b158015611e6157600080fd5b63ffffffff8a16600090815261015860205260409020889055925085611f2e81614b3f565b63ffffffff8b1660009081526101596020908152604080832084905561016082528083206001845280835281842085855283528184208a905583805282528083208484529091528120869055909750905080611f8b8b8787612d56565b9092509050611f9a8285614969565b9350611fa68184614969565b63ffffffff8c16600081815261015f6020908152604080832060018452909152808220889055818052908190208390556101285490516317b4d3fb60e31b81526004810192909252602482018b905260448201899052606482018890526084820187905260a482018390529194506401000000009091046001600160a01b03169063bda69fd89060c401600060405180830381600087803b15801561204a57600080fd5b505af115801561205e573d6000803e3d6000fd5b50506040805163ffffffff8f168152602081018c90529081018c9052606081018790526080810186905260a0810189905260c081018890527f69e662f95898affac086a5bc1177755bdaf7f4a40a3880364c48012170ee57fe925060e001905060405180910390a15050505050505b5050505050565b6120de828261147d565b610c56576120f6816001600160a01b03166014613055565b612101836020613055565b60405160200161211292919061472f565b60408051601f198184030181529082905262461bcd60e51b8252610c43916004016147cb565b612142828261147d565b610c565760008281526065602090815260408083206001600160a01b03851684529091529020805460ff1916600117905561217a3390565b6001600160a01b0316816001600160a01b0316837f2f8788117e7eff1d82e926ec794901d17c78024a50270940304540a733656f0d60405160405180910390a45050565b6121c8828261147d565b15610c565760008281526065602090815260408083206001600160a01b0385168085529252808320805460ff1916905551339285917ff6391f5c32d9c69d2a47ea670b442974b53935d1edc7fd64eb21e047a839171b9190a45050565b7f189ab7a9244df0848122154315af71fe140f3db0fe014031783b0946b8c9d2e3610c568133610bc3565b60006122837f360894a13ba1a3210667c828492db98dca3e2076cc3735a920a3ca505d382bbc546001600160a01b031690565b905061228e84613237565b60008351118061229b5750815b156122ac576122aa84846132dc565b505b7f4910fdfa16fed3260ed0e7147f7cc6da11a60208b5b9406d12a635614ffd9143805460ff166120cd57805460ff191660011781556040516001600160a01b038316602482015261232b90869060440160408051601f198184030181529190526020810180516001600160e01b0316631b2ce7f360e11b1790526132dc565b50805460ff191681557f360894a13ba1a3210667c828492db98dca3e2076cc3735a920a3ca505d382bbc546001600160a01b038381169116146123c85760405162461bcd60e51b815260206004820152602f60248201527f45524331393637557067726164653a207570677261646520627265616b73206660448201526e75727468657220757067726164657360881b6064820152608401610c43565b6120cd856133c7565b6123fb7fa49807205ce4d355092ef5a8a18f56e8913cf4a201fbe287825b095693c21775336120d4565b565b670de0b6b3a76400008210156124555760405162461bcd60e51b815260206004820152601860248201527f496e73756666696369656e74206d61726b6574207365656400000000000000006044820152606401610c43565b6000612462836002614a87565b905061246e8282613407565b63ffffffff8216600090815261015b6020526040908190205490516304831f7160e51b8152600481018390526001600160a01b0390911690639063ee2090602401600060405180830381600087803b1580156124c957600080fd5b505af11580156124dd573d6000803e3d6000fd5b5050505063ffffffff8216600090815261015e6020908152604080832060018452909152908190205490516340c10f1960e01b815273f10a7f10a7f10a7f10a7f10a7f10a7f10a7f10a76004820152602481018590526001600160a01b03909116906340c10f1990604401600060405180830381600087803b15801561256257600080fd5b505af1158015612576573d6000803e3d6000fd5b5050505063ffffffff8216600090815261015e60209081526040808320838052909152908190205490516340c10f1960e01b815273f10a7f10a7f10a7f10a7f10a7f10a7f10a7f10a76004820152602481018590526001600160a01b03909116906340c10f1990604401600060405180830381600087803b1580156125fa57600080fd5b505af115801561260e573d6000803e3d6000fd5b5050505063ffffffff8216600081815261015f6020908152604080832060018452825280832087905582805291829020869055815192835282018590527f6b73d8f672e796176444c21cb5429d8ea426e6f0f8a3b34e7057a808be5d19c691016111ca565b63ffffffff81166000908152610164602090815260408083206001600160a01b038616845290915290205480158015906126c3575063ffffffff8216600090815261015960205260409020548111155b15610bd2576126d482846001613448565b6126e082846000613448565b6126ec828460016135ac565b6126f8828460006135ac565b612704828460016136e2565b612710828460006136e2565b63ffffffff82166000818152610164602090815260408083206001600160a01b038816808552908352818420939093558051928352908201929092527fe03aa867e2345cc967d98e4c81f6b0707b5ef082d9d20bac3dcf95540acdeae491016111ca565b338361277f81611ce0565b6127898282612673565b6127938585613407565b63ffffffff85166000908152610161602090815260408083208615158452909152812080548692906127c69084906149aa565b909155505063ffffffff851660009081526101656020908152604080832086151584528252808320338452909152812080548692906128069084906149aa565b909155505063ffffffff85166000908152610159602052604081205461282d9060016149aa565b63ffffffff87166000908152610164602090815260408083203380855292529182902083905590519192507f50b8727b538cf16daeb79894e8bde5c1e975985071be8a8d7620675a5dddfc6b916113fb91899188918a918790614904565b6000816128988486614a87565b6128a291906149f0565b949350505050565b600054610100900460ff16806128c3575060005460ff16155b6128df5760405162461bcd60e51b8152600401610c4390614832565b600054610100900460ff16158015612901576000805461ffff19166101011790555b61290961382c565b6129116138af565b61291a8261390d565b8015610c56576000805461ff00191690555050565b338361293a81611ce0565b6129448282612673565b63ffffffff8516600090815261015e602090815260408083208615158452909152908190205490516323b872dd60e01b8152336004820152306024820152604481018690526001600160a01b03909116906323b872dd90606401602060405180830381600087803b1580156129b857600080fd5b505af11580156129cc573d6000803e3d6000fd5b505050506040513d601f19601f820116820180604052508101906129f0919061426e565b5063ffffffff85166000908152610166602090815260408083208615158452825280832033845290915281208054869290612a2c9084906149aa565b909155505063ffffffff851660009081526101596020526040812054612a539060016149aa565b63ffffffff8716600081815261016460209081526040808320338452825280832085905592825261016281528282208815158352905290812080549293508792909190612aa19084906149aa565b90915550506040517f191d5f0d51691cdc223884e5321013c9663c6b337a07d550c538d9dcbbd66203906113fb9088908790899033908790614904565b63ffffffff81166000908152610157602052604090205460ff16610ba85760405162461bcd60e51b81526020600482015260146024820152731b585c9ad95d08191bd95cdb89dd08195e1a5cdd60621b6044820152606401610c43565b600081612b5084670de0b6b3a7640000614a87565b612b5a91906149f0565b9392505050565b63ffffffff82166000908152610158602090815260408083205461015f835281842060018552808452828520548580529352908320549192612ba383856149aa565b9050600080612bb4888787866139d6565b63ffffffff8a16600090815261015b602052604080822054905163452accd960e11b81526004810188905260248101849052939550919350916001600160a01b0390911690638a5599b290604401602060405180830381600087803b158015612c1c57600080fd5b505af1158015612c30573d6000803e3d6000fd5b505050506040513d601f19601f82011682018060405250810190612c5491906142f9565b90508015612c80578215612c7357612c6c81886149aa565b9650612c80565b612c7d81876149aa565b95505b6000612c8c8888613a4e565b905060008682612c9c828d614aa6565b612ca69190614a04565b612cb091906149c2565b90506000811215612d0957612cc481614b7e565b905088811115612cec57620186a0612cdf8a6201869f614a04565b612ce991906149c2565b90505b612cf6818a614ae5565b9850612d0281896149aa565b9750612d48565b87811115612d2f57620186a0612d22896201869f614a04565b612d2c91906149c2565b90505b612d39818a6149aa565b9850612d458189614ae5565b97505b505050505050509250929050565b63ffffffff8316600090815261016160209081526040808320600184529091528120548190819081908015612db85763ffffffff881660009081526101616020908152604080832060018452909152812055935083612db58188612b3b565b92505b5063ffffffff87166000908152610161602090815260408083208380529091529020548015612e135763ffffffff8816600090815261016160209081526040808320838052909152812055925082612e108187612b3b565b91505b5063ffffffff8716600090815261016360209081526040808320600184529091529020548015612eab576000612e498289613a64565b9050612e558187614aa6565b9550612e618186614969565b9450612e6d8285614aa6565b9350612e7a82898961288b565b612e849084614969565b63ffffffff8a16600090815261016360209081526040808320600184529091528120559250505b5063ffffffff87166000908152610163602090815260408083208380529091529020548015612f41576000612ee08288613a64565b9050612eec8186614aa6565b9450612ef88187614969565b9550612f048284614aa6565b9250612f1182888a61288b565b612f1b9085614969565b63ffffffff8a166000908152610163602090815260408083208380529091528120559350505b5063ffffffff8716600090815261016260209081526040808320600184529091529020548015612fb157612f758188613a64565b612f7f9086614aa6565b9450612f8b8184614aa6565b63ffffffff89166000908152610162602090815260408083206001845290915281205592505b5063ffffffff8716600090815261016260209081526040808320838052909152902054801561301f57612fe48187613a64565b612fee9085614aa6565b9350612ffa8183614aa6565b63ffffffff891660009081526101626020908152604080832083805290915281205591505b6130328861302d8688614969565b613a79565b61303e88600185613b7d565b61304a88600084613b7d565b505050935093915050565b60606000613064836002614a87565b61306f9060026149aa565b67ffffffffffffffff81111561309557634e487b7160e01b600052604160045260246000fd5b6040519080825280601f01601f1916602001820160405280156130bf576020820181803683370190505b509050600360fc1b816000815181106130e857634e487b7160e01b600052603260045260246000fd5b60200101906001600160f81b031916908160001a905350600f60fb1b8160018151811061312557634e487b7160e01b600052603260045260246000fd5b60200101906001600160f81b031916908160001a9053506000613149846002614a87565b6131549060016149aa565b90505b60018111156131e8576f181899199a1a9b1b9c1cb0b131b232b360811b85600f166010811061319657634e487b7160e01b600052603260045260246000fd5b1a60f81b8282815181106131ba57634e487b7160e01b600052603260045260246000fd5b60200101906001600160f81b031916908160001a90535060049490941c936131e181614b28565b9050613157565b508315612b5a5760405162461bcd60e51b815260206004820181905260248201527f537472696e67733a20686578206c656e67746820696e73756666696369656e746044820152606401610c43565b803b61329b5760405162461bcd60e51b815260206004820152602d60248201527f455243313936373a206e657720696d706c656d656e746174696f6e206973206e60448201526c1bdd08184818dbdb9d1c9858dd609a1b6064820152608401610c43565b7f360894a13ba1a3210667c828492db98dca3e2076cc3735a920a3ca505d382bbc80546001600160a01b0319166001600160a01b0392909216919091179055565b6060823b61333b5760405162461bcd60e51b815260206004820152602660248201527f416464726573733a2064656c65676174652063616c6c20746f206e6f6e2d636f6044820152651b9d1c9858dd60d21b6064820152608401610c43565b600080846001600160a01b03168460405161335691906146af565b600060405180830381855af49150503d8060008114613391576040519150601f19603f3d011682016040523d82523d6000602084013e613396565b606091505b50915091506133be8282604051806060016040528060278152602001614bfe60279139613caa565b95945050505050565b6133d081613237565b6040516001600160a01b038216907fbc7cd75a20ee27fd9adebab32041f755214dbc6bffa90cc0225b39da2e5c2d3b90600090a250565b63ffffffff808316600090815261015b602090815260408083205461015a90925290912054610c56926001600160a01b0391821692339216908590613ce316565b63ffffffff8316600090815261016560209081526040808320841515845282528083206001600160a01b0386168452909152902054801561123e5763ffffffff84166000818152610165602090815260408083208615158085529083528184206001600160a01b038916808652908452828520859055858552610160845282852091855290835281842094845261016483528184209084528252808320548352929052908120546134fa908390612b3b565b63ffffffff8616600090815261015e6020908152604080832087151584529091529081902054905163a9059cbb60e01b81526001600160a01b0387811660048301526024820184905292935091169063a9059cbb90604401602060405180830381600087803b15801561356c57600080fd5b505af1158015613580573d6000803e3d6000fd5b505050506040513d601f19601f820116820180604052508101906135a4919061426e565b505050505050565b63ffffffff8316600090815261016660209081526040808320841515845282528083206001600160a01b0386168452909152902054801561123e5763ffffffff84166000818152610166602090815260408083208615158085529083528184206001600160a01b0389168086529084528285208590558585526101608452828520918552908352818420948452610164835281842090845282528083205483529290529081205461365e908390613a64565b63ffffffff8616600090815261015b6020526040908190205490516375b5ffd160e11b81526001600160a01b0387811660048301526024820184905292935091169063eb6bffa290604401600060405180830381600087803b1580156136c357600080fd5b505af11580156136d7573d6000803e3d6000fd5b505050505050505050565b63ffffffff8316600090815261016760209081526040808320841515845282528083206001600160a01b0386168452909152902054801561123e5763ffffffff84166000908152610164602090815260408083206001600160a01b0387168452909152812054613757908690849086906114a8565b63ffffffff86166000818152610167602090815260408083208815801585529083528184206001600160a01b038b811680875291855283862086905595855261015e845282852091855292529182902054915163a9059cbb60e01b8152600481019190915260248101849052929350169063a9059cbb90604401602060405180830381600087803b1580156137eb57600080fd5b505af11580156137ff573d6000803e3d6000fd5b505050506040513d601f19601f82011682018060405250810190613823919061426e565b6120cd57600080fd5b600054610100900460ff1680613845575060005460ff16155b6138615760405162461bcd60e51b8152600401610c4390614832565b600054610100900460ff16158015613883576000805461ffff19166101011790555b61388b613d3d565b613893613d3d565b61389b613d3d565b8015610ba8576000805461ff001916905550565b600054610100900460ff16806138c8575060005460ff16155b6138e45760405162461bcd60e51b8152600401610c4390614832565b600054610100900460ff1615801561388b576000805461ffff1916610101179055613893613d3d565b600054610100900460ff1680613926575060005460ff16155b6139425760405162461bcd60e51b8152600401610c4390614832565b600054610100900460ff16158015613964576000805461ffff19166101011790555b6001600160a01b03821661397757600080fd5b613982600083613da7565b6139ac7fa49807205ce4d355092ef5a8a18f56e8913cf4a201fbe287825b095693c2177583613da7565b61291a7f189ab7a9244df0848122154315af71fe140f3db0fe014031783b0946b8c9d2e383613da7565b81831060008082156139eb57508484036139f0565b508385035b63ffffffff8716600090815261015d60205260408120548590613a139084614a87565b613a1d91906149f0565b90506000613a3382670de0b6b3a7640000613a4e565b905080670de0b6b3a764000003935050505094509492505050565b6000818310613a5d5781612b5a565b5090919050565b6000670de0b6b3a7640000612b508385614a87565b6000811315613afa5763ffffffff8216600090815261015b6020526040908190205490516304831f7160e51b8152600481018390526001600160a01b0390911690639063ee2090602401600060405180830381600087803b158015613add57600080fd5b505af1158015613af1573d6000803e3d6000fd5b50505050610c56565b6000811215610c565763ffffffff8216600090815261015b60205260409020546001600160a01b0316631c499b55613b3183614b7e565b6040518263ffffffff1660e01b8152600401613b4f91815260200190565b600060405180830381600087803b158015613b6957600080fd5b505af11580156135a4573d6000803e3d6000fd5b6000811315613c115763ffffffff8316600090815261015e602090815260408083208515158452909152908190205490516340c10f1960e01b8152306004820152602481018390526001600160a01b03909116906340c10f1990604401600060405180830381600087803b158015613bf457600080fd5b505af1158015613c08573d6000803e3d6000fd5b50505050610bd2565b6000811215610bd25763ffffffff8316600090815261015e6020908152604080832085151584529091529020546001600160a01b03166342966c68613c5583614b7e565b6040518263ffffffff1660e01b8152600401613c7391815260200190565b600060405180830381600087803b158015613c8d57600080fd5b505af1158015613ca1573d6000803e3d6000fd5b50505050505050565b60608315613cb9575081612b5a565b825115613cc95782518084602001fd5b8160405162461bcd60e51b8152600401610c4391906147cb565b604080516001600160a01b0385811660248301528416604482015260648082018490528251808303909101815260849091019091526020810180516001600160e01b03166323b872dd60e01b17905261123e908590613db1565b600054610100900460ff1680613d56575060005460ff16155b613d725760405162461bcd60e51b8152600401610c4390614832565b600054610100900460ff1615801561389b576000805461ffff19166101011790558015610ba8576000805461ff001916905550565b610c568282612138565b6000613e06826040518060400160405280602081526020017f5361666545524332303a206c6f772d6c6576656c2063616c6c206661696c6564815250856001600160a01b0316613e839092919063ffffffff16565b805190915015610bd25780806020019051810190613e24919061426e565b610bd25760405162461bcd60e51b815260206004820152602a60248201527f5361666545524332303a204552433230206f7065726174696f6e20646964206e6044820152691bdd081cdd58d8d9595960b21b6064820152608401610c43565b60606128a2848460008585843b613edc5760405162461bcd60e51b815260206004820152601d60248201527f416464726573733a2063616c6c20746f206e6f6e2d636f6e74726163740000006044820152606401610c43565b600080866001600160a01b03168587604051613ef891906146af565b60006040518083038185875af1925050503d8060008114613f35576040519150601f19603f3d011682016040523d82523d6000602084013e613f3a565b606091505b50915091506114f3828286613caa565b60008083601f840112613f5b578182fd5b50813567ffffffffffffffff811115613f72578182fd5b602083019150836020828501011115613f8a57600080fd5b9250929050565b803563ffffffff81168114610b9a57600080fd5b600060208284031215613fb6578081fd5b8135612b5a81614bda565b600060208284031215613fd2578081fd5b8151612b5a81614bda565b600080600060608486031215613ff1578182fd5b8335613ffc81614bda565b9250602084013561400c81614bda565b9150604084013561401c81614bda565b809150509250925092565b60008060408385031215614039578182fd5b823561404481614bda565b915060208381013567ffffffffffffffff80821115614061578384fd5b818601915086601f830112614074578384fd5b81358181111561408657614086614bc4565b8060051b9150614097848301614938565b8181528481019084860184860187018b10156140b1578788fd5b8795505b838610156140da576140c681613f91565b8352600195909501949186019186016140b5565b508096505050505050509250929050565b600080604083850312156140fd578182fd5b823561410881614bda565b915060208381013567ffffffffffffffff80821115614125578384fd5b818601915086601f830112614138578384fd5b81358181111561414a5761414a614bc4565b61415c601f8201601f19168501614938565b91508082528784828501011115614171578485fd5b8084840185840137810190920192909252919491935090915050565b6000806040838503121561419f578182fd5b82356141aa81614bda565b91506141b860208401613f91565b90509250929050565b6000806000606084860312156141d5578283fd5b83356141e081614bda565b92506141ee60208501613f91565b9150604084013561401c81614bef565b60008060208385031215614210578182fd5b823567ffffffffffffffff80821115614227578384fd5b818501915085601f83011261423a578384fd5b813581811115614248578485fd5b8660208260051b850101111561425c578485fd5b60209290920196919550909350505050565b60006020828403121561427f578081fd5b8151612b5a81614bef565b60006020828403121561429b578081fd5b5035919050565b600080604083850312156142b4578182fd5b8235915060208301356142c681614bda565b809150509250929050565b6000602082840312156142e2578081fd5b81356001600160e01b031981168114612b5a578182fd5b60006020828403121561430a578081fd5b5051919050565b600080600080600080600060a0888a03121561432b578485fd5b873567ffffffffffffffff80821115614342578687fd5b61434e8b838c01613f4a565b909950975060208a0135915080821115614366578687fd5b506143738a828b01613f4a565b909650945050604088013561438781614bda565b9250606088013561439781614bda565b915060808801356143a781614bda565b8091505092959891949750929550565b600080600080600080600080600060e08a8c0312156143d4578283fd5b893567ffffffffffffffff808211156143eb578485fd5b6143f78d838e01613f4a565b909b50995060208c013591508082111561440f578485fd5b5061441c8c828d01613f4a565b90985096505060408a013561443081614bda565b945060608a013561444081614bda565b935060808a013561445081614bda565b925060a08a013561446081614bda565b915060c08a013561447081614bda565b809150509295985092959850929598565b600060208284031215614492578081fd5b612b5a82613f91565b600080604083850312156144ad578182fd5b6144b683613f91565b915060208301356142c681614bda565b600080604083850312156144d8578182fd5b6144e183613f91565b915060208301356142c681614bef565b600080600060608486031215614505578081fd5b61450e84613f91565b9250602084013561400c81614bef565b600080600060608486031215614532578081fd5b61453b84613f91565b9250602084013561454b81614bef565b929592945050506040919091013590565b6000806040838503121561456e578182fd5b61457783613f91565b946020939093013593505050565b600080600060608486031215614599578081fd5b6145a284613f91565b925060208401359150604084013561401c81614bef565b600080600080608085870312156145ce578182fd5b6145d785613f91565b93506020850135925060408501356145ee81614bef565b9396929550929360600135925050565b600080600080600080600080610100898b03121561461a578182fd5b61462389613f91565b9a60208a01359a5060408a013599606081013599506080810135985060a0810135975060c0810135965060e00135945092505050565b60008284528282602086013780602084860101526020601f19601f85011685010190509392505050565b6000815180845261469b816020860160208601614afc565b601f01601f19169290920160200192915050565b600082516146c1818460208701614afc565b9190910192915050565b600061667360f01b8252828460028401379101600201908152919050565b60006b0233637b0ba1029b437b93a160a51b82528284600c8401379101600c01908152919050565b600061199b60f21b8252828460028401379101600201908152919050565b60007f416363657373436f6e74726f6c3a206163636f756e742000000000000000000082528351614767816017850160208801614afc565b7001034b99036b4b9b9b4b733903937b6329607d1b6017918401918201528351614798816028840160208801614afc565b01602801949350505050565b60006a0233637b0ba102637b733960ad1b82528284600b8401379101600b01908152919050565b600060208252612b5a6020830184614683565b600060a082526147f160a0830188614683565b82810360208401526148038188614683565b6001600160a01b03969096166040840152505063ffffffff929092166060830152151560809091015292915050565b6020808252602e908201527f496e697469616c697a61626c653a20636f6e747261637420697320616c72656160408201526d191e481a5b9a5d1a585b1a5e995960921b606082015260800190565b63ffffffff8c1681526001600160a01b038b811660208301528a8116604083015289811660608301526080820189905261012060a083018190526000916148ca8483018a8c614659565b915083820360c08501526148df82888a614659565b925080861660e085015280851661010085015250509c9b505050505050505050505050565b63ffffffff959095168552921515602085015260408401919091526001600160a01b03166060830152608082015260a00190565b604051601f8201601f1916810167ffffffffffffffff8111828210171561496157614961614bc4565b604052919050565b600080821280156001600160ff1b038490038513161561498b5761498b614b98565b600160ff1b83900384128116156149a4576149a4614b98565b50500190565b600082198211156149bd576149bd614b98565b500190565b6000826149d1576149d1614bae565b600160ff1b8214600019841416156149eb576149eb614b98565b500590565b6000826149ff576149ff614bae565b500490565b60006001600160ff1b0381841382841380821686840486111615614a2a57614a2a614b98565b600160ff1b84871282811687830589121615614a4857614a48614b98565b858712925087820587128484161615614a6357614a63614b98565b87850587128184161615614a7957614a79614b98565b505050929093029392505050565b6000816000190483118215151615614aa157614aa1614b98565b500290565b60008083128015600160ff1b850184121615614ac457614ac4614b98565b6001600160ff1b0384018313811615614adf57614adf614b98565b50500390565b600082821015614af757614af7614b98565b500390565b60005b83811015614b17578181015183820152602001614aff565b8381111561123e5750506000910152565b600081614b3757614b37614b98565b506000190190565b6000600019821415614b5357614b53614b98565b5060010190565b600063ffffffff80831681811415614b7457614b74614b98565b6001019392505050565b6000600160ff1b821415614b9457614b94614b98565b0390565b634e487b7160e01b600052601160045260246000fd5b634e487b7160e01b600052601260045260246000fd5b634e487b7160e01b600052604160045260246000fd5b6001600160a01b0381168114610ba857600080fd5b8015158114610ba857600080fdfe416464726573733a206c6f772d6c6576656c2064656c65676174652063616c6c206661696c6564a264697066735822122017e6657cb5f2a2edd363f8a6e920712ee9dc101dad59a5b397a3e069b88aa0eb64736f6c63430008030033",
  "devdoc": {
    "author": "float.capital",
    "custom:auditors": "This contract balances long and short sides.",
    "details": "All functions in this file are currently `virtual`. This is NOT to encourage inheritance. It is merely for convenince when unit testing.",
    "kind": "dev",
    "methods": {
      "createNewSyntheticMarket(string,string,address,address,address)": {
        "details": "This does not make the market active. The `initializeMarket` function was split out separately to this function to reduce costs.",
        "params": {
          "_oracleManager": "The address of the oracle manager that provides the price feed for this market",
          "_paymentToken": "The address of the erc20 token used to buy this synthetic asset this will likely always be DAI",
          "_yieldManager": "The contract that manages depositing the paymentToken into a yield bearing protocol",
          "syntheticName": "Name of the synthetic asset",
          "syntheticSymbol": "Symbol for the synthetic asset"
        }
      },
      "createNewSyntheticMarketExternalSyntheticTokens(string,string,address,address,address,address,address)": {
        "details": "This does not make the market active. The `initializeMarket` function was split out separately to this function to reduce costs.",
        "params": {
          "_longToken": "Address for the long token.",
          "_oracleManager": "The address of the oracle manager that provides the price feed for this market",
          "_paymentToken": "The address of the erc20 token used to buy this synthetic asset this will likely always be DAI",
          "_shortToken": "Address for the short token.",
          "_yieldManager": "The contract that manages depositing the paymentToken into a yield bearing protocol",
          "syntheticName": "Name of the synthetic asset",
          "syntheticSymbol": "Symbol for the synthetic asset"
        }
      },
      "executeOutstandingNextPriceSettlementsUser(address,uint32)": {
        "params": {
          "marketIndex": "An uint32 which uniquely identifies a market.",
          "user": "The address of the user for whom to execute the function."
        }
      },
      "executeOutstandingNextPriceSettlementsUserMulti(address,uint32[])": {
        "params": {
          "marketIndexes": "An array of int32s which each uniquely identify a market.",
          "user": "The address of the user for whom to execute the function."
        }
      },
      "getAmountSyntheticTokenToMintOnTargetSide(uint32,uint256,bool,uint256)": {
        "details": "Intended for use primarily by Staker.sol",
        "params": {
          "amountSyntheticToken_redeemOnOriginSide": "Amount of synth token in wei.",
          "isShiftFromLong": "Whether the token shift is from long to short (true), or short to long (false).",
          "marketIndex": "An uint32 which uniquely identifies a market.",
          "priceSnapshotIndex": "Index which identifies which synth prices to use."
        },
        "returns": {
          "amountSyntheticTokensToMintOnTargetSide": "The amount in wei of tokens for the other side that the shift was worth."
        }
      },
      "getRoleAdmin(bytes32)": {
        "details": "Returns the admin role that controls `role`. See {grantRole} and {revokeRole}. To change a role's admin, use {_setRoleAdmin}."
      },
      "getUsersConfirmedButNotSettledSynthBalance(address,uint32,bool)": {
        "details": "Used in SyntheticToken.sol balanceOf to allow for automatic reflection of next price actions.",
        "params": {
          "isLong": "Whether it is for the long synthetic asset or the short synthetic asset.",
          "marketIndex": "An uint32 which uniquely identifies a market.",
          "user": "The address of the user for whom to execute the function for."
        },
        "returns": {
          "confirmedButNotSettledBalance": "The amount in wei of tokens that the user is owed."
        }
      },
      "grantRole(bytes32,address)": {
        "details": "Grants `role` to `account`. If `account` had not been already granted `role`, emits a {RoleGranted} event. Requirements: - the caller must have ``role``'s admin role."
      },
      "hasRole(bytes32,address)": {
        "details": "Returns `true` if `account` has been granted `role`."
      },
      "initialize(address,address,address)": {
        "details": "Calls OpenZeppelin's initializer modifier.",
        "params": {
          "_admin": "Address of the admin role.",
          "_staker": "Address of the contract which handles synthetic asset stakes.",
          "_tokenFactory": "Address of the contract which creates synthetic asset tokens."
        }
      },
      "initializeMarket(uint32,uint256,uint256,uint256,uint256,uint256,int256,uint256)": {
        "details": "Seperated from createNewSyntheticMarket due to gas considerations.",
        "params": {
          "balanceIncentiveCurve_equilibriumOffset": "An offset to account for naturally imbalanced markets when Float token issuance should differ for market sides. See Staker.sol",
          "balanceIncentiveCurve_exponent": "Sets the degree to which Float token issuance differs for market sides in unbalanced markets. See Staker.sol",
          "initialMarketSeedForEachMarketSide": "Amount of payment token that will be deposited in each market side to seed the market.",
          "kInitialMultiplier": "Linearly decreasing multiplier for Float token issuance for the market when staking synths.",
          "kPeriod": "Time which kInitialMultiplier will last",
          "marketIndex": "An int32 which uniquely identifies the market.",
          "unstakeFee_e18": "Base 1e18 percentage fee levied when unstaking for the market."
        }
      },
      "mintLongNextPrice(uint32,uint256)": {
        "params": {
          "amount": "Amount of payment tokens in that token's lowest denominationfor which to mint synthetic assets at next price.",
          "marketIndex": "An uint32 which uniquely identifies a market."
        }
      },
      "mintShortNextPrice(uint32,uint256)": {
        "params": {
          "amount": "Amount of payment tokens in that token's lowest denominationfor which to mint synthetic assets at next price.",
          "marketIndex": "An uint32 which uniquely identifies a market."
        }
      },
      "redeemLongNextPrice(uint32,uint256)": {
        "params": {
          "marketIndex": "An uint32 which uniquely identifies a market.",
          "tokens_redeem": "Amount in wei of synth tokens to redeem at the next oracle price."
        }
      },
      "redeemShortNextPrice(uint32,uint256)": {
        "params": {
          "marketIndex": "An uint32 which uniquely identifies a market.",
          "tokens_redeem": "Amount in wei of synth tokens to redeem at the next oracle price."
        }
      },
      "renounceRole(bytes32,address)": {
        "details": "Revokes `role` from the calling account. Roles are often managed via {grantRole} and {revokeRole}: this function's purpose is to provide a mechanism for accounts to lose their privileges if they are compromised (such as when a trusted device is misplaced). If the calling account had been granted `role`, emits a {RoleRevoked} event. Requirements: - the caller must be `account`."
      },
      "revokeRole(bytes32,address)": {
        "details": "Revokes `role` from `account`. If `account` had been granted `role`, emits a {RoleRevoked} event. Requirements: - the caller must have ``role``'s admin role."
      },
      "shiftPositionFromLongNextPrice(uint32,uint256)": {
        "params": {
          "amountSyntheticTokensToShift": "Amount in wei of synthetic tokens to shift from long to short the next oracle price update.",
          "marketIndex": "An uint32 which uniquely identifies a market."
        }
      },
      "shiftPositionFromShortNextPrice(uint32,uint256)": {
        "params": {
          "amountSyntheticTokensToShift": "Amount in wei of synthetic tokens to shift from the short to long at the next oracle price update.",
          "marketIndex": "An uint32 which uniquely identifies a market."
        }
      },
      "shiftPositionNextPrice(uint32,uint256,bool)": {
        "details": "Called by external functions to shift either way. Intended for primary use by Staker.sol",
        "params": {
          "amountSyntheticTokensToShift": "Amount in wei of synthetic tokens to shift from the one side to the other at the next oracle price update.",
          "isShiftFromLong": "Whether the token shift is from long to short (true), or short to long (false).",
          "marketIndex": "An uint32 which uniquely identifies a market."
        }
      },
      "supportsInterface(bytes4)": {
        "details": "See {IERC165-supportsInterface}."
      },
      "updateMarketOracle(uint32,address)": {
        "details": "Can only be called by the current admin.",
        "params": {
          "_newOracleManager": "Address of the replacement oracle manager.",
          "marketIndex": "An uint32 which uniquely identifies a market."
        }
      },
      "updateSystemState(uint32)": {
        "params": {
          "marketIndex": "An uint32 which uniquely identifies a market."
        }
      },
      "updateSystemStateMulti(uint32[])": {
        "params": {
          "marketIndexes": "An array of int32s which uniquely identify markets."
        }
      },
      "upgradeTo(address)": {
        "details": "Upgrade the implementation of the proxy to `newImplementation`. Calls {_authorizeUpgrade}. Emits an {Upgraded} event."
      },
      "upgradeToAndCall(address,bytes)": {
        "details": "Upgrade the implementation of the proxy to `newImplementation`, and subsequently execute the function call encoded in `data`. Calls {_authorizeUpgrade}. Emits an {Upgraded} event."
      }
    },
    "stateVariables": {
      "PERMANENT_INITIAL_LIQUIDITY_HOLDER": {
        "details": "f10a7 spells float in hex - for fun - important part is that the private key for this address in not known."
      },
      "__constantsGap": {
        "details": "an empty allocation of storage for use in future upgrades - inspiration from OZ:      https://github.com/OpenZeppelin/openzeppelin-contracts-upgradeable/blob/10f0f1a95b1b0fd5520351886bae7a03490f1056/contracts/token/ERC20/ERC20Upgradeable.sol#L361"
      }
    },
    "title": "Core logic of Float Protocal markets",
    "version": 1
  },
  "userdoc": {
    "kind": "user",
    "methods": {
      "PERMANENT_INITIAL_LIQUIDITY_HOLDER()": {
        "notice": "this is the address that permanently locked initial liquidity for markets is held by. These tokens will never move so market can never have zero liquidity on a side."
      },
      "changeMarketTreasurySplitGradient(uint32,uint256)": {
        "notice": "changes the gradient of the line for determining the yield split between market and treasury."
      },
      "createNewSyntheticMarket(string,string,address,address,address)": {
        "notice": "Creates an entirely new long/short market tracking an underlying oracle price.  Make sure the synthetic names/symbols are unique."
      },
      "createNewSyntheticMarketExternalSyntheticTokens(string,string,address,address,address,address,address)": {
        "notice": "Creates an entirely new long/short market tracking an underlying oracle price.  Uses already created synthetic tokens."
      },
      "executeOutstandingNextPriceSettlementsUser(address,uint32)": {
        "notice": "After markets have been batched updated on a new oracle price, transfers any owed tokens to a user from their next price actions for that update to that user."
      },
      "executeOutstandingNextPriceSettlementsUserMulti(address,uint32[])": {
        "notice": "Executes outstanding next price settlements for a user for multiple markets."
      },
      "getAmountSyntheticTokenToMintOnTargetSide(uint32,uint256,bool,uint256)": {
        "notice": "Given an executed next price shift from tokens on one market side to the other, determines how many other side tokens the shift was worth."
      },
      "getUsersConfirmedButNotSettledSynthBalance(address,uint32,bool)": {
        "notice": "The amount of a synth token a user is owed following a batch execution. 4 possible states for next price actions: - \"Pending\" - means the next price update hasn't happened or been enacted on by the updateSystemState function. - \"Confirmed\" - means the next price has been updated by the updateSystemState function. There is still -               outstanding (lazy) computation that needs to be executed per user in the batch. - \"Settled\" - there is no more computation left for the user. - \"Non-existent\" - user has no next price actions. This function returns a calculated value only in the case of 'confirmed' next price actions. It should return zero for all other types of next price actions."
      },
      "initialize(address,address,address)": {
        "notice": "Initializes the contract."
      },
      "initializeMarket(uint32,uint256,uint256,uint256,uint256,uint256,int256,uint256)": {
        "notice": "Sets a market as active once it has already been setup by createNewSyntheticMarket."
      },
      "mintLongNextPrice(uint32,uint256)": {
        "notice": "Allows users to mint long synthetic assets for a market. To prevent front-running these mints are executed on the next price update from the oracle."
      },
      "mintShortNextPrice(uint32,uint256)": {
        "notice": "Allows users to mint short synthetic assets for a market. To prevent front-running these mints are executed on the next price update from the oracle."
      },
      "redeemLongNextPrice(uint32,uint256)": {
        "notice": "Allows users to redeem long synthetic assets for a market. To prevent front-running these redeems are executed on the next price update from the oracle."
      },
      "redeemShortNextPrice(uint32,uint256)": {
        "notice": "Allows users to redeem short synthetic assets for a market. To prevent front-running these redeems are executed on the next price update from the oracle."
      },
      "shiftPositionFromLongNextPrice(uint32,uint256)": {
        "notice": "Allows users to shift their position from long to short in a single transaction. To prevent front-running these shifts are executed on the next price update from the oracle."
      },
      "shiftPositionFromShortNextPrice(uint32,uint256)": {
        "notice": "Allows users to shift their position from short to long in a single transaction. To prevent front-running these shifts are executed on the next price update from the oracle."
      },
      "shiftPositionNextPrice(uint32,uint256,bool)": {
        "notice": "Allows users to shift their position from one side of the market to the other in a single transaction. To prevent front-running these shifts are executed on the next price update from the oracle."
      },
      "syntheticToken_priceSnapshot(uint32,bool,uint256)": {
        "notice": "synthetic token prices of a given market of a (long/short) at every previous price update"
      },
      "updateMarketOracle(uint32,address)": {
        "notice": "Update oracle for a market"
      },
      "updateSystemState(uint32)": {
        "notice": "Updates the state of a market to account for the latest oracle price update."
      },
      "updateSystemStateMulti(uint32[])": {
        "notice": "Updates the state of multiples markets to account for their latest oracle price updates."
      }
    },
    "notice": "visit https://float.capital for more info",
    "version": 1
  },
  "storageLayout": {
    "storage": [
      {
        "astId": 1148,
        "contract": "contracts/LongShort.sol:LongShort",
        "label": "_initialized",
        "offset": 0,
        "slot": "0",
        "type": "t_bool"
      },
      {
        "astId": 1151,
        "contract": "contracts/LongShort.sol:LongShort",
        "label": "_initializing",
        "offset": 1,
        "slot": "0",
        "type": "t_bool"
      },
      {
        "astId": 3583,
        "contract": "contracts/LongShort.sol:LongShort",
        "label": "__gap",
        "offset": 0,
        "slot": "1",
        "type": "t_array(t_uint256)50_storage"
      },
      {
        "astId": 4482,
        "contract": "contracts/LongShort.sol:LongShort",
        "label": "__gap",
        "offset": 0,
        "slot": "51",
        "type": "t_array(t_uint256)50_storage"
      },
      {
        "astId": 350,
        "contract": "contracts/LongShort.sol:LongShort",
        "label": "_roles",
        "offset": 0,
        "slot": "101",
        "type": "t_mapping(t_bytes32,t_struct(RoleData)345_storage)"
      },
      {
        "astId": 635,
        "contract": "contracts/LongShort.sol:LongShort",
        "label": "__gap",
        "offset": 0,
        "slot": "102",
        "type": "t_array(t_uint256)49_storage"
      },
      {
        "astId": 1131,
        "contract": "contracts/LongShort.sol:LongShort",
        "label": "__gap",
        "offset": 0,
        "slot": "151",
        "type": "t_array(t_uint256)50_storage"
      },
      {
        "astId": 1264,
        "contract": "contracts/LongShort.sol:LongShort",
        "label": "__gap",
        "offset": 0,
        "slot": "201",
        "type": "t_array(t_uint256)50_storage"
      },
      {
        "astId": 10600,
        "contract": "contracts/LongShort.sol:LongShort",
        "label": "__constantsGap",
        "offset": 0,
        "slot": "251",
        "type": "t_array(t_uint256)45_storage"
      },
      {
        "astId": 10602,
        "contract": "contracts/LongShort.sol:LongShort",
        "label": "latestMarket",
        "offset": 0,
        "slot": "296",
        "type": "t_uint32"
      },
      {
        "astId": 10604,
        "contract": "contracts/LongShort.sol:LongShort",
        "label": "staker",
        "offset": 4,
        "slot": "296",
        "type": "t_address"
      },
      {
        "astId": 10606,
        "contract": "contracts/LongShort.sol:LongShort",
        "label": "tokenFactory",
        "offset": 0,
        "slot": "297",
        "type": "t_address"
      },
      {
        "astId": 10610,
        "contract": "contracts/LongShort.sol:LongShort",
        "label": "__globalStateGap",
        "offset": 0,
        "slot": "298",
        "type": "t_array(t_uint256)45_storage"
      },
      {
        "astId": 10614,
        "contract": "contracts/LongShort.sol:LongShort",
        "label": "marketExists",
        "offset": 0,
        "slot": "343",
        "type": "t_mapping(t_uint32,t_bool)"
      },
      {
        "astId": 10618,
        "contract": "contracts/LongShort.sol:LongShort",
        "label": "assetPrice",
        "offset": 0,
        "slot": "344",
        "type": "t_mapping(t_uint32,t_int256)"
      },
      {
        "astId": 10623,
        "contract": "contracts/LongShort.sol:LongShort",
        "label": "marketUpdateIndex",
        "offset": 0,
        "slot": "345",
        "type": "t_mapping(t_uint32,t_uint256)"
      },
      {
        "astId": 10627,
        "contract": "contracts/LongShort.sol:LongShort",
        "label": "paymentTokens",
        "offset": 0,
        "slot": "346",
        "type": "t_mapping(t_uint32,t_address)"
      },
      {
        "astId": 10631,
        "contract": "contracts/LongShort.sol:LongShort",
        "label": "yieldManagers",
        "offset": 0,
        "slot": "347",
        "type": "t_mapping(t_uint32,t_address)"
      },
      {
        "astId": 10635,
        "contract": "contracts/LongShort.sol:LongShort",
        "label": "oracleManagers",
        "offset": 0,
        "slot": "348",
        "type": "t_mapping(t_uint32,t_address)"
      },
      {
        "astId": 10639,
        "contract": "contracts/LongShort.sol:LongShort",
        "label": "marketTreasurySplitGradient_e18",
        "offset": 0,
        "slot": "349",
        "type": "t_mapping(t_uint32,t_uint256)"
      },
      {
        "astId": 10646,
        "contract": "contracts/LongShort.sol:LongShort",
        "label": "syntheticTokens",
        "offset": 0,
        "slot": "350",
        "type": "t_mapping(t_uint32,t_mapping(t_bool,t_address))"
      },
      {
        "astId": 10653,
        "contract": "contracts/LongShort.sol:LongShort",
        "label": "marketSideValueInPaymentToken",
        "offset": 0,
        "slot": "351",
        "type": "t_mapping(t_uint32,t_mapping(t_bool,t_uint256))"
      },
      {
        "astId": 10663,
        "contract": "contracts/LongShort.sol:LongShort",
        "label": "syntheticToken_priceSnapshot",
        "offset": 0,
        "slot": "352",
        "type": "t_mapping(t_uint32,t_mapping(t_bool,t_mapping(t_uint256,t_uint256)))"
      },
      {
        "astId": 10669,
        "contract": "contracts/LongShort.sol:LongShort",
        "label": "batched_amountPaymentToken_deposit",
        "offset": 0,
        "slot": "353",
        "type": "t_mapping(t_uint32,t_mapping(t_bool,t_uint256))"
      },
      {
        "astId": 10675,
        "contract": "contracts/LongShort.sol:LongShort",
        "label": "batched_amountSyntheticToken_redeem",
        "offset": 0,
        "slot": "354",
        "type": "t_mapping(t_uint32,t_mapping(t_bool,t_uint256))"
      },
      {
        "astId": 10681,
        "contract": "contracts/LongShort.sol:LongShort",
        "label": "batched_amountSyntheticToken_toShiftAwayFrom_marketSide",
        "offset": 0,
        "slot": "355",
        "type": "t_mapping(t_uint32,t_mapping(t_bool,t_uint256))"
      },
      {
        "astId": 10687,
        "contract": "contracts/LongShort.sol:LongShort",
        "label": "userNextPrice_currentUpdateIndex",
        "offset": 0,
        "slot": "356",
        "type": "t_mapping(t_uint32,t_mapping(t_address,t_uint256))"
      },
      {
        "astId": 10695,
        "contract": "contracts/LongShort.sol:LongShort",
        "label": "userNextPrice_paymentToken_depositAmount",
        "offset": 0,
        "slot": "357",
        "type": "t_mapping(t_uint32,t_mapping(t_bool,t_mapping(t_address,t_uint256)))"
      },
      {
        "astId": 10703,
        "contract": "contracts/LongShort.sol:LongShort",
        "label": "userNextPrice_syntheticToken_redeemAmount",
        "offset": 0,
        "slot": "358",
        "type": "t_mapping(t_uint32,t_mapping(t_bool,t_mapping(t_address,t_uint256)))"
      },
      {
        "astId": 10711,
        "contract": "contracts/LongShort.sol:LongShort",
        "label": "userNextPrice_syntheticToken_toShiftAwayFrom_marketSide",
        "offset": 0,
        "slot": "359",
        "type": "t_mapping(t_uint32,t_mapping(t_bool,t_mapping(t_address,t_uint256)))"
      }
    ],
    "types": {
      "t_address": {
        "encoding": "inplace",
        "label": "address",
        "numberOfBytes": "20"
      },
      "t_array(t_uint256)45_storage": {
        "base": "t_uint256",
        "encoding": "inplace",
        "label": "uint256[45]",
        "numberOfBytes": "1440"
      },
      "t_array(t_uint256)49_storage": {
        "base": "t_uint256",
        "encoding": "inplace",
        "label": "uint256[49]",
        "numberOfBytes": "1568"
      },
      "t_array(t_uint256)50_storage": {
        "base": "t_uint256",
        "encoding": "inplace",
        "label": "uint256[50]",
        "numberOfBytes": "1600"
      },
      "t_bool": {
        "encoding": "inplace",
        "label": "bool",
        "numberOfBytes": "1"
      },
      "t_bytes32": {
        "encoding": "inplace",
        "label": "bytes32",
        "numberOfBytes": "32"
      },
      "t_int256": {
        "encoding": "inplace",
        "label": "int256",
        "numberOfBytes": "32"
      },
      "t_mapping(t_address,t_bool)": {
        "encoding": "mapping",
        "key": "t_address",
        "label": "mapping(address => bool)",
        "numberOfBytes": "32",
        "value": "t_bool"
      },
      "t_mapping(t_address,t_uint256)": {
        "encoding": "mapping",
        "key": "t_address",
        "label": "mapping(address => uint256)",
        "numberOfBytes": "32",
        "value": "t_uint256"
      },
      "t_mapping(t_bool,t_address)": {
        "encoding": "mapping",
        "key": "t_bool",
        "label": "mapping(bool => address)",
        "numberOfBytes": "32",
        "value": "t_address"
      },
      "t_mapping(t_bool,t_mapping(t_address,t_uint256))": {
        "encoding": "mapping",
        "key": "t_bool",
        "label": "mapping(bool => mapping(address => uint256))",
        "numberOfBytes": "32",
        "value": "t_mapping(t_address,t_uint256)"
      },
      "t_mapping(t_bool,t_mapping(t_uint256,t_uint256))": {
        "encoding": "mapping",
        "key": "t_bool",
        "label": "mapping(bool => mapping(uint256 => uint256))",
        "numberOfBytes": "32",
        "value": "t_mapping(t_uint256,t_uint256)"
      },
      "t_mapping(t_bool,t_uint256)": {
        "encoding": "mapping",
        "key": "t_bool",
        "label": "mapping(bool => uint256)",
        "numberOfBytes": "32",
        "value": "t_uint256"
      },
      "t_mapping(t_bytes32,t_struct(RoleData)345_storage)": {
        "encoding": "mapping",
        "key": "t_bytes32",
        "label": "mapping(bytes32 => struct AccessControlUpgradeable.RoleData)",
        "numberOfBytes": "32",
        "value": "t_struct(RoleData)345_storage"
      },
      "t_mapping(t_uint256,t_uint256)": {
        "encoding": "mapping",
        "key": "t_uint256",
        "label": "mapping(uint256 => uint256)",
        "numberOfBytes": "32",
        "value": "t_uint256"
      },
      "t_mapping(t_uint32,t_address)": {
        "encoding": "mapping",
        "key": "t_uint32",
        "label": "mapping(uint32 => address)",
        "numberOfBytes": "32",
        "value": "t_address"
      },
      "t_mapping(t_uint32,t_bool)": {
        "encoding": "mapping",
        "key": "t_uint32",
        "label": "mapping(uint32 => bool)",
        "numberOfBytes": "32",
        "value": "t_bool"
      },
      "t_mapping(t_uint32,t_int256)": {
        "encoding": "mapping",
        "key": "t_uint32",
        "label": "mapping(uint32 => int256)",
        "numberOfBytes": "32",
        "value": "t_int256"
      },
      "t_mapping(t_uint32,t_mapping(t_address,t_uint256))": {
        "encoding": "mapping",
        "key": "t_uint32",
        "label": "mapping(uint32 => mapping(address => uint256))",
        "numberOfBytes": "32",
        "value": "t_mapping(t_address,t_uint256)"
      },
      "t_mapping(t_uint32,t_mapping(t_bool,t_address))": {
        "encoding": "mapping",
        "key": "t_uint32",
        "label": "mapping(uint32 => mapping(bool => address))",
        "numberOfBytes": "32",
        "value": "t_mapping(t_bool,t_address)"
      },
      "t_mapping(t_uint32,t_mapping(t_bool,t_mapping(t_address,t_uint256)))": {
        "encoding": "mapping",
        "key": "t_uint32",
        "label": "mapping(uint32 => mapping(bool => mapping(address => uint256)))",
        "numberOfBytes": "32",
        "value": "t_mapping(t_bool,t_mapping(t_address,t_uint256))"
      },
      "t_mapping(t_uint32,t_mapping(t_bool,t_mapping(t_uint256,t_uint256)))": {
        "encoding": "mapping",
        "key": "t_uint32",
        "label": "mapping(uint32 => mapping(bool => mapping(uint256 => uint256)))",
        "numberOfBytes": "32",
        "value": "t_mapping(t_bool,t_mapping(t_uint256,t_uint256))"
      },
      "t_mapping(t_uint32,t_mapping(t_bool,t_uint256))": {
        "encoding": "mapping",
        "key": "t_uint32",
        "label": "mapping(uint32 => mapping(bool => uint256))",
        "numberOfBytes": "32",
        "value": "t_mapping(t_bool,t_uint256)"
      },
      "t_mapping(t_uint32,t_uint256)": {
        "encoding": "mapping",
        "key": "t_uint32",
        "label": "mapping(uint32 => uint256)",
        "numberOfBytes": "32",
        "value": "t_uint256"
      },
      "t_struct(RoleData)345_storage": {
        "encoding": "inplace",
        "label": "struct AccessControlUpgradeable.RoleData",
        "members": [
          {
            "astId": 342,
            "contract": "contracts/LongShort.sol:LongShort",
            "label": "members",
            "offset": 0,
            "slot": "0",
            "type": "t_mapping(t_address,t_bool)"
          },
          {
            "astId": 344,
            "contract": "contracts/LongShort.sol:LongShort",
            "label": "adminRole",
            "offset": 0,
            "slot": "1",
            "type": "t_bytes32"
          }
        ],
        "numberOfBytes": "64"
      },
      "t_uint256": {
        "encoding": "inplace",
        "label": "uint256",
        "numberOfBytes": "32"
      },
      "t_uint32": {
        "encoding": "inplace",
        "label": "uint32",
        "numberOfBytes": "4"
      }
    }
  }
}