{
  "address": "0x9FE9Fd728dB779aE34FDA8514a84A5DeBFE80Ac6",
  "abi": [
    {
      "anonymous": false,
      "inputs": [
        {
          "indexed": false,
          "internalType": "uint32",
          "name": "marketIndex",
          "type": "uint32"
        },
        {
          "indexed": false,
          "internalType": "uint256",
          "name": "accumulativeFloatIssuanceSnapshotIndex",
          "type": "uint256"
        },
        {
          "indexed": false,
          "internalType": "uint256",
          "name": "accumulativeLong",
          "type": "uint256"
        },
        {
          "indexed": false,
          "internalType": "uint256",
          "name": "accumulativeShort",
          "type": "uint256"
        }
      ],
      "name": "AccumulativeIssuancePerStakedSynthSnapshotCreated",
      "type": "event"
    },
    {
      "anonymous": false,
      "inputs": [
        {
          "indexed": false,
          "internalType": "address",
          "name": "previousAdmin",
          "type": "address"
        },
        {
          "indexed": false,
          "internalType": "address",
          "name": "newAdmin",
          "type": "address"
        }
      ],
      "name": "AdminChanged",
      "type": "event"
    },
    {
      "anonymous": false,
      "inputs": [
        {
          "indexed": false,
          "internalType": "uint32",
          "name": "marketIndex",
          "type": "uint32"
        },
        {
          "indexed": false,
          "internalType": "uint256",
          "name": "balanceIncentiveExponent",
          "type": "uint256"
        },
        {
          "indexed": false,
          "internalType": "int256",
          "name": "balanceIncentiveCurve_equilibriumOffset",
          "type": "int256"
        },
        {
          "indexed": false,
          "internalType": "uint256",
          "name": "safeExponentBitShifting",
          "type": "uint256"
        }
      ],
      "name": "BalanceIncentiveParamsUpdated",
      "type": "event"
    },
    {
      "anonymous": false,
      "inputs": [
        {
          "indexed": true,
          "internalType": "address",
          "name": "beacon",
          "type": "address"
        }
      ],
      "name": "BeaconUpgraded",
      "type": "event"
    },
    {
      "anonymous": false,
      "inputs": [
        {
          "indexed": false,
          "internalType": "address",
          "name": "user",
          "type": "address"
        },
        {
          "indexed": false,
          "internalType": "uint32",
          "name": "marketIndex",
          "type": "uint32"
        },
        {
          "indexed": false,
          "internalType": "uint256",
          "name": "amountFloatMinted",
          "type": "uint256"
        }
      ],
      "name": "FloatMinted",
      "type": "event"
    },
    {
      "anonymous": false,
      "inputs": [
        {
          "indexed": false,
          "internalType": "uint256",
          "name": "floatPercentage",
          "type": "uint256"
        }
      ],
      "name": "FloatPercentageUpdated",
      "type": "event"
    },
    {
      "anonymous": false,
      "inputs": [
        {
          "indexed": false,
          "internalType": "uint32",
          "name": "marketIndex",
          "type": "uint32"
        },
        {
          "indexed": false,
          "internalType": "uint256",
          "name": "exitFee_e18",
          "type": "uint256"
        },
        {
          "indexed": false,
          "internalType": "uint256",
          "name": "period",
          "type": "uint256"
        },
        {
          "indexed": false,
          "internalType": "uint256",
          "name": "multiplier",
          "type": "uint256"
        },
        {
          "indexed": false,
          "internalType": "uint256",
          "name": "balanceIncentiveExponent",
          "type": "uint256"
        },
        {
          "indexed": false,
          "internalType": "int256",
          "name": "balanceIncentiveEquilibriumOffset",
          "type": "int256"
        },
        {
          "indexed": false,
          "internalType": "uint256",
          "name": "safeExponentBitShifting",
          "type": "uint256"
        }
      ],
      "name": "MarketAddedToStaker",
      "type": "event"
    },
    {
      "anonymous": false,
      "inputs": [
        {
          "indexed": false,
          "internalType": "uint32",
          "name": "marketIndex",
          "type": "uint32"
        },
        {
          "indexed": false,
          "internalType": "uint256",
          "name": "period",
          "type": "uint256"
        },
        {
          "indexed": false,
          "internalType": "uint256",
          "name": "multiplier",
          "type": "uint256"
        }
      ],
      "name": "MarketLaunchIncentiveParametersChanges",
      "type": "event"
    },
    {
      "anonymous": false,
      "inputs": [
        {
          "indexed": false,
          "internalType": "address",
          "name": "user",
          "type": "address"
        },
        {
          "indexed": false,
          "internalType": "uint32",
          "name": "marketIndex",
          "type": "uint32"
        },
        {
          "indexed": false,
          "internalType": "uint256",
          "name": "amount",
          "type": "uint256"
        },
        {
          "indexed": false,
          "internalType": "bool",
          "name": "isShiftFromLong",
          "type": "bool"
        },
        {
          "indexed": false,
          "internalType": "uint256",
          "name": "userShiftIndex",
          "type": "uint256"
        }
      ],
      "name": "NextPriceStakeShift",
      "type": "event"
    },
    {
      "anonymous": false,
      "inputs": [
        {
          "indexed": true,
          "internalType": "bytes32",
          "name": "role",
          "type": "bytes32"
        },
        {
          "indexed": true,
          "internalType": "bytes32",
          "name": "previousAdminRole",
          "type": "bytes32"
        },
        {
          "indexed": true,
          "internalType": "bytes32",
          "name": "newAdminRole",
          "type": "bytes32"
        }
      ],
      "name": "RoleAdminChanged",
      "type": "event"
    },
    {
      "anonymous": false,
      "inputs": [
        {
          "indexed": true,
          "internalType": "bytes32",
          "name": "role",
          "type": "bytes32"
        },
        {
          "indexed": true,
          "internalType": "address",
          "name": "account",
          "type": "address"
        },
        {
          "indexed": true,
          "internalType": "address",
          "name": "sender",
          "type": "address"
        }
      ],
      "name": "RoleGranted",
      "type": "event"
    },
    {
      "anonymous": false,
      "inputs": [
        {
          "indexed": true,
          "internalType": "bytes32",
          "name": "role",
          "type": "bytes32"
        },
        {
          "indexed": true,
          "internalType": "address",
          "name": "account",
          "type": "address"
        },
        {
          "indexed": true,
          "internalType": "address",
          "name": "sender",
          "type": "address"
        }
      ],
      "name": "RoleRevoked",
      "type": "event"
    },
    {
      "anonymous": false,
      "inputs": [
        {
          "indexed": false,
          "internalType": "address",
          "name": "user",
          "type": "address"
        },
        {
          "indexed": false,
          "internalType": "address",
          "name": "token",
          "type": "address"
        },
        {
          "indexed": false,
          "internalType": "uint256",
          "name": "amount",
          "type": "uint256"
        },
        {
          "indexed": false,
          "internalType": "uint256",
          "name": "lastMintIndex",
          "type": "uint256"
        }
      ],
      "name": "StakeAdded",
      "type": "event"
    },
    {
      "anonymous": false,
      "inputs": [
        {
          "indexed": false,
          "internalType": "address",
          "name": "user",
          "type": "address"
        },
        {
          "indexed": false,
          "internalType": "uint32",
          "name": "marketIndex",
          "type": "uint32"
        },
        {
          "indexed": false,
          "internalType": "uint256",
          "name": "newAmountStakedLong",
          "type": "uint256"
        },
        {
          "indexed": false,
          "internalType": "uint256",
          "name": "newAmountStakedShort",
          "type": "uint256"
        }
      ],
      "name": "StakeShifted",
      "type": "event"
    },
    {
      "anonymous": false,
      "inputs": [
        {
          "indexed": false,
          "internalType": "uint32",
          "name": "marketIndex",
          "type": "uint32"
        },
        {
          "indexed": false,
          "internalType": "uint256",
          "name": "stakeWithdralFee",
          "type": "uint256"
        }
      ],
      "name": "StakeWithdrawalFeeUpdated",
      "type": "event"
    },
    {
      "anonymous": false,
      "inputs": [
        {
          "indexed": false,
          "internalType": "address",
          "name": "user",
          "type": "address"
        },
        {
          "indexed": false,
          "internalType": "address",
          "name": "token",
          "type": "address"
        },
        {
          "indexed": false,
          "internalType": "uint256",
          "name": "amount",
          "type": "uint256"
        }
      ],
      "name": "StakeWithdrawn",
      "type": "event"
    },
    {
      "anonymous": false,
      "inputs": [
        {
          "indexed": false,
          "internalType": "address",
          "name": "admin",
          "type": "address"
        },
        {
          "indexed": false,
          "internalType": "address",
          "name": "floatTreasury",
          "type": "address"
        },
        {
          "indexed": false,
          "internalType": "address",
          "name": "floatCapital",
          "type": "address"
        },
        {
          "indexed": false,
          "internalType": "address",
          "name": "floatToken",
          "type": "address"
        },
        {
          "indexed": false,
          "internalType": "uint256",
          "name": "floatPercentage",
          "type": "uint256"
        }
      ],
      "name": "StakerV1",
      "type": "event"
    },
    {
      "anonymous": false,
      "inputs": [
        {
          "indexed": true,
          "internalType": "address",
          "name": "implementation",
          "type": "address"
        }
      ],
      "name": "Upgraded",
      "type": "event"
    },
    {
      "inputs": [],
      "name": "ADMIN_ROLE",
      "outputs": [
        {
          "internalType": "bytes32",
          "name": "",
          "type": "bytes32"
        }
      ],
      "stateMutability": "view",
      "type": "function"
    },
    {
      "inputs": [],
      "name": "DEFAULT_ADMIN_ROLE",
      "outputs": [
        {
          "internalType": "bytes32",
          "name": "",
          "type": "bytes32"
        }
      ],
      "stateMutability": "view",
      "type": "function"
    },
    {
      "inputs": [],
      "name": "FLOAT_ISSUANCE_FIXED_DECIMAL",
      "outputs": [
        {
          "internalType": "uint256",
          "name": "",
          "type": "uint256"
        }
      ],
      "stateMutability": "view",
      "type": "function"
    },
    {
      "inputs": [],
      "name": "UPGRADER_ROLE",
      "outputs": [
        {
          "internalType": "bytes32",
          "name": "",
          "type": "bytes32"
        }
      ],
      "stateMutability": "view",
      "type": "function"
    },
    {
      "inputs": [
        {
          "internalType": "uint32",
          "name": "",
          "type": "uint32"
        },
        {
          "internalType": "uint256",
          "name": "",
          "type": "uint256"
        }
      ],
      "name": "accumulativeFloatPerSyntheticTokenSnapshots",
      "outputs": [
        {
          "internalType": "uint256",
          "name": "timestamp",
          "type": "uint256"
        },
        {
          "internalType": "uint256",
          "name": "accumulativeFloatPerSyntheticToken_long",
          "type": "uint256"
        },
        {
          "internalType": "uint256",
          "name": "accumulativeFloatPerSyntheticToken_short",
          "type": "uint256"
        }
      ],
      "stateMutability": "view",
      "type": "function"
    },
    {
      "inputs": [
        {
          "internalType": "uint32",
          "name": "marketIndex",
          "type": "uint32"
        },
        {
          "internalType": "address",
          "name": "longToken",
          "type": "address"
        },
        {
          "internalType": "address",
          "name": "shortToken",
          "type": "address"
        },
        {
          "internalType": "uint256",
          "name": "kInitialMultiplier",
          "type": "uint256"
        },
        {
          "internalType": "uint256",
          "name": "kPeriod",
          "type": "uint256"
        },
        {
          "internalType": "uint256",
          "name": "unstakeFee_e18",
          "type": "uint256"
        },
        {
          "internalType": "uint256",
          "name": "_balanceIncentiveCurve_exponent",
          "type": "uint256"
        },
        {
          "internalType": "int256",
          "name": "_balanceIncentiveCurve_equilibriumOffset",
          "type": "int256"
        }
      ],
      "name": "addNewStakingFund",
      "outputs": [],
      "stateMutability": "nonpayable",
      "type": "function"
    },
    {
      "inputs": [
        {
          "internalType": "uint32",
          "name": "",
          "type": "uint32"
        }
      ],
      "name": "balanceIncentiveCurve_equilibriumOffset",
      "outputs": [
        {
          "internalType": "int256",
          "name": "",
          "type": "int256"
        }
      ],
      "stateMutability": "view",
      "type": "function"
    },
    {
      "inputs": [
        {
          "internalType": "uint32",
          "name": "",
          "type": "uint32"
        }
      ],
      "name": "balanceIncentiveCurve_exponent",
      "outputs": [
        {
          "internalType": "uint256",
          "name": "",
          "type": "uint256"
        }
      ],
      "stateMutability": "view",
      "type": "function"
    },
    {
      "inputs": [
        {
          "internalType": "uint32",
          "name": "marketIndex",
          "type": "uint32"
        },
        {
          "internalType": "uint256",
          "name": "_balanceIncentiveCurve_exponent",
          "type": "uint256"
        },
        {
          "internalType": "int256",
          "name": "_balanceIncentiveCurve_equilibriumOffset",
          "type": "int256"
        },
        {
          "internalType": "uint256",
          "name": "_safeExponentBitShifting",
          "type": "uint256"
        }
      ],
      "name": "changeBalanceIncentiveParameters",
      "outputs": [],
      "stateMutability": "nonpayable",
      "type": "function"
    },
    {
      "inputs": [
        {
          "internalType": "uint256",
          "name": "newFloatPercentage",
          "type": "uint256"
        }
      ],
      "name": "changeFloatPercentage",
      "outputs": [],
      "stateMutability": "nonpayable",
      "type": "function"
    },
    {
      "inputs": [
        {
          "internalType": "uint32",
          "name": "marketIndex",
          "type": "uint32"
        },
        {
          "internalType": "uint256",
          "name": "newMarketUnstakeFee_e18",
          "type": "uint256"
        }
      ],
      "name": "changeUnstakeFee",
      "outputs": [],
      "stateMutability": "nonpayable",
      "type": "function"
    },
    {
      "inputs": [
        {
          "internalType": "uint32[]",
          "name": "marketIndexes",
          "type": "uint32[]"
        }
      ],
      "name": "claimFloatCustom",
      "outputs": [],
      "stateMutability": "nonpayable",
      "type": "function"
    },
    {
      "inputs": [
        {
          "internalType": "uint32[]",
          "name": "marketIndexes",
          "type": "uint32[]"
        },
        {
          "internalType": "address",
          "name": "user",
          "type": "address"
        }
      ],
      "name": "claimFloatCustomFor",
      "outputs": [],
      "stateMutability": "nonpayable",
      "type": "function"
    },
    {
      "inputs": [],
      "name": "floatCapital",
      "outputs": [
        {
          "internalType": "address",
          "name": "",
          "type": "address"
        }
      ],
      "stateMutability": "view",
      "type": "function"
    },
    {
      "inputs": [],
      "name": "floatPercentage",
      "outputs": [
        {
          "internalType": "uint256",
          "name": "",
          "type": "uint256"
        }
      ],
      "stateMutability": "view",
      "type": "function"
    },
    {
      "inputs": [],
      "name": "floatToken",
      "outputs": [
        {
          "internalType": "address",
          "name": "",
          "type": "address"
        }
      ],
      "stateMutability": "view",
      "type": "function"
    },
    {
      "inputs": [],
      "name": "floatTreasury",
      "outputs": [
        {
          "internalType": "address",
          "name": "",
          "type": "address"
        }
      ],
      "stateMutability": "view",
      "type": "function"
    },
    {
      "inputs": [
        {
          "internalType": "bytes32",
          "name": "role",
          "type": "bytes32"
        }
      ],
      "name": "getRoleAdmin",
      "outputs": [
        {
          "internalType": "bytes32",
          "name": "",
          "type": "bytes32"
        }
      ],
      "stateMutability": "view",
      "type": "function"
    },
    {
      "inputs": [
        {
          "internalType": "bytes32",
          "name": "role",
          "type": "bytes32"
        },
        {
          "internalType": "address",
          "name": "account",
          "type": "address"
        }
      ],
      "name": "grantRole",
      "outputs": [],
      "stateMutability": "nonpayable",
      "type": "function"
    },
    {
      "inputs": [
        {
          "internalType": "bytes32",
          "name": "role",
          "type": "bytes32"
        },
        {
          "internalType": "address",
          "name": "account",
          "type": "address"
        }
      ],
      "name": "hasRole",
      "outputs": [
        {
          "internalType": "bool",
          "name": "",
          "type": "bool"
        }
      ],
      "stateMutability": "view",
      "type": "function"
    },
    {
      "inputs": [
        {
          "internalType": "address",
          "name": "_admin",
          "type": "address"
        },
        {
          "internalType": "address",
          "name": "_longShort",
          "type": "address"
        },
        {
          "internalType": "address",
          "name": "_floatToken",
          "type": "address"
        },
        {
          "internalType": "address",
          "name": "_floatTreasury",
          "type": "address"
        },
        {
          "internalType": "address",
          "name": "_floatCapital",
          "type": "address"
        },
        {
          "internalType": "uint256",
          "name": "_floatPercentage",
          "type": "uint256"
        }
      ],
      "name": "initialize",
      "outputs": [],
      "stateMutability": "nonpayable",
      "type": "function"
    },
    {
      "inputs": [
        {
          "internalType": "uint32",
          "name": "",
          "type": "uint32"
        }
      ],
      "name": "latestRewardIndex",
      "outputs": [
        {
          "internalType": "uint256",
          "name": "",
          "type": "uint256"
        }
      ],
      "stateMutability": "view",
      "type": "function"
    },
    {
      "inputs": [],
      "name": "longShort",
      "outputs": [
        {
          "internalType": "address",
          "name": "",
          "type": "address"
        }
      ],
      "stateMutability": "view",
      "type": "function"
    },
    {
      "inputs": [
        {
          "internalType": "address",
          "name": "",
          "type": "address"
        }
      ],
      "name": "marketIndexOfToken",
      "outputs": [
        {
          "internalType": "uint32",
          "name": "",
          "type": "uint32"
        }
      ],
      "stateMutability": "view",
      "type": "function"
    },
    {
      "inputs": [
        {
          "internalType": "uint32",
          "name": "",
          "type": "uint32"
        }
      ],
      "name": "marketLaunchIncentive_multipliers",
      "outputs": [
        {
          "internalType": "uint256",
          "name": "",
          "type": "uint256"
        }
      ],
      "stateMutability": "view",
      "type": "function"
    },
    {
      "inputs": [
        {
          "internalType": "uint32",
          "name": "",
          "type": "uint32"
        }
      ],
      "name": "marketLaunchIncentive_period",
      "outputs": [
        {
          "internalType": "uint256",
          "name": "",
          "type": "uint256"
        }
      ],
      "stateMutability": "view",
      "type": "function"
    },
    {
      "inputs": [
        {
          "internalType": "uint32",
          "name": "",
          "type": "uint32"
        }
      ],
      "name": "marketUnstakeFee_e18",
      "outputs": [
        {
          "internalType": "uint256",
          "name": "",
          "type": "uint256"
        }
      ],
      "stateMutability": "view",
      "type": "function"
    },
    {
      "inputs": [
        {
          "internalType": "uint32",
          "name": "marketIndex",
          "type": "uint32"
        },
        {
          "internalType": "uint256",
          "name": "marketUpdateIndex",
          "type": "uint256"
        },
        {
          "internalType": "uint256",
          "name": "longPrice",
          "type": "uint256"
        },
        {
          "internalType": "uint256",
          "name": "shortPrice",
          "type": "uint256"
        },
        {
          "internalType": "uint256",
          "name": "longValue",
          "type": "uint256"
        },
        {
          "internalType": "uint256",
          "name": "shortValue",
          "type": "uint256"
        }
      ],
      "name": "pushUpdatedMarketPricesToUpdateFloatIssuanceCalculations",
      "outputs": [],
      "stateMutability": "nonpayable",
      "type": "function"
    },
    {
      "inputs": [
        {
          "internalType": "bytes32",
          "name": "role",
          "type": "bytes32"
        },
        {
          "internalType": "address",
          "name": "account",
          "type": "address"
        }
      ],
      "name": "renounceRole",
      "outputs": [],
      "stateMutability": "nonpayable",
      "type": "function"
    },
    {
      "inputs": [
        {
          "internalType": "bytes32",
          "name": "role",
          "type": "bytes32"
        },
        {
          "internalType": "address",
          "name": "account",
          "type": "address"
        }
      ],
      "name": "revokeRole",
      "outputs": [],
      "stateMutability": "nonpayable",
      "type": "function"
    },
    {
      "inputs": [
        {
          "internalType": "uint32",
          "name": "",
          "type": "uint32"
        }
      ],
      "name": "safeExponentBitShifting",
      "outputs": [
        {
          "internalType": "uint256",
          "name": "",
          "type": "uint256"
        }
      ],
      "stateMutability": "view",
      "type": "function"
    },
    {
      "inputs": [
        {
          "internalType": "uint256",
          "name": "amountSyntheticTokensToShift",
          "type": "uint256"
        },
        {
          "internalType": "uint32",
          "name": "marketIndex",
          "type": "uint32"
        },
        {
          "internalType": "bool",
          "name": "isShiftFromLong",
          "type": "bool"
        }
      ],
      "name": "shiftTokens",
      "outputs": [],
      "stateMutability": "nonpayable",
      "type": "function"
    },
    {
      "inputs": [
        {
          "internalType": "address",
          "name": "from",
          "type": "address"
        },
        {
          "internalType": "uint256",
          "name": "amount",
          "type": "uint256"
        }
      ],
      "name": "stakeFromUser",
      "outputs": [],
      "stateMutability": "nonpayable",
      "type": "function"
    },
    {
      "inputs": [
        {
          "internalType": "bytes4",
          "name": "interfaceId",
          "type": "bytes4"
        }
      ],
      "name": "supportsInterface",
      "outputs": [
        {
          "internalType": "bool",
          "name": "",
          "type": "bool"
        }
      ],
      "stateMutability": "view",
      "type": "function"
    },
    {
      "inputs": [
        {
          "internalType": "uint32",
          "name": "",
          "type": "uint32"
        },
        {
          "internalType": "bool",
          "name": "",
          "type": "bool"
        }
      ],
      "name": "syntheticTokens",
      "outputs": [
        {
          "internalType": "address",
          "name": "",
          "type": "address"
        }
      ],
      "stateMutability": "view",
      "type": "function"
    },
    {
      "inputs": [
        {
          "internalType": "address",
          "name": "newImplementation",
          "type": "address"
        }
      ],
      "name": "upgradeTo",
      "outputs": [],
      "stateMutability": "nonpayable",
      "type": "function"
    },
    {
      "inputs": [
        {
          "internalType": "address",
          "name": "newImplementation",
          "type": "address"
        },
        {
          "internalType": "bytes",
          "name": "data",
          "type": "bytes"
        }
      ],
      "name": "upgradeToAndCall",
      "outputs": [],
      "stateMutability": "payable",
      "type": "function"
    },
    {
      "inputs": [
        {
          "internalType": "address",
          "name": "",
          "type": "address"
        },
        {
          "internalType": "address",
          "name": "",
          "type": "address"
        }
      ],
      "name": "userAmountStaked",
      "outputs": [
        {
          "internalType": "uint256",
          "name": "",
          "type": "uint256"
        }
      ],
      "stateMutability": "view",
      "type": "function"
    },
    {
      "inputs": [
        {
          "internalType": "uint32",
          "name": "",
          "type": "uint32"
        },
        {
          "internalType": "address",
          "name": "",
          "type": "address"
        }
      ],
      "name": "userIndexOfLastClaimedReward",
      "outputs": [
        {
          "internalType": "uint256",
          "name": "",
          "type": "uint256"
        }
      ],
      "stateMutability": "view",
      "type": "function"
    },
    {
      "inputs": [
        {
          "internalType": "uint32",
          "name": "",
          "type": "uint32"
        },
        {
          "internalType": "bool",
          "name": "",
          "type": "bool"
        },
        {
          "internalType": "address",
          "name": "",
          "type": "address"
        }
      ],
      "name": "userNextPrice_amountStakedSyntheticToken_toShiftAwayFrom",
      "outputs": [
        {
          "internalType": "uint256",
          "name": "",
          "type": "uint256"
        }
      ],
      "stateMutability": "view",
      "type": "function"
    },
    {
      "inputs": [
        {
          "internalType": "uint32",
          "name": "",
          "type": "uint32"
        },
        {
          "internalType": "address",
          "name": "",
          "type": "address"
        }
      ],
      "name": "userNextPrice_stakedSyntheticTokenShiftIndex",
      "outputs": [
        {
          "internalType": "uint256",
          "name": "",
          "type": "uint256"
        }
      ],
      "stateMutability": "view",
      "type": "function"
    },
    {
      "inputs": [
        {
          "internalType": "uint32",
          "name": "marketIndex",
          "type": "uint32"
        },
        {
          "internalType": "bool",
          "name": "isWithdrawFromLong",
          "type": "bool"
        },
        {
          "internalType": "uint256",
          "name": "amount",
          "type": "uint256"
        }
      ],
      "name": "withdraw",
      "outputs": [],
      "stateMutability": "nonpayable",
      "type": "function"
    },
    {
      "inputs": [
        {
          "internalType": "uint32",
          "name": "marketIndex",
          "type": "uint32"
        },
        {
          "internalType": "bool",
          "name": "isWithdrawFromLong",
          "type": "bool"
        }
      ],
      "name": "withdrawAll",
      "outputs": [],
      "stateMutability": "nonpayable",
      "type": "function"
    }
  ],
  "transactionHash": "0xcd2647ead28fecf2f38b76d181a9213fc6f8ae4aa75bd55799672cca675528dc",
  "args": [],
  "solcInputHash": "2f15f67ddf07afedb38acb0f53022f67",
  "bytecode": "0x608060405234801561001057600080fd5b50613e4e806100206000396000f3fe60806040526004361061025c5760003560e01c80639e59fd0f11610144578063dc86fe50116100b6578063edb010d71161007a578063edb010d714610835578063ef9c305214610855578063f344acc914610883578063f72c0d8b146108a3578063f9fe734e146108d7578063fdd3c2fd146109055761025c565b8063dc86fe5014610779578063e39ac044146107a7578063e68f3dbe146107d5578063e955a348146107f5578063eae5a8d9146108155761025c565b8063ba89f7b811610108578063ba89f7b8146106a0578063bda69fd8146106c0578063be751cb7146106e0578063c16199e314610700578063c17f8ce914610720578063d547741f146107595761025c565b80639e59fd0f146105fe578063a217fddf14610518578063a538415c1461061e578063b054c4a11461063e578063b0956b5f146106805761025c565b80634f1ef286116101dd57806375b238fc116101a157806375b238fc1461051857806385fcb8e31461052d57806386cbde1f1461055b57806391d148541461057f5780639441752f1461059f57806395b6ef0c146105de5761025c565b80634f1ef286146104685780635892457d1461047b5780635ac76ce1146104915780636a5304df146104ca578063738f4b8e146104f85761025c565b80632994987211610224578063299498721461036d5780632f2ff15d146103a557806336568abe146103c55780633659cfe6146103e55780633ebff44f146104055761025c565b806301ffc9a7146102615780630ca5a0521461029657806313e8868a146102b857806315f2081d146102f4578063248a9ca31461033d575b600080fd5b34801561026d57600080fd5b5061028161027c3660046136b4565b61093e565b60405190151581526020015b60405180910390f35b3480156102a257600080fd5b506102b66102b1366004613887565b610977565b005b3480156102c457600080fd5b506102e66102d3366004613733565b6101026020526000908152604090205481565b60405190815260200161028d565b34801561030057600080fd5b5061032861030f36600461342e565b6101076020526000908152604090205463ffffffff1681565b60405163ffffffff909116815260200161028d565b34801561034957600080fd5b506102e661035836600461367a565b60009081526065602052604090206001015490565b34801561037957600080fd5b5060fe5461038d906001600160a01b031681565b6040516001600160a01b03909116815260200161028d565b3480156103b157600080fd5b506102b66103c0366004613692565b6109cc565b3480156103d157600080fd5b506102b66103e0366004613692565b6109f8565b3480156103f157600080fd5b506102b661040036600461342e565b610a7b565b34801561041157600080fd5b5061044d610420366004613887565b61010960209081526000928352604080842090915290825290208054600182015460029092015490919083565b6040805193845260208401929092529082015260600161028d565b6102b66104763660046134e6565b610aa2565b34801561048757600080fd5b506102e660fd5481565b34801561049d57600080fd5b506102e66104ac36600461374d565b61010a60209081526000928352604080842090915290825290205481565b3480156104d657600080fd5b506102e66104e5366004613733565b6101006020526000908152604090205481565b34801561050457600080fd5b506102b66105133660046135cc565b610ab7565b34801561052457600080fd5b506102e6600081565b34801561053957600080fd5b506102e6610548366004613733565b6101056020526000908152604090205481565b34801561056757600080fd5b506102e66cd73d4c35b9df8aa7d6c3003573602c1b81565b34801561058b57600080fd5b5061028161059a366004613692565b610b26565b3480156105ab57600080fd5b506102e66105ba36600461380e565b61010d60209081526000938452604080852082529284528284209052825290205481565b3480156105ea57600080fd5b506102b66105f936600461347a565b610b53565b34801561060a57600080fd5b506102b661061936600461367a565b610ceb565b34801561062a57600080fd5b506102b66106393660046137d8565b610d32565b34801561064a57600080fd5b5061038d6106593660046137d8565b6101066020908152600092835260408084209091529082529020546001600160a01b031681565b34801561068c57600080fd5b506102b661069b366004613768565b610e29565b3480156106ac57600080fd5b5060fb5461038d906001600160a01b031681565b3480156106cc57600080fd5b506102b66106db3660046138da565b611029565b3480156106ec57600080fd5b506102b66106fb3660046138a2565b6110d4565b34801561070c57600080fd5b5060fc5461038d906001600160a01b031681565b34801561072c57600080fd5b506102e661073b366004613448565b61010b60209081526000928352604080842090915290825290205481565b34801561076557600080fd5b506102b6610774366004613692565b61113d565b34801561078557600080fd5b506102e6610794366004613733565b6101046020526000908152604090205481565b3480156107b357600080fd5b506102e66107c2366004613733565b6101086020526000908152604090205481565b3480156107e157600080fd5b506102b66107f03660046135a3565b611163565b34801561080157600080fd5b506102b6610810366004613849565b6112ef565b34801561082157600080fd5b5060ff5461038d906001600160a01b031681565b34801561084157600080fd5b506102b66108503660046136f4565b611452565b34801561086157600080fd5b506102e6610870366004613733565b6101016020526000908152604090205481565b34801561088f57600080fd5b506102b661089e36600461360c565b6116a8565b3480156108af57600080fd5b506102e67f189ab7a9244df0848122154315af71fe140f3db0fe014031783b0946b8c9d2e381565b3480156108e357600080fd5b506102e66108f2366004613733565b6101036020526000908152604090205481565b34801561091157600080fd5b506102e661092036600461374d565b61010c60209081526000928352604080842090915290825290205481565b60006001600160e01b03198216637965db0b60e01b148061096f57506301ffc9a760e01b6001600160e01b03198316145b90505b919050565b61097f611717565b6109898282611724565b6040805163ffffffff84168152602081018390527feb76801ec75076256b8590fd7c621c2541531e6b9ac568389fa5cdf72e664844910160405180910390a15050565b6000828152606560205260409020600101546109e981335b611752565b6109f383836117b6565b505050565b6001600160a01b0381163314610a6d5760405162461bcd60e51b815260206004820152602f60248201527f416363657373436f6e74726f6c3a2063616e206f6e6c792072656e6f756e636560448201526e103937b632b9903337b91039b2b63360891b60648201526084015b60405180910390fd5b610a77828261183c565b5050565b610a84816118a3565b610a9f816040518060200160405280600081525060006118ce565b50565b610aab826118a3565b610a77828260016118ce565b60fe54604051636c8d2b9760e01b81526001600160a01b0390911690636c8d2b9790610ae990859085906004016139b4565b600060405180830381600087803b158015610b0357600080fd5b505af1158015610b17573d6000803e3d6000fd5b50505050610a77828233611a4f565b60008281526065602090815260408083206001600160a01b038516845290915290205460ff165b92915050565b600054610100900460ff1680610b6c575060005460ff16155b610b885760405162461bcd60e51b8152600401610a6490613a30565b600054610100900460ff16158015610baa576000805461ffff19166101011790555b6001600160a01b03871615801590610bca57506001600160a01b03861615155b8015610bde57506001600160a01b03851615155b8015610bf257506001600160a01b03841615155b8015610c0657506001600160a01b03831615155b8015610c1157508115155b610c1a57600080fd5b60fb80546001600160a01b038086166001600160a01b03199283161790925560fc805487841690831617905560fe805489841690831617905560ff805492881692909116919091179055610c6d87611c16565b610c7682611c9b565b604080516001600160a01b038981168252868116602083015285811682840152871660608201526080810184905290517faf92ca815edd9a90dc4aa1dfc722fb1624d5b5f914b25ae3cf979ce6600f0a969181900360a00190a18015610ce2576000805461ff00191690555b50505050505050565b610cf3611717565b610cfc81611c9b565b6040518181527f062ffcd555faf2b2c81f26010ee6db2e23106941bfed5ae979abd111975d815d9060200160405180910390a150565b60fe546040516305c8146f60e01b815263ffffffff841660048201526001600160a01b03909116906305c8146f90602401600060405180830381600087803b158015610d7d57600080fd5b505af1158015610d91573d6000803e3d6000fd5b50505050610d9f8233611cc1565b63ffffffff8216600081815261010660209081526040808320851515808552908352818420546001600160a01b031680855261010b845282852033808752818652848720805498885261010d8752858820948852938652848720908752855292909420549190925290819055909190610e228584610e1d8486613d0e565b611d68565b5050505050565b610e31611f05565b670de0b6b3a7640000851015610e945760405162461bcd60e51b815260206004820152602260248201527f6b496e697469616c4d756c7469706c696572206d757374206265203e3d203165604482015261062760f31b6064820152608401610a64565b6001600160a01b03808816600081815261010760209081526040808320805463ffffffff8f1663ffffffff199182168117909255958c168085528285208054909716821790965580845261010983528184208480528352818420429055835261010682528083206001845280835281842080546001600160a01b031990811690961790558380529091529020805490911690911790556032610f3889848484611f4f565b63ffffffff89166000908152610100602090815260408083208890556101019091529020869055610f698985611724565b6040805163ffffffff8b16815260208101869052908101869052606081018790526080810184905260a0810183905260c081018290527fe0bc2edbe91b35919ee6608af52675476a1cb964af5d671c9e2c018d3cae98919060e00160405180910390a16040805163ffffffff8b16815260006020820181905291810182905260608101919091527f65663e89e16ccfe470dd659bacdf6fddae8185e108d00bc980d34be7e86466d0906080015b60405180910390a1505050505050505050565b611031611f05565b60008061104c8861104360018a613d0e565b88888888612269565b63ffffffff8a166000818152610109602090815260408083208d8452825280832060018101879055600281018690554281558484526101088352928190208d905580519384529083018c90528201849052606082018390529294509092507f65663e89e16ccfe470dd659bacdf6fddae8185e108d00bc980d34be7e86466d090608001611016565b6110dc611717565b6110e884848484611f4f565b6040805163ffffffff8616815260208101859052908101839052606081018290527f940844064f9f8938ffe6a879f6143788f9f7e81daf872fee4fe2387b7cf9448d906080015b60405180910390a150505050565b60008281526065602052604090206001015461115981336109e4565b6109f3838361183c565b3361116d81612312565b3360009081526101076020526040908190205460fe5491516305c8146f60e01b815263ffffffff90911660048201819052916001600160a01b0316906305c8146f90602401600060405180830381600087803b1580156111cc57600080fd5b505af11580156111e0573d6000803e3d6000fd5b5050505063ffffffff8116600081815261010a602090815260408083206001600160a01b0389168452825280832054938352610108909152902054811580159061122957508082105b15611238576112388387611cc1565b33600090815261010b602090815260408083206001600160a01b038a1684529091528120805487929061126c908490613abf565b909155505063ffffffff8316600090815261010a602090815260408083206001600160a01b038a1680855290835292819020849055805192835233918301919091528101869052606081018290527fef7c8dfef14cbefdf829b8f066b068b677992411137321d64b3ed4538c2b36379060800160405180910390a1505050505050565b63ffffffff83166000818152610106602090815260408083208615158452909152908190205460fe5491516305c8146f60e01b815260048101939093526001600160a01b03908116929116906305c8146f90602401600060405180830381600087803b15801561135e57600080fd5b505af1158015611372573d6000803e3d6000fd5b505050506113808433611cc1565b6001600160a01b038116600090815261010b60209081526040808320338085529083528184205463ffffffff8916855261010d8452828520881515865284528285209185529252909120548381018210156114165760405162461bcd60e51b81526020600482015260166024820152756e6f7420656e6f75676820746f20776974686472617760501b6044820152606401610a64565b6001600160a01b038316600090815261010b602090815260408083203384529091529020848303905561144a868486611d68565b505050505050565b813361145e8282612370565b600085116114a05760405162461bcd60e51b815260206004820152600f60248201526e2737903d32b9379039b434b33a399760891b6044820152606401610a64565b63ffffffff84166000818152610106602090815260408083208715158085529083528184205494845261010d835281842090845282528083203384529091528120546001600160a01b03909216916114f89088613abf565b6001600160a01b038316600090815261010b6020908152604080832033845290915290205490915081111561156f5760405162461bcd60e51b815260206004820152601a60248201527f4e6f7420656e6f75676820746f6b656e7320746f2073686966740000000000006044820152606401610a64565b60fe546040516371fd962360e01b815263ffffffff881660048201526024810189905286151560448201526001600160a01b03909116906371fd962390606401600060405180830381600087803b1580156115c957600080fd5b505af11580156115dd573d6000803e3d6000fd5b5050505063ffffffff8616600081815261010d60209081526040808320891515845282528083203384528252808320859055928252610108905290812054611626906001613abf565b63ffffffff8816600081815261010c6020908152604080832033808552908352928190208590558051928352908201929092529081018a90528715156060820152608081018290529091507f1393b60b20fc61ac59730bbda202288e21de9c963502cfe81fcb843b427d46e29060a00160405180910390a15050505050505050565b60fe54604051636c8d2b9760e01b81526001600160a01b0390911690636c8d2b97906116da90869086906004016139b4565b600060405180830381600087803b1580156116f457600080fd5b505af1158015611708573d6000803e3d6000fd5b505050506109f3838383611a4f565b611722600033611752565b565b66b1a2bc2ec5000081111561173857600080fd5b63ffffffff90911660009081526101026020526040902055565b61175c8282610b26565b610a7757611774816001600160a01b031660146123d9565b61177f8360206123d9565b60405160200161179092919061393f565b60408051601f198184030181529082905262461bcd60e51b8252610a64916004016139fd565b6117c08282610b26565b610a775760008281526065602090815260408083206001600160a01b03851684529091529020805460ff191660011790556117f83390565b6001600160a01b0316816001600160a01b0316837f2f8788117e7eff1d82e926ec794901d17c78024a50270940304540a733656f0d60405160405180910390a45050565b6118468282610b26565b15610a775760008281526065602090815260408083206001600160a01b0385168085529252808320805460ff1916905551339285917ff6391f5c32d9c69d2a47ea670b442974b53935d1edc7fd64eb21e047a839171b9190a45050565b7f189ab7a9244df0848122154315af71fe140f3db0fe014031783b0946b8c9d2e3610a7781336109e4565b60006119017f360894a13ba1a3210667c828492db98dca3e2076cc3735a920a3ca505d382bbc546001600160a01b031690565b905061190c846125c2565b6000835111806119195750815b1561192a576119288484612667565b505b7f4910fdfa16fed3260ed0e7147f7cc6da11a60208b5b9406d12a635614ffd9143805460ff16610e2257805460ff191660011781556040516001600160a01b03831660248201526119a990869060440160408051601f198184030181529190526020810180516001600160e01b0316631b2ce7f360e11b179052612667565b50805460ff191681557f360894a13ba1a3210667c828492db98dca3e2076cc3735a920a3ca505d382bbc546001600160a01b03838116911614611a465760405162461bcd60e51b815260206004820152602f60248201527f45524331393637557067726164653a207570677261646520627265616b73206660448201526e75727468657220757067726164657360881b6064820152608401610a64565b610e2285612752565b600082815b81811015611c05576000611a9c878784818110611a8157634e487b7160e01b600052603260045260246000fd5b9050602002016020810190611a969190613733565b86612792565b90508015611bf2576101086000888885818110611ac957634e487b7160e01b600052603260045260246000fd5b9050602002016020810190611ade9190613733565b63ffffffff1663ffffffff1681526020019081526020016000205461010a6000898986818110611b1e57634e487b7160e01b600052603260045260246000fd5b9050602002016020810190611b339190613733565b63ffffffff168152602080820192909252604090810160009081206001600160a01b038a168252909252902055611b6a8185613abf565b93507f2f0b57f663333228518fca119813fe0f6daeb5f19d087965f56b45fecf2d520585888885818110611bae57634e487b7160e01b600052603260045260246000fd5b9050602002016020810190611bc39190613733565b604080516001600160a01b03909316835263ffffffff9091166020830152810183905260600160405180910390a15b5080611bfd81613d6c565b915050611a54565b508115610e2257610e228383612bb6565b600054610100900460ff1680611c2f575060005460ff16155b611c4b5760405162461bcd60e51b8152600401610a6490613a30565b600054610100900460ff16158015611c6d576000805461ffff19166101011790555b611c75612cb2565b611c7d612d35565b611c8682612d93565b8015610a77576000805461ff00191690555050565b670de0b6b3a76400008111158015611cb35750600081115b611cbc57600080fd5b60fd55565b6000611ccd8383612792565b905080156109f35763ffffffff83166000908152610108602090815260408083205461010a83528184206001600160a01b038716855290925290912055611d148282612bb6565b604080516001600160a01b038416815263ffffffff851660208201529081018290527f2f0b57f663333228518fca119813fe0f6daeb5f19d087965f56b45fecf2d52059060600160405180910390a1505050565b63ffffffff831660009081526101026020526040812054670de0b6b3a764000090611d939084613cb0565b611d9d9190613b05565b60fc5460405163a9059cbb60e01b81526001600160a01b0391821660048201526024810183905291925084169063a9059cbb90604401602060405180830381600087803b158015611ded57600080fd5b505af1158015611e01573d6000803e3d6000fd5b505050506040513d601f19601f82011682018060405250810190611e25919061365e565b506001600160a01b03831663a9059cbb33611e408486613d0e565b6040516001600160e01b031960e085901b1681526001600160a01b0390921660048301526024820152604401602060405180830381600087803b158015611e8657600080fd5b505af1158015611e9a573d6000803e3d6000fd5b505050506040513d601f19601f82011682018060405250810190611ebe919061365e565b50604080513381526001600160a01b03851660208201529081018390527fb7c918e0e249f999e965cafeb6c664271b3f4317d296461500e71da39f0cbda39060600161112f565b60fe546001600160a01b031633146117225760405162461bcd60e51b815260206004820152600d60248201526c1b9bdd08131bdb99d4da1bdc9d609a1b6044820152606401610a64565b670c7d713b49d9ffff1982138015611f6e5750670c7d713b49da000082125b611fd85760405162461bcd60e51b815260206004820152603560248201527f62616c616e6365496e63656e7469766543757276655f657175696c69627269756044820152746d4f6666736574206f7574206f6620626f756e647360581b6064820152608401610a64565b6000831161203d5760405162461bcd60e51b815260206004820152602c60248201527f62616c616e6365496e63656e7469766543757276655f6578706f6e656e74206f60448201526b7574206f6620626f756e647360a01b6064820152608401610a64565b6064811061209b5760405162461bcd60e51b815260206004820152602560248201527f736166654578706f6e656e744269745368696674696e67206f7574206f6620626044820152646f756e647360d81b6064820152608401610a64565b60fe54604051631678fc4360e31b815263ffffffff86166004820152600060248201819052916001600160a01b03169063b3c7e2189060440160206040518083038186803b1580156120ec57600080fd5b505afa158015612100573d6000803e3d6000fd5b505050506040513d601f19601f8201168201806040525081019061212491906136dc565b60fe54604051631678fc4360e31b815263ffffffff88166004820152600160248201526001600160a01b039091169063b3c7e2189060440160206040518083038186803b15801561217457600080fd5b505afa158015612188573d6000803e3d6000fd5b505050506040513d601f19601f820116820180604052508101906121ac91906136dc565b6121b69190613abf565b905083826121c6836101f4613cb0565b6121d192911c613b5f565b50606481831c116122345760405162461bcd60e51b815260206004820152602760248201527f626974207368696674696e6720746f6f206c616e676520666f7220746f74616c604482015266081b1bd8dad95960ca1b6064820152608401610a64565b5063ffffffff909316600090815261010360209081526040808320949094556101048152838220929092556101059091522055565b60008060008061227c8a89898989612e3d565b91509150600061228c8b8b6130e6565b90506122988382613cb0565b63ffffffff8c166000908152610109602090815260408083208e84529091529020600101546122c79190613abf565b6122d18383613cb0565b63ffffffff8d166000908152610109602090815260408083208f84529091529020600201546123009190613abf565b94509450505050965096945050505050565b6001600160a01b0381166000908152610107602052604090205463ffffffff16610a9f5760405162461bcd60e51b815260206004820152600f60248201526e0dcdee840ecc2d8d2c840e6f2dce8d608b1b6044820152606401610a64565b63ffffffff8216600090815261010c60209081526040808320338452909152902054158015906123ca575063ffffffff82166000908152610108602090815260408083205461010c83528184203385529092529091205411155b15610a7757610a778233611cc1565b606060006123e8836002613cb0565b6123f3906002613abf565b67ffffffffffffffff81111561241957634e487b7160e01b600052604160045260246000fd5b6040519080825280601f01601f191660200182016040528015612443576020820181803683370190505b509050600360fc1b8160008151811061246c57634e487b7160e01b600052603260045260246000fd5b60200101906001600160f81b031916908160001a905350600f60fb1b816001815181106124a957634e487b7160e01b600052603260045260246000fd5b60200101906001600160f81b031916908160001a90535060006124cd846002613cb0565b6124d8906001613abf565b90505b600181111561256c576f181899199a1a9b1b9c1cb0b131b232b360811b85600f166010811061251a57634e487b7160e01b600052603260045260246000fd5b1a60f81b82828151811061253e57634e487b7160e01b600052603260045260246000fd5b60200101906001600160f81b031916908160001a90535060049490941c9361256581613d55565b90506124db565b5083156125bb5760405162461bcd60e51b815260206004820181905260248201527f537472696e67733a20686578206c656e67746820696e73756666696369656e746044820152606401610a64565b9392505050565b803b6126265760405162461bcd60e51b815260206004820152602d60248201527f455243313936373a206e657720696d706c656d656e746174696f6e206973206e60448201526c1bdd08184818dbdb9d1c9858dd609a1b6064820152608401610a64565b7f360894a13ba1a3210667c828492db98dca3e2076cc3735a920a3ca505d382bbc80546001600160a01b0319166001600160a01b0392909216919091179055565b6060823b6126c65760405162461bcd60e51b815260206004820152602660248201527f416464726573733a2064656c65676174652063616c6c20746f206e6f6e2d636f6044820152651b9d1c9858dd60d21b6064820152608401610a64565b600080846001600160a01b0316846040516126e19190613923565b600060405180830381855af49150503d806000811461271c576040519150601f19603f3d011682016040523d82523d6000602084013e612721565b606091505b50915091506127498282604051806060016040528060278152602001613df260279139613112565b95945050505050565b61275b816125c2565b6040516001600160a01b038216907fbc7cd75a20ee27fd9adebab32041f755214dbc6bffa90cc0225b39da2e5c2d3b90600090a250565b63ffffffff821660008181526101066020908152604080832060018452825280832054838052818420546001600160a01b0391821680865261010b808652848720898516808952908752858820549490931680885290865284872083885286528487205488885261010a875285882093885292865284872054978752610108909552928520549495929491929091808214156128375760009650505050505050610b4d565b63ffffffff8916600090815261010c602090815260408083206001600160a01b038c16845290915290205480158015906128715750818111155b15612b99576128838a8686868561314b565b63ffffffff8b16600090815261010d602090815260408083206001845282528083206001600160a01b038e16845290915290205490985080156129a35760fe54604051630125edfd60e71b815263ffffffff8d1660048201526024810183905260016044820152606481018490526001600160a01b03909116906392f6fe809060840160206040518083038186803b15801561291e57600080fd5b505afa158015612932573d6000803e3d6000fd5b505050506040513d601f19601f8201168201806040525081019061295691906136dc565b6129609086613abf565b945061296c8187613d0e565b63ffffffff8c16600090815261010d602090815260408083206001845282528083206001600160a01b038f16845290915281205595505b5063ffffffff8a16600090815261010d6020908152604080832083805282528083206001600160a01b038d1684529091529020548015612abf5760fe54604051630125edfd60e71b815263ffffffff8d1660048201526024810183905260006044820152606481018490526001600160a01b03909116906392f6fe809060840160206040518083038186803b158015612a3b57600080fd5b505afa158015612a4f573d6000803e3d6000fd5b505050506040513d601f19601f82011682018060405250810190612a7391906136dc565b612a7d9087613abf565b9550612a898186613d0e565b63ffffffff8c16600090815261010d6020908152604080832083805282528083206001600160a01b038f16845290915281205594505b6001600160a01b03888116600090815261010b602081815260408084208f86168086529083528185208c9055948c168452918152818320848452815291819020889055805192835263ffffffff8e16918301919091528101879052606081018690527fea2b4628943d2a0a2c85f85b60007fb6f8273d91c0eaff6f8b140a5007637b359060800160405180910390a1612b5b8b8787858761314b565b612b65908a613abf565b63ffffffff8c16600090815261010c602090815260408083206001600160a01b038f1684529091528120559850612ba99050565b612ba68a8686868661314b565b97505b5050505050505092915050565b60ff546040516340c10f1960e01b81526001600160a01b03848116600483015260248201849052909116906340c10f1990604401600060405180830381600087803b158015612c0457600080fd5b505af1158015612c18573d6000803e3d6000fd5b505060ff5460fb5460fd546001600160a01b0392831694506340c10f199350911690670de0b6b3a764000090612c4e9086613cb0565b612c589190613b05565b6040516001600160e01b031960e085901b1681526001600160a01b0390921660048301526024820152604401600060405180830381600087803b158015612c9e57600080fd5b505af115801561144a573d6000803e3d6000fd5b600054610100900460ff1680612ccb575060005460ff16155b612ce75760405162461bcd60e51b8152600401610a6490613a30565b600054610100900460ff16158015612d09576000805461ffff19166101011790555b612d1161323e565b612d1961323e565b612d2161323e565b8015610a9f576000805461ff001916905550565b600054610100900460ff1680612d4e575060005460ff16155b612d6a5760405162461bcd60e51b8152600401610a6490613a30565b600054610100900460ff16158015612d11576000805461ffff1916610101179055612d1961323e565b600054610100900460ff1680612dac575060005460ff16155b612dc85760405162461bcd60e51b8152600401610a6490613a30565b600054610100900460ff16158015612dea576000805461ffff19166101011790555b6001600160a01b038216612dfd57600080fd5b612e086000836132a8565b612e136000836132a8565b611c867f189ab7a9244df0848122154315af71fe140f3db0fe014031783b0946b8c9d2e3836132a8565b6000806000612e4b886132b2565b90506000612e598587613abf565b63ffffffff8a166000908152610104602052604081205491925090671bc16d674ec8000090612e89908490613c2d565b612e939190613ad7565b63ffffffff8b166000908152610105602052604090205490915087612eb9836002613c2d565b612ec39089613ccf565b1215612fe157868212612ee9576000612edc8a86613cb0565b95509550505050506130dc565b63ffffffff8b1660009081526101036020526040812054612f0b600184613d0e565b612f15858b613ccf565b612f2092911c613b5f565b63ffffffff8d166000908152610103602052604081205491925090612f479086851c613b5f565b9050600081612f5e846706f05b59d3b20000613cb0565b612f689190613b05565b90506000612f7e82670de0b6b3a7640000613d0e565b9050670de0b6b3a76400008e612f948a85613cb0565b612f9e9190613cb0565b612fa89190613b05565b670de0b6b3a76400008e612fbc8b85613cb0565b612fc69190613cb0565b612fd09190613b05565b9950995050505050505050506130dc565b87612feb83613d87565b1261300957612ffa8a85613cb0565b600095509550505050506130dc565b63ffffffff8b166000908152610103602052604081205461302b600184613d0e565b613035858c613a7e565b61304092911c613b5f565b63ffffffff8d1660009081526101036020526040812054919250906130679086851c613b5f565b905060008161307e846706f05b59d3b20000613cb0565b6130889190613b05565b9050600061309e82670de0b6b3a7640000613d0e565b9050670de0b6b3a76400008e6130b48a84613cb0565b6130be9190613cb0565b6130c89190613b05565b670de0b6b3a76400008e612fbc8b86613cb0565b9550959350505050565b63ffffffff82166000908152610109602090815260408083208484529091528120546125bb9042613d0e565b606083156131215750816125bb565b8251156131315782518084602001fd5b8160405162461bcd60e51b8152600401610a6491906139fd565b600084156131c25763ffffffff8616600090815261010960209081526040808320868452909152808220600190810154858452918320015461318d9190613d0e565b90506cd73d4c35b9df8aa7d6c3003573602c1b6131aa8783613cb0565b6131b49190613b05565b6131be9083613abf565b9150505b83156127495763ffffffff861660009081526101096020908152604080832086845290915280822060029081015485845291832001546132029190613d0e565b90506cd73d4c35b9df8aa7d6c3003573602c1b61321f8683613cb0565b6132299190613b05565b6132339083613abf565b979650505050505050565b600054610100900460ff1680613257575060005460ff16155b6132735760405162461bcd60e51b8152600401610a6490613a30565b600054610100900460ff16158015612d21576000805461ffff19166101011790558015610a9f576000805461ff001916905550565b610a7782826117b6565b60008060006132c084613375565b91509150670de0b6b3a76400008110156132ea57634e487b7160e01b600052600160045260246000fd5b63ffffffff8416600090815261010960209081526040808320838052909152902054826133178242613d0e565b101561336257826133288242613d0e565b61333a670de0b6b3a764000085613d0e565b6133449190613cb0565b61334e9190613b05565b6133589083613d0e565b9350505050610972565b670de0b6b3a76400009350505050610972565b63ffffffff81166000908152610100602090815260408083205461010190925290912054670de0b6b3a76400008110156133b45750670de0b6b3a76400005b915091565b80356001600160a01b038116811461097257600080fd5b60008083601f8401126133e1578081fd5b50813567ffffffffffffffff8111156133f8578182fd5b6020830191508360208260051b850101111561341357600080fd5b9250929050565b803563ffffffff8116811461097257600080fd5b60006020828403121561343f578081fd5b6125bb826133b9565b6000806040838503121561345a578081fd5b613463836133b9565b9150613471602084016133b9565b90509250929050565b60008060008060008060c08789031215613492578182fd5b61349b876133b9565b95506134a9602088016133b9565b94506134b7604088016133b9565b93506134c5606088016133b9565b92506134d3608088016133b9565b915060a087013590509295509295509295565b600080604083850312156134f8578182fd5b613501836133b9565b9150602083013567ffffffffffffffff8082111561351d578283fd5b818501915085601f830112613530578283fd5b81358181111561354257613542613dcd565b604051601f8201601f19908116603f0116810190838211818310171561356a5761356a613dcd565b81604052828152886020848701011115613582578586fd5b82602086016020830137856020848301015280955050505050509250929050565b600080604083850312156135b5578182fd5b6135be836133b9565b946020939093013593505050565b600080602083850312156135de578182fd5b823567ffffffffffffffff8111156135f4578283fd5b613600858286016133d0565b90969095509350505050565b600080600060408486031215613620578283fd5b833567ffffffffffffffff811115613636578384fd5b613642868287016133d0565b90945092506136559050602085016133b9565b90509250925092565b60006020828403121561366f578081fd5b81516125bb81613de3565b60006020828403121561368b578081fd5b5035919050565b600080604083850312156136a4578182fd5b82359150613471602084016133b9565b6000602082840312156136c5578081fd5b81356001600160e01b0319811681146125bb578182fd5b6000602082840312156136ed578081fd5b5051919050565b600080600060608486031215613708578081fd5b833592506137186020850161341a565b9150604084013561372881613de3565b809150509250925092565b600060208284031215613744578081fd5b6125bb8261341a565b6000806040838503121561375f578182fd5b6134638361341a565b600080600080600080600080610100898b031215613784578586fd5b61378d8961341a565b975061379b60208a016133b9565b96506137a960408a016133b9565b979a96995096976060810135975060808101359660a0820135965060c0820135955060e0909101359350915050565b600080604083850312156137ea578182fd5b6137f38361341a565b9150602083013561380381613de3565b809150509250929050565b600080600060608486031215613822578081fd5b61382b8461341a565b9250602084013561383b81613de3565b9150613655604085016133b9565b60008060006060848603121561385d578081fd5b6138668461341a565b9250602084013561387681613de3565b929592945050506040919091013590565b60008060408385031215613899578182fd5b6135be8361341a565b600080600080608085870312156138b7578182fd5b6138c08561341a565b966020860135965060408601359560600135945092505050565b60008060008060008060c087890312156138f2578384fd5b6138fb8761341a565b9860208801359850604088013597606081013597506080810135965060a00135945092505050565b60008251613935818460208701613d25565b9190910192915050565b60007f416363657373436f6e74726f6c3a206163636f756e742000000000000000000082528351613977816017850160208801613d25565b7001034b99036b4b9b9b4b733903937b6329607d1b60179184019182015283516139a8816028840160208801613d25565b01602801949350505050565b60208082528181018390526000908460408401835b868110156139f25763ffffffff6139df8461341a565b16825291830191908301906001016139c9565b509695505050505050565b6000602082528251806020840152613a1c816040850160208701613d25565b601f01601f19169190910160400192915050565b6020808252602e908201527f496e697469616c697a61626c653a20636f6e747261637420697320616c72656160408201526d191e481a5b9a5d1a585b1a5e995960921b606082015260800190565b600080821280156001600160ff1b0384900385131615613aa057613aa0613da1565b600160ff1b8390038412811615613ab957613ab9613da1565b50500190565b60008219821115613ad257613ad2613da1565b500190565b600082613ae657613ae6613db7565b600160ff1b821460001984141615613b0057613b00613da1565b500590565b600082613b1457613b14613db7565b500490565b80825b6001808611613b2b5750613b56565b818704821115613b3d57613b3d613da1565b80861615613b4a57918102915b9490941c938002613b1c565b94509492505050565b60006125bb6000198484600082613b78575060016125bb565b81613b85575060006125bb565b8160018114613b9b5760028114613ba557613bd2565b60019150506125bb565b60ff841115613bb657613bb6613da1565b6001841b915084821115613bcc57613bcc613da1565b506125bb565b5060208310610133831016604e8410600b8410161715613c05575081810a83811115613c0057613c00613da1565b6125bb565b613c128484846001613b19565b808604821115613c2457613c24613da1565b02949350505050565b60006001600160ff1b0381841382841380821686840486111615613c5357613c53613da1565b600160ff1b84871282811687830589121615613c7157613c71613da1565b858712925087820587128484161615613c8c57613c8c613da1565b87850587128184161615613ca257613ca2613da1565b505050929093029392505050565b6000816000190483118215151615613cca57613cca613da1565b500290565b60008083128015600160ff1b850184121615613ced57613ced613da1565b6001600160ff1b0384018313811615613d0857613d08613da1565b50500390565b600082821015613d2057613d20613da1565b500390565b60005b83811015613d40578181015183820152602001613d28565b83811115613d4f576000848401525b50505050565b600081613d6457613d64613da1565b506000190190565b6000600019821415613d8057613d80613da1565b5060010190565b6000600160ff1b821415613d9d57613d9d613da1565b0390565b634e487b7160e01b600052601160045260246000fd5b634e487b7160e01b600052601260045260246000fd5b634e487b7160e01b600052604160045260246000fd5b8015158114610a9f57600080fdfe416464726573733a206c6f772d6c6576656c2064656c65676174652063616c6c206661696c6564a26469706673582212204c213ed51479420e5253cd448444854b733e7c6ad2f80266bedfb7f652f7628164736f6c63430008030033",
  "devdoc": {
    "kind": "dev",
    "methods": {
      "addNewStakingFund(uint32,address,address,uint256,uint256,uint256,uint256,int256)": {
        "params": {
          "_balanceIncentiveCurve_equilibriumOffset": "Offset for balance curve (see _calculateFloatPerSecond)",
          "_balanceIncentiveCurve_exponent": "Exponent for balance curve (see _calculateFloatPerSecond)",
          "kInitialMultiplier": "Initial boost on float generation for the market.",
          "kPeriod": "Period which the boost should last.",
          "longToken": "Address of the long token for the market.",
          "marketIndex": "Identifies the market.",
          "shortToken": "Address of the short token for the market.",
          "unstakeFee_e18": "Percentage of tokens that are levied on unstaking in base 1e18."
        }
      },
      "changeBalanceIncentiveParameters(uint32,uint256,int256,uint256)": {
        "params": {
          "_balanceIncentiveCurve_equilibriumOffset": "The new offset.",
          "_balanceIncentiveCurve_exponent": "The new exponent for the curve.",
          "_safeExponentBitShifting": "The new bitshifting applied to the curve.",
          "marketIndex": "Identifies the market."
        }
      },
      "changeFloatPercentage(uint256)": {
        "params": {
          "newFloatPercentage": "The new float percentage in base 1e18."
        }
      },
      "changeUnstakeFee(uint32,uint256)": {
        "params": {
          "marketIndex": "Identifies the market.",
          "newMarketUnstakeFee_e18": "The new unstake fee."
        }
      },
      "claimFloatCustom(uint32[])": {
        "params": {
          "marketIndexes": "Identifiers for the markets for which to mint float."
        }
      },
      "claimFloatCustomFor(uint32[],address)": {
        "params": {
          "marketIndexes": "Identifiers for the markets for which to mint float.",
          "user": "The address of the user."
        }
      },
      "getRoleAdmin(bytes32)": {
        "details": "Returns the admin role that controls `role`. See {grantRole} and {revokeRole}. To change a role's admin, use {_setRoleAdmin}."
      },
      "grantRole(bytes32,address)": {
        "details": "Grants `role` to `account`. If `account` had not been already granted `role`, emits a {RoleGranted} event. Requirements: - the caller must have ``role``'s admin role."
      },
      "hasRole(bytes32,address)": {
        "details": "Returns `true` if `account` has been granted `role`."
      },
      "initialize(address,address,address,address,address,uint256)": {
        "details": "Calls OpenZeppelin's initializer modifier.",
        "params": {
          "_admin": "Address of the admin role.",
          "_floatCapital": "Address of the contract which earns a fixed percentage of Float.",
          "_floatPercentage": "Determines the float percentage that gets minted for Float Capital, base 1e18.",
          "_floatToken": "Address of the Float token earned by staking.",
          "_floatTreasury": "Address of the treasury contract for managing fees.",
          "_longShort": "Address of the LongShort contract, a deployed LongShort.sol"
        }
      },
      "pushUpdatedMarketPricesToUpdateFloatIssuanceCalculations(uint32,uint256,uint256,uint256,uint256,uint256)": {
        "params": {
          "longPrice": "The price of the long token as defined in LongShort.sol",
          "longValue": "The value locked in the long side of the market.",
          "marketIndex": "An identifier for the market.",
          "marketUpdateIndex": "Current update index in the LongShort contract for this market.",
          "shortPrice": "The price of the short token as defined in LongShort.sol",
          "shortValue": "The value locked in the short side of the market."
        }
      },
      "renounceRole(bytes32,address)": {
        "details": "Revokes `role` from the calling account. Roles are often managed via {grantRole} and {revokeRole}: this function's purpose is to provide a mechanism for accounts to lose their privileges if they are compromised (such as when a trusted device is misplaced). If the calling account had been granted `role`, emits a {RoleRevoked} event. Requirements: - the caller must be `account`."
      },
      "revokeRole(bytes32,address)": {
        "details": "Revokes `role` from `account`. If `account` had been granted `role`, emits a {RoleRevoked} event. Requirements: - the caller must have ``role``'s admin role."
      },
      "shiftTokens(uint256,uint32,bool)": {
        "params": {
          "amountSyntheticTokensToShift": "Amount of tokens to shift.",
          "isShiftFromLong": "Whether the shift is from long to short or short to long.",
          "marketIndex": "Identifier for the market."
        }
      },
      "stakeFromUser(address,uint256)": {
        "params": {
          "amount": "Amount to stake.",
          "from": "Address to stake for."
        }
      },
      "supportsInterface(bytes4)": {
        "details": "See {IERC165-supportsInterface}."
      },
      "upgradeTo(address)": {
        "details": "Upgrade the implementation of the proxy to `newImplementation`. Calls {_authorizeUpgrade}. Emits an {Upgraded} event."
      },
      "upgradeToAndCall(address,bytes)": {
        "details": "Upgrade the implementation of the proxy to `newImplementation`, and subsequently execute the function call encoded in `data`. Calls {_authorizeUpgrade}. Emits an {Upgraded} event."
      },
      "withdraw(uint32,bool,uint256)": {
        "params": {
          "amount": "Amount to withdraw.",
          "isWithdrawFromLong": "is synthetic token to be withdrawn long or short",
          "marketIndex": "Market index of staked synthetic token"
        }
      },
      "withdrawAll(uint32,bool)": {
        "params": {
          "isWithdrawFromLong": "is synthetic token to be withdrawn long or short",
          "marketIndex": "Market index of staked synthetic token"
        }
      }
    },
    "stateVariables": {
      "userNextPrice_amountStakedSyntheticToken_toShiftAwayFrom": {
        "details": "marketIndex => usersAddress => amountUserRequestedToShiftAwayFromLongOnNextUpdate"
      },
      "userNextPrice_stakedSyntheticTokenShiftIndex": {
        "details": "marketIndex => usersAddress => stakerTokenShiftIndex"
      }
    },
    "version": 1
  },
  "userdoc": {
    "kind": "user",
    "methods": {
      "addNewStakingFund(uint32,address,address,uint256,uint256,uint256,uint256,int256)": {
        "notice": "Sets this contract to track staking for a market in LongShort.sol"
      },
      "changeBalanceIncentiveParameters(uint32,uint256,int256,uint256)": {
        "notice": "Changes the balance incentive exponent for a market"
      },
      "changeFloatPercentage(uint256)": {
        "notice": "Changes percentage of float that is minted for float capital."
      },
      "changeUnstakeFee(uint32,uint256)": {
        "notice": "Changes unstake fee for a market"
      },
      "claimFloatCustom(uint32[])": {
        "notice": "Mints outstanding float for msg.sender."
      },
      "claimFloatCustomFor(uint32[],address)": {
        "notice": "Mints outstanding float on behalf of another user."
      },
      "initialize(address,address,address,address,address,uint256)": {
        "notice": "Initializes the contract."
      },
      "pushUpdatedMarketPricesToUpdateFloatIssuanceCalculations(uint32,uint256,uint256,uint256,uint256,uint256)": {
        "notice": "Adds new accumulativeIssuancePerStakedSynthSnapshots for the given long/short tokens. Called by the ILongShort contract whenever there is a state change for a market."
      },
      "shiftTokens(uint256,uint32,bool)": {
        "notice": "Allows users to shift their staked tokens from one side of the market to the other at the next price."
      },
      "stakeFromUser(address,uint256)": {
        "notice": "A user with synthetic tokens stakes by calling stake on the token contract which calls this function. We need to first update the state of the LongShort contract for this market before staking to correctly calculate user rewards."
      },
      "withdraw(uint32,bool,uint256)": {
        "notice": "Withdraw function. Allows users to unstake."
      },
      "withdrawAll(uint32,bool)": {
        "notice": "Allows users to withdraw their entire stake for a token."
      }
    },
    "version": 1
  },
  "storageLayout": {
    "storage": [
      {
        "astId": 1148,
        "contract": "contracts/Staker.sol:Staker",
        "label": "_initialized",
        "offset": 0,
        "slot": "0",
        "type": "t_bool"
      },
      {
        "astId": 1151,
        "contract": "contracts/Staker.sol:Staker",
        "label": "_initializing",
        "offset": 1,
        "slot": "0",
        "type": "t_bool"
      },
      {
        "astId": 3583,
        "contract": "contracts/Staker.sol:Staker",
        "label": "__gap",
        "offset": 0,
        "slot": "1",
        "type": "t_array(t_uint256)50_storage"
      },
      {
        "astId": 4482,
        "contract": "contracts/Staker.sol:Staker",
        "label": "__gap",
        "offset": 0,
        "slot": "51",
        "type": "t_array(t_uint256)50_storage"
      },
      {
        "astId": 350,
        "contract": "contracts/Staker.sol:Staker",
        "label": "_roles",
        "offset": 0,
        "slot": "101",
        "type": "t_mapping(t_bytes32,t_struct(RoleData)345_storage)"
      },
      {
        "astId": 635,
        "contract": "contracts/Staker.sol:Staker",
        "label": "__gap",
        "offset": 0,
        "slot": "102",
        "type": "t_array(t_uint256)49_storage"
      },
      {
        "astId": 1131,
        "contract": "contracts/Staker.sol:Staker",
        "label": "__gap",
        "offset": 0,
        "slot": "151",
        "type": "t_array(t_uint256)50_storage"
      },
      {
        "astId": 1264,
        "contract": "contracts/Staker.sol:Staker",
        "label": "__gap",
        "offset": 0,
        "slot": "201",
        "type": "t_array(t_uint256)50_storage"
      },
      {
        "astId": 13147,
        "contract": "contracts/Staker.sol:Staker",
        "label": "floatCapital",
        "offset": 0,
        "slot": "251",
        "type": "t_address"
      },
      {
        "astId": 13149,
        "contract": "contracts/Staker.sol:Staker",
        "label": "floatTreasury",
        "offset": 0,
        "slot": "252",
        "type": "t_address"
      },
      {
        "astId": 13151,
        "contract": "contracts/Staker.sol:Staker",
        "label": "floatPercentage",
        "offset": 0,
        "slot": "253",
        "type": "t_uint256"
      },
      {
        "astId": 13153,
        "contract": "contracts/Staker.sol:Staker",
        "label": "longShort",
        "offset": 0,
        "slot": "254",
        "type": "t_address"
      },
      {
        "astId": 13155,
        "contract": "contracts/Staker.sol:Staker",
        "label": "floatToken",
        "offset": 0,
        "slot": "255",
        "type": "t_address"
      },
      {
        "astId": 13159,
        "contract": "contracts/Staker.sol:Staker",
        "label": "marketLaunchIncentive_period",
        "offset": 0,
        "slot": "256",
        "type": "t_mapping(t_uint32,t_uint256)"
      },
      {
        "astId": 13163,
        "contract": "contracts/Staker.sol:Staker",
        "label": "marketLaunchIncentive_multipliers",
        "offset": 0,
        "slot": "257",
        "type": "t_mapping(t_uint32,t_uint256)"
      },
      {
        "astId": 13167,
        "contract": "contracts/Staker.sol:Staker",
        "label": "marketUnstakeFee_e18",
        "offset": 0,
        "slot": "258",
        "type": "t_mapping(t_uint32,t_uint256)"
      },
      {
        "astId": 13171,
        "contract": "contracts/Staker.sol:Staker",
        "label": "balanceIncentiveCurve_exponent",
        "offset": 0,
        "slot": "259",
        "type": "t_mapping(t_uint32,t_uint256)"
      },
      {
        "astId": 13175,
        "contract": "contracts/Staker.sol:Staker",
        "label": "balanceIncentiveCurve_equilibriumOffset",
        "offset": 0,
        "slot": "260",
        "type": "t_mapping(t_uint32,t_int256)"
      },
      {
        "astId": 13179,
        "contract": "contracts/Staker.sol:Staker",
        "label": "safeExponentBitShifting",
        "offset": 0,
        "slot": "261",
        "type": "t_mapping(t_uint32,t_uint256)"
      },
      {
        "astId": 13185,
        "contract": "contracts/Staker.sol:Staker",
        "label": "syntheticTokens",
        "offset": 0,
        "slot": "262",
        "type": "t_mapping(t_uint32,t_mapping(t_bool,t_address))"
      },
      {
        "astId": 13189,
        "contract": "contracts/Staker.sol:Staker",
        "label": "marketIndexOfToken",
        "offset": 0,
        "slot": "263",
        "type": "t_mapping(t_address,t_uint32)"
      },
      {
        "astId": 13193,
        "contract": "contracts/Staker.sol:Staker",
        "label": "latestRewardIndex",
        "offset": 0,
        "slot": "264",
        "type": "t_mapping(t_uint32,t_uint256)"
      },
      {
        "astId": 13200,
        "contract": "contracts/Staker.sol:Staker",
        "label": "accumulativeFloatPerSyntheticTokenSnapshots",
        "offset": 0,
        "slot": "265",
        "type": "t_mapping(t_uint32,t_mapping(t_uint256,t_struct(AccumulativeIssuancePerStakedSynthSnapshot)13207_storage))"
      },
      {
        "astId": 13213,
        "contract": "contracts/Staker.sol:Staker",
        "label": "userIndexOfLastClaimedReward",
        "offset": 0,
        "slot": "266",
        "type": "t_mapping(t_uint32,t_mapping(t_address,t_uint256))"
      },
      {
        "astId": 13220,
        "contract": "contracts/Staker.sol:Staker",
        "label": "userAmountStaked",
        "offset": 0,
        "slot": "267",
        "type": "t_mapping(t_address,t_mapping(t_address,t_uint256))"
      },
      {
        "astId": 13227,
        "contract": "contracts/Staker.sol:Staker",
        "label": "userNextPrice_stakedSyntheticTokenShiftIndex",
        "offset": 0,
        "slot": "268",
        "type": "t_mapping(t_uint32,t_mapping(t_address,t_uint256))"
      },
      {
        "astId": 13236,
        "contract": "contracts/Staker.sol:Staker",
        "label": "userNextPrice_amountStakedSyntheticToken_toShiftAwayFrom",
        "offset": 0,
        "slot": "269",
        "type": "t_mapping(t_uint32,t_mapping(t_bool,t_mapping(t_address,t_uint256)))"
      }
    ],
    "types": {
      "t_address": {
        "encoding": "inplace",
        "label": "address",
        "numberOfBytes": "20"
      },
      "t_array(t_uint256)49_storage": {
        "base": "t_uint256",
        "encoding": "inplace",
        "label": "uint256[49]",
        "numberOfBytes": "1568"
      },
      "t_array(t_uint256)50_storage": {
        "base": "t_uint256",
        "encoding": "inplace",
        "label": "uint256[50]",
        "numberOfBytes": "1600"
      },
      "t_bool": {
        "encoding": "inplace",
        "label": "bool",
        "numberOfBytes": "1"
      },
      "t_bytes32": {
        "encoding": "inplace",
        "label": "bytes32",
        "numberOfBytes": "32"
      },
      "t_int256": {
        "encoding": "inplace",
        "label": "int256",
        "numberOfBytes": "32"
      },
      "t_mapping(t_address,t_bool)": {
        "encoding": "mapping",
        "key": "t_address",
        "label": "mapping(address => bool)",
        "numberOfBytes": "32",
        "value": "t_bool"
      },
      "t_mapping(t_address,t_mapping(t_address,t_uint256))": {
        "encoding": "mapping",
        "key": "t_address",
        "label": "mapping(address => mapping(address => uint256))",
        "numberOfBytes": "32",
        "value": "t_mapping(t_address,t_uint256)"
      },
      "t_mapping(t_address,t_uint256)": {
        "encoding": "mapping",
        "key": "t_address",
        "label": "mapping(address => uint256)",
        "numberOfBytes": "32",
        "value": "t_uint256"
      },
      "t_mapping(t_address,t_uint32)": {
        "encoding": "mapping",
        "key": "t_address",
        "label": "mapping(address => uint32)",
        "numberOfBytes": "32",
        "value": "t_uint32"
      },
      "t_mapping(t_bool,t_address)": {
        "encoding": "mapping",
        "key": "t_bool",
        "label": "mapping(bool => address)",
        "numberOfBytes": "32",
        "value": "t_address"
      },
      "t_mapping(t_bool,t_mapping(t_address,t_uint256))": {
        "encoding": "mapping",
        "key": "t_bool",
        "label": "mapping(bool => mapping(address => uint256))",
        "numberOfBytes": "32",
        "value": "t_mapping(t_address,t_uint256)"
      },
      "t_mapping(t_bytes32,t_struct(RoleData)345_storage)": {
        "encoding": "mapping",
        "key": "t_bytes32",
        "label": "mapping(bytes32 => struct AccessControlUpgradeable.RoleData)",
        "numberOfBytes": "32",
        "value": "t_struct(RoleData)345_storage"
      },
      "t_mapping(t_uint256,t_struct(AccumulativeIssuancePerStakedSynthSnapshot)13207_storage)": {
        "encoding": "mapping",
        "key": "t_uint256",
        "label": "mapping(uint256 => struct Staker.AccumulativeIssuancePerStakedSynthSnapshot)",
        "numberOfBytes": "32",
        "value": "t_struct(AccumulativeIssuancePerStakedSynthSnapshot)13207_storage"
      },
      "t_mapping(t_uint32,t_int256)": {
        "encoding": "mapping",
        "key": "t_uint32",
        "label": "mapping(uint32 => int256)",
        "numberOfBytes": "32",
        "value": "t_int256"
      },
      "t_mapping(t_uint32,t_mapping(t_address,t_uint256))": {
        "encoding": "mapping",
        "key": "t_uint32",
        "label": "mapping(uint32 => mapping(address => uint256))",
        "numberOfBytes": "32",
        "value": "t_mapping(t_address,t_uint256)"
      },
      "t_mapping(t_uint32,t_mapping(t_bool,t_address))": {
        "encoding": "mapping",
        "key": "t_uint32",
        "label": "mapping(uint32 => mapping(bool => address))",
        "numberOfBytes": "32",
        "value": "t_mapping(t_bool,t_address)"
      },
      "t_mapping(t_uint32,t_mapping(t_bool,t_mapping(t_address,t_uint256)))": {
        "encoding": "mapping",
        "key": "t_uint32",
        "label": "mapping(uint32 => mapping(bool => mapping(address => uint256)))",
        "numberOfBytes": "32",
        "value": "t_mapping(t_bool,t_mapping(t_address,t_uint256))"
      },
      "t_mapping(t_uint32,t_mapping(t_uint256,t_struct(AccumulativeIssuancePerStakedSynthSnapshot)13207_storage))": {
        "encoding": "mapping",
        "key": "t_uint32",
        "label": "mapping(uint32 => mapping(uint256 => struct Staker.AccumulativeIssuancePerStakedSynthSnapshot))",
        "numberOfBytes": "32",
        "value": "t_mapping(t_uint256,t_struct(AccumulativeIssuancePerStakedSynthSnapshot)13207_storage)"
      },
      "t_mapping(t_uint32,t_uint256)": {
        "encoding": "mapping",
        "key": "t_uint32",
        "label": "mapping(uint32 => uint256)",
        "numberOfBytes": "32",
        "value": "t_uint256"
      },
      "t_struct(AccumulativeIssuancePerStakedSynthSnapshot)13207_storage": {
        "encoding": "inplace",
        "label": "struct Staker.AccumulativeIssuancePerStakedSynthSnapshot",
        "members": [
          {
            "astId": 13202,
            "contract": "contracts/Staker.sol:Staker",
            "label": "timestamp",
            "offset": 0,
            "slot": "0",
            "type": "t_uint256"
          },
          {
            "astId": 13204,
            "contract": "contracts/Staker.sol:Staker",
            "label": "accumulativeFloatPerSyntheticToken_long",
            "offset": 0,
            "slot": "1",
            "type": "t_uint256"
          },
          {
            "astId": 13206,
            "contract": "contracts/Staker.sol:Staker",
            "label": "accumulativeFloatPerSyntheticToken_short",
            "offset": 0,
            "slot": "2",
            "type": "t_uint256"
          }
        ],
        "numberOfBytes": "96"
      },
      "t_struct(RoleData)345_storage": {
        "encoding": "inplace",
        "label": "struct AccessControlUpgradeable.RoleData",
        "members": [
          {
            "astId": 342,
            "contract": "contracts/Staker.sol:Staker",
            "label": "members",
            "offset": 0,
            "slot": "0",
            "type": "t_mapping(t_address,t_bool)"
          },
          {
            "astId": 344,
            "contract": "contracts/Staker.sol:Staker",
            "label": "adminRole",
            "offset": 0,
            "slot": "1",
            "type": "t_bytes32"
          }
        ],
        "numberOfBytes": "64"
      },
      "t_uint256": {
        "encoding": "inplace",
        "label": "uint256",
        "numberOfBytes": "32"
      },
      "t_uint32": {
        "encoding": "inplace",
        "label": "uint32",
        "numberOfBytes": "4"
      }
    }
  }
}