{
  "address": "0xEdbF29ac57E4557840e41A85DbE797719Bab5B89",
  "abi": [
    {
      "anonymous": false,
      "inputs": [
        {
          "indexed": false,
          "internalType": "uint32",
          "name": "marketIndex",
          "type": "uint32"
        },
        {
          "indexed": false,
          "internalType": "uint256",
          "name": "accumulativeFloatIssuanceSnapshotIndex",
          "type": "uint256"
        },
        {
          "indexed": false,
          "internalType": "uint256",
          "name": "accumulativeLong",
          "type": "uint256"
        },
        {
          "indexed": false,
          "internalType": "uint256",
          "name": "accumulativeShort",
          "type": "uint256"
        }
      ],
      "name": "AccumulativeIssuancePerStakedSynthSnapshotCreated",
      "type": "event"
    },
    {
      "anonymous": false,
      "inputs": [
        {
          "indexed": false,
          "internalType": "address",
          "name": "previousAdmin",
          "type": "address"
        },
        {
          "indexed": false,
          "internalType": "address",
          "name": "newAdmin",
          "type": "address"
        }
      ],
      "name": "AdminChanged",
      "type": "event"
    },
    {
      "anonymous": false,
      "inputs": [
        {
          "indexed": false,
          "internalType": "uint32",
          "name": "marketIndex",
          "type": "uint32"
        },
        {
          "indexed": false,
          "internalType": "uint256",
          "name": "balanceIncentiveExponent",
          "type": "uint256"
        },
        {
          "indexed": false,
          "internalType": "int256",
          "name": "balanceIncentiveCurve_equilibriumOffset",
          "type": "int256"
        },
        {
          "indexed": false,
          "internalType": "uint256",
          "name": "safeExponentBitShifting",
          "type": "uint256"
        }
      ],
      "name": "BalanceIncentiveParamsUpdated",
      "type": "event"
    },
    {
      "anonymous": false,
      "inputs": [
        {
          "indexed": true,
          "internalType": "address",
          "name": "beacon",
          "type": "address"
        }
      ],
      "name": "BeaconUpgraded",
      "type": "event"
    },
    {
      "anonymous": false,
      "inputs": [
        {
          "indexed": false,
          "internalType": "address",
          "name": "user",
          "type": "address"
        },
        {
          "indexed": false,
          "internalType": "uint32",
          "name": "marketIndex",
          "type": "uint32"
        },
        {
          "indexed": false,
          "internalType": "uint256",
          "name": "amountFloatMinted",
          "type": "uint256"
        }
      ],
      "name": "FloatMinted",
      "type": "event"
    },
    {
      "anonymous": false,
      "inputs": [
        {
          "indexed": false,
          "internalType": "uint256",
          "name": "floatPercentage",
          "type": "uint256"
        }
      ],
      "name": "FloatPercentageUpdated",
      "type": "event"
    },
    {
      "anonymous": false,
      "inputs": [
        {
          "indexed": false,
          "internalType": "uint32",
          "name": "marketIndex",
          "type": "uint32"
        },
        {
          "indexed": false,
          "internalType": "uint256",
          "name": "exitFee_e18",
          "type": "uint256"
        },
        {
          "indexed": false,
          "internalType": "uint256",
          "name": "period",
          "type": "uint256"
        },
        {
          "indexed": false,
          "internalType": "uint256",
          "name": "multiplier",
          "type": "uint256"
        },
        {
          "indexed": false,
          "internalType": "uint256",
          "name": "balanceIncentiveExponent",
          "type": "uint256"
        },
        {
          "indexed": false,
          "internalType": "int256",
          "name": "balanceIncentiveEquilibriumOffset",
          "type": "int256"
        },
        {
          "indexed": false,
          "internalType": "uint256",
          "name": "safeExponentBitShifting",
          "type": "uint256"
        }
      ],
      "name": "MarketAddedToStaker",
      "type": "event"
    },
    {
      "anonymous": false,
      "inputs": [
        {
          "indexed": false,
          "internalType": "uint32",
          "name": "marketIndex",
          "type": "uint32"
        },
        {
          "indexed": false,
          "internalType": "uint256",
          "name": "period",
          "type": "uint256"
        },
        {
          "indexed": false,
          "internalType": "uint256",
          "name": "multiplier",
          "type": "uint256"
        }
      ],
      "name": "MarketLaunchIncentiveParametersChanges",
      "type": "event"
    },
    {
      "anonymous": false,
      "inputs": [
        {
          "indexed": false,
          "internalType": "address",
          "name": "user",
          "type": "address"
        },
        {
          "indexed": false,
          "internalType": "uint32",
          "name": "marketIndex",
          "type": "uint32"
        },
        {
          "indexed": false,
          "internalType": "uint256",
          "name": "amount",
          "type": "uint256"
        },
        {
          "indexed": false,
          "internalType": "bool",
          "name": "isShiftFromLong",
          "type": "bool"
        },
        {
          "indexed": false,
          "internalType": "uint256",
          "name": "userShiftIndex",
          "type": "uint256"
        }
      ],
      "name": "NextPriceStakeShift",
      "type": "event"
    },
    {
      "anonymous": false,
      "inputs": [
        {
          "indexed": true,
          "internalType": "bytes32",
          "name": "role",
          "type": "bytes32"
        },
        {
          "indexed": true,
          "internalType": "bytes32",
          "name": "previousAdminRole",
          "type": "bytes32"
        },
        {
          "indexed": true,
          "internalType": "bytes32",
          "name": "newAdminRole",
          "type": "bytes32"
        }
      ],
      "name": "RoleAdminChanged",
      "type": "event"
    },
    {
      "anonymous": false,
      "inputs": [
        {
          "indexed": true,
          "internalType": "bytes32",
          "name": "role",
          "type": "bytes32"
        },
        {
          "indexed": true,
          "internalType": "address",
          "name": "account",
          "type": "address"
        },
        {
          "indexed": true,
          "internalType": "address",
          "name": "sender",
          "type": "address"
        }
      ],
      "name": "RoleGranted",
      "type": "event"
    },
    {
      "anonymous": false,
      "inputs": [
        {
          "indexed": true,
          "internalType": "bytes32",
          "name": "role",
          "type": "bytes32"
        },
        {
          "indexed": true,
          "internalType": "address",
          "name": "account",
          "type": "address"
        },
        {
          "indexed": true,
          "internalType": "address",
          "name": "sender",
          "type": "address"
        }
      ],
      "name": "RoleRevoked",
      "type": "event"
    },
    {
      "anonymous": false,
      "inputs": [
        {
          "indexed": false,
          "internalType": "address",
          "name": "user",
          "type": "address"
        },
        {
          "indexed": false,
          "internalType": "address",
          "name": "token",
          "type": "address"
        },
        {
          "indexed": false,
          "internalType": "uint256",
          "name": "amount",
          "type": "uint256"
        },
        {
          "indexed": false,
          "internalType": "uint256",
          "name": "lastMintIndex",
          "type": "uint256"
        }
      ],
      "name": "StakeAdded",
      "type": "event"
    },
    {
      "anonymous": false,
      "inputs": [
        {
          "indexed": false,
          "internalType": "address",
          "name": "user",
          "type": "address"
        },
        {
          "indexed": false,
          "internalType": "uint32",
          "name": "marketIndex",
          "type": "uint32"
        },
        {
          "indexed": false,
          "internalType": "uint256",
          "name": "newAmountStakedLong",
          "type": "uint256"
        },
        {
          "indexed": false,
          "internalType": "uint256",
          "name": "newAmountStakedShort",
          "type": "uint256"
        }
      ],
      "name": "StakeShifted",
      "type": "event"
    },
    {
      "anonymous": false,
      "inputs": [
        {
          "indexed": false,
          "internalType": "uint32",
          "name": "marketIndex",
          "type": "uint32"
        },
        {
          "indexed": false,
          "internalType": "uint256",
          "name": "stakeWithdralFee",
          "type": "uint256"
        }
      ],
      "name": "StakeWithdrawalFeeUpdated",
      "type": "event"
    },
    {
      "anonymous": false,
      "inputs": [
        {
          "indexed": false,
          "internalType": "address",
          "name": "user",
          "type": "address"
        },
        {
          "indexed": false,
          "internalType": "address",
          "name": "token",
          "type": "address"
        },
        {
          "indexed": false,
          "internalType": "uint256",
          "name": "amount",
          "type": "uint256"
        }
      ],
      "name": "StakeWithdrawn",
      "type": "event"
    },
    {
      "anonymous": false,
      "inputs": [
        {
          "indexed": false,
          "internalType": "address",
          "name": "admin",
          "type": "address"
        },
        {
          "indexed": false,
          "internalType": "address",
          "name": "floatTreasury",
          "type": "address"
        },
        {
          "indexed": false,
          "internalType": "address",
          "name": "floatCapital",
          "type": "address"
        },
        {
          "indexed": false,
          "internalType": "address",
          "name": "floatToken",
          "type": "address"
        },
        {
          "indexed": false,
          "internalType": "uint256",
          "name": "floatPercentage",
          "type": "uint256"
        }
      ],
      "name": "StakerV1",
      "type": "event"
    },
    {
      "anonymous": false,
      "inputs": [
        {
          "indexed": true,
          "internalType": "address",
          "name": "implementation",
          "type": "address"
        }
      ],
      "name": "Upgraded",
      "type": "event"
    },
    {
      "inputs": [],
      "name": "ADMIN_ROLE",
      "outputs": [
        {
          "internalType": "bytes32",
          "name": "",
          "type": "bytes32"
        }
      ],
      "stateMutability": "view",
      "type": "function"
    },
    {
      "inputs": [],
      "name": "DEFAULT_ADMIN_ROLE",
      "outputs": [
        {
          "internalType": "bytes32",
          "name": "",
          "type": "bytes32"
        }
      ],
      "stateMutability": "view",
      "type": "function"
    },
    {
      "inputs": [],
      "name": "FLOAT_ISSUANCE_FIXED_DECIMAL",
      "outputs": [
        {
          "internalType": "uint256",
          "name": "",
          "type": "uint256"
        }
      ],
      "stateMutability": "view",
      "type": "function"
    },
    {
      "inputs": [],
      "name": "UPGRADER_ROLE",
      "outputs": [
        {
          "internalType": "bytes32",
          "name": "",
          "type": "bytes32"
        }
      ],
      "stateMutability": "view",
      "type": "function"
    },
    {
      "inputs": [
        {
          "internalType": "uint32",
          "name": "",
          "type": "uint32"
        },
        {
          "internalType": "uint256",
          "name": "",
          "type": "uint256"
        }
      ],
      "name": "accumulativeFloatPerSyntheticTokenSnapshots",
      "outputs": [
        {
          "internalType": "uint256",
          "name": "timestamp",
          "type": "uint256"
        },
        {
          "internalType": "uint256",
          "name": "accumulativeFloatPerSyntheticToken_long",
          "type": "uint256"
        },
        {
          "internalType": "uint256",
          "name": "accumulativeFloatPerSyntheticToken_short",
          "type": "uint256"
        }
      ],
      "stateMutability": "view",
      "type": "function"
    },
    {
      "inputs": [
        {
          "internalType": "uint32",
          "name": "marketIndex",
          "type": "uint32"
        },
        {
          "internalType": "address",
          "name": "longToken",
          "type": "address"
        },
        {
          "internalType": "address",
          "name": "shortToken",
          "type": "address"
        },
        {
          "internalType": "uint256",
          "name": "kInitialMultiplier",
          "type": "uint256"
        },
        {
          "internalType": "uint256",
          "name": "kPeriod",
          "type": "uint256"
        },
        {
          "internalType": "uint256",
          "name": "unstakeFee_e18",
          "type": "uint256"
        },
        {
          "internalType": "uint256",
          "name": "_balanceIncentiveCurve_exponent",
          "type": "uint256"
        },
        {
          "internalType": "int256",
          "name": "_balanceIncentiveCurve_equilibriumOffset",
          "type": "int256"
        }
      ],
      "name": "addNewStakingFund",
      "outputs": [],
      "stateMutability": "nonpayable",
      "type": "function"
    },
    {
      "inputs": [
        {
          "internalType": "uint32",
          "name": "",
          "type": "uint32"
        }
      ],
      "name": "balanceIncentiveCurve_equilibriumOffset",
      "outputs": [
        {
          "internalType": "int256",
          "name": "",
          "type": "int256"
        }
      ],
      "stateMutability": "view",
      "type": "function"
    },
    {
      "inputs": [
        {
          "internalType": "uint32",
          "name": "",
          "type": "uint32"
        }
      ],
      "name": "balanceIncentiveCurve_exponent",
      "outputs": [
        {
          "internalType": "uint256",
          "name": "",
          "type": "uint256"
        }
      ],
      "stateMutability": "view",
      "type": "function"
    },
    {
      "inputs": [
        {
          "internalType": "uint32",
          "name": "marketIndex",
          "type": "uint32"
        },
        {
          "internalType": "uint256",
          "name": "_balanceIncentiveCurve_exponent",
          "type": "uint256"
        },
        {
          "internalType": "int256",
          "name": "_balanceIncentiveCurve_equilibriumOffset",
          "type": "int256"
        },
        {
          "internalType": "uint256",
          "name": "_safeExponentBitShifting",
          "type": "uint256"
        }
      ],
      "name": "changeBalanceIncentiveParameters",
      "outputs": [],
      "stateMutability": "nonpayable",
      "type": "function"
    },
    {
      "inputs": [
        {
          "internalType": "uint256",
          "name": "newFloatPercentage",
          "type": "uint256"
        }
      ],
      "name": "changeFloatPercentage",
      "outputs": [],
      "stateMutability": "nonpayable",
      "type": "function"
    },
    {
      "inputs": [
        {
          "internalType": "uint32",
          "name": "marketIndex",
          "type": "uint32"
        },
        {
          "internalType": "uint256",
          "name": "newMarketUnstakeFee_e18",
          "type": "uint256"
        }
      ],
      "name": "changeUnstakeFee",
      "outputs": [],
      "stateMutability": "nonpayable",
      "type": "function"
    },
    {
      "inputs": [
        {
          "internalType": "uint32[]",
          "name": "marketIndexes",
          "type": "uint32[]"
        }
      ],
      "name": "claimFloatCustom",
      "outputs": [],
      "stateMutability": "nonpayable",
      "type": "function"
    },
    {
      "inputs": [
        {
          "internalType": "uint32[]",
          "name": "marketIndexes",
          "type": "uint32[]"
        },
        {
          "internalType": "address",
          "name": "user",
          "type": "address"
        }
      ],
      "name": "claimFloatCustomFor",
      "outputs": [],
      "stateMutability": "nonpayable",
      "type": "function"
    },
    {
      "inputs": [],
      "name": "floatCapital",
      "outputs": [
        {
          "internalType": "address",
          "name": "",
          "type": "address"
        }
      ],
      "stateMutability": "view",
      "type": "function"
    },
    {
      "inputs": [],
      "name": "floatPercentage",
      "outputs": [
        {
          "internalType": "uint256",
          "name": "",
          "type": "uint256"
        }
      ],
      "stateMutability": "view",
      "type": "function"
    },
    {
      "inputs": [],
      "name": "floatToken",
      "outputs": [
        {
          "internalType": "address",
          "name": "",
          "type": "address"
        }
      ],
      "stateMutability": "view",
      "type": "function"
    },
    {
      "inputs": [],
      "name": "floatTreasury",
      "outputs": [
        {
          "internalType": "address",
          "name": "",
          "type": "address"
        }
      ],
      "stateMutability": "view",
      "type": "function"
    },
    {
      "inputs": [
        {
          "internalType": "bytes32",
          "name": "role",
          "type": "bytes32"
        }
      ],
      "name": "getRoleAdmin",
      "outputs": [
        {
          "internalType": "bytes32",
          "name": "",
          "type": "bytes32"
        }
      ],
      "stateMutability": "view",
      "type": "function"
    },
    {
      "inputs": [
        {
          "internalType": "bytes32",
          "name": "role",
          "type": "bytes32"
        },
        {
          "internalType": "address",
          "name": "account",
          "type": "address"
        }
      ],
      "name": "grantRole",
      "outputs": [],
      "stateMutability": "nonpayable",
      "type": "function"
    },
    {
      "inputs": [
        {
          "internalType": "bytes32",
          "name": "role",
          "type": "bytes32"
        },
        {
          "internalType": "address",
          "name": "account",
          "type": "address"
        }
      ],
      "name": "hasRole",
      "outputs": [
        {
          "internalType": "bool",
          "name": "",
          "type": "bool"
        }
      ],
      "stateMutability": "view",
      "type": "function"
    },
    {
      "inputs": [
        {
          "internalType": "address",
          "name": "_admin",
          "type": "address"
        },
        {
          "internalType": "address",
          "name": "_longShort",
          "type": "address"
        },
        {
          "internalType": "address",
          "name": "_floatToken",
          "type": "address"
        },
        {
          "internalType": "address",
          "name": "_floatTreasury",
          "type": "address"
        },
        {
          "internalType": "address",
          "name": "_floatCapital",
          "type": "address"
        },
        {
          "internalType": "uint256",
          "name": "_floatPercentage",
          "type": "uint256"
        }
      ],
      "name": "initialize",
      "outputs": [],
      "stateMutability": "nonpayable",
      "type": "function"
    },
    {
      "inputs": [
        {
          "internalType": "uint32",
          "name": "",
          "type": "uint32"
        }
      ],
      "name": "latestRewardIndex",
      "outputs": [
        {
          "internalType": "uint256",
          "name": "",
          "type": "uint256"
        }
      ],
      "stateMutability": "view",
      "type": "function"
    },
    {
      "inputs": [],
      "name": "longShort",
      "outputs": [
        {
          "internalType": "address",
          "name": "",
          "type": "address"
        }
      ],
      "stateMutability": "view",
      "type": "function"
    },
    {
      "inputs": [
        {
          "internalType": "address",
          "name": "",
          "type": "address"
        }
      ],
      "name": "marketIndexOfToken",
      "outputs": [
        {
          "internalType": "uint32",
          "name": "",
          "type": "uint32"
        }
      ],
      "stateMutability": "view",
      "type": "function"
    },
    {
      "inputs": [
        {
          "internalType": "uint32",
          "name": "",
          "type": "uint32"
        }
      ],
      "name": "marketLaunchIncentive_multipliers",
      "outputs": [
        {
          "internalType": "uint256",
          "name": "",
          "type": "uint256"
        }
      ],
      "stateMutability": "view",
      "type": "function"
    },
    {
      "inputs": [
        {
          "internalType": "uint32",
          "name": "",
          "type": "uint32"
        }
      ],
      "name": "marketLaunchIncentive_period",
      "outputs": [
        {
          "internalType": "uint256",
          "name": "",
          "type": "uint256"
        }
      ],
      "stateMutability": "view",
      "type": "function"
    },
    {
      "inputs": [
        {
          "internalType": "uint32",
          "name": "",
          "type": "uint32"
        }
      ],
      "name": "marketUnstakeFee_e18",
      "outputs": [
        {
          "internalType": "uint256",
          "name": "",
          "type": "uint256"
        }
      ],
      "stateMutability": "view",
      "type": "function"
    },
    {
      "inputs": [
        {
          "internalType": "uint32",
          "name": "marketIndex",
          "type": "uint32"
        },
        {
          "internalType": "uint256",
          "name": "marketUpdateIndex",
          "type": "uint256"
        },
        {
          "internalType": "uint256",
          "name": "longPrice",
          "type": "uint256"
        },
        {
          "internalType": "uint256",
          "name": "shortPrice",
          "type": "uint256"
        },
        {
          "internalType": "uint256",
          "name": "longValue",
          "type": "uint256"
        },
        {
          "internalType": "uint256",
          "name": "shortValue",
          "type": "uint256"
        }
      ],
      "name": "pushUpdatedMarketPricesToUpdateFloatIssuanceCalculations",
      "outputs": [],
      "stateMutability": "nonpayable",
      "type": "function"
    },
    {
      "inputs": [
        {
          "internalType": "bytes32",
          "name": "role",
          "type": "bytes32"
        },
        {
          "internalType": "address",
          "name": "account",
          "type": "address"
        }
      ],
      "name": "renounceRole",
      "outputs": [],
      "stateMutability": "nonpayable",
      "type": "function"
    },
    {
      "inputs": [
        {
          "internalType": "bytes32",
          "name": "role",
          "type": "bytes32"
        },
        {
          "internalType": "address",
          "name": "account",
          "type": "address"
        }
      ],
      "name": "revokeRole",
      "outputs": [],
      "stateMutability": "nonpayable",
      "type": "function"
    },
    {
      "inputs": [
        {
          "internalType": "uint32",
          "name": "",
          "type": "uint32"
        }
      ],
      "name": "safeExponentBitShifting",
      "outputs": [
        {
          "internalType": "uint256",
          "name": "",
          "type": "uint256"
        }
      ],
      "stateMutability": "view",
      "type": "function"
    },
    {
      "inputs": [
        {
          "internalType": "uint256",
          "name": "amountSyntheticTokensToShift",
          "type": "uint256"
        },
        {
          "internalType": "uint32",
          "name": "marketIndex",
          "type": "uint32"
        },
        {
          "internalType": "bool",
          "name": "isShiftFromLong",
          "type": "bool"
        }
      ],
      "name": "shiftTokens",
      "outputs": [],
      "stateMutability": "nonpayable",
      "type": "function"
    },
    {
      "inputs": [
        {
          "internalType": "address",
          "name": "from",
          "type": "address"
        },
        {
          "internalType": "uint256",
          "name": "amount",
          "type": "uint256"
        }
      ],
      "name": "stakeFromUser",
      "outputs": [],
      "stateMutability": "nonpayable",
      "type": "function"
    },
    {
      "inputs": [
        {
          "internalType": "bytes4",
          "name": "interfaceId",
          "type": "bytes4"
        }
      ],
      "name": "supportsInterface",
      "outputs": [
        {
          "internalType": "bool",
          "name": "",
          "type": "bool"
        }
      ],
      "stateMutability": "view",
      "type": "function"
    },
    {
      "inputs": [
        {
          "internalType": "uint32",
          "name": "",
          "type": "uint32"
        },
        {
          "internalType": "bool",
          "name": "",
          "type": "bool"
        }
      ],
      "name": "syntheticTokens",
      "outputs": [
        {
          "internalType": "address",
          "name": "",
          "type": "address"
        }
      ],
      "stateMutability": "view",
      "type": "function"
    },
    {
      "inputs": [
        {
          "internalType": "address",
          "name": "newImplementation",
          "type": "address"
        }
      ],
      "name": "upgradeTo",
      "outputs": [],
      "stateMutability": "nonpayable",
      "type": "function"
    },
    {
      "inputs": [
        {
          "internalType": "address",
          "name": "newImplementation",
          "type": "address"
        },
        {
          "internalType": "bytes",
          "name": "data",
          "type": "bytes"
        }
      ],
      "name": "upgradeToAndCall",
      "outputs": [],
      "stateMutability": "payable",
      "type": "function"
    },
    {
      "inputs": [
        {
          "internalType": "address",
          "name": "",
          "type": "address"
        },
        {
          "internalType": "address",
          "name": "",
          "type": "address"
        }
      ],
      "name": "userAmountStaked",
      "outputs": [
        {
          "internalType": "uint256",
          "name": "",
          "type": "uint256"
        }
      ],
      "stateMutability": "view",
      "type": "function"
    },
    {
      "inputs": [
        {
          "internalType": "uint32",
          "name": "",
          "type": "uint32"
        },
        {
          "internalType": "address",
          "name": "",
          "type": "address"
        }
      ],
      "name": "userIndexOfLastClaimedReward",
      "outputs": [
        {
          "internalType": "uint256",
          "name": "",
          "type": "uint256"
        }
      ],
      "stateMutability": "view",
      "type": "function"
    },
    {
      "inputs": [
        {
          "internalType": "uint32",
          "name": "",
          "type": "uint32"
        },
        {
          "internalType": "bool",
          "name": "",
          "type": "bool"
        },
        {
          "internalType": "address",
          "name": "",
          "type": "address"
        }
      ],
      "name": "userNextPrice_amountStakedSyntheticToken_toShiftAwayFrom",
      "outputs": [
        {
          "internalType": "uint256",
          "name": "",
          "type": "uint256"
        }
      ],
      "stateMutability": "view",
      "type": "function"
    },
    {
      "inputs": [
        {
          "internalType": "uint32",
          "name": "",
          "type": "uint32"
        },
        {
          "internalType": "address",
          "name": "",
          "type": "address"
        }
      ],
      "name": "userNextPrice_stakedSyntheticTokenShiftIndex",
      "outputs": [
        {
          "internalType": "uint256",
          "name": "",
          "type": "uint256"
        }
      ],
      "stateMutability": "view",
      "type": "function"
    },
    {
      "inputs": [
        {
          "internalType": "uint32",
          "name": "marketIndex",
          "type": "uint32"
        },
        {
          "internalType": "bool",
          "name": "isWithdrawFromLong",
          "type": "bool"
        },
        {
          "internalType": "uint256",
          "name": "amount",
          "type": "uint256"
        }
      ],
      "name": "withdraw",
      "outputs": [],
      "stateMutability": "nonpayable",
      "type": "function"
    },
    {
      "inputs": [
        {
          "internalType": "uint32",
          "name": "marketIndex",
          "type": "uint32"
        },
        {
          "internalType": "bool",
          "name": "isWithdrawFromLong",
          "type": "bool"
        }
      ],
      "name": "withdrawAll",
      "outputs": [],
      "stateMutability": "nonpayable",
      "type": "function"
    }
  ],
  "transactionHash": "0x04716ab3cb2594cad5bd43bdd3c7e34ebcacec35a4f75516110a06c918c6c30c",
  "args": [],
  "solcInputHash": "7318db9058d08bfb220c028ef0ea41c0",
  "bytecode": "0x608060405234801561001057600080fd5b50613ec0806100206000396000f3fe60806040526004361061025c5760003560e01c80639e59fd0f11610144578063dc86fe50116100b6578063edb010d71161007a578063edb010d714610869578063ef9c305214610889578063f344acc9146108b7578063f72c0d8b146108d7578063f9fe734e1461090b578063fdd3c2fd146109395761025c565b8063dc86fe50146107ad578063e39ac044146107db578063e68f3dbe14610809578063e955a34814610829578063eae5a8d9146108495761025c565b8063ba89f7b811610108578063ba89f7b8146106d4578063bda69fd8146106f4578063be751cb714610714578063c16199e314610734578063c17f8ce914610754578063d547741f1461078d5761025c565b80639e59fd0f1461061d578063a217fddf1461063d578063a538415c14610652578063b054c4a114610672578063b0956b5f146106b45761025c565b80634f1ef286116101dd57806375b238fc116101a157806375b238fc1461051857806385fcb8e31461054c57806386cbde1f1461057a57806391d148541461059e5780639441752f146105be57806395b6ef0c146105fd5761025c565b80634f1ef286146104685780635892457d1461047b5780635ac76ce1146104915780636a5304df146104ca578063738f4b8e146104f85761025c565b80632994987211610224578063299498721461036d5780632f2ff15d146103a557806336568abe146103c55780633659cfe6146103e55780633ebff44f146104055761025c565b806301ffc9a7146102615780630ca5a0521461029657806313e8868a146102b857806315f2081d146102f4578063248a9ca31461033d575b600080fd5b34801561026d57600080fd5b5061028161027c366004613726565b610972565b60405190151581526020015b60405180910390f35b3480156102a257600080fd5b506102b66102b13660046138f9565b6109ab565b005b3480156102c457600080fd5b506102e66102d33660046137a5565b6101026020526000908152604090205481565b60405190815260200161028d565b34801561030057600080fd5b5061032861030f3660046134a0565b6101076020526000908152604090205463ffffffff1681565b60405163ffffffff909116815260200161028d565b34801561034957600080fd5b506102e66103583660046136ec565b60009081526065602052604090206001015490565b34801561037957600080fd5b5060fe5461038d906001600160a01b031681565b6040516001600160a01b03909116815260200161028d565b3480156103b157600080fd5b506102b66103c0366004613704565b610a00565b3480156103d157600080fd5b506102b66103e0366004613704565b610a2c565b3480156103f157600080fd5b506102b66104003660046134a0565b610aaf565b34801561041157600080fd5b5061044d6104203660046138f9565b61010960209081526000928352604080842090915290825290208054600182015460029092015490919083565b6040805193845260208401929092529082015260600161028d565b6102b6610476366004613558565b610ad6565b34801561048757600080fd5b506102e660fd5481565b34801561049d57600080fd5b506102e66104ac3660046137bf565b61010a60209081526000928352604080842090915290825290205481565b3480156104d657600080fd5b506102e66104e53660046137a5565b6101006020526000908152604090205481565b34801561050457600080fd5b506102b661051336600461363e565b610aeb565b34801561052457600080fd5b506102e67fa49807205ce4d355092ef5a8a18f56e8913cf4a201fbe287825b095693c2177581565b34801561055857600080fd5b506102e66105673660046137a5565b6101056020526000908152604090205481565b34801561058657600080fd5b506102e66cd73d4c35b9df8aa7d6c3003573602c1b81565b3480156105aa57600080fd5b506102816105b9366004613704565b610b5a565b3480156105ca57600080fd5b506102e66105d9366004613880565b61010d60209081526000938452604080852082529284528284209052825290205481565b34801561060957600080fd5b506102b66106183660046134ec565b610b87565b34801561062957600080fd5b506102b66106383660046136ec565b610d1f565b34801561064957600080fd5b506102e6600081565b34801561065e57600080fd5b506102b661066d36600461384a565b610d66565b34801561067e57600080fd5b5061038d61068d36600461384a565b6101066020908152600092835260408084209091529082529020546001600160a01b031681565b3480156106c057600080fd5b506102b66106cf3660046137da565b610e5d565b3480156106e057600080fd5b5060fb5461038d906001600160a01b031681565b34801561070057600080fd5b506102b661070f36600461394c565b61105d565b34801561072057600080fd5b506102b661072f366004613914565b611108565b34801561074057600080fd5b5060fc5461038d906001600160a01b031681565b34801561076057600080fd5b506102e661076f3660046134ba565b61010b60209081526000928352604080842090915290825290205481565b34801561079957600080fd5b506102b66107a8366004613704565b611171565b3480156107b957600080fd5b506102e66107c83660046137a5565b6101046020526000908152604090205481565b3480156107e757600080fd5b506102e66107f63660046137a5565b6101086020526000908152604090205481565b34801561081557600080fd5b506102b6610824366004613615565b611197565b34801561083557600080fd5b506102b66108443660046138bb565b611323565b34801561085557600080fd5b5060ff5461038d906001600160a01b031681565b34801561087557600080fd5b506102b6610884366004613766565b611486565b34801561089557600080fd5b506102e66108a43660046137a5565b6101016020526000908152604090205481565b3480156108c357600080fd5b506102b66108d236600461367e565b6116dc565b3480156108e357600080fd5b506102e67f189ab7a9244df0848122154315af71fe140f3db0fe014031783b0946b8c9d2e381565b34801561091757600080fd5b506102e66109263660046137a5565b6101036020526000908152604090205481565b34801561094557600080fd5b506102e66109543660046137bf565b61010c60209081526000928352604080842090915290825290205481565b60006001600160e01b03198216637965db0b60e01b14806109a357506301ffc9a760e01b6001600160e01b03198316145b90505b919050565b6109b361174b565b6109bd8282611777565b6040805163ffffffff84168152602081018390527feb76801ec75076256b8590fd7c621c2541531e6b9ac568389fa5cdf72e664844910160405180910390a15050565b600082815260656020526040902060010154610a1d81335b6117a5565b610a278383611809565b505050565b6001600160a01b0381163314610aa15760405162461bcd60e51b815260206004820152602f60248201527f416363657373436f6e74726f6c3a2063616e206f6e6c792072656e6f756e636560448201526e103937b632b9903337b91039b2b63360891b60648201526084015b60405180910390fd5b610aab828261188f565b5050565b610ab8816118f6565b610ad381604051806020016040528060008152506000611921565b50565b610adf826118f6565b610aab82826001611921565b60fe54604051636c8d2b9760e01b81526001600160a01b0390911690636c8d2b9790610b1d9085908590600401613a26565b600060405180830381600087803b158015610b3757600080fd5b505af1158015610b4b573d6000803e3d6000fd5b50505050610aab828233611aa2565b60008281526065602090815260408083206001600160a01b038516845290915290205460ff165b92915050565b600054610100900460ff1680610ba0575060005460ff16155b610bbc5760405162461bcd60e51b8152600401610a9890613aa2565b600054610100900460ff16158015610bde576000805461ffff19166101011790555b6001600160a01b03871615801590610bfe57506001600160a01b03861615155b8015610c1257506001600160a01b03851615155b8015610c2657506001600160a01b03841615155b8015610c3a57506001600160a01b03831615155b8015610c4557508115155b610c4e57600080fd5b60fb80546001600160a01b038086166001600160a01b03199283161790925560fc805487841690831617905560fe805489841690831617905560ff805492881692909116919091179055610ca187611c69565b610caa82611cee565b604080516001600160a01b038981168252868116602083015285811682840152871660608201526080810184905290517faf92ca815edd9a90dc4aa1dfc722fb1624d5b5f914b25ae3cf979ce6600f0a969181900360a00190a18015610d16576000805461ff00191690555b50505050505050565b610d2761174b565b610d3081611cee565b6040518181527f062ffcd555faf2b2c81f26010ee6db2e23106941bfed5ae979abd111975d815d9060200160405180910390a150565b60fe546040516305c8146f60e01b815263ffffffff841660048201526001600160a01b03909116906305c8146f90602401600060405180830381600087803b158015610db157600080fd5b505af1158015610dc5573d6000803e3d6000fd5b50505050610dd38233611d14565b63ffffffff8216600081815261010660209081526040808320851515808552908352818420546001600160a01b031680855261010b845282852033808752818652848720805498885261010d8752858820948852938652848720908752855292909420549190925290819055909190610e568584610e518486613d80565b611dbb565b5050505050565b610e65611f58565b670de0b6b3a7640000851015610ec85760405162461bcd60e51b815260206004820152602260248201527f6b496e697469616c4d756c7469706c696572206d757374206265203e3d203165604482015261062760f31b6064820152608401610a98565b6001600160a01b03808816600081815261010760209081526040808320805463ffffffff8f1663ffffffff199182168117909255958c168085528285208054909716821790965580845261010983528184208480528352818420429055835261010682528083206001845280835281842080546001600160a01b031990811690961790558380529091529020805490911690911790556032610f6c89848484611fa2565b63ffffffff89166000908152610100602090815260408083208890556101019091529020869055610f9d8985611777565b6040805163ffffffff8b16815260208101869052908101869052606081018790526080810184905260a0810183905260c081018290527fe0bc2edbe91b35919ee6608af52675476a1cb964af5d671c9e2c018d3cae98919060e00160405180910390a16040805163ffffffff8b16815260006020820181905291810182905260608101919091527f65663e89e16ccfe470dd659bacdf6fddae8185e108d00bc980d34be7e86466d0906080015b60405180910390a1505050505050505050565b611065611f58565b6000806110808861107760018a613d80565b888888886122bc565b63ffffffff8a166000818152610109602090815260408083208d8452825280832060018101879055600281018690554281558484526101088352928190208d905580519384529083018c90528201849052606082018390529294509092507f65663e89e16ccfe470dd659bacdf6fddae8185e108d00bc980d34be7e86466d09060800161104a565b61111061174b565b61111c84848484611fa2565b6040805163ffffffff8616815260208101859052908101839052606081018290527f940844064f9f8938ffe6a879f6143788f9f7e81daf872fee4fe2387b7cf9448d906080015b60405180910390a150505050565b60008281526065602052604090206001015461118d8133610a18565b610a27838361188f565b336111a181612365565b3360009081526101076020526040908190205460fe5491516305c8146f60e01b815263ffffffff90911660048201819052916001600160a01b0316906305c8146f90602401600060405180830381600087803b15801561120057600080fd5b505af1158015611214573d6000803e3d6000fd5b5050505063ffffffff8116600081815261010a602090815260408083206001600160a01b0389168452825280832054938352610108909152902054811580159061125d57508082105b1561126c5761126c8387611d14565b33600090815261010b602090815260408083206001600160a01b038a168452909152812080548792906112a0908490613b31565b909155505063ffffffff8316600090815261010a602090815260408083206001600160a01b038a1680855290835292819020849055805192835233918301919091528101869052606081018290527fef7c8dfef14cbefdf829b8f066b068b677992411137321d64b3ed4538c2b36379060800160405180910390a1505050505050565b63ffffffff83166000818152610106602090815260408083208615158452909152908190205460fe5491516305c8146f60e01b815260048101939093526001600160a01b03908116929116906305c8146f90602401600060405180830381600087803b15801561139257600080fd5b505af11580156113a6573d6000803e3d6000fd5b505050506113b48433611d14565b6001600160a01b038116600090815261010b60209081526040808320338085529083528184205463ffffffff8916855261010d84528285208815158652845282852091855292529091205483810182101561144a5760405162461bcd60e51b81526020600482015260166024820152756e6f7420656e6f75676820746f20776974686472617760501b6044820152606401610a98565b6001600160a01b038316600090815261010b602090815260408083203384529091529020848303905561147e868486611dbb565b505050505050565b813361149282826123c3565b600085116114d45760405162461bcd60e51b815260206004820152600f60248201526e2737903d32b9379039b434b33a399760891b6044820152606401610a98565b63ffffffff84166000818152610106602090815260408083208715158085529083528184205494845261010d835281842090845282528083203384529091528120546001600160a01b039092169161152c9088613b31565b6001600160a01b038316600090815261010b602090815260408083203384529091529020549091508111156115a35760405162461bcd60e51b815260206004820152601a60248201527f4e6f7420656e6f75676820746f6b656e7320746f2073686966740000000000006044820152606401610a98565b60fe546040516371fd962360e01b815263ffffffff881660048201526024810189905286151560448201526001600160a01b03909116906371fd962390606401600060405180830381600087803b1580156115fd57600080fd5b505af1158015611611573d6000803e3d6000fd5b5050505063ffffffff8616600081815261010d6020908152604080832089151584528252808320338452825280832085905592825261010890529081205461165a906001613b31565b63ffffffff8816600081815261010c6020908152604080832033808552908352928190208590558051928352908201929092529081018a90528715156060820152608081018290529091507f1393b60b20fc61ac59730bbda202288e21de9c963502cfe81fcb843b427d46e29060a00160405180910390a15050505050505050565b60fe54604051636c8d2b9760e01b81526001600160a01b0390911690636c8d2b979061170e9086908690600401613a26565b600060405180830381600087803b15801561172857600080fd5b505af115801561173c573d6000803e3d6000fd5b50505050610a27838383611aa2565b6117757fa49807205ce4d355092ef5a8a18f56e8913cf4a201fbe287825b095693c21775336117a5565b565b66b1a2bc2ec5000081111561178b57600080fd5b63ffffffff90911660009081526101026020526040902055565b6117af8282610b5a565b610aab576117c7816001600160a01b0316601461242c565b6117d283602061242c565b6040516020016117e39291906139b1565b60408051601f198184030181529082905262461bcd60e51b8252610a9891600401613a6f565b6118138282610b5a565b610aab5760008281526065602090815260408083206001600160a01b03851684529091529020805460ff1916600117905561184b3390565b6001600160a01b0316816001600160a01b0316837f2f8788117e7eff1d82e926ec794901d17c78024a50270940304540a733656f0d60405160405180910390a45050565b6118998282610b5a565b15610aab5760008281526065602090815260408083206001600160a01b0385168085529252808320805460ff1916905551339285917ff6391f5c32d9c69d2a47ea670b442974b53935d1edc7fd64eb21e047a839171b9190a45050565b7f189ab7a9244df0848122154315af71fe140f3db0fe014031783b0946b8c9d2e3610aab8133610a18565b60006119547f360894a13ba1a3210667c828492db98dca3e2076cc3735a920a3ca505d382bbc546001600160a01b031690565b905061195f84612615565b60008351118061196c5750815b1561197d5761197b84846126ba565b505b7f4910fdfa16fed3260ed0e7147f7cc6da11a60208b5b9406d12a635614ffd9143805460ff16610e5657805460ff191660011781556040516001600160a01b03831660248201526119fc90869060440160408051601f198184030181529190526020810180516001600160e01b0316631b2ce7f360e11b1790526126ba565b50805460ff191681557f360894a13ba1a3210667c828492db98dca3e2076cc3735a920a3ca505d382bbc546001600160a01b03838116911614611a995760405162461bcd60e51b815260206004820152602f60248201527f45524331393637557067726164653a207570677261646520627265616b73206660448201526e75727468657220757067726164657360881b6064820152608401610a98565b610e56856127a5565b600082815b81811015611c58576000611aef878784818110611ad457634e487b7160e01b600052603260045260246000fd5b9050602002016020810190611ae991906137a5565b866127e5565b90508015611c45576101086000888885818110611b1c57634e487b7160e01b600052603260045260246000fd5b9050602002016020810190611b3191906137a5565b63ffffffff1663ffffffff1681526020019081526020016000205461010a6000898986818110611b7157634e487b7160e01b600052603260045260246000fd5b9050602002016020810190611b8691906137a5565b63ffffffff168152602080820192909252604090810160009081206001600160a01b038a168252909252902055611bbd8185613b31565b93507f2f0b57f663333228518fca119813fe0f6daeb5f19d087965f56b45fecf2d520585888885818110611c0157634e487b7160e01b600052603260045260246000fd5b9050602002016020810190611c1691906137a5565b604080516001600160a01b03909316835263ffffffff9091166020830152810183905260600160405180910390a15b5080611c5081613dde565b915050611aa7565b508115610e5657610e568383612c09565b600054610100900460ff1680611c82575060005460ff16155b611c9e5760405162461bcd60e51b8152600401610a9890613aa2565b600054610100900460ff16158015611cc0576000805461ffff19166101011790555b611cc8612d05565b611cd0612d88565b611cd982612de6565b8015610aab576000805461ff00191690555050565b670de0b6b3a76400008111158015611d065750600081115b611d0f57600080fd5b60fd55565b6000611d2083836127e5565b90508015610a275763ffffffff83166000908152610108602090815260408083205461010a83528184206001600160a01b038716855290925290912055611d678282612c09565b604080516001600160a01b038416815263ffffffff851660208201529081018290527f2f0b57f663333228518fca119813fe0f6daeb5f19d087965f56b45fecf2d52059060600160405180910390a1505050565b63ffffffff831660009081526101026020526040812054670de0b6b3a764000090611de69084613d22565b611df09190613b77565b60fc5460405163a9059cbb60e01b81526001600160a01b0391821660048201526024810183905291925084169063a9059cbb90604401602060405180830381600087803b158015611e4057600080fd5b505af1158015611e54573d6000803e3d6000fd5b505050506040513d601f19601f82011682018060405250810190611e7891906136d0565b506001600160a01b03831663a9059cbb33611e938486613d80565b6040516001600160e01b031960e085901b1681526001600160a01b0390921660048301526024820152604401602060405180830381600087803b158015611ed957600080fd5b505af1158015611eed573d6000803e3d6000fd5b505050506040513d601f19601f82011682018060405250810190611f1191906136d0565b50604080513381526001600160a01b03851660208201529081018390527fb7c918e0e249f999e965cafeb6c664271b3f4317d296461500e71da39f0cbda390606001611163565b60fe546001600160a01b031633146117755760405162461bcd60e51b815260206004820152600d60248201526c1b9bdd08131bdb99d4da1bdc9d609a1b6044820152606401610a98565b670c7d713b49d9ffff1982138015611fc15750670c7d713b49da000082125b61202b5760405162461bcd60e51b815260206004820152603560248201527f62616c616e6365496e63656e7469766543757276655f657175696c69627269756044820152746d4f6666736574206f7574206f6620626f756e647360581b6064820152608401610a98565b600083116120905760405162461bcd60e51b815260206004820152602c60248201527f62616c616e6365496e63656e7469766543757276655f6578706f6e656e74206f60448201526b7574206f6620626f756e647360a01b6064820152608401610a98565b606481106120ee5760405162461bcd60e51b815260206004820152602560248201527f736166654578706f6e656e744269745368696674696e67206f7574206f6620626044820152646f756e647360d81b6064820152608401610a98565b60fe54604051631678fc4360e31b815263ffffffff86166004820152600060248201819052916001600160a01b03169063b3c7e2189060440160206040518083038186803b15801561213f57600080fd5b505afa158015612153573d6000803e3d6000fd5b505050506040513d601f19601f82011682018060405250810190612177919061374e565b60fe54604051631678fc4360e31b815263ffffffff88166004820152600160248201526001600160a01b039091169063b3c7e2189060440160206040518083038186803b1580156121c757600080fd5b505afa1580156121db573d6000803e3d6000fd5b505050506040513d601f19601f820116820180604052508101906121ff919061374e565b6122099190613b31565b90508382612219836101f4613d22565b61222492911c613bd1565b50606481831c116122875760405162461bcd60e51b815260206004820152602760248201527f626974207368696674696e6720746f6f206c616e676520666f7220746f74616c604482015266081b1bd8dad95960ca1b6064820152608401610a98565b5063ffffffff909316600090815261010360209081526040808320949094556101048152838220929092556101059091522055565b6000806000806122cf8a89898989612eaf565b9150915060006122df8b8b613158565b90506122eb8382613d22565b63ffffffff8c166000908152610109602090815260408083208e845290915290206001015461231a9190613b31565b6123248383613d22565b63ffffffff8d166000908152610109602090815260408083208f84529091529020600201546123539190613b31565b94509450505050965096945050505050565b6001600160a01b0381166000908152610107602052604090205463ffffffff16610ad35760405162461bcd60e51b815260206004820152600f60248201526e0dcdee840ecc2d8d2c840e6f2dce8d608b1b6044820152606401610a98565b63ffffffff8216600090815261010c602090815260408083203384529091529020541580159061241d575063ffffffff82166000908152610108602090815260408083205461010c83528184203385529092529091205411155b15610aab57610aab8233611d14565b6060600061243b836002613d22565b612446906002613b31565b67ffffffffffffffff81111561246c57634e487b7160e01b600052604160045260246000fd5b6040519080825280601f01601f191660200182016040528015612496576020820181803683370190505b509050600360fc1b816000815181106124bf57634e487b7160e01b600052603260045260246000fd5b60200101906001600160f81b031916908160001a905350600f60fb1b816001815181106124fc57634e487b7160e01b600052603260045260246000fd5b60200101906001600160f81b031916908160001a9053506000612520846002613d22565b61252b906001613b31565b90505b60018111156125bf576f181899199a1a9b1b9c1cb0b131b232b360811b85600f166010811061256d57634e487b7160e01b600052603260045260246000fd5b1a60f81b82828151811061259157634e487b7160e01b600052603260045260246000fd5b60200101906001600160f81b031916908160001a90535060049490941c936125b881613dc7565b905061252e565b50831561260e5760405162461bcd60e51b815260206004820181905260248201527f537472696e67733a20686578206c656e67746820696e73756666696369656e746044820152606401610a98565b9392505050565b803b6126795760405162461bcd60e51b815260206004820152602d60248201527f455243313936373a206e657720696d706c656d656e746174696f6e206973206e60448201526c1bdd08184818dbdb9d1c9858dd609a1b6064820152608401610a98565b7f360894a13ba1a3210667c828492db98dca3e2076cc3735a920a3ca505d382bbc80546001600160a01b0319166001600160a01b0392909216919091179055565b6060823b6127195760405162461bcd60e51b815260206004820152602660248201527f416464726573733a2064656c65676174652063616c6c20746f206e6f6e2d636f6044820152651b9d1c9858dd60d21b6064820152608401610a98565b600080846001600160a01b0316846040516127349190613995565b600060405180830381855af49150503d806000811461276f576040519150601f19603f3d011682016040523d82523d6000602084013e612774565b606091505b509150915061279c8282604051806060016040528060278152602001613e6460279139613184565b95945050505050565b6127ae81612615565b6040516001600160a01b038216907fbc7cd75a20ee27fd9adebab32041f755214dbc6bffa90cc0225b39da2e5c2d3b90600090a250565b63ffffffff821660008181526101066020908152604080832060018452825280832054838052818420546001600160a01b0391821680865261010b808652848720898516808952908752858820549490931680885290865284872083885286528487205488885261010a8752858820938852928652848720549787526101089095529285205494959294919290918082141561288a5760009650505050505050610b81565b63ffffffff8916600090815261010c602090815260408083206001600160a01b038c16845290915290205480158015906128c45750818111155b15612bec576128d68a868686856131bd565b63ffffffff8b16600090815261010d602090815260408083206001845282528083206001600160a01b038e16845290915290205490985080156129f65760fe54604051630125edfd60e71b815263ffffffff8d1660048201526024810183905260016044820152606481018490526001600160a01b03909116906392f6fe809060840160206040518083038186803b15801561297157600080fd5b505afa158015612985573d6000803e3d6000fd5b505050506040513d601f19601f820116820180604052508101906129a9919061374e565b6129b39086613b31565b94506129bf8187613d80565b63ffffffff8c16600090815261010d602090815260408083206001845282528083206001600160a01b038f16845290915281205595505b5063ffffffff8a16600090815261010d6020908152604080832083805282528083206001600160a01b038d1684529091529020548015612b125760fe54604051630125edfd60e71b815263ffffffff8d1660048201526024810183905260006044820152606481018490526001600160a01b03909116906392f6fe809060840160206040518083038186803b158015612a8e57600080fd5b505afa158015612aa2573d6000803e3d6000fd5b505050506040513d601f19601f82011682018060405250810190612ac6919061374e565b612ad09087613b31565b9550612adc8186613d80565b63ffffffff8c16600090815261010d6020908152604080832083805282528083206001600160a01b038f16845290915281205594505b6001600160a01b03888116600090815261010b602081815260408084208f86168086529083528185208c9055948c168452918152818320848452815291819020889055805192835263ffffffff8e16918301919091528101879052606081018690527fea2b4628943d2a0a2c85f85b60007fb6f8273d91c0eaff6f8b140a5007637b359060800160405180910390a1612bae8b878785876131bd565b612bb8908a613b31565b63ffffffff8c16600090815261010c602090815260408083206001600160a01b038f1684529091528120559850612bfc9050565b612bf98a868686866131bd565b97505b5050505050505092915050565b60ff546040516340c10f1960e01b81526001600160a01b03848116600483015260248201849052909116906340c10f1990604401600060405180830381600087803b158015612c5757600080fd5b505af1158015612c6b573d6000803e3d6000fd5b505060ff5460fb5460fd546001600160a01b0392831694506340c10f199350911690670de0b6b3a764000090612ca19086613d22565b612cab9190613b77565b6040516001600160e01b031960e085901b1681526001600160a01b0390921660048301526024820152604401600060405180830381600087803b158015612cf157600080fd5b505af115801561147e573d6000803e3d6000fd5b600054610100900460ff1680612d1e575060005460ff16155b612d3a5760405162461bcd60e51b8152600401610a9890613aa2565b600054610100900460ff16158015612d5c576000805461ffff19166101011790555b612d646132b0565b612d6c6132b0565b612d746132b0565b8015610ad3576000805461ff001916905550565b600054610100900460ff1680612da1575060005460ff16155b612dbd5760405162461bcd60e51b8152600401610a9890613aa2565b600054610100900460ff16158015612d64576000805461ffff1916610101179055612d6c6132b0565b600054610100900460ff1680612dff575060005460ff16155b612e1b5760405162461bcd60e51b8152600401610a9890613aa2565b600054610100900460ff16158015612e3d576000805461ffff19166101011790555b6001600160a01b038216612e5057600080fd5b612e5b60008361331a565b612e857fa49807205ce4d355092ef5a8a18f56e8913cf4a201fbe287825b095693c217758361331a565b611cd97f189ab7a9244df0848122154315af71fe140f3db0fe014031783b0946b8c9d2e38361331a565b6000806000612ebd88613324565b90506000612ecb8587613b31565b63ffffffff8a166000908152610104602052604081205491925090671bc16d674ec8000090612efb908490613c9f565b612f059190613b49565b63ffffffff8b166000908152610105602052604090205490915087612f2b836002613c9f565b612f359089613d41565b121561305357868212612f5b576000612f4e8a86613d22565b955095505050505061314e565b63ffffffff8b1660009081526101036020526040812054612f7d600184613d80565b612f87858b613d41565b612f9292911c613bd1565b63ffffffff8d166000908152610103602052604081205491925090612fb99086851c613bd1565b9050600081612fd0846706f05b59d3b20000613d22565b612fda9190613b77565b90506000612ff082670de0b6b3a7640000613d80565b9050670de0b6b3a76400008e6130068a85613d22565b6130109190613d22565b61301a9190613b77565b670de0b6b3a76400008e61302e8b85613d22565b6130389190613d22565b6130429190613b77565b99509950505050505050505061314e565b8761305d83613df9565b1261307b5761306c8a85613d22565b6000955095505050505061314e565b63ffffffff8b166000908152610103602052604081205461309d600184613d80565b6130a7858c613af0565b6130b292911c613bd1565b63ffffffff8d1660009081526101036020526040812054919250906130d99086851c613bd1565b90506000816130f0846706f05b59d3b20000613d22565b6130fa9190613b77565b9050600061311082670de0b6b3a7640000613d80565b9050670de0b6b3a76400008e6131268a84613d22565b6131309190613d22565b61313a9190613b77565b670de0b6b3a76400008e61302e8b86613d22565b9550959350505050565b63ffffffff821660009081526101096020908152604080832084845290915281205461260e9042613d80565b6060831561319357508161260e565b8251156131a35782518084602001fd5b8160405162461bcd60e51b8152600401610a989190613a6f565b600084156132345763ffffffff861660009081526101096020908152604080832086845290915280822060019081015485845291832001546131ff9190613d80565b90506cd73d4c35b9df8aa7d6c3003573602c1b61321c8783613d22565b6132269190613b77565b6132309083613b31565b9150505b831561279c5763ffffffff861660009081526101096020908152604080832086845290915280822060029081015485845291832001546132749190613d80565b90506cd73d4c35b9df8aa7d6c3003573602c1b6132918683613d22565b61329b9190613b77565b6132a59083613b31565b979650505050505050565b600054610100900460ff16806132c9575060005460ff16155b6132e55760405162461bcd60e51b8152600401610a9890613aa2565b600054610100900460ff16158015612d74576000805461ffff19166101011790558015610ad3576000805461ff001916905550565b610aab8282611809565b6000806000613332846133e7565b91509150670de0b6b3a764000081101561335c57634e487b7160e01b600052600160045260246000fd5b63ffffffff8416600090815261010960209081526040808320838052909152902054826133898242613d80565b10156133d4578261339a8242613d80565b6133ac670de0b6b3a764000085613d80565b6133b69190613d22565b6133c09190613b77565b6133ca9083613d80565b93505050506109a6565b670de0b6b3a764000093505050506109a6565b63ffffffff81166000908152610100602090815260408083205461010190925290912054670de0b6b3a76400008110156134265750670de0b6b3a76400005b915091565b80356001600160a01b03811681146109a657600080fd5b60008083601f840112613453578081fd5b50813567ffffffffffffffff81111561346a578182fd5b6020830191508360208260051b850101111561348557600080fd5b9250929050565b803563ffffffff811681146109a657600080fd5b6000602082840312156134b1578081fd5b61260e8261342b565b600080604083850312156134cc578081fd5b6134d58361342b565b91506134e36020840161342b565b90509250929050565b60008060008060008060c08789031215613504578182fd5b61350d8761342b565b955061351b6020880161342b565b94506135296040880161342b565b93506135376060880161342b565b92506135456080880161342b565b915060a087013590509295509295509295565b6000806040838503121561356a578182fd5b6135738361342b565b9150602083013567ffffffffffffffff8082111561358f578283fd5b818501915085601f8301126135a2578283fd5b8135818111156135b4576135b4613e3f565b604051601f8201601f19908116603f011681019083821181831017156135dc576135dc613e3f565b816040528281528860208487010111156135f4578586fd5b82602086016020830137856020848301015280955050505050509250929050565b60008060408385031215613627578182fd5b6136308361342b565b946020939093013593505050565b60008060208385031215613650578182fd5b823567ffffffffffffffff811115613666578283fd5b61367285828601613442565b90969095509350505050565b600080600060408486031215613692578283fd5b833567ffffffffffffffff8111156136a8578384fd5b6136b486828701613442565b90945092506136c790506020850161342b565b90509250925092565b6000602082840312156136e1578081fd5b815161260e81613e55565b6000602082840312156136fd578081fd5b5035919050565b60008060408385031215613716578182fd5b823591506134e36020840161342b565b600060208284031215613737578081fd5b81356001600160e01b03198116811461260e578182fd5b60006020828403121561375f578081fd5b5051919050565b60008060006060848603121561377a578081fd5b8335925061378a6020850161348c565b9150604084013561379a81613e55565b809150509250925092565b6000602082840312156137b6578081fd5b61260e8261348c565b600080604083850312156137d1578182fd5b6134d58361348c565b600080600080600080600080610100898b0312156137f6578586fd5b6137ff8961348c565b975061380d60208a0161342b565b965061381b60408a0161342b565b979a96995096976060810135975060808101359660a0820135965060c0820135955060e0909101359350915050565b6000806040838503121561385c578182fd5b6138658361348c565b9150602083013561387581613e55565b809150509250929050565b600080600060608486031215613894578081fd5b61389d8461348c565b925060208401356138ad81613e55565b91506136c76040850161342b565b6000806000606084860312156138cf578081fd5b6138d88461348c565b925060208401356138e881613e55565b929592945050506040919091013590565b6000806040838503121561390b578182fd5b6136308361348c565b60008060008060808587031215613929578182fd5b6139328561348c565b966020860135965060408601359560600135945092505050565b60008060008060008060c08789031215613964578384fd5b61396d8761348c565b9860208801359850604088013597606081013597506080810135965060a00135945092505050565b600082516139a7818460208701613d97565b9190910192915050565b60007f416363657373436f6e74726f6c3a206163636f756e7420000000000000000000825283516139e9816017850160208801613d97565b7001034b99036b4b9b9b4b733903937b6329607d1b6017918401918201528351613a1a816028840160208801613d97565b01602801949350505050565b60208082528181018390526000908460408401835b86811015613a645763ffffffff613a518461348c565b1682529183019190830190600101613a3b565b509695505050505050565b6000602082528251806020840152613a8e816040850160208701613d97565b601f01601f19169190910160400192915050565b6020808252602e908201527f496e697469616c697a61626c653a20636f6e747261637420697320616c72656160408201526d191e481a5b9a5d1a585b1a5e995960921b606082015260800190565b600080821280156001600160ff1b0384900385131615613b1257613b12613e13565b600160ff1b8390038412811615613b2b57613b2b613e13565b50500190565b60008219821115613b4457613b44613e13565b500190565b600082613b5857613b58613e29565b600160ff1b821460001984141615613b7257613b72613e13565b500590565b600082613b8657613b86613e29565b500490565b80825b6001808611613b9d5750613bc8565b818704821115613baf57613baf613e13565b80861615613bbc57918102915b9490941c938002613b8e565b94509492505050565b600061260e6000198484600082613bea5750600161260e565b81613bf75750600061260e565b8160018114613c0d5760028114613c1757613c44565b600191505061260e565b60ff841115613c2857613c28613e13565b6001841b915084821115613c3e57613c3e613e13565b5061260e565b5060208310610133831016604e8410600b8410161715613c77575081810a83811115613c7257613c72613e13565b61260e565b613c848484846001613b8b565b808604821115613c9657613c96613e13565b02949350505050565b60006001600160ff1b0381841382841380821686840486111615613cc557613cc5613e13565b600160ff1b84871282811687830589121615613ce357613ce3613e13565b858712925087820587128484161615613cfe57613cfe613e13565b87850587128184161615613d1457613d14613e13565b505050929093029392505050565b6000816000190483118215151615613d3c57613d3c613e13565b500290565b60008083128015600160ff1b850184121615613d5f57613d5f613e13565b6001600160ff1b0384018313811615613d7a57613d7a613e13565b50500390565b600082821015613d9257613d92613e13565b500390565b60005b83811015613db2578181015183820152602001613d9a565b83811115613dc1576000848401525b50505050565b600081613dd657613dd6613e13565b506000190190565b6000600019821415613df257613df2613e13565b5060010190565b6000600160ff1b821415613e0f57613e0f613e13565b0390565b634e487b7160e01b600052601160045260246000fd5b634e487b7160e01b600052601260045260246000fd5b634e487b7160e01b600052604160045260246000fd5b8015158114610ad357600080fdfe416464726573733a206c6f772d6c6576656c2064656c65676174652063616c6c206661696c6564a2646970667358221220be1d9a524ec9a3254a630ec4a69309be36eb49f7a8ec5ac7b6eab470ce0b539964736f6c63430008030033",
  "devdoc": {
    "kind": "dev",
    "methods": {
      "addNewStakingFund(uint32,address,address,uint256,uint256,uint256,uint256,int256)": {
        "params": {
          "_balanceIncentiveCurve_equilibriumOffset": "Offset for balance curve (see _calculateFloatPerSecond)",
          "_balanceIncentiveCurve_exponent": "Exponent for balance curve (see _calculateFloatPerSecond)",
          "kInitialMultiplier": "Initial boost on float generation for the market.",
          "kPeriod": "Period which the boost should last.",
          "longToken": "Address of the long token for the market.",
          "marketIndex": "Identifies the market.",
          "shortToken": "Address of the short token for the market.",
          "unstakeFee_e18": "Percentage of tokens that are levied on unstaking in base 1e18."
        }
      },
      "changeBalanceIncentiveParameters(uint32,uint256,int256,uint256)": {
        "params": {
          "_balanceIncentiveCurve_equilibriumOffset": "The new offset.",
          "_balanceIncentiveCurve_exponent": "The new exponent for the curve.",
          "_safeExponentBitShifting": "The new bitshifting applied to the curve.",
          "marketIndex": "Identifies the market."
        }
      },
      "changeFloatPercentage(uint256)": {
        "params": {
          "newFloatPercentage": "The new float percentage in base 1e18."
        }
      },
      "changeUnstakeFee(uint32,uint256)": {
        "params": {
          "marketIndex": "Identifies the market.",
          "newMarketUnstakeFee_e18": "The new unstake fee."
        }
      },
      "claimFloatCustom(uint32[])": {
        "params": {
          "marketIndexes": "Identifiers for the markets for which to mint float."
        }
      },
      "claimFloatCustomFor(uint32[],address)": {
        "params": {
          "marketIndexes": "Identifiers for the markets for which to mint float.",
          "user": "The address of the user."
        }
      },
      "getRoleAdmin(bytes32)": {
        "details": "Returns the admin role that controls `role`. See {grantRole} and {revokeRole}. To change a role's admin, use {_setRoleAdmin}."
      },
      "grantRole(bytes32,address)": {
        "details": "Grants `role` to `account`. If `account` had not been already granted `role`, emits a {RoleGranted} event. Requirements: - the caller must have ``role``'s admin role."
      },
      "hasRole(bytes32,address)": {
        "details": "Returns `true` if `account` has been granted `role`."
      },
      "initialize(address,address,address,address,address,uint256)": {
        "details": "Calls OpenZeppelin's initializer modifier.",
        "params": {
          "_admin": "Address of the admin role.",
          "_floatCapital": "Address of the contract which earns a fixed percentage of Float.",
          "_floatPercentage": "Determines the float percentage that gets minted for Float Capital, base 1e18.",
          "_floatToken": "Address of the Float token earned by staking.",
          "_floatTreasury": "Address of the treasury contract for managing fees.",
          "_longShort": "Address of the LongShort contract, a deployed LongShort.sol"
        }
      },
      "pushUpdatedMarketPricesToUpdateFloatIssuanceCalculations(uint32,uint256,uint256,uint256,uint256,uint256)": {
        "params": {
          "longPrice": "The price of the long token as defined in LongShort.sol",
          "longValue": "The value locked in the long side of the market.",
          "marketIndex": "An identifier for the market.",
          "marketUpdateIndex": "Current update index in the LongShort contract for this market.",
          "shortPrice": "The price of the short token as defined in LongShort.sol",
          "shortValue": "The value locked in the short side of the market."
        }
      },
      "renounceRole(bytes32,address)": {
        "details": "Revokes `role` from the calling account. Roles are often managed via {grantRole} and {revokeRole}: this function's purpose is to provide a mechanism for accounts to lose their privileges if they are compromised (such as when a trusted device is misplaced). If the calling account had been granted `role`, emits a {RoleRevoked} event. Requirements: - the caller must be `account`."
      },
      "revokeRole(bytes32,address)": {
        "details": "Revokes `role` from `account`. If `account` had been granted `role`, emits a {RoleRevoked} event. Requirements: - the caller must have ``role``'s admin role."
      },
      "shiftTokens(uint256,uint32,bool)": {
        "params": {
          "amountSyntheticTokensToShift": "Amount of tokens to shift.",
          "isShiftFromLong": "Whether the shift is from long to short or short to long.",
          "marketIndex": "Identifier for the market."
        }
      },
      "stakeFromUser(address,uint256)": {
        "params": {
          "amount": "Amount to stake.",
          "from": "Address to stake for."
        }
      },
      "supportsInterface(bytes4)": {
        "details": "See {IERC165-supportsInterface}."
      },
      "upgradeTo(address)": {
        "details": "Upgrade the implementation of the proxy to `newImplementation`. Calls {_authorizeUpgrade}. Emits an {Upgraded} event."
      },
      "upgradeToAndCall(address,bytes)": {
        "details": "Upgrade the implementation of the proxy to `newImplementation`, and subsequently execute the function call encoded in `data`. Calls {_authorizeUpgrade}. Emits an {Upgraded} event."
      },
      "withdraw(uint32,bool,uint256)": {
        "params": {
          "amount": "Amount to withdraw.",
          "isWithdrawFromLong": "is synthetic token to be withdrawn long or short",
          "marketIndex": "Market index of staked synthetic token"
        }
      },
      "withdrawAll(uint32,bool)": {
        "params": {
          "isWithdrawFromLong": "is synthetic token to be withdrawn long or short",
          "marketIndex": "Market index of staked synthetic token"
        }
      }
    },
    "stateVariables": {
      "userNextPrice_amountStakedSyntheticToken_toShiftAwayFrom": {
        "details": "marketIndex => usersAddress => amountUserRequestedToShiftAwayFromLongOnNextUpdate"
      },
      "userNextPrice_stakedSyntheticTokenShiftIndex": {
        "details": "marketIndex => usersAddress => stakerTokenShiftIndex"
      }
    },
    "version": 1
  },
  "userdoc": {
    "kind": "user",
    "methods": {
      "addNewStakingFund(uint32,address,address,uint256,uint256,uint256,uint256,int256)": {
        "notice": "Sets this contract to track staking for a market in LongShort.sol"
      },
      "changeBalanceIncentiveParameters(uint32,uint256,int256,uint256)": {
        "notice": "Changes the balance incentive exponent for a market"
      },
      "changeFloatPercentage(uint256)": {
        "notice": "Changes percentage of float that is minted for float capital."
      },
      "changeUnstakeFee(uint32,uint256)": {
        "notice": "Changes unstake fee for a market"
      },
      "claimFloatCustom(uint32[])": {
        "notice": "Mints outstanding float for msg.sender."
      },
      "claimFloatCustomFor(uint32[],address)": {
        "notice": "Mints outstanding float on behalf of another user."
      },
      "initialize(address,address,address,address,address,uint256)": {
        "notice": "Initializes the contract."
      },
      "pushUpdatedMarketPricesToUpdateFloatIssuanceCalculations(uint32,uint256,uint256,uint256,uint256,uint256)": {
        "notice": "Adds new accumulativeIssuancePerStakedSynthSnapshots for the given long/short tokens. Called by the ILongShort contract whenever there is a state change for a market."
      },
      "shiftTokens(uint256,uint32,bool)": {
        "notice": "Allows users to shift their staked tokens from one side of the market to the other at the next price."
      },
      "stakeFromUser(address,uint256)": {
        "notice": "A user with synthetic tokens stakes by calling stake on the token contract which calls this function. We need to first update the state of the LongShort contract for this market before staking to correctly calculate user rewards."
      },
      "withdraw(uint32,bool,uint256)": {
        "notice": "Withdraw function. Allows users to unstake."
      },
      "withdrawAll(uint32,bool)": {
        "notice": "Allows users to withdraw their entire stake for a token."
      }
    },
    "version": 1
  },
  "storageLayout": {
    "storage": [
      {
        "astId": 1148,
        "contract": "contracts/Staker.sol:Staker",
        "label": "_initialized",
        "offset": 0,
        "slot": "0",
        "type": "t_bool"
      },
      {
        "astId": 1151,
        "contract": "contracts/Staker.sol:Staker",
        "label": "_initializing",
        "offset": 1,
        "slot": "0",
        "type": "t_bool"
      },
      {
        "astId": 3583,
        "contract": "contracts/Staker.sol:Staker",
        "label": "__gap",
        "offset": 0,
        "slot": "1",
        "type": "t_array(t_uint256)50_storage"
      },
      {
        "astId": 4482,
        "contract": "contracts/Staker.sol:Staker",
        "label": "__gap",
        "offset": 0,
        "slot": "51",
        "type": "t_array(t_uint256)50_storage"
      },
      {
        "astId": 350,
        "contract": "contracts/Staker.sol:Staker",
        "label": "_roles",
        "offset": 0,
        "slot": "101",
        "type": "t_mapping(t_bytes32,t_struct(RoleData)345_storage)"
      },
      {
        "astId": 635,
        "contract": "contracts/Staker.sol:Staker",
        "label": "__gap",
        "offset": 0,
        "slot": "102",
        "type": "t_array(t_uint256)49_storage"
      },
      {
        "astId": 1131,
        "contract": "contracts/Staker.sol:Staker",
        "label": "__gap",
        "offset": 0,
        "slot": "151",
        "type": "t_array(t_uint256)50_storage"
      },
      {
        "astId": 1264,
        "contract": "contracts/Staker.sol:Staker",
        "label": "__gap",
        "offset": 0,
        "slot": "201",
        "type": "t_array(t_uint256)50_storage"
      },
      {
        "astId": 13147,
        "contract": "contracts/Staker.sol:Staker",
        "label": "floatCapital",
        "offset": 0,
        "slot": "251",
        "type": "t_address"
      },
      {
        "astId": 13149,
        "contract": "contracts/Staker.sol:Staker",
        "label": "floatTreasury",
        "offset": 0,
        "slot": "252",
        "type": "t_address"
      },
      {
        "astId": 13151,
        "contract": "contracts/Staker.sol:Staker",
        "label": "floatPercentage",
        "offset": 0,
        "slot": "253",
        "type": "t_uint256"
      },
      {
        "astId": 13153,
        "contract": "contracts/Staker.sol:Staker",
        "label": "longShort",
        "offset": 0,
        "slot": "254",
        "type": "t_address"
      },
      {
        "astId": 13155,
        "contract": "contracts/Staker.sol:Staker",
        "label": "floatToken",
        "offset": 0,
        "slot": "255",
        "type": "t_address"
      },
      {
        "astId": 13159,
        "contract": "contracts/Staker.sol:Staker",
        "label": "marketLaunchIncentive_period",
        "offset": 0,
        "slot": "256",
        "type": "t_mapping(t_uint32,t_uint256)"
      },
      {
        "astId": 13163,
        "contract": "contracts/Staker.sol:Staker",
        "label": "marketLaunchIncentive_multipliers",
        "offset": 0,
        "slot": "257",
        "type": "t_mapping(t_uint32,t_uint256)"
      },
      {
        "astId": 13167,
        "contract": "contracts/Staker.sol:Staker",
        "label": "marketUnstakeFee_e18",
        "offset": 0,
        "slot": "258",
        "type": "t_mapping(t_uint32,t_uint256)"
      },
      {
        "astId": 13171,
        "contract": "contracts/Staker.sol:Staker",
        "label": "balanceIncentiveCurve_exponent",
        "offset": 0,
        "slot": "259",
        "type": "t_mapping(t_uint32,t_uint256)"
      },
      {
        "astId": 13175,
        "contract": "contracts/Staker.sol:Staker",
        "label": "balanceIncentiveCurve_equilibriumOffset",
        "offset": 0,
        "slot": "260",
        "type": "t_mapping(t_uint32,t_int256)"
      },
      {
        "astId": 13179,
        "contract": "contracts/Staker.sol:Staker",
        "label": "safeExponentBitShifting",
        "offset": 0,
        "slot": "261",
        "type": "t_mapping(t_uint32,t_uint256)"
      },
      {
        "astId": 13185,
        "contract": "contracts/Staker.sol:Staker",
        "label": "syntheticTokens",
        "offset": 0,
        "slot": "262",
        "type": "t_mapping(t_uint32,t_mapping(t_bool,t_address))"
      },
      {
        "astId": 13189,
        "contract": "contracts/Staker.sol:Staker",
        "label": "marketIndexOfToken",
        "offset": 0,
        "slot": "263",
        "type": "t_mapping(t_address,t_uint32)"
      },
      {
        "astId": 13193,
        "contract": "contracts/Staker.sol:Staker",
        "label": "latestRewardIndex",
        "offset": 0,
        "slot": "264",
        "type": "t_mapping(t_uint32,t_uint256)"
      },
      {
        "astId": 13200,
        "contract": "contracts/Staker.sol:Staker",
        "label": "accumulativeFloatPerSyntheticTokenSnapshots",
        "offset": 0,
        "slot": "265",
        "type": "t_mapping(t_uint32,t_mapping(t_uint256,t_struct(AccumulativeIssuancePerStakedSynthSnapshot)13207_storage))"
      },
      {
        "astId": 13213,
        "contract": "contracts/Staker.sol:Staker",
        "label": "userIndexOfLastClaimedReward",
        "offset": 0,
        "slot": "266",
        "type": "t_mapping(t_uint32,t_mapping(t_address,t_uint256))"
      },
      {
        "astId": 13220,
        "contract": "contracts/Staker.sol:Staker",
        "label": "userAmountStaked",
        "offset": 0,
        "slot": "267",
        "type": "t_mapping(t_address,t_mapping(t_address,t_uint256))"
      },
      {
        "astId": 13227,
        "contract": "contracts/Staker.sol:Staker",
        "label": "userNextPrice_stakedSyntheticTokenShiftIndex",
        "offset": 0,
        "slot": "268",
        "type": "t_mapping(t_uint32,t_mapping(t_address,t_uint256))"
      },
      {
        "astId": 13236,
        "contract": "contracts/Staker.sol:Staker",
        "label": "userNextPrice_amountStakedSyntheticToken_toShiftAwayFrom",
        "offset": 0,
        "slot": "269",
        "type": "t_mapping(t_uint32,t_mapping(t_bool,t_mapping(t_address,t_uint256)))"
      }
    ],
    "types": {
      "t_address": {
        "encoding": "inplace",
        "label": "address",
        "numberOfBytes": "20"
      },
      "t_array(t_uint256)49_storage": {
        "base": "t_uint256",
        "encoding": "inplace",
        "label": "uint256[49]",
        "numberOfBytes": "1568"
      },
      "t_array(t_uint256)50_storage": {
        "base": "t_uint256",
        "encoding": "inplace",
        "label": "uint256[50]",
        "numberOfBytes": "1600"
      },
      "t_bool": {
        "encoding": "inplace",
        "label": "bool",
        "numberOfBytes": "1"
      },
      "t_bytes32": {
        "encoding": "inplace",
        "label": "bytes32",
        "numberOfBytes": "32"
      },
      "t_int256": {
        "encoding": "inplace",
        "label": "int256",
        "numberOfBytes": "32"
      },
      "t_mapping(t_address,t_bool)": {
        "encoding": "mapping",
        "key": "t_address",
        "label": "mapping(address => bool)",
        "numberOfBytes": "32",
        "value": "t_bool"
      },
      "t_mapping(t_address,t_mapping(t_address,t_uint256))": {
        "encoding": "mapping",
        "key": "t_address",
        "label": "mapping(address => mapping(address => uint256))",
        "numberOfBytes": "32",
        "value": "t_mapping(t_address,t_uint256)"
      },
      "t_mapping(t_address,t_uint256)": {
        "encoding": "mapping",
        "key": "t_address",
        "label": "mapping(address => uint256)",
        "numberOfBytes": "32",
        "value": "t_uint256"
      },
      "t_mapping(t_address,t_uint32)": {
        "encoding": "mapping",
        "key": "t_address",
        "label": "mapping(address => uint32)",
        "numberOfBytes": "32",
        "value": "t_uint32"
      },
      "t_mapping(t_bool,t_address)": {
        "encoding": "mapping",
        "key": "t_bool",
        "label": "mapping(bool => address)",
        "numberOfBytes": "32",
        "value": "t_address"
      },
      "t_mapping(t_bool,t_mapping(t_address,t_uint256))": {
        "encoding": "mapping",
        "key": "t_bool",
        "label": "mapping(bool => mapping(address => uint256))",
        "numberOfBytes": "32",
        "value": "t_mapping(t_address,t_uint256)"
      },
      "t_mapping(t_bytes32,t_struct(RoleData)345_storage)": {
        "encoding": "mapping",
        "key": "t_bytes32",
        "label": "mapping(bytes32 => struct AccessControlUpgradeable.RoleData)",
        "numberOfBytes": "32",
        "value": "t_struct(RoleData)345_storage"
      },
      "t_mapping(t_uint256,t_struct(AccumulativeIssuancePerStakedSynthSnapshot)13207_storage)": {
        "encoding": "mapping",
        "key": "t_uint256",
        "label": "mapping(uint256 => struct Staker.AccumulativeIssuancePerStakedSynthSnapshot)",
        "numberOfBytes": "32",
        "value": "t_struct(AccumulativeIssuancePerStakedSynthSnapshot)13207_storage"
      },
      "t_mapping(t_uint32,t_int256)": {
        "encoding": "mapping",
        "key": "t_uint32",
        "label": "mapping(uint32 => int256)",
        "numberOfBytes": "32",
        "value": "t_int256"
      },
      "t_mapping(t_uint32,t_mapping(t_address,t_uint256))": {
        "encoding": "mapping",
        "key": "t_uint32",
        "label": "mapping(uint32 => mapping(address => uint256))",
        "numberOfBytes": "32",
        "value": "t_mapping(t_address,t_uint256)"
      },
      "t_mapping(t_uint32,t_mapping(t_bool,t_address))": {
        "encoding": "mapping",
        "key": "t_uint32",
        "label": "mapping(uint32 => mapping(bool => address))",
        "numberOfBytes": "32",
        "value": "t_mapping(t_bool,t_address)"
      },
      "t_mapping(t_uint32,t_mapping(t_bool,t_mapping(t_address,t_uint256)))": {
        "encoding": "mapping",
        "key": "t_uint32",
        "label": "mapping(uint32 => mapping(bool => mapping(address => uint256)))",
        "numberOfBytes": "32",
        "value": "t_mapping(t_bool,t_mapping(t_address,t_uint256))"
      },
      "t_mapping(t_uint32,t_mapping(t_uint256,t_struct(AccumulativeIssuancePerStakedSynthSnapshot)13207_storage))": {
        "encoding": "mapping",
        "key": "t_uint32",
        "label": "mapping(uint32 => mapping(uint256 => struct Staker.AccumulativeIssuancePerStakedSynthSnapshot))",
        "numberOfBytes": "32",
        "value": "t_mapping(t_uint256,t_struct(AccumulativeIssuancePerStakedSynthSnapshot)13207_storage)"
      },
      "t_mapping(t_uint32,t_uint256)": {
        "encoding": "mapping",
        "key": "t_uint32",
        "label": "mapping(uint32 => uint256)",
        "numberOfBytes": "32",
        "value": "t_uint256"
      },
      "t_struct(AccumulativeIssuancePerStakedSynthSnapshot)13207_storage": {
        "encoding": "inplace",
        "label": "struct Staker.AccumulativeIssuancePerStakedSynthSnapshot",
        "members": [
          {
            "astId": 13202,
            "contract": "contracts/Staker.sol:Staker",
            "label": "timestamp",
            "offset": 0,
            "slot": "0",
            "type": "t_uint256"
          },
          {
            "astId": 13204,
            "contract": "contracts/Staker.sol:Staker",
            "label": "accumulativeFloatPerSyntheticToken_long",
            "offset": 0,
            "slot": "1",
            "type": "t_uint256"
          },
          {
            "astId": 13206,
            "contract": "contracts/Staker.sol:Staker",
            "label": "accumulativeFloatPerSyntheticToken_short",
            "offset": 0,
            "slot": "2",
            "type": "t_uint256"
          }
        ],
        "numberOfBytes": "96"
      },
      "t_struct(RoleData)345_storage": {
        "encoding": "inplace",
        "label": "struct AccessControlUpgradeable.RoleData",
        "members": [
          {
            "astId": 342,
            "contract": "contracts/Staker.sol:Staker",
            "label": "members",
            "offset": 0,
            "slot": "0",
            "type": "t_mapping(t_address,t_bool)"
          },
          {
            "astId": 344,
            "contract": "contracts/Staker.sol:Staker",
            "label": "adminRole",
            "offset": 0,
            "slot": "1",
            "type": "t_bytes32"
          }
        ],
        "numberOfBytes": "64"
      },
      "t_uint256": {
        "encoding": "inplace",
        "label": "uint256",
        "numberOfBytes": "32"
      },
      "t_uint32": {
        "encoding": "inplace",
        "label": "uint32",
        "numberOfBytes": "4"
      }
    }
  }
}